{
	"VendingMachine.sol": {
		"VendingMachineDAO": {
			"abi": [
				{
					"inputs": [
						{
							"internalType": "address",
							"name": "_paymentToken",
							"type": "address"
						},
						{
							"internalType": "address",
							"name": "_assetToken",
							"type": "address"
						},
						{
							"internalType": "uint256",
							"name": "_coffeePrice",
							"type": "uint256"
						}
					],
					"stateMutability": "nonpayable",
					"type": "constructor"
				},
				{
					"anonymous": false,
					"inputs": [
						{
							"indexed": true,
							"internalType": "uint256",
							"name": "machineId",
							"type": "uint256"
						},
						{
							"indexed": false,
							"internalType": "address",
							"name": "buyer",
							"type": "address"
						},
						{
							"indexed": false,
							"internalType": "uint256",
							"name": "amount",
							"type": "uint256"
						}
					],
					"name": "CoffeeOrdered",
					"type": "event"
				},
				{
					"anonymous": false,
					"inputs": [
						{
							"indexed": false,
							"internalType": "address",
							"name": "investor",
							"type": "address"
						},
						{
							"indexed": false,
							"internalType": "uint256",
							"name": "amount",
							"type": "uint256"
						}
					],
					"name": "DividendClaimed",
					"type": "event"
				},
				{
					"anonymous": false,
					"inputs": [
						{
							"indexed": false,
							"internalType": "string",
							"name": "category",
							"type": "string"
						},
						{
							"indexed": false,
							"internalType": "address",
							"name": "to",
							"type": "address"
						},
						{
							"indexed": false,
							"internalType": "uint256",
							"name": "amount",
							"type": "uint256"
						},
						{
							"indexed": false,
							"internalType": "string",
							"name": "note",
							"type": "string"
						}
					],
					"name": "ExpensePaid",
					"type": "event"
				},
				{
					"anonymous": false,
					"inputs": [
						{
							"indexed": false,
							"internalType": "uint256",
							"name": "dividendAmount",
							"type": "uint256"
						},
						{
							"indexed": false,
							"internalType": "uint256",
							"name": "growthAmount",
							"type": "uint256"
						}
					],
					"name": "ProfitDistributed",
					"type": "event"
				},
				{
					"anonymous": false,
					"inputs": [
						{
							"indexed": false,
							"internalType": "uint256",
							"name": "id",
							"type": "uint256"
						},
						{
							"indexed": false,
							"internalType": "string",
							"name": "pType",
							"type": "string"
						},
						{
							"indexed": false,
							"internalType": "string",
							"name": "desc",
							"type": "string"
						}
					],
					"name": "ProposalCreated",
					"type": "event"
				},
				{
					"anonymous": false,
					"inputs": [
						{
							"indexed": false,
							"internalType": "uint256",
							"name": "id",
							"type": "uint256"
						},
						{
							"indexed": false,
							"internalType": "bool",
							"name": "success",
							"type": "bool"
						}
					],
					"name": "ProposalExecuted",
					"type": "event"
				},
				{
					"anonymous": false,
					"inputs": [
						{
							"indexed": false,
							"internalType": "address",
							"name": "from",
							"type": "address"
						},
						{
							"indexed": false,
							"internalType": "address",
							"name": "to",
							"type": "address"
						},
						{
							"indexed": false,
							"internalType": "uint256",
							"name": "amount",
							"type": "uint256"
						}
					],
					"name": "ShareTransferred",
					"type": "event"
				},
				{
					"anonymous": false,
					"inputs": [
						{
							"indexed": false,
							"internalType": "address",
							"name": "investor",
							"type": "address"
						},
						{
							"indexed": false,
							"internalType": "uint256",
							"name": "amount",
							"type": "uint256"
						},
						{
							"indexed": false,
							"internalType": "uint256",
							"name": "cost",
							"type": "uint256"
						}
					],
					"name": "SharesPurchased",
					"type": "event"
				},
				{
					"anonymous": false,
					"inputs": [
						{
							"indexed": false,
							"internalType": "uint256",
							"name": "proposalId",
							"type": "uint256"
						},
						{
							"indexed": false,
							"internalType": "address",
							"name": "voter",
							"type": "address"
						},
						{
							"indexed": false,
							"internalType": "uint256",
							"name": "weight",
							"type": "uint256"
						}
					],
					"name": "Voted",
					"type": "event"
				},
				{
					"inputs": [],
					"name": "DIVIDEND_RATE",
					"outputs": [
						{
							"internalType": "uint256",
							"name": "",
							"type": "uint256"
						}
					],
					"stateMutability": "view",
					"type": "function"
				},
				{
					"inputs": [],
					"name": "MAX_WALLET_PERCENT",
					"outputs": [
						{
							"internalType": "uint256",
							"name": "",
							"type": "uint256"
						}
					],
					"stateMutability": "view",
					"type": "function"
				},
				{
					"inputs": [],
					"name": "REINVEST_RATE",
					"outputs": [
						{
							"internalType": "uint256",
							"name": "",
							"type": "uint256"
						}
					],
					"stateMutability": "view",
					"type": "function"
				},
				{
					"inputs": [
						{
							"internalType": "string",
							"name": "_loc",
							"type": "string"
						}
					],
					"name": "addMachine",
					"outputs": [],
					"stateMutability": "nonpayable",
					"type": "function"
				},
				{
					"inputs": [],
					"name": "assetToken",
					"outputs": [
						{
							"internalType": "contract IERC20",
							"name": "",
							"type": "address"
						}
					],
					"stateMutability": "view",
					"type": "function"
				},
				{
					"inputs": [
						{
							"internalType": "uint256",
							"name": "_machineId",
							"type": "uint256"
						}
					],
					"name": "buyCoffee",
					"outputs": [],
					"stateMutability": "nonpayable",
					"type": "function"
				},
				{
					"inputs": [
						{
							"internalType": "uint256",
							"name": "_amount",
							"type": "uint256"
						}
					],
					"name": "buyShares",
					"outputs": [],
					"stateMutability": "nonpayable",
					"type": "function"
				},
				{
					"inputs": [],
					"name": "claimDividends",
					"outputs": [],
					"stateMutability": "nonpayable",
					"type": "function"
				},
				{
					"inputs": [],
					"name": "coffeePrice",
					"outputs": [
						{
							"internalType": "uint256",
							"name": "",
							"type": "uint256"
						}
					],
					"stateMutability": "view",
					"type": "function"
				},
				{
					"inputs": [],
					"name": "cogsPerCup",
					"outputs": [
						{
							"internalType": "uint256",
							"name": "",
							"type": "uint256"
						}
					],
					"stateMutability": "view",
					"type": "function"
				},
				{
					"inputs": [],
					"name": "getAvailableShares",
					"outputs": [
						{
							"internalType": "uint256",
							"name": "",
							"type": "uint256"
						}
					],
					"stateMutability": "view",
					"type": "function"
				},
				{
					"inputs": [],
					"name": "getOperationalReserve",
					"outputs": [
						{
							"internalType": "uint256",
							"name": "",
							"type": "uint256"
						}
					],
					"stateMutability": "view",
					"type": "function"
				},
				{
					"inputs": [
						{
							"internalType": "address",
							"name": "_holder",
							"type": "address"
						}
					],
					"name": "getWithdrawableDividend",
					"outputs": [
						{
							"internalType": "uint256",
							"name": "",
							"type": "uint256"
						}
					],
					"stateMutability": "view",
					"type": "function"
				},
				{
					"inputs": [],
					"name": "growthFund",
					"outputs": [
						{
							"internalType": "uint256",
							"name": "",
							"type": "uint256"
						}
					],
					"stateMutability": "view",
					"type": "function"
				},
				{
					"inputs": [
						{
							"internalType": "address",
							"name": "",
							"type": "address"
						}
					],
					"name": "isWhitelisted",
					"outputs": [
						{
							"internalType": "bool",
							"name": "",
							"type": "bool"
						}
					],
					"stateMutability": "view",
					"type": "function"
				},
				{
					"inputs": [
						{
							"internalType": "address",
							"name": "",
							"type": "address"
						}
					],
					"name": "lastPaid",
					"outputs": [
						{
							"internalType": "uint256",
							"name": "",
							"type": "uint256"
						}
					],
					"stateMutability": "view",
					"type": "function"
				},
				{
					"inputs": [],
					"name": "machineCount",
					"outputs": [
						{
							"internalType": "uint256",
							"name": "",
							"type": "uint256"
						}
					],
					"stateMutability": "view",
					"type": "function"
				},
				{
					"inputs": [
						{
							"internalType": "uint256",
							"name": "",
							"type": "uint256"
						}
					],
					"name": "machines",
					"outputs": [
						{
							"internalType": "uint256",
							"name": "id",
							"type": "uint256"
						},
						{
							"internalType": "string",
							"name": "location",
							"type": "string"
						},
						{
							"internalType": "bool",
							"name": "isActive",
							"type": "bool"
						},
						{
							"internalType": "uint256",
							"name": "totalSales",
							"type": "uint256"
						}
					],
					"stateMutability": "view",
					"type": "function"
				},
				{
					"inputs": [
						{
							"internalType": "address",
							"name": "",
							"type": "address"
						}
					],
					"name": "magnifiedDividendCorrections",
					"outputs": [
						{
							"internalType": "int256",
							"name": "",
							"type": "int256"
						}
					],
					"stateMutability": "view",
					"type": "function"
				},
				{
					"inputs": [],
					"name": "magnifiedDividendPerShare",
					"outputs": [
						{
							"internalType": "uint256",
							"name": "",
							"type": "uint256"
						}
					],
					"stateMutability": "view",
					"type": "function"
				},
				{
					"inputs": [],
					"name": "owner",
					"outputs": [
						{
							"internalType": "address",
							"name": "",
							"type": "address"
						}
					],
					"stateMutability": "view",
					"type": "function"
				},
				{
					"inputs": [
						{
							"internalType": "address",
							"name": "_staff",
							"type": "address"
						}
					],
					"name": "payDailySalary",
					"outputs": [],
					"stateMutability": "nonpayable",
					"type": "function"
				},
				{
					"inputs": [],
					"name": "paymentToken",
					"outputs": [
						{
							"internalType": "contract IERC20",
							"name": "",
							"type": "address"
						}
					],
					"stateMutability": "view",
					"type": "function"
				},
				{
					"inputs": [],
					"name": "proposalCount",
					"outputs": [
						{
							"internalType": "uint256",
							"name": "",
							"type": "uint256"
						}
					],
					"stateMutability": "view",
					"type": "function"
				},
				{
					"inputs": [
						{
							"internalType": "uint256",
							"name": "",
							"type": "uint256"
						}
					],
					"name": "proposals",
					"outputs": [
						{
							"internalType": "uint256",
							"name": "id",
							"type": "uint256"
						},
						{
							"internalType": "enum VendingMachineDAO.ProposalType",
							"name": "pType",
							"type": "uint8"
						},
						{
							"internalType": "address",
							"name": "target",
							"type": "address"
						},
						{
							"internalType": "uint256",
							"name": "amount",
							"type": "uint256"
						},
						{
							"internalType": "string",
							"name": "description",
							"type": "string"
						},
						{
							"internalType": "uint256",
							"name": "voteCount",
							"type": "uint256"
						},
						{
							"internalType": "bool",
							"name": "executed",
							"type": "bool"
						},
						{
							"internalType": "uint256",
							"name": "endTime",
							"type": "uint256"
						}
					],
					"stateMutability": "view",
					"type": "function"
				},
				{
					"inputs": [
						{
							"internalType": "address",
							"name": "_vendor",
							"type": "address"
						},
						{
							"internalType": "string",
							"name": "_nama",
							"type": "string"
						}
					],
					"name": "proposeAddVendor",
					"outputs": [],
					"stateMutability": "nonpayable",
					"type": "function"
				},
				{
					"inputs": [
						{
							"internalType": "address",
							"name": "_vendor",
							"type": "address"
						},
						{
							"internalType": "uint256",
							"name": "_price",
							"type": "uint256"
						},
						{
							"internalType": "string",
							"name": "_desc",
							"type": "string"
						}
					],
					"name": "proposeBuyMachine",
					"outputs": [],
					"stateMutability": "nonpayable",
					"type": "function"
				},
				{
					"inputs": [
						{
							"internalType": "address",
							"name": "_vendor",
							"type": "address"
						},
						{
							"internalType": "uint256",
							"name": "_price",
							"type": "uint256"
						},
						{
							"internalType": "string",
							"name": "_desc",
							"type": "string"
						}
					],
					"name": "proposeBuyStock",
					"outputs": [],
					"stateMutability": "nonpayable",
					"type": "function"
				},
				{
					"inputs": [
						{
							"internalType": "address",
							"name": "_staff",
							"type": "address"
						},
						{
							"internalType": "uint256",
							"name": "_dailyAmount",
							"type": "uint256"
						},
						{
							"internalType": "string",
							"name": "_alasan",
							"type": "string"
						}
					],
					"name": "proposeUpdateSalary",
					"outputs": [],
					"stateMutability": "nonpayable",
					"type": "function"
				},
				{
					"inputs": [
						{
							"internalType": "uint256",
							"name": "_price",
							"type": "uint256"
						}
					],
					"name": "setCoffeePrice",
					"outputs": [],
					"stateMutability": "nonpayable",
					"type": "function"
				},
				{
					"inputs": [],
					"name": "sharePrice",
					"outputs": [
						{
							"internalType": "uint256",
							"name": "",
							"type": "uint256"
						}
					],
					"stateMutability": "view",
					"type": "function"
				},
				{
					"inputs": [
						{
							"internalType": "address",
							"name": "",
							"type": "address"
						}
					],
					"name": "staffSalaries",
					"outputs": [
						{
							"internalType": "uint256",
							"name": "",
							"type": "uint256"
						}
					],
					"stateMutability": "view",
					"type": "function"
				},
				{
					"inputs": [],
					"name": "totalDividendsClaimed",
					"outputs": [
						{
							"internalType": "uint256",
							"name": "",
							"type": "uint256"
						}
					],
					"stateMutability": "view",
					"type": "function"
				},
				{
					"inputs": [],
					"name": "totalDividendsDistributed",
					"outputs": [
						{
							"internalType": "uint256",
							"name": "",
							"type": "uint256"
						}
					],
					"stateMutability": "view",
					"type": "function"
				},
				{
					"inputs": [],
					"name": "totalRevenue",
					"outputs": [
						{
							"internalType": "uint256",
							"name": "",
							"type": "uint256"
						}
					],
					"stateMutability": "view",
					"type": "function"
				},
				{
					"inputs": [
						{
							"internalType": "address",
							"name": "_to",
							"type": "address"
						},
						{
							"internalType": "uint256",
							"name": "_amount",
							"type": "uint256"
						}
					],
					"name": "transferSaham",
					"outputs": [],
					"stateMutability": "nonpayable",
					"type": "function"
				},
				{
					"inputs": [
						{
							"internalType": "uint256",
							"name": "_id",
							"type": "uint256"
						}
					],
					"name": "vote",
					"outputs": [],
					"stateMutability": "nonpayable",
					"type": "function"
				},
				{
					"inputs": [
						{
							"internalType": "address",
							"name": "",
							"type": "address"
						}
					],
					"name": "withdrawnDividends",
					"outputs": [
						{
							"internalType": "uint256",
							"name": "",
							"type": "uint256"
						}
					],
					"stateMutability": "view",
					"type": "function"
				}
			],
			"devdoc": {
				"kind": "dev",
				"methods": {},
				"version": 1
			},
			"evm": {
				"assembly": "    /* \"VendingMachine.sol\":407:15011  contract VendingMachineDAO {... */\n  mstore(0x40, 0x80)\n    /* \"VendingMachine.sol\":754:768  15000 * 10**18 */\n  0x032d26d12e980b600000\n    /* \"VendingMachine.sol\":725:768  uint256 public coffeePrice = 15000 * 10**18 */\n  0x03\n  sstore\n    /* \"VendingMachine.sol\":804:817  5000 * 10**18 */\n  0x010f0cf064dd59200000\n    /* \"VendingMachine.sol\":776:817  uint256 public cogsPerCup = 5000 * 10**18 */\n  0x04\n  sstore\n    /* \"VendingMachine.sol\":1575:1588  1000 * 10**18 */\n  0x3635c9adc5dea00000\n    /* \"VendingMachine.sol\":1547:1588  uint256 public sharePrice = 1000 * 10**18 */\n  0x0c\n  sstore\n    /* \"VendingMachine.sol\":4139:4426  constructor(address _paymentToken, address _assetToken, uint256 _coffeePrice) {... */\n  callvalue\n  dup1\n  iszero\n  tag_1\n  jumpi\n  0x00\n  dup1\n  revert\ntag_1:\n  pop\n  mload(0x40)\n  sub(codesize, bytecodeSize)\n  dup1\n  bytecodeSize\n  dup4\n  codecopy\n  dup2\n  dup2\n  add\n  0x40\n  mstore\n  dup2\n  add\n  swap1\n  tag_2\n  swap2\n  swap1\n  tag_3\n  jump\t// in\ntag_2:\n    /* \"VendingMachine.sol\":4250:4263  _paymentToken */\n  dup3\n    /* \"VendingMachine.sol\":4228:4240  paymentToken */\n  0x00\n  dup1\n    /* \"VendingMachine.sol\":4228:4264  paymentToken = IERC20(_paymentToken) */\n  0x0100\n  exp\n  dup2\n  sload\n  dup2\n  0xffffffffffffffffffffffffffffffffffffffff\n  mul\n  not\n  and\n  swap1\n  dup4\n  0xffffffffffffffffffffffffffffffffffffffff\n  and\n  mul\n  or\n  swap1\n  sstore\n  pop\n    /* \"VendingMachine.sol\":4295:4306  _assetToken */\n  dup2\n    /* \"VendingMachine.sol\":4275:4285  assetToken */\n  0x01\n  0x00\n    /* \"VendingMachine.sol\":4275:4307  assetToken = IERC20(_assetToken) */\n  0x0100\n  exp\n  dup2\n  sload\n  dup2\n  0xffffffffffffffffffffffffffffffffffffffff\n  mul\n  not\n  and\n  swap1\n  dup4\n  0xffffffffffffffffffffffffffffffffffffffff\n  and\n  mul\n  or\n  swap1\n  sstore\n  pop\n    /* \"VendingMachine.sol\":4332:4344  _coffeePrice */\n  dup1\n    /* \"VendingMachine.sol\":4318:4329  coffeePrice */\n  0x03\n    /* \"VendingMachine.sol\":4318:4344  coffeePrice = _coffeePrice */\n  dup2\n  swap1\n  sstore\n  pop\n    /* \"VendingMachine.sol\":4364:4374  msg.sender */\n  caller\n    /* \"VendingMachine.sol\":4356:4361  owner */\n  0x02\n  0x00\n    /* \"VendingMachine.sol\":4356:4374  owner = msg.sender */\n  0x0100\n  exp\n  dup2\n  sload\n  dup2\n  0xffffffffffffffffffffffffffffffffffffffff\n  mul\n  not\n  and\n  swap1\n  dup4\n  0xffffffffffffffffffffffffffffffffffffffff\n  and\n  mul\n  or\n  swap1\n  sstore\n  pop\n    /* \"VendingMachine.sol\":4413:4417  true */\n  0x01\n    /* \"VendingMachine.sol\":4385:4398  isWhitelisted */\n  0x11\n    /* \"VendingMachine.sol\":4385:4410  isWhitelisted[msg.sender] */\n  0x00\n    /* \"VendingMachine.sol\":4399:4409  msg.sender */\n  caller\n    /* \"VendingMachine.sol\":4385:4410  isWhitelisted[msg.sender] */\n  0xffffffffffffffffffffffffffffffffffffffff\n  and\n  0xffffffffffffffffffffffffffffffffffffffff\n  and\n  dup2\n  mstore\n  0x20\n  add\n  swap1\n  dup2\n  mstore\n  0x20\n  add\n  0x00\n  keccak256\n  0x00\n    /* \"VendingMachine.sol\":4385:4417  isWhitelisted[msg.sender] = true */\n  0x0100\n  exp\n  dup2\n  sload\n  dup2\n  0xff\n  mul\n  not\n  and\n  swap1\n  dup4\n  iszero\n  iszero\n  mul\n  or\n  swap1\n  sstore\n  pop\n    /* \"VendingMachine.sol\":4139:4426  constructor(address _paymentToken, address _assetToken, uint256 _coffeePrice) {... */\n  pop\n  pop\n  pop\n    /* \"VendingMachine.sol\":407:15011  contract VendingMachineDAO {... */\n  jump(tag_6)\n    /* \"#utility.yul\":88:205   */\ntag_8:\n    /* \"#utility.yul\":197:198   */\n  0x00\n    /* \"#utility.yul\":194:195   */\n  dup1\n    /* \"#utility.yul\":187:199   */\n  revert\n    /* \"#utility.yul\":334:460   */\ntag_10:\n    /* \"#utility.yul\":371:378   */\n  0x00\n    /* \"#utility.yul\":411:453   */\n  0xffffffffffffffffffffffffffffffffffffffff\n    /* \"#utility.yul\":404:409   */\n  dup3\n    /* \"#utility.yul\":400:454   */\n  and\n    /* \"#utility.yul\":389:454   */\n  swap1\n  pop\n    /* \"#utility.yul\":334:460   */\n  swap2\n  swap1\n  pop\n  jump\t// out\n    /* \"#utility.yul\":466:562   */\ntag_11:\n    /* \"#utility.yul\":503:510   */\n  0x00\n    /* \"#utility.yul\":532:556   */\n  tag_23\n    /* \"#utility.yul\":550:555   */\n  dup3\n    /* \"#utility.yul\":532:556   */\n  tag_10\n  jump\t// in\ntag_23:\n    /* \"#utility.yul\":521:556   */\n  swap1\n  pop\n    /* \"#utility.yul\":466:562   */\n  swap2\n  swap1\n  pop\n  jump\t// out\n    /* \"#utility.yul\":568:690   */\ntag_12:\n    /* \"#utility.yul\":641:665   */\n  tag_25\n    /* \"#utility.yul\":659:664   */\n  dup2\n    /* \"#utility.yul\":641:665   */\n  tag_11\n  jump\t// in\ntag_25:\n    /* \"#utility.yul\":634:639   */\n  dup2\n    /* \"#utility.yul\":631:666   */\n  eq\n    /* \"#utility.yul\":621:684   */\n  tag_26\n  jumpi\n    /* \"#utility.yul\":680:681   */\n  0x00\n    /* \"#utility.yul\":677:678   */\n  dup1\n    /* \"#utility.yul\":670:682   */\n  revert\n    /* \"#utility.yul\":621:684   */\ntag_26:\n    /* \"#utility.yul\":568:690   */\n  pop\n  jump\t// out\n    /* \"#utility.yul\":696:839   */\ntag_13:\n    /* \"#utility.yul\":753:758   */\n  0x00\n    /* \"#utility.yul\":784:790   */\n  dup2\n    /* \"#utility.yul\":778:791   */\n  mload\n    /* \"#utility.yul\":769:791   */\n  swap1\n  pop\n    /* \"#utility.yul\":800:833   */\n  tag_28\n    /* \"#utility.yul\":827:832   */\n  dup2\n    /* \"#utility.yul\":800:833   */\n  tag_12\n  jump\t// in\ntag_28:\n    /* \"#utility.yul\":696:839   */\n  swap3\n  swap2\n  pop\n  pop\n  jump\t// out\n    /* \"#utility.yul\":845:922   */\ntag_14:\n    /* \"#utility.yul\":882:889   */\n  0x00\n    /* \"#utility.yul\":911:916   */\n  dup2\n    /* \"#utility.yul\":900:916   */\n  swap1\n  pop\n    /* \"#utility.yul\":845:922   */\n  swap2\n  swap1\n  pop\n  jump\t// out\n    /* \"#utility.yul\":928:1050   */\ntag_15:\n    /* \"#utility.yul\":1001:1025   */\n  tag_31\n    /* \"#utility.yul\":1019:1024   */\n  dup2\n    /* \"#utility.yul\":1001:1025   */\n  tag_14\n  jump\t// in\ntag_31:\n    /* \"#utility.yul\":994:999   */\n  dup2\n    /* \"#utility.yul\":991:1026   */\n  eq\n    /* \"#utility.yul\":981:1044   */\n  tag_32\n  jumpi\n    /* \"#utility.yul\":1040:1041   */\n  0x00\n    /* \"#utility.yul\":1037:1038   */\n  dup1\n    /* \"#utility.yul\":1030:1042   */\n  revert\n    /* \"#utility.yul\":981:1044   */\ntag_32:\n    /* \"#utility.yul\":928:1050   */\n  pop\n  jump\t// out\n    /* \"#utility.yul\":1056:1199   */\ntag_16:\n    /* \"#utility.yul\":1113:1118   */\n  0x00\n    /* \"#utility.yul\":1144:1150   */\n  dup2\n    /* \"#utility.yul\":1138:1151   */\n  mload\n    /* \"#utility.yul\":1129:1151   */\n  swap1\n  pop\n    /* \"#utility.yul\":1160:1193   */\n  tag_34\n    /* \"#utility.yul\":1187:1192   */\n  dup2\n    /* \"#utility.yul\":1160:1193   */\n  tag_15\n  jump\t// in\ntag_34:\n    /* \"#utility.yul\":1056:1199   */\n  swap3\n  swap2\n  pop\n  pop\n  jump\t// out\n    /* \"#utility.yul\":1205:1868   */\ntag_3:\n    /* \"#utility.yul\":1293:1299   */\n  0x00\n    /* \"#utility.yul\":1301:1307   */\n  dup1\n    /* \"#utility.yul\":1309:1315   */\n  0x00\n    /* \"#utility.yul\":1358:1360   */\n  0x60\n    /* \"#utility.yul\":1346:1355   */\n  dup5\n    /* \"#utility.yul\":1337:1344   */\n  dup7\n    /* \"#utility.yul\":1333:1356   */\n  sub\n    /* \"#utility.yul\":1329:1361   */\n  slt\n    /* \"#utility.yul\":1326:1445   */\n  iszero\n  tag_36\n  jumpi\n    /* \"#utility.yul\":1364:1443   */\n  tag_37\n  tag_8\n  jump\t// in\ntag_37:\n    /* \"#utility.yul\":1326:1445   */\ntag_36:\n    /* \"#utility.yul\":1484:1485   */\n  0x00\n    /* \"#utility.yul\":1509:1573   */\n  tag_38\n    /* \"#utility.yul\":1565:1572   */\n  dup7\n    /* \"#utility.yul\":1556:1562   */\n  dup3\n    /* \"#utility.yul\":1545:1554   */\n  dup8\n    /* \"#utility.yul\":1541:1563   */\n  add\n    /* \"#utility.yul\":1509:1573   */\n  tag_13\n  jump\t// in\ntag_38:\n    /* \"#utility.yul\":1499:1573   */\n  swap4\n  pop\n    /* \"#utility.yul\":1455:1583   */\n  pop\n    /* \"#utility.yul\":1622:1624   */\n  0x20\n    /* \"#utility.yul\":1648:1712   */\n  tag_39\n    /* \"#utility.yul\":1704:1711   */\n  dup7\n    /* \"#utility.yul\":1695:1701   */\n  dup3\n    /* \"#utility.yul\":1684:1693   */\n  dup8\n    /* \"#utility.yul\":1680:1702   */\n  add\n    /* \"#utility.yul\":1648:1712   */\n  tag_13\n  jump\t// in\ntag_39:\n    /* \"#utility.yul\":1638:1712   */\n  swap3\n  pop\n    /* \"#utility.yul\":1593:1722   */\n  pop\n    /* \"#utility.yul\":1761:1763   */\n  0x40\n    /* \"#utility.yul\":1787:1851   */\n  tag_40\n    /* \"#utility.yul\":1843:1850   */\n  dup7\n    /* \"#utility.yul\":1834:1840   */\n  dup3\n    /* \"#utility.yul\":1823:1832   */\n  dup8\n    /* \"#utility.yul\":1819:1841   */\n  add\n    /* \"#utility.yul\":1787:1851   */\n  tag_16\n  jump\t// in\ntag_40:\n    /* \"#utility.yul\":1777:1851   */\n  swap2\n  pop\n    /* \"#utility.yul\":1732:1861   */\n  pop\n    /* \"#utility.yul\":1205:1868   */\n  swap3\n  pop\n  swap3\n  pop\n  swap3\n  jump\t// out\n    /* \"VendingMachine.sol\":407:15011  contract VendingMachineDAO {... */\ntag_6:\n  dataSize(sub_0)\n  dup1\n  dataOffset(sub_0)\n  0x00\n  codecopy\n  0x00\n  return\nstop\n\nsub_0: assembly {\n        /* \"VendingMachine.sol\":407:15011  contract VendingMachineDAO {... */\n      mstore(0x40, 0x80)\n      callvalue\n      dup1\n      iszero\n      tag_1\n      jumpi\n      0x00\n      dup1\n      revert\n    tag_1:\n      pop\n      jumpi(tag_2, lt(calldatasize, 0x04))\n      shr(0xe0, calldataload(0x00))\n      dup1\n      0x817bc0cb\n      gt\n      tag_41\n      jumpi\n      dup1\n      0xb4b4b55e\n      gt\n      tag_42\n      jumpi\n      dup1\n      0xda35c664\n      gt\n      tag_43\n      jumpi\n      dup1\n      0xda35c664\n      eq\n      tag_36\n      jumpi\n      dup1\n      0xde3aaf61\n      eq\n      tag_37\n      jumpi\n      dup1\n      0xe70b7424\n      eq\n      tag_38\n      jumpi\n      dup1\n      0xeecace28\n      eq\n      tag_39\n      jumpi\n      dup1\n      0xf847dff7\n      eq\n      tag_40\n      jumpi\n      jump(tag_2)\n    tag_43:\n      dup1\n      0xb4b4b55e\n      eq\n      tag_31\n      jumpi\n      dup1\n      0xbf2d9e0b\n      eq\n      tag_32\n      jumpi\n      dup1\n      0xc870b910\n      eq\n      tag_33\n      jumpi\n      dup1\n      0xd1a93d18\n      eq\n      tag_34\n      jumpi\n      dup1\n      0xd8e0f826\n      eq\n      tag_35\n      jumpi\n      jump(tag_2)\n    tag_42:\n      dup1\n      0x97a06724\n      gt\n      tag_44\n      jumpi\n      dup1\n      0x97a06724\n      eq\n      tag_26\n      jumpi\n      dup1\n      0x9f13464e\n      eq\n      tag_27\n      jumpi\n      dup1\n      0xa4138b9b\n      eq\n      tag_28\n      jumpi\n      dup1\n      0xad9adcdc\n      eq\n      tag_29\n      jumpi\n      dup1\n      0xb03b4a29\n      eq\n      tag_30\n      jumpi\n      jump(tag_2)\n    tag_44:\n      dup1\n      0x817bc0cb\n      eq\n      tag_22\n      jumpi\n      dup1\n      0x85a6b3ae\n      eq\n      tag_23\n      jumpi\n      dup1\n      0x87269729\n      eq\n      tag_24\n      jumpi\n      dup1\n      0x8da5cb5b\n      eq\n      tag_25\n      jumpi\n      jump(tag_2)\n    tag_41:\n      dup1\n      0x3a7960e0\n      gt\n      tag_45\n      jumpi\n      dup1\n      0x56544490\n      gt\n      tag_46\n      jumpi\n      dup1\n      0x56544490\n      eq\n      tag_17\n      jumpi\n      dup1\n      0x5c3640ec\n      eq\n      tag_18\n      jumpi\n      dup1\n      0x668038e0\n      eq\n      tag_19\n      jumpi\n      dup1\n      0x679b9144\n      eq\n      tag_20\n      jumpi\n      dup1\n      0x77056d0f\n      eq\n      tag_21\n      jumpi\n      jump(tag_2)\n    tag_46:\n      dup1\n      0x3a7960e0\n      eq\n      tag_12\n      jumpi\n      dup1\n      0x3af32abf\n      eq\n      tag_13\n      jumpi\n      dup1\n      0x41260365\n      eq\n      tag_14\n      jumpi\n      dup1\n      0x4d42845c\n      eq\n      tag_15\n      jumpi\n      dup1\n      0x51ce612c\n      eq\n      tag_16\n      jumpi\n      jump(tag_2)\n    tag_45:\n      dup1\n      0x16c70448\n      gt\n      tag_47\n      jumpi\n      dup1\n      0x16c70448\n      eq\n      tag_7\n      jumpi\n      dup1\n      0x1c8a4038\n      eq\n      tag_8\n      jumpi\n      dup1\n      0x2620b4ee\n      eq\n      tag_9\n      jumpi\n      dup1\n      0x3013ce29\n      eq\n      tag_10\n      jumpi\n      dup1\n      0x33c5e003\n      eq\n      tag_11\n      jumpi\n      jump(tag_2)\n    tag_47:\n      dup1\n      0x0121b93f\n      eq\n      tag_3\n      jumpi\n      dup1\n      0x013cf08b\n      eq\n      tag_4\n      jumpi\n      dup1\n      0x0eb94a67\n      eq\n      tag_5\n      jumpi\n      dup1\n      0x1083f761\n      eq\n      tag_6\n      jumpi\n    tag_2:\n      0x00\n      dup1\n      revert\n        /* \"VendingMachine.sol\":8210:8897  function vote(uint256 _id) external noReentrancy {... */\n    tag_3:\n      tag_48\n      0x04\n      dup1\n      calldatasize\n      sub\n      dup2\n      add\n      swap1\n      tag_49\n      swap2\n      swap1\n      tag_50\n      jump\t// in\n    tag_49:\n      tag_51\n      jump\t// in\n    tag_48:\n      stop\n        /* \"VendingMachine.sol\":3033:3078  mapping(uint256 => Proposal) public proposals */\n    tag_4:\n      tag_52\n      0x04\n      dup1\n      calldatasize\n      sub\n      dup2\n      add\n      swap1\n      tag_53\n      swap2\n      swap1\n      tag_50\n      jump\t// in\n    tag_53:\n      tag_54\n      jump\t// in\n    tag_52:\n      mload(0x40)\n      tag_55\n      swap9\n      swap8\n      swap7\n      swap6\n      swap5\n      swap4\n      swap3\n      swap2\n      swap1\n      tag_56\n      jump\t// in\n    tag_55:\n      mload(0x40)\n      dup1\n      swap2\n      sub\n      swap1\n      return\n        /* \"VendingMachine.sol\":11290:11761  function transferSaham(address _to, uint256 _amount) external noReentrancy {... */\n    tag_5:\n      tag_57\n      0x04\n      dup1\n      calldatasize\n      sub\n      dup2\n      add\n      swap1\n      tag_58\n      swap2\n      swap1\n      tag_59\n      jump\t// in\n    tag_58:\n      tag_60\n      jump\t// in\n    tag_57:\n      stop\n        /* \"VendingMachine.sol\":647:671  IERC20 public assetToken */\n    tag_6:\n      tag_61\n      tag_62\n      jump\t// in\n    tag_61:\n      mload(0x40)\n      tag_63\n      swap2\n      swap1\n      tag_64\n      jump\t// in\n    tag_63:\n      mload(0x40)\n      dup1\n      swap2\n      sub\n      swap1\n      return\n        /* \"VendingMachine.sol\":6105:6782  function payDailySalary(address _staff) external onlyOwner noReentrancy {... */\n    tag_7:\n      tag_65\n      0x04\n      dup1\n      calldatasize\n      sub\n      dup2\n      add\n      swap1\n      tag_66\n      swap2\n      swap1\n      tag_67\n      jump\t// in\n    tag_66:\n      tag_68\n      jump\t// in\n    tag_65:\n      stop\n        /* \"VendingMachine.sol\":725:768  uint256 public coffeePrice = 15000 * 10**18 */\n    tag_8:\n      tag_69\n      tag_70\n      jump\t// in\n    tag_69:\n      mload(0x40)\n      tag_71\n      swap2\n      swap1\n      tag_72\n      jump\t// in\n    tag_71:\n      mload(0x40)\n      dup1\n      swap2\n      sub\n      swap1\n      return\n        /* \"VendingMachine.sol\":1272:1319  uint256 public constant MAX_WALLET_PERCENT = 40 */\n    tag_9:\n      tag_73\n      tag_74\n      jump\t// in\n    tag_73:\n      mload(0x40)\n      tag_75\n      swap2\n      swap1\n      tag_72\n      jump\t// in\n    tag_75:\n      mload(0x40)\n      dup1\n      swap2\n      sub\n      swap1\n      return\n        /* \"VendingMachine.sol\":613:639  IERC20 public paymentToken */\n    tag_10:\n      tag_76\n      tag_77\n      jump\t// in\n    tag_76:\n      mload(0x40)\n      tag_78\n      swap2\n      swap1\n      tag_64\n      jump\t// in\n    tag_78:\n      mload(0x40)\n      dup1\n      swap2\n      sub\n      swap1\n      return\n        /* \"VendingMachine.sol\":7290:7474  function proposeBuyMachine(address _vendor, uint256 _price, string memory _desc) external onlyOwner {... */\n    tag_11:\n      tag_79\n      0x04\n      dup1\n      calldatasize\n      sub\n      dup2\n      add\n      swap1\n      tag_80\n      swap2\n      swap1\n      tag_81\n      jump\t// in\n    tag_80:\n      tag_82\n      jump\t// in\n    tag_79:\n      stop\n        /* \"VendingMachine.sol\":1357:1397  uint256 public magnifiedDividendPerShare */\n    tag_12:\n      tag_83\n      tag_84\n      jump\t// in\n    tag_83:\n      mload(0x40)\n      tag_85\n      swap2\n      swap1\n      tag_72\n      jump\t// in\n    tag_85:\n      mload(0x40)\n      dup1\n      swap2\n      sub\n      swap1\n      return\n        /* \"VendingMachine.sol\":2277:2322  mapping(address => bool) public isWhitelisted */\n    tag_13:\n      tag_86\n      0x04\n      dup1\n      calldatasize\n      sub\n      dup2\n      add\n      swap1\n      tag_87\n      swap2\n      swap1\n      tag_67\n      jump\t// in\n    tag_87:\n      tag_88\n      jump\t// in\n    tag_86:\n      mload(0x40)\n      tag_89\n      swap2\n      swap1\n      tag_90\n      jump\t// in\n    tag_89:\n      mload(0x40)\n      dup1\n      swap2\n      sub\n      swap1\n      return\n        /* \"VendingMachine.sol\":2216:2243  uint256 public machineCount */\n    tag_14:\n      tag_91\n      tag_92\n      jump\t// in\n    tag_91:\n      mload(0x40)\n      tag_93\n      swap2\n      swap1\n      tag_72\n      jump\t// in\n    tag_93:\n      mload(0x40)\n      dup1\n      swap2\n      sub\n      swap1\n      return\n        /* \"VendingMachine.sol\":2165:2208  mapping(uint256 => Machine) public machines */\n    tag_15:\n      tag_94\n      0x04\n      dup1\n      calldatasize\n      sub\n      dup2\n      add\n      swap1\n      tag_95\n      swap2\n      swap1\n      tag_50\n      jump\t// in\n    tag_95:\n      tag_96\n      jump\t// in\n    tag_94:\n      mload(0x40)\n      tag_97\n      swap5\n      swap4\n      swap3\n      swap2\n      swap1\n      tag_98\n      jump\t// in\n    tag_97:\n      mload(0x40)\n      dup1\n      swap2\n      sub\n      swap1\n      return\n        /* \"VendingMachine.sol\":1037:1079  uint256 public constant REINVEST_RATE = 20 */\n    tag_16:\n      tag_99\n      tag_100\n      jump\t// in\n    tag_99:\n      mload(0x40)\n      tag_101\n      swap2\n      swap1\n      tag_72\n      jump\t// in\n    tag_101:\n      mload(0x40)\n      dup1\n      swap2\n      sub\n      swap1\n      return\n        /* \"VendingMachine.sol\":7528:7708  function proposeBuyStock(address _vendor, uint256 _price, string memory _desc) external onlyOwner {... */\n    tag_17:\n      tag_102\n      0x04\n      dup1\n      calldatasize\n      sub\n      dup2\n      add\n      swap1\n      tag_103\n      swap2\n      swap1\n      tag_81\n      jump\t// in\n    tag_103:\n      tag_104\n      jump\t// in\n    tag_102:\n      stop\n        /* \"VendingMachine.sol\":878:903  uint256 public growthFund */\n    tag_18:\n      tag_105\n      tag_106\n      jump\t// in\n    tag_105:\n      mload(0x40)\n      tag_107\n      swap2\n      swap1\n      tag_72\n      jump\t// in\n    tag_107:\n      mload(0x40)\n      dup1\n      swap2\n      sub\n      swap1\n      return\n        /* \"VendingMachine.sol\":11769:12189  function claimDividends() external noReentrancy {... */\n    tag_19:\n      tag_108\n      tag_109\n      jump\t// in\n    tag_108:\n      stop\n        /* \"VendingMachine.sol\":7752:7954  function proposeUpdateSalary(address _staff, uint256 _dailyAmount, string memory _alasan) external onlyOwner {... */\n    tag_20:\n      tag_110\n      0x04\n      dup1\n      calldatasize\n      sub\n      dup2\n      add\n      swap1\n      tag_111\n      swap2\n      swap1\n      tag_81\n      jump\t// in\n    tag_111:\n      tag_112\n      jump\t// in\n    tag_110:\n      stop\n        /* \"VendingMachine.sol\":13918:14344  function getOperationalReserve() external view returns (uint256) {... */\n    tag_21:\n      tag_113\n      tag_114\n      jump\t// in\n    tag_113:\n      mload(0x40)\n      tag_115\n      swap2\n      swap1\n      tag_72\n      jump\t// in\n    tag_115:\n      mload(0x40)\n      dup1\n      swap2\n      sub\n      swap1\n      return\n        /* \"VendingMachine.sol\":14879:15008  function getAvailableShares() external view returns (uint256) {... */\n    tag_22:\n      tag_116\n      tag_117\n      jump\t// in\n    tag_116:\n      mload(0x40)\n      tag_118\n      swap2\n      swap1\n      tag_72\n      jump\t// in\n    tag_118:\n      mload(0x40)\n      dup1\n      swap2\n      sub\n      swap1\n      return\n        /* \"VendingMachine.sol\":911:951  uint256 public totalDividendsDistributed */\n    tag_23:\n      tag_119\n      tag_120\n      jump\t// in\n    tag_119:\n      mload(0x40)\n      tag_121\n      swap2\n      swap1\n      tag_72\n      jump\t// in\n    tag_121:\n      mload(0x40)\n      dup1\n      swap2\n      sub\n      swap1\n      return\n        /* \"VendingMachine.sol\":1547:1588  uint256 public sharePrice = 1000 * 10**18 */\n    tag_24:\n      tag_122\n      tag_123\n      jump\t// in\n    tag_122:\n      mload(0x40)\n      tag_124\n      swap2\n      swap1\n      tag_72\n      jump\t// in\n    tag_124:\n      mload(0x40)\n      dup1\n      swap2\n      sub\n      swap1\n      return\n        /* \"VendingMachine.sol\":679:699  address public owner */\n    tag_25:\n      tag_125\n      tag_126\n      jump\t// in\n    tag_125:\n      mload(0x40)\n      tag_127\n      swap2\n      swap1\n      tag_128\n      jump\t// in\n    tag_127:\n      mload(0x40)\n      dup1\n      swap2\n      sub\n      swap1\n      return\n        /* \"VendingMachine.sol\":1404:1466  mapping(address => int256) public magnifiedDividendCorrections */\n    tag_26:\n      tag_129\n      0x04\n      dup1\n      calldatasize\n      sub\n      dup2\n      add\n      swap1\n      tag_130\n      swap2\n      swap1\n      tag_67\n      jump\t// in\n    tag_130:\n      tag_131\n      jump\t// in\n    tag_129:\n      mload(0x40)\n      tag_132\n      swap2\n      swap1\n      tag_133\n      jump\t// in\n    tag_132:\n      mload(0x40)\n      dup1\n      swap2\n      sub\n      swap1\n      return\n        /* \"VendingMachine.sol\":958:994  uint256 public totalDividendsClaimed */\n    tag_27:\n      tag_134\n      tag_135\n      jump\t// in\n    tag_134:\n      mload(0x40)\n      tag_136\n      swap2\n      swap1\n      tag_72\n      jump\t// in\n    tag_136:\n      mload(0x40)\n      dup1\n      swap2\n      sub\n      swap1\n      return\n        /* \"VendingMachine.sol\":14356:14871  function getWithdrawableDividend(address _holder) public view returns (uint256) {... */\n    tag_28:\n      tag_137\n      0x04\n      dup1\n      calldatasize\n      sub\n      dup2\n      add\n      swap1\n      tag_138\n      swap2\n      swap1\n      tag_67\n      jump\t// in\n    tag_138:\n      tag_139\n      jump\t// in\n    tag_137:\n      mload(0x40)\n      tag_140\n      swap2\n      swap1\n      tag_72\n      jump\t// in\n    tag_140:\n      mload(0x40)\n      dup1\n      swap2\n      sub\n      swap1\n      return\n        /* \"VendingMachine.sol\":1983:2026  mapping(address => uint256) public lastPaid */\n    tag_29:\n      tag_141\n      0x04\n      dup1\n      calldatasize\n      sub\n      dup2\n      add\n      swap1\n      tag_142\n      swap2\n      swap1\n      tag_67\n      jump\t// in\n    tag_142:\n      tag_143\n      jump\t// in\n    tag_141:\n      mload(0x40)\n      tag_144\n      swap2\n      swap1\n      tag_72\n      jump\t// in\n    tag_144:\n      mload(0x40)\n      dup1\n      swap2\n      sub\n      swap1\n      return\n        /* \"VendingMachine.sol\":4615:5861  function buyCoffee(uint256 _machineId) external noReentrancy {... */\n    tag_30:\n      tag_145\n      0x04\n      dup1\n      calldatasize\n      sub\n      dup2\n      add\n      swap1\n      tag_146\n      swap2\n      swap1\n      tag_50\n      jump\t// in\n    tag_146:\n      tag_147\n      jump\t// in\n    tag_145:\n      stop\n        /* \"VendingMachine.sol\":1111:1153  uint256 public constant DIVIDEND_RATE = 80 */\n    tag_31:\n      tag_148\n      tag_149\n      jump\t// in\n    tag_148:\n      mload(0x40)\n      tag_150\n      swap2\n      swap1\n      tag_72\n      jump\t// in\n    tag_150:\n      mload(0x40)\n      dup1\n      swap2\n      sub\n      swap1\n      return\n        /* \"VendingMachine.sol\":844:871  uint256 public totalRevenue */\n    tag_32:\n      tag_151\n      tag_152\n      jump\t// in\n    tag_151:\n      mload(0x40)\n      tag_153\n      swap2\n      swap1\n      tag_72\n      jump\t// in\n    tag_153:\n      mload(0x40)\n      dup1\n      swap2\n      sub\n      swap1\n      return\n        /* \"VendingMachine.sol\":776:817  uint256 public cogsPerCup = 5000 * 10**18 */\n    tag_33:\n      tag_154\n      tag_155\n      jump\t// in\n    tag_154:\n      mload(0x40)\n      tag_156\n      swap2\n      swap1\n      tag_72\n      jump\t// in\n    tag_156:\n      mload(0x40)\n      dup1\n      swap2\n      sub\n      swap1\n      return\n        /* \"VendingMachine.sol\":10571:11282  function buyShares(uint256 _amount) external noReentrancy {... */\n    tag_34:\n      tag_157\n      0x04\n      dup1\n      calldatasize\n      sub\n      dup2\n      add\n      swap1\n      tag_158\n      swap2\n      swap1\n      tag_50\n      jump\t// in\n    tag_158:\n      tag_159\n      jump\t// in\n    tag_157:\n      stop\n        /* \"VendingMachine.sol\":6790:6954  function addMachine(string memory _loc) external onlyOwner {... */\n    tag_35:\n      tag_160\n      0x04\n      dup1\n      calldatasize\n      sub\n      dup2\n      add\n      swap1\n      tag_161\n      swap2\n      swap1\n      tag_162\n      jump\t// in\n    tag_161:\n      tag_163\n      jump\t// in\n    tag_160:\n      stop\n        /* \"VendingMachine.sol\":3085:3113  uint256 public proposalCount */\n    tag_36:\n      tag_164\n      tag_165\n      jump\t// in\n    tag_164:\n      mload(0x40)\n      tag_166\n      swap2\n      swap1\n      tag_72\n      jump\t// in\n    tag_166:\n      mload(0x40)\n      dup1\n      swap2\n      sub\n      swap1\n      return\n        /* \"VendingMachine.sol\":1473:1526  mapping(address => uint256) public withdrawnDividends */\n    tag_37:\n      tag_167\n      0x04\n      dup1\n      calldatasize\n      sub\n      dup2\n      add\n      swap1\n      tag_168\n      swap2\n      swap1\n      tag_67\n      jump\t// in\n    tag_168:\n      tag_169\n      jump\t// in\n    tag_167:\n      mload(0x40)\n      tag_170\n      swap2\n      swap1\n      tag_72\n      jump\t// in\n    tag_170:\n      mload(0x40)\n      dup1\n      swap2\n      sub\n      swap1\n      return\n        /* \"VendingMachine.sol\":7996:8157  function proposeAddVendor(address _vendor, string memory _nama) external onlyOwner {... */\n    tag_38:\n      tag_171\n      0x04\n      dup1\n      calldatasize\n      sub\n      dup2\n      add\n      swap1\n      tag_172\n      swap2\n      swap1\n      tag_173\n      jump\t// in\n    tag_172:\n      tag_174\n      jump\t// in\n    tag_171:\n      stop\n        /* \"VendingMachine.sol\":1832:1880  mapping(address => uint256) public staffSalaries */\n    tag_39:\n      tag_175\n      0x04\n      dup1\n      calldatasize\n      sub\n      dup2\n      add\n      swap1\n      tag_176\n      swap2\n      swap1\n      tag_67\n      jump\t// in\n    tag_176:\n      tag_177\n      jump\t// in\n    tag_175:\n      mload(0x40)\n      tag_178\n      swap2\n      swap1\n      tag_72\n      jump\t// in\n    tag_178:\n      mload(0x40)\n      dup1\n      swap2\n      sub\n      swap1\n      return\n        /* \"VendingMachine.sol\":6962:7060  function setCoffeePrice(uint256 _price) external onlyOwner {... */\n    tag_40:\n      tag_179\n      0x04\n      dup1\n      calldatasize\n      sub\n      dup2\n      add\n      swap1\n      tag_180\n      swap2\n      swap1\n      tag_50\n      jump\t// in\n    tag_180:\n      tag_181\n      jump\t// in\n    tag_179:\n      stop\n        /* \"VendingMachine.sol\":8210:8897  function vote(uint256 _id) external noReentrancy {... */\n    tag_51:\n        /* \"VendingMachine.sol\":4072:4078  locked */\n      0x14\n      0x00\n      swap1\n      sload\n      swap1\n      0x0100\n      exp\n      swap1\n      div\n      0xff\n      and\n        /* \"VendingMachine.sol\":4071:4078  !locked */\n      iszero\n        /* \"VendingMachine.sol\":4063:4094  require(!locked, \"Reentrancy!\") */\n      tag_183\n      jumpi\n      mload(0x40)\n      0x08c379a000000000000000000000000000000000000000000000000000000000\n      dup2\n      mstore\n      0x04\n      add\n      tag_184\n      swap1\n      tag_185\n      jump\t// in\n    tag_184:\n      mload(0x40)\n      dup1\n      swap2\n      sub\n      swap1\n      revert\n    tag_183:\n        /* \"VendingMachine.sol\":4105:4109  true */\n      0x01\n        /* \"VendingMachine.sol\":4096:4102  locked */\n      0x14\n      0x00\n        /* \"VendingMachine.sol\":4096:4109  locked = true */\n      0x0100\n      exp\n      dup2\n      sload\n      dup2\n      0xff\n      mul\n      not\n      and\n      swap1\n      dup4\n      iszero\n      iszero\n      mul\n      or\n      swap1\n      sstore\n      pop\n        /* \"VendingMachine.sol\":8270:8288  Proposal storage p */\n      0x00\n        /* \"VendingMachine.sol\":8291:8300  proposals */\n      0x12\n        /* \"VendingMachine.sol\":8291:8305  proposals[_id] */\n      0x00\n        /* \"VendingMachine.sol\":8301:8304  _id */\n      dup4\n        /* \"VendingMachine.sol\":8291:8305  proposals[_id] */\n      dup2\n      mstore\n      0x20\n      add\n      swap1\n      dup2\n      mstore\n      0x20\n      add\n      0x00\n      keccak256\n        /* \"VendingMachine.sol\":8270:8305  Proposal storage p = proposals[_id] */\n      swap1\n      pop\n        /* \"VendingMachine.sol\":8342:8343  p */\n      dup1\n        /* \"VendingMachine.sol\":8342:8351  p.endTime */\n      0x06\n      add\n      sload\n        /* \"VendingMachine.sol\":8324:8339  block.timestamp */\n      timestamp\n        /* \"VendingMachine.sol\":8324:8351  block.timestamp < p.endTime */\n      lt\n        /* \"VendingMachine.sol\":8316:8367  require(block.timestamp < p.endTime, \"Waktu Habis\") */\n      tag_187\n      jumpi\n      mload(0x40)\n      0x08c379a000000000000000000000000000000000000000000000000000000000\n      dup2\n      mstore\n      0x04\n      add\n      tag_188\n      swap1\n      tag_189\n      jump\t// in\n    tag_188:\n      mload(0x40)\n      dup1\n      swap2\n      sub\n      swap1\n      revert\n    tag_187:\n        /* \"VendingMachine.sol\":8387:8388  p */\n      dup1\n        /* \"VendingMachine.sol\":8387:8397  p.hasVoted */\n      0x07\n      add\n        /* \"VendingMachine.sol\":8387:8409  p.hasVoted[msg.sender] */\n      0x00\n        /* \"VendingMachine.sol\":8398:8408  msg.sender */\n      caller\n        /* \"VendingMachine.sol\":8387:8409  p.hasVoted[msg.sender] */\n      0xffffffffffffffffffffffffffffffffffffffff\n      and\n      0xffffffffffffffffffffffffffffffffffffffff\n      and\n      dup2\n      mstore\n      0x20\n      add\n      swap1\n      dup2\n      mstore\n      0x20\n      add\n      0x00\n      keccak256\n      0x00\n      swap1\n      sload\n      swap1\n      0x0100\n      exp\n      swap1\n      div\n      0xff\n      and\n        /* \"VendingMachine.sol\":8386:8409  !p.hasVoted[msg.sender] */\n      iszero\n        /* \"VendingMachine.sol\":8378:8424  require(!p.hasVoted[msg.sender], \"Sudah Vote\") */\n      tag_190\n      jumpi\n      mload(0x40)\n      0x08c379a000000000000000000000000000000000000000000000000000000000\n      dup2\n      mstore\n      0x04\n      add\n      tag_191\n      swap1\n      tag_192\n      jump\t// in\n    tag_191:\n      mload(0x40)\n      dup1\n      swap2\n      sub\n      swap1\n      revert\n    tag_190:\n        /* \"VendingMachine.sol\":8444:8445  p */\n      dup1\n        /* \"VendingMachine.sol\":8444:8454  p.executed */\n      0x05\n      add\n      0x00\n      swap1\n      sload\n      swap1\n      0x0100\n      exp\n      swap1\n      div\n      0xff\n      and\n        /* \"VendingMachine.sol\":8443:8454  !p.executed */\n      iszero\n        /* \"VendingMachine.sol\":8435:8472  require(!p.executed, \"Sudah Selesai\") */\n      tag_193\n      jumpi\n      mload(0x40)\n      0x08c379a000000000000000000000000000000000000000000000000000000000\n      dup2\n      mstore\n      0x04\n      add\n      tag_194\n      swap1\n      tag_195\n      jump\t// in\n    tag_194:\n      mload(0x40)\n      dup1\n      swap2\n      sub\n      swap1\n      revert\n    tag_193:\n        /* \"VendingMachine.sol\":8485:8499  uint256 weight */\n      0x00\n        /* \"VendingMachine.sol\":8502:8512  assetToken */\n      0x01\n      0x00\n      swap1\n      sload\n      swap1\n      0x0100\n      exp\n      swap1\n      div\n      0xffffffffffffffffffffffffffffffffffffffff\n      and\n        /* \"VendingMachine.sol\":8502:8522  assetToken.balanceOf */\n      0xffffffffffffffffffffffffffffffffffffffff\n      and\n      0x70a08231\n        /* \"VendingMachine.sol\":8523:8533  msg.sender */\n      caller\n        /* \"VendingMachine.sol\":8502:8534  assetToken.balanceOf(msg.sender) */\n      mload(0x40)\n      dup3\n      0xffffffff\n      and\n      0xe0\n      shl\n      dup2\n      mstore\n      0x04\n      add\n      tag_196\n      swap2\n      swap1\n      tag_128\n      jump\t// in\n    tag_196:\n      0x20\n      mload(0x40)\n      dup1\n      dup4\n      sub\n      dup2\n      dup7\n      gas\n      staticcall\n      iszero\n      dup1\n      iszero\n      tag_198\n      jumpi\n      returndatasize\n      0x00\n      dup1\n      returndatacopy\n      revert(0x00, returndatasize)\n    tag_198:\n      pop\n      pop\n      pop\n      pop\n      mload(0x40)\n      returndatasize\n      not(0x1f)\n      0x1f\n      dup3\n      add\n      and\n      dup3\n      add\n      dup1\n      0x40\n      mstore\n      pop\n      dup2\n      add\n      swap1\n      tag_199\n      swap2\n      swap1\n      tag_200\n      jump\t// in\n    tag_199:\n        /* \"VendingMachine.sol\":8485:8534  uint256 weight = assetToken.balanceOf(msg.sender) */\n      swap1\n      pop\n        /* \"VendingMachine.sol\":8562:8563  0 */\n      0x00\n        /* \"VendingMachine.sol\":8553:8559  weight */\n      dup2\n        /* \"VendingMachine.sol\":8553:8563  weight > 0 */\n      gt\n        /* \"VendingMachine.sol\":8545:8576  require(weight > 0, \"No Token\") */\n      tag_201\n      jumpi\n      mload(0x40)\n      0x08c379a000000000000000000000000000000000000000000000000000000000\n      dup2\n      mstore\n      0x04\n      add\n      tag_202\n      swap1\n      tag_203\n      jump\t// in\n    tag_202:\n      mload(0x40)\n      dup1\n      swap2\n      sub\n      swap1\n      revert\n    tag_201:\n        /* \"VendingMachine.sol\":8622:8626  true */\n      0x01\n        /* \"VendingMachine.sol\":8597:8598  p */\n      dup3\n        /* \"VendingMachine.sol\":8597:8607  p.hasVoted */\n      0x07\n      add\n        /* \"VendingMachine.sol\":8597:8619  p.hasVoted[msg.sender] */\n      0x00\n        /* \"VendingMachine.sol\":8608:8618  msg.sender */\n      caller\n        /* \"VendingMachine.sol\":8597:8619  p.hasVoted[msg.sender] */\n      0xffffffffffffffffffffffffffffffffffffffff\n      and\n      0xffffffffffffffffffffffffffffffffffffffff\n      and\n      dup2\n      mstore\n      0x20\n      add\n      swap1\n      dup2\n      mstore\n      0x20\n      add\n      0x00\n      keccak256\n      0x00\n        /* \"VendingMachine.sol\":8597:8626  p.hasVoted[msg.sender] = true */\n      0x0100\n      exp\n      dup2\n      sload\n      dup2\n      0xff\n      mul\n      not\n      and\n      swap1\n      dup4\n      iszero\n      iszero\n      mul\n      or\n      swap1\n      sstore\n      pop\n        /* \"VendingMachine.sol\":8652:8658  weight */\n      dup1\n        /* \"VendingMachine.sol\":8637:8638  p */\n      dup3\n        /* \"VendingMachine.sol\":8637:8648  p.voteCount */\n      0x04\n      add\n      0x00\n        /* \"VendingMachine.sol\":8637:8658  p.voteCount += weight */\n      dup3\n      dup3\n      sload\n      tag_204\n      swap2\n      swap1\n      tag_205\n      jump\t// in\n    tag_204:\n      swap3\n      pop\n      pop\n      dup2\n      swap1\n      sstore\n      pop\n        /* \"VendingMachine.sol\":8684:8714  Voted(_id, msg.sender, weight) */\n      0x1abe610cf2bf87e57dcc1181fcf5ac0934e843d8344ab9eed6e86c799f62585e\n        /* \"VendingMachine.sol\":8690:8693  _id */\n      dup4\n        /* \"VendingMachine.sol\":8695:8705  msg.sender */\n      caller\n        /* \"VendingMachine.sol\":8707:8713  weight */\n      dup4\n        /* \"VendingMachine.sol\":8684:8714  Voted(_id, msg.sender, weight) */\n      mload(0x40)\n      tag_206\n      swap4\n      swap3\n      swap2\n      swap1\n      tag_207\n      jump\t// in\n    tag_206:\n      mload(0x40)\n      dup1\n      swap2\n      sub\n      swap1\n      log1\n        /* \"VendingMachine.sol\":8844:8845  2 */\n      0x02\n        /* \"VendingMachine.sol\":8817:8827  assetToken */\n      0x01\n      0x00\n      swap1\n      sload\n      swap1\n      0x0100\n      exp\n      swap1\n      div\n      0xffffffffffffffffffffffffffffffffffffffff\n      and\n        /* \"VendingMachine.sol\":8817:8839  assetToken.totalSupply */\n      0xffffffffffffffffffffffffffffffffffffffff\n      and\n      0x18160ddd\n        /* \"VendingMachine.sol\":8817:8841  assetToken.totalSupply() */\n      mload(0x40)\n      dup2\n      0xffffffff\n      and\n      0xe0\n      shl\n      dup2\n      mstore\n      0x04\n      add\n      0x20\n      mload(0x40)\n      dup1\n      dup4\n      sub\n      dup2\n      dup7\n      gas\n      staticcall\n      iszero\n      dup1\n      iszero\n      tag_209\n      jumpi\n      returndatasize\n      0x00\n      dup1\n      returndatacopy\n      revert(0x00, returndatasize)\n    tag_209:\n      pop\n      pop\n      pop\n      pop\n      mload(0x40)\n      returndatasize\n      not(0x1f)\n      0x1f\n      dup3\n      add\n      and\n      dup3\n      add\n      dup1\n      0x40\n      mstore\n      pop\n      dup2\n      add\n      swap1\n      tag_210\n      swap2\n      swap1\n      tag_200\n      jump\t// in\n    tag_210:\n        /* \"VendingMachine.sol\":8817:8845  assetToken.totalSupply() / 2 */\n      tag_211\n      swap2\n      swap1\n      tag_212\n      jump\t// in\n    tag_211:\n        /* \"VendingMachine.sol\":8803:8804  p */\n      dup3\n        /* \"VendingMachine.sol\":8803:8814  p.voteCount */\n      0x04\n      add\n      sload\n        /* \"VendingMachine.sol\":8803:8845  p.voteCount > assetToken.totalSupply() / 2 */\n      gt\n        /* \"VendingMachine.sol\":8799:8890  if (p.voteCount > assetToken.totalSupply() / 2) {... */\n      iszero\n      tag_213\n      jumpi\n        /* \"VendingMachine.sol\":8862:8878  _executeLogic(p) */\n      tag_214\n        /* \"VendingMachine.sol\":8876:8877  p */\n      dup3\n        /* \"VendingMachine.sol\":8862:8875  _executeLogic */\n      tag_215\n        /* \"VendingMachine.sol\":8862:8878  _executeLogic(p) */\n      jump\t// in\n    tag_214:\n        /* \"VendingMachine.sol\":8799:8890  if (p.voteCount > assetToken.totalSupply() / 2) {... */\n    tag_213:\n        /* \"VendingMachine.sol\":8259:8897  {... */\n      pop\n      pop\n        /* \"VendingMachine.sol\":4123:4128  false */\n      0x00\n        /* \"VendingMachine.sol\":4114:4120  locked */\n      0x14\n      0x00\n        /* \"VendingMachine.sol\":4114:4128  locked = false */\n      0x0100\n      exp\n      dup2\n      sload\n      dup2\n      0xff\n      mul\n      not\n      and\n      swap1\n      dup4\n      iszero\n      iszero\n      mul\n      or\n      swap1\n      sstore\n      pop\n        /* \"VendingMachine.sol\":8210:8897  function vote(uint256 _id) external noReentrancy {... */\n      pop\n      jump\t// out\n        /* \"VendingMachine.sol\":3033:3078  mapping(uint256 => Proposal) public proposals */\n    tag_54:\n      mstore(0x20, 0x12)\n      dup1\n      0x00\n      mstore\n      keccak256(0x00, 0x40)\n      0x00\n      swap2\n      pop\n      swap1\n      pop\n      dup1\n      0x00\n      add\n      sload\n      swap1\n      dup1\n      0x01\n      add\n      0x00\n      swap1\n      sload\n      swap1\n      0x0100\n      exp\n      swap1\n      div\n      0xff\n      and\n      swap1\n      dup1\n      0x01\n      add\n      0x01\n      swap1\n      sload\n      swap1\n      0x0100\n      exp\n      swap1\n      div\n      0xffffffffffffffffffffffffffffffffffffffff\n      and\n      swap1\n      dup1\n      0x02\n      add\n      sload\n      swap1\n      dup1\n      0x03\n      add\n      dup1\n      sload\n      tag_216\n      swap1\n      tag_217\n      jump\t// in\n    tag_216:\n      dup1\n      0x1f\n      add\n      0x20\n      dup1\n      swap2\n      div\n      mul\n      0x20\n      add\n      mload(0x40)\n      swap1\n      dup2\n      add\n      0x40\n      mstore\n      dup1\n      swap3\n      swap2\n      swap1\n      dup2\n      dup2\n      mstore\n      0x20\n      add\n      dup3\n      dup1\n      sload\n      tag_218\n      swap1\n      tag_217\n      jump\t// in\n    tag_218:\n      dup1\n      iszero\n      tag_219\n      jumpi\n      dup1\n      0x1f\n      lt\n      tag_220\n      jumpi\n      0x0100\n      dup1\n      dup4\n      sload\n      div\n      mul\n      dup4\n      mstore\n      swap2\n      0x20\n      add\n      swap2\n      jump(tag_219)\n    tag_220:\n      dup3\n      add\n      swap2\n      swap1\n      0x00\n      mstore\n      keccak256(0x00, 0x20)\n      swap1\n    tag_221:\n      dup2\n      sload\n      dup2\n      mstore\n      swap1\n      0x01\n      add\n      swap1\n      0x20\n      add\n      dup1\n      dup4\n      gt\n      tag_221\n      jumpi\n      dup3\n      swap1\n      sub\n      0x1f\n      and\n      dup3\n      add\n      swap2\n    tag_219:\n      pop\n      pop\n      pop\n      pop\n      pop\n      swap1\n      dup1\n      0x04\n      add\n      sload\n      swap1\n      dup1\n      0x05\n      add\n      0x00\n      swap1\n      sload\n      swap1\n      0x0100\n      exp\n      swap1\n      div\n      0xff\n      and\n      swap1\n      dup1\n      0x06\n      add\n      sload\n      swap1\n      pop\n      dup9\n      jump\t// out\n        /* \"VendingMachine.sol\":11290:11761  function transferSaham(address _to, uint256 _amount) external noReentrancy {... */\n    tag_60:\n        /* \"VendingMachine.sol\":4072:4078  locked */\n      0x14\n      0x00\n      swap1\n      sload\n      swap1\n      0x0100\n      exp\n      swap1\n      div\n      0xff\n      and\n        /* \"VendingMachine.sol\":4071:4078  !locked */\n      iszero\n        /* \"VendingMachine.sol\":4063:4094  require(!locked, \"Reentrancy!\") */\n      tag_223\n      jumpi\n      mload(0x40)\n      0x08c379a000000000000000000000000000000000000000000000000000000000\n      dup2\n      mstore\n      0x04\n      add\n      tag_224\n      swap1\n      tag_185\n      jump\t// in\n    tag_224:\n      mload(0x40)\n      dup1\n      swap2\n      sub\n      swap1\n      revert\n    tag_223:\n        /* \"VendingMachine.sol\":4105:4109  true */\n      0x01\n        /* \"VendingMachine.sol\":4096:4102  locked */\n      0x14\n      0x00\n        /* \"VendingMachine.sol\":4096:4109  locked = true */\n      0x0100\n      exp\n      dup2\n      sload\n      dup2\n      0xff\n      mul\n      not\n      and\n      swap1\n      dup4\n      iszero\n      iszero\n      mul\n      or\n      swap1\n      sstore\n      pop\n        /* \"VendingMachine.sol\":11376:11405  _checkMaxWallet(_to, _amount) */\n      tag_226\n        /* \"VendingMachine.sol\":11392:11395  _to */\n      dup3\n        /* \"VendingMachine.sol\":11397:11404  _amount */\n      dup3\n        /* \"VendingMachine.sol\":11376:11391  _checkMaxWallet */\n      tag_227\n        /* \"VendingMachine.sol\":11376:11405  _checkMaxWallet(_to, _amount) */\n      jump\t// in\n    tag_226:\n        /* \"VendingMachine.sol\":11448:11458  assetToken */\n      0x01\n      0x00\n      swap1\n      sload\n      swap1\n      0x0100\n      exp\n      swap1\n      div\n      0xffffffffffffffffffffffffffffffffffffffff\n      and\n        /* \"VendingMachine.sol\":11448:11471  assetToken.transferFrom */\n      0xffffffffffffffffffffffffffffffffffffffff\n      and\n      0x23b872dd\n        /* \"VendingMachine.sol\":11472:11482  msg.sender */\n      caller\n        /* \"VendingMachine.sol\":11484:11487  _to */\n      dup5\n        /* \"VendingMachine.sol\":11489:11496  _amount */\n      dup5\n        /* \"VendingMachine.sol\":11448:11497  assetToken.transferFrom(msg.sender, _to, _amount) */\n      mload(0x40)\n      dup5\n      0xffffffff\n      and\n      0xe0\n      shl\n      dup2\n      mstore\n      0x04\n      add\n      tag_228\n      swap4\n      swap3\n      swap2\n      swap1\n      tag_229\n      jump\t// in\n    tag_228:\n      0x20\n      mload(0x40)\n      dup1\n      dup4\n      sub\n      dup2\n      0x00\n      dup8\n      gas\n      call\n      iszero\n      dup1\n      iszero\n      tag_231\n      jumpi\n      returndatasize\n      0x00\n      dup1\n      returndatacopy\n      revert(0x00, returndatasize)\n    tag_231:\n      pop\n      pop\n      pop\n      pop\n      mload(0x40)\n      returndatasize\n      not(0x1f)\n      0x1f\n      dup3\n      add\n      and\n      dup3\n      add\n      dup1\n      0x40\n      mstore\n      pop\n      dup2\n      add\n      swap1\n      tag_232\n      swap2\n      swap1\n      tag_233\n      jump\t// in\n    tag_232:\n        /* \"VendingMachine.sol\":11440:11516  require(assetToken.transferFrom(msg.sender, _to, _amount), \"Gagal Transfer\") */\n      tag_234\n      jumpi\n      mload(0x40)\n      0x08c379a000000000000000000000000000000000000000000000000000000000\n      dup2\n      mstore\n      0x04\n      add\n      tag_235\n      swap1\n      tag_236\n      jump\t// in\n    tag_235:\n      mload(0x40)\n      dup1\n      swap2\n      sub\n      swap1\n      revert\n    tag_234:\n        /* \"VendingMachine.sol\":11527:11538  int256 corr */\n      0x00\n        /* \"VendingMachine.sol\":11576:11583  _amount */\n      dup2\n        /* \"VendingMachine.sol\":11548:11573  magnifiedDividendPerShare */\n      sload(0x09)\n        /* \"VendingMachine.sol\":11548:11583  magnifiedDividendPerShare * _amount */\n      tag_237\n      swap2\n      swap1\n      tag_238\n      jump\t// in\n    tag_237:\n        /* \"VendingMachine.sol\":11527:11584  int256 corr = int256(magnifiedDividendPerShare * _amount) */\n      swap1\n      pop\n        /* \"VendingMachine.sol\":11639:11643  corr */\n      dup1\n        /* \"VendingMachine.sol\":11595:11623  magnifiedDividendCorrections */\n      0x0a\n        /* \"VendingMachine.sol\":11595:11635  magnifiedDividendCorrections[msg.sender] */\n      0x00\n        /* \"VendingMachine.sol\":11624:11634  msg.sender */\n      caller\n        /* \"VendingMachine.sol\":11595:11635  magnifiedDividendCorrections[msg.sender] */\n      0xffffffffffffffffffffffffffffffffffffffff\n      and\n      0xffffffffffffffffffffffffffffffffffffffff\n      and\n      dup2\n      mstore\n      0x20\n      add\n      swap1\n      dup2\n      mstore\n      0x20\n      add\n      0x00\n      keccak256\n      0x00\n        /* \"VendingMachine.sol\":11595:11643  magnifiedDividendCorrections[msg.sender] += corr */\n      dup3\n      dup3\n      sload\n      tag_239\n      swap2\n      swap1\n      tag_240\n      jump\t// in\n    tag_239:\n      swap3\n      pop\n      pop\n      dup2\n      swap1\n      sstore\n      pop\n        /* \"VendingMachine.sol\":11691:11695  corr */\n      dup1\n        /* \"VendingMachine.sol\":11654:11682  magnifiedDividendCorrections */\n      0x0a\n        /* \"VendingMachine.sol\":11654:11687  magnifiedDividendCorrections[_to] */\n      0x00\n        /* \"VendingMachine.sol\":11683:11686  _to */\n      dup6\n        /* \"VendingMachine.sol\":11654:11687  magnifiedDividendCorrections[_to] */\n      0xffffffffffffffffffffffffffffffffffffffff\n      and\n      0xffffffffffffffffffffffffffffffffffffffff\n      and\n      dup2\n      mstore\n      0x20\n      add\n      swap1\n      dup2\n      mstore\n      0x20\n      add\n      0x00\n      keccak256\n      0x00\n        /* \"VendingMachine.sol\":11654:11695  magnifiedDividendCorrections[_to] -= corr */\n      dup3\n      dup3\n      sload\n      tag_241\n      swap2\n      swap1\n      tag_242\n      jump\t// in\n    tag_241:\n      swap3\n      pop\n      pop\n      dup2\n      swap1\n      sstore\n      pop\n        /* \"VendingMachine.sol\":11711:11753  ShareTransferred(msg.sender, _to, _amount) */\n      0x4f0f23d5d7f61e149d909d8f3eb8aa374832781e8fcb19751354b30223807374\n        /* \"VendingMachine.sol\":11728:11738  msg.sender */\n      caller\n        /* \"VendingMachine.sol\":11740:11743  _to */\n      dup5\n        /* \"VendingMachine.sol\":11745:11752  _amount */\n      dup5\n        /* \"VendingMachine.sol\":11711:11753  ShareTransferred(msg.sender, _to, _amount) */\n      mload(0x40)\n      tag_243\n      swap4\n      swap3\n      swap2\n      swap1\n      tag_229\n      jump\t// in\n    tag_243:\n      mload(0x40)\n      dup1\n      swap2\n      sub\n      swap1\n      log1\n        /* \"VendingMachine.sol\":11365:11761  {... */\n      pop\n        /* \"VendingMachine.sol\":4123:4128  false */\n      0x00\n        /* \"VendingMachine.sol\":4114:4120  locked */\n      0x14\n      0x00\n        /* \"VendingMachine.sol\":4114:4128  locked = false */\n      0x0100\n      exp\n      dup2\n      sload\n      dup2\n      0xff\n      mul\n      not\n      and\n      swap1\n      dup4\n      iszero\n      iszero\n      mul\n      or\n      swap1\n      sstore\n      pop\n        /* \"VendingMachine.sol\":11290:11761  function transferSaham(address _to, uint256 _amount) external noReentrancy {... */\n      pop\n      pop\n      jump\t// out\n        /* \"VendingMachine.sol\":647:671  IERC20 public assetToken */\n    tag_62:\n      0x01\n      0x00\n      swap1\n      sload\n      swap1\n      0x0100\n      exp\n      swap1\n      div\n      0xffffffffffffffffffffffffffffffffffffffff\n      and\n      dup2\n      jump\t// out\n        /* \"VendingMachine.sol\":6105:6782  function payDailySalary(address _staff) external onlyOwner noReentrancy {... */\n    tag_68:\n        /* \"VendingMachine.sol\":4004:4009  owner */\n      0x02\n      0x00\n      swap1\n      sload\n      swap1\n      0x0100\n      exp\n      swap1\n      div\n      0xffffffffffffffffffffffffffffffffffffffff\n      and\n        /* \"VendingMachine.sol\":3990:4009  msg.sender == owner */\n      0xffffffffffffffffffffffffffffffffffffffff\n      and\n        /* \"VendingMachine.sol\":3990:4000  msg.sender */\n      caller\n        /* \"VendingMachine.sol\":3990:4009  msg.sender == owner */\n      0xffffffffffffffffffffffffffffffffffffffff\n      and\n      eq\n        /* \"VendingMachine.sol\":3982:4025  require(msg.sender == owner, \"Hanya Admin\") */\n      tag_245\n      jumpi\n      mload(0x40)\n      0x08c379a000000000000000000000000000000000000000000000000000000000\n      dup2\n      mstore\n      0x04\n      add\n      tag_246\n      swap1\n      tag_247\n      jump\t// in\n    tag_246:\n      mload(0x40)\n      dup1\n      swap2\n      sub\n      swap1\n      revert\n    tag_245:\n        /* \"VendingMachine.sol\":4072:4078  locked */\n      0x14\n      0x00\n      swap1\n      sload\n      swap1\n      0x0100\n      exp\n      swap1\n      div\n      0xff\n      and\n        /* \"VendingMachine.sol\":4071:4078  !locked */\n      iszero\n        /* \"VendingMachine.sol\":4063:4094  require(!locked, \"Reentrancy!\") */\n      tag_249\n      jumpi\n      mload(0x40)\n      0x08c379a000000000000000000000000000000000000000000000000000000000\n      dup2\n      mstore\n      0x04\n      add\n      tag_250\n      swap1\n      tag_185\n      jump\t// in\n    tag_250:\n      mload(0x40)\n      dup1\n      swap2\n      sub\n      swap1\n      revert\n    tag_249:\n        /* \"VendingMachine.sol\":4105:4109  true */\n      0x01\n        /* \"VendingMachine.sol\":4096:4102  locked */\n      0x14\n      0x00\n        /* \"VendingMachine.sol\":4096:4109  locked = true */\n      0x0100\n      exp\n      dup2\n      sload\n      dup2\n      0xff\n      mul\n      not\n      and\n      swap1\n      dup4\n      iszero\n      iszero\n      mul\n      or\n      swap1\n      sstore\n      pop\n        /* \"VendingMachine.sol\":6188:6205  uint256 dailyRate */\n      0x00\n        /* \"VendingMachine.sol\":6208:6221  staffSalaries */\n      0x0d\n        /* \"VendingMachine.sol\":6208:6229  staffSalaries[_staff] */\n      0x00\n        /* \"VendingMachine.sol\":6222:6228  _staff */\n      dup4\n        /* \"VendingMachine.sol\":6208:6229  staffSalaries[_staff] */\n      0xffffffffffffffffffffffffffffffffffffffff\n      and\n      0xffffffffffffffffffffffffffffffffffffffff\n      and\n      dup2\n      mstore\n      0x20\n      add\n      swap1\n      dup2\n      mstore\n      0x20\n      add\n      0x00\n      keccak256\n      sload\n        /* \"VendingMachine.sol\":6188:6229  uint256 dailyRate = staffSalaries[_staff] */\n      swap1\n      pop\n        /* \"VendingMachine.sol\":6260:6261  0 */\n      0x00\n        /* \"VendingMachine.sol\":6248:6257  dailyRate */\n      dup2\n        /* \"VendingMachine.sol\":6248:6261  dailyRate > 0 */\n      gt\n        /* \"VendingMachine.sol\":6240:6303  require(dailyRate > 0, \"Gaji harian belum diset via Proposal!\") */\n      tag_252\n      jumpi\n      mload(0x40)\n      0x08c379a000000000000000000000000000000000000000000000000000000000\n      dup2\n      mstore\n      0x04\n      add\n      tag_253\n      swap1\n      tag_254\n      jump\t// in\n    tag_253:\n      mload(0x40)\n      dup1\n      swap2\n      sub\n      swap1\n      revert\n    tag_252:\n        /* \"VendingMachine.sol\":6435:6441  1 days */\n      0x015180\n        /* \"VendingMachine.sol\":6416:6424  lastPaid */\n      0x0e\n        /* \"VendingMachine.sol\":6416:6432  lastPaid[_staff] */\n      0x00\n        /* \"VendingMachine.sol\":6425:6431  _staff */\n      dup5\n        /* \"VendingMachine.sol\":6416:6432  lastPaid[_staff] */\n      0xffffffffffffffffffffffffffffffffffffffff\n      and\n      0xffffffffffffffffffffffffffffffffffffffff\n      and\n      dup2\n      mstore\n      0x20\n      add\n      swap1\n      dup2\n      mstore\n      0x20\n      add\n      0x00\n      keccak256\n      sload\n        /* \"VendingMachine.sol\":6416:6441  lastPaid[_staff] + 1 days */\n      tag_255\n      swap2\n      swap1\n      tag_205\n      jump\t// in\n    tag_255:\n        /* \"VendingMachine.sol\":6397:6412  block.timestamp */\n      timestamp\n        /* \"VendingMachine.sol\":6397:6441  block.timestamp >= lastPaid[_staff] + 1 days */\n      lt\n      iszero\n        /* \"VendingMachine.sol\":6389:6468  require(block.timestamp >= lastPaid[_staff] + 1 days, \"Hari ini sudah gajian!\") */\n      tag_256\n      jumpi\n      mload(0x40)\n      0x08c379a000000000000000000000000000000000000000000000000000000000\n      dup2\n      mstore\n      0x04\n      add\n      tag_257\n      swap1\n      tag_258\n      jump\t// in\n    tag_257:\n      mload(0x40)\n      dup1\n      swap2\n      sub\n      swap1\n      revert\n    tag_256:\n        /* \"VendingMachine.sol\":6540:6555  block.timestamp */\n      timestamp\n        /* \"VendingMachine.sol\":6521:6529  lastPaid */\n      0x0e\n        /* \"VendingMachine.sol\":6521:6537  lastPaid[_staff] */\n      0x00\n        /* \"VendingMachine.sol\":6530:6536  _staff */\n      dup5\n        /* \"VendingMachine.sol\":6521:6537  lastPaid[_staff] */\n      0xffffffffffffffffffffffffffffffffffffffff\n      and\n      0xffffffffffffffffffffffffffffffffffffffff\n      and\n      dup2\n      mstore\n      0x20\n      add\n      swap1\n      dup2\n      mstore\n      0x20\n      add\n      0x00\n      keccak256\n        /* \"VendingMachine.sol\":6521:6555  lastPaid[_staff] = block.timestamp */\n      dup2\n      swap1\n      sstore\n      pop\n        /* \"VendingMachine.sol\":6643:6682  _processPaymentSmart(_staff, dailyRate) */\n      tag_259\n        /* \"VendingMachine.sol\":6664:6670  _staff */\n      dup3\n        /* \"VendingMachine.sol\":6672:6681  dailyRate */\n      dup3\n        /* \"VendingMachine.sol\":6643:6663  _processPaymentSmart */\n      tag_260\n        /* \"VendingMachine.sol\":6643:6682  _processPaymentSmart(_staff, dailyRate) */\n      jump\t// in\n    tag_259:\n        /* \"VendingMachine.sol\":6708:6774  ExpensePaid(\"GAJI HARIAN\", _staff, dailyRate, \"Gaji Rutin Harian\") */\n      0xfea36c567a41c73fb142ae411f08565859d2842b21caf06283e31ef06079b36a\n        /* \"VendingMachine.sol\":6735:6741  _staff */\n      dup3\n        /* \"VendingMachine.sol\":6743:6752  dailyRate */\n      dup3\n        /* \"VendingMachine.sol\":6708:6774  ExpensePaid(\"GAJI HARIAN\", _staff, dailyRate, \"Gaji Rutin Harian\") */\n      mload(0x40)\n      tag_261\n      swap3\n      swap2\n      swap1\n      tag_262\n      jump\t// in\n    tag_261:\n      mload(0x40)\n      dup1\n      swap2\n      sub\n      swap1\n      log1\n        /* \"VendingMachine.sol\":6177:6782  {... */\n      pop\n        /* \"VendingMachine.sol\":4123:4128  false */\n      0x00\n        /* \"VendingMachine.sol\":4114:4120  locked */\n      0x14\n      0x00\n        /* \"VendingMachine.sol\":4114:4128  locked = false */\n      0x0100\n      exp\n      dup2\n      sload\n      dup2\n      0xff\n      mul\n      not\n      and\n      swap1\n      dup4\n      iszero\n      iszero\n      mul\n      or\n      swap1\n      sstore\n      pop\n        /* \"VendingMachine.sol\":6105:6782  function payDailySalary(address _staff) external onlyOwner noReentrancy {... */\n      pop\n      jump\t// out\n        /* \"VendingMachine.sol\":725:768  uint256 public coffeePrice = 15000 * 10**18 */\n    tag_70:\n      sload(0x03)\n      dup2\n      jump\t// out\n        /* \"VendingMachine.sol\":1272:1319  uint256 public constant MAX_WALLET_PERCENT = 40 */\n    tag_74:\n        /* \"VendingMachine.sol\":1317:1319  40 */\n      0x28\n        /* \"VendingMachine.sol\":1272:1319  uint256 public constant MAX_WALLET_PERCENT = 40 */\n      dup2\n      jump\t// out\n        /* \"VendingMachine.sol\":613:639  IERC20 public paymentToken */\n    tag_77:\n      0x00\n      dup1\n      sload\n      swap1\n      0x0100\n      exp\n      swap1\n      div\n      0xffffffffffffffffffffffffffffffffffffffff\n      and\n      dup2\n      jump\t// out\n        /* \"VendingMachine.sol\":7290:7474  function proposeBuyMachine(address _vendor, uint256 _price, string memory _desc) external onlyOwner {... */\n    tag_82:\n        /* \"VendingMachine.sol\":4004:4009  owner */\n      0x02\n      0x00\n      swap1\n      sload\n      swap1\n      0x0100\n      exp\n      swap1\n      div\n      0xffffffffffffffffffffffffffffffffffffffff\n      and\n        /* \"VendingMachine.sol\":3990:4009  msg.sender == owner */\n      0xffffffffffffffffffffffffffffffffffffffff\n      and\n        /* \"VendingMachine.sol\":3990:4000  msg.sender */\n      caller\n        /* \"VendingMachine.sol\":3990:4009  msg.sender == owner */\n      0xffffffffffffffffffffffffffffffffffffffff\n      and\n      eq\n        /* \"VendingMachine.sol\":3982:4025  require(msg.sender == owner, \"Hanya Admin\") */\n      tag_264\n      jumpi\n      mload(0x40)\n      0x08c379a000000000000000000000000000000000000000000000000000000000\n      dup2\n      mstore\n      0x04\n      add\n      tag_265\n      swap1\n      tag_247\n      jump\t// in\n    tag_265:\n      mload(0x40)\n      dup1\n      swap2\n      sub\n      swap1\n      revert\n    tag_264:\n        /* \"VendingMachine.sol\":7401:7466  _createProposal(ProposalType.BUY_MACHINE, _vendor, _price, _desc) */\n      tag_267\n        /* \"VendingMachine.sol\":7417:7441  ProposalType.BUY_MACHINE */\n      0x00\n        /* \"VendingMachine.sol\":7443:7450  _vendor */\n      dup5\n        /* \"VendingMachine.sol\":7452:7458  _price */\n      dup5\n        /* \"VendingMachine.sol\":7460:7465  _desc */\n      dup5\n        /* \"VendingMachine.sol\":7401:7416  _createProposal */\n      tag_268\n        /* \"VendingMachine.sol\":7401:7466  _createProposal(ProposalType.BUY_MACHINE, _vendor, _price, _desc) */\n      jump\t// in\n    tag_267:\n        /* \"VendingMachine.sol\":7290:7474  function proposeBuyMachine(address _vendor, uint256 _price, string memory _desc) external onlyOwner {... */\n      pop\n      pop\n      pop\n      jump\t// out\n        /* \"VendingMachine.sol\":1357:1397  uint256 public magnifiedDividendPerShare */\n    tag_84:\n      sload(0x09)\n      dup2\n      jump\t// out\n        /* \"VendingMachine.sol\":2277:2322  mapping(address => bool) public isWhitelisted */\n    tag_88:\n      mstore(0x20, 0x11)\n      dup1\n      0x00\n      mstore\n      keccak256(0x00, 0x40)\n      0x00\n      swap2\n      pop\n      sload\n      swap1\n      0x0100\n      exp\n      swap1\n      div\n      0xff\n      and\n      dup2\n      jump\t// out\n        /* \"VendingMachine.sol\":2216:2243  uint256 public machineCount */\n    tag_92:\n      sload(0x10)\n      dup2\n      jump\t// out\n        /* \"VendingMachine.sol\":2165:2208  mapping(uint256 => Machine) public machines */\n    tag_96:\n      mstore(0x20, 0x0f)\n      dup1\n      0x00\n      mstore\n      keccak256(0x00, 0x40)\n      0x00\n      swap2\n      pop\n      swap1\n      pop\n      dup1\n      0x00\n      add\n      sload\n      swap1\n      dup1\n      0x01\n      add\n      dup1\n      sload\n      tag_269\n      swap1\n      tag_217\n      jump\t// in\n    tag_269:\n      dup1\n      0x1f\n      add\n      0x20\n      dup1\n      swap2\n      div\n      mul\n      0x20\n      add\n      mload(0x40)\n      swap1\n      dup2\n      add\n      0x40\n      mstore\n      dup1\n      swap3\n      swap2\n      swap1\n      dup2\n      dup2\n      mstore\n      0x20\n      add\n      dup3\n      dup1\n      sload\n      tag_270\n      swap1\n      tag_217\n      jump\t// in\n    tag_270:\n      dup1\n      iszero\n      tag_271\n      jumpi\n      dup1\n      0x1f\n      lt\n      tag_272\n      jumpi\n      0x0100\n      dup1\n      dup4\n      sload\n      div\n      mul\n      dup4\n      mstore\n      swap2\n      0x20\n      add\n      swap2\n      jump(tag_271)\n    tag_272:\n      dup3\n      add\n      swap2\n      swap1\n      0x00\n      mstore\n      keccak256(0x00, 0x20)\n      swap1\n    tag_273:\n      dup2\n      sload\n      dup2\n      mstore\n      swap1\n      0x01\n      add\n      swap1\n      0x20\n      add\n      dup1\n      dup4\n      gt\n      tag_273\n      jumpi\n      dup3\n      swap1\n      sub\n      0x1f\n      and\n      dup3\n      add\n      swap2\n    tag_271:\n      pop\n      pop\n      pop\n      pop\n      pop\n      swap1\n      dup1\n      0x02\n      add\n      0x00\n      swap1\n      sload\n      swap1\n      0x0100\n      exp\n      swap1\n      div\n      0xff\n      and\n      swap1\n      dup1\n      0x03\n      add\n      sload\n      swap1\n      pop\n      dup5\n      jump\t// out\n        /* \"VendingMachine.sol\":1037:1079  uint256 public constant REINVEST_RATE = 20 */\n    tag_100:\n        /* \"VendingMachine.sol\":1077:1079  20 */\n      0x14\n        /* \"VendingMachine.sol\":1037:1079  uint256 public constant REINVEST_RATE = 20 */\n      dup2\n      jump\t// out\n        /* \"VendingMachine.sol\":7528:7708  function proposeBuyStock(address _vendor, uint256 _price, string memory _desc) external onlyOwner {... */\n    tag_104:\n        /* \"VendingMachine.sol\":4004:4009  owner */\n      0x02\n      0x00\n      swap1\n      sload\n      swap1\n      0x0100\n      exp\n      swap1\n      div\n      0xffffffffffffffffffffffffffffffffffffffff\n      and\n        /* \"VendingMachine.sol\":3990:4009  msg.sender == owner */\n      0xffffffffffffffffffffffffffffffffffffffff\n      and\n        /* \"VendingMachine.sol\":3990:4000  msg.sender */\n      caller\n        /* \"VendingMachine.sol\":3990:4009  msg.sender == owner */\n      0xffffffffffffffffffffffffffffffffffffffff\n      and\n      eq\n        /* \"VendingMachine.sol\":3982:4025  require(msg.sender == owner, \"Hanya Admin\") */\n      tag_275\n      jumpi\n      mload(0x40)\n      0x08c379a000000000000000000000000000000000000000000000000000000000\n      dup2\n      mstore\n      0x04\n      add\n      tag_276\n      swap1\n      tag_247\n      jump\t// in\n    tag_276:\n      mload(0x40)\n      dup1\n      swap2\n      sub\n      swap1\n      revert\n    tag_275:\n        /* \"VendingMachine.sol\":7637:7700  _createProposal(ProposalType.BUY_STOCK, _vendor, _price, _desc) */\n      tag_278\n        /* \"VendingMachine.sol\":7653:7675  ProposalType.BUY_STOCK */\n      0x01\n        /* \"VendingMachine.sol\":7677:7684  _vendor */\n      dup5\n        /* \"VendingMachine.sol\":7686:7692  _price */\n      dup5\n        /* \"VendingMachine.sol\":7694:7699  _desc */\n      dup5\n        /* \"VendingMachine.sol\":7637:7652  _createProposal */\n      tag_268\n        /* \"VendingMachine.sol\":7637:7700  _createProposal(ProposalType.BUY_STOCK, _vendor, _price, _desc) */\n      jump\t// in\n    tag_278:\n        /* \"VendingMachine.sol\":7528:7708  function proposeBuyStock(address _vendor, uint256 _price, string memory _desc) external onlyOwner {... */\n      pop\n      pop\n      pop\n      jump\t// out\n        /* \"VendingMachine.sol\":878:903  uint256 public growthFund */\n    tag_106:\n      sload(0x06)\n      dup2\n      jump\t// out\n        /* \"VendingMachine.sol\":11769:12189  function claimDividends() external noReentrancy {... */\n    tag_109:\n        /* \"VendingMachine.sol\":4072:4078  locked */\n      0x14\n      0x00\n      swap1\n      sload\n      swap1\n      0x0100\n      exp\n      swap1\n      div\n      0xff\n      and\n        /* \"VendingMachine.sol\":4071:4078  !locked */\n      iszero\n        /* \"VendingMachine.sol\":4063:4094  require(!locked, \"Reentrancy!\") */\n      tag_280\n      jumpi\n      mload(0x40)\n      0x08c379a000000000000000000000000000000000000000000000000000000000\n      dup2\n      mstore\n      0x04\n      add\n      tag_281\n      swap1\n      tag_185\n      jump\t// in\n    tag_281:\n      mload(0x40)\n      dup1\n      swap2\n      sub\n      swap1\n      revert\n    tag_280:\n        /* \"VendingMachine.sol\":4105:4109  true */\n      0x01\n        /* \"VendingMachine.sol\":4096:4102  locked */\n      0x14\n      0x00\n        /* \"VendingMachine.sol\":4096:4109  locked = true */\n      0x0100\n      exp\n      dup2\n      sload\n      dup2\n      0xff\n      mul\n      not\n      and\n      swap1\n      dup4\n      iszero\n      iszero\n      mul\n      or\n      swap1\n      sstore\n      pop\n        /* \"VendingMachine.sol\":11828:11848  uint256 withdrawable */\n      0x00\n        /* \"VendingMachine.sol\":11851:11886  getWithdrawableDividend(msg.sender) */\n      tag_283\n        /* \"VendingMachine.sol\":11875:11885  msg.sender */\n      caller\n        /* \"VendingMachine.sol\":11851:11874  getWithdrawableDividend */\n      tag_139\n        /* \"VendingMachine.sol\":11851:11886  getWithdrawableDividend(msg.sender) */\n      jump\t// in\n    tag_283:\n        /* \"VendingMachine.sol\":11828:11886  uint256 withdrawable = getWithdrawableDividend(msg.sender) */\n      swap1\n      pop\n        /* \"VendingMachine.sol\":11920:11921  0 */\n      0x00\n        /* \"VendingMachine.sol\":11905:11917  withdrawable */\n      dup2\n        /* \"VendingMachine.sol\":11905:11921  withdrawable > 0 */\n      gt\n        /* \"VendingMachine.sol\":11897:11931  require(withdrawable > 0, \"Nihil\") */\n      tag_284\n      jumpi\n      mload(0x40)\n      0x08c379a000000000000000000000000000000000000000000000000000000000\n      dup2\n      mstore\n      0x04\n      add\n      tag_285\n      swap1\n      tag_286\n      jump\t// in\n    tag_285:\n      mload(0x40)\n      dup1\n      swap2\n      sub\n      swap1\n      revert\n    tag_284:\n        /* \"VendingMachine.sol\":11986:11998  withdrawable */\n      dup1\n        /* \"VendingMachine.sol\":11952:11970  withdrawnDividends */\n      0x0b\n        /* \"VendingMachine.sol\":11952:11982  withdrawnDividends[msg.sender] */\n      0x00\n        /* \"VendingMachine.sol\":11971:11981  msg.sender */\n      caller\n        /* \"VendingMachine.sol\":11952:11982  withdrawnDividends[msg.sender] */\n      0xffffffffffffffffffffffffffffffffffffffff\n      and\n      0xffffffffffffffffffffffffffffffffffffffff\n      and\n      dup2\n      mstore\n      0x20\n      add\n      swap1\n      dup2\n      mstore\n      0x20\n      add\n      0x00\n      keccak256\n      0x00\n        /* \"VendingMachine.sol\":11952:11998  withdrawnDividends[msg.sender] += withdrawable */\n      dup3\n      dup3\n      sload\n      tag_287\n      swap2\n      swap1\n      tag_205\n      jump\t// in\n    tag_287:\n      swap3\n      pop\n      pop\n      dup2\n      swap1\n      sstore\n      pop\n        /* \"VendingMachine.sol\":12034:12046  withdrawable */\n      dup1\n        /* \"VendingMachine.sol\":12009:12030  totalDividendsClaimed */\n      0x08\n      0x00\n        /* \"VendingMachine.sol\":12009:12046  totalDividendsClaimed += withdrawable */\n      dup3\n      dup3\n      sload\n      tag_288\n      swap2\n      swap1\n      tag_205\n      jump\t// in\n    tag_288:\n      swap3\n      pop\n      pop\n      dup2\n      swap1\n      sstore\n      pop\n        /* \"VendingMachine.sol\":12067:12079  paymentToken */\n      0x00\n      dup1\n      sload\n      swap1\n      0x0100\n      exp\n      swap1\n      div\n      0xffffffffffffffffffffffffffffffffffffffff\n      and\n        /* \"VendingMachine.sol\":12067:12088  paymentToken.transfer */\n      0xffffffffffffffffffffffffffffffffffffffff\n      and\n      0xa9059cbb\n        /* \"VendingMachine.sol\":12089:12099  msg.sender */\n      caller\n        /* \"VendingMachine.sol\":12101:12113  withdrawable */\n      dup4\n        /* \"VendingMachine.sol\":12067:12114  paymentToken.transfer(msg.sender, withdrawable) */\n      mload(0x40)\n      dup4\n      0xffffffff\n      and\n      0xe0\n      shl\n      dup2\n      mstore\n      0x04\n      add\n      tag_289\n      swap3\n      swap2\n      swap1\n      tag_290\n      jump\t// in\n    tag_289:\n      0x20\n      mload(0x40)\n      dup1\n      dup4\n      sub\n      dup2\n      0x00\n      dup8\n      gas\n      call\n      iszero\n      dup1\n      iszero\n      tag_292\n      jumpi\n      returndatasize\n      0x00\n      dup1\n      returndatacopy\n      revert(0x00, returndatasize)\n    tag_292:\n      pop\n      pop\n      pop\n      pop\n      mload(0x40)\n      returndatasize\n      not(0x1f)\n      0x1f\n      dup3\n      add\n      and\n      dup3\n      add\n      dup1\n      0x40\n      mstore\n      pop\n      dup2\n      add\n      swap1\n      tag_293\n      swap2\n      swap1\n      tag_233\n      jump\t// in\n    tag_293:\n        /* \"VendingMachine.sol\":12059:12124  require(paymentToken.transfer(msg.sender, withdrawable), \"Gagal\") */\n      tag_294\n      jumpi\n      mload(0x40)\n      0x08c379a000000000000000000000000000000000000000000000000000000000\n      dup2\n      mstore\n      0x04\n      add\n      tag_295\n      swap1\n      tag_296\n      jump\t// in\n    tag_295:\n      mload(0x40)\n      dup1\n      swap2\n      sub\n      swap1\n      revert\n    tag_294:\n        /* \"VendingMachine.sol\":12140:12181  DividendClaimed(msg.sender, withdrawable) */\n      0x5efa67896a23b651b741b525caacba039c00ca7853be3de8eb1f4269e8669c56\n        /* \"VendingMachine.sol\":12156:12166  msg.sender */\n      caller\n        /* \"VendingMachine.sol\":12168:12180  withdrawable */\n      dup3\n        /* \"VendingMachine.sol\":12140:12181  DividendClaimed(msg.sender, withdrawable) */\n      mload(0x40)\n      tag_297\n      swap3\n      swap2\n      swap1\n      tag_290\n      jump\t// in\n    tag_297:\n      mload(0x40)\n      dup1\n      swap2\n      sub\n      swap1\n      log1\n        /* \"VendingMachine.sol\":11817:12189  {... */\n      pop\n        /* \"VendingMachine.sol\":4123:4128  false */\n      0x00\n        /* \"VendingMachine.sol\":4114:4120  locked */\n      0x14\n      0x00\n        /* \"VendingMachine.sol\":4114:4128  locked = false */\n      0x0100\n      exp\n      dup2\n      sload\n      dup2\n      0xff\n      mul\n      not\n      and\n      swap1\n      dup4\n      iszero\n      iszero\n      mul\n      or\n      swap1\n      sstore\n      pop\n        /* \"VendingMachine.sol\":11769:12189  function claimDividends() external noReentrancy {... */\n      jump\t// out\n        /* \"VendingMachine.sol\":7752:7954  function proposeUpdateSalary(address _staff, uint256 _dailyAmount, string memory _alasan) external onlyOwner {... */\n    tag_112:\n        /* \"VendingMachine.sol\":4004:4009  owner */\n      0x02\n      0x00\n      swap1\n      sload\n      swap1\n      0x0100\n      exp\n      swap1\n      div\n      0xffffffffffffffffffffffffffffffffffffffff\n      and\n        /* \"VendingMachine.sol\":3990:4009  msg.sender == owner */\n      0xffffffffffffffffffffffffffffffffffffffff\n      and\n        /* \"VendingMachine.sol\":3990:4000  msg.sender */\n      caller\n        /* \"VendingMachine.sol\":3990:4009  msg.sender == owner */\n      0xffffffffffffffffffffffffffffffffffffffff\n      and\n      eq\n        /* \"VendingMachine.sol\":3982:4025  require(msg.sender == owner, \"Hanya Admin\") */\n      tag_299\n      jumpi\n      mload(0x40)\n      0x08c379a000000000000000000000000000000000000000000000000000000000\n      dup2\n      mstore\n      0x04\n      add\n      tag_300\n      swap1\n      tag_247\n      jump\t// in\n    tag_300:\n      mload(0x40)\n      dup1\n      swap2\n      sub\n      swap1\n      revert\n    tag_299:\n        /* \"VendingMachine.sol\":7872:7946  _createProposal(ProposalType.UPDATE_SALARY, _staff, _dailyAmount, _alasan) */\n      tag_302\n        /* \"VendingMachine.sol\":7888:7914  ProposalType.UPDATE_SALARY */\n      0x02\n        /* \"VendingMachine.sol\":7916:7922  _staff */\n      dup5\n        /* \"VendingMachine.sol\":7924:7936  _dailyAmount */\n      dup5\n        /* \"VendingMachine.sol\":7938:7945  _alasan */\n      dup5\n        /* \"VendingMachine.sol\":7872:7887  _createProposal */\n      tag_268\n        /* \"VendingMachine.sol\":7872:7946  _createProposal(ProposalType.UPDATE_SALARY, _staff, _dailyAmount, _alasan) */\n      jump\t// in\n    tag_302:\n        /* \"VendingMachine.sol\":7752:7954  function proposeUpdateSalary(address _staff, uint256 _dailyAmount, string memory _alasan) external onlyOwner {... */\n      pop\n      pop\n      pop\n      jump\t// out\n        /* \"VendingMachine.sol\":13918:14344  function getOperationalReserve() external view returns (uint256) {... */\n    tag_114:\n        /* \"VendingMachine.sol\":13974:13981  uint256 */\n      0x00\n        /* \"VendingMachine.sol\":13994:14016  uint256 currentBalance */\n      dup1\n        /* \"VendingMachine.sol\":14019:14031  paymentToken */\n      0x00\n      dup1\n      sload\n      swap1\n      0x0100\n      exp\n      swap1\n      div\n      0xffffffffffffffffffffffffffffffffffffffff\n      and\n        /* \"VendingMachine.sol\":14019:14041  paymentToken.balanceOf */\n      0xffffffffffffffffffffffffffffffffffffffff\n      and\n      0x70a08231\n        /* \"VendingMachine.sol\":14050:14054  this */\n      address\n        /* \"VendingMachine.sol\":14019:14056  paymentToken.balanceOf(address(this)) */\n      mload(0x40)\n      dup3\n      0xffffffff\n      and\n      0xe0\n      shl\n      dup2\n      mstore\n      0x04\n      add\n      tag_304\n      swap2\n      swap1\n      tag_128\n      jump\t// in\n    tag_304:\n      0x20\n      mload(0x40)\n      dup1\n      dup4\n      sub\n      dup2\n      dup7\n      gas\n      staticcall\n      iszero\n      dup1\n      iszero\n      tag_306\n      jumpi\n      returndatasize\n      0x00\n      dup1\n      returndatacopy\n      revert(0x00, returndatasize)\n    tag_306:\n      pop\n      pop\n      pop\n      pop\n      mload(0x40)\n      returndatasize\n      not(0x1f)\n      0x1f\n      dup3\n      add\n      and\n      dup3\n      add\n      dup1\n      0x40\n      mstore\n      pop\n      dup2\n      add\n      swap1\n      tag_307\n      swap2\n      swap1\n      tag_200\n      jump\t// in\n    tag_307:\n        /* \"VendingMachine.sol\":13994:14056  uint256 currentBalance = paymentToken.balanceOf(address(this)) */\n      swap1\n      pop\n        /* \"VendingMachine.sol\":14067:14093  uint256 unclaimedDividends */\n      0x00\n        /* \"VendingMachine.sol\":14124:14145  totalDividendsClaimed */\n      sload(0x08)\n        /* \"VendingMachine.sol\":14096:14121  totalDividendsDistributed */\n      sload(0x07)\n        /* \"VendingMachine.sol\":14096:14145  totalDividendsDistributed - totalDividendsClaimed */\n      tag_308\n      swap2\n      swap1\n      tag_309\n      jump\t// in\n    tag_308:\n        /* \"VendingMachine.sol\":14067:14145  uint256 unclaimedDividends = totalDividendsDistributed - totalDividendsClaimed */\n      swap1\n      pop\n        /* \"VendingMachine.sol\":14156:14175  uint256 lockedFunds */\n      0x00\n        /* \"VendingMachine.sol\":14191:14209  unclaimedDividends */\n      dup2\n        /* \"VendingMachine.sol\":14178:14188  growthFund */\n      sload(0x06)\n        /* \"VendingMachine.sol\":14178:14209  growthFund + unclaimedDividends */\n      tag_310\n      swap2\n      swap1\n      tag_205\n      jump\t// in\n    tag_310:\n        /* \"VendingMachine.sol\":14156:14209  uint256 lockedFunds = growthFund + unclaimedDividends */\n      swap1\n      pop\n        /* \"VendingMachine.sol\":14243:14254  lockedFunds */\n      dup1\n        /* \"VendingMachine.sol\":14226:14240  currentBalance */\n      dup4\n        /* \"VendingMachine.sol\":14226:14254  currentBalance > lockedFunds */\n      gt\n        /* \"VendingMachine.sol\":14222:14318  if (currentBalance > lockedFunds) {... */\n      iszero\n      tag_311\n      jumpi\n        /* \"VendingMachine.sol\":14295:14306  lockedFunds */\n      dup1\n        /* \"VendingMachine.sol\":14278:14292  currentBalance */\n      dup4\n        /* \"VendingMachine.sol\":14278:14306  currentBalance - lockedFunds */\n      tag_312\n      swap2\n      swap1\n      tag_309\n      jump\t// in\n    tag_312:\n        /* \"VendingMachine.sol\":14271:14306  return currentBalance - lockedFunds */\n      swap4\n      pop\n      pop\n      pop\n      pop\n      jump(tag_303)\n        /* \"VendingMachine.sol\":14222:14318  if (currentBalance > lockedFunds) {... */\n    tag_311:\n        /* \"VendingMachine.sol\":14335:14336  0 */\n      0x00\n        /* \"VendingMachine.sol\":14328:14336  return 0 */\n      swap4\n      pop\n      pop\n      pop\n      pop\n        /* \"VendingMachine.sol\":13918:14344  function getOperationalReserve() external view returns (uint256) {... */\n    tag_303:\n      swap1\n      jump\t// out\n        /* \"VendingMachine.sol\":14879:15008  function getAvailableShares() external view returns (uint256) {... */\n    tag_117:\n        /* \"VendingMachine.sol\":14932:14939  uint256 */\n      0x00\n        /* \"VendingMachine.sol\":14959:14969  assetToken */\n      0x01\n      0x00\n      swap1\n      sload\n      swap1\n      0x0100\n      exp\n      swap1\n      div\n      0xffffffffffffffffffffffffffffffffffffffff\n      and\n        /* \"VendingMachine.sol\":14959:14979  assetToken.balanceOf */\n      0xffffffffffffffffffffffffffffffffffffffff\n      and\n      0x70a08231\n        /* \"VendingMachine.sol\":14988:14998  assetToken */\n      0x01\n      0x00\n      swap1\n      sload\n      swap1\n      0x0100\n      exp\n      swap1\n      div\n      0xffffffffffffffffffffffffffffffffffffffff\n      and\n        /* \"VendingMachine.sol\":14959:15000  assetToken.balanceOf(address(assetToken)) */\n      mload(0x40)\n      dup3\n      0xffffffff\n      and\n      0xe0\n      shl\n      dup2\n      mstore\n      0x04\n      add\n      tag_314\n      swap2\n      swap1\n      tag_128\n      jump\t// in\n    tag_314:\n      0x20\n      mload(0x40)\n      dup1\n      dup4\n      sub\n      dup2\n      dup7\n      gas\n      staticcall\n      iszero\n      dup1\n      iszero\n      tag_316\n      jumpi\n      returndatasize\n      0x00\n      dup1\n      returndatacopy\n      revert(0x00, returndatasize)\n    tag_316:\n      pop\n      pop\n      pop\n      pop\n      mload(0x40)\n      returndatasize\n      not(0x1f)\n      0x1f\n      dup3\n      add\n      and\n      dup3\n      add\n      dup1\n      0x40\n      mstore\n      pop\n      dup2\n      add\n      swap1\n      tag_317\n      swap2\n      swap1\n      tag_200\n      jump\t// in\n    tag_317:\n        /* \"VendingMachine.sol\":14952:15000  return assetToken.balanceOf(address(assetToken)) */\n      swap1\n      pop\n        /* \"VendingMachine.sol\":14879:15008  function getAvailableShares() external view returns (uint256) {... */\n      swap1\n      jump\t// out\n        /* \"VendingMachine.sol\":911:951  uint256 public totalDividendsDistributed */\n    tag_120:\n      sload(0x07)\n      dup2\n      jump\t// out\n        /* \"VendingMachine.sol\":1547:1588  uint256 public sharePrice = 1000 * 10**18 */\n    tag_123:\n      sload(0x0c)\n      dup2\n      jump\t// out\n        /* \"VendingMachine.sol\":679:699  address public owner */\n    tag_126:\n      0x02\n      0x00\n      swap1\n      sload\n      swap1\n      0x0100\n      exp\n      swap1\n      div\n      0xffffffffffffffffffffffffffffffffffffffff\n      and\n      dup2\n      jump\t// out\n        /* \"VendingMachine.sol\":1404:1466  mapping(address => int256) public magnifiedDividendCorrections */\n    tag_131:\n      mstore(0x20, 0x0a)\n      dup1\n      0x00\n      mstore\n      keccak256(0x00, 0x40)\n      0x00\n      swap2\n      pop\n      swap1\n      pop\n      sload\n      dup2\n      jump\t// out\n        /* \"VendingMachine.sol\":958:994  uint256 public totalDividendsClaimed */\n    tag_135:\n      sload(0x08)\n      dup2\n      jump\t// out\n        /* \"VendingMachine.sol\":14356:14871  function getWithdrawableDividend(address _holder) public view returns (uint256) {... */\n    tag_139:\n        /* \"VendingMachine.sol\":14427:14434  uint256 */\n      0x00\n        /* \"VendingMachine.sol\":14447:14457  uint256 hb */\n      dup1\n        /* \"VendingMachine.sol\":14460:14470  assetToken */\n      0x01\n      0x00\n      swap1\n      sload\n      swap1\n      0x0100\n      exp\n      swap1\n      div\n      0xffffffffffffffffffffffffffffffffffffffff\n      and\n        /* \"VendingMachine.sol\":14460:14480  assetToken.balanceOf */\n      0xffffffffffffffffffffffffffffffffffffffff\n      and\n      0x70a08231\n        /* \"VendingMachine.sol\":14481:14488  _holder */\n      dup5\n        /* \"VendingMachine.sol\":14460:14489  assetToken.balanceOf(_holder) */\n      mload(0x40)\n      dup3\n      0xffffffff\n      and\n      0xe0\n      shl\n      dup2\n      mstore\n      0x04\n      add\n      tag_319\n      swap2\n      swap1\n      tag_128\n      jump\t// in\n    tag_319:\n      0x20\n      mload(0x40)\n      dup1\n      dup4\n      sub\n      dup2\n      dup7\n      gas\n      staticcall\n      iszero\n      dup1\n      iszero\n      tag_321\n      jumpi\n      returndatasize\n      0x00\n      dup1\n      returndatacopy\n      revert(0x00, returndatasize)\n    tag_321:\n      pop\n      pop\n      pop\n      pop\n      mload(0x40)\n      returndatasize\n      not(0x1f)\n      0x1f\n      dup3\n      add\n      and\n      dup3\n      add\n      dup1\n      0x40\n      mstore\n      pop\n      dup2\n      add\n      swap1\n      tag_322\n      swap2\n      swap1\n      tag_200\n      jump\t// in\n    tag_322:\n        /* \"VendingMachine.sol\":14447:14489  uint256 hb = assetToken.balanceOf(_holder) */\n      swap1\n      pop\n        /* \"VendingMachine.sol\":14510:14511  0 */\n      0x00\n        /* \"VendingMachine.sol\":14504:14506  hb */\n      dup2\n        /* \"VendingMachine.sol\":14504:14511  hb == 0 */\n      sub\n        /* \"VendingMachine.sol\":14500:14521  if (hb == 0) return 0 */\n      tag_323\n      jumpi\n        /* \"VendingMachine.sol\":14520:14521  0 */\n      0x00\n        /* \"VendingMachine.sol\":14513:14521  return 0 */\n      swap2\n      pop\n      pop\n      jump(tag_318)\n        /* \"VendingMachine.sol\":14500:14521  if (hb == 0) return 0 */\n    tag_323:\n        /* \"VendingMachine.sol\":14532:14542  int256 acc */\n      0x00\n        /* \"VendingMachine.sol\":14557:14582  magnifiedDividendPerShare */\n      sload(0x09)\n        /* \"VendingMachine.sol\":14552:14554  hb */\n      dup3\n        /* \"VendingMachine.sol\":14552:14582  hb * magnifiedDividendPerShare */\n      tag_324\n      swap2\n      swap1\n      tag_238\n      jump\t// in\n    tag_324:\n        /* \"VendingMachine.sol\":14532:14583  int256 acc = int256(hb * magnifiedDividendPerShare) */\n      swap1\n      pop\n        /* \"VendingMachine.sol\":14594:14605  int256 corr */\n      0x00\n        /* \"VendingMachine.sol\":14608:14636  magnifiedDividendCorrections */\n      0x0a\n        /* \"VendingMachine.sol\":14608:14645  magnifiedDividendCorrections[_holder] */\n      0x00\n        /* \"VendingMachine.sol\":14637:14644  _holder */\n      dup7\n        /* \"VendingMachine.sol\":14608:14645  magnifiedDividendCorrections[_holder] */\n      0xffffffffffffffffffffffffffffffffffffffff\n      and\n      0xffffffffffffffffffffffffffffffffffffffff\n      and\n      dup2\n      mstore\n      0x20\n      add\n      swap1\n      dup2\n      mstore\n      0x20\n      add\n      0x00\n      keccak256\n      sload\n        /* \"VendingMachine.sol\":14594:14645  int256 corr = magnifiedDividendCorrections[_holder] */\n      swap1\n      pop\n        /* \"VendingMachine.sol\":14656:14677  uint256 accumulatable */\n      0x00\n        /* \"VendingMachine.sol\":1210:1216  2**128 */\n      0x0100000000000000000000000000000000\n        /* \"VendingMachine.sol\":14694:14698  corr */\n      dup3\n        /* \"VendingMachine.sol\":14688:14691  acc */\n      dup5\n        /* \"VendingMachine.sol\":14688:14698  acc + corr */\n      tag_325\n      swap2\n      swap1\n      tag_240\n      jump\t// in\n    tag_325:\n        /* \"VendingMachine.sol\":14680:14711  uint256(acc + corr) / MAGNITUDE */\n      tag_326\n      swap2\n      swap1\n      tag_212\n      jump\t// in\n    tag_326:\n        /* \"VendingMachine.sol\":14656:14711  uint256 accumulatable = uint256(acc + corr) / MAGNITUDE */\n      swap1\n      pop\n        /* \"VendingMachine.sol\":14722:14739  uint256 withdrawn */\n      0x00\n        /* \"VendingMachine.sol\":14742:14760  withdrawnDividends */\n      0x0b\n        /* \"VendingMachine.sol\":14742:14769  withdrawnDividends[_holder] */\n      0x00\n        /* \"VendingMachine.sol\":14761:14768  _holder */\n      dup9\n        /* \"VendingMachine.sol\":14742:14769  withdrawnDividends[_holder] */\n      0xffffffffffffffffffffffffffffffffffffffff\n      and\n      0xffffffffffffffffffffffffffffffffffffffff\n      and\n      dup2\n      mstore\n      0x20\n      add\n      swap1\n      dup2\n      mstore\n      0x20\n      add\n      0x00\n      keccak256\n      sload\n        /* \"VendingMachine.sol\":14722:14769  uint256 withdrawn = withdrawnDividends[_holder] */\n      swap1\n      pop\n        /* \"VendingMachine.sol\":14801:14810  withdrawn */\n      dup1\n        /* \"VendingMachine.sol\":14784:14797  accumulatable */\n      dup3\n        /* \"VendingMachine.sol\":14784:14810  accumulatable <= withdrawn */\n      gt\n        /* \"VendingMachine.sol\":14780:14820  if (accumulatable <= withdrawn) return 0 */\n      tag_327\n      jumpi\n        /* \"VendingMachine.sol\":14819:14820  0 */\n      0x00\n        /* \"VendingMachine.sol\":14812:14820  return 0 */\n      swap6\n      pop\n      pop\n      pop\n      pop\n      pop\n      pop\n      jump(tag_318)\n        /* \"VendingMachine.sol\":14780:14820  if (accumulatable <= withdrawn) return 0 */\n    tag_327:\n        /* \"VendingMachine.sol\":14854:14863  withdrawn */\n      dup1\n        /* \"VendingMachine.sol\":14838:14851  accumulatable */\n      dup3\n        /* \"VendingMachine.sol\":14838:14863  accumulatable - withdrawn */\n      tag_328\n      swap2\n      swap1\n      tag_309\n      jump\t// in\n    tag_328:\n        /* \"VendingMachine.sol\":14831:14863  return accumulatable - withdrawn */\n      swap6\n      pop\n      pop\n      pop\n      pop\n      pop\n      pop\n        /* \"VendingMachine.sol\":14356:14871  function getWithdrawableDividend(address _holder) public view returns (uint256) {... */\n    tag_318:\n      swap2\n      swap1\n      pop\n      jump\t// out\n        /* \"VendingMachine.sol\":1983:2026  mapping(address => uint256) public lastPaid */\n    tag_143:\n      mstore(0x20, 0x0e)\n      dup1\n      0x00\n      mstore\n      keccak256(0x00, 0x40)\n      0x00\n      swap2\n      pop\n      swap1\n      pop\n      sload\n      dup2\n      jump\t// out\n        /* \"VendingMachine.sol\":4615:5861  function buyCoffee(uint256 _machineId) external noReentrancy {... */\n    tag_147:\n        /* \"VendingMachine.sol\":4072:4078  locked */\n      0x14\n      0x00\n      swap1\n      sload\n      swap1\n      0x0100\n      exp\n      swap1\n      div\n      0xff\n      and\n        /* \"VendingMachine.sol\":4071:4078  !locked */\n      iszero\n        /* \"VendingMachine.sol\":4063:4094  require(!locked, \"Reentrancy!\") */\n      tag_330\n      jumpi\n      mload(0x40)\n      0x08c379a000000000000000000000000000000000000000000000000000000000\n      dup2\n      mstore\n      0x04\n      add\n      tag_331\n      swap1\n      tag_185\n      jump\t// in\n    tag_331:\n      mload(0x40)\n      dup1\n      swap2\n      sub\n      swap1\n      revert\n    tag_330:\n        /* \"VendingMachine.sol\":4105:4109  true */\n      0x01\n        /* \"VendingMachine.sol\":4096:4102  locked */\n      0x14\n      0x00\n        /* \"VendingMachine.sol\":4096:4109  locked = true */\n      0x0100\n      exp\n      dup2\n      sload\n      dup2\n      0xff\n      mul\n      not\n      and\n      swap1\n      dup4\n      iszero\n      iszero\n      mul\n      or\n      swap1\n      sstore\n      pop\n        /* \"VendingMachine.sol\":4695:4703  machines */\n      0x0f\n        /* \"VendingMachine.sol\":4695:4715  machines[_machineId] */\n      0x00\n        /* \"VendingMachine.sol\":4704:4714  _machineId */\n      dup3\n        /* \"VendingMachine.sol\":4695:4715  machines[_machineId] */\n      dup2\n      mstore\n      0x20\n      add\n      swap1\n      dup2\n      mstore\n      0x20\n      add\n      0x00\n      keccak256\n        /* \"VendingMachine.sol\":4695:4724  machines[_machineId].isActive */\n      0x02\n      add\n      0x00\n      swap1\n      sload\n      swap1\n      0x0100\n      exp\n      swap1\n      div\n      0xff\n      and\n        /* \"VendingMachine.sol\":4687:4739  require(machines[_machineId].isActive, \"Mesin Mati\") */\n      tag_333\n      jumpi\n      mload(0x40)\n      0x08c379a000000000000000000000000000000000000000000000000000000000\n      dup2\n      mstore\n      0x04\n      add\n      tag_334\n      swap1\n      tag_335\n      jump\t// in\n    tag_334:\n      mload(0x40)\n      dup1\n      swap2\n      sub\n      swap1\n      revert\n    tag_333:\n        /* \"VendingMachine.sol\":4760:4773  uint256 price */\n      0x00\n        /* \"VendingMachine.sol\":4776:4787  coffeePrice */\n      sload(0x03)\n        /* \"VendingMachine.sol\":4760:4787  uint256 price = coffeePrice */\n      swap1\n      pop\n        /* \"VendingMachine.sol\":4807:4819  paymentToken */\n      0x00\n      dup1\n      sload\n      swap1\n      0x0100\n      exp\n      swap1\n      div\n      0xffffffffffffffffffffffffffffffffffffffff\n      and\n        /* \"VendingMachine.sol\":4807:4832  paymentToken.transferFrom */\n      0xffffffffffffffffffffffffffffffffffffffff\n      and\n      0x23b872dd\n        /* \"VendingMachine.sol\":4833:4843  msg.sender */\n      caller\n        /* \"VendingMachine.sol\":4853:4857  this */\n      address\n        /* \"VendingMachine.sol\":4860:4865  price */\n      dup5\n        /* \"VendingMachine.sol\":4807:4866  paymentToken.transferFrom(msg.sender, address(this), price) */\n      mload(0x40)\n      dup5\n      0xffffffff\n      and\n      0xe0\n      shl\n      dup2\n      mstore\n      0x04\n      add\n      tag_336\n      swap4\n      swap3\n      swap2\n      swap1\n      tag_229\n      jump\t// in\n    tag_336:\n      0x20\n      mload(0x40)\n      dup1\n      dup4\n      sub\n      dup2\n      0x00\n      dup8\n      gas\n      call\n      iszero\n      dup1\n      iszero\n      tag_338\n      jumpi\n      returndatasize\n      0x00\n      dup1\n      returndatacopy\n      revert(0x00, returndatasize)\n    tag_338:\n      pop\n      pop\n      pop\n      pop\n      mload(0x40)\n      returndatasize\n      not(0x1f)\n      0x1f\n      dup3\n      add\n      and\n      dup3\n      add\n      dup1\n      0x40\n      mstore\n      pop\n      dup2\n      add\n      swap1\n      tag_339\n      swap2\n      swap1\n      tag_233\n      jump\t// in\n    tag_339:\n        /* \"VendingMachine.sol\":4799:4882  require(paymentToken.transferFrom(msg.sender, address(this), price), \"Gagal Bayar\") */\n      tag_340\n      jumpi\n      mload(0x40)\n      0x08c379a000000000000000000000000000000000000000000000000000000000\n      dup2\n      mstore\n      0x04\n      add\n      tag_341\n      swap1\n      tag_342\n      jump\t// in\n    tag_341:\n      mload(0x40)\n      dup1\n      swap2\n      sub\n      swap1\n      revert\n    tag_340:\n        /* \"VendingMachine.sol\":4930:4935  price */\n      dup1\n        /* \"VendingMachine.sol\":4895:4903  machines */\n      0x0f\n        /* \"VendingMachine.sol\":4895:4915  machines[_machineId] */\n      0x00\n        /* \"VendingMachine.sol\":4904:4914  _machineId */\n      dup5\n        /* \"VendingMachine.sol\":4895:4915  machines[_machineId] */\n      dup2\n      mstore\n      0x20\n      add\n      swap1\n      dup2\n      mstore\n      0x20\n      add\n      0x00\n      keccak256\n        /* \"VendingMachine.sol\":4895:4926  machines[_machineId].totalSales */\n      0x03\n      add\n      0x00\n        /* \"VendingMachine.sol\":4895:4935  machines[_machineId].totalSales += price */\n      dup3\n      dup3\n      sload\n      tag_343\n      swap2\n      swap1\n      tag_205\n      jump\t// in\n    tag_343:\n      swap3\n      pop\n      pop\n      dup2\n      swap1\n      sstore\n      pop\n        /* \"VendingMachine.sol\":4962:4967  price */\n      dup1\n        /* \"VendingMachine.sol\":4946:4958  totalRevenue */\n      0x05\n      0x00\n        /* \"VendingMachine.sol\":4946:4967  totalRevenue += price */\n      dup3\n      dup3\n      sload\n      tag_344\n      swap2\n      swap1\n      tag_205\n      jump\t// in\n    tag_344:\n      swap3\n      pop\n      pop\n      dup2\n      swap1\n      sstore\n      pop\n        /* \"VendingMachine.sol\":5092:5111  uint256 grossProfit */\n      0x00\n        /* \"VendingMachine.sol\":5138:5148  cogsPerCup */\n      sload(0x04)\n        /* \"VendingMachine.sol\":5130:5135  price */\n      dup3\n        /* \"VendingMachine.sol\":5130:5148  price > cogsPerCup */\n      gt\n        /* \"VendingMachine.sol\":5126:5209  if (price > cogsPerCup) {... */\n      iszero\n      tag_345\n      jumpi\n        /* \"VendingMachine.sol\":5187:5197  cogsPerCup */\n      sload(0x04)\n        /* \"VendingMachine.sol\":5179:5184  price */\n      dup3\n        /* \"VendingMachine.sol\":5179:5197  price - cogsPerCup */\n      tag_346\n      swap2\n      swap1\n      tag_309\n      jump\t// in\n    tag_346:\n        /* \"VendingMachine.sol\":5165:5197  grossProfit = price - cogsPerCup */\n      swap1\n      pop\n        /* \"VendingMachine.sol\":5126:5209  if (price > cogsPerCup) {... */\n    tag_345:\n        /* \"VendingMachine.sol\":5289:5290  0 */\n      0x00\n        /* \"VendingMachine.sol\":5275:5286  grossProfit */\n      dup2\n        /* \"VendingMachine.sol\":5275:5290  grossProfit > 0 */\n      gt\n        /* \"VendingMachine.sol\":5271:5794  if (grossProfit > 0) {... */\n      iszero\n      tag_347\n      jumpi\n        /* \"VendingMachine.sol\":5307:5327  uint256 amountGrowth */\n      0x00\n        /* \"VendingMachine.sol\":5362:5365  100 */\n      0x64\n        /* \"VendingMachine.sol\":1077:1079  20 */\n      0x14\n        /* \"VendingMachine.sol\":5331:5342  grossProfit */\n      dup4\n        /* \"VendingMachine.sol\":5331:5358  grossProfit * REINVEST_RATE */\n      tag_348\n      swap2\n      swap1\n      tag_238\n      jump\t// in\n    tag_348:\n        /* \"VendingMachine.sol\":5330:5365  (grossProfit * REINVEST_RATE) / 100 */\n      tag_349\n      swap2\n      swap1\n      tag_212\n      jump\t// in\n    tag_349:\n        /* \"VendingMachine.sol\":5307:5365  uint256 amountGrowth = (grossProfit * REINVEST_RATE) / 100 */\n      swap1\n      pop\n        /* \"VendingMachine.sol\":5381:5403  uint256 amountDividend */\n      0x00\n        /* \"VendingMachine.sol\":5438:5441  100 */\n      0x64\n        /* \"VendingMachine.sol\":1151:1153  80 */\n      0x50\n        /* \"VendingMachine.sol\":5407:5418  grossProfit */\n      dup5\n        /* \"VendingMachine.sol\":5407:5434  grossProfit * DIVIDEND_RATE */\n      tag_350\n      swap2\n      swap1\n      tag_238\n      jump\t// in\n    tag_350:\n        /* \"VendingMachine.sol\":5406:5441  (grossProfit * DIVIDEND_RATE) / 100 */\n      tag_351\n      swap2\n      swap1\n      tag_212\n      jump\t// in\n    tag_351:\n        /* \"VendingMachine.sol\":5381:5441  uint256 amountDividend = (grossProfit * DIVIDEND_RATE) / 100 */\n      swap1\n      pop\n        /* \"VendingMachine.sol\":5472:5484  amountGrowth */\n      dup2\n        /* \"VendingMachine.sol\":5458:5468  growthFund */\n      0x06\n      0x00\n        /* \"VendingMachine.sol\":5458:5484  growthFund += amountGrowth */\n      dup3\n      dup3\n      sload\n      tag_352\n      swap2\n      swap1\n      tag_205\n      jump\t// in\n    tag_352:\n      swap3\n      pop\n      pop\n      dup2\n      swap1\n      sstore\n      pop\n        /* \"VendingMachine.sol\":5528:5542  amountDividend */\n      dup1\n        /* \"VendingMachine.sol\":5499:5524  totalDividendsDistributed */\n      0x07\n      0x00\n        /* \"VendingMachine.sol\":5499:5542  totalDividendsDistributed += amountDividend */\n      dup3\n      dup3\n      sload\n      tag_353\n      swap2\n      swap1\n      tag_205\n      jump\t// in\n    tag_353:\n      swap3\n      pop\n      pop\n      dup2\n      swap1\n      sstore\n      pop\n        /* \"VendingMachine.sol\":5590:5591  0 */\n      0x00\n        /* \"VendingMachine.sol\":5563:5573  assetToken */\n      0x01\n      0x00\n      swap1\n      sload\n      swap1\n      0x0100\n      exp\n      swap1\n      div\n      0xffffffffffffffffffffffffffffffffffffffff\n      and\n        /* \"VendingMachine.sol\":5563:5585  assetToken.totalSupply */\n      0xffffffffffffffffffffffffffffffffffffffff\n      and\n      0x18160ddd\n        /* \"VendingMachine.sol\":5563:5587  assetToken.totalSupply() */\n      mload(0x40)\n      dup2\n      0xffffffff\n      and\n      0xe0\n      shl\n      dup2\n      mstore\n      0x04\n      add\n      0x20\n      mload(0x40)\n      dup1\n      dup4\n      sub\n      dup2\n      dup7\n      gas\n      staticcall\n      iszero\n      dup1\n      iszero\n      tag_355\n      jumpi\n      returndatasize\n      0x00\n      dup1\n      returndatacopy\n      revert(0x00, returndatasize)\n    tag_355:\n      pop\n      pop\n      pop\n      pop\n      mload(0x40)\n      returndatasize\n      not(0x1f)\n      0x1f\n      dup3\n      add\n      and\n      dup3\n      add\n      dup1\n      0x40\n      mstore\n      pop\n      dup2\n      add\n      swap1\n      tag_356\n      swap2\n      swap1\n      tag_200\n      jump\t// in\n    tag_356:\n        /* \"VendingMachine.sol\":5563:5591  assetToken.totalSupply() > 0 */\n      gt\n        /* \"VendingMachine.sol\":5559:5783  if (assetToken.totalSupply() > 0) {... */\n      iszero\n      tag_357\n      jumpi\n        /* \"VendingMachine.sol\":5672:5682  assetToken */\n      0x01\n      0x00\n      swap1\n      sload\n      swap1\n      0x0100\n      exp\n      swap1\n      div\n      0xffffffffffffffffffffffffffffffffffffffff\n      and\n        /* \"VendingMachine.sol\":5672:5694  assetToken.totalSupply */\n      0xffffffffffffffffffffffffffffffffffffffff\n      and\n      0x18160ddd\n        /* \"VendingMachine.sol\":5672:5696  assetToken.totalSupply() */\n      mload(0x40)\n      dup2\n      0xffffffff\n      and\n      0xe0\n      shl\n      dup2\n      mstore\n      0x04\n      add\n      0x20\n      mload(0x40)\n      dup1\n      dup4\n      sub\n      dup2\n      dup7\n      gas\n      staticcall\n      iszero\n      dup1\n      iszero\n      tag_359\n      jumpi\n      returndatasize\n      0x00\n      dup1\n      returndatacopy\n      revert(0x00, returndatasize)\n    tag_359:\n      pop\n      pop\n      pop\n      pop\n      mload(0x40)\n      returndatasize\n      not(0x1f)\n      0x1f\n      dup3\n      add\n      and\n      dup3\n      add\n      dup1\n      0x40\n      mstore\n      pop\n      dup2\n      add\n      swap1\n      tag_360\n      swap2\n      swap1\n      tag_200\n      jump\t// in\n    tag_360:\n        /* \"VendingMachine.sol\":1210:1216  2**128 */\n      0x0100000000000000000000000000000000\n        /* \"VendingMachine.sol\":5642:5656  amountDividend */\n      dup3\n        /* \"VendingMachine.sol\":5642:5668  amountDividend * MAGNITUDE */\n      tag_361\n      swap2\n      swap1\n      tag_238\n      jump\t// in\n    tag_361:\n        /* \"VendingMachine.sol\":5641:5696  (amountDividend * MAGNITUDE) / assetToken.totalSupply() */\n      tag_362\n      swap2\n      swap1\n      tag_212\n      jump\t// in\n    tag_362:\n        /* \"VendingMachine.sol\":5612:5637  magnifiedDividendPerShare */\n      0x09\n      0x00\n        /* \"VendingMachine.sol\":5612:5696  magnifiedDividendPerShare += (amountDividend * MAGNITUDE) / assetToken.totalSupply() */\n      dup3\n      dup3\n      sload\n      tag_363\n      swap2\n      swap1\n      tag_205\n      jump\t// in\n    tag_363:\n      swap3\n      pop\n      pop\n      dup2\n      swap1\n      sstore\n      pop\n        /* \"VendingMachine.sol\":5720:5767  ProfitDistributed(amountDividend, amountGrowth) */\n      0x5fa156a16c825edd8ad1c2bd96f4bc48d9844e12f14d69d8b4a9e72ffb62e8eb\n        /* \"VendingMachine.sol\":5738:5752  amountDividend */\n      dup2\n        /* \"VendingMachine.sol\":5754:5766  amountGrowth */\n      dup4\n        /* \"VendingMachine.sol\":5720:5767  ProfitDistributed(amountDividend, amountGrowth) */\n      mload(0x40)\n      tag_364\n      swap3\n      swap2\n      swap1\n      tag_365\n      jump\t// in\n    tag_364:\n      mload(0x40)\n      dup1\n      swap2\n      sub\n      swap1\n      log1\n        /* \"VendingMachine.sol\":5559:5783  if (assetToken.totalSupply() > 0) {... */\n    tag_357:\n        /* \"VendingMachine.sol\":5292:5794  {... */\n      pop\n      pop\n        /* \"VendingMachine.sol\":5271:5794  if (grossProfit > 0) {... */\n    tag_347:\n        /* \"VendingMachine.sol\":5823:5833  _machineId */\n      dup3\n        /* \"VendingMachine.sol\":5809:5853  CoffeeOrdered(_machineId, msg.sender, price) */\n      0x33c78a468564bb55f4ad7bdd3e75b0c6b352a20d569a47f0cd10aba28dbddfb4\n        /* \"VendingMachine.sol\":5835:5845  msg.sender */\n      caller\n        /* \"VendingMachine.sol\":5847:5852  price */\n      dup5\n        /* \"VendingMachine.sol\":5809:5853  CoffeeOrdered(_machineId, msg.sender, price) */\n      mload(0x40)\n      tag_366\n      swap3\n      swap2\n      swap1\n      tag_290\n      jump\t// in\n    tag_366:\n      mload(0x40)\n      dup1\n      swap2\n      sub\n      swap1\n      log2\n        /* \"VendingMachine.sol\":4676:5861  {... */\n      pop\n      pop\n        /* \"VendingMachine.sol\":4123:4128  false */\n      0x00\n        /* \"VendingMachine.sol\":4114:4120  locked */\n      0x14\n      0x00\n        /* \"VendingMachine.sol\":4114:4128  locked = false */\n      0x0100\n      exp\n      dup2\n      sload\n      dup2\n      0xff\n      mul\n      not\n      and\n      swap1\n      dup4\n      iszero\n      iszero\n      mul\n      or\n      swap1\n      sstore\n      pop\n        /* \"VendingMachine.sol\":4615:5861  function buyCoffee(uint256 _machineId) external noReentrancy {... */\n      pop\n      jump\t// out\n        /* \"VendingMachine.sol\":1111:1153  uint256 public constant DIVIDEND_RATE = 80 */\n    tag_149:\n        /* \"VendingMachine.sol\":1151:1153  80 */\n      0x50\n        /* \"VendingMachine.sol\":1111:1153  uint256 public constant DIVIDEND_RATE = 80 */\n      dup2\n      jump\t// out\n        /* \"VendingMachine.sol\":844:871  uint256 public totalRevenue */\n    tag_152:\n      sload(0x05)\n      dup2\n      jump\t// out\n        /* \"VendingMachine.sol\":776:817  uint256 public cogsPerCup = 5000 * 10**18 */\n    tag_155:\n      sload(0x04)\n      dup2\n      jump\t// out\n        /* \"VendingMachine.sol\":10571:11282  function buyShares(uint256 _amount) external noReentrancy {... */\n    tag_159:\n        /* \"VendingMachine.sol\":4072:4078  locked */\n      0x14\n      0x00\n      swap1\n      sload\n      swap1\n      0x0100\n      exp\n      swap1\n      div\n      0xff\n      and\n        /* \"VendingMachine.sol\":4071:4078  !locked */\n      iszero\n        /* \"VendingMachine.sol\":4063:4094  require(!locked, \"Reentrancy!\") */\n      tag_368\n      jumpi\n      mload(0x40)\n      0x08c379a000000000000000000000000000000000000000000000000000000000\n      dup2\n      mstore\n      0x04\n      add\n      tag_369\n      swap1\n      tag_185\n      jump\t// in\n    tag_369:\n      mload(0x40)\n      dup1\n      swap2\n      sub\n      swap1\n      revert\n    tag_368:\n        /* \"VendingMachine.sol\":4105:4109  true */\n      0x01\n        /* \"VendingMachine.sol\":4096:4102  locked */\n      0x14\n      0x00\n        /* \"VendingMachine.sol\":4096:4109  locked = true */\n      0x0100\n      exp\n      dup2\n      sload\n      dup2\n      0xff\n      mul\n      not\n      and\n      swap1\n      dup4\n      iszero\n      iszero\n      mul\n      or\n      swap1\n      sstore\n      pop\n        /* \"VendingMachine.sol\":10640:10657  uint256 available */\n      0x00\n        /* \"VendingMachine.sol\":10660:10670  assetToken */\n      0x01\n      0x00\n      swap1\n      sload\n      swap1\n      0x0100\n      exp\n      swap1\n      div\n      0xffffffffffffffffffffffffffffffffffffffff\n      and\n        /* \"VendingMachine.sol\":10660:10680  assetToken.balanceOf */\n      0xffffffffffffffffffffffffffffffffffffffff\n      and\n      0x70a08231\n        /* \"VendingMachine.sol\":10689:10699  assetToken */\n      0x01\n      0x00\n      swap1\n      sload\n      swap1\n      0x0100\n      exp\n      swap1\n      div\n      0xffffffffffffffffffffffffffffffffffffffff\n      and\n        /* \"VendingMachine.sol\":10660:10701  assetToken.balanceOf(address(assetToken)) */\n      mload(0x40)\n      dup3\n      0xffffffff\n      and\n      0xe0\n      shl\n      dup2\n      mstore\n      0x04\n      add\n      tag_371\n      swap2\n      swap1\n      tag_128\n      jump\t// in\n    tag_371:\n      0x20\n      mload(0x40)\n      dup1\n      dup4\n      sub\n      dup2\n      dup7\n      gas\n      staticcall\n      iszero\n      dup1\n      iszero\n      tag_373\n      jumpi\n      returndatasize\n      0x00\n      dup1\n      returndatacopy\n      revert(0x00, returndatasize)\n    tag_373:\n      pop\n      pop\n      pop\n      pop\n      mload(0x40)\n      returndatasize\n      not(0x1f)\n      0x1f\n      dup3\n      add\n      and\n      dup3\n      add\n      dup1\n      0x40\n      mstore\n      pop\n      dup2\n      add\n      swap1\n      tag_374\n      swap2\n      swap1\n      tag_200\n      jump\t// in\n    tag_374:\n        /* \"VendingMachine.sol\":10640:10701  uint256 available = assetToken.balanceOf(address(assetToken)) */\n      swap1\n      pop\n        /* \"VendingMachine.sol\":10733:10740  _amount */\n      dup2\n        /* \"VendingMachine.sol\":10720:10729  available */\n      dup2\n        /* \"VendingMachine.sol\":10720:10740  available >= _amount */\n      lt\n      iszero\n        /* \"VendingMachine.sol\":10712:10753  require(available >= _amount, \"Sold Out\") */\n      tag_375\n      jumpi\n      mload(0x40)\n      0x08c379a000000000000000000000000000000000000000000000000000000000\n      dup2\n      mstore\n      0x04\n      add\n      tag_376\n      swap1\n      tag_377\n      jump\t// in\n    tag_376:\n      mload(0x40)\n      dup1\n      swap2\n      sub\n      swap1\n      revert\n    tag_375:\n        /* \"VendingMachine.sol\":10766:10802  _checkMaxWallet(msg.sender, _amount) */\n      tag_378\n        /* \"VendingMachine.sol\":10782:10792  msg.sender */\n      caller\n        /* \"VendingMachine.sol\":10794:10801  _amount */\n      dup4\n        /* \"VendingMachine.sol\":10766:10781  _checkMaxWallet */\n      tag_227\n        /* \"VendingMachine.sol\":10766:10802  _checkMaxWallet(msg.sender, _amount) */\n      jump\t// in\n    tag_378:\n        /* \"VendingMachine.sol\":10828:10840  uint256 cost */\n      0x00\n        /* \"VendingMachine.sol\":10868:10874  10**18 */\n      0x0de0b6b3a7640000\n        /* \"VendingMachine.sol\":10854:10864  sharePrice */\n      sload(0x0c)\n        /* \"VendingMachine.sol\":10844:10851  _amount */\n      dup5\n        /* \"VendingMachine.sol\":10844:10864  _amount * sharePrice */\n      tag_379\n      swap2\n      swap1\n      tag_238\n      jump\t// in\n    tag_379:\n        /* \"VendingMachine.sol\":10843:10874  (_amount * sharePrice) / 10**18 */\n      tag_380\n      swap2\n      swap1\n      tag_212\n      jump\t// in\n    tag_380:\n        /* \"VendingMachine.sol\":10828:10874  uint256 cost = (_amount * sharePrice) / 10**18 */\n      swap1\n      pop\n        /* \"VendingMachine.sol\":10893:10905  paymentToken */\n      0x00\n      dup1\n      sload\n      swap1\n      0x0100\n      exp\n      swap1\n      div\n      0xffffffffffffffffffffffffffffffffffffffff\n      and\n        /* \"VendingMachine.sol\":10893:10918  paymentToken.transferFrom */\n      0xffffffffffffffffffffffffffffffffffffffff\n      and\n      0x23b872dd\n        /* \"VendingMachine.sol\":10919:10929  msg.sender */\n      caller\n        /* \"VendingMachine.sol\":10939:10943  this */\n      address\n        /* \"VendingMachine.sol\":10946:10950  cost */\n      dup5\n        /* \"VendingMachine.sol\":10893:10951  paymentToken.transferFrom(msg.sender, address(this), cost) */\n      mload(0x40)\n      dup5\n      0xffffffff\n      and\n      0xe0\n      shl\n      dup2\n      mstore\n      0x04\n      add\n      tag_381\n      swap4\n      swap3\n      swap2\n      swap1\n      tag_229\n      jump\t// in\n    tag_381:\n      0x20\n      mload(0x40)\n      dup1\n      dup4\n      sub\n      dup2\n      0x00\n      dup8\n      gas\n      call\n      iszero\n      dup1\n      iszero\n      tag_383\n      jumpi\n      returndatasize\n      0x00\n      dup1\n      returndatacopy\n      revert(0x00, returndatasize)\n    tag_383:\n      pop\n      pop\n      pop\n      pop\n      mload(0x40)\n      returndatasize\n      not(0x1f)\n      0x1f\n      dup3\n      add\n      and\n      dup3\n      add\n      dup1\n      0x40\n      mstore\n      pop\n      dup2\n      add\n      swap1\n      tag_384\n      swap2\n      swap1\n      tag_233\n      jump\t// in\n    tag_384:\n        /* \"VendingMachine.sol\":10885:10972  require(paymentToken.transferFrom(msg.sender, address(this), cost), \"Gagal Bayar IDRT\") */\n      tag_385\n      jumpi\n      mload(0x40)\n      0x08c379a000000000000000000000000000000000000000000000000000000000\n      dup2\n      mstore\n      0x04\n      add\n      tag_386\n      swap1\n      tag_387\n      jump\t// in\n    tag_386:\n      mload(0x40)\n      dup1\n      swap2\n      sub\n      swap1\n      revert\n    tag_385:\n        /* \"VendingMachine.sol\":10991:11001  assetToken */\n      0x01\n      0x00\n      swap1\n      sload\n      swap1\n      0x0100\n      exp\n      swap1\n      div\n      0xffffffffffffffffffffffffffffffffffffffff\n      and\n        /* \"VendingMachine.sol\":10991:11014  assetToken.transferFrom */\n      0xffffffffffffffffffffffffffffffffffffffff\n      and\n      0x23b872dd\n        /* \"VendingMachine.sol\":11023:11033  assetToken */\n      0x01\n      0x00\n      swap1\n      sload\n      swap1\n      0x0100\n      exp\n      swap1\n      div\n      0xffffffffffffffffffffffffffffffffffffffff\n      and\n        /* \"VendingMachine.sol\":11036:11046  msg.sender */\n      caller\n        /* \"VendingMachine.sol\":11048:11055  _amount */\n      dup7\n        /* \"VendingMachine.sol\":10991:11056  assetToken.transferFrom(address(assetToken), msg.sender, _amount) */\n      mload(0x40)\n      dup5\n      0xffffffff\n      and\n      0xe0\n      shl\n      dup2\n      mstore\n      0x04\n      add\n      tag_388\n      swap4\n      swap3\n      swap2\n      swap1\n      tag_229\n      jump\t// in\n    tag_388:\n      0x20\n      mload(0x40)\n      dup1\n      dup4\n      sub\n      dup2\n      0x00\n      dup8\n      gas\n      call\n      iszero\n      dup1\n      iszero\n      tag_390\n      jumpi\n      returndatasize\n      0x00\n      dup1\n      returndatacopy\n      revert(0x00, returndatasize)\n    tag_390:\n      pop\n      pop\n      pop\n      pop\n      mload(0x40)\n      returndatasize\n      not(0x1f)\n      0x1f\n      dup3\n      add\n      and\n      dup3\n      add\n      dup1\n      0x40\n      mstore\n      pop\n      dup2\n      add\n      swap1\n      tag_391\n      swap2\n      swap1\n      tag_233\n      jump\t// in\n    tag_391:\n        /* \"VendingMachine.sol\":10983:11078  require(assetToken.transferFrom(address(assetToken), msg.sender, _amount), \"Gagal Kirim Saham\") */\n      tag_392\n      jumpi\n      mload(0x40)\n      0x08c379a000000000000000000000000000000000000000000000000000000000\n      dup2\n      mstore\n      0x04\n      add\n      tag_393\n      swap1\n      tag_394\n      jump\t// in\n    tag_393:\n      mload(0x40)\n      dup1\n      swap2\n      sub\n      swap1\n      revert\n    tag_392:\n        /* \"VendingMachine.sol\":11113:11117  cost */\n      dup1\n        /* \"VendingMachine.sol\":11099:11109  growthFund */\n      0x06\n      0x00\n        /* \"VendingMachine.sol\":11099:11117  growthFund += cost */\n      dup3\n      dup3\n      sload\n      tag_395\n      swap2\n      swap1\n      tag_205\n      jump\t// in\n    tag_395:\n      swap3\n      pop\n      pop\n      dup2\n      swap1\n      sstore\n      pop\n        /* \"VendingMachine.sol\":11208:11215  _amount */\n      dup3\n        /* \"VendingMachine.sol\":11180:11205  magnifiedDividendPerShare */\n      sload(0x09)\n        /* \"VendingMachine.sol\":11180:11215  magnifiedDividendPerShare * _amount */\n      tag_396\n      swap2\n      swap1\n      tag_238\n      jump\t// in\n    tag_396:\n        /* \"VendingMachine.sol\":11129:11157  magnifiedDividendCorrections */\n      0x0a\n        /* \"VendingMachine.sol\":11129:11169  magnifiedDividendCorrections[msg.sender] */\n      0x00\n        /* \"VendingMachine.sol\":11158:11168  msg.sender */\n      caller\n        /* \"VendingMachine.sol\":11129:11169  magnifiedDividendCorrections[msg.sender] */\n      0xffffffffffffffffffffffffffffffffffffffff\n      and\n      0xffffffffffffffffffffffffffffffffffffffff\n      and\n      dup2\n      mstore\n      0x20\n      add\n      swap1\n      dup2\n      mstore\n      0x20\n      add\n      0x00\n      keccak256\n      0x00\n        /* \"VendingMachine.sol\":11129:11216  magnifiedDividendCorrections[msg.sender] -= int256(magnifiedDividendPerShare * _amount) */\n      dup3\n      dup3\n      sload\n      tag_397\n      swap2\n      swap1\n      tag_242\n      jump\t// in\n    tag_397:\n      swap3\n      pop\n      pop\n      dup2\n      swap1\n      sstore\n      pop\n        /* \"VendingMachine.sol\":11232:11274  SharesPurchased(msg.sender, _amount, cost) */\n      0x630b54f21d1c5ae41c4633ad96e8c15ce15665365eded6a38476ffa71c8ace6c\n        /* \"VendingMachine.sol\":11248:11258  msg.sender */\n      caller\n        /* \"VendingMachine.sol\":11260:11267  _amount */\n      dup5\n        /* \"VendingMachine.sol\":11269:11273  cost */\n      dup4\n        /* \"VendingMachine.sol\":11232:11274  SharesPurchased(msg.sender, _amount, cost) */\n      mload(0x40)\n      tag_398\n      swap4\n      swap3\n      swap2\n      swap1\n      tag_399\n      jump\t// in\n    tag_398:\n      mload(0x40)\n      dup1\n      swap2\n      sub\n      swap1\n      log1\n        /* \"VendingMachine.sol\":10629:11282  {... */\n      pop\n      pop\n        /* \"VendingMachine.sol\":4123:4128  false */\n      0x00\n        /* \"VendingMachine.sol\":4114:4120  locked */\n      0x14\n      0x00\n        /* \"VendingMachine.sol\":4114:4128  locked = false */\n      0x0100\n      exp\n      dup2\n      sload\n      dup2\n      0xff\n      mul\n      not\n      and\n      swap1\n      dup4\n      iszero\n      iszero\n      mul\n      or\n      swap1\n      sstore\n      pop\n        /* \"VendingMachine.sol\":10571:11282  function buyShares(uint256 _amount) external noReentrancy {... */\n      pop\n      jump\t// out\n        /* \"VendingMachine.sol\":6790:6954  function addMachine(string memory _loc) external onlyOwner {... */\n    tag_163:\n        /* \"VendingMachine.sol\":4004:4009  owner */\n      0x02\n      0x00\n      swap1\n      sload\n      swap1\n      0x0100\n      exp\n      swap1\n      div\n      0xffffffffffffffffffffffffffffffffffffffff\n      and\n        /* \"VendingMachine.sol\":3990:4009  msg.sender == owner */\n      0xffffffffffffffffffffffffffffffffffffffff\n      and\n        /* \"VendingMachine.sol\":3990:4000  msg.sender */\n      caller\n        /* \"VendingMachine.sol\":3990:4009  msg.sender == owner */\n      0xffffffffffffffffffffffffffffffffffffffff\n      and\n      eq\n        /* \"VendingMachine.sol\":3982:4025  require(msg.sender == owner, \"Hanya Admin\") */\n      tag_401\n      jumpi\n      mload(0x40)\n      0x08c379a000000000000000000000000000000000000000000000000000000000\n      dup2\n      mstore\n      0x04\n      add\n      tag_402\n      swap1\n      tag_247\n      jump\t// in\n    tag_402:\n      mload(0x40)\n      dup1\n      swap2\n      sub\n      swap1\n      revert\n    tag_401:\n        /* \"VendingMachine.sol\":6860:6872  machineCount */\n      0x10\n      0x00\n        /* \"VendingMachine.sol\":6860:6874  machineCount++ */\n      dup2\n      sload\n      dup1\n      swap3\n      swap2\n      swap1\n      tag_404\n      swap1\n      tag_405\n      jump\t// in\n    tag_404:\n      swap2\n      swap1\n      pop\n      sstore\n      pop\n        /* \"VendingMachine.sol\":6910:6946  Machine(machineCount, _loc, true, 0) */\n      mload(0x40)\n      dup1\n      0x80\n      add\n      0x40\n      mstore\n      dup1\n        /* \"VendingMachine.sol\":6918:6930  machineCount */\n      sload(0x10)\n        /* \"VendingMachine.sol\":6910:6946  Machine(machineCount, _loc, true, 0) */\n      dup2\n      mstore\n      0x20\n      add\n        /* \"VendingMachine.sol\":6932:6936  _loc */\n      dup3\n        /* \"VendingMachine.sol\":6910:6946  Machine(machineCount, _loc, true, 0) */\n      dup2\n      mstore\n      0x20\n      add\n        /* \"VendingMachine.sol\":6938:6942  true */\n      0x01\n        /* \"VendingMachine.sol\":6910:6946  Machine(machineCount, _loc, true, 0) */\n      iszero\n      iszero\n      dup2\n      mstore\n      0x20\n      add\n        /* \"VendingMachine.sol\":6944:6945  0 */\n      0x00\n        /* \"VendingMachine.sol\":6910:6946  Machine(machineCount, _loc, true, 0) */\n      dup2\n      mstore\n      pop\n        /* \"VendingMachine.sol\":6885:6893  machines */\n      0x0f\n        /* \"VendingMachine.sol\":6885:6907  machines[machineCount] */\n      0x00\n        /* \"VendingMachine.sol\":6894:6906  machineCount */\n      sload(0x10)\n        /* \"VendingMachine.sol\":6885:6907  machines[machineCount] */\n      dup2\n      mstore\n      0x20\n      add\n      swap1\n      dup2\n      mstore\n      0x20\n      add\n      0x00\n      keccak256\n        /* \"VendingMachine.sol\":6885:6946  machines[machineCount] = Machine(machineCount, _loc, true, 0) */\n      0x00\n      dup3\n      add\n      mload\n      dup2\n      0x00\n      add\n      sstore\n      0x20\n      dup3\n      add\n      mload\n      dup2\n      0x01\n      add\n      swap1\n      dup2\n      tag_406\n      swap2\n      swap1\n      tag_407\n      jump\t// in\n    tag_406:\n      pop\n      0x40\n      dup3\n      add\n      mload\n      dup2\n      0x02\n      add\n      exp(0x0100, 0x00)\n      dup2\n      sload\n      dup2\n      0xff\n      mul\n      not\n      and\n      swap1\n      dup4\n      iszero\n      iszero\n      mul\n      or\n      swap1\n      sstore\n      pop\n      0x60\n      dup3\n      add\n      mload\n      dup2\n      0x03\n      add\n      sstore\n      swap1\n      pop\n      pop\n        /* \"VendingMachine.sol\":6790:6954  function addMachine(string memory _loc) external onlyOwner {... */\n      pop\n      jump\t// out\n        /* \"VendingMachine.sol\":3085:3113  uint256 public proposalCount */\n    tag_165:\n      sload(0x13)\n      dup2\n      jump\t// out\n        /* \"VendingMachine.sol\":1473:1526  mapping(address => uint256) public withdrawnDividends */\n    tag_169:\n      mstore(0x20, 0x0b)\n      dup1\n      0x00\n      mstore\n      keccak256(0x00, 0x40)\n      0x00\n      swap2\n      pop\n      swap1\n      pop\n      sload\n      dup2\n      jump\t// out\n        /* \"VendingMachine.sol\":7996:8157  function proposeAddVendor(address _vendor, string memory _nama) external onlyOwner {... */\n    tag_174:\n        /* \"VendingMachine.sol\":4004:4009  owner */\n      0x02\n      0x00\n      swap1\n      sload\n      swap1\n      0x0100\n      exp\n      swap1\n      div\n      0xffffffffffffffffffffffffffffffffffffffff\n      and\n        /* \"VendingMachine.sol\":3990:4009  msg.sender == owner */\n      0xffffffffffffffffffffffffffffffffffffffff\n      and\n        /* \"VendingMachine.sol\":3990:4000  msg.sender */\n      caller\n        /* \"VendingMachine.sol\":3990:4009  msg.sender == owner */\n      0xffffffffffffffffffffffffffffffffffffffff\n      and\n      eq\n        /* \"VendingMachine.sol\":3982:4025  require(msg.sender == owner, \"Hanya Admin\") */\n      tag_409\n      jumpi\n      mload(0x40)\n      0x08c379a000000000000000000000000000000000000000000000000000000000\n      dup2\n      mstore\n      0x04\n      add\n      tag_410\n      swap1\n      tag_247\n      jump\t// in\n    tag_410:\n      mload(0x40)\n      dup1\n      swap2\n      sub\n      swap1\n      revert\n    tag_409:\n        /* \"VendingMachine.sol\":8090:8149  _createProposal(ProposalType.ADD_VENDOR, _vendor, 0, _nama) */\n      tag_412\n        /* \"VendingMachine.sol\":8106:8129  ProposalType.ADD_VENDOR */\n      0x03\n        /* \"VendingMachine.sol\":8131:8138  _vendor */\n      dup4\n        /* \"VendingMachine.sol\":8140:8141  0 */\n      0x00\n        /* \"VendingMachine.sol\":8143:8148  _nama */\n      dup5\n        /* \"VendingMachine.sol\":8090:8105  _createProposal */\n      tag_268\n        /* \"VendingMachine.sol\":8090:8149  _createProposal(ProposalType.ADD_VENDOR, _vendor, 0, _nama) */\n      jump\t// in\n    tag_412:\n        /* \"VendingMachine.sol\":7996:8157  function proposeAddVendor(address _vendor, string memory _nama) external onlyOwner {... */\n      pop\n      pop\n      jump\t// out\n        /* \"VendingMachine.sol\":1832:1880  mapping(address => uint256) public staffSalaries */\n    tag_177:\n      mstore(0x20, 0x0d)\n      dup1\n      0x00\n      mstore\n      keccak256(0x00, 0x40)\n      0x00\n      swap2\n      pop\n      swap1\n      pop\n      sload\n      dup2\n      jump\t// out\n        /* \"VendingMachine.sol\":6962:7060  function setCoffeePrice(uint256 _price) external onlyOwner {... */\n    tag_181:\n        /* \"VendingMachine.sol\":4004:4009  owner */\n      0x02\n      0x00\n      swap1\n      sload\n      swap1\n      0x0100\n      exp\n      swap1\n      div\n      0xffffffffffffffffffffffffffffffffffffffff\n      and\n        /* \"VendingMachine.sol\":3990:4009  msg.sender == owner */\n      0xffffffffffffffffffffffffffffffffffffffff\n      and\n        /* \"VendingMachine.sol\":3990:4000  msg.sender */\n      caller\n        /* \"VendingMachine.sol\":3990:4009  msg.sender == owner */\n      0xffffffffffffffffffffffffffffffffffffffff\n      and\n      eq\n        /* \"VendingMachine.sol\":3982:4025  require(msg.sender == owner, \"Hanya Admin\") */\n      tag_414\n      jumpi\n      mload(0x40)\n      0x08c379a000000000000000000000000000000000000000000000000000000000\n      dup2\n      mstore\n      0x04\n      add\n      tag_415\n      swap1\n      tag_247\n      jump\t// in\n    tag_415:\n      mload(0x40)\n      dup1\n      swap2\n      sub\n      swap1\n      revert\n    tag_414:\n        /* \"VendingMachine.sol\":7046:7052  _price */\n      dup1\n        /* \"VendingMachine.sol\":7032:7043  coffeePrice */\n      0x03\n        /* \"VendingMachine.sol\":7032:7052  coffeePrice = _price */\n      dup2\n      swap1\n      sstore\n      pop\n        /* \"VendingMachine.sol\":6962:7060  function setCoffeePrice(uint256 _price) external onlyOwner {... */\n      pop\n      jump\t// out\n        /* \"VendingMachine.sol\":8954:10026  function _executeLogic(Proposal storage p) internal {... */\n    tag_215:\n        /* \"VendingMachine.sol\":9030:9034  true */\n      0x01\n        /* \"VendingMachine.sol\":9017:9018  p */\n      dup2\n        /* \"VendingMachine.sol\":9017:9027  p.executed */\n      0x05\n      add\n      0x00\n        /* \"VendingMachine.sol\":9017:9034  p.executed = true */\n      0x0100\n      exp\n      dup2\n      sload\n      dup2\n      0xff\n      mul\n      not\n      and\n      swap1\n      dup4\n      iszero\n      iszero\n      mul\n      or\n      swap1\n      sstore\n      pop\n        /* \"VendingMachine.sol\":9062:9086  ProposalType.BUY_MACHINE */\n      0x00\n        /* \"VendingMachine.sol\":9051:9086  p.pType == ProposalType.BUY_MACHINE */\n      0x03\n      dup2\n      gt\n      iszero\n      tag_418\n      jumpi\n      tag_419\n      tag_420\n      jump\t// in\n    tag_419:\n    tag_418:\n        /* \"VendingMachine.sol\":9051:9052  p */\n      dup2\n        /* \"VendingMachine.sol\":9051:9058  p.pType */\n      0x01\n      add\n      0x00\n      swap1\n      sload\n      swap1\n      0x0100\n      exp\n      swap1\n      div\n      0xff\n      and\n        /* \"VendingMachine.sol\":9051:9086  p.pType == ProposalType.BUY_MACHINE */\n      0x03\n      dup2\n      gt\n      iszero\n      tag_421\n      jumpi\n      tag_422\n      tag_420\n      jump\t// in\n    tag_422:\n    tag_421:\n      sub\n        /* \"VendingMachine.sol\":9047:9975  if (p.pType == ProposalType.BUY_MACHINE) {... */\n      tag_423\n      jumpi\n        /* \"VendingMachine.sol\":9111:9124  isWhitelisted */\n      0x11\n        /* \"VendingMachine.sol\":9111:9134  isWhitelisted[p.target] */\n      0x00\n        /* \"VendingMachine.sol\":9125:9126  p */\n      dup3\n        /* \"VendingMachine.sol\":9125:9133  p.target */\n      0x01\n      add\n      0x01\n      swap1\n      sload\n      swap1\n      0x0100\n      exp\n      swap1\n      div\n      0xffffffffffffffffffffffffffffffffffffffff\n      and\n        /* \"VendingMachine.sol\":9111:9134  isWhitelisted[p.target] */\n      0xffffffffffffffffffffffffffffffffffffffff\n      and\n      0xffffffffffffffffffffffffffffffffffffffff\n      and\n      dup2\n      mstore\n      0x20\n      add\n      swap1\n      dup2\n      mstore\n      0x20\n      add\n      0x00\n      keccak256\n      0x00\n      swap1\n      sload\n      swap1\n      0x0100\n      exp\n      swap1\n      div\n      0xff\n      and\n        /* \"VendingMachine.sol\":9103:9152  require(isWhitelisted[p.target], \"Vendor Ilegal\") */\n      tag_424\n      jumpi\n      mload(0x40)\n      0x08c379a000000000000000000000000000000000000000000000000000000000\n      dup2\n      mstore\n      0x04\n      add\n      tag_425\n      swap1\n      tag_426\n      jump\t// in\n    tag_425:\n      mload(0x40)\n      dup1\n      swap2\n      sub\n      swap1\n      revert\n    tag_424:\n        /* \"VendingMachine.sol\":9189:9190  p */\n      dup1\n        /* \"VendingMachine.sol\":9189:9197  p.amount */\n      0x02\n      add\n      sload\n        /* \"VendingMachine.sol\":9175:9185  growthFund */\n      sload(0x06)\n        /* \"VendingMachine.sol\":9175:9197  growthFund >= p.amount */\n      lt\n      iszero\n        /* \"VendingMachine.sol\":9167:9220  require(growthFund >= p.amount, \"Dana Growth Kurang\") */\n      tag_427\n      jumpi\n      mload(0x40)\n      0x08c379a000000000000000000000000000000000000000000000000000000000\n      dup2\n      mstore\n      0x04\n      add\n      tag_428\n      swap1\n      tag_429\n      jump\t// in\n    tag_428:\n      mload(0x40)\n      dup1\n      swap2\n      sub\n      swap1\n      revert\n    tag_427:\n        /* \"VendingMachine.sol\":9249:9250  p */\n      dup1\n        /* \"VendingMachine.sol\":9249:9257  p.amount */\n      0x02\n      add\n      sload\n        /* \"VendingMachine.sol\":9235:9245  growthFund */\n      0x06\n      0x00\n        /* \"VendingMachine.sol\":9235:9257  growthFund -= p.amount */\n      dup3\n      dup3\n      sload\n      tag_430\n      swap2\n      swap1\n      tag_309\n      jump\t// in\n    tag_430:\n      swap3\n      pop\n      pop\n      dup2\n      swap1\n      sstore\n      pop\n        /* \"VendingMachine.sol\":9272:9284  paymentToken */\n      0x00\n      dup1\n      sload\n      swap1\n      0x0100\n      exp\n      swap1\n      div\n      0xffffffffffffffffffffffffffffffffffffffff\n      and\n        /* \"VendingMachine.sol\":9272:9293  paymentToken.transfer */\n      0xffffffffffffffffffffffffffffffffffffffff\n      and\n      0xa9059cbb\n        /* \"VendingMachine.sol\":9294:9295  p */\n      dup3\n        /* \"VendingMachine.sol\":9294:9302  p.target */\n      0x01\n      add\n      0x01\n      swap1\n      sload\n      swap1\n      0x0100\n      exp\n      swap1\n      div\n      0xffffffffffffffffffffffffffffffffffffffff\n      and\n        /* \"VendingMachine.sol\":9304:9305  p */\n      dup4\n        /* \"VendingMachine.sol\":9304:9312  p.amount */\n      0x02\n      add\n      sload\n        /* \"VendingMachine.sol\":9272:9313  paymentToken.transfer(p.target, p.amount) */\n      mload(0x40)\n      dup4\n      0xffffffff\n      and\n      0xe0\n      shl\n      dup2\n      mstore\n      0x04\n      add\n      tag_431\n      swap3\n      swap2\n      swap1\n      tag_290\n      jump\t// in\n    tag_431:\n      0x20\n      mload(0x40)\n      dup1\n      dup4\n      sub\n      dup2\n      0x00\n      dup8\n      gas\n      call\n      iszero\n      dup1\n      iszero\n      tag_433\n      jumpi\n      returndatasize\n      0x00\n      dup1\n      returndatacopy\n      revert(0x00, returndatasize)\n    tag_433:\n      pop\n      pop\n      pop\n      pop\n      mload(0x40)\n      returndatasize\n      not(0x1f)\n      0x1f\n      dup3\n      add\n      and\n      dup3\n      add\n      dup1\n      0x40\n      mstore\n      pop\n      dup2\n      add\n      swap1\n      tag_434\n      swap2\n      swap1\n      tag_233\n      jump\t// in\n    tag_434:\n      pop\n        /* \"VendingMachine.sol\":9333:9393  ExpensePaid(\"BELI MESIN\", p.target, p.amount, p.description) */\n      0xfea36c567a41c73fb142ae411f08565859d2842b21caf06283e31ef06079b36a\n        /* \"VendingMachine.sol\":9359:9360  p */\n      dup2\n        /* \"VendingMachine.sol\":9359:9367  p.target */\n      0x01\n      add\n      0x01\n      swap1\n      sload\n      swap1\n      0x0100\n      exp\n      swap1\n      div\n      0xffffffffffffffffffffffffffffffffffffffff\n      and\n        /* \"VendingMachine.sol\":9369:9370  p */\n      dup3\n        /* \"VendingMachine.sol\":9369:9377  p.amount */\n      0x02\n      add\n      sload\n        /* \"VendingMachine.sol\":9379:9380  p */\n      dup4\n        /* \"VendingMachine.sol\":9379:9392  p.description */\n      0x03\n      add\n        /* \"VendingMachine.sol\":9333:9393  ExpensePaid(\"BELI MESIN\", p.target, p.amount, p.description) */\n      mload(0x40)\n      tag_435\n      swap4\n      swap3\n      swap2\n      swap1\n      tag_436\n      jump\t// in\n    tag_435:\n      mload(0x40)\n      dup1\n      swap2\n      sub\n      swap1\n      log1\n        /* \"VendingMachine.sol\":9047:9975  if (p.pType == ProposalType.BUY_MACHINE) {... */\n      jump(tag_437)\n    tag_423:\n        /* \"VendingMachine.sol\":9428:9450  ProposalType.BUY_STOCK */\n      0x01\n        /* \"VendingMachine.sol\":9417:9450  p.pType == ProposalType.BUY_STOCK */\n      0x03\n      dup2\n      gt\n      iszero\n      tag_438\n      jumpi\n      tag_439\n      tag_420\n      jump\t// in\n    tag_439:\n    tag_438:\n        /* \"VendingMachine.sol\":9417:9418  p */\n      dup2\n        /* \"VendingMachine.sol\":9417:9424  p.pType */\n      0x01\n      add\n      0x00\n      swap1\n      sload\n      swap1\n      0x0100\n      exp\n      swap1\n      div\n      0xff\n      and\n        /* \"VendingMachine.sol\":9417:9450  p.pType == ProposalType.BUY_STOCK */\n      0x03\n      dup2\n      gt\n      iszero\n      tag_440\n      jumpi\n      tag_441\n      tag_420\n      jump\t// in\n    tag_441:\n    tag_440:\n      sub\n        /* \"VendingMachine.sol\":9413:9975  if (p.pType == ProposalType.BUY_STOCK) {... */\n      tag_442\n      jumpi\n        /* \"VendingMachine.sol\":9475:9488  isWhitelisted */\n      0x11\n        /* \"VendingMachine.sol\":9475:9498  isWhitelisted[p.target] */\n      0x00\n        /* \"VendingMachine.sol\":9489:9490  p */\n      dup3\n        /* \"VendingMachine.sol\":9489:9497  p.target */\n      0x01\n      add\n      0x01\n      swap1\n      sload\n      swap1\n      0x0100\n      exp\n      swap1\n      div\n      0xffffffffffffffffffffffffffffffffffffffff\n      and\n        /* \"VendingMachine.sol\":9475:9498  isWhitelisted[p.target] */\n      0xffffffffffffffffffffffffffffffffffffffff\n      and\n      0xffffffffffffffffffffffffffffffffffffffff\n      and\n      dup2\n      mstore\n      0x20\n      add\n      swap1\n      dup2\n      mstore\n      0x20\n      add\n      0x00\n      keccak256\n      0x00\n      swap1\n      sload\n      swap1\n      0x0100\n      exp\n      swap1\n      div\n      0xff\n      and\n        /* \"VendingMachine.sol\":9467:9516  require(isWhitelisted[p.target], \"Vendor Ilegal\") */\n      tag_443\n      jumpi\n      mload(0x40)\n      0x08c379a000000000000000000000000000000000000000000000000000000000\n      dup2\n      mstore\n      0x04\n      add\n      tag_444\n      swap1\n      tag_426\n      jump\t// in\n    tag_444:\n      mload(0x40)\n      dup1\n      swap2\n      sub\n      swap1\n      revert\n    tag_443:\n        /* \"VendingMachine.sol\":9531:9571  _processPaymentSmart(p.target, p.amount) */\n      tag_445\n        /* \"VendingMachine.sol\":9552:9553  p */\n      dup2\n        /* \"VendingMachine.sol\":9552:9560  p.target */\n      0x01\n      add\n      0x01\n      swap1\n      sload\n      swap1\n      0x0100\n      exp\n      swap1\n      div\n      0xffffffffffffffffffffffffffffffffffffffff\n      and\n        /* \"VendingMachine.sol\":9562:9563  p */\n      dup3\n        /* \"VendingMachine.sol\":9562:9570  p.amount */\n      0x02\n      add\n      sload\n        /* \"VendingMachine.sol\":9531:9551  _processPaymentSmart */\n      tag_260\n        /* \"VendingMachine.sol\":9531:9571  _processPaymentSmart(p.target, p.amount) */\n      jump\t// in\n    tag_445:\n        /* \"VendingMachine.sol\":9592:9652  ExpensePaid(\"BELI BAHAN\", p.target, p.amount, p.description) */\n      0xfea36c567a41c73fb142ae411f08565859d2842b21caf06283e31ef06079b36a\n        /* \"VendingMachine.sol\":9618:9619  p */\n      dup2\n        /* \"VendingMachine.sol\":9618:9626  p.target */\n      0x01\n      add\n      0x01\n      swap1\n      sload\n      swap1\n      0x0100\n      exp\n      swap1\n      div\n      0xffffffffffffffffffffffffffffffffffffffff\n      and\n        /* \"VendingMachine.sol\":9628:9629  p */\n      dup3\n        /* \"VendingMachine.sol\":9628:9636  p.amount */\n      0x02\n      add\n      sload\n        /* \"VendingMachine.sol\":9638:9639  p */\n      dup4\n        /* \"VendingMachine.sol\":9638:9651  p.description */\n      0x03\n      add\n        /* \"VendingMachine.sol\":9592:9652  ExpensePaid(\"BELI BAHAN\", p.target, p.amount, p.description) */\n      mload(0x40)\n      tag_446\n      swap4\n      swap3\n      swap2\n      swap1\n      tag_447\n      jump\t// in\n    tag_446:\n      mload(0x40)\n      dup1\n      swap2\n      sub\n      swap1\n      log1\n        /* \"VendingMachine.sol\":9413:9975  if (p.pType == ProposalType.BUY_STOCK) {... */\n      jump(tag_448)\n    tag_442:\n        /* \"VendingMachine.sol\":9687:9713  ProposalType.UPDATE_SALARY */\n      0x02\n        /* \"VendingMachine.sol\":9676:9713  p.pType == ProposalType.UPDATE_SALARY */\n      0x03\n      dup2\n      gt\n      iszero\n      tag_449\n      jumpi\n      tag_450\n      tag_420\n      jump\t// in\n    tag_450:\n    tag_449:\n        /* \"VendingMachine.sol\":9676:9677  p */\n      dup2\n        /* \"VendingMachine.sol\":9676:9683  p.pType */\n      0x01\n      add\n      0x00\n      swap1\n      sload\n      swap1\n      0x0100\n      exp\n      swap1\n      div\n      0xff\n      and\n        /* \"VendingMachine.sol\":9676:9713  p.pType == ProposalType.UPDATE_SALARY */\n      0x03\n      dup2\n      gt\n      iszero\n      tag_451\n      jumpi\n      tag_452\n      tag_420\n      jump\t// in\n    tag_452:\n    tag_451:\n      sub\n        /* \"VendingMachine.sol\":9672:9975  if (p.pType == ProposalType.UPDATE_SALARY) {... */\n      tag_453\n      jumpi\n        /* \"VendingMachine.sol\":9756:9757  p */\n      dup1\n        /* \"VendingMachine.sol\":9756:9764  p.amount */\n      0x02\n      add\n      sload\n        /* \"VendingMachine.sol\":9730:9743  staffSalaries */\n      0x0d\n        /* \"VendingMachine.sol\":9730:9753  staffSalaries[p.target] */\n      0x00\n        /* \"VendingMachine.sol\":9744:9745  p */\n      dup4\n        /* \"VendingMachine.sol\":9744:9752  p.target */\n      0x01\n      add\n      0x01\n      swap1\n      sload\n      swap1\n      0x0100\n      exp\n      swap1\n      div\n      0xffffffffffffffffffffffffffffffffffffffff\n      and\n        /* \"VendingMachine.sol\":9730:9753  staffSalaries[p.target] */\n      0xffffffffffffffffffffffffffffffffffffffff\n      and\n      0xffffffffffffffffffffffffffffffffffffffff\n      and\n      dup2\n      mstore\n      0x20\n      add\n      swap1\n      dup2\n      mstore\n      0x20\n      add\n      0x00\n      keccak256\n        /* \"VendingMachine.sol\":9730:9764  staffSalaries[p.target] = p.amount */\n      dup2\n      swap1\n      sstore\n      pop\n        /* \"VendingMachine.sol\":9803:9816  isWhitelisted */\n      0x11\n        /* \"VendingMachine.sol\":9803:9826  isWhitelisted[p.target] */\n      0x00\n        /* \"VendingMachine.sol\":9817:9818  p */\n      dup3\n        /* \"VendingMachine.sol\":9817:9825  p.target */\n      0x01\n      add\n      0x01\n      swap1\n      sload\n      swap1\n      0x0100\n      exp\n      swap1\n      div\n      0xffffffffffffffffffffffffffffffffffffffff\n      and\n        /* \"VendingMachine.sol\":9803:9826  isWhitelisted[p.target] */\n      0xffffffffffffffffffffffffffffffffffffffff\n      and\n      0xffffffffffffffffffffffffffffffffffffffff\n      and\n      dup2\n      mstore\n      0x20\n      add\n      swap1\n      dup2\n      mstore\n      0x20\n      add\n      0x00\n      keccak256\n      0x00\n      swap1\n      sload\n      swap1\n      0x0100\n      exp\n      swap1\n      div\n      0xff\n      and\n        /* \"VendingMachine.sol\":9798:9858  if (!isWhitelisted[p.target]) isWhitelisted[p.target] = true */\n      tag_454\n      jumpi\n        /* \"VendingMachine.sol\":9854:9858  true */\n      0x01\n        /* \"VendingMachine.sol\":9828:9841  isWhitelisted */\n      0x11\n        /* \"VendingMachine.sol\":9828:9851  isWhitelisted[p.target] */\n      0x00\n        /* \"VendingMachine.sol\":9842:9843  p */\n      dup4\n        /* \"VendingMachine.sol\":9842:9850  p.target */\n      0x01\n      add\n      0x01\n      swap1\n      sload\n      swap1\n      0x0100\n      exp\n      swap1\n      div\n      0xffffffffffffffffffffffffffffffffffffffff\n      and\n        /* \"VendingMachine.sol\":9828:9851  isWhitelisted[p.target] */\n      0xffffffffffffffffffffffffffffffffffffffff\n      and\n      0xffffffffffffffffffffffffffffffffffffffff\n      and\n      dup2\n      mstore\n      0x20\n      add\n      swap1\n      dup2\n      mstore\n      0x20\n      add\n      0x00\n      keccak256\n      0x00\n        /* \"VendingMachine.sol\":9828:9858  isWhitelisted[p.target] = true */\n      0x0100\n      exp\n      dup2\n      sload\n      dup2\n      0xff\n      mul\n      not\n      and\n      swap1\n      dup4\n      iszero\n      iszero\n      mul\n      or\n      swap1\n      sstore\n      pop\n        /* \"VendingMachine.sol\":9798:9858  if (!isWhitelisted[p.target]) isWhitelisted[p.target] = true */\n    tag_454:\n        /* \"VendingMachine.sol\":9672:9975  if (p.pType == ProposalType.UPDATE_SALARY) {... */\n      jump(tag_455)\n    tag_453:\n        /* \"VendingMachine.sol\":9893:9916  ProposalType.ADD_VENDOR */\n      0x03\n        /* \"VendingMachine.sol\":9882:9916  p.pType == ProposalType.ADD_VENDOR */\n      dup1\n      dup2\n      gt\n      iszero\n      tag_456\n      jumpi\n      tag_457\n      tag_420\n      jump\t// in\n    tag_457:\n    tag_456:\n        /* \"VendingMachine.sol\":9882:9883  p */\n      dup2\n        /* \"VendingMachine.sol\":9882:9889  p.pType */\n      0x01\n      add\n      0x00\n      swap1\n      sload\n      swap1\n      0x0100\n      exp\n      swap1\n      div\n      0xff\n      and\n        /* \"VendingMachine.sol\":9882:9916  p.pType == ProposalType.ADD_VENDOR */\n      0x03\n      dup2\n      gt\n      iszero\n      tag_458\n      jumpi\n      tag_459\n      tag_420\n      jump\t// in\n    tag_459:\n    tag_458:\n      sub\n        /* \"VendingMachine.sol\":9878:9975  if (p.pType == ProposalType.ADD_VENDOR) {... */\n      tag_460\n      jumpi\n        /* \"VendingMachine.sol\":9959:9963  true */\n      0x01\n        /* \"VendingMachine.sol\":9933:9946  isWhitelisted */\n      0x11\n        /* \"VendingMachine.sol\":9933:9956  isWhitelisted[p.target] */\n      0x00\n        /* \"VendingMachine.sol\":9947:9948  p */\n      dup4\n        /* \"VendingMachine.sol\":9947:9955  p.target */\n      0x01\n      add\n      0x01\n      swap1\n      sload\n      swap1\n      0x0100\n      exp\n      swap1\n      div\n      0xffffffffffffffffffffffffffffffffffffffff\n      and\n        /* \"VendingMachine.sol\":9933:9956  isWhitelisted[p.target] */\n      0xffffffffffffffffffffffffffffffffffffffff\n      and\n      0xffffffffffffffffffffffffffffffffffffffff\n      and\n      dup2\n      mstore\n      0x20\n      add\n      swap1\n      dup2\n      mstore\n      0x20\n      add\n      0x00\n      keccak256\n      0x00\n        /* \"VendingMachine.sol\":9933:9963  isWhitelisted[p.target] = true */\n      0x0100\n      exp\n      dup2\n      sload\n      dup2\n      0xff\n      mul\n      not\n      and\n      swap1\n      dup4\n      iszero\n      iszero\n      mul\n      or\n      swap1\n      sstore\n      pop\n        /* \"VendingMachine.sol\":9878:9975  if (p.pType == ProposalType.ADD_VENDOR) {... */\n    tag_460:\n        /* \"VendingMachine.sol\":9672:9975  if (p.pType == ProposalType.UPDATE_SALARY) {... */\n    tag_455:\n        /* \"VendingMachine.sol\":9413:9975  if (p.pType == ProposalType.BUY_STOCK) {... */\n    tag_448:\n        /* \"VendingMachine.sol\":9047:9975  if (p.pType == ProposalType.BUY_MACHINE) {... */\n    tag_437:\n        /* \"VendingMachine.sol\":9990:10018  ProposalExecuted(p.id, true) */\n      0x948f4a9cd986f1118c3fbd459f7a22b23c0693e1ca3ef06a6a8be5aa7d39cc03\n        /* \"VendingMachine.sol\":10007:10008  p */\n      dup2\n        /* \"VendingMachine.sol\":10007:10011  p.id */\n      0x00\n      add\n      sload\n        /* \"VendingMachine.sol\":10013:10017  true */\n      0x01\n        /* \"VendingMachine.sol\":9990:10018  ProposalExecuted(p.id, true) */\n      mload(0x40)\n      tag_461\n      swap3\n      swap2\n      swap1\n      tag_462\n      jump\t// in\n    tag_461:\n      mload(0x40)\n      dup1\n      swap2\n      sub\n      swap1\n      log1\n        /* \"VendingMachine.sol\":8954:10026  function _executeLogic(Proposal storage p) internal {... */\n      pop\n      jump\t// out\n        /* \"VendingMachine.sol\":10212:10563  function _checkMaxWallet(address _user, uint256 _amountToAdd) internal view {... */\n    tag_227:\n        /* \"VendingMachine.sol\":10299:10318  uint256 totalSupply */\n      0x00\n        /* \"VendingMachine.sol\":10321:10331  assetToken */\n      0x01\n      0x00\n      swap1\n      sload\n      swap1\n      0x0100\n      exp\n      swap1\n      div\n      0xffffffffffffffffffffffffffffffffffffffff\n      and\n        /* \"VendingMachine.sol\":10321:10343  assetToken.totalSupply */\n      0xffffffffffffffffffffffffffffffffffffffff\n      and\n      0x18160ddd\n        /* \"VendingMachine.sol\":10321:10345  assetToken.totalSupply() */\n      mload(0x40)\n      dup2\n      0xffffffff\n      and\n      0xe0\n      shl\n      dup2\n      mstore\n      0x04\n      add\n      0x20\n      mload(0x40)\n      dup1\n      dup4\n      sub\n      dup2\n      dup7\n      gas\n      staticcall\n      iszero\n      dup1\n      iszero\n      tag_465\n      jumpi\n      returndatasize\n      0x00\n      dup1\n      returndatacopy\n      revert(0x00, returndatasize)\n    tag_465:\n      pop\n      pop\n      pop\n      pop\n      mload(0x40)\n      returndatasize\n      not(0x1f)\n      0x1f\n      dup3\n      add\n      and\n      dup3\n      add\n      dup1\n      0x40\n      mstore\n      pop\n      dup2\n      add\n      swap1\n      tag_466\n      swap2\n      swap1\n      tag_200\n      jump\t// in\n    tag_466:\n        /* \"VendingMachine.sol\":10299:10345  uint256 totalSupply = assetToken.totalSupply() */\n      swap1\n      pop\n        /* \"VendingMachine.sol\":10356:10372  uint256 maxLimit */\n      0x00\n        /* \"VendingMachine.sol\":10412:10415  100 */\n      0x64\n        /* \"VendingMachine.sol\":1317:1319  40 */\n      0x28\n        /* \"VendingMachine.sol\":10376:10387  totalSupply */\n      dup4\n        /* \"VendingMachine.sol\":10376:10408  totalSupply * MAX_WALLET_PERCENT */\n      tag_467\n      swap2\n      swap1\n      tag_238\n      jump\t// in\n    tag_467:\n        /* \"VendingMachine.sol\":10375:10415  (totalSupply * MAX_WALLET_PERCENT) / 100 */\n      tag_468\n      swap2\n      swap1\n      tag_212\n      jump\t// in\n    tag_468:\n        /* \"VendingMachine.sol\":10356:10415  uint256 maxLimit = (totalSupply * MAX_WALLET_PERCENT) / 100 */\n      swap1\n      pop\n        /* \"VendingMachine.sol\":10426:10444  uint256 currentBal */\n      0x00\n        /* \"VendingMachine.sol\":10447:10457  assetToken */\n      0x01\n      0x00\n      swap1\n      sload\n      swap1\n      0x0100\n      exp\n      swap1\n      div\n      0xffffffffffffffffffffffffffffffffffffffff\n      and\n        /* \"VendingMachine.sol\":10447:10467  assetToken.balanceOf */\n      0xffffffffffffffffffffffffffffffffffffffff\n      and\n      0x70a08231\n        /* \"VendingMachine.sol\":10468:10473  _user */\n      dup7\n        /* \"VendingMachine.sol\":10447:10474  assetToken.balanceOf(_user) */\n      mload(0x40)\n      dup3\n      0xffffffff\n      and\n      0xe0\n      shl\n      dup2\n      mstore\n      0x04\n      add\n      tag_469\n      swap2\n      swap1\n      tag_128\n      jump\t// in\n    tag_469:\n      0x20\n      mload(0x40)\n      dup1\n      dup4\n      sub\n      dup2\n      dup7\n      gas\n      staticcall\n      iszero\n      dup1\n      iszero\n      tag_471\n      jumpi\n      returndatasize\n      0x00\n      dup1\n      returndatacopy\n      revert(0x00, returndatasize)\n    tag_471:\n      pop\n      pop\n      pop\n      pop\n      mload(0x40)\n      returndatasize\n      not(0x1f)\n      0x1f\n      dup3\n      add\n      and\n      dup3\n      add\n      dup1\n      0x40\n      mstore\n      pop\n      dup2\n      add\n      swap1\n      tag_472\n      swap2\n      swap1\n      tag_200\n      jump\t// in\n    tag_472:\n        /* \"VendingMachine.sol\":10426:10474  uint256 currentBal = assetToken.balanceOf(_user) */\n      swap1\n      pop\n        /* \"VendingMachine.sol\":10522:10530  maxLimit */\n      dup2\n        /* \"VendingMachine.sol\":10506:10518  _amountToAdd */\n      dup5\n        /* \"VendingMachine.sol\":10493:10503  currentBal */\n      dup3\n        /* \"VendingMachine.sol\":10493:10518  currentBal + _amountToAdd */\n      tag_473\n      swap2\n      swap1\n      tag_205\n      jump\t// in\n    tag_473:\n        /* \"VendingMachine.sol\":10493:10530  currentBal + _amountToAdd <= maxLimit */\n      gt\n      iszero\n        /* \"VendingMachine.sol\":10485:10555  require(currentBal + _amountToAdd <= maxLimit, \"Max Wallet Limit 40%\") */\n      tag_474\n      jumpi\n      mload(0x40)\n      0x08c379a000000000000000000000000000000000000000000000000000000000\n      dup2\n      mstore\n      0x04\n      add\n      tag_475\n      swap1\n      tag_476\n      jump\t// in\n    tag_475:\n      mload(0x40)\n      dup1\n      swap2\n      sub\n      swap1\n      revert\n    tag_474:\n        /* \"VendingMachine.sol\":10288:10563  {... */\n      pop\n      pop\n      pop\n        /* \"VendingMachine.sol\":10212:10563  function _checkMaxWallet(address _user, uint256 _amountToAdd) internal view {... */\n      pop\n      pop\n      jump\t// out\n        /* \"VendingMachine.sol\":13064:13873  function _processPaymentSmart(address _target, uint256 _amount) internal {... */\n    tag_260:\n        /* \"VendingMachine.sol\":13148:13171  uint256 contractBalance */\n      0x00\n        /* \"VendingMachine.sol\":13174:13186  paymentToken */\n      dup1\n      0x00\n      swap1\n      sload\n      swap1\n      0x0100\n      exp\n      swap1\n      div\n      0xffffffffffffffffffffffffffffffffffffffff\n      and\n        /* \"VendingMachine.sol\":13174:13196  paymentToken.balanceOf */\n      0xffffffffffffffffffffffffffffffffffffffff\n      and\n      0x70a08231\n        /* \"VendingMachine.sol\":13205:13209  this */\n      address\n        /* \"VendingMachine.sol\":13174:13211  paymentToken.balanceOf(address(this)) */\n      mload(0x40)\n      dup3\n      0xffffffff\n      and\n      0xe0\n      shl\n      dup2\n      mstore\n      0x04\n      add\n      tag_478\n      swap2\n      swap1\n      tag_128\n      jump\t// in\n    tag_478:\n      0x20\n      mload(0x40)\n      dup1\n      dup4\n      sub\n      dup2\n      dup7\n      gas\n      staticcall\n      iszero\n      dup1\n      iszero\n      tag_480\n      jumpi\n      returndatasize\n      0x00\n      dup1\n      returndatacopy\n      revert(0x00, returndatasize)\n    tag_480:\n      pop\n      pop\n      pop\n      pop\n      mload(0x40)\n      returndatasize\n      not(0x1f)\n      0x1f\n      dup3\n      add\n      and\n      dup3\n      add\n      dup1\n      0x40\n      mstore\n      pop\n      dup2\n      add\n      swap1\n      tag_481\n      swap2\n      swap1\n      tag_200\n      jump\t// in\n    tag_481:\n        /* \"VendingMachine.sol\":13148:13211  uint256 contractBalance = paymentToken.balanceOf(address(this)) */\n      swap1\n      pop\n        /* \"VendingMachine.sol\":13249:13256  _amount */\n      dup2\n        /* \"VendingMachine.sol\":13230:13245  contractBalance */\n      dup2\n        /* \"VendingMachine.sol\":13230:13256  contractBalance >= _amount */\n      lt\n      iszero\n        /* \"VendingMachine.sol\":13222:13271  require(contractBalance >= _amount, \"Kas Kosong\") */\n      tag_482\n      jumpi\n      mload(0x40)\n      0x08c379a000000000000000000000000000000000000000000000000000000000\n      dup2\n      mstore\n      0x04\n      add\n      tag_483\n      swap1\n      tag_484\n      jump\t// in\n    tag_483:\n      mload(0x40)\n      dup1\n      swap2\n      sub\n      swap1\n      revert\n    tag_482:\n        /* \"VendingMachine.sol\":13284:13310  uint256 unclaimedDividends */\n      0x00\n        /* \"VendingMachine.sol\":13341:13362  totalDividendsClaimed */\n      sload(0x08)\n        /* \"VendingMachine.sol\":13313:13338  totalDividendsDistributed */\n      sload(0x07)\n        /* \"VendingMachine.sol\":13313:13362  totalDividendsDistributed - totalDividendsClaimed */\n      tag_485\n      swap2\n      swap1\n      tag_309\n      jump\t// in\n    tag_485:\n        /* \"VendingMachine.sol\":13284:13362  uint256 unclaimedDividends = totalDividendsDistributed - totalDividendsClaimed */\n      swap1\n      pop\n        /* \"VendingMachine.sol\":13373:13392  uint256 lockedFunds */\n      0x00\n        /* \"VendingMachine.sol\":13408:13426  unclaimedDividends */\n      dup2\n        /* \"VendingMachine.sol\":13395:13405  growthFund */\n      sload(0x06)\n        /* \"VendingMachine.sol\":13395:13426  growthFund + unclaimedDividends */\n      tag_486\n      swap2\n      swap1\n      tag_205\n      jump\t// in\n    tag_486:\n        /* \"VendingMachine.sol\":13373:13426  uint256 lockedFunds = growthFund + unclaimedDividends */\n      swap1\n      pop\n        /* \"VendingMachine.sol\":13447:13470  uint256 operationalCash */\n      0x00\n        /* \"VendingMachine.sol\":13507:13518  lockedFunds */\n      dup2\n        /* \"VendingMachine.sol\":13489:13504  contractBalance */\n      dup5\n        /* \"VendingMachine.sol\":13489:13518  contractBalance > lockedFunds */\n      gt\n        /* \"VendingMachine.sol\":13485:13594  if (contractBalance > lockedFunds) {... */\n      iszero\n      tag_487\n      jumpi\n        /* \"VendingMachine.sol\":13571:13582  lockedFunds */\n      dup2\n        /* \"VendingMachine.sol\":13553:13568  contractBalance */\n      dup5\n        /* \"VendingMachine.sol\":13553:13582  contractBalance - lockedFunds */\n      tag_488\n      swap2\n      swap1\n      tag_309\n      jump\t// in\n    tag_488:\n        /* \"VendingMachine.sol\":13535:13582  operationalCash = contractBalance - lockedFunds */\n      swap1\n      pop\n        /* \"VendingMachine.sol\":13485:13594  if (contractBalance > lockedFunds) {... */\n    tag_487:\n        /* \"VendingMachine.sol\":13628:13635  _amount */\n      dup5\n        /* \"VendingMachine.sol\":13610:13625  operationalCash */\n      dup2\n        /* \"VendingMachine.sol\":13610:13635  operationalCash < _amount */\n      lt\n        /* \"VendingMachine.sol\":13606:13816  if (operationalCash < _amount) {... */\n      iszero\n      tag_489\n      jumpi\n        /* \"VendingMachine.sol\":13652:13667  uint256 deficit */\n      0x00\n        /* \"VendingMachine.sol\":13680:13695  operationalCash */\n      dup2\n        /* \"VendingMachine.sol\":13670:13677  _amount */\n      dup7\n        /* \"VendingMachine.sol\":13670:13695  _amount - operationalCash */\n      tag_490\n      swap2\n      swap1\n      tag_309\n      jump\t// in\n    tag_490:\n        /* \"VendingMachine.sol\":13652:13695  uint256 deficit = _amount - operationalCash */\n      swap1\n      pop\n        /* \"VendingMachine.sol\":13732:13739  deficit */\n      dup1\n        /* \"VendingMachine.sol\":13718:13728  growthFund */\n      sload(0x06)\n        /* \"VendingMachine.sol\":13718:13739  growthFund >= deficit */\n      lt\n      iszero\n        /* \"VendingMachine.sol\":13710:13768  require(growthFund >= deficit, \"Modal Growth Fund Habis!\") */\n      tag_491\n      jumpi\n      mload(0x40)\n      0x08c379a000000000000000000000000000000000000000000000000000000000\n      dup2\n      mstore\n      0x04\n      add\n      tag_492\n      swap1\n      tag_493\n      jump\t// in\n    tag_492:\n      mload(0x40)\n      dup1\n      swap2\n      sub\n      swap1\n      revert\n    tag_491:\n        /* \"VendingMachine.sol\":13797:13804  deficit */\n      dup1\n        /* \"VendingMachine.sol\":13783:13793  growthFund */\n      0x06\n      0x00\n        /* \"VendingMachine.sol\":13783:13804  growthFund -= deficit */\n      dup3\n      dup3\n      sload\n      tag_494\n      swap2\n      swap1\n      tag_309\n      jump\t// in\n    tag_494:\n      swap3\n      pop\n      pop\n      dup2\n      swap1\n      sstore\n      pop\n        /* \"VendingMachine.sol\":13637:13816  {... */\n      pop\n        /* \"VendingMachine.sol\":13606:13816  if (operationalCash < _amount) {... */\n    tag_489:\n        /* \"VendingMachine.sol\":13826:13838  paymentToken */\n      0x00\n      dup1\n      sload\n      swap1\n      0x0100\n      exp\n      swap1\n      div\n      0xffffffffffffffffffffffffffffffffffffffff\n      and\n        /* \"VendingMachine.sol\":13826:13847  paymentToken.transfer */\n      0xffffffffffffffffffffffffffffffffffffffff\n      and\n      0xa9059cbb\n        /* \"VendingMachine.sol\":13848:13855  _target */\n      dup8\n        /* \"VendingMachine.sol\":13857:13864  _amount */\n      dup8\n        /* \"VendingMachine.sol\":13826:13865  paymentToken.transfer(_target, _amount) */\n      mload(0x40)\n      dup4\n      0xffffffff\n      and\n      0xe0\n      shl\n      dup2\n      mstore\n      0x04\n      add\n      tag_495\n      swap3\n      swap2\n      swap1\n      tag_290\n      jump\t// in\n    tag_495:\n      0x20\n      mload(0x40)\n      dup1\n      dup4\n      sub\n      dup2\n      0x00\n      dup8\n      gas\n      call\n      iszero\n      dup1\n      iszero\n      tag_497\n      jumpi\n      returndatasize\n      0x00\n      dup1\n      returndatacopy\n      revert(0x00, returndatasize)\n    tag_497:\n      pop\n      pop\n      pop\n      pop\n      mload(0x40)\n      returndatasize\n      not(0x1f)\n      0x1f\n      dup3\n      add\n      and\n      dup3\n      add\n      dup1\n      0x40\n      mstore\n      pop\n      dup2\n      add\n      swap1\n      tag_498\n      swap2\n      swap1\n      tag_233\n      jump\t// in\n    tag_498:\n      pop\n        /* \"VendingMachine.sol\":13137:13873  {... */\n      pop\n      pop\n      pop\n      pop\n        /* \"VendingMachine.sol\":13064:13873  function _processPaymentSmart(address _target, uint256 _amount) internal {... */\n      pop\n      pop\n      jump\t// out\n        /* \"VendingMachine.sol\":12353:13056  function _createProposal(ProposalType _type, address _target, uint256 _amt, string memory _desc) internal {... */\n    tag_268:\n        /* \"VendingMachine.sol\":12470:12483  proposalCount */\n      0x13\n      0x00\n        /* \"VendingMachine.sol\":12470:12485  proposalCount++ */\n      dup2\n      sload\n      dup1\n      swap3\n      swap2\n      swap1\n      tag_500\n      swap1\n      tag_405\n      jump\t// in\n    tag_500:\n      swap2\n      swap1\n      pop\n      sstore\n      pop\n        /* \"VendingMachine.sol\":12496:12514  Proposal storage p */\n      0x00\n        /* \"VendingMachine.sol\":12517:12526  proposals */\n      0x12\n        /* \"VendingMachine.sol\":12517:12541  proposals[proposalCount] */\n      0x00\n        /* \"VendingMachine.sol\":12527:12540  proposalCount */\n      sload(0x13)\n        /* \"VendingMachine.sol\":12517:12541  proposals[proposalCount] */\n      dup2\n      mstore\n      0x20\n      add\n      swap1\n      dup2\n      mstore\n      0x20\n      add\n      0x00\n      keccak256\n        /* \"VendingMachine.sol\":12496:12541  Proposal storage p = proposals[proposalCount] */\n      swap1\n      pop\n        /* \"VendingMachine.sol\":12559:12572  proposalCount */\n      sload(0x13)\n        /* \"VendingMachine.sol\":12552:12553  p */\n      dup2\n        /* \"VendingMachine.sol\":12552:12556  p.id */\n      0x00\n      add\n        /* \"VendingMachine.sol\":12552:12572  p.id = proposalCount */\n      dup2\n      swap1\n      sstore\n      pop\n        /* \"VendingMachine.sol\":12593:12598  _type */\n      dup5\n        /* \"VendingMachine.sol\":12583:12584  p */\n      dup2\n        /* \"VendingMachine.sol\":12583:12590  p.pType */\n      0x01\n      add\n      0x00\n        /* \"VendingMachine.sol\":12583:12598  p.pType = _type */\n      0x0100\n      exp\n      dup2\n      sload\n      dup2\n      0xff\n      mul\n      not\n      and\n      swap1\n      dup4\n      0x03\n      dup2\n      gt\n      iszero\n      tag_501\n      jumpi\n      tag_502\n      tag_420\n      jump\t// in\n    tag_502:\n    tag_501:\n      mul\n      or\n      swap1\n      sstore\n      pop\n        /* \"VendingMachine.sol\":12620:12627  _target */\n      dup4\n        /* \"VendingMachine.sol\":12609:12610  p */\n      dup2\n        /* \"VendingMachine.sol\":12609:12617  p.target */\n      0x01\n      add\n      0x01\n        /* \"VendingMachine.sol\":12609:12627  p.target = _target */\n      0x0100\n      exp\n      dup2\n      sload\n      dup2\n      0xffffffffffffffffffffffffffffffffffffffff\n      mul\n      not\n      and\n      swap1\n      dup4\n      0xffffffffffffffffffffffffffffffffffffffff\n      and\n      mul\n      or\n      swap1\n      sstore\n      pop\n        /* \"VendingMachine.sol\":12649:12653  _amt */\n      dup3\n        /* \"VendingMachine.sol\":12638:12639  p */\n      dup2\n        /* \"VendingMachine.sol\":12638:12646  p.amount */\n      0x02\n      add\n        /* \"VendingMachine.sol\":12638:12653  p.amount = _amt */\n      dup2\n      swap1\n      sstore\n      pop\n        /* \"VendingMachine.sol\":12680:12685  _desc */\n      dup2\n        /* \"VendingMachine.sol\":12664:12665  p */\n      dup2\n        /* \"VendingMachine.sol\":12664:12677  p.description */\n      0x03\n      add\n        /* \"VendingMachine.sol\":12664:12685  p.description = _desc */\n      swap1\n      dup2\n      tag_503\n      swap2\n      swap1\n      tag_407\n      jump\t// in\n    tag_503:\n      pop\n        /* \"VendingMachine.sol\":12726:12732  1 days */\n      0x015180\n        /* \"VendingMachine.sol\":12708:12723  block.timestamp */\n      timestamp\n        /* \"VendingMachine.sol\":12708:12732  block.timestamp + 1 days */\n      tag_504\n      swap2\n      swap1\n      tag_205\n      jump\t// in\n    tag_504:\n        /* \"VendingMachine.sol\":12696:12697  p */\n      dup2\n        /* \"VendingMachine.sol\":12696:12705  p.endTime */\n      0x06\n      add\n        /* \"VendingMachine.sol\":12696:12732  p.endTime = block.timestamp + 1 days */\n      dup2\n      swap1\n      sstore\n      pop\n        /* \"VendingMachine.sol\":12744:12762  string memory tStr */\n      0x00\n        /* \"VendingMachine.sol\":12774:12798  ProposalType.BUY_MACHINE */\n      dup1\n        /* \"VendingMachine.sol\":12765:12798  _type == ProposalType.BUY_MACHINE */\n      0x03\n      dup2\n      gt\n      iszero\n      tag_505\n      jumpi\n      tag_506\n      tag_420\n      jump\t// in\n    tag_506:\n    tag_505:\n        /* \"VendingMachine.sol\":12765:12770  _type */\n      dup7\n        /* \"VendingMachine.sol\":12765:12798  _type == ProposalType.BUY_MACHINE */\n      0x03\n      dup2\n      gt\n      iszero\n      tag_507\n      jumpi\n      tag_508\n      tag_420\n      jump\t// in\n    tag_508:\n    tag_507:\n      eq\n        /* \"VendingMachine.sol\":12765:12989  _type == ProposalType.BUY_MACHINE ? \"BELI MESIN\" : ... */\n      tag_509\n      jumpi\n        /* \"VendingMachine.sol\":12856:12878  ProposalType.BUY_STOCK */\n      0x01\n        /* \"VendingMachine.sol\":12847:12878  _type == ProposalType.BUY_STOCK */\n      0x03\n      dup2\n      gt\n      iszero\n      tag_510\n      jumpi\n      tag_511\n      tag_420\n      jump\t// in\n    tag_511:\n    tag_510:\n        /* \"VendingMachine.sol\":12847:12852  _type */\n      dup7\n        /* \"VendingMachine.sol\":12847:12878  _type == ProposalType.BUY_STOCK */\n      0x03\n      dup2\n      gt\n      iszero\n      tag_512\n      jumpi\n      tag_513\n      tag_420\n      jump\t// in\n    tag_513:\n    tag_512:\n      eq\n        /* \"VendingMachine.sol\":12847:12989  _type == ProposalType.BUY_STOCK ? \"BELI BAHAN\" :... */\n      tag_514\n      jumpi\n        /* \"VendingMachine.sol\":12935:12961  ProposalType.UPDATE_SALARY */\n      0x02\n        /* \"VendingMachine.sol\":12926:12961  _type == ProposalType.UPDATE_SALARY */\n      0x03\n      dup2\n      gt\n      iszero\n      tag_515\n      jumpi\n      tag_516\n      tag_420\n      jump\t// in\n    tag_516:\n    tag_515:\n        /* \"VendingMachine.sol\":12926:12931  _type */\n      dup7\n        /* \"VendingMachine.sol\":12926:12961  _type == ProposalType.UPDATE_SALARY */\n      0x03\n      dup2\n      gt\n      iszero\n      tag_517\n      jumpi\n      tag_518\n      tag_420\n      jump\t// in\n    tag_518:\n    tag_517:\n      eq\n        /* \"VendingMachine.sol\":12926:12989  _type == ProposalType.UPDATE_SALARY ? \"SET GAJI\" : \"ADD VENDOR\" */\n      tag_519\n      jumpi\n      mload(0x40)\n      dup1\n      0x40\n      add\n      0x40\n      mstore\n      dup1\n      0x0a\n      dup2\n      mstore\n      0x20\n      add\n      0x4144442056454e444f5200000000000000000000000000000000000000000000\n      dup2\n      mstore\n      pop\n      jump(tag_520)\n    tag_519:\n      mload(0x40)\n      dup1\n      0x40\n      add\n      0x40\n      mstore\n      dup1\n      0x08\n      dup2\n      mstore\n      0x20\n      add\n      0x5345542047414a49000000000000000000000000000000000000000000000000\n      dup2\n      mstore\n      pop\n    tag_520:\n        /* \"VendingMachine.sol\":12847:12989  _type == ProposalType.BUY_STOCK ? \"BELI BAHAN\" :... */\n      jump(tag_521)\n    tag_514:\n      mload(0x40)\n      dup1\n      0x40\n      add\n      0x40\n      mstore\n      dup1\n      0x0a\n      dup2\n      mstore\n      0x20\n      add\n      0x42454c4920424148414e00000000000000000000000000000000000000000000\n      dup2\n      mstore\n      pop\n    tag_521:\n        /* \"VendingMachine.sol\":12765:12989  _type == ProposalType.BUY_MACHINE ? \"BELI MESIN\" : ... */\n      jump(tag_522)\n    tag_509:\n      mload(0x40)\n      dup1\n      0x40\n      add\n      0x40\n      mstore\n      dup1\n      0x0a\n      dup2\n      mstore\n      0x20\n      add\n      0x42454c49204d4553494e00000000000000000000000000000000000000000000\n      dup2\n      mstore\n      pop\n    tag_522:\n        /* \"VendingMachine.sol\":12744:12989  string memory tStr = _type == ProposalType.BUY_MACHINE ? \"BELI MESIN\" : ... */\n      swap1\n      pop\n        /* \"VendingMachine.sol\":13005:13048  ProposalCreated(proposalCount, tStr, _desc) */\n      0xab417751734d6a1f646db70d698328fa08bc6c3f8d4b8ef2a69adb1eb051496b\n        /* \"VendingMachine.sol\":13021:13034  proposalCount */\n      sload(0x13)\n        /* \"VendingMachine.sol\":13036:13040  tStr */\n      dup3\n        /* \"VendingMachine.sol\":13042:13047  _desc */\n      dup6\n        /* \"VendingMachine.sol\":13005:13048  ProposalCreated(proposalCount, tStr, _desc) */\n      mload(0x40)\n      tag_523\n      swap4\n      swap3\n      swap2\n      swap1\n      tag_524\n      jump\t// in\n    tag_523:\n      mload(0x40)\n      dup1\n      swap2\n      sub\n      swap1\n      log1\n        /* \"VendingMachine.sol\":12459:13056  {... */\n      pop\n      pop\n        /* \"VendingMachine.sol\":12353:13056  function _createProposal(ProposalType _type, address _target, uint256 _amt, string memory _desc) internal {... */\n      pop\n      pop\n      pop\n      pop\n      jump\t// out\n        /* \"#utility.yul\":7:82   */\n    tag_525:\n        /* \"#utility.yul\":40:46   */\n      0x00\n        /* \"#utility.yul\":73:75   */\n      0x40\n        /* \"#utility.yul\":67:76   */\n      mload\n        /* \"#utility.yul\":57:76   */\n      swap1\n      pop\n        /* \"#utility.yul\":7:82   */\n      swap1\n      jump\t// out\n        /* \"#utility.yul\":88:205   */\n    tag_526:\n        /* \"#utility.yul\":197:198   */\n      0x00\n        /* \"#utility.yul\":194:195   */\n      dup1\n        /* \"#utility.yul\":187:199   */\n      revert\n        /* \"#utility.yul\":211:328   */\n    tag_527:\n        /* \"#utility.yul\":320:321   */\n      0x00\n        /* \"#utility.yul\":317:318   */\n      dup1\n        /* \"#utility.yul\":310:322   */\n      revert\n        /* \"#utility.yul\":334:411   */\n    tag_528:\n        /* \"#utility.yul\":371:378   */\n      0x00\n        /* \"#utility.yul\":400:405   */\n      dup2\n        /* \"#utility.yul\":389:405   */\n      swap1\n      pop\n        /* \"#utility.yul\":334:411   */\n      swap2\n      swap1\n      pop\n      jump\t// out\n        /* \"#utility.yul\":417:539   */\n    tag_529:\n        /* \"#utility.yul\":490:514   */\n      tag_641\n        /* \"#utility.yul\":508:513   */\n      dup2\n        /* \"#utility.yul\":490:514   */\n      tag_528\n      jump\t// in\n    tag_641:\n        /* \"#utility.yul\":483:488   */\n      dup2\n        /* \"#utility.yul\":480:515   */\n      eq\n        /* \"#utility.yul\":470:533   */\n      tag_642\n      jumpi\n        /* \"#utility.yul\":529:530   */\n      0x00\n        /* \"#utility.yul\":526:527   */\n      dup1\n        /* \"#utility.yul\":519:531   */\n      revert\n        /* \"#utility.yul\":470:533   */\n    tag_642:\n        /* \"#utility.yul\":417:539   */\n      pop\n      jump\t// out\n        /* \"#utility.yul\":545:684   */\n    tag_530:\n        /* \"#utility.yul\":591:596   */\n      0x00\n        /* \"#utility.yul\":629:635   */\n      dup2\n        /* \"#utility.yul\":616:636   */\n      calldataload\n        /* \"#utility.yul\":607:636   */\n      swap1\n      pop\n        /* \"#utility.yul\":645:678   */\n      tag_644\n        /* \"#utility.yul\":672:677   */\n      dup2\n        /* \"#utility.yul\":645:678   */\n      tag_529\n      jump\t// in\n    tag_644:\n        /* \"#utility.yul\":545:684   */\n      swap3\n      swap2\n      pop\n      pop\n      jump\t// out\n        /* \"#utility.yul\":690:1019   */\n    tag_50:\n        /* \"#utility.yul\":749:755   */\n      0x00\n        /* \"#utility.yul\":798:800   */\n      0x20\n        /* \"#utility.yul\":786:795   */\n      dup3\n        /* \"#utility.yul\":777:784   */\n      dup5\n        /* \"#utility.yul\":773:796   */\n      sub\n        /* \"#utility.yul\":769:801   */\n      slt\n        /* \"#utility.yul\":766:885   */\n      iszero\n      tag_646\n      jumpi\n        /* \"#utility.yul\":804:883   */\n      tag_647\n      tag_526\n      jump\t// in\n    tag_647:\n        /* \"#utility.yul\":766:885   */\n    tag_646:\n        /* \"#utility.yul\":924:925   */\n      0x00\n        /* \"#utility.yul\":949:1002   */\n      tag_648\n        /* \"#utility.yul\":994:1001   */\n      dup5\n        /* \"#utility.yul\":985:991   */\n      dup3\n        /* \"#utility.yul\":974:983   */\n      dup6\n        /* \"#utility.yul\":970:992   */\n      add\n        /* \"#utility.yul\":949:1002   */\n      tag_530\n      jump\t// in\n    tag_648:\n        /* \"#utility.yul\":939:1002   */\n      swap2\n      pop\n        /* \"#utility.yul\":895:1012   */\n      pop\n        /* \"#utility.yul\":690:1019   */\n      swap3\n      swap2\n      pop\n      pop\n      jump\t// out\n        /* \"#utility.yul\":1025:1143   */\n    tag_531:\n        /* \"#utility.yul\":1112:1136   */\n      tag_650\n        /* \"#utility.yul\":1130:1135   */\n      dup2\n        /* \"#utility.yul\":1112:1136   */\n      tag_528\n      jump\t// in\n    tag_650:\n        /* \"#utility.yul\":1107:1110   */\n      dup3\n        /* \"#utility.yul\":1100:1137   */\n      mstore\n        /* \"#utility.yul\":1025:1143   */\n      pop\n      pop\n      jump\t// out\n        /* \"#utility.yul\":1149:1329   */\n    tag_420:\n        /* \"#utility.yul\":1197:1274   */\n      0x4e487b7100000000000000000000000000000000000000000000000000000000\n        /* \"#utility.yul\":1194:1195   */\n      0x00\n        /* \"#utility.yul\":1187:1275   */\n      mstore\n        /* \"#utility.yul\":1294:1298   */\n      0x21\n        /* \"#utility.yul\":1291:1292   */\n      0x04\n        /* \"#utility.yul\":1284:1299   */\n      mstore\n        /* \"#utility.yul\":1318:1322   */\n      0x24\n        /* \"#utility.yul\":1315:1316   */\n      0x00\n        /* \"#utility.yul\":1308:1323   */\n      revert\n        /* \"#utility.yul\":1335:1456   */\n    tag_532:\n        /* \"#utility.yul\":1424:1425   */\n      0x04\n        /* \"#utility.yul\":1417:1422   */\n      dup2\n        /* \"#utility.yul\":1414:1426   */\n      lt\n        /* \"#utility.yul\":1404:1450   */\n      tag_653\n      jumpi\n        /* \"#utility.yul\":1430:1448   */\n      tag_654\n      tag_420\n      jump\t// in\n    tag_654:\n        /* \"#utility.yul\":1404:1450   */\n    tag_653:\n        /* \"#utility.yul\":1335:1456   */\n      pop\n      jump\t// out\n        /* \"#utility.yul\":1462:1605   */\n    tag_533:\n        /* \"#utility.yul\":1515:1522   */\n      0x00\n        /* \"#utility.yul\":1544:1549   */\n      dup2\n        /* \"#utility.yul\":1533:1549   */\n      swap1\n      pop\n        /* \"#utility.yul\":1550:1599   */\n      tag_656\n        /* \"#utility.yul\":1593:1598   */\n      dup3\n        /* \"#utility.yul\":1550:1599   */\n      tag_532\n      jump\t// in\n    tag_656:\n        /* \"#utility.yul\":1462:1605   */\n      swap2\n      swap1\n      pop\n      jump\t// out\n        /* \"#utility.yul\":1611:1754   */\n    tag_534:\n        /* \"#utility.yul\":1675:1684   */\n      0x00\n        /* \"#utility.yul\":1708:1748   */\n      tag_658\n        /* \"#utility.yul\":1742:1747   */\n      dup3\n        /* \"#utility.yul\":1708:1748   */\n      tag_533\n      jump\t// in\n    tag_658:\n        /* \"#utility.yul\":1695:1748   */\n      swap1\n      pop\n        /* \"#utility.yul\":1611:1754   */\n      swap2\n      swap1\n      pop\n      jump\t// out\n        /* \"#utility.yul\":1760:1919   */\n    tag_535:\n        /* \"#utility.yul\":1861:1912   */\n      tag_660\n        /* \"#utility.yul\":1906:1911   */\n      dup2\n        /* \"#utility.yul\":1861:1912   */\n      tag_534\n      jump\t// in\n    tag_660:\n        /* \"#utility.yul\":1856:1859   */\n      dup3\n        /* \"#utility.yul\":1849:1913   */\n      mstore\n        /* \"#utility.yul\":1760:1919   */\n      pop\n      pop\n      jump\t// out\n        /* \"#utility.yul\":1925:2051   */\n    tag_536:\n        /* \"#utility.yul\":1962:1969   */\n      0x00\n        /* \"#utility.yul\":2002:2044   */\n      0xffffffffffffffffffffffffffffffffffffffff\n        /* \"#utility.yul\":1995:2000   */\n      dup3\n        /* \"#utility.yul\":1991:2045   */\n      and\n        /* \"#utility.yul\":1980:2045   */\n      swap1\n      pop\n        /* \"#utility.yul\":1925:2051   */\n      swap2\n      swap1\n      pop\n      jump\t// out\n        /* \"#utility.yul\":2057:2153   */\n    tag_537:\n        /* \"#utility.yul\":2094:2101   */\n      0x00\n        /* \"#utility.yul\":2123:2147   */\n      tag_663\n        /* \"#utility.yul\":2141:2146   */\n      dup3\n        /* \"#utility.yul\":2123:2147   */\n      tag_536\n      jump\t// in\n    tag_663:\n        /* \"#utility.yul\":2112:2147   */\n      swap1\n      pop\n        /* \"#utility.yul\":2057:2153   */\n      swap2\n      swap1\n      pop\n      jump\t// out\n        /* \"#utility.yul\":2159:2277   */\n    tag_538:\n        /* \"#utility.yul\":2246:2270   */\n      tag_665\n        /* \"#utility.yul\":2264:2269   */\n      dup2\n        /* \"#utility.yul\":2246:2270   */\n      tag_537\n      jump\t// in\n    tag_665:\n        /* \"#utility.yul\":2241:2244   */\n      dup3\n        /* \"#utility.yul\":2234:2271   */\n      mstore\n        /* \"#utility.yul\":2159:2277   */\n      pop\n      pop\n      jump\t// out\n        /* \"#utility.yul\":2283:2382   */\n    tag_539:\n        /* \"#utility.yul\":2335:2341   */\n      0x00\n        /* \"#utility.yul\":2369:2374   */\n      dup2\n        /* \"#utility.yul\":2363:2375   */\n      mload\n        /* \"#utility.yul\":2353:2375   */\n      swap1\n      pop\n        /* \"#utility.yul\":2283:2382   */\n      swap2\n      swap1\n      pop\n      jump\t// out\n        /* \"#utility.yul\":2388:2557   */\n    tag_540:\n        /* \"#utility.yul\":2472:2483   */\n      0x00\n        /* \"#utility.yul\":2506:2512   */\n      dup3\n        /* \"#utility.yul\":2501:2504   */\n      dup3\n        /* \"#utility.yul\":2494:2513   */\n      mstore\n        /* \"#utility.yul\":2546:2550   */\n      0x20\n        /* \"#utility.yul\":2541:2544   */\n      dup3\n        /* \"#utility.yul\":2537:2551   */\n      add\n        /* \"#utility.yul\":2522:2551   */\n      swap1\n      pop\n        /* \"#utility.yul\":2388:2557   */\n      swap3\n      swap2\n      pop\n      pop\n      jump\t// out\n        /* \"#utility.yul\":2563:2811   */\n    tag_541:\n        /* \"#utility.yul\":2645:2646   */\n      0x00\n        /* \"#utility.yul\":2655:2768   */\n    tag_669:\n        /* \"#utility.yul\":2669:2675   */\n      dup4\n        /* \"#utility.yul\":2666:2667   */\n      dup2\n        /* \"#utility.yul\":2663:2676   */\n      lt\n        /* \"#utility.yul\":2655:2768   */\n      iszero\n      tag_671\n      jumpi\n        /* \"#utility.yul\":2754:2755   */\n      dup1\n        /* \"#utility.yul\":2749:2752   */\n      dup3\n        /* \"#utility.yul\":2745:2756   */\n      add\n        /* \"#utility.yul\":2739:2757   */\n      mload\n        /* \"#utility.yul\":2735:2736   */\n      dup2\n        /* \"#utility.yul\":2730:2733   */\n      dup5\n        /* \"#utility.yul\":2726:2737   */\n      add\n        /* \"#utility.yul\":2719:2758   */\n      mstore\n        /* \"#utility.yul\":2691:2693   */\n      0x20\n        /* \"#utility.yul\":2688:2689   */\n      dup2\n        /* \"#utility.yul\":2684:2694   */\n      add\n        /* \"#utility.yul\":2679:2694   */\n      swap1\n      pop\n        /* \"#utility.yul\":2655:2768   */\n      jump(tag_669)\n    tag_671:\n        /* \"#utility.yul\":2802:2803   */\n      0x00\n        /* \"#utility.yul\":2793:2799   */\n      dup5\n        /* \"#utility.yul\":2788:2791   */\n      dup5\n        /* \"#utility.yul\":2784:2800   */\n      add\n        /* \"#utility.yul\":2777:2804   */\n      mstore\n        /* \"#utility.yul\":2625:2811   */\n      pop\n        /* \"#utility.yul\":2563:2811   */\n      pop\n      pop\n      pop\n      jump\t// out\n        /* \"#utility.yul\":2817:2919   */\n    tag_542:\n        /* \"#utility.yul\":2858:2864   */\n      0x00\n        /* \"#utility.yul\":2909:2911   */\n      0x1f\n        /* \"#utility.yul\":2905:2912   */\n      not\n        /* \"#utility.yul\":2900:2902   */\n      0x1f\n        /* \"#utility.yul\":2893:2898   */\n      dup4\n        /* \"#utility.yul\":2889:2903   */\n      add\n        /* \"#utility.yul\":2885:2913   */\n      and\n        /* \"#utility.yul\":2875:2913   */\n      swap1\n      pop\n        /* \"#utility.yul\":2817:2919   */\n      swap2\n      swap1\n      pop\n      jump\t// out\n        /* \"#utility.yul\":2925:3302   */\n    tag_543:\n        /* \"#utility.yul\":3013:3016   */\n      0x00\n        /* \"#utility.yul\":3041:3080   */\n      tag_674\n        /* \"#utility.yul\":3074:3079   */\n      dup3\n        /* \"#utility.yul\":3041:3080   */\n      tag_539\n      jump\t// in\n    tag_674:\n        /* \"#utility.yul\":3096:3167   */\n      tag_675\n        /* \"#utility.yul\":3160:3166   */\n      dup2\n        /* \"#utility.yul\":3155:3158   */\n      dup6\n        /* \"#utility.yul\":3096:3167   */\n      tag_540\n      jump\t// in\n    tag_675:\n        /* \"#utility.yul\":3089:3167   */\n      swap4\n      pop\n        /* \"#utility.yul\":3176:3241   */\n      tag_676\n        /* \"#utility.yul\":3234:3240   */\n      dup2\n        /* \"#utility.yul\":3229:3232   */\n      dup6\n        /* \"#utility.yul\":3222:3226   */\n      0x20\n        /* \"#utility.yul\":3215:3220   */\n      dup7\n        /* \"#utility.yul\":3211:3227   */\n      add\n        /* \"#utility.yul\":3176:3241   */\n      tag_541\n      jump\t// in\n    tag_676:\n        /* \"#utility.yul\":3266:3295   */\n      tag_677\n        /* \"#utility.yul\":3288:3294   */\n      dup2\n        /* \"#utility.yul\":3266:3295   */\n      tag_542\n      jump\t// in\n    tag_677:\n        /* \"#utility.yul\":3261:3264   */\n      dup5\n        /* \"#utility.yul\":3257:3296   */\n      add\n        /* \"#utility.yul\":3250:3296   */\n      swap2\n      pop\n        /* \"#utility.yul\":3017:3302   */\n      pop\n        /* \"#utility.yul\":2925:3302   */\n      swap3\n      swap2\n      pop\n      pop\n      jump\t// out\n        /* \"#utility.yul\":3308:3398   */\n    tag_544:\n        /* \"#utility.yul\":3342:3349   */\n      0x00\n        /* \"#utility.yul\":3385:3390   */\n      dup2\n        /* \"#utility.yul\":3378:3391   */\n      iszero\n        /* \"#utility.yul\":3371:3392   */\n      iszero\n        /* \"#utility.yul\":3360:3392   */\n      swap1\n      pop\n        /* \"#utility.yul\":3308:3398   */\n      swap2\n      swap1\n      pop\n      jump\t// out\n        /* \"#utility.yul\":3404:3513   */\n    tag_545:\n        /* \"#utility.yul\":3485:3506   */\n      tag_680\n        /* \"#utility.yul\":3500:3505   */\n      dup2\n        /* \"#utility.yul\":3485:3506   */\n      tag_544\n      jump\t// in\n    tag_680:\n        /* \"#utility.yul\":3480:3483   */\n      dup3\n        /* \"#utility.yul\":3473:3507   */\n      mstore\n        /* \"#utility.yul\":3404:3513   */\n      pop\n      pop\n      jump\t// out\n        /* \"#utility.yul\":3519:4623   */\n    tag_56:\n        /* \"#utility.yul\":3836:3840   */\n      0x00\n        /* \"#utility.yul\":3874:3877   */\n      0x0100\n        /* \"#utility.yul\":3863:3872   */\n      dup3\n        /* \"#utility.yul\":3859:3878   */\n      add\n        /* \"#utility.yul\":3851:3878   */\n      swap1\n      pop\n        /* \"#utility.yul\":3888:3959   */\n      tag_682\n        /* \"#utility.yul\":3956:3957   */\n      0x00\n        /* \"#utility.yul\":3945:3954   */\n      dup4\n        /* \"#utility.yul\":3941:3958   */\n      add\n        /* \"#utility.yul\":3932:3938   */\n      dup12\n        /* \"#utility.yul\":3888:3959   */\n      tag_531\n      jump\t// in\n    tag_682:\n        /* \"#utility.yul\":3969:4055   */\n      tag_683\n        /* \"#utility.yul\":4051:4053   */\n      0x20\n        /* \"#utility.yul\":4040:4049   */\n      dup4\n        /* \"#utility.yul\":4036:4054   */\n      add\n        /* \"#utility.yul\":4027:4033   */\n      dup11\n        /* \"#utility.yul\":3969:4055   */\n      tag_535\n      jump\t// in\n    tag_683:\n        /* \"#utility.yul\":4065:4137   */\n      tag_684\n        /* \"#utility.yul\":4133:4135   */\n      0x40\n        /* \"#utility.yul\":4122:4131   */\n      dup4\n        /* \"#utility.yul\":4118:4136   */\n      add\n        /* \"#utility.yul\":4109:4115   */\n      dup10\n        /* \"#utility.yul\":4065:4137   */\n      tag_538\n      jump\t// in\n    tag_684:\n        /* \"#utility.yul\":4147:4219   */\n      tag_685\n        /* \"#utility.yul\":4215:4217   */\n      0x60\n        /* \"#utility.yul\":4204:4213   */\n      dup4\n        /* \"#utility.yul\":4200:4218   */\n      add\n        /* \"#utility.yul\":4191:4197   */\n      dup9\n        /* \"#utility.yul\":4147:4219   */\n      tag_531\n      jump\t// in\n    tag_685:\n        /* \"#utility.yul\":4267:4276   */\n      dup2\n        /* \"#utility.yul\":4261:4265   */\n      dup2\n        /* \"#utility.yul\":4257:4277   */\n      sub\n        /* \"#utility.yul\":4251:4254   */\n      0x80\n        /* \"#utility.yul\":4240:4249   */\n      dup4\n        /* \"#utility.yul\":4236:4255   */\n      add\n        /* \"#utility.yul\":4229:4278   */\n      mstore\n        /* \"#utility.yul\":4295:4373   */\n      tag_686\n        /* \"#utility.yul\":4368:4372   */\n      dup2\n        /* \"#utility.yul\":4359:4365   */\n      dup8\n        /* \"#utility.yul\":4295:4373   */\n      tag_543\n      jump\t// in\n    tag_686:\n        /* \"#utility.yul\":4287:4373   */\n      swap1\n      pop\n        /* \"#utility.yul\":4383:4456   */\n      tag_687\n        /* \"#utility.yul\":4451:4454   */\n      0xa0\n        /* \"#utility.yul\":4440:4449   */\n      dup4\n        /* \"#utility.yul\":4436:4455   */\n      add\n        /* \"#utility.yul\":4427:4433   */\n      dup7\n        /* \"#utility.yul\":4383:4456   */\n      tag_531\n      jump\t// in\n    tag_687:\n        /* \"#utility.yul\":4466:4533   */\n      tag_688\n        /* \"#utility.yul\":4528:4531   */\n      0xc0\n        /* \"#utility.yul\":4517:4526   */\n      dup4\n        /* \"#utility.yul\":4513:4532   */\n      add\n        /* \"#utility.yul\":4504:4510   */\n      dup6\n        /* \"#utility.yul\":4466:4533   */\n      tag_545\n      jump\t// in\n    tag_688:\n        /* \"#utility.yul\":4543:4616   */\n      tag_689\n        /* \"#utility.yul\":4611:4614   */\n      0xe0\n        /* \"#utility.yul\":4600:4609   */\n      dup4\n        /* \"#utility.yul\":4596:4615   */\n      add\n        /* \"#utility.yul\":4587:4593   */\n      dup5\n        /* \"#utility.yul\":4543:4616   */\n      tag_531\n      jump\t// in\n    tag_689:\n        /* \"#utility.yul\":3519:4623   */\n      swap10\n      swap9\n      pop\n      pop\n      pop\n      pop\n      pop\n      pop\n      pop\n      pop\n      pop\n      jump\t// out\n        /* \"#utility.yul\":4629:4751   */\n    tag_546:\n        /* \"#utility.yul\":4702:4726   */\n      tag_691\n        /* \"#utility.yul\":4720:4725   */\n      dup2\n        /* \"#utility.yul\":4702:4726   */\n      tag_537\n      jump\t// in\n    tag_691:\n        /* \"#utility.yul\":4695:4700   */\n      dup2\n        /* \"#utility.yul\":4692:4727   */\n      eq\n        /* \"#utility.yul\":4682:4745   */\n      tag_692\n      jumpi\n        /* \"#utility.yul\":4741:4742   */\n      0x00\n        /* \"#utility.yul\":4738:4739   */\n      dup1\n        /* \"#utility.yul\":4731:4743   */\n      revert\n        /* \"#utility.yul\":4682:4745   */\n    tag_692:\n        /* \"#utility.yul\":4629:4751   */\n      pop\n      jump\t// out\n        /* \"#utility.yul\":4757:4896   */\n    tag_547:\n        /* \"#utility.yul\":4803:4808   */\n      0x00\n        /* \"#utility.yul\":4841:4847   */\n      dup2\n        /* \"#utility.yul\":4828:4848   */\n      calldataload\n        /* \"#utility.yul\":4819:4848   */\n      swap1\n      pop\n        /* \"#utility.yul\":4857:4890   */\n      tag_694\n        /* \"#utility.yul\":4884:4889   */\n      dup2\n        /* \"#utility.yul\":4857:4890   */\n      tag_546\n      jump\t// in\n    tag_694:\n        /* \"#utility.yul\":4757:4896   */\n      swap3\n      swap2\n      pop\n      pop\n      jump\t// out\n        /* \"#utility.yul\":4902:5376   */\n    tag_59:\n        /* \"#utility.yul\":4970:4976   */\n      0x00\n        /* \"#utility.yul\":4978:4984   */\n      dup1\n        /* \"#utility.yul\":5027:5029   */\n      0x40\n        /* \"#utility.yul\":5015:5024   */\n      dup4\n        /* \"#utility.yul\":5006:5013   */\n      dup6\n        /* \"#utility.yul\":5002:5025   */\n      sub\n        /* \"#utility.yul\":4998:5030   */\n      slt\n        /* \"#utility.yul\":4995:5114   */\n      iszero\n      tag_696\n      jumpi\n        /* \"#utility.yul\":5033:5112   */\n      tag_697\n      tag_526\n      jump\t// in\n    tag_697:\n        /* \"#utility.yul\":4995:5114   */\n    tag_696:\n        /* \"#utility.yul\":5153:5154   */\n      0x00\n        /* \"#utility.yul\":5178:5231   */\n      tag_698\n        /* \"#utility.yul\":5223:5230   */\n      dup6\n        /* \"#utility.yul\":5214:5220   */\n      dup3\n        /* \"#utility.yul\":5203:5212   */\n      dup7\n        /* \"#utility.yul\":5199:5221   */\n      add\n        /* \"#utility.yul\":5178:5231   */\n      tag_547\n      jump\t// in\n    tag_698:\n        /* \"#utility.yul\":5168:5231   */\n      swap3\n      pop\n        /* \"#utility.yul\":5124:5241   */\n      pop\n        /* \"#utility.yul\":5280:5282   */\n      0x20\n        /* \"#utility.yul\":5306:5359   */\n      tag_699\n        /* \"#utility.yul\":5351:5358   */\n      dup6\n        /* \"#utility.yul\":5342:5348   */\n      dup3\n        /* \"#utility.yul\":5331:5340   */\n      dup7\n        /* \"#utility.yul\":5327:5349   */\n      add\n        /* \"#utility.yul\":5306:5359   */\n      tag_530\n      jump\t// in\n    tag_699:\n        /* \"#utility.yul\":5296:5359   */\n      swap2\n      pop\n        /* \"#utility.yul\":5251:5369   */\n      pop\n        /* \"#utility.yul\":4902:5376   */\n      swap3\n      pop\n      swap3\n      swap1\n      pop\n      jump\t// out\n        /* \"#utility.yul\":5382:5442   */\n    tag_548:\n        /* \"#utility.yul\":5410:5413   */\n      0x00\n        /* \"#utility.yul\":5431:5436   */\n      dup2\n        /* \"#utility.yul\":5424:5436   */\n      swap1\n      pop\n        /* \"#utility.yul\":5382:5442   */\n      swap2\n      swap1\n      pop\n      jump\t// out\n        /* \"#utility.yul\":5448:5590   */\n    tag_549:\n        /* \"#utility.yul\":5498:5507   */\n      0x00\n        /* \"#utility.yul\":5531:5584   */\n      tag_702\n        /* \"#utility.yul\":5549:5583   */\n      tag_703\n        /* \"#utility.yul\":5558:5582   */\n      tag_704\n        /* \"#utility.yul\":5576:5581   */\n      dup5\n        /* \"#utility.yul\":5558:5582   */\n      tag_536\n      jump\t// in\n    tag_704:\n        /* \"#utility.yul\":5549:5583   */\n      tag_548\n      jump\t// in\n    tag_703:\n        /* \"#utility.yul\":5531:5584   */\n      tag_536\n      jump\t// in\n    tag_702:\n        /* \"#utility.yul\":5518:5584   */\n      swap1\n      pop\n        /* \"#utility.yul\":5448:5590   */\n      swap2\n      swap1\n      pop\n      jump\t// out\n        /* \"#utility.yul\":5596:5722   */\n    tag_550:\n        /* \"#utility.yul\":5646:5655   */\n      0x00\n        /* \"#utility.yul\":5679:5716   */\n      tag_706\n        /* \"#utility.yul\":5710:5715   */\n      dup3\n        /* \"#utility.yul\":5679:5716   */\n      tag_549\n      jump\t// in\n    tag_706:\n        /* \"#utility.yul\":5666:5716   */\n      swap1\n      pop\n        /* \"#utility.yul\":5596:5722   */\n      swap2\n      swap1\n      pop\n      jump\t// out\n        /* \"#utility.yul\":5728:5867   */\n    tag_551:\n        /* \"#utility.yul\":5791:5800   */\n      0x00\n        /* \"#utility.yul\":5824:5861   */\n      tag_708\n        /* \"#utility.yul\":5855:5860   */\n      dup3\n        /* \"#utility.yul\":5824:5861   */\n      tag_550\n      jump\t// in\n    tag_708:\n        /* \"#utility.yul\":5811:5861   */\n      swap1\n      pop\n        /* \"#utility.yul\":5728:5867   */\n      swap2\n      swap1\n      pop\n      jump\t// out\n        /* \"#utility.yul\":5873:6030   */\n    tag_552:\n        /* \"#utility.yul\":5973:6023   */\n      tag_710\n        /* \"#utility.yul\":6017:6022   */\n      dup2\n        /* \"#utility.yul\":5973:6023   */\n      tag_551\n      jump\t// in\n    tag_710:\n        /* \"#utility.yul\":5968:5971   */\n      dup3\n        /* \"#utility.yul\":5961:6024   */\n      mstore\n        /* \"#utility.yul\":5873:6030   */\n      pop\n      pop\n      jump\t// out\n        /* \"#utility.yul\":6036:6284   */\n    tag_64:\n        /* \"#utility.yul\":6142:6146   */\n      0x00\n        /* \"#utility.yul\":6180:6182   */\n      0x20\n        /* \"#utility.yul\":6169:6178   */\n      dup3\n        /* \"#utility.yul\":6165:6183   */\n      add\n        /* \"#utility.yul\":6157:6183   */\n      swap1\n      pop\n        /* \"#utility.yul\":6193:6277   */\n      tag_712\n        /* \"#utility.yul\":6274:6275   */\n      0x00\n        /* \"#utility.yul\":6263:6272   */\n      dup4\n        /* \"#utility.yul\":6259:6276   */\n      add\n        /* \"#utility.yul\":6250:6256   */\n      dup5\n        /* \"#utility.yul\":6193:6277   */\n      tag_552\n      jump\t// in\n    tag_712:\n        /* \"#utility.yul\":6036:6284   */\n      swap3\n      swap2\n      pop\n      pop\n      jump\t// out\n        /* \"#utility.yul\":6290:6619   */\n    tag_67:\n        /* \"#utility.yul\":6349:6355   */\n      0x00\n        /* \"#utility.yul\":6398:6400   */\n      0x20\n        /* \"#utility.yul\":6386:6395   */\n      dup3\n        /* \"#utility.yul\":6377:6384   */\n      dup5\n        /* \"#utility.yul\":6373:6396   */\n      sub\n        /* \"#utility.yul\":6369:6401   */\n      slt\n        /* \"#utility.yul\":6366:6485   */\n      iszero\n      tag_714\n      jumpi\n        /* \"#utility.yul\":6404:6483   */\n      tag_715\n      tag_526\n      jump\t// in\n    tag_715:\n        /* \"#utility.yul\":6366:6485   */\n    tag_714:\n        /* \"#utility.yul\":6524:6525   */\n      0x00\n        /* \"#utility.yul\":6549:6602   */\n      tag_716\n        /* \"#utility.yul\":6594:6601   */\n      dup5\n        /* \"#utility.yul\":6585:6591   */\n      dup3\n        /* \"#utility.yul\":6574:6583   */\n      dup6\n        /* \"#utility.yul\":6570:6592   */\n      add\n        /* \"#utility.yul\":6549:6602   */\n      tag_547\n      jump\t// in\n    tag_716:\n        /* \"#utility.yul\":6539:6602   */\n      swap2\n      pop\n        /* \"#utility.yul\":6495:6612   */\n      pop\n        /* \"#utility.yul\":6290:6619   */\n      swap3\n      swap2\n      pop\n      pop\n      jump\t// out\n        /* \"#utility.yul\":6625:6847   */\n    tag_72:\n        /* \"#utility.yul\":6718:6722   */\n      0x00\n        /* \"#utility.yul\":6756:6758   */\n      0x20\n        /* \"#utility.yul\":6745:6754   */\n      dup3\n        /* \"#utility.yul\":6741:6759   */\n      add\n        /* \"#utility.yul\":6733:6759   */\n      swap1\n      pop\n        /* \"#utility.yul\":6769:6840   */\n      tag_718\n        /* \"#utility.yul\":6837:6838   */\n      0x00\n        /* \"#utility.yul\":6826:6835   */\n      dup4\n        /* \"#utility.yul\":6822:6839   */\n      add\n        /* \"#utility.yul\":6813:6819   */\n      dup5\n        /* \"#utility.yul\":6769:6840   */\n      tag_531\n      jump\t// in\n    tag_718:\n        /* \"#utility.yul\":6625:6847   */\n      swap3\n      swap2\n      pop\n      pop\n      jump\t// out\n        /* \"#utility.yul\":6853:6970   */\n    tag_553:\n        /* \"#utility.yul\":6962:6963   */\n      0x00\n        /* \"#utility.yul\":6959:6960   */\n      dup1\n        /* \"#utility.yul\":6952:6964   */\n      revert\n        /* \"#utility.yul\":6976:7093   */\n    tag_554:\n        /* \"#utility.yul\":7085:7086   */\n      0x00\n        /* \"#utility.yul\":7082:7083   */\n      dup1\n        /* \"#utility.yul\":7075:7087   */\n      revert\n        /* \"#utility.yul\":7099:7279   */\n    tag_555:\n        /* \"#utility.yul\":7147:7224   */\n      0x4e487b7100000000000000000000000000000000000000000000000000000000\n        /* \"#utility.yul\":7144:7145   */\n      0x00\n        /* \"#utility.yul\":7137:7225   */\n      mstore\n        /* \"#utility.yul\":7244:7248   */\n      0x41\n        /* \"#utility.yul\":7241:7242   */\n      0x04\n        /* \"#utility.yul\":7234:7249   */\n      mstore\n        /* \"#utility.yul\":7268:7272   */\n      0x24\n        /* \"#utility.yul\":7265:7266   */\n      0x00\n        /* \"#utility.yul\":7258:7273   */\n      revert\n        /* \"#utility.yul\":7285:7566   */\n    tag_556:\n        /* \"#utility.yul\":7368:7395   */\n      tag_723\n        /* \"#utility.yul\":7390:7394   */\n      dup3\n        /* \"#utility.yul\":7368:7395   */\n      tag_542\n      jump\t// in\n    tag_723:\n        /* \"#utility.yul\":7360:7366   */\n      dup2\n        /* \"#utility.yul\":7356:7396   */\n      add\n        /* \"#utility.yul\":7498:7504   */\n      dup2\n        /* \"#utility.yul\":7486:7496   */\n      dup2\n        /* \"#utility.yul\":7483:7505   */\n      lt\n        /* \"#utility.yul\":7462:7480   */\n      0xffffffffffffffff\n        /* \"#utility.yul\":7450:7460   */\n      dup3\n        /* \"#utility.yul\":7447:7481   */\n      gt\n        /* \"#utility.yul\":7444:7506   */\n      or\n        /* \"#utility.yul\":7441:7529   */\n      iszero\n      tag_724\n      jumpi\n        /* \"#utility.yul\":7509:7527   */\n      tag_725\n      tag_555\n      jump\t// in\n    tag_725:\n        /* \"#utility.yul\":7441:7529   */\n    tag_724:\n        /* \"#utility.yul\":7549:7559   */\n      dup1\n        /* \"#utility.yul\":7545:7547   */\n      0x40\n        /* \"#utility.yul\":7538:7560   */\n      mstore\n        /* \"#utility.yul\":7328:7566   */\n      pop\n        /* \"#utility.yul\":7285:7566   */\n      pop\n      pop\n      jump\t// out\n        /* \"#utility.yul\":7572:7701   */\n    tag_557:\n        /* \"#utility.yul\":7606:7612   */\n      0x00\n        /* \"#utility.yul\":7633:7653   */\n      tag_727\n      tag_525\n      jump\t// in\n    tag_727:\n        /* \"#utility.yul\":7623:7653   */\n      swap1\n      pop\n        /* \"#utility.yul\":7662:7695   */\n      tag_728\n        /* \"#utility.yul\":7690:7694   */\n      dup3\n        /* \"#utility.yul\":7682:7688   */\n      dup3\n        /* \"#utility.yul\":7662:7695   */\n      tag_556\n      jump\t// in\n    tag_728:\n        /* \"#utility.yul\":7572:7701   */\n      swap2\n      swap1\n      pop\n      jump\t// out\n        /* \"#utility.yul\":7707:8015   */\n    tag_558:\n        /* \"#utility.yul\":7769:7773   */\n      0x00\n        /* \"#utility.yul\":7859:7877   */\n      0xffffffffffffffff\n        /* \"#utility.yul\":7851:7857   */\n      dup3\n        /* \"#utility.yul\":7848:7878   */\n      gt\n        /* \"#utility.yul\":7845:7901   */\n      iszero\n      tag_730\n      jumpi\n        /* \"#utility.yul\":7881:7899   */\n      tag_731\n      tag_555\n      jump\t// in\n    tag_731:\n        /* \"#utility.yul\":7845:7901   */\n    tag_730:\n        /* \"#utility.yul\":7919:7948   */\n      tag_732\n        /* \"#utility.yul\":7941:7947   */\n      dup3\n        /* \"#utility.yul\":7919:7948   */\n      tag_542\n      jump\t// in\n    tag_732:\n        /* \"#utility.yul\":7911:7948   */\n      swap1\n      pop\n        /* \"#utility.yul\":8003:8007   */\n      0x20\n        /* \"#utility.yul\":7997:8001   */\n      dup2\n        /* \"#utility.yul\":7993:8008   */\n      add\n        /* \"#utility.yul\":7985:8008   */\n      swap1\n      pop\n        /* \"#utility.yul\":7707:8015   */\n      swap2\n      swap1\n      pop\n      jump\t// out\n        /* \"#utility.yul\":8021:8169   */\n    tag_559:\n        /* \"#utility.yul\":8119:8125   */\n      dup3\n        /* \"#utility.yul\":8114:8117   */\n      dup2\n        /* \"#utility.yul\":8109:8112   */\n      dup4\n        /* \"#utility.yul\":8096:8126   */\n      calldatacopy\n        /* \"#utility.yul\":8160:8161   */\n      0x00\n        /* \"#utility.yul\":8151:8157   */\n      dup4\n        /* \"#utility.yul\":8146:8149   */\n      dup4\n        /* \"#utility.yul\":8142:8158   */\n      add\n        /* \"#utility.yul\":8135:8162   */\n      mstore\n        /* \"#utility.yul\":8021:8169   */\n      pop\n      pop\n      pop\n      jump\t// out\n        /* \"#utility.yul\":8175:8600   */\n    tag_560:\n        /* \"#utility.yul\":8253:8258   */\n      0x00\n        /* \"#utility.yul\":8278:8344   */\n      tag_735\n        /* \"#utility.yul\":8294:8343   */\n      tag_736\n        /* \"#utility.yul\":8336:8342   */\n      dup5\n        /* \"#utility.yul\":8294:8343   */\n      tag_558\n      jump\t// in\n    tag_736:\n        /* \"#utility.yul\":8278:8344   */\n      tag_557\n      jump\t// in\n    tag_735:\n        /* \"#utility.yul\":8269:8344   */\n      swap1\n      pop\n        /* \"#utility.yul\":8367:8373   */\n      dup3\n        /* \"#utility.yul\":8360:8365   */\n      dup2\n        /* \"#utility.yul\":8353:8374   */\n      mstore\n        /* \"#utility.yul\":8405:8409   */\n      0x20\n        /* \"#utility.yul\":8398:8403   */\n      dup2\n        /* \"#utility.yul\":8394:8410   */\n      add\n        /* \"#utility.yul\":8443:8446   */\n      dup5\n        /* \"#utility.yul\":8434:8440   */\n      dup5\n        /* \"#utility.yul\":8429:8432   */\n      dup5\n        /* \"#utility.yul\":8425:8441   */\n      add\n        /* \"#utility.yul\":8422:8447   */\n      gt\n        /* \"#utility.yul\":8419:8531   */\n      iszero\n      tag_737\n      jumpi\n        /* \"#utility.yul\":8450:8529   */\n      tag_738\n      tag_554\n      jump\t// in\n    tag_738:\n        /* \"#utility.yul\":8419:8531   */\n    tag_737:\n        /* \"#utility.yul\":8540:8594   */\n      tag_739\n        /* \"#utility.yul\":8587:8593   */\n      dup5\n        /* \"#utility.yul\":8582:8585   */\n      dup3\n        /* \"#utility.yul\":8577:8580   */\n      dup6\n        /* \"#utility.yul\":8540:8594   */\n      tag_559\n      jump\t// in\n    tag_739:\n        /* \"#utility.yul\":8259:8600   */\n      pop\n        /* \"#utility.yul\":8175:8600   */\n      swap4\n      swap3\n      pop\n      pop\n      pop\n      jump\t// out\n        /* \"#utility.yul\":8620:8960   */\n    tag_561:\n        /* \"#utility.yul\":8676:8681   */\n      0x00\n        /* \"#utility.yul\":8725:8728   */\n      dup3\n        /* \"#utility.yul\":8718:8722   */\n      0x1f\n        /* \"#utility.yul\":8710:8716   */\n      dup4\n        /* \"#utility.yul\":8706:8723   */\n      add\n        /* \"#utility.yul\":8702:8729   */\n      slt\n        /* \"#utility.yul\":8692:8814   */\n      tag_741\n      jumpi\n        /* \"#utility.yul\":8733:8812   */\n      tag_742\n      tag_553\n      jump\t// in\n    tag_742:\n        /* \"#utility.yul\":8692:8814   */\n    tag_741:\n        /* \"#utility.yul\":8850:8856   */\n      dup2\n        /* \"#utility.yul\":8837:8857   */\n      calldataload\n        /* \"#utility.yul\":8875:8954   */\n      tag_743\n        /* \"#utility.yul\":8950:8953   */\n      dup5\n        /* \"#utility.yul\":8942:8948   */\n      dup3\n        /* \"#utility.yul\":8935:8939   */\n      0x20\n        /* \"#utility.yul\":8927:8933   */\n      dup7\n        /* \"#utility.yul\":8923:8940   */\n      add\n        /* \"#utility.yul\":8875:8954   */\n      tag_560\n      jump\t// in\n    tag_743:\n        /* \"#utility.yul\":8866:8954   */\n      swap2\n      pop\n        /* \"#utility.yul\":8682:8960   */\n      pop\n        /* \"#utility.yul\":8620:8960   */\n      swap3\n      swap2\n      pop\n      pop\n      jump\t// out\n        /* \"#utility.yul\":8966:9765   */\n    tag_81:\n        /* \"#utility.yul\":9053:9059   */\n      0x00\n        /* \"#utility.yul\":9061:9067   */\n      dup1\n        /* \"#utility.yul\":9069:9075   */\n      0x00\n        /* \"#utility.yul\":9118:9120   */\n      0x60\n        /* \"#utility.yul\":9106:9115   */\n      dup5\n        /* \"#utility.yul\":9097:9104   */\n      dup7\n        /* \"#utility.yul\":9093:9116   */\n      sub\n        /* \"#utility.yul\":9089:9121   */\n      slt\n        /* \"#utility.yul\":9086:9205   */\n      iszero\n      tag_745\n      jumpi\n        /* \"#utility.yul\":9124:9203   */\n      tag_746\n      tag_526\n      jump\t// in\n    tag_746:\n        /* \"#utility.yul\":9086:9205   */\n    tag_745:\n        /* \"#utility.yul\":9244:9245   */\n      0x00\n        /* \"#utility.yul\":9269:9322   */\n      tag_747\n        /* \"#utility.yul\":9314:9321   */\n      dup7\n        /* \"#utility.yul\":9305:9311   */\n      dup3\n        /* \"#utility.yul\":9294:9303   */\n      dup8\n        /* \"#utility.yul\":9290:9312   */\n      add\n        /* \"#utility.yul\":9269:9322   */\n      tag_547\n      jump\t// in\n    tag_747:\n        /* \"#utility.yul\":9259:9322   */\n      swap4\n      pop\n        /* \"#utility.yul\":9215:9332   */\n      pop\n        /* \"#utility.yul\":9371:9373   */\n      0x20\n        /* \"#utility.yul\":9397:9450   */\n      tag_748\n        /* \"#utility.yul\":9442:9449   */\n      dup7\n        /* \"#utility.yul\":9433:9439   */\n      dup3\n        /* \"#utility.yul\":9422:9431   */\n      dup8\n        /* \"#utility.yul\":9418:9440   */\n      add\n        /* \"#utility.yul\":9397:9450   */\n      tag_530\n      jump\t// in\n    tag_748:\n        /* \"#utility.yul\":9387:9450   */\n      swap3\n      pop\n        /* \"#utility.yul\":9342:9460   */\n      pop\n        /* \"#utility.yul\":9527:9529   */\n      0x40\n        /* \"#utility.yul\":9516:9525   */\n      dup5\n        /* \"#utility.yul\":9512:9530   */\n      add\n        /* \"#utility.yul\":9499:9531   */\n      calldataload\n        /* \"#utility.yul\":9558:9576   */\n      0xffffffffffffffff\n        /* \"#utility.yul\":9550:9556   */\n      dup2\n        /* \"#utility.yul\":9547:9577   */\n      gt\n        /* \"#utility.yul\":9544:9661   */\n      iszero\n      tag_749\n      jumpi\n        /* \"#utility.yul\":9580:9659   */\n      tag_750\n      tag_527\n      jump\t// in\n    tag_750:\n        /* \"#utility.yul\":9544:9661   */\n    tag_749:\n        /* \"#utility.yul\":9685:9748   */\n      tag_751\n        /* \"#utility.yul\":9740:9747   */\n      dup7\n        /* \"#utility.yul\":9731:9737   */\n      dup3\n        /* \"#utility.yul\":9720:9729   */\n      dup8\n        /* \"#utility.yul\":9716:9738   */\n      add\n        /* \"#utility.yul\":9685:9748   */\n      tag_561\n      jump\t// in\n    tag_751:\n        /* \"#utility.yul\":9675:9748   */\n      swap2\n      pop\n        /* \"#utility.yul\":9470:9758   */\n      pop\n        /* \"#utility.yul\":8966:9765   */\n      swap3\n      pop\n      swap3\n      pop\n      swap3\n      jump\t// out\n        /* \"#utility.yul\":9771:9981   */\n    tag_90:\n        /* \"#utility.yul\":9858:9862   */\n      0x00\n        /* \"#utility.yul\":9896:9898   */\n      0x20\n        /* \"#utility.yul\":9885:9894   */\n      dup3\n        /* \"#utility.yul\":9881:9899   */\n      add\n        /* \"#utility.yul\":9873:9899   */\n      swap1\n      pop\n        /* \"#utility.yul\":9909:9974   */\n      tag_753\n        /* \"#utility.yul\":9971:9972   */\n      0x00\n        /* \"#utility.yul\":9960:9969   */\n      dup4\n        /* \"#utility.yul\":9956:9973   */\n      add\n        /* \"#utility.yul\":9947:9953   */\n      dup5\n        /* \"#utility.yul\":9909:9974   */\n      tag_545\n      jump\t// in\n    tag_753:\n        /* \"#utility.yul\":9771:9981   */\n      swap3\n      swap2\n      pop\n      pop\n      jump\t// out\n        /* \"#utility.yul\":9987:10619   */\n    tag_98:\n        /* \"#utility.yul\":10178:10182   */\n      0x00\n        /* \"#utility.yul\":10216:10219   */\n      0x80\n        /* \"#utility.yul\":10205:10214   */\n      dup3\n        /* \"#utility.yul\":10201:10220   */\n      add\n        /* \"#utility.yul\":10193:10220   */\n      swap1\n      pop\n        /* \"#utility.yul\":10230:10301   */\n      tag_755\n        /* \"#utility.yul\":10298:10299   */\n      0x00\n        /* \"#utility.yul\":10287:10296   */\n      dup4\n        /* \"#utility.yul\":10283:10300   */\n      add\n        /* \"#utility.yul\":10274:10280   */\n      dup8\n        /* \"#utility.yul\":10230:10301   */\n      tag_531\n      jump\t// in\n    tag_755:\n        /* \"#utility.yul\":10348:10357   */\n      dup2\n        /* \"#utility.yul\":10342:10346   */\n      dup2\n        /* \"#utility.yul\":10338:10358   */\n      sub\n        /* \"#utility.yul\":10333:10335   */\n      0x20\n        /* \"#utility.yul\":10322:10331   */\n      dup4\n        /* \"#utility.yul\":10318:10336   */\n      add\n        /* \"#utility.yul\":10311:10359   */\n      mstore\n        /* \"#utility.yul\":10376:10454   */\n      tag_756\n        /* \"#utility.yul\":10449:10453   */\n      dup2\n        /* \"#utility.yul\":10440:10446   */\n      dup7\n        /* \"#utility.yul\":10376:10454   */\n      tag_543\n      jump\t// in\n    tag_756:\n        /* \"#utility.yul\":10368:10454   */\n      swap1\n      pop\n        /* \"#utility.yul\":10464:10530   */\n      tag_757\n        /* \"#utility.yul\":10526:10528   */\n      0x40\n        /* \"#utility.yul\":10515:10524   */\n      dup4\n        /* \"#utility.yul\":10511:10529   */\n      add\n        /* \"#utility.yul\":10502:10508   */\n      dup6\n        /* \"#utility.yul\":10464:10530   */\n      tag_545\n      jump\t// in\n    tag_757:\n        /* \"#utility.yul\":10540:10612   */\n      tag_758\n        /* \"#utility.yul\":10608:10610   */\n      0x60\n        /* \"#utility.yul\":10597:10606   */\n      dup4\n        /* \"#utility.yul\":10593:10611   */\n      add\n        /* \"#utility.yul\":10584:10590   */\n      dup5\n        /* \"#utility.yul\":10540:10612   */\n      tag_531\n      jump\t// in\n    tag_758:\n        /* \"#utility.yul\":9987:10619   */\n      swap6\n      swap5\n      pop\n      pop\n      pop\n      pop\n      pop\n      jump\t// out\n        /* \"#utility.yul\":10625:10847   */\n    tag_128:\n        /* \"#utility.yul\":10718:10722   */\n      0x00\n        /* \"#utility.yul\":10756:10758   */\n      0x20\n        /* \"#utility.yul\":10745:10754   */\n      dup3\n        /* \"#utility.yul\":10741:10759   */\n      add\n        /* \"#utility.yul\":10733:10759   */\n      swap1\n      pop\n        /* \"#utility.yul\":10769:10840   */\n      tag_760\n        /* \"#utility.yul\":10837:10838   */\n      0x00\n        /* \"#utility.yul\":10826:10835   */\n      dup4\n        /* \"#utility.yul\":10822:10839   */\n      add\n        /* \"#utility.yul\":10813:10819   */\n      dup5\n        /* \"#utility.yul\":10769:10840   */\n      tag_538\n      jump\t// in\n    tag_760:\n        /* \"#utility.yul\":10625:10847   */\n      swap3\n      swap2\n      pop\n      pop\n      jump\t// out\n        /* \"#utility.yul\":10853:10929   */\n    tag_562:\n        /* \"#utility.yul\":10889:10896   */\n      0x00\n        /* \"#utility.yul\":10918:10923   */\n      dup2\n        /* \"#utility.yul\":10907:10923   */\n      swap1\n      pop\n        /* \"#utility.yul\":10853:10929   */\n      swap2\n      swap1\n      pop\n      jump\t// out\n        /* \"#utility.yul\":10935:11050   */\n    tag_563:\n        /* \"#utility.yul\":11020:11043   */\n      tag_763\n        /* \"#utility.yul\":11037:11042   */\n      dup2\n        /* \"#utility.yul\":11020:11043   */\n      tag_562\n      jump\t// in\n    tag_763:\n        /* \"#utility.yul\":11015:11018   */\n      dup3\n        /* \"#utility.yul\":11008:11044   */\n      mstore\n        /* \"#utility.yul\":10935:11050   */\n      pop\n      pop\n      jump\t// out\n        /* \"#utility.yul\":11056:11274   */\n    tag_133:\n        /* \"#utility.yul\":11147:11151   */\n      0x00\n        /* \"#utility.yul\":11185:11187   */\n      0x20\n        /* \"#utility.yul\":11174:11183   */\n      dup3\n        /* \"#utility.yul\":11170:11188   */\n      add\n        /* \"#utility.yul\":11162:11188   */\n      swap1\n      pop\n        /* \"#utility.yul\":11198:11267   */\n      tag_765\n        /* \"#utility.yul\":11264:11265   */\n      0x00\n        /* \"#utility.yul\":11253:11262   */\n      dup4\n        /* \"#utility.yul\":11249:11266   */\n      add\n        /* \"#utility.yul\":11240:11246   */\n      dup5\n        /* \"#utility.yul\":11198:11267   */\n      tag_563\n      jump\t// in\n    tag_765:\n        /* \"#utility.yul\":11056:11274   */\n      swap3\n      swap2\n      pop\n      pop\n      jump\t// out\n        /* \"#utility.yul\":11280:11789   */\n    tag_162:\n        /* \"#utility.yul\":11349:11355   */\n      0x00\n        /* \"#utility.yul\":11398:11400   */\n      0x20\n        /* \"#utility.yul\":11386:11395   */\n      dup3\n        /* \"#utility.yul\":11377:11384   */\n      dup5\n        /* \"#utility.yul\":11373:11396   */\n      sub\n        /* \"#utility.yul\":11369:11401   */\n      slt\n        /* \"#utility.yul\":11366:11485   */\n      iszero\n      tag_767\n      jumpi\n        /* \"#utility.yul\":11404:11483   */\n      tag_768\n      tag_526\n      jump\t// in\n    tag_768:\n        /* \"#utility.yul\":11366:11485   */\n    tag_767:\n        /* \"#utility.yul\":11552:11553   */\n      0x00\n        /* \"#utility.yul\":11541:11550   */\n      dup3\n        /* \"#utility.yul\":11537:11554   */\n      add\n        /* \"#utility.yul\":11524:11555   */\n      calldataload\n        /* \"#utility.yul\":11582:11600   */\n      0xffffffffffffffff\n        /* \"#utility.yul\":11574:11580   */\n      dup2\n        /* \"#utility.yul\":11571:11601   */\n      gt\n        /* \"#utility.yul\":11568:11685   */\n      iszero\n      tag_769\n      jumpi\n        /* \"#utility.yul\":11604:11683   */\n      tag_770\n      tag_527\n      jump\t// in\n    tag_770:\n        /* \"#utility.yul\":11568:11685   */\n    tag_769:\n        /* \"#utility.yul\":11709:11772   */\n      tag_771\n        /* \"#utility.yul\":11764:11771   */\n      dup5\n        /* \"#utility.yul\":11755:11761   */\n      dup3\n        /* \"#utility.yul\":11744:11753   */\n      dup6\n        /* \"#utility.yul\":11740:11762   */\n      add\n        /* \"#utility.yul\":11709:11772   */\n      tag_561\n      jump\t// in\n    tag_771:\n        /* \"#utility.yul\":11699:11772   */\n      swap2\n      pop\n        /* \"#utility.yul\":11495:11782   */\n      pop\n        /* \"#utility.yul\":11280:11789   */\n      swap3\n      swap2\n      pop\n      pop\n      jump\t// out\n        /* \"#utility.yul\":11795:12449   */\n    tag_173:\n        /* \"#utility.yul\":11873:11879   */\n      0x00\n        /* \"#utility.yul\":11881:11887   */\n      dup1\n        /* \"#utility.yul\":11930:11932   */\n      0x40\n        /* \"#utility.yul\":11918:11927   */\n      dup4\n        /* \"#utility.yul\":11909:11916   */\n      dup6\n        /* \"#utility.yul\":11905:11928   */\n      sub\n        /* \"#utility.yul\":11901:11933   */\n      slt\n        /* \"#utility.yul\":11898:12017   */\n      iszero\n      tag_773\n      jumpi\n        /* \"#utility.yul\":11936:12015   */\n      tag_774\n      tag_526\n      jump\t// in\n    tag_774:\n        /* \"#utility.yul\":11898:12017   */\n    tag_773:\n        /* \"#utility.yul\":12056:12057   */\n      0x00\n        /* \"#utility.yul\":12081:12134   */\n      tag_775\n        /* \"#utility.yul\":12126:12133   */\n      dup6\n        /* \"#utility.yul\":12117:12123   */\n      dup3\n        /* \"#utility.yul\":12106:12115   */\n      dup7\n        /* \"#utility.yul\":12102:12124   */\n      add\n        /* \"#utility.yul\":12081:12134   */\n      tag_547\n      jump\t// in\n    tag_775:\n        /* \"#utility.yul\":12071:12134   */\n      swap3\n      pop\n        /* \"#utility.yul\":12027:12144   */\n      pop\n        /* \"#utility.yul\":12211:12213   */\n      0x20\n        /* \"#utility.yul\":12200:12209   */\n      dup4\n        /* \"#utility.yul\":12196:12214   */\n      add\n        /* \"#utility.yul\":12183:12215   */\n      calldataload\n        /* \"#utility.yul\":12242:12260   */\n      0xffffffffffffffff\n        /* \"#utility.yul\":12234:12240   */\n      dup2\n        /* \"#utility.yul\":12231:12261   */\n      gt\n        /* \"#utility.yul\":12228:12345   */\n      iszero\n      tag_776\n      jumpi\n        /* \"#utility.yul\":12264:12343   */\n      tag_777\n      tag_527\n      jump\t// in\n    tag_777:\n        /* \"#utility.yul\":12228:12345   */\n    tag_776:\n        /* \"#utility.yul\":12369:12432   */\n      tag_778\n        /* \"#utility.yul\":12424:12431   */\n      dup6\n        /* \"#utility.yul\":12415:12421   */\n      dup3\n        /* \"#utility.yul\":12404:12413   */\n      dup7\n        /* \"#utility.yul\":12400:12422   */\n      add\n        /* \"#utility.yul\":12369:12432   */\n      tag_561\n      jump\t// in\n    tag_778:\n        /* \"#utility.yul\":12359:12432   */\n      swap2\n      pop\n        /* \"#utility.yul\":12154:12442   */\n      pop\n        /* \"#utility.yul\":11795:12449   */\n      swap3\n      pop\n      swap3\n      swap1\n      pop\n      jump\t// out\n        /* \"#utility.yul\":12455:12616   */\n    tag_564:\n        /* \"#utility.yul\":12595:12608   */\n      0x5265656e7472616e637921000000000000000000000000000000000000000000\n        /* \"#utility.yul\":12591:12592   */\n      0x00\n        /* \"#utility.yul\":12583:12589   */\n      dup3\n        /* \"#utility.yul\":12579:12593   */\n      add\n        /* \"#utility.yul\":12572:12609   */\n      mstore\n        /* \"#utility.yul\":12455:12616   */\n      pop\n      jump\t// out\n        /* \"#utility.yul\":12622:12988   */\n    tag_565:\n        /* \"#utility.yul\":12764:12767   */\n      0x00\n        /* \"#utility.yul\":12785:12852   */\n      tag_781\n        /* \"#utility.yul\":12849:12851   */\n      0x0b\n        /* \"#utility.yul\":12844:12847   */\n      dup4\n        /* \"#utility.yul\":12785:12852   */\n      tag_540\n      jump\t// in\n    tag_781:\n        /* \"#utility.yul\":12778:12852   */\n      swap2\n      pop\n        /* \"#utility.yul\":12861:12954   */\n      tag_782\n        /* \"#utility.yul\":12950:12953   */\n      dup3\n        /* \"#utility.yul\":12861:12954   */\n      tag_564\n      jump\t// in\n    tag_782:\n        /* \"#utility.yul\":12979:12981   */\n      0x20\n        /* \"#utility.yul\":12974:12977   */\n      dup3\n        /* \"#utility.yul\":12970:12982   */\n      add\n        /* \"#utility.yul\":12963:12982   */\n      swap1\n      pop\n        /* \"#utility.yul\":12622:12988   */\n      swap2\n      swap1\n      pop\n      jump\t// out\n        /* \"#utility.yul\":12994:13413   */\n    tag_185:\n        /* \"#utility.yul\":13160:13164   */\n      0x00\n        /* \"#utility.yul\":13198:13200   */\n      0x20\n        /* \"#utility.yul\":13187:13196   */\n      dup3\n        /* \"#utility.yul\":13183:13201   */\n      add\n        /* \"#utility.yul\":13175:13201   */\n      swap1\n      pop\n        /* \"#utility.yul\":13247:13256   */\n      dup2\n        /* \"#utility.yul\":13241:13245   */\n      dup2\n        /* \"#utility.yul\":13237:13257   */\n      sub\n        /* \"#utility.yul\":13233:13234   */\n      0x00\n        /* \"#utility.yul\":13222:13231   */\n      dup4\n        /* \"#utility.yul\":13218:13235   */\n      add\n        /* \"#utility.yul\":13211:13258   */\n      mstore\n        /* \"#utility.yul\":13275:13406   */\n      tag_784\n        /* \"#utility.yul\":13401:13405   */\n      dup2\n        /* \"#utility.yul\":13275:13406   */\n      tag_565\n      jump\t// in\n    tag_784:\n        /* \"#utility.yul\":13267:13406   */\n      swap1\n      pop\n        /* \"#utility.yul\":12994:13413   */\n      swap2\n      swap1\n      pop\n      jump\t// out\n        /* \"#utility.yul\":13419:13580   */\n    tag_566:\n        /* \"#utility.yul\":13559:13572   */\n      0x57616b7475204861626973000000000000000000000000000000000000000000\n        /* \"#utility.yul\":13555:13556   */\n      0x00\n        /* \"#utility.yul\":13547:13553   */\n      dup3\n        /* \"#utility.yul\":13543:13557   */\n      add\n        /* \"#utility.yul\":13536:13573   */\n      mstore\n        /* \"#utility.yul\":13419:13580   */\n      pop\n      jump\t// out\n        /* \"#utility.yul\":13586:13952   */\n    tag_567:\n        /* \"#utility.yul\":13728:13731   */\n      0x00\n        /* \"#utility.yul\":13749:13816   */\n      tag_787\n        /* \"#utility.yul\":13813:13815   */\n      0x0b\n        /* \"#utility.yul\":13808:13811   */\n      dup4\n        /* \"#utility.yul\":13749:13816   */\n      tag_540\n      jump\t// in\n    tag_787:\n        /* \"#utility.yul\":13742:13816   */\n      swap2\n      pop\n        /* \"#utility.yul\":13825:13918   */\n      tag_788\n        /* \"#utility.yul\":13914:13917   */\n      dup3\n        /* \"#utility.yul\":13825:13918   */\n      tag_566\n      jump\t// in\n    tag_788:\n        /* \"#utility.yul\":13943:13945   */\n      0x20\n        /* \"#utility.yul\":13938:13941   */\n      dup3\n        /* \"#utility.yul\":13934:13946   */\n      add\n        /* \"#utility.yul\":13927:13946   */\n      swap1\n      pop\n        /* \"#utility.yul\":13586:13952   */\n      swap2\n      swap1\n      pop\n      jump\t// out\n        /* \"#utility.yul\":13958:14377   */\n    tag_189:\n        /* \"#utility.yul\":14124:14128   */\n      0x00\n        /* \"#utility.yul\":14162:14164   */\n      0x20\n        /* \"#utility.yul\":14151:14160   */\n      dup3\n        /* \"#utility.yul\":14147:14165   */\n      add\n        /* \"#utility.yul\":14139:14165   */\n      swap1\n      pop\n        /* \"#utility.yul\":14211:14220   */\n      dup2\n        /* \"#utility.yul\":14205:14209   */\n      dup2\n        /* \"#utility.yul\":14201:14221   */\n      sub\n        /* \"#utility.yul\":14197:14198   */\n      0x00\n        /* \"#utility.yul\":14186:14195   */\n      dup4\n        /* \"#utility.yul\":14182:14199   */\n      add\n        /* \"#utility.yul\":14175:14222   */\n      mstore\n        /* \"#utility.yul\":14239:14370   */\n      tag_790\n        /* \"#utility.yul\":14365:14369   */\n      dup2\n        /* \"#utility.yul\":14239:14370   */\n      tag_567\n      jump\t// in\n    tag_790:\n        /* \"#utility.yul\":14231:14370   */\n      swap1\n      pop\n        /* \"#utility.yul\":13958:14377   */\n      swap2\n      swap1\n      pop\n      jump\t// out\n        /* \"#utility.yul\":14383:14543   */\n    tag_568:\n        /* \"#utility.yul\":14523:14535   */\n      0x537564616820566f746500000000000000000000000000000000000000000000\n        /* \"#utility.yul\":14519:14520   */\n      0x00\n        /* \"#utility.yul\":14511:14517   */\n      dup3\n        /* \"#utility.yul\":14507:14521   */\n      add\n        /* \"#utility.yul\":14500:14536   */\n      mstore\n        /* \"#utility.yul\":14383:14543   */\n      pop\n      jump\t// out\n        /* \"#utility.yul\":14549:14915   */\n    tag_569:\n        /* \"#utility.yul\":14691:14694   */\n      0x00\n        /* \"#utility.yul\":14712:14779   */\n      tag_793\n        /* \"#utility.yul\":14776:14778   */\n      0x0a\n        /* \"#utility.yul\":14771:14774   */\n      dup4\n        /* \"#utility.yul\":14712:14779   */\n      tag_540\n      jump\t// in\n    tag_793:\n        /* \"#utility.yul\":14705:14779   */\n      swap2\n      pop\n        /* \"#utility.yul\":14788:14881   */\n      tag_794\n        /* \"#utility.yul\":14877:14880   */\n      dup3\n        /* \"#utility.yul\":14788:14881   */\n      tag_568\n      jump\t// in\n    tag_794:\n        /* \"#utility.yul\":14906:14908   */\n      0x20\n        /* \"#utility.yul\":14901:14904   */\n      dup3\n        /* \"#utility.yul\":14897:14909   */\n      add\n        /* \"#utility.yul\":14890:14909   */\n      swap1\n      pop\n        /* \"#utility.yul\":14549:14915   */\n      swap2\n      swap1\n      pop\n      jump\t// out\n        /* \"#utility.yul\":14921:15340   */\n    tag_192:\n        /* \"#utility.yul\":15087:15091   */\n      0x00\n        /* \"#utility.yul\":15125:15127   */\n      0x20\n        /* \"#utility.yul\":15114:15123   */\n      dup3\n        /* \"#utility.yul\":15110:15128   */\n      add\n        /* \"#utility.yul\":15102:15128   */\n      swap1\n      pop\n        /* \"#utility.yul\":15174:15183   */\n      dup2\n        /* \"#utility.yul\":15168:15172   */\n      dup2\n        /* \"#utility.yul\":15164:15184   */\n      sub\n        /* \"#utility.yul\":15160:15161   */\n      0x00\n        /* \"#utility.yul\":15149:15158   */\n      dup4\n        /* \"#utility.yul\":15145:15162   */\n      add\n        /* \"#utility.yul\":15138:15185   */\n      mstore\n        /* \"#utility.yul\":15202:15333   */\n      tag_796\n        /* \"#utility.yul\":15328:15332   */\n      dup2\n        /* \"#utility.yul\":15202:15333   */\n      tag_569\n      jump\t// in\n    tag_796:\n        /* \"#utility.yul\":15194:15333   */\n      swap1\n      pop\n        /* \"#utility.yul\":14921:15340   */\n      swap2\n      swap1\n      pop\n      jump\t// out\n        /* \"#utility.yul\":15346:15509   */\n    tag_570:\n        /* \"#utility.yul\":15486:15501   */\n      0x53756461682053656c6573616900000000000000000000000000000000000000\n        /* \"#utility.yul\":15482:15483   */\n      0x00\n        /* \"#utility.yul\":15474:15480   */\n      dup3\n        /* \"#utility.yul\":15470:15484   */\n      add\n        /* \"#utility.yul\":15463:15502   */\n      mstore\n        /* \"#utility.yul\":15346:15509   */\n      pop\n      jump\t// out\n        /* \"#utility.yul\":15515:15881   */\n    tag_571:\n        /* \"#utility.yul\":15657:15660   */\n      0x00\n        /* \"#utility.yul\":15678:15745   */\n      tag_799\n        /* \"#utility.yul\":15742:15744   */\n      0x0d\n        /* \"#utility.yul\":15737:15740   */\n      dup4\n        /* \"#utility.yul\":15678:15745   */\n      tag_540\n      jump\t// in\n    tag_799:\n        /* \"#utility.yul\":15671:15745   */\n      swap2\n      pop\n        /* \"#utility.yul\":15754:15847   */\n      tag_800\n        /* \"#utility.yul\":15843:15846   */\n      dup3\n        /* \"#utility.yul\":15754:15847   */\n      tag_570\n      jump\t// in\n    tag_800:\n        /* \"#utility.yul\":15872:15874   */\n      0x20\n        /* \"#utility.yul\":15867:15870   */\n      dup3\n        /* \"#utility.yul\":15863:15875   */\n      add\n        /* \"#utility.yul\":15856:15875   */\n      swap1\n      pop\n        /* \"#utility.yul\":15515:15881   */\n      swap2\n      swap1\n      pop\n      jump\t// out\n        /* \"#utility.yul\":15887:16306   */\n    tag_195:\n        /* \"#utility.yul\":16053:16057   */\n      0x00\n        /* \"#utility.yul\":16091:16093   */\n      0x20\n        /* \"#utility.yul\":16080:16089   */\n      dup3\n        /* \"#utility.yul\":16076:16094   */\n      add\n        /* \"#utility.yul\":16068:16094   */\n      swap1\n      pop\n        /* \"#utility.yul\":16140:16149   */\n      dup2\n        /* \"#utility.yul\":16134:16138   */\n      dup2\n        /* \"#utility.yul\":16130:16150   */\n      sub\n        /* \"#utility.yul\":16126:16127   */\n      0x00\n        /* \"#utility.yul\":16115:16124   */\n      dup4\n        /* \"#utility.yul\":16111:16128   */\n      add\n        /* \"#utility.yul\":16104:16151   */\n      mstore\n        /* \"#utility.yul\":16168:16299   */\n      tag_802\n        /* \"#utility.yul\":16294:16298   */\n      dup2\n        /* \"#utility.yul\":16168:16299   */\n      tag_571\n      jump\t// in\n    tag_802:\n        /* \"#utility.yul\":16160:16299   */\n      swap1\n      pop\n        /* \"#utility.yul\":15887:16306   */\n      swap2\n      swap1\n      pop\n      jump\t// out\n        /* \"#utility.yul\":16312:16455   */\n    tag_572:\n        /* \"#utility.yul\":16369:16374   */\n      0x00\n        /* \"#utility.yul\":16400:16406   */\n      dup2\n        /* \"#utility.yul\":16394:16407   */\n      mload\n        /* \"#utility.yul\":16385:16407   */\n      swap1\n      pop\n        /* \"#utility.yul\":16416:16449   */\n      tag_804\n        /* \"#utility.yul\":16443:16448   */\n      dup2\n        /* \"#utility.yul\":16416:16449   */\n      tag_529\n      jump\t// in\n    tag_804:\n        /* \"#utility.yul\":16312:16455   */\n      swap3\n      swap2\n      pop\n      pop\n      jump\t// out\n        /* \"#utility.yul\":16461:16812   */\n    tag_200:\n        /* \"#utility.yul\":16531:16537   */\n      0x00\n        /* \"#utility.yul\":16580:16582   */\n      0x20\n        /* \"#utility.yul\":16568:16577   */\n      dup3\n        /* \"#utility.yul\":16559:16566   */\n      dup5\n        /* \"#utility.yul\":16555:16578   */\n      sub\n        /* \"#utility.yul\":16551:16583   */\n      slt\n        /* \"#utility.yul\":16548:16667   */\n      iszero\n      tag_806\n      jumpi\n        /* \"#utility.yul\":16586:16665   */\n      tag_807\n      tag_526\n      jump\t// in\n    tag_807:\n        /* \"#utility.yul\":16548:16667   */\n    tag_806:\n        /* \"#utility.yul\":16706:16707   */\n      0x00\n        /* \"#utility.yul\":16731:16795   */\n      tag_808\n        /* \"#utility.yul\":16787:16794   */\n      dup5\n        /* \"#utility.yul\":16778:16784   */\n      dup3\n        /* \"#utility.yul\":16767:16776   */\n      dup6\n        /* \"#utility.yul\":16763:16785   */\n      add\n        /* \"#utility.yul\":16731:16795   */\n      tag_572\n      jump\t// in\n    tag_808:\n        /* \"#utility.yul\":16721:16795   */\n      swap2\n      pop\n        /* \"#utility.yul\":16677:16805   */\n      pop\n        /* \"#utility.yul\":16461:16812   */\n      swap3\n      swap2\n      pop\n      pop\n      jump\t// out\n        /* \"#utility.yul\":16818:16976   */\n    tag_573:\n        /* \"#utility.yul\":16958:16968   */\n      0x4e6f20546f6b656e000000000000000000000000000000000000000000000000\n        /* \"#utility.yul\":16954:16955   */\n      0x00\n        /* \"#utility.yul\":16946:16952   */\n      dup3\n        /* \"#utility.yul\":16942:16956   */\n      add\n        /* \"#utility.yul\":16935:16969   */\n      mstore\n        /* \"#utility.yul\":16818:16976   */\n      pop\n      jump\t// out\n        /* \"#utility.yul\":16982:17347   */\n    tag_574:\n        /* \"#utility.yul\":17124:17127   */\n      0x00\n        /* \"#utility.yul\":17145:17211   */\n      tag_811\n        /* \"#utility.yul\":17209:17210   */\n      0x08\n        /* \"#utility.yul\":17204:17207   */\n      dup4\n        /* \"#utility.yul\":17145:17211   */\n      tag_540\n      jump\t// in\n    tag_811:\n        /* \"#utility.yul\":17138:17211   */\n      swap2\n      pop\n        /* \"#utility.yul\":17220:17313   */\n      tag_812\n        /* \"#utility.yul\":17309:17312   */\n      dup3\n        /* \"#utility.yul\":17220:17313   */\n      tag_573\n      jump\t// in\n    tag_812:\n        /* \"#utility.yul\":17338:17340   */\n      0x20\n        /* \"#utility.yul\":17333:17336   */\n      dup3\n        /* \"#utility.yul\":17329:17341   */\n      add\n        /* \"#utility.yul\":17322:17341   */\n      swap1\n      pop\n        /* \"#utility.yul\":16982:17347   */\n      swap2\n      swap1\n      pop\n      jump\t// out\n        /* \"#utility.yul\":17353:17772   */\n    tag_203:\n        /* \"#utility.yul\":17519:17523   */\n      0x00\n        /* \"#utility.yul\":17557:17559   */\n      0x20\n        /* \"#utility.yul\":17546:17555   */\n      dup3\n        /* \"#utility.yul\":17542:17560   */\n      add\n        /* \"#utility.yul\":17534:17560   */\n      swap1\n      pop\n        /* \"#utility.yul\":17606:17615   */\n      dup2\n        /* \"#utility.yul\":17600:17604   */\n      dup2\n        /* \"#utility.yul\":17596:17616   */\n      sub\n        /* \"#utility.yul\":17592:17593   */\n      0x00\n        /* \"#utility.yul\":17581:17590   */\n      dup4\n        /* \"#utility.yul\":17577:17594   */\n      add\n        /* \"#utility.yul\":17570:17617   */\n      mstore\n        /* \"#utility.yul\":17634:17765   */\n      tag_814\n        /* \"#utility.yul\":17760:17764   */\n      dup2\n        /* \"#utility.yul\":17634:17765   */\n      tag_574\n      jump\t// in\n    tag_814:\n        /* \"#utility.yul\":17626:17765   */\n      swap1\n      pop\n        /* \"#utility.yul\":17353:17772   */\n      swap2\n      swap1\n      pop\n      jump\t// out\n        /* \"#utility.yul\":17778:17958   */\n    tag_575:\n        /* \"#utility.yul\":17826:17903   */\n      0x4e487b7100000000000000000000000000000000000000000000000000000000\n        /* \"#utility.yul\":17823:17824   */\n      0x00\n        /* \"#utility.yul\":17816:17904   */\n      mstore\n        /* \"#utility.yul\":17923:17927   */\n      0x11\n        /* \"#utility.yul\":17920:17921   */\n      0x04\n        /* \"#utility.yul\":17913:17928   */\n      mstore\n        /* \"#utility.yul\":17947:17951   */\n      0x24\n        /* \"#utility.yul\":17944:17945   */\n      0x00\n        /* \"#utility.yul\":17937:17952   */\n      revert\n        /* \"#utility.yul\":17964:18155   */\n    tag_205:\n        /* \"#utility.yul\":18004:18007   */\n      0x00\n        /* \"#utility.yul\":18023:18043   */\n      tag_817\n        /* \"#utility.yul\":18041:18042   */\n      dup3\n        /* \"#utility.yul\":18023:18043   */\n      tag_528\n      jump\t// in\n    tag_817:\n        /* \"#utility.yul\":18018:18043   */\n      swap2\n      pop\n        /* \"#utility.yul\":18057:18077   */\n      tag_818\n        /* \"#utility.yul\":18075:18076   */\n      dup4\n        /* \"#utility.yul\":18057:18077   */\n      tag_528\n      jump\t// in\n    tag_818:\n        /* \"#utility.yul\":18052:18077   */\n      swap3\n      pop\n        /* \"#utility.yul\":18100:18101   */\n      dup3\n        /* \"#utility.yul\":18097:18098   */\n      dup3\n        /* \"#utility.yul\":18093:18102   */\n      add\n        /* \"#utility.yul\":18086:18102   */\n      swap1\n      pop\n        /* \"#utility.yul\":18121:18124   */\n      dup1\n        /* \"#utility.yul\":18118:18119   */\n      dup3\n        /* \"#utility.yul\":18115:18125   */\n      gt\n        /* \"#utility.yul\":18112:18148   */\n      iszero\n      tag_819\n      jumpi\n        /* \"#utility.yul\":18128:18146   */\n      tag_820\n      tag_575\n      jump\t// in\n    tag_820:\n        /* \"#utility.yul\":18112:18148   */\n    tag_819:\n        /* \"#utility.yul\":17964:18155   */\n      swap3\n      swap2\n      pop\n      pop\n      jump\t// out\n        /* \"#utility.yul\":18161:18603   */\n    tag_207:\n        /* \"#utility.yul\":18310:18314   */\n      0x00\n        /* \"#utility.yul\":18348:18350   */\n      0x60\n        /* \"#utility.yul\":18337:18346   */\n      dup3\n        /* \"#utility.yul\":18333:18351   */\n      add\n        /* \"#utility.yul\":18325:18351   */\n      swap1\n      pop\n        /* \"#utility.yul\":18361:18432   */\n      tag_822\n        /* \"#utility.yul\":18429:18430   */\n      0x00\n        /* \"#utility.yul\":18418:18427   */\n      dup4\n        /* \"#utility.yul\":18414:18431   */\n      add\n        /* \"#utility.yul\":18405:18411   */\n      dup7\n        /* \"#utility.yul\":18361:18432   */\n      tag_531\n      jump\t// in\n    tag_822:\n        /* \"#utility.yul\":18442:18514   */\n      tag_823\n        /* \"#utility.yul\":18510:18512   */\n      0x20\n        /* \"#utility.yul\":18499:18508   */\n      dup4\n        /* \"#utility.yul\":18495:18513   */\n      add\n        /* \"#utility.yul\":18486:18492   */\n      dup6\n        /* \"#utility.yul\":18442:18514   */\n      tag_538\n      jump\t// in\n    tag_823:\n        /* \"#utility.yul\":18524:18596   */\n      tag_824\n        /* \"#utility.yul\":18592:18594   */\n      0x40\n        /* \"#utility.yul\":18581:18590   */\n      dup4\n        /* \"#utility.yul\":18577:18595   */\n      add\n        /* \"#utility.yul\":18568:18574   */\n      dup5\n        /* \"#utility.yul\":18524:18596   */\n      tag_531\n      jump\t// in\n    tag_824:\n        /* \"#utility.yul\":18161:18603   */\n      swap5\n      swap4\n      pop\n      pop\n      pop\n      pop\n      jump\t// out\n        /* \"#utility.yul\":18609:18789   */\n    tag_576:\n        /* \"#utility.yul\":18657:18734   */\n      0x4e487b7100000000000000000000000000000000000000000000000000000000\n        /* \"#utility.yul\":18654:18655   */\n      0x00\n        /* \"#utility.yul\":18647:18735   */\n      mstore\n        /* \"#utility.yul\":18754:18758   */\n      0x12\n        /* \"#utility.yul\":18751:18752   */\n      0x04\n        /* \"#utility.yul\":18744:18759   */\n      mstore\n        /* \"#utility.yul\":18778:18782   */\n      0x24\n        /* \"#utility.yul\":18775:18776   */\n      0x00\n        /* \"#utility.yul\":18768:18783   */\n      revert\n        /* \"#utility.yul\":18795:18980   */\n    tag_212:\n        /* \"#utility.yul\":18835:18836   */\n      0x00\n        /* \"#utility.yul\":18852:18872   */\n      tag_827\n        /* \"#utility.yul\":18870:18871   */\n      dup3\n        /* \"#utility.yul\":18852:18872   */\n      tag_528\n      jump\t// in\n    tag_827:\n        /* \"#utility.yul\":18847:18872   */\n      swap2\n      pop\n        /* \"#utility.yul\":18886:18906   */\n      tag_828\n        /* \"#utility.yul\":18904:18905   */\n      dup4\n        /* \"#utility.yul\":18886:18906   */\n      tag_528\n      jump\t// in\n    tag_828:\n        /* \"#utility.yul\":18881:18906   */\n      swap3\n      pop\n        /* \"#utility.yul\":18925:18926   */\n      dup3\n        /* \"#utility.yul\":18915:18950   */\n      tag_829\n      jumpi\n        /* \"#utility.yul\":18930:18948   */\n      tag_830\n      tag_576\n      jump\t// in\n    tag_830:\n        /* \"#utility.yul\":18915:18950   */\n    tag_829:\n        /* \"#utility.yul\":18972:18973   */\n      dup3\n        /* \"#utility.yul\":18969:18970   */\n      dup3\n        /* \"#utility.yul\":18965:18974   */\n      div\n        /* \"#utility.yul\":18960:18974   */\n      swap1\n      pop\n        /* \"#utility.yul\":18795:18980   */\n      swap3\n      swap2\n      pop\n      pop\n      jump\t// out\n        /* \"#utility.yul\":18986:19166   */\n    tag_577:\n        /* \"#utility.yul\":19034:19111   */\n      0x4e487b7100000000000000000000000000000000000000000000000000000000\n        /* \"#utility.yul\":19031:19032   */\n      0x00\n        /* \"#utility.yul\":19024:19112   */\n      mstore\n        /* \"#utility.yul\":19131:19135   */\n      0x22\n        /* \"#utility.yul\":19128:19129   */\n      0x04\n        /* \"#utility.yul\":19121:19136   */\n      mstore\n        /* \"#utility.yul\":19155:19159   */\n      0x24\n        /* \"#utility.yul\":19152:19153   */\n      0x00\n        /* \"#utility.yul\":19145:19160   */\n      revert\n        /* \"#utility.yul\":19172:19492   */\n    tag_217:\n        /* \"#utility.yul\":19216:19222   */\n      0x00\n        /* \"#utility.yul\":19253:19254   */\n      0x02\n        /* \"#utility.yul\":19247:19251   */\n      dup3\n        /* \"#utility.yul\":19243:19255   */\n      div\n        /* \"#utility.yul\":19233:19255   */\n      swap1\n      pop\n        /* \"#utility.yul\":19300:19301   */\n      0x01\n        /* \"#utility.yul\":19294:19298   */\n      dup3\n        /* \"#utility.yul\":19290:19302   */\n      and\n        /* \"#utility.yul\":19321:19339   */\n      dup1\n        /* \"#utility.yul\":19311:19392   */\n      tag_833\n      jumpi\n        /* \"#utility.yul\":19377:19381   */\n      0x7f\n        /* \"#utility.yul\":19369:19375   */\n      dup3\n        /* \"#utility.yul\":19365:19382   */\n      and\n        /* \"#utility.yul\":19355:19382   */\n      swap2\n      pop\n        /* \"#utility.yul\":19311:19392   */\n    tag_833:\n        /* \"#utility.yul\":19439:19441   */\n      0x20\n        /* \"#utility.yul\":19431:19437   */\n      dup3\n        /* \"#utility.yul\":19428:19442   */\n      lt\n        /* \"#utility.yul\":19408:19426   */\n      dup2\n        /* \"#utility.yul\":19405:19443   */\n      sub\n        /* \"#utility.yul\":19402:19486   */\n      tag_834\n      jumpi\n        /* \"#utility.yul\":19458:19476   */\n      tag_835\n      tag_577\n      jump\t// in\n    tag_835:\n        /* \"#utility.yul\":19402:19486   */\n    tag_834:\n        /* \"#utility.yul\":19223:19492   */\n      pop\n        /* \"#utility.yul\":19172:19492   */\n      swap2\n      swap1\n      pop\n      jump\t// out\n        /* \"#utility.yul\":19498:19940   */\n    tag_229:\n        /* \"#utility.yul\":19647:19651   */\n      0x00\n        /* \"#utility.yul\":19685:19687   */\n      0x60\n        /* \"#utility.yul\":19674:19683   */\n      dup3\n        /* \"#utility.yul\":19670:19688   */\n      add\n        /* \"#utility.yul\":19662:19688   */\n      swap1\n      pop\n        /* \"#utility.yul\":19698:19769   */\n      tag_837\n        /* \"#utility.yul\":19766:19767   */\n      0x00\n        /* \"#utility.yul\":19755:19764   */\n      dup4\n        /* \"#utility.yul\":19751:19768   */\n      add\n        /* \"#utility.yul\":19742:19748   */\n      dup7\n        /* \"#utility.yul\":19698:19769   */\n      tag_538\n      jump\t// in\n    tag_837:\n        /* \"#utility.yul\":19779:19851   */\n      tag_838\n        /* \"#utility.yul\":19847:19849   */\n      0x20\n        /* \"#utility.yul\":19836:19845   */\n      dup4\n        /* \"#utility.yul\":19832:19850   */\n      add\n        /* \"#utility.yul\":19823:19829   */\n      dup6\n        /* \"#utility.yul\":19779:19851   */\n      tag_538\n      jump\t// in\n    tag_838:\n        /* \"#utility.yul\":19861:19933   */\n      tag_839\n        /* \"#utility.yul\":19929:19931   */\n      0x40\n        /* \"#utility.yul\":19918:19927   */\n      dup4\n        /* \"#utility.yul\":19914:19932   */\n      add\n        /* \"#utility.yul\":19905:19911   */\n      dup5\n        /* \"#utility.yul\":19861:19933   */\n      tag_531\n      jump\t// in\n    tag_839:\n        /* \"#utility.yul\":19498:19940   */\n      swap5\n      swap4\n      pop\n      pop\n      pop\n      pop\n      jump\t// out\n        /* \"#utility.yul\":19946:20062   */\n    tag_578:\n        /* \"#utility.yul\":20016:20037   */\n      tag_841\n        /* \"#utility.yul\":20031:20036   */\n      dup2\n        /* \"#utility.yul\":20016:20037   */\n      tag_544\n      jump\t// in\n    tag_841:\n        /* \"#utility.yul\":20009:20014   */\n      dup2\n        /* \"#utility.yul\":20006:20038   */\n      eq\n        /* \"#utility.yul\":19996:20056   */\n      tag_842\n      jumpi\n        /* \"#utility.yul\":20052:20053   */\n      0x00\n        /* \"#utility.yul\":20049:20050   */\n      dup1\n        /* \"#utility.yul\":20042:20054   */\n      revert\n        /* \"#utility.yul\":19996:20056   */\n    tag_842:\n        /* \"#utility.yul\":19946:20062   */\n      pop\n      jump\t// out\n        /* \"#utility.yul\":20068:20205   */\n    tag_579:\n        /* \"#utility.yul\":20122:20127   */\n      0x00\n        /* \"#utility.yul\":20153:20159   */\n      dup2\n        /* \"#utility.yul\":20147:20160   */\n      mload\n        /* \"#utility.yul\":20138:20160   */\n      swap1\n      pop\n        /* \"#utility.yul\":20169:20199   */\n      tag_844\n        /* \"#utility.yul\":20193:20198   */\n      dup2\n        /* \"#utility.yul\":20169:20199   */\n      tag_578\n      jump\t// in\n    tag_844:\n        /* \"#utility.yul\":20068:20205   */\n      swap3\n      swap2\n      pop\n      pop\n      jump\t// out\n        /* \"#utility.yul\":20211:20556   */\n    tag_233:\n        /* \"#utility.yul\":20278:20284   */\n      0x00\n        /* \"#utility.yul\":20327:20329   */\n      0x20\n        /* \"#utility.yul\":20315:20324   */\n      dup3\n        /* \"#utility.yul\":20306:20313   */\n      dup5\n        /* \"#utility.yul\":20302:20325   */\n      sub\n        /* \"#utility.yul\":20298:20330   */\n      slt\n        /* \"#utility.yul\":20295:20414   */\n      iszero\n      tag_846\n      jumpi\n        /* \"#utility.yul\":20333:20412   */\n      tag_847\n      tag_526\n      jump\t// in\n    tag_847:\n        /* \"#utility.yul\":20295:20414   */\n    tag_846:\n        /* \"#utility.yul\":20453:20454   */\n      0x00\n        /* \"#utility.yul\":20478:20539   */\n      tag_848\n        /* \"#utility.yul\":20531:20538   */\n      dup5\n        /* \"#utility.yul\":20522:20528   */\n      dup3\n        /* \"#utility.yul\":20511:20520   */\n      dup6\n        /* \"#utility.yul\":20507:20529   */\n      add\n        /* \"#utility.yul\":20478:20539   */\n      tag_579\n      jump\t// in\n    tag_848:\n        /* \"#utility.yul\":20468:20539   */\n      swap2\n      pop\n        /* \"#utility.yul\":20424:20549   */\n      pop\n        /* \"#utility.yul\":20211:20556   */\n      swap3\n      swap2\n      pop\n      pop\n      jump\t// out\n        /* \"#utility.yul\":20562:20726   */\n    tag_580:\n        /* \"#utility.yul\":20702:20718   */\n      0x476167616c205472616e73666572000000000000000000000000000000000000\n        /* \"#utility.yul\":20698:20699   */\n      0x00\n        /* \"#utility.yul\":20690:20696   */\n      dup3\n        /* \"#utility.yul\":20686:20700   */\n      add\n        /* \"#utility.yul\":20679:20719   */\n      mstore\n        /* \"#utility.yul\":20562:20726   */\n      pop\n      jump\t// out\n        /* \"#utility.yul\":20732:21098   */\n    tag_581:\n        /* \"#utility.yul\":20874:20877   */\n      0x00\n        /* \"#utility.yul\":20895:20962   */\n      tag_851\n        /* \"#utility.yul\":20959:20961   */\n      0x0e\n        /* \"#utility.yul\":20954:20957   */\n      dup4\n        /* \"#utility.yul\":20895:20962   */\n      tag_540\n      jump\t// in\n    tag_851:\n        /* \"#utility.yul\":20888:20962   */\n      swap2\n      pop\n        /* \"#utility.yul\":20971:21064   */\n      tag_852\n        /* \"#utility.yul\":21060:21063   */\n      dup3\n        /* \"#utility.yul\":20971:21064   */\n      tag_580\n      jump\t// in\n    tag_852:\n        /* \"#utility.yul\":21089:21091   */\n      0x20\n        /* \"#utility.yul\":21084:21087   */\n      dup3\n        /* \"#utility.yul\":21080:21092   */\n      add\n        /* \"#utility.yul\":21073:21092   */\n      swap1\n      pop\n        /* \"#utility.yul\":20732:21098   */\n      swap2\n      swap1\n      pop\n      jump\t// out\n        /* \"#utility.yul\":21104:21523   */\n    tag_236:\n        /* \"#utility.yul\":21270:21274   */\n      0x00\n        /* \"#utility.yul\":21308:21310   */\n      0x20\n        /* \"#utility.yul\":21297:21306   */\n      dup3\n        /* \"#utility.yul\":21293:21311   */\n      add\n        /* \"#utility.yul\":21285:21311   */\n      swap1\n      pop\n        /* \"#utility.yul\":21357:21366   */\n      dup2\n        /* \"#utility.yul\":21351:21355   */\n      dup2\n        /* \"#utility.yul\":21347:21367   */\n      sub\n        /* \"#utility.yul\":21343:21344   */\n      0x00\n        /* \"#utility.yul\":21332:21341   */\n      dup4\n        /* \"#utility.yul\":21328:21345   */\n      add\n        /* \"#utility.yul\":21321:21368   */\n      mstore\n        /* \"#utility.yul\":21385:21516   */\n      tag_854\n        /* \"#utility.yul\":21511:21515   */\n      dup2\n        /* \"#utility.yul\":21385:21516   */\n      tag_581\n      jump\t// in\n    tag_854:\n        /* \"#utility.yul\":21377:21516   */\n      swap1\n      pop\n        /* \"#utility.yul\":21104:21523   */\n      swap2\n      swap1\n      pop\n      jump\t// out\n        /* \"#utility.yul\":21529:21939   */\n    tag_238:\n        /* \"#utility.yul\":21569:21576   */\n      0x00\n        /* \"#utility.yul\":21592:21612   */\n      tag_856\n        /* \"#utility.yul\":21610:21611   */\n      dup3\n        /* \"#utility.yul\":21592:21612   */\n      tag_528\n      jump\t// in\n    tag_856:\n        /* \"#utility.yul\":21587:21612   */\n      swap2\n      pop\n        /* \"#utility.yul\":21626:21646   */\n      tag_857\n        /* \"#utility.yul\":21644:21645   */\n      dup4\n        /* \"#utility.yul\":21626:21646   */\n      tag_528\n      jump\t// in\n    tag_857:\n        /* \"#utility.yul\":21621:21646   */\n      swap3\n      pop\n        /* \"#utility.yul\":21681:21682   */\n      dup3\n        /* \"#utility.yul\":21678:21679   */\n      dup3\n        /* \"#utility.yul\":21674:21683   */\n      mul\n        /* \"#utility.yul\":21703:21733   */\n      tag_858\n        /* \"#utility.yul\":21721:21732   */\n      dup2\n        /* \"#utility.yul\":21703:21733   */\n      tag_528\n      jump\t// in\n    tag_858:\n        /* \"#utility.yul\":21692:21733   */\n      swap2\n      pop\n        /* \"#utility.yul\":21882:21883   */\n      dup3\n        /* \"#utility.yul\":21873:21880   */\n      dup3\n        /* \"#utility.yul\":21869:21884   */\n      div\n        /* \"#utility.yul\":21866:21867   */\n      dup5\n        /* \"#utility.yul\":21863:21885   */\n      eq\n        /* \"#utility.yul\":21843:21844   */\n      dup4\n        /* \"#utility.yul\":21836:21845   */\n      iszero\n        /* \"#utility.yul\":21816:21899   */\n      or\n        /* \"#utility.yul\":21793:21932   */\n      tag_859\n      jumpi\n        /* \"#utility.yul\":21912:21930   */\n      tag_860\n      tag_575\n      jump\t// in\n    tag_860:\n        /* \"#utility.yul\":21793:21932   */\n    tag_859:\n        /* \"#utility.yul\":21577:21939   */\n      pop\n        /* \"#utility.yul\":21529:21939   */\n      swap3\n      swap2\n      pop\n      pop\n      jump\t// out\n        /* \"#utility.yul\":21945:22320   */\n    tag_240:\n        /* \"#utility.yul\":21984:21987   */\n      0x00\n        /* \"#utility.yul\":22003:22022   */\n      tag_862\n        /* \"#utility.yul\":22020:22021   */\n      dup3\n        /* \"#utility.yul\":22003:22022   */\n      tag_562\n      jump\t// in\n    tag_862:\n        /* \"#utility.yul\":21998:22022   */\n      swap2\n      pop\n        /* \"#utility.yul\":22036:22055   */\n      tag_863\n        /* \"#utility.yul\":22053:22054   */\n      dup4\n        /* \"#utility.yul\":22036:22055   */\n      tag_562\n      jump\t// in\n    tag_863:\n        /* \"#utility.yul\":22031:22055   */\n      swap3\n      pop\n        /* \"#utility.yul\":22078:22079   */\n      dup3\n        /* \"#utility.yul\":22075:22076   */\n      dup3\n        /* \"#utility.yul\":22071:22080   */\n      add\n        /* \"#utility.yul\":22064:22080   */\n      swap1\n      pop\n        /* \"#utility.yul\":22276:22277   */\n      dup3\n        /* \"#utility.yul\":22271:22274   */\n      dup2\n        /* \"#utility.yul\":22267:22278   */\n      slt\n        /* \"#utility.yul\":22260:22279   */\n      iszero\n        /* \"#utility.yul\":22256:22257   */\n      0x00\n        /* \"#utility.yul\":22253:22254   */\n      dup4\n        /* \"#utility.yul\":22249:22258   */\n      slt\n        /* \"#utility.yul\":22245:22280   */\n      and\n        /* \"#utility.yul\":22228:22229   */\n      dup4\n        /* \"#utility.yul\":22223:22226   */\n      dup3\n        /* \"#utility.yul\":22219:22230   */\n      slt\n        /* \"#utility.yul\":22214:22215   */\n      0x00\n        /* \"#utility.yul\":22211:22212   */\n      dup5\n        /* \"#utility.yul\":22207:22216   */\n      slt\n        /* \"#utility.yul\":22200:22217   */\n      iszero\n        /* \"#utility.yul\":22196:22231   */\n      and\n        /* \"#utility.yul\":22180:22290   */\n      or\n        /* \"#utility.yul\":22177:22313   */\n      iszero\n      tag_864\n      jumpi\n        /* \"#utility.yul\":22293:22311   */\n      tag_865\n      tag_575\n      jump\t// in\n    tag_865:\n        /* \"#utility.yul\":22177:22313   */\n    tag_864:\n        /* \"#utility.yul\":21945:22320   */\n      swap3\n      swap2\n      pop\n      pop\n      jump\t// out\n        /* \"#utility.yul\":22326:22698   */\n    tag_242:\n        /* \"#utility.yul\":22365:22369   */\n      0x00\n        /* \"#utility.yul\":22385:22404   */\n      tag_867\n        /* \"#utility.yul\":22402:22403   */\n      dup3\n        /* \"#utility.yul\":22385:22404   */\n      tag_562\n      jump\t// in\n    tag_867:\n        /* \"#utility.yul\":22380:22404   */\n      swap2\n      pop\n        /* \"#utility.yul\":22418:22437   */\n      tag_868\n        /* \"#utility.yul\":22435:22436   */\n      dup4\n        /* \"#utility.yul\":22418:22437   */\n      tag_562\n      jump\t// in\n    tag_868:\n        /* \"#utility.yul\":22413:22437   */\n      swap3\n      pop\n        /* \"#utility.yul\":22461:22462   */\n      dup3\n        /* \"#utility.yul\":22458:22459   */\n      dup3\n        /* \"#utility.yul\":22454:22463   */\n      sub\n        /* \"#utility.yul\":22446:22463   */\n      swap1\n      pop\n        /* \"#utility.yul\":22655:22656   */\n      dup2\n        /* \"#utility.yul\":22649:22653   */\n      dup2\n        /* \"#utility.yul\":22645:22657   */\n      slt\n        /* \"#utility.yul\":22641:22642   */\n      0x00\n        /* \"#utility.yul\":22638:22639   */\n      dup5\n        /* \"#utility.yul\":22634:22643   */\n      slt\n        /* \"#utility.yul\":22630:22658   */\n      and\n        /* \"#utility.yul\":22613:22614   */\n      dup3\n        /* \"#utility.yul\":22607:22611   */\n      dup3\n        /* \"#utility.yul\":22603:22615   */\n      sgt\n        /* \"#utility.yul\":22598:22599   */\n      0x00\n        /* \"#utility.yul\":22595:22596   */\n      dup6\n        /* \"#utility.yul\":22591:22600   */\n      slt\n        /* \"#utility.yul\":22584:22601   */\n      iszero\n        /* \"#utility.yul\":22580:22616   */\n      and\n        /* \"#utility.yul\":22564:22668   */\n      or\n        /* \"#utility.yul\":22561:22691   */\n      iszero\n      tag_869\n      jumpi\n        /* \"#utility.yul\":22671:22689   */\n      tag_870\n      tag_575\n      jump\t// in\n    tag_870:\n        /* \"#utility.yul\":22561:22691   */\n    tag_869:\n        /* \"#utility.yul\":22326:22698   */\n      swap3\n      swap2\n      pop\n      pop\n      jump\t// out\n        /* \"#utility.yul\":22704:22865   */\n    tag_582:\n        /* \"#utility.yul\":22844:22857   */\n      0x48616e79612041646d696e000000000000000000000000000000000000000000\n        /* \"#utility.yul\":22840:22841   */\n      0x00\n        /* \"#utility.yul\":22832:22838   */\n      dup3\n        /* \"#utility.yul\":22828:22842   */\n      add\n        /* \"#utility.yul\":22821:22858   */\n      mstore\n        /* \"#utility.yul\":22704:22865   */\n      pop\n      jump\t// out\n        /* \"#utility.yul\":22871:23237   */\n    tag_583:\n        /* \"#utility.yul\":23013:23016   */\n      0x00\n        /* \"#utility.yul\":23034:23101   */\n      tag_873\n        /* \"#utility.yul\":23098:23100   */\n      0x0b\n        /* \"#utility.yul\":23093:23096   */\n      dup4\n        /* \"#utility.yul\":23034:23101   */\n      tag_540\n      jump\t// in\n    tag_873:\n        /* \"#utility.yul\":23027:23101   */\n      swap2\n      pop\n        /* \"#utility.yul\":23110:23203   */\n      tag_874\n        /* \"#utility.yul\":23199:23202   */\n      dup3\n        /* \"#utility.yul\":23110:23203   */\n      tag_582\n      jump\t// in\n    tag_874:\n        /* \"#utility.yul\":23228:23230   */\n      0x20\n        /* \"#utility.yul\":23223:23226   */\n      dup3\n        /* \"#utility.yul\":23219:23231   */\n      add\n        /* \"#utility.yul\":23212:23231   */\n      swap1\n      pop\n        /* \"#utility.yul\":22871:23237   */\n      swap2\n      swap1\n      pop\n      jump\t// out\n        /* \"#utility.yul\":23243:23662   */\n    tag_247:\n        /* \"#utility.yul\":23409:23413   */\n      0x00\n        /* \"#utility.yul\":23447:23449   */\n      0x20\n        /* \"#utility.yul\":23436:23445   */\n      dup3\n        /* \"#utility.yul\":23432:23450   */\n      add\n        /* \"#utility.yul\":23424:23450   */\n      swap1\n      pop\n        /* \"#utility.yul\":23496:23505   */\n      dup2\n        /* \"#utility.yul\":23490:23494   */\n      dup2\n        /* \"#utility.yul\":23486:23506   */\n      sub\n        /* \"#utility.yul\":23482:23483   */\n      0x00\n        /* \"#utility.yul\":23471:23480   */\n      dup4\n        /* \"#utility.yul\":23467:23484   */\n      add\n        /* \"#utility.yul\":23460:23507   */\n      mstore\n        /* \"#utility.yul\":23524:23655   */\n      tag_876\n        /* \"#utility.yul\":23650:23654   */\n      dup2\n        /* \"#utility.yul\":23524:23655   */\n      tag_583\n      jump\t// in\n    tag_876:\n        /* \"#utility.yul\":23516:23655   */\n      swap1\n      pop\n        /* \"#utility.yul\":23243:23662   */\n      swap2\n      swap1\n      pop\n      jump\t// out\n        /* \"#utility.yul\":23668:23892   */\n    tag_584:\n        /* \"#utility.yul\":23808:23842   */\n      0x47616a692068617269616e2062656c756d206469736574207669612050726f70\n        /* \"#utility.yul\":23804:23805   */\n      0x00\n        /* \"#utility.yul\":23796:23802   */\n      dup3\n        /* \"#utility.yul\":23792:23806   */\n      add\n        /* \"#utility.yul\":23785:23843   */\n      mstore\n        /* \"#utility.yul\":23877:23884   */\n      0x6f73616c21000000000000000000000000000000000000000000000000000000\n        /* \"#utility.yul\":23872:23874   */\n      0x20\n        /* \"#utility.yul\":23864:23870   */\n      dup3\n        /* \"#utility.yul\":23860:23875   */\n      add\n        /* \"#utility.yul\":23853:23885   */\n      mstore\n        /* \"#utility.yul\":23668:23892   */\n      pop\n      jump\t// out\n        /* \"#utility.yul\":23898:24264   */\n    tag_585:\n        /* \"#utility.yul\":24040:24043   */\n      0x00\n        /* \"#utility.yul\":24061:24128   */\n      tag_879\n        /* \"#utility.yul\":24125:24127   */\n      0x25\n        /* \"#utility.yul\":24120:24123   */\n      dup4\n        /* \"#utility.yul\":24061:24128   */\n      tag_540\n      jump\t// in\n    tag_879:\n        /* \"#utility.yul\":24054:24128   */\n      swap2\n      pop\n        /* \"#utility.yul\":24137:24230   */\n      tag_880\n        /* \"#utility.yul\":24226:24229   */\n      dup3\n        /* \"#utility.yul\":24137:24230   */\n      tag_584\n      jump\t// in\n    tag_880:\n        /* \"#utility.yul\":24255:24257   */\n      0x40\n        /* \"#utility.yul\":24250:24253   */\n      dup3\n        /* \"#utility.yul\":24246:24258   */\n      add\n        /* \"#utility.yul\":24239:24258   */\n      swap1\n      pop\n        /* \"#utility.yul\":23898:24264   */\n      swap2\n      swap1\n      pop\n      jump\t// out\n        /* \"#utility.yul\":24270:24689   */\n    tag_254:\n        /* \"#utility.yul\":24436:24440   */\n      0x00\n        /* \"#utility.yul\":24474:24476   */\n      0x20\n        /* \"#utility.yul\":24463:24472   */\n      dup3\n        /* \"#utility.yul\":24459:24477   */\n      add\n        /* \"#utility.yul\":24451:24477   */\n      swap1\n      pop\n        /* \"#utility.yul\":24523:24532   */\n      dup2\n        /* \"#utility.yul\":24517:24521   */\n      dup2\n        /* \"#utility.yul\":24513:24533   */\n      sub\n        /* \"#utility.yul\":24509:24510   */\n      0x00\n        /* \"#utility.yul\":24498:24507   */\n      dup4\n        /* \"#utility.yul\":24494:24511   */\n      add\n        /* \"#utility.yul\":24487:24534   */\n      mstore\n        /* \"#utility.yul\":24551:24682   */\n      tag_882\n        /* \"#utility.yul\":24677:24681   */\n      dup2\n        /* \"#utility.yul\":24551:24682   */\n      tag_585\n      jump\t// in\n    tag_882:\n        /* \"#utility.yul\":24543:24682   */\n      swap1\n      pop\n        /* \"#utility.yul\":24270:24689   */\n      swap2\n      swap1\n      pop\n      jump\t// out\n        /* \"#utility.yul\":24695:24867   */\n    tag_586:\n        /* \"#utility.yul\":24835:24859   */\n      0x4861726920696e692073756461682067616a69616e2100000000000000000000\n        /* \"#utility.yul\":24831:24832   */\n      0x00\n        /* \"#utility.yul\":24823:24829   */\n      dup3\n        /* \"#utility.yul\":24819:24833   */\n      add\n        /* \"#utility.yul\":24812:24860   */\n      mstore\n        /* \"#utility.yul\":24695:24867   */\n      pop\n      jump\t// out\n        /* \"#utility.yul\":24873:25239   */\n    tag_587:\n        /* \"#utility.yul\":25015:25018   */\n      0x00\n        /* \"#utility.yul\":25036:25103   */\n      tag_885\n        /* \"#utility.yul\":25100:25102   */\n      0x16\n        /* \"#utility.yul\":25095:25098   */\n      dup4\n        /* \"#utility.yul\":25036:25103   */\n      tag_540\n      jump\t// in\n    tag_885:\n        /* \"#utility.yul\":25029:25103   */\n      swap2\n      pop\n        /* \"#utility.yul\":25112:25205   */\n      tag_886\n        /* \"#utility.yul\":25201:25204   */\n      dup3\n        /* \"#utility.yul\":25112:25205   */\n      tag_586\n      jump\t// in\n    tag_886:\n        /* \"#utility.yul\":25230:25232   */\n      0x20\n        /* \"#utility.yul\":25225:25228   */\n      dup3\n        /* \"#utility.yul\":25221:25233   */\n      add\n        /* \"#utility.yul\":25214:25233   */\n      swap1\n      pop\n        /* \"#utility.yul\":24873:25239   */\n      swap2\n      swap1\n      pop\n      jump\t// out\n        /* \"#utility.yul\":25245:25664   */\n    tag_258:\n        /* \"#utility.yul\":25411:25415   */\n      0x00\n        /* \"#utility.yul\":25449:25451   */\n      0x20\n        /* \"#utility.yul\":25438:25447   */\n      dup3\n        /* \"#utility.yul\":25434:25452   */\n      add\n        /* \"#utility.yul\":25426:25452   */\n      swap1\n      pop\n        /* \"#utility.yul\":25498:25507   */\n      dup2\n        /* \"#utility.yul\":25492:25496   */\n      dup2\n        /* \"#utility.yul\":25488:25508   */\n      sub\n        /* \"#utility.yul\":25484:25485   */\n      0x00\n        /* \"#utility.yul\":25473:25482   */\n      dup4\n        /* \"#utility.yul\":25469:25486   */\n      add\n        /* \"#utility.yul\":25462:25509   */\n      mstore\n        /* \"#utility.yul\":25526:25657   */\n      tag_888\n        /* \"#utility.yul\":25652:25656   */\n      dup2\n        /* \"#utility.yul\":25526:25657   */\n      tag_587\n      jump\t// in\n    tag_888:\n        /* \"#utility.yul\":25518:25657   */\n      swap1\n      pop\n        /* \"#utility.yul\":25245:25664   */\n      swap2\n      swap1\n      pop\n      jump\t// out\n        /* \"#utility.yul\":25670:25831   */\n    tag_588:\n        /* \"#utility.yul\":25810:25823   */\n      0x47414a492048415249414e000000000000000000000000000000000000000000\n        /* \"#utility.yul\":25806:25807   */\n      0x00\n        /* \"#utility.yul\":25798:25804   */\n      dup3\n        /* \"#utility.yul\":25794:25808   */\n      add\n        /* \"#utility.yul\":25787:25824   */\n      mstore\n        /* \"#utility.yul\":25670:25831   */\n      pop\n      jump\t// out\n        /* \"#utility.yul\":25837:26203   */\n    tag_589:\n        /* \"#utility.yul\":25979:25982   */\n      0x00\n        /* \"#utility.yul\":26000:26067   */\n      tag_891\n        /* \"#utility.yul\":26064:26066   */\n      0x0b\n        /* \"#utility.yul\":26059:26062   */\n      dup4\n        /* \"#utility.yul\":26000:26067   */\n      tag_540\n      jump\t// in\n    tag_891:\n        /* \"#utility.yul\":25993:26067   */\n      swap2\n      pop\n        /* \"#utility.yul\":26076:26169   */\n      tag_892\n        /* \"#utility.yul\":26165:26168   */\n      dup3\n        /* \"#utility.yul\":26076:26169   */\n      tag_588\n      jump\t// in\n    tag_892:\n        /* \"#utility.yul\":26194:26196   */\n      0x20\n        /* \"#utility.yul\":26189:26192   */\n      dup3\n        /* \"#utility.yul\":26185:26197   */\n      add\n        /* \"#utility.yul\":26178:26197   */\n      swap1\n      pop\n        /* \"#utility.yul\":25837:26203   */\n      swap2\n      swap1\n      pop\n      jump\t// out\n        /* \"#utility.yul\":26209:26376   */\n    tag_590:\n        /* \"#utility.yul\":26349:26368   */\n      0x47616a6920527574696e2048617269616e000000000000000000000000000000\n        /* \"#utility.yul\":26345:26346   */\n      0x00\n        /* \"#utility.yul\":26337:26343   */\n      dup3\n        /* \"#utility.yul\":26333:26347   */\n      add\n        /* \"#utility.yul\":26326:26369   */\n      mstore\n        /* \"#utility.yul\":26209:26376   */\n      pop\n      jump\t// out\n        /* \"#utility.yul\":26382:26748   */\n    tag_591:\n        /* \"#utility.yul\":26524:26527   */\n      0x00\n        /* \"#utility.yul\":26545:26612   */\n      tag_895\n        /* \"#utility.yul\":26609:26611   */\n      0x11\n        /* \"#utility.yul\":26604:26607   */\n      dup4\n        /* \"#utility.yul\":26545:26612   */\n      tag_540\n      jump\t// in\n    tag_895:\n        /* \"#utility.yul\":26538:26612   */\n      swap2\n      pop\n        /* \"#utility.yul\":26621:26714   */\n      tag_896\n        /* \"#utility.yul\":26710:26713   */\n      dup3\n        /* \"#utility.yul\":26621:26714   */\n      tag_590\n      jump\t// in\n    tag_896:\n        /* \"#utility.yul\":26739:26741   */\n      0x20\n        /* \"#utility.yul\":26734:26737   */\n      dup3\n        /* \"#utility.yul\":26730:26742   */\n      add\n        /* \"#utility.yul\":26723:26742   */\n      swap1\n      pop\n        /* \"#utility.yul\":26382:26748   */\n      swap2\n      swap1\n      pop\n      jump\t// out\n        /* \"#utility.yul\":26754:27701   */\n    tag_262:\n        /* \"#utility.yul\":27077:27081   */\n      0x00\n        /* \"#utility.yul\":27115:27118   */\n      0x80\n        /* \"#utility.yul\":27104:27113   */\n      dup3\n        /* \"#utility.yul\":27100:27119   */\n      add\n        /* \"#utility.yul\":27092:27119   */\n      swap1\n      pop\n        /* \"#utility.yul\":27165:27174   */\n      dup2\n        /* \"#utility.yul\":27159:27163   */\n      dup2\n        /* \"#utility.yul\":27155:27175   */\n      sub\n        /* \"#utility.yul\":27151:27152   */\n      0x00\n        /* \"#utility.yul\":27140:27149   */\n      dup4\n        /* \"#utility.yul\":27136:27153   */\n      add\n        /* \"#utility.yul\":27129:27176   */\n      mstore\n        /* \"#utility.yul\":27193:27324   */\n      tag_898\n        /* \"#utility.yul\":27319:27323   */\n      dup2\n        /* \"#utility.yul\":27193:27324   */\n      tag_589\n      jump\t// in\n    tag_898:\n        /* \"#utility.yul\":27185:27324   */\n      swap1\n      pop\n        /* \"#utility.yul\":27334:27406   */\n      tag_899\n        /* \"#utility.yul\":27402:27404   */\n      0x20\n        /* \"#utility.yul\":27391:27400   */\n      dup4\n        /* \"#utility.yul\":27387:27405   */\n      add\n        /* \"#utility.yul\":27378:27384   */\n      dup6\n        /* \"#utility.yul\":27334:27406   */\n      tag_538\n      jump\t// in\n    tag_899:\n        /* \"#utility.yul\":27416:27488   */\n      tag_900\n        /* \"#utility.yul\":27484:27486   */\n      0x40\n        /* \"#utility.yul\":27473:27482   */\n      dup4\n        /* \"#utility.yul\":27469:27487   */\n      add\n        /* \"#utility.yul\":27460:27466   */\n      dup5\n        /* \"#utility.yul\":27416:27488   */\n      tag_531\n      jump\t// in\n    tag_900:\n        /* \"#utility.yul\":27535:27544   */\n      dup2\n        /* \"#utility.yul\":27529:27533   */\n      dup2\n        /* \"#utility.yul\":27525:27545   */\n      sub\n        /* \"#utility.yul\":27520:27522   */\n      0x60\n        /* \"#utility.yul\":27509:27518   */\n      dup4\n        /* \"#utility.yul\":27505:27523   */\n      add\n        /* \"#utility.yul\":27498:27546   */\n      mstore\n        /* \"#utility.yul\":27563:27694   */\n      tag_901\n        /* \"#utility.yul\":27689:27693   */\n      dup2\n        /* \"#utility.yul\":27563:27694   */\n      tag_591\n      jump\t// in\n    tag_901:\n        /* \"#utility.yul\":27555:27694   */\n      swap1\n      pop\n        /* \"#utility.yul\":26754:27701   */\n      swap4\n      swap3\n      pop\n      pop\n      pop\n      jump\t// out\n        /* \"#utility.yul\":27707:27862   */\n    tag_592:\n        /* \"#utility.yul\":27847:27854   */\n      0x4e6968696c000000000000000000000000000000000000000000000000000000\n        /* \"#utility.yul\":27843:27844   */\n      0x00\n        /* \"#utility.yul\":27835:27841   */\n      dup3\n        /* \"#utility.yul\":27831:27845   */\n      add\n        /* \"#utility.yul\":27824:27855   */\n      mstore\n        /* \"#utility.yul\":27707:27862   */\n      pop\n      jump\t// out\n        /* \"#utility.yul\":27868:28233   */\n    tag_593:\n        /* \"#utility.yul\":28010:28013   */\n      0x00\n        /* \"#utility.yul\":28031:28097   */\n      tag_904\n        /* \"#utility.yul\":28095:28096   */\n      0x05\n        /* \"#utility.yul\":28090:28093   */\n      dup4\n        /* \"#utility.yul\":28031:28097   */\n      tag_540\n      jump\t// in\n    tag_904:\n        /* \"#utility.yul\":28024:28097   */\n      swap2\n      pop\n        /* \"#utility.yul\":28106:28199   */\n      tag_905\n        /* \"#utility.yul\":28195:28198   */\n      dup3\n        /* \"#utility.yul\":28106:28199   */\n      tag_592\n      jump\t// in\n    tag_905:\n        /* \"#utility.yul\":28224:28226   */\n      0x20\n        /* \"#utility.yul\":28219:28222   */\n      dup3\n        /* \"#utility.yul\":28215:28227   */\n      add\n        /* \"#utility.yul\":28208:28227   */\n      swap1\n      pop\n        /* \"#utility.yul\":27868:28233   */\n      swap2\n      swap1\n      pop\n      jump\t// out\n        /* \"#utility.yul\":28239:28658   */\n    tag_286:\n        /* \"#utility.yul\":28405:28409   */\n      0x00\n        /* \"#utility.yul\":28443:28445   */\n      0x20\n        /* \"#utility.yul\":28432:28441   */\n      dup3\n        /* \"#utility.yul\":28428:28446   */\n      add\n        /* \"#utility.yul\":28420:28446   */\n      swap1\n      pop\n        /* \"#utility.yul\":28492:28501   */\n      dup2\n        /* \"#utility.yul\":28486:28490   */\n      dup2\n        /* \"#utility.yul\":28482:28502   */\n      sub\n        /* \"#utility.yul\":28478:28479   */\n      0x00\n        /* \"#utility.yul\":28467:28476   */\n      dup4\n        /* \"#utility.yul\":28463:28480   */\n      add\n        /* \"#utility.yul\":28456:28503   */\n      mstore\n        /* \"#utility.yul\":28520:28651   */\n      tag_907\n        /* \"#utility.yul\":28646:28650   */\n      dup2\n        /* \"#utility.yul\":28520:28651   */\n      tag_593\n      jump\t// in\n    tag_907:\n        /* \"#utility.yul\":28512:28651   */\n      swap1\n      pop\n        /* \"#utility.yul\":28239:28658   */\n      swap2\n      swap1\n      pop\n      jump\t// out\n        /* \"#utility.yul\":28664:28996   */\n    tag_290:\n        /* \"#utility.yul\":28785:28789   */\n      0x00\n        /* \"#utility.yul\":28823:28825   */\n      0x40\n        /* \"#utility.yul\":28812:28821   */\n      dup3\n        /* \"#utility.yul\":28808:28826   */\n      add\n        /* \"#utility.yul\":28800:28826   */\n      swap1\n      pop\n        /* \"#utility.yul\":28836:28907   */\n      tag_909\n        /* \"#utility.yul\":28904:28905   */\n      0x00\n        /* \"#utility.yul\":28893:28902   */\n      dup4\n        /* \"#utility.yul\":28889:28906   */\n      add\n        /* \"#utility.yul\":28880:28886   */\n      dup6\n        /* \"#utility.yul\":28836:28907   */\n      tag_538\n      jump\t// in\n    tag_909:\n        /* \"#utility.yul\":28917:28989   */\n      tag_910\n        /* \"#utility.yul\":28985:28987   */\n      0x20\n        /* \"#utility.yul\":28974:28983   */\n      dup4\n        /* \"#utility.yul\":28970:28988   */\n      add\n        /* \"#utility.yul\":28961:28967   */\n      dup5\n        /* \"#utility.yul\":28917:28989   */\n      tag_531\n      jump\t// in\n    tag_910:\n        /* \"#utility.yul\":28664:28996   */\n      swap4\n      swap3\n      pop\n      pop\n      pop\n      jump\t// out\n        /* \"#utility.yul\":29002:29157   */\n    tag_594:\n        /* \"#utility.yul\":29142:29149   */\n      0x476167616c000000000000000000000000000000000000000000000000000000\n        /* \"#utility.yul\":29138:29139   */\n      0x00\n        /* \"#utility.yul\":29130:29136   */\n      dup3\n        /* \"#utility.yul\":29126:29140   */\n      add\n        /* \"#utility.yul\":29119:29150   */\n      mstore\n        /* \"#utility.yul\":29002:29157   */\n      pop\n      jump\t// out\n        /* \"#utility.yul\":29163:29528   */\n    tag_595:\n        /* \"#utility.yul\":29305:29308   */\n      0x00\n        /* \"#utility.yul\":29326:29392   */\n      tag_913\n        /* \"#utility.yul\":29390:29391   */\n      0x05\n        /* \"#utility.yul\":29385:29388   */\n      dup4\n        /* \"#utility.yul\":29326:29392   */\n      tag_540\n      jump\t// in\n    tag_913:\n        /* \"#utility.yul\":29319:29392   */\n      swap2\n      pop\n        /* \"#utility.yul\":29401:29494   */\n      tag_914\n        /* \"#utility.yul\":29490:29493   */\n      dup3\n        /* \"#utility.yul\":29401:29494   */\n      tag_594\n      jump\t// in\n    tag_914:\n        /* \"#utility.yul\":29519:29521   */\n      0x20\n        /* \"#utility.yul\":29514:29517   */\n      dup3\n        /* \"#utility.yul\":29510:29522   */\n      add\n        /* \"#utility.yul\":29503:29522   */\n      swap1\n      pop\n        /* \"#utility.yul\":29163:29528   */\n      swap2\n      swap1\n      pop\n      jump\t// out\n        /* \"#utility.yul\":29534:29953   */\n    tag_296:\n        /* \"#utility.yul\":29700:29704   */\n      0x00\n        /* \"#utility.yul\":29738:29740   */\n      0x20\n        /* \"#utility.yul\":29727:29736   */\n      dup3\n        /* \"#utility.yul\":29723:29741   */\n      add\n        /* \"#utility.yul\":29715:29741   */\n      swap1\n      pop\n        /* \"#utility.yul\":29787:29796   */\n      dup2\n        /* \"#utility.yul\":29781:29785   */\n      dup2\n        /* \"#utility.yul\":29777:29797   */\n      sub\n        /* \"#utility.yul\":29773:29774   */\n      0x00\n        /* \"#utility.yul\":29762:29771   */\n      dup4\n        /* \"#utility.yul\":29758:29775   */\n      add\n        /* \"#utility.yul\":29751:29798   */\n      mstore\n        /* \"#utility.yul\":29815:29946   */\n      tag_916\n        /* \"#utility.yul\":29941:29945   */\n      dup2\n        /* \"#utility.yul\":29815:29946   */\n      tag_595\n      jump\t// in\n    tag_916:\n        /* \"#utility.yul\":29807:29946   */\n      swap1\n      pop\n        /* \"#utility.yul\":29534:29953   */\n      swap2\n      swap1\n      pop\n      jump\t// out\n        /* \"#utility.yul\":29959:30153   */\n    tag_309:\n        /* \"#utility.yul\":29999:30003   */\n      0x00\n        /* \"#utility.yul\":30019:30039   */\n      tag_918\n        /* \"#utility.yul\":30037:30038   */\n      dup3\n        /* \"#utility.yul\":30019:30039   */\n      tag_528\n      jump\t// in\n    tag_918:\n        /* \"#utility.yul\":30014:30039   */\n      swap2\n      pop\n        /* \"#utility.yul\":30053:30073   */\n      tag_919\n        /* \"#utility.yul\":30071:30072   */\n      dup4\n        /* \"#utility.yul\":30053:30073   */\n      tag_528\n      jump\t// in\n    tag_919:\n        /* \"#utility.yul\":30048:30073   */\n      swap3\n      pop\n        /* \"#utility.yul\":30097:30098   */\n      dup3\n        /* \"#utility.yul\":30094:30095   */\n      dup3\n        /* \"#utility.yul\":30090:30099   */\n      sub\n        /* \"#utility.yul\":30082:30099   */\n      swap1\n      pop\n        /* \"#utility.yul\":30121:30122   */\n      dup2\n        /* \"#utility.yul\":30115:30119   */\n      dup2\n        /* \"#utility.yul\":30112:30123   */\n      gt\n        /* \"#utility.yul\":30109:30146   */\n      iszero\n      tag_920\n      jumpi\n        /* \"#utility.yul\":30126:30144   */\n      tag_921\n      tag_575\n      jump\t// in\n    tag_921:\n        /* \"#utility.yul\":30109:30146   */\n    tag_920:\n        /* \"#utility.yul\":29959:30153   */\n      swap3\n      swap2\n      pop\n      pop\n      jump\t// out\n        /* \"#utility.yul\":30159:30319   */\n    tag_596:\n        /* \"#utility.yul\":30299:30311   */\n      0x4d6573696e204d61746900000000000000000000000000000000000000000000\n        /* \"#utility.yul\":30295:30296   */\n      0x00\n        /* \"#utility.yul\":30287:30293   */\n      dup3\n        /* \"#utility.yul\":30283:30297   */\n      add\n        /* \"#utility.yul\":30276:30312   */\n      mstore\n        /* \"#utility.yul\":30159:30319   */\n      pop\n      jump\t// out\n        /* \"#utility.yul\":30325:30691   */\n    tag_597:\n        /* \"#utility.yul\":30467:30470   */\n      0x00\n        /* \"#utility.yul\":30488:30555   */\n      tag_924\n        /* \"#utility.yul\":30552:30554   */\n      0x0a\n        /* \"#utility.yul\":30547:30550   */\n      dup4\n        /* \"#utility.yul\":30488:30555   */\n      tag_540\n      jump\t// in\n    tag_924:\n        /* \"#utility.yul\":30481:30555   */\n      swap2\n      pop\n        /* \"#utility.yul\":30564:30657   */\n      tag_925\n        /* \"#utility.yul\":30653:30656   */\n      dup3\n        /* \"#utility.yul\":30564:30657   */\n      tag_596\n      jump\t// in\n    tag_925:\n        /* \"#utility.yul\":30682:30684   */\n      0x20\n        /* \"#utility.yul\":30677:30680   */\n      dup3\n        /* \"#utility.yul\":30673:30685   */\n      add\n        /* \"#utility.yul\":30666:30685   */\n      swap1\n      pop\n        /* \"#utility.yul\":30325:30691   */\n      swap2\n      swap1\n      pop\n      jump\t// out\n        /* \"#utility.yul\":30697:31116   */\n    tag_335:\n        /* \"#utility.yul\":30863:30867   */\n      0x00\n        /* \"#utility.yul\":30901:30903   */\n      0x20\n        /* \"#utility.yul\":30890:30899   */\n      dup3\n        /* \"#utility.yul\":30886:30904   */\n      add\n        /* \"#utility.yul\":30878:30904   */\n      swap1\n      pop\n        /* \"#utility.yul\":30950:30959   */\n      dup2\n        /* \"#utility.yul\":30944:30948   */\n      dup2\n        /* \"#utility.yul\":30940:30960   */\n      sub\n        /* \"#utility.yul\":30936:30937   */\n      0x00\n        /* \"#utility.yul\":30925:30934   */\n      dup4\n        /* \"#utility.yul\":30921:30938   */\n      add\n        /* \"#utility.yul\":30914:30961   */\n      mstore\n        /* \"#utility.yul\":30978:31109   */\n      tag_927\n        /* \"#utility.yul\":31104:31108   */\n      dup2\n        /* \"#utility.yul\":30978:31109   */\n      tag_597\n      jump\t// in\n    tag_927:\n        /* \"#utility.yul\":30970:31109   */\n      swap1\n      pop\n        /* \"#utility.yul\":30697:31116   */\n      swap2\n      swap1\n      pop\n      jump\t// out\n        /* \"#utility.yul\":31122:31283   */\n    tag_598:\n        /* \"#utility.yul\":31262:31275   */\n      0x476167616c204261796172000000000000000000000000000000000000000000\n        /* \"#utility.yul\":31258:31259   */\n      0x00\n        /* \"#utility.yul\":31250:31256   */\n      dup3\n        /* \"#utility.yul\":31246:31260   */\n      add\n        /* \"#utility.yul\":31239:31276   */\n      mstore\n        /* \"#utility.yul\":31122:31283   */\n      pop\n      jump\t// out\n        /* \"#utility.yul\":31289:31655   */\n    tag_599:\n        /* \"#utility.yul\":31431:31434   */\n      0x00\n        /* \"#utility.yul\":31452:31519   */\n      tag_930\n        /* \"#utility.yul\":31516:31518   */\n      0x0b\n        /* \"#utility.yul\":31511:31514   */\n      dup4\n        /* \"#utility.yul\":31452:31519   */\n      tag_540\n      jump\t// in\n    tag_930:\n        /* \"#utility.yul\":31445:31519   */\n      swap2\n      pop\n        /* \"#utility.yul\":31528:31621   */\n      tag_931\n        /* \"#utility.yul\":31617:31620   */\n      dup3\n        /* \"#utility.yul\":31528:31621   */\n      tag_598\n      jump\t// in\n    tag_931:\n        /* \"#utility.yul\":31646:31648   */\n      0x20\n        /* \"#utility.yul\":31641:31644   */\n      dup3\n        /* \"#utility.yul\":31637:31649   */\n      add\n        /* \"#utility.yul\":31630:31649   */\n      swap1\n      pop\n        /* \"#utility.yul\":31289:31655   */\n      swap2\n      swap1\n      pop\n      jump\t// out\n        /* \"#utility.yul\":31661:32080   */\n    tag_342:\n        /* \"#utility.yul\":31827:31831   */\n      0x00\n        /* \"#utility.yul\":31865:31867   */\n      0x20\n        /* \"#utility.yul\":31854:31863   */\n      dup3\n        /* \"#utility.yul\":31850:31868   */\n      add\n        /* \"#utility.yul\":31842:31868   */\n      swap1\n      pop\n        /* \"#utility.yul\":31914:31923   */\n      dup2\n        /* \"#utility.yul\":31908:31912   */\n      dup2\n        /* \"#utility.yul\":31904:31924   */\n      sub\n        /* \"#utility.yul\":31900:31901   */\n      0x00\n        /* \"#utility.yul\":31889:31898   */\n      dup4\n        /* \"#utility.yul\":31885:31902   */\n      add\n        /* \"#utility.yul\":31878:31925   */\n      mstore\n        /* \"#utility.yul\":31942:32073   */\n      tag_933\n        /* \"#utility.yul\":32068:32072   */\n      dup2\n        /* \"#utility.yul\":31942:32073   */\n      tag_599\n      jump\t// in\n    tag_933:\n        /* \"#utility.yul\":31934:32073   */\n      swap1\n      pop\n        /* \"#utility.yul\":31661:32080   */\n      swap2\n      swap1\n      pop\n      jump\t// out\n        /* \"#utility.yul\":32086:32418   */\n    tag_365:\n        /* \"#utility.yul\":32207:32211   */\n      0x00\n        /* \"#utility.yul\":32245:32247   */\n      0x40\n        /* \"#utility.yul\":32234:32243   */\n      dup3\n        /* \"#utility.yul\":32230:32248   */\n      add\n        /* \"#utility.yul\":32222:32248   */\n      swap1\n      pop\n        /* \"#utility.yul\":32258:32329   */\n      tag_935\n        /* \"#utility.yul\":32326:32327   */\n      0x00\n        /* \"#utility.yul\":32315:32324   */\n      dup4\n        /* \"#utility.yul\":32311:32328   */\n      add\n        /* \"#utility.yul\":32302:32308   */\n      dup6\n        /* \"#utility.yul\":32258:32329   */\n      tag_531\n      jump\t// in\n    tag_935:\n        /* \"#utility.yul\":32339:32411   */\n      tag_936\n        /* \"#utility.yul\":32407:32409   */\n      0x20\n        /* \"#utility.yul\":32396:32405   */\n      dup4\n        /* \"#utility.yul\":32392:32410   */\n      add\n        /* \"#utility.yul\":32383:32389   */\n      dup5\n        /* \"#utility.yul\":32339:32411   */\n      tag_531\n      jump\t// in\n    tag_936:\n        /* \"#utility.yul\":32086:32418   */\n      swap4\n      swap3\n      pop\n      pop\n      pop\n      jump\t// out\n        /* \"#utility.yul\":32424:32582   */\n    tag_600:\n        /* \"#utility.yul\":32564:32574   */\n      0x536f6c64204f7574000000000000000000000000000000000000000000000000\n        /* \"#utility.yul\":32560:32561   */\n      0x00\n        /* \"#utility.yul\":32552:32558   */\n      dup3\n        /* \"#utility.yul\":32548:32562   */\n      add\n        /* \"#utility.yul\":32541:32575   */\n      mstore\n        /* \"#utility.yul\":32424:32582   */\n      pop\n      jump\t// out\n        /* \"#utility.yul\":32588:32953   */\n    tag_601:\n        /* \"#utility.yul\":32730:32733   */\n      0x00\n        /* \"#utility.yul\":32751:32817   */\n      tag_939\n        /* \"#utility.yul\":32815:32816   */\n      0x08\n        /* \"#utility.yul\":32810:32813   */\n      dup4\n        /* \"#utility.yul\":32751:32817   */\n      tag_540\n      jump\t// in\n    tag_939:\n        /* \"#utility.yul\":32744:32817   */\n      swap2\n      pop\n        /* \"#utility.yul\":32826:32919   */\n      tag_940\n        /* \"#utility.yul\":32915:32918   */\n      dup3\n        /* \"#utility.yul\":32826:32919   */\n      tag_600\n      jump\t// in\n    tag_940:\n        /* \"#utility.yul\":32944:32946   */\n      0x20\n        /* \"#utility.yul\":32939:32942   */\n      dup3\n        /* \"#utility.yul\":32935:32947   */\n      add\n        /* \"#utility.yul\":32928:32947   */\n      swap1\n      pop\n        /* \"#utility.yul\":32588:32953   */\n      swap2\n      swap1\n      pop\n      jump\t// out\n        /* \"#utility.yul\":32959:33378   */\n    tag_377:\n        /* \"#utility.yul\":33125:33129   */\n      0x00\n        /* \"#utility.yul\":33163:33165   */\n      0x20\n        /* \"#utility.yul\":33152:33161   */\n      dup3\n        /* \"#utility.yul\":33148:33166   */\n      add\n        /* \"#utility.yul\":33140:33166   */\n      swap1\n      pop\n        /* \"#utility.yul\":33212:33221   */\n      dup2\n        /* \"#utility.yul\":33206:33210   */\n      dup2\n        /* \"#utility.yul\":33202:33222   */\n      sub\n        /* \"#utility.yul\":33198:33199   */\n      0x00\n        /* \"#utility.yul\":33187:33196   */\n      dup4\n        /* \"#utility.yul\":33183:33200   */\n      add\n        /* \"#utility.yul\":33176:33223   */\n      mstore\n        /* \"#utility.yul\":33240:33371   */\n      tag_942\n        /* \"#utility.yul\":33366:33370   */\n      dup2\n        /* \"#utility.yul\":33240:33371   */\n      tag_601\n      jump\t// in\n    tag_942:\n        /* \"#utility.yul\":33232:33371   */\n      swap1\n      pop\n        /* \"#utility.yul\":32959:33378   */\n      swap2\n      swap1\n      pop\n      jump\t// out\n        /* \"#utility.yul\":33384:33550   */\n    tag_602:\n        /* \"#utility.yul\":33524:33542   */\n      0x476167616c204261796172204944525400000000000000000000000000000000\n        /* \"#utility.yul\":33520:33521   */\n      0x00\n        /* \"#utility.yul\":33512:33518   */\n      dup3\n        /* \"#utility.yul\":33508:33522   */\n      add\n        /* \"#utility.yul\":33501:33543   */\n      mstore\n        /* \"#utility.yul\":33384:33550   */\n      pop\n      jump\t// out\n        /* \"#utility.yul\":33556:33922   */\n    tag_603:\n        /* \"#utility.yul\":33698:33701   */\n      0x00\n        /* \"#utility.yul\":33719:33786   */\n      tag_945\n        /* \"#utility.yul\":33783:33785   */\n      0x10\n        /* \"#utility.yul\":33778:33781   */\n      dup4\n        /* \"#utility.yul\":33719:33786   */\n      tag_540\n      jump\t// in\n    tag_945:\n        /* \"#utility.yul\":33712:33786   */\n      swap2\n      pop\n        /* \"#utility.yul\":33795:33888   */\n      tag_946\n        /* \"#utility.yul\":33884:33887   */\n      dup3\n        /* \"#utility.yul\":33795:33888   */\n      tag_602\n      jump\t// in\n    tag_946:\n        /* \"#utility.yul\":33913:33915   */\n      0x20\n        /* \"#utility.yul\":33908:33911   */\n      dup3\n        /* \"#utility.yul\":33904:33916   */\n      add\n        /* \"#utility.yul\":33897:33916   */\n      swap1\n      pop\n        /* \"#utility.yul\":33556:33922   */\n      swap2\n      swap1\n      pop\n      jump\t// out\n        /* \"#utility.yul\":33928:34347   */\n    tag_387:\n        /* \"#utility.yul\":34094:34098   */\n      0x00\n        /* \"#utility.yul\":34132:34134   */\n      0x20\n        /* \"#utility.yul\":34121:34130   */\n      dup3\n        /* \"#utility.yul\":34117:34135   */\n      add\n        /* \"#utility.yul\":34109:34135   */\n      swap1\n      pop\n        /* \"#utility.yul\":34181:34190   */\n      dup2\n        /* \"#utility.yul\":34175:34179   */\n      dup2\n        /* \"#utility.yul\":34171:34191   */\n      sub\n        /* \"#utility.yul\":34167:34168   */\n      0x00\n        /* \"#utility.yul\":34156:34165   */\n      dup4\n        /* \"#utility.yul\":34152:34169   */\n      add\n        /* \"#utility.yul\":34145:34192   */\n      mstore\n        /* \"#utility.yul\":34209:34340   */\n      tag_948\n        /* \"#utility.yul\":34335:34339   */\n      dup2\n        /* \"#utility.yul\":34209:34340   */\n      tag_603\n      jump\t// in\n    tag_948:\n        /* \"#utility.yul\":34201:34340   */\n      swap1\n      pop\n        /* \"#utility.yul\":33928:34347   */\n      swap2\n      swap1\n      pop\n      jump\t// out\n        /* \"#utility.yul\":34353:34520   */\n    tag_604:\n        /* \"#utility.yul\":34493:34512   */\n      0x476167616c204b6972696d20536168616d000000000000000000000000000000\n        /* \"#utility.yul\":34489:34490   */\n      0x00\n        /* \"#utility.yul\":34481:34487   */\n      dup3\n        /* \"#utility.yul\":34477:34491   */\n      add\n        /* \"#utility.yul\":34470:34513   */\n      mstore\n        /* \"#utility.yul\":34353:34520   */\n      pop\n      jump\t// out\n        /* \"#utility.yul\":34526:34892   */\n    tag_605:\n        /* \"#utility.yul\":34668:34671   */\n      0x00\n        /* \"#utility.yul\":34689:34756   */\n      tag_951\n        /* \"#utility.yul\":34753:34755   */\n      0x11\n        /* \"#utility.yul\":34748:34751   */\n      dup4\n        /* \"#utility.yul\":34689:34756   */\n      tag_540\n      jump\t// in\n    tag_951:\n        /* \"#utility.yul\":34682:34756   */\n      swap2\n      pop\n        /* \"#utility.yul\":34765:34858   */\n      tag_952\n        /* \"#utility.yul\":34854:34857   */\n      dup3\n        /* \"#utility.yul\":34765:34858   */\n      tag_604\n      jump\t// in\n    tag_952:\n        /* \"#utility.yul\":34883:34885   */\n      0x20\n        /* \"#utility.yul\":34878:34881   */\n      dup3\n        /* \"#utility.yul\":34874:34886   */\n      add\n        /* \"#utility.yul\":34867:34886   */\n      swap1\n      pop\n        /* \"#utility.yul\":34526:34892   */\n      swap2\n      swap1\n      pop\n      jump\t// out\n        /* \"#utility.yul\":34898:35317   */\n    tag_394:\n        /* \"#utility.yul\":35064:35068   */\n      0x00\n        /* \"#utility.yul\":35102:35104   */\n      0x20\n        /* \"#utility.yul\":35091:35100   */\n      dup3\n        /* \"#utility.yul\":35087:35105   */\n      add\n        /* \"#utility.yul\":35079:35105   */\n      swap1\n      pop\n        /* \"#utility.yul\":35151:35160   */\n      dup2\n        /* \"#utility.yul\":35145:35149   */\n      dup2\n        /* \"#utility.yul\":35141:35161   */\n      sub\n        /* \"#utility.yul\":35137:35138   */\n      0x00\n        /* \"#utility.yul\":35126:35135   */\n      dup4\n        /* \"#utility.yul\":35122:35139   */\n      add\n        /* \"#utility.yul\":35115:35162   */\n      mstore\n        /* \"#utility.yul\":35179:35310   */\n      tag_954\n        /* \"#utility.yul\":35305:35309   */\n      dup2\n        /* \"#utility.yul\":35179:35310   */\n      tag_605\n      jump\t// in\n    tag_954:\n        /* \"#utility.yul\":35171:35310   */\n      swap1\n      pop\n        /* \"#utility.yul\":34898:35317   */\n      swap2\n      swap1\n      pop\n      jump\t// out\n        /* \"#utility.yul\":35323:35765   */\n    tag_399:\n        /* \"#utility.yul\":35472:35476   */\n      0x00\n        /* \"#utility.yul\":35510:35512   */\n      0x60\n        /* \"#utility.yul\":35499:35508   */\n      dup3\n        /* \"#utility.yul\":35495:35513   */\n      add\n        /* \"#utility.yul\":35487:35513   */\n      swap1\n      pop\n        /* \"#utility.yul\":35523:35594   */\n      tag_956\n        /* \"#utility.yul\":35591:35592   */\n      0x00\n        /* \"#utility.yul\":35580:35589   */\n      dup4\n        /* \"#utility.yul\":35576:35593   */\n      add\n        /* \"#utility.yul\":35567:35573   */\n      dup7\n        /* \"#utility.yul\":35523:35594   */\n      tag_538\n      jump\t// in\n    tag_956:\n        /* \"#utility.yul\":35604:35676   */\n      tag_957\n        /* \"#utility.yul\":35672:35674   */\n      0x20\n        /* \"#utility.yul\":35661:35670   */\n      dup4\n        /* \"#utility.yul\":35657:35675   */\n      add\n        /* \"#utility.yul\":35648:35654   */\n      dup6\n        /* \"#utility.yul\":35604:35676   */\n      tag_531\n      jump\t// in\n    tag_957:\n        /* \"#utility.yul\":35686:35758   */\n      tag_958\n        /* \"#utility.yul\":35754:35756   */\n      0x40\n        /* \"#utility.yul\":35743:35752   */\n      dup4\n        /* \"#utility.yul\":35739:35757   */\n      add\n        /* \"#utility.yul\":35730:35736   */\n      dup5\n        /* \"#utility.yul\":35686:35758   */\n      tag_531\n      jump\t// in\n    tag_958:\n        /* \"#utility.yul\":35323:35765   */\n      swap5\n      swap4\n      pop\n      pop\n      pop\n      pop\n      jump\t// out\n        /* \"#utility.yul\":35771:36004   */\n    tag_405:\n        /* \"#utility.yul\":35810:35813   */\n      0x00\n        /* \"#utility.yul\":35833:35857   */\n      tag_960\n        /* \"#utility.yul\":35851:35856   */\n      dup3\n        /* \"#utility.yul\":35833:35857   */\n      tag_528\n      jump\t// in\n    tag_960:\n        /* \"#utility.yul\":35824:35857   */\n      swap2\n      pop\n        /* \"#utility.yul\":35879:35945   */\n      0xffffffffffffffffffffffffffffffffffffffffffffffffffffffffffffffff\n        /* \"#utility.yul\":35872:35877   */\n      dup3\n        /* \"#utility.yul\":35869:35946   */\n      sub\n        /* \"#utility.yul\":35866:35969   */\n      tag_961\n      jumpi\n        /* \"#utility.yul\":35949:35967   */\n      tag_962\n      tag_575\n      jump\t// in\n    tag_962:\n        /* \"#utility.yul\":35866:35969   */\n    tag_961:\n        /* \"#utility.yul\":35996:35997   */\n      0x01\n        /* \"#utility.yul\":35989:35994   */\n      dup3\n        /* \"#utility.yul\":35985:35998   */\n      add\n        /* \"#utility.yul\":35978:35998   */\n      swap1\n      pop\n        /* \"#utility.yul\":35771:36004   */\n      swap2\n      swap1\n      pop\n      jump\t// out\n        /* \"#utility.yul\":36010:36151   */\n    tag_606:\n        /* \"#utility.yul\":36059:36063   */\n      0x00\n        /* \"#utility.yul\":36082:36085   */\n      dup2\n        /* \"#utility.yul\":36074:36085   */\n      swap1\n      pop\n        /* \"#utility.yul\":36105:36108   */\n      dup2\n        /* \"#utility.yul\":36102:36103   */\n      0x00\n        /* \"#utility.yul\":36095:36109   */\n      mstore\n        /* \"#utility.yul\":36139:36143   */\n      0x20\n        /* \"#utility.yul\":36136:36137   */\n      0x00\n        /* \"#utility.yul\":36126:36144   */\n      keccak256\n        /* \"#utility.yul\":36118:36144   */\n      swap1\n      pop\n        /* \"#utility.yul\":36010:36151   */\n      swap2\n      swap1\n      pop\n      jump\t// out\n        /* \"#utility.yul\":36157:36250   */\n    tag_607:\n        /* \"#utility.yul\":36194:36200   */\n      0x00\n        /* \"#utility.yul\":36241:36243   */\n      0x20\n        /* \"#utility.yul\":36236:36238   */\n      0x1f\n        /* \"#utility.yul\":36229:36234   */\n      dup4\n        /* \"#utility.yul\":36225:36239   */\n      add\n        /* \"#utility.yul\":36221:36244   */\n      div\n        /* \"#utility.yul\":36211:36244   */\n      swap1\n      pop\n        /* \"#utility.yul\":36157:36250   */\n      swap2\n      swap1\n      pop\n      jump\t// out\n        /* \"#utility.yul\":36256:36363   */\n    tag_608:\n        /* \"#utility.yul\":36300:36308   */\n      0x00\n        /* \"#utility.yul\":36350:36355   */\n      dup3\n        /* \"#utility.yul\":36344:36348   */\n      dup3\n        /* \"#utility.yul\":36340:36356   */\n      shl\n        /* \"#utility.yul\":36319:36356   */\n      swap1\n      pop\n        /* \"#utility.yul\":36256:36363   */\n      swap3\n      swap2\n      pop\n      pop\n      jump\t// out\n        /* \"#utility.yul\":36369:36762   */\n    tag_609:\n        /* \"#utility.yul\":36438:36444   */\n      0x00\n        /* \"#utility.yul\":36488:36489   */\n      0x08\n        /* \"#utility.yul\":36476:36486   */\n      dup4\n        /* \"#utility.yul\":36472:36490   */\n      mul\n        /* \"#utility.yul\":36511:36608   */\n      tag_967\n        /* \"#utility.yul\":36541:36607   */\n      0xffffffffffffffffffffffffffffffffffffffffffffffffffffffffffffffff\n        /* \"#utility.yul\":36530:36539   */\n      dup3\n        /* \"#utility.yul\":36511:36608   */\n      tag_608\n      jump\t// in\n    tag_967:\n        /* \"#utility.yul\":36629:36668   */\n      tag_968\n        /* \"#utility.yul\":36659:36667   */\n      dup7\n        /* \"#utility.yul\":36648:36657   */\n      dup4\n        /* \"#utility.yul\":36629:36668   */\n      tag_608\n      jump\t// in\n    tag_968:\n        /* \"#utility.yul\":36617:36668   */\n      swap6\n      pop\n        /* \"#utility.yul\":36701:36705   */\n      dup1\n        /* \"#utility.yul\":36697:36706   */\n      not\n        /* \"#utility.yul\":36690:36695   */\n      dup5\n        /* \"#utility.yul\":36686:36707   */\n      and\n        /* \"#utility.yul\":36677:36707   */\n      swap4\n      pop\n        /* \"#utility.yul\":36750:36754   */\n      dup1\n        /* \"#utility.yul\":36740:36748   */\n      dup7\n        /* \"#utility.yul\":36736:36755   */\n      and\n        /* \"#utility.yul\":36729:36734   */\n      dup5\n        /* \"#utility.yul\":36726:36756   */\n      or\n        /* \"#utility.yul\":36716:36756   */\n      swap3\n      pop\n        /* \"#utility.yul\":36445:36762   */\n      pop\n      pop\n        /* \"#utility.yul\":36369:36762   */\n      swap4\n      swap3\n      pop\n      pop\n      pop\n      jump\t// out\n        /* \"#utility.yul\":36768:36910   */\n    tag_610:\n        /* \"#utility.yul\":36818:36827   */\n      0x00\n        /* \"#utility.yul\":36851:36904   */\n      tag_970\n        /* \"#utility.yul\":36869:36903   */\n      tag_971\n        /* \"#utility.yul\":36878:36902   */\n      tag_972\n        /* \"#utility.yul\":36896:36901   */\n      dup5\n        /* \"#utility.yul\":36878:36902   */\n      tag_528\n      jump\t// in\n    tag_972:\n        /* \"#utility.yul\":36869:36903   */\n      tag_548\n      jump\t// in\n    tag_971:\n        /* \"#utility.yul\":36851:36904   */\n      tag_528\n      jump\t// in\n    tag_970:\n        /* \"#utility.yul\":36838:36904   */\n      swap1\n      pop\n        /* \"#utility.yul\":36768:36910   */\n      swap2\n      swap1\n      pop\n      jump\t// out\n        /* \"#utility.yul\":36916:36991   */\n    tag_611:\n        /* \"#utility.yul\":36959:36962   */\n      0x00\n        /* \"#utility.yul\":36980:36985   */\n      dup2\n        /* \"#utility.yul\":36973:36985   */\n      swap1\n      pop\n        /* \"#utility.yul\":36916:36991   */\n      swap2\n      swap1\n      pop\n      jump\t// out\n        /* \"#utility.yul\":36997:37266   */\n    tag_612:\n        /* \"#utility.yul\":37107:37146   */\n      tag_975\n        /* \"#utility.yul\":37138:37145   */\n      dup4\n        /* \"#utility.yul\":37107:37146   */\n      tag_610\n      jump\t// in\n    tag_975:\n        /* \"#utility.yul\":37168:37259   */\n      tag_976\n        /* \"#utility.yul\":37217:37258   */\n      tag_977\n        /* \"#utility.yul\":37241:37257   */\n      dup3\n        /* \"#utility.yul\":37217:37258   */\n      tag_611\n      jump\t// in\n    tag_977:\n        /* \"#utility.yul\":37209:37215   */\n      dup5\n        /* \"#utility.yul\":37202:37206   */\n      dup5\n        /* \"#utility.yul\":37196:37207   */\n      sload\n        /* \"#utility.yul\":37168:37259   */\n      tag_609\n      jump\t// in\n    tag_976:\n        /* \"#utility.yul\":37162:37166   */\n      dup3\n        /* \"#utility.yul\":37155:37260   */\n      sstore\n        /* \"#utility.yul\":37073:37266   */\n      pop\n        /* \"#utility.yul\":36997:37266   */\n      pop\n      pop\n      pop\n      jump\t// out\n        /* \"#utility.yul\":37272:37345   */\n    tag_613:\n        /* \"#utility.yul\":37317:37320   */\n      0x00\n        /* \"#utility.yul\":37272:37345   */\n      swap1\n      jump\t// out\n        /* \"#utility.yul\":37351:37540   */\n    tag_614:\n        /* \"#utility.yul\":37428:37460   */\n      tag_980\n      tag_613\n      jump\t// in\n    tag_980:\n        /* \"#utility.yul\":37469:37534   */\n      tag_981\n        /* \"#utility.yul\":37527:37533   */\n      dup2\n        /* \"#utility.yul\":37519:37525   */\n      dup5\n        /* \"#utility.yul\":37513:37517   */\n      dup5\n        /* \"#utility.yul\":37469:37534   */\n      tag_612\n      jump\t// in\n    tag_981:\n        /* \"#utility.yul\":37404:37540   */\n      pop\n        /* \"#utility.yul\":37351:37540   */\n      pop\n      pop\n      jump\t// out\n        /* \"#utility.yul\":37546:37732   */\n    tag_615:\n        /* \"#utility.yul\":37606:37726   */\n    tag_983:\n        /* \"#utility.yul\":37623:37626   */\n      dup2\n        /* \"#utility.yul\":37616:37621   */\n      dup2\n        /* \"#utility.yul\":37613:37627   */\n      lt\n        /* \"#utility.yul\":37606:37726   */\n      iszero\n      tag_985\n      jumpi\n        /* \"#utility.yul\":37677:37716   */\n      tag_986\n        /* \"#utility.yul\":37714:37715   */\n      0x00\n        /* \"#utility.yul\":37707:37712   */\n      dup3\n        /* \"#utility.yul\":37677:37716   */\n      tag_614\n      jump\t// in\n    tag_986:\n        /* \"#utility.yul\":37650:37651   */\n      0x01\n        /* \"#utility.yul\":37643:37648   */\n      dup2\n        /* \"#utility.yul\":37639:37652   */\n      add\n        /* \"#utility.yul\":37630:37652   */\n      swap1\n      pop\n        /* \"#utility.yul\":37606:37726   */\n      jump(tag_983)\n    tag_985:\n        /* \"#utility.yul\":37546:37732   */\n      pop\n      pop\n      jump\t// out\n        /* \"#utility.yul\":37738:38281   */\n    tag_616:\n        /* \"#utility.yul\":37839:37841   */\n      0x1f\n        /* \"#utility.yul\":37834:37837   */\n      dup3\n        /* \"#utility.yul\":37831:37842   */\n      gt\n        /* \"#utility.yul\":37828:38274   */\n      iszero\n      tag_988\n      jumpi\n        /* \"#utility.yul\":37873:37911   */\n      tag_989\n        /* \"#utility.yul\":37905:37910   */\n      dup2\n        /* \"#utility.yul\":37873:37911   */\n      tag_606\n      jump\t// in\n    tag_989:\n        /* \"#utility.yul\":37957:37986   */\n      tag_990\n        /* \"#utility.yul\":37975:37985   */\n      dup5\n        /* \"#utility.yul\":37957:37986   */\n      tag_607\n      jump\t// in\n    tag_990:\n        /* \"#utility.yul\":37947:37955   */\n      dup2\n        /* \"#utility.yul\":37943:37987   */\n      add\n        /* \"#utility.yul\":38140:38142   */\n      0x20\n        /* \"#utility.yul\":38128:38138   */\n      dup6\n        /* \"#utility.yul\":38125:38143   */\n      lt\n        /* \"#utility.yul\":38122:38171   */\n      iszero\n      tag_991\n      jumpi\n        /* \"#utility.yul\":38161:38169   */\n      dup2\n        /* \"#utility.yul\":38146:38169   */\n      swap1\n      pop\n        /* \"#utility.yul\":38122:38171   */\n    tag_991:\n        /* \"#utility.yul\":38184:38264   */\n      tag_992\n        /* \"#utility.yul\":38240:38262   */\n      tag_993\n        /* \"#utility.yul\":38258:38261   */\n      dup6\n        /* \"#utility.yul\":38240:38262   */\n      tag_607\n      jump\t// in\n    tag_993:\n        /* \"#utility.yul\":38230:38238   */\n      dup4\n        /* \"#utility.yul\":38226:38263   */\n      add\n        /* \"#utility.yul\":38213:38224   */\n      dup3\n        /* \"#utility.yul\":38184:38264   */\n      tag_615\n      jump\t// in\n    tag_992:\n        /* \"#utility.yul\":37843:38274   */\n      pop\n      pop\n        /* \"#utility.yul\":37828:38274   */\n    tag_988:\n        /* \"#utility.yul\":37738:38281   */\n      pop\n      pop\n      pop\n      jump\t// out\n        /* \"#utility.yul\":38287:38404   */\n    tag_617:\n        /* \"#utility.yul\":38341:38349   */\n      0x00\n        /* \"#utility.yul\":38391:38396   */\n      dup3\n        /* \"#utility.yul\":38385:38389   */\n      dup3\n        /* \"#utility.yul\":38381:38397   */\n      shr\n        /* \"#utility.yul\":38360:38397   */\n      swap1\n      pop\n        /* \"#utility.yul\":38287:38404   */\n      swap3\n      swap2\n      pop\n      pop\n      jump\t// out\n        /* \"#utility.yul\":38410:38579   */\n    tag_618:\n        /* \"#utility.yul\":38454:38460   */\n      0x00\n        /* \"#utility.yul\":38487:38538   */\n      tag_996\n        /* \"#utility.yul\":38535:38536   */\n      0x00\n        /* \"#utility.yul\":38531:38537   */\n      not\n        /* \"#utility.yul\":38523:38528   */\n      dup5\n        /* \"#utility.yul\":38520:38521   */\n      0x08\n        /* \"#utility.yul\":38516:38529   */\n      mul\n        /* \"#utility.yul\":38487:38538   */\n      tag_617\n      jump\t// in\n    tag_996:\n        /* \"#utility.yul\":38483:38539   */\n      not\n        /* \"#utility.yul\":38568:38572   */\n      dup1\n        /* \"#utility.yul\":38562:38566   */\n      dup4\n        /* \"#utility.yul\":38558:38573   */\n      and\n        /* \"#utility.yul\":38548:38573   */\n      swap2\n      pop\n        /* \"#utility.yul\":38461:38579   */\n      pop\n        /* \"#utility.yul\":38410:38579   */\n      swap3\n      swap2\n      pop\n      pop\n      jump\t// out\n        /* \"#utility.yul\":38584:38879   */\n    tag_619:\n        /* \"#utility.yul\":38660:38664   */\n      0x00\n        /* \"#utility.yul\":38806:38835   */\n      tag_998\n        /* \"#utility.yul\":38831:38834   */\n      dup4\n        /* \"#utility.yul\":38825:38829   */\n      dup4\n        /* \"#utility.yul\":38806:38835   */\n      tag_618\n      jump\t// in\n    tag_998:\n        /* \"#utility.yul\":38798:38835   */\n      swap2\n      pop\n        /* \"#utility.yul\":38868:38871   */\n      dup3\n        /* \"#utility.yul\":38865:38866   */\n      0x02\n        /* \"#utility.yul\":38861:38872   */\n      mul\n        /* \"#utility.yul\":38855:38859   */\n      dup3\n        /* \"#utility.yul\":38852:38873   */\n      or\n        /* \"#utility.yul\":38844:38873   */\n      swap1\n      pop\n        /* \"#utility.yul\":38584:38879   */\n      swap3\n      swap2\n      pop\n      pop\n      jump\t// out\n        /* \"#utility.yul\":38884:40279   */\n    tag_407:\n        /* \"#utility.yul\":39001:39038   */\n      tag_1000\n        /* \"#utility.yul\":39034:39037   */\n      dup3\n        /* \"#utility.yul\":39001:39038   */\n      tag_539\n      jump\t// in\n    tag_1000:\n        /* \"#utility.yul\":39103:39121   */\n      0xffffffffffffffff\n        /* \"#utility.yul\":39095:39101   */\n      dup2\n        /* \"#utility.yul\":39092:39122   */\n      gt\n        /* \"#utility.yul\":39089:39145   */\n      iszero\n      tag_1001\n      jumpi\n        /* \"#utility.yul\":39125:39143   */\n      tag_1002\n      tag_555\n      jump\t// in\n    tag_1002:\n        /* \"#utility.yul\":39089:39145   */\n    tag_1001:\n        /* \"#utility.yul\":39169:39207   */\n      tag_1003\n        /* \"#utility.yul\":39201:39205   */\n      dup3\n        /* \"#utility.yul\":39195:39206   */\n      sload\n        /* \"#utility.yul\":39169:39207   */\n      tag_217\n      jump\t// in\n    tag_1003:\n        /* \"#utility.yul\":39254:39321   */\n      tag_1004\n        /* \"#utility.yul\":39314:39320   */\n      dup3\n        /* \"#utility.yul\":39306:39312   */\n      dup3\n        /* \"#utility.yul\":39300:39304   */\n      dup6\n        /* \"#utility.yul\":39254:39321   */\n      tag_616\n      jump\t// in\n    tag_1004:\n        /* \"#utility.yul\":39348:39349   */\n      0x00\n        /* \"#utility.yul\":39372:39376   */\n      0x20\n        /* \"#utility.yul\":39359:39376   */\n      swap1\n      pop\n        /* \"#utility.yul\":39404:39406   */\n      0x1f\n        /* \"#utility.yul\":39396:39402   */\n      dup4\n        /* \"#utility.yul\":39393:39407   */\n      gt\n        /* \"#utility.yul\":39421:39422   */\n      0x01\n        /* \"#utility.yul\":39416:40034   */\n      dup2\n      eq\n      tag_1006\n      jumpi\n        /* \"#utility.yul\":40078:40079   */\n      0x00\n        /* \"#utility.yul\":40095:40101   */\n      dup5\n        /* \"#utility.yul\":40092:40169   */\n      iszero\n      tag_1007\n      jumpi\n        /* \"#utility.yul\":40144:40153   */\n      dup3\n        /* \"#utility.yul\":40139:40142   */\n      dup8\n        /* \"#utility.yul\":40135:40154   */\n      add\n        /* \"#utility.yul\":40129:40155   */\n      mload\n        /* \"#utility.yul\":40120:40155   */\n      swap1\n      pop\n        /* \"#utility.yul\":40092:40169   */\n    tag_1007:\n        /* \"#utility.yul\":40195:40262   */\n      tag_1008\n        /* \"#utility.yul\":40255:40261   */\n      dup6\n        /* \"#utility.yul\":40248:40253   */\n      dup3\n        /* \"#utility.yul\":40195:40262   */\n      tag_619\n      jump\t// in\n    tag_1008:\n        /* \"#utility.yul\":40189:40193   */\n      dup7\n        /* \"#utility.yul\":40182:40263   */\n      sstore\n        /* \"#utility.yul\":40051:40273   */\n      pop\n        /* \"#utility.yul\":39386:40273   */\n      jump(tag_1005)\n        /* \"#utility.yul\":39416:40034   */\n    tag_1006:\n        /* \"#utility.yul\":39468:39472   */\n      0x1f\n        /* \"#utility.yul\":39464:39473   */\n      not\n        /* \"#utility.yul\":39456:39462   */\n      dup5\n        /* \"#utility.yul\":39452:39474   */\n      and\n        /* \"#utility.yul\":39502:39539   */\n      tag_1009\n        /* \"#utility.yul\":39534:39538   */\n      dup7\n        /* \"#utility.yul\":39502:39539   */\n      tag_606\n      jump\t// in\n    tag_1009:\n        /* \"#utility.yul\":39561:39562   */\n      0x00\n        /* \"#utility.yul\":39575:39783   */\n    tag_1010:\n        /* \"#utility.yul\":39589:39596   */\n      dup3\n        /* \"#utility.yul\":39586:39587   */\n      dup2\n        /* \"#utility.yul\":39583:39597   */\n      lt\n        /* \"#utility.yul\":39575:39783   */\n      iszero\n      tag_1012\n      jumpi\n        /* \"#utility.yul\":39668:39677   */\n      dup5\n        /* \"#utility.yul\":39663:39666   */\n      dup10\n        /* \"#utility.yul\":39659:39678   */\n      add\n        /* \"#utility.yul\":39653:39679   */\n      mload\n        /* \"#utility.yul\":39645:39651   */\n      dup3\n        /* \"#utility.yul\":39638:39680   */\n      sstore\n        /* \"#utility.yul\":39719:39720   */\n      0x01\n        /* \"#utility.yul\":39711:39717   */\n      dup3\n        /* \"#utility.yul\":39707:39721   */\n      add\n        /* \"#utility.yul\":39697:39721   */\n      swap2\n      pop\n        /* \"#utility.yul\":39766:39768   */\n      0x20\n        /* \"#utility.yul\":39755:39764   */\n      dup6\n        /* \"#utility.yul\":39751:39769   */\n      add\n        /* \"#utility.yul\":39738:39769   */\n      swap5\n      pop\n        /* \"#utility.yul\":39612:39616   */\n      0x20\n        /* \"#utility.yul\":39609:39610   */\n      dup2\n        /* \"#utility.yul\":39605:39617   */\n      add\n        /* \"#utility.yul\":39600:39617   */\n      swap1\n      pop\n        /* \"#utility.yul\":39575:39783   */\n      jump(tag_1010)\n    tag_1012:\n        /* \"#utility.yul\":39811:39817   */\n      dup7\n        /* \"#utility.yul\":39802:39809   */\n      dup4\n        /* \"#utility.yul\":39799:39818   */\n      lt\n        /* \"#utility.yul\":39796:39975   */\n      iszero\n      tag_1013\n      jumpi\n        /* \"#utility.yul\":39869:39878   */\n      dup5\n        /* \"#utility.yul\":39864:39867   */\n      dup10\n        /* \"#utility.yul\":39860:39879   */\n      add\n        /* \"#utility.yul\":39854:39880   */\n      mload\n        /* \"#utility.yul\":39912:39960   */\n      tag_1014\n        /* \"#utility.yul\":39954:39958   */\n      0x1f\n        /* \"#utility.yul\":39946:39952   */\n      dup10\n        /* \"#utility.yul\":39942:39959   */\n      and\n        /* \"#utility.yul\":39931:39940   */\n      dup3\n        /* \"#utility.yul\":39912:39960   */\n      tag_618\n      jump\t// in\n    tag_1014:\n        /* \"#utility.yul\":39904:39910   */\n      dup4\n        /* \"#utility.yul\":39897:39961   */\n      sstore\n        /* \"#utility.yul\":39819:39975   */\n      pop\n        /* \"#utility.yul\":39796:39975   */\n    tag_1013:\n        /* \"#utility.yul\":40021:40022   */\n      0x01\n        /* \"#utility.yul\":40017:40018   */\n      0x02\n        /* \"#utility.yul\":40009:40015   */\n      dup9\n        /* \"#utility.yul\":40005:40019   */\n      mul\n        /* \"#utility.yul\":40001:40023   */\n      add\n        /* \"#utility.yul\":39995:39999   */\n      dup9\n        /* \"#utility.yul\":39988:40024   */\n      sstore\n        /* \"#utility.yul\":39423:40034   */\n      pop\n      pop\n      pop\n        /* \"#utility.yul\":39386:40273   */\n    tag_1005:\n      pop\n        /* \"#utility.yul\":38976:40279   */\n      pop\n      pop\n      pop\n        /* \"#utility.yul\":38884:40279   */\n      pop\n      pop\n      jump\t// out\n        /* \"#utility.yul\":40285:40448   */\n    tag_620:\n        /* \"#utility.yul\":40425:40440   */\n      0x56656e646f7220496c6567616c00000000000000000000000000000000000000\n        /* \"#utility.yul\":40421:40422   */\n      0x00\n        /* \"#utility.yul\":40413:40419   */\n      dup3\n        /* \"#utility.yul\":40409:40423   */\n      add\n        /* \"#utility.yul\":40402:40441   */\n      mstore\n        /* \"#utility.yul\":40285:40448   */\n      pop\n      jump\t// out\n        /* \"#utility.yul\":40454:40820   */\n    tag_621:\n        /* \"#utility.yul\":40596:40599   */\n      0x00\n        /* \"#utility.yul\":40617:40684   */\n      tag_1017\n        /* \"#utility.yul\":40681:40683   */\n      0x0d\n        /* \"#utility.yul\":40676:40679   */\n      dup4\n        /* \"#utility.yul\":40617:40684   */\n      tag_540\n      jump\t// in\n    tag_1017:\n        /* \"#utility.yul\":40610:40684   */\n      swap2\n      pop\n        /* \"#utility.yul\":40693:40786   */\n      tag_1018\n        /* \"#utility.yul\":40782:40785   */\n      dup3\n        /* \"#utility.yul\":40693:40786   */\n      tag_620\n      jump\t// in\n    tag_1018:\n        /* \"#utility.yul\":40811:40813   */\n      0x20\n        /* \"#utility.yul\":40806:40809   */\n      dup3\n        /* \"#utility.yul\":40802:40814   */\n      add\n        /* \"#utility.yul\":40795:40814   */\n      swap1\n      pop\n        /* \"#utility.yul\":40454:40820   */\n      swap2\n      swap1\n      pop\n      jump\t// out\n        /* \"#utility.yul\":40826:41245   */\n    tag_426:\n        /* \"#utility.yul\":40992:40996   */\n      0x00\n        /* \"#utility.yul\":41030:41032   */\n      0x20\n        /* \"#utility.yul\":41019:41028   */\n      dup3\n        /* \"#utility.yul\":41015:41033   */\n      add\n        /* \"#utility.yul\":41007:41033   */\n      swap1\n      pop\n        /* \"#utility.yul\":41079:41088   */\n      dup2\n        /* \"#utility.yul\":41073:41077   */\n      dup2\n        /* \"#utility.yul\":41069:41089   */\n      sub\n        /* \"#utility.yul\":41065:41066   */\n      0x00\n        /* \"#utility.yul\":41054:41063   */\n      dup4\n        /* \"#utility.yul\":41050:41067   */\n      add\n        /* \"#utility.yul\":41043:41090   */\n      mstore\n        /* \"#utility.yul\":41107:41238   */\n      tag_1020\n        /* \"#utility.yul\":41233:41237   */\n      dup2\n        /* \"#utility.yul\":41107:41238   */\n      tag_621\n      jump\t// in\n    tag_1020:\n        /* \"#utility.yul\":41099:41238   */\n      swap1\n      pop\n        /* \"#utility.yul\":40826:41245   */\n      swap2\n      swap1\n      pop\n      jump\t// out\n        /* \"#utility.yul\":41251:41419   */\n    tag_622:\n        /* \"#utility.yul\":41391:41411   */\n      0x44616e612047726f777468204b7572616e670000000000000000000000000000\n        /* \"#utility.yul\":41387:41388   */\n      0x00\n        /* \"#utility.yul\":41379:41385   */\n      dup3\n        /* \"#utility.yul\":41375:41389   */\n      add\n        /* \"#utility.yul\":41368:41412   */\n      mstore\n        /* \"#utility.yul\":41251:41419   */\n      pop\n      jump\t// out\n        /* \"#utility.yul\":41425:41791   */\n    tag_623:\n        /* \"#utility.yul\":41567:41570   */\n      0x00\n        /* \"#utility.yul\":41588:41655   */\n      tag_1023\n        /* \"#utility.yul\":41652:41654   */\n      0x12\n        /* \"#utility.yul\":41647:41650   */\n      dup4\n        /* \"#utility.yul\":41588:41655   */\n      tag_540\n      jump\t// in\n    tag_1023:\n        /* \"#utility.yul\":41581:41655   */\n      swap2\n      pop\n        /* \"#utility.yul\":41664:41757   */\n      tag_1024\n        /* \"#utility.yul\":41753:41756   */\n      dup3\n        /* \"#utility.yul\":41664:41757   */\n      tag_622\n      jump\t// in\n    tag_1024:\n        /* \"#utility.yul\":41782:41784   */\n      0x20\n        /* \"#utility.yul\":41777:41780   */\n      dup3\n        /* \"#utility.yul\":41773:41785   */\n      add\n        /* \"#utility.yul\":41766:41785   */\n      swap1\n      pop\n        /* \"#utility.yul\":41425:41791   */\n      swap2\n      swap1\n      pop\n      jump\t// out\n        /* \"#utility.yul\":41797:42216   */\n    tag_429:\n        /* \"#utility.yul\":41963:41967   */\n      0x00\n        /* \"#utility.yul\":42001:42003   */\n      0x20\n        /* \"#utility.yul\":41990:41999   */\n      dup3\n        /* \"#utility.yul\":41986:42004   */\n      add\n        /* \"#utility.yul\":41978:42004   */\n      swap1\n      pop\n        /* \"#utility.yul\":42050:42059   */\n      dup2\n        /* \"#utility.yul\":42044:42048   */\n      dup2\n        /* \"#utility.yul\":42040:42060   */\n      sub\n        /* \"#utility.yul\":42036:42037   */\n      0x00\n        /* \"#utility.yul\":42025:42034   */\n      dup4\n        /* \"#utility.yul\":42021:42038   */\n      add\n        /* \"#utility.yul\":42014:42061   */\n      mstore\n        /* \"#utility.yul\":42078:42209   */\n      tag_1026\n        /* \"#utility.yul\":42204:42208   */\n      dup2\n        /* \"#utility.yul\":42078:42209   */\n      tag_623\n      jump\t// in\n    tag_1026:\n        /* \"#utility.yul\":42070:42209   */\n      swap1\n      pop\n        /* \"#utility.yul\":41797:42216   */\n      swap2\n      swap1\n      pop\n      jump\t// out\n        /* \"#utility.yul\":42222:42382   */\n    tag_624:\n        /* \"#utility.yul\":42362:42374   */\n      0x42454c49204d4553494e00000000000000000000000000000000000000000000\n        /* \"#utility.yul\":42358:42359   */\n      0x00\n        /* \"#utility.yul\":42350:42356   */\n      dup3\n        /* \"#utility.yul\":42346:42360   */\n      add\n        /* \"#utility.yul\":42339:42375   */\n      mstore\n        /* \"#utility.yul\":42222:42382   */\n      pop\n      jump\t// out\n        /* \"#utility.yul\":42388:42754   */\n    tag_625:\n        /* \"#utility.yul\":42530:42533   */\n      0x00\n        /* \"#utility.yul\":42551:42618   */\n      tag_1029\n        /* \"#utility.yul\":42615:42617   */\n      0x0a\n        /* \"#utility.yul\":42610:42613   */\n      dup4\n        /* \"#utility.yul\":42551:42618   */\n      tag_540\n      jump\t// in\n    tag_1029:\n        /* \"#utility.yul\":42544:42618   */\n      swap2\n      pop\n        /* \"#utility.yul\":42627:42720   */\n      tag_1030\n        /* \"#utility.yul\":42716:42719   */\n      dup3\n        /* \"#utility.yul\":42627:42720   */\n      tag_624\n      jump\t// in\n    tag_1030:\n        /* \"#utility.yul\":42745:42747   */\n      0x20\n        /* \"#utility.yul\":42740:42743   */\n      dup3\n        /* \"#utility.yul\":42736:42748   */\n      add\n        /* \"#utility.yul\":42729:42748   */\n      swap1\n      pop\n        /* \"#utility.yul\":42388:42754   */\n      swap2\n      swap1\n      pop\n      jump\t// out\n        /* \"#utility.yul\":42784:43615   */\n    tag_626:\n        /* \"#utility.yul\":42869:42872   */\n      0x00\n        /* \"#utility.yul\":42906:42911   */\n      dup2\n        /* \"#utility.yul\":42900:42912   */\n      sload\n        /* \"#utility.yul\":42935:42971   */\n      tag_1032\n        /* \"#utility.yul\":42961:42970   */\n      dup2\n        /* \"#utility.yul\":42935:42971   */\n      tag_217\n      jump\t// in\n    tag_1032:\n        /* \"#utility.yul\":42987:43058   */\n      tag_1033\n        /* \"#utility.yul\":43051:43057   */\n      dup2\n        /* \"#utility.yul\":43046:43049   */\n      dup7\n        /* \"#utility.yul\":42987:43058   */\n      tag_540\n      jump\t// in\n    tag_1033:\n        /* \"#utility.yul\":42980:43058   */\n      swap5\n      pop\n        /* \"#utility.yul\":43089:43090   */\n      0x01\n        /* \"#utility.yul\":43078:43087   */\n      dup3\n        /* \"#utility.yul\":43074:43091   */\n      and\n        /* \"#utility.yul\":43105:43106   */\n      0x00\n        /* \"#utility.yul\":43100:43264   */\n      dup2\n      eq\n      tag_1035\n      jumpi\n        /* \"#utility.yul\":43278:43279   */\n      0x01\n        /* \"#utility.yul\":43273:43609   */\n      dup2\n      eq\n      tag_1036\n      jumpi\n        /* \"#utility.yul\":43067:43609   */\n      jump(tag_1034)\n        /* \"#utility.yul\":43100:43264   */\n    tag_1035:\n        /* \"#utility.yul\":43184:43188   */\n      0xff\n        /* \"#utility.yul\":43180:43189   */\n      not\n        /* \"#utility.yul\":43169:43178   */\n      dup4\n        /* \"#utility.yul\":43165:43190   */\n      and\n        /* \"#utility.yul\":43160:43163   */\n      dup7\n        /* \"#utility.yul\":43153:43191   */\n      mstore\n        /* \"#utility.yul\":43244:43250   */\n      dup2\n        /* \"#utility.yul\":43237:43251   */\n      iszero\n        /* \"#utility.yul\":43230:43252   */\n      iszero\n        /* \"#utility.yul\":43224:43228   */\n      0x20\n        /* \"#utility.yul\":43220:43253   */\n      mul\n        /* \"#utility.yul\":43215:43218   */\n      dup7\n        /* \"#utility.yul\":43211:43254   */\n      add\n        /* \"#utility.yul\":43204:43254   */\n      swap4\n      pop\n        /* \"#utility.yul\":43100:43264   */\n      jump(tag_1034)\n        /* \"#utility.yul\":43273:43609   */\n    tag_1036:\n        /* \"#utility.yul\":43340:43378   */\n      tag_1037\n        /* \"#utility.yul\":43372:43377   */\n      dup6\n        /* \"#utility.yul\":43340:43378   */\n      tag_606\n      jump\t// in\n    tag_1037:\n        /* \"#utility.yul\":43400:43401   */\n      0x00\n        /* \"#utility.yul\":43414:43568   */\n    tag_1038:\n        /* \"#utility.yul\":43428:43434   */\n      dup4\n        /* \"#utility.yul\":43425:43426   */\n      dup2\n        /* \"#utility.yul\":43422:43435   */\n      lt\n        /* \"#utility.yul\":43414:43568   */\n      iszero\n      tag_1040\n      jumpi\n        /* \"#utility.yul\":43502:43509   */\n      dup2\n        /* \"#utility.yul\":43496:43510   */\n      sload\n        /* \"#utility.yul\":43492:43493   */\n      dup2\n        /* \"#utility.yul\":43487:43490   */\n      dup10\n        /* \"#utility.yul\":43483:43494   */\n      add\n        /* \"#utility.yul\":43476:43511   */\n      mstore\n        /* \"#utility.yul\":43552:43553   */\n      0x01\n        /* \"#utility.yul\":43543:43550   */\n      dup3\n        /* \"#utility.yul\":43539:43554   */\n      add\n        /* \"#utility.yul\":43528:43554   */\n      swap2\n      pop\n        /* \"#utility.yul\":43450:43454   */\n      0x20\n        /* \"#utility.yul\":43447:43448   */\n      dup2\n        /* \"#utility.yul\":43443:43455   */\n      add\n        /* \"#utility.yul\":43438:43455   */\n      swap1\n      pop\n        /* \"#utility.yul\":43414:43568   */\n      jump(tag_1038)\n    tag_1040:\n        /* \"#utility.yul\":43597:43598   */\n      dup1\n        /* \"#utility.yul\":43592:43595   */\n      dup9\n        /* \"#utility.yul\":43588:43599   */\n      add\n        /* \"#utility.yul\":43581:43599   */\n      swap6\n      pop\n        /* \"#utility.yul\":43280:43609   */\n      pop\n      pop\n        /* \"#utility.yul\":43067:43609   */\n    tag_1034:\n      pop\n        /* \"#utility.yul\":42873:43615   */\n      pop\n      pop\n        /* \"#utility.yul\":42784:43615   */\n      swap3\n      swap2\n      pop\n      pop\n      jump\t// out\n        /* \"#utility.yul\":43621:44456   */\n    tag_436:\n        /* \"#utility.yul\":43888:43892   */\n      0x00\n        /* \"#utility.yul\":43926:43929   */\n      0x80\n        /* \"#utility.yul\":43915:43924   */\n      dup3\n        /* \"#utility.yul\":43911:43930   */\n      add\n        /* \"#utility.yul\":43903:43930   */\n      swap1\n      pop\n        /* \"#utility.yul\":43976:43985   */\n      dup2\n        /* \"#utility.yul\":43970:43974   */\n      dup2\n        /* \"#utility.yul\":43966:43986   */\n      sub\n        /* \"#utility.yul\":43962:43963   */\n      0x00\n        /* \"#utility.yul\":43951:43960   */\n      dup4\n        /* \"#utility.yul\":43947:43964   */\n      add\n        /* \"#utility.yul\":43940:43987   */\n      mstore\n        /* \"#utility.yul\":44004:44135   */\n      tag_1042\n        /* \"#utility.yul\":44130:44134   */\n      dup2\n        /* \"#utility.yul\":44004:44135   */\n      tag_625\n      jump\t// in\n    tag_1042:\n        /* \"#utility.yul\":43996:44135   */\n      swap1\n      pop\n        /* \"#utility.yul\":44145:44217   */\n      tag_1043\n        /* \"#utility.yul\":44213:44215   */\n      0x20\n        /* \"#utility.yul\":44202:44211   */\n      dup4\n        /* \"#utility.yul\":44198:44216   */\n      add\n        /* \"#utility.yul\":44189:44195   */\n      dup7\n        /* \"#utility.yul\":44145:44217   */\n      tag_538\n      jump\t// in\n    tag_1043:\n        /* \"#utility.yul\":44227:44299   */\n      tag_1044\n        /* \"#utility.yul\":44295:44297   */\n      0x40\n        /* \"#utility.yul\":44284:44293   */\n      dup4\n        /* \"#utility.yul\":44280:44298   */\n      add\n        /* \"#utility.yul\":44271:44277   */\n      dup6\n        /* \"#utility.yul\":44227:44299   */\n      tag_531\n      jump\t// in\n    tag_1044:\n        /* \"#utility.yul\":44346:44355   */\n      dup2\n        /* \"#utility.yul\":44340:44344   */\n      dup2\n        /* \"#utility.yul\":44336:44356   */\n      sub\n        /* \"#utility.yul\":44331:44333   */\n      0x60\n        /* \"#utility.yul\":44320:44329   */\n      dup4\n        /* \"#utility.yul\":44316:44334   */\n      add\n        /* \"#utility.yul\":44309:44357   */\n      mstore\n        /* \"#utility.yul\":44374:44449   */\n      tag_1045\n        /* \"#utility.yul\":44444:44448   */\n      dup2\n        /* \"#utility.yul\":44435:44441   */\n      dup5\n        /* \"#utility.yul\":44374:44449   */\n      tag_626\n      jump\t// in\n    tag_1045:\n        /* \"#utility.yul\":44366:44449   */\n      swap1\n      pop\n        /* \"#utility.yul\":43621:44456   */\n      swap5\n      swap4\n      pop\n      pop\n      pop\n      pop\n      jump\t// out\n        /* \"#utility.yul\":44462:44622   */\n    tag_627:\n        /* \"#utility.yul\":44602:44614   */\n      0x42454c4920424148414e00000000000000000000000000000000000000000000\n        /* \"#utility.yul\":44598:44599   */\n      0x00\n        /* \"#utility.yul\":44590:44596   */\n      dup3\n        /* \"#utility.yul\":44586:44600   */\n      add\n        /* \"#utility.yul\":44579:44615   */\n      mstore\n        /* \"#utility.yul\":44462:44622   */\n      pop\n      jump\t// out\n        /* \"#utility.yul\":44628:44994   */\n    tag_628:\n        /* \"#utility.yul\":44770:44773   */\n      0x00\n        /* \"#utility.yul\":44791:44858   */\n      tag_1048\n        /* \"#utility.yul\":44855:44857   */\n      0x0a\n        /* \"#utility.yul\":44850:44853   */\n      dup4\n        /* \"#utility.yul\":44791:44858   */\n      tag_540\n      jump\t// in\n    tag_1048:\n        /* \"#utility.yul\":44784:44858   */\n      swap2\n      pop\n        /* \"#utility.yul\":44867:44960   */\n      tag_1049\n        /* \"#utility.yul\":44956:44959   */\n      dup3\n        /* \"#utility.yul\":44867:44960   */\n      tag_627\n      jump\t// in\n    tag_1049:\n        /* \"#utility.yul\":44985:44987   */\n      0x20\n        /* \"#utility.yul\":44980:44983   */\n      dup3\n        /* \"#utility.yul\":44976:44988   */\n      add\n        /* \"#utility.yul\":44969:44988   */\n      swap1\n      pop\n        /* \"#utility.yul\":44628:44994   */\n      swap2\n      swap1\n      pop\n      jump\t// out\n        /* \"#utility.yul\":45000:45835   */\n    tag_447:\n        /* \"#utility.yul\":45267:45271   */\n      0x00\n        /* \"#utility.yul\":45305:45308   */\n      0x80\n        /* \"#utility.yul\":45294:45303   */\n      dup3\n        /* \"#utility.yul\":45290:45309   */\n      add\n        /* \"#utility.yul\":45282:45309   */\n      swap1\n      pop\n        /* \"#utility.yul\":45355:45364   */\n      dup2\n        /* \"#utility.yul\":45349:45353   */\n      dup2\n        /* \"#utility.yul\":45345:45365   */\n      sub\n        /* \"#utility.yul\":45341:45342   */\n      0x00\n        /* \"#utility.yul\":45330:45339   */\n      dup4\n        /* \"#utility.yul\":45326:45343   */\n      add\n        /* \"#utility.yul\":45319:45366   */\n      mstore\n        /* \"#utility.yul\":45383:45514   */\n      tag_1051\n        /* \"#utility.yul\":45509:45513   */\n      dup2\n        /* \"#utility.yul\":45383:45514   */\n      tag_628\n      jump\t// in\n    tag_1051:\n        /* \"#utility.yul\":45375:45514   */\n      swap1\n      pop\n        /* \"#utility.yul\":45524:45596   */\n      tag_1052\n        /* \"#utility.yul\":45592:45594   */\n      0x20\n        /* \"#utility.yul\":45581:45590   */\n      dup4\n        /* \"#utility.yul\":45577:45595   */\n      add\n        /* \"#utility.yul\":45568:45574   */\n      dup7\n        /* \"#utility.yul\":45524:45596   */\n      tag_538\n      jump\t// in\n    tag_1052:\n        /* \"#utility.yul\":45606:45678   */\n      tag_1053\n        /* \"#utility.yul\":45674:45676   */\n      0x40\n        /* \"#utility.yul\":45663:45672   */\n      dup4\n        /* \"#utility.yul\":45659:45677   */\n      add\n        /* \"#utility.yul\":45650:45656   */\n      dup6\n        /* \"#utility.yul\":45606:45678   */\n      tag_531\n      jump\t// in\n    tag_1053:\n        /* \"#utility.yul\":45725:45734   */\n      dup2\n        /* \"#utility.yul\":45719:45723   */\n      dup2\n        /* \"#utility.yul\":45715:45735   */\n      sub\n        /* \"#utility.yul\":45710:45712   */\n      0x60\n        /* \"#utility.yul\":45699:45708   */\n      dup4\n        /* \"#utility.yul\":45695:45713   */\n      add\n        /* \"#utility.yul\":45688:45736   */\n      mstore\n        /* \"#utility.yul\":45753:45828   */\n      tag_1054\n        /* \"#utility.yul\":45823:45827   */\n      dup2\n        /* \"#utility.yul\":45814:45820   */\n      dup5\n        /* \"#utility.yul\":45753:45828   */\n      tag_626\n      jump\t// in\n    tag_1054:\n        /* \"#utility.yul\":45745:45828   */\n      swap1\n      pop\n        /* \"#utility.yul\":45000:45835   */\n      swap5\n      swap4\n      pop\n      pop\n      pop\n      pop\n      jump\t// out\n        /* \"#utility.yul\":45841:46161   */\n    tag_462:\n        /* \"#utility.yul\":45956:45960   */\n      0x00\n        /* \"#utility.yul\":45994:45996   */\n      0x40\n        /* \"#utility.yul\":45983:45992   */\n      dup3\n        /* \"#utility.yul\":45979:45997   */\n      add\n        /* \"#utility.yul\":45971:45997   */\n      swap1\n      pop\n        /* \"#utility.yul\":46007:46078   */\n      tag_1056\n        /* \"#utility.yul\":46075:46076   */\n      0x00\n        /* \"#utility.yul\":46064:46073   */\n      dup4\n        /* \"#utility.yul\":46060:46077   */\n      add\n        /* \"#utility.yul\":46051:46057   */\n      dup6\n        /* \"#utility.yul\":46007:46078   */\n      tag_531\n      jump\t// in\n    tag_1056:\n        /* \"#utility.yul\":46088:46154   */\n      tag_1057\n        /* \"#utility.yul\":46150:46152   */\n      0x20\n        /* \"#utility.yul\":46139:46148   */\n      dup4\n        /* \"#utility.yul\":46135:46153   */\n      add\n        /* \"#utility.yul\":46126:46132   */\n      dup5\n        /* \"#utility.yul\":46088:46154   */\n      tag_545\n      jump\t// in\n    tag_1057:\n        /* \"#utility.yul\":45841:46161   */\n      swap4\n      swap3\n      pop\n      pop\n      pop\n      jump\t// out\n        /* \"#utility.yul\":46167:46337   */\n    tag_629:\n        /* \"#utility.yul\":46307:46329   */\n      0x4d61782057616c6c6574204c696d697420343025000000000000000000000000\n        /* \"#utility.yul\":46303:46304   */\n      0x00\n        /* \"#utility.yul\":46295:46301   */\n      dup3\n        /* \"#utility.yul\":46291:46305   */\n      add\n        /* \"#utility.yul\":46284:46330   */\n      mstore\n        /* \"#utility.yul\":46167:46337   */\n      pop\n      jump\t// out\n        /* \"#utility.yul\":46343:46709   */\n    tag_630:\n        /* \"#utility.yul\":46485:46488   */\n      0x00\n        /* \"#utility.yul\":46506:46573   */\n      tag_1060\n        /* \"#utility.yul\":46570:46572   */\n      0x14\n        /* \"#utility.yul\":46565:46568   */\n      dup4\n        /* \"#utility.yul\":46506:46573   */\n      tag_540\n      jump\t// in\n    tag_1060:\n        /* \"#utility.yul\":46499:46573   */\n      swap2\n      pop\n        /* \"#utility.yul\":46582:46675   */\n      tag_1061\n        /* \"#utility.yul\":46671:46674   */\n      dup3\n        /* \"#utility.yul\":46582:46675   */\n      tag_629\n      jump\t// in\n    tag_1061:\n        /* \"#utility.yul\":46700:46702   */\n      0x20\n        /* \"#utility.yul\":46695:46698   */\n      dup3\n        /* \"#utility.yul\":46691:46703   */\n      add\n        /* \"#utility.yul\":46684:46703   */\n      swap1\n      pop\n        /* \"#utility.yul\":46343:46709   */\n      swap2\n      swap1\n      pop\n      jump\t// out\n        /* \"#utility.yul\":46715:47134   */\n    tag_476:\n        /* \"#utility.yul\":46881:46885   */\n      0x00\n        /* \"#utility.yul\":46919:46921   */\n      0x20\n        /* \"#utility.yul\":46908:46917   */\n      dup3\n        /* \"#utility.yul\":46904:46922   */\n      add\n        /* \"#utility.yul\":46896:46922   */\n      swap1\n      pop\n        /* \"#utility.yul\":46968:46977   */\n      dup2\n        /* \"#utility.yul\":46962:46966   */\n      dup2\n        /* \"#utility.yul\":46958:46978   */\n      sub\n        /* \"#utility.yul\":46954:46955   */\n      0x00\n        /* \"#utility.yul\":46943:46952   */\n      dup4\n        /* \"#utility.yul\":46939:46956   */\n      add\n        /* \"#utility.yul\":46932:46979   */\n      mstore\n        /* \"#utility.yul\":46996:47127   */\n      tag_1063\n        /* \"#utility.yul\":47122:47126   */\n      dup2\n        /* \"#utility.yul\":46996:47127   */\n      tag_630\n      jump\t// in\n    tag_1063:\n        /* \"#utility.yul\":46988:47127   */\n      swap1\n      pop\n        /* \"#utility.yul\":46715:47134   */\n      swap2\n      swap1\n      pop\n      jump\t// out\n        /* \"#utility.yul\":47140:47300   */\n    tag_631:\n        /* \"#utility.yul\":47280:47292   */\n      0x4b6173204b6f736f6e6700000000000000000000000000000000000000000000\n        /* \"#utility.yul\":47276:47277   */\n      0x00\n        /* \"#utility.yul\":47268:47274   */\n      dup3\n        /* \"#utility.yul\":47264:47278   */\n      add\n        /* \"#utility.yul\":47257:47293   */\n      mstore\n        /* \"#utility.yul\":47140:47300   */\n      pop\n      jump\t// out\n        /* \"#utility.yul\":47306:47672   */\n    tag_632:\n        /* \"#utility.yul\":47448:47451   */\n      0x00\n        /* \"#utility.yul\":47469:47536   */\n      tag_1066\n        /* \"#utility.yul\":47533:47535   */\n      0x0a\n        /* \"#utility.yul\":47528:47531   */\n      dup4\n        /* \"#utility.yul\":47469:47536   */\n      tag_540\n      jump\t// in\n    tag_1066:\n        /* \"#utility.yul\":47462:47536   */\n      swap2\n      pop\n        /* \"#utility.yul\":47545:47638   */\n      tag_1067\n        /* \"#utility.yul\":47634:47637   */\n      dup3\n        /* \"#utility.yul\":47545:47638   */\n      tag_631\n      jump\t// in\n    tag_1067:\n        /* \"#utility.yul\":47663:47665   */\n      0x20\n        /* \"#utility.yul\":47658:47661   */\n      dup3\n        /* \"#utility.yul\":47654:47666   */\n      add\n        /* \"#utility.yul\":47647:47666   */\n      swap1\n      pop\n        /* \"#utility.yul\":47306:47672   */\n      swap2\n      swap1\n      pop\n      jump\t// out\n        /* \"#utility.yul\":47678:48097   */\n    tag_484:\n        /* \"#utility.yul\":47844:47848   */\n      0x00\n        /* \"#utility.yul\":47882:47884   */\n      0x20\n        /* \"#utility.yul\":47871:47880   */\n      dup3\n        /* \"#utility.yul\":47867:47885   */\n      add\n        /* \"#utility.yul\":47859:47885   */\n      swap1\n      pop\n        /* \"#utility.yul\":47931:47940   */\n      dup2\n        /* \"#utility.yul\":47925:47929   */\n      dup2\n        /* \"#utility.yul\":47921:47941   */\n      sub\n        /* \"#utility.yul\":47917:47918   */\n      0x00\n        /* \"#utility.yul\":47906:47915   */\n      dup4\n        /* \"#utility.yul\":47902:47919   */\n      add\n        /* \"#utility.yul\":47895:47942   */\n      mstore\n        /* \"#utility.yul\":47959:48090   */\n      tag_1069\n        /* \"#utility.yul\":48085:48089   */\n      dup2\n        /* \"#utility.yul\":47959:48090   */\n      tag_632\n      jump\t// in\n    tag_1069:\n        /* \"#utility.yul\":47951:48090   */\n      swap1\n      pop\n        /* \"#utility.yul\":47678:48097   */\n      swap2\n      swap1\n      pop\n      jump\t// out\n        /* \"#utility.yul\":48103:48277   */\n    tag_633:\n        /* \"#utility.yul\":48243:48269   */\n      0x4d6f64616c2047726f7774682046756e64204861626973210000000000000000\n        /* \"#utility.yul\":48239:48240   */\n      0x00\n        /* \"#utility.yul\":48231:48237   */\n      dup3\n        /* \"#utility.yul\":48227:48241   */\n      add\n        /* \"#utility.yul\":48220:48270   */\n      mstore\n        /* \"#utility.yul\":48103:48277   */\n      pop\n      jump\t// out\n        /* \"#utility.yul\":48283:48649   */\n    tag_634:\n        /* \"#utility.yul\":48425:48428   */\n      0x00\n        /* \"#utility.yul\":48446:48513   */\n      tag_1072\n        /* \"#utility.yul\":48510:48512   */\n      0x18\n        /* \"#utility.yul\":48505:48508   */\n      dup4\n        /* \"#utility.yul\":48446:48513   */\n      tag_540\n      jump\t// in\n    tag_1072:\n        /* \"#utility.yul\":48439:48513   */\n      swap2\n      pop\n        /* \"#utility.yul\":48522:48615   */\n      tag_1073\n        /* \"#utility.yul\":48611:48614   */\n      dup3\n        /* \"#utility.yul\":48522:48615   */\n      tag_633\n      jump\t// in\n    tag_1073:\n        /* \"#utility.yul\":48640:48642   */\n      0x20\n        /* \"#utility.yul\":48635:48638   */\n      dup3\n        /* \"#utility.yul\":48631:48643   */\n      add\n        /* \"#utility.yul\":48624:48643   */\n      swap1\n      pop\n        /* \"#utility.yul\":48283:48649   */\n      swap2\n      swap1\n      pop\n      jump\t// out\n        /* \"#utility.yul\":48655:49074   */\n    tag_493:\n        /* \"#utility.yul\":48821:48825   */\n      0x00\n        /* \"#utility.yul\":48859:48861   */\n      0x20\n        /* \"#utility.yul\":48848:48857   */\n      dup3\n        /* \"#utility.yul\":48844:48862   */\n      add\n        /* \"#utility.yul\":48836:48862   */\n      swap1\n      pop\n        /* \"#utility.yul\":48908:48917   */\n      dup2\n        /* \"#utility.yul\":48902:48906   */\n      dup2\n        /* \"#utility.yul\":48898:48918   */\n      sub\n        /* \"#utility.yul\":48894:48895   */\n      0x00\n        /* \"#utility.yul\":48883:48892   */\n      dup4\n        /* \"#utility.yul\":48879:48896   */\n      add\n        /* \"#utility.yul\":48872:48919   */\n      mstore\n        /* \"#utility.yul\":48936:49067   */\n      tag_1075\n        /* \"#utility.yul\":49062:49066   */\n      dup2\n        /* \"#utility.yul\":48936:49067   */\n      tag_634\n      jump\t// in\n    tag_1075:\n        /* \"#utility.yul\":48928:49067   */\n      swap1\n      pop\n        /* \"#utility.yul\":48655:49074   */\n      swap2\n      swap1\n      pop\n      jump\t// out\n        /* \"#utility.yul\":49080:49704   */\n    tag_524:\n        /* \"#utility.yul\":49269:49273   */\n      0x00\n        /* \"#utility.yul\":49307:49309   */\n      0x60\n        /* \"#utility.yul\":49296:49305   */\n      dup3\n        /* \"#utility.yul\":49292:49310   */\n      add\n        /* \"#utility.yul\":49284:49310   */\n      swap1\n      pop\n        /* \"#utility.yul\":49320:49391   */\n      tag_1077\n        /* \"#utility.yul\":49388:49389   */\n      0x00\n        /* \"#utility.yul\":49377:49386   */\n      dup4\n        /* \"#utility.yul\":49373:49390   */\n      add\n        /* \"#utility.yul\":49364:49370   */\n      dup7\n        /* \"#utility.yul\":49320:49391   */\n      tag_531\n      jump\t// in\n    tag_1077:\n        /* \"#utility.yul\":49438:49447   */\n      dup2\n        /* \"#utility.yul\":49432:49436   */\n      dup2\n        /* \"#utility.yul\":49428:49448   */\n      sub\n        /* \"#utility.yul\":49423:49425   */\n      0x20\n        /* \"#utility.yul\":49412:49421   */\n      dup4\n        /* \"#utility.yul\":49408:49426   */\n      add\n        /* \"#utility.yul\":49401:49449   */\n      mstore\n        /* \"#utility.yul\":49466:49544   */\n      tag_1078\n        /* \"#utility.yul\":49539:49543   */\n      dup2\n        /* \"#utility.yul\":49530:49536   */\n      dup6\n        /* \"#utility.yul\":49466:49544   */\n      tag_543\n      jump\t// in\n    tag_1078:\n        /* \"#utility.yul\":49458:49544   */\n      swap1\n      pop\n        /* \"#utility.yul\":49591:49600   */\n      dup2\n        /* \"#utility.yul\":49585:49589   */\n      dup2\n        /* \"#utility.yul\":49581:49601   */\n      sub\n        /* \"#utility.yul\":49576:49578   */\n      0x40\n        /* \"#utility.yul\":49565:49574   */\n      dup4\n        /* \"#utility.yul\":49561:49579   */\n      add\n        /* \"#utility.yul\":49554:49602   */\n      mstore\n        /* \"#utility.yul\":49619:49697   */\n      tag_1079\n        /* \"#utility.yul\":49692:49696   */\n      dup2\n        /* \"#utility.yul\":49683:49689   */\n      dup5\n        /* \"#utility.yul\":49619:49697   */\n      tag_543\n      jump\t// in\n    tag_1079:\n        /* \"#utility.yul\":49611:49697   */\n      swap1\n      pop\n        /* \"#utility.yul\":49080:49704   */\n      swap5\n      swap4\n      pop\n      pop\n      pop\n      pop\n      jump\t// out\n\n    auxdata: 0xa2646970667358221220e0241432c6666bca42ddcfe6198f8a31cf7e090d1632e49dbe267c01c598a52464736f6c634300081e0033\n}\n",
				"bytecode": {
					"linkReferences": {},
					"object": "608060405269032d26d12e980b60000060035569010f0cf064dd59200000600455683635c9adc5dea00000600c5534801561003957600080fd5b50604051614f62380380614f62833981810160405281019061005b919061021d565b826000806101000a81548173ffffffffffffffffffffffffffffffffffffffff021916908373ffffffffffffffffffffffffffffffffffffffff16021790555081600160006101000a81548173ffffffffffffffffffffffffffffffffffffffff021916908373ffffffffffffffffffffffffffffffffffffffff1602179055508060038190555033600260006101000a81548173ffffffffffffffffffffffffffffffffffffffff021916908373ffffffffffffffffffffffffffffffffffffffff1602179055506001601160003373ffffffffffffffffffffffffffffffffffffffff1673ffffffffffffffffffffffffffffffffffffffff16815260200190815260200160002060006101000a81548160ff021916908315150217905550505050610270565b600080fd5b600073ffffffffffffffffffffffffffffffffffffffff82169050919050565b60006101b482610189565b9050919050565b6101c4816101a9565b81146101cf57600080fd5b50565b6000815190506101e1816101bb565b92915050565b6000819050919050565b6101fa816101e7565b811461020557600080fd5b50565b600081519050610217816101f1565b92915050565b60008060006060848603121561023657610235610184565b5b6000610244868287016101d2565b9350506020610255868287016101d2565b925050604061026686828701610208565b9150509250925092565b614ce38061027f6000396000f3fe608060405234801561001057600080fd5b50600436106102325760003560e01c8063817bc0cb11610130578063b4b4b55e116100b8578063da35c6641161007c578063da35c66414610665578063de3aaf6114610683578063e70b7424146106b3578063eecace28146106cf578063f847dff7146106ff57610232565b8063b4b4b55e146105d3578063bf2d9e0b146105f1578063c870b9101461060f578063d1a93d181461062d578063d8e0f8261461064957610232565b806397a06724116100ff57806397a06724146105095780639f13464e14610539578063a4138b9b14610557578063ad9adcdc14610587578063b03b4a29146105b757610232565b8063817bc0cb1461049157806385a6b3ae146104af57806387269729146104cd5780638da5cb5b146104eb57610232565b80633a7960e0116101be578063565444901161018257806356544490146104135780635c3640ec1461042f578063668038e01461044d578063679b91441461045757806377056d0f1461047357610232565b80633a7960e0146103565780633af32abf1461037457806341260365146103a45780634d42845c146103c257806351ce612c146103f557610232565b806316c704481161020557806316c70448146102c45780631c8a4038146102e05780632620b4ee146102fe5780633013ce291461031c57806333c5e0031461033a57610232565b80630121b93f14610237578063013cf08b146102535780630eb94a671461028a5780631083f761146102a6575b600080fd5b610251600480360381019061024c91906133d9565b61071b565b005b61026d600480360381019061026891906133d9565b610b29565b604051610281989796959493929190613578565b60405180910390f35b6102a4600480360381019061029f9190613629565b610c33565b005b6102ae610ea2565b6040516102bb91906136c8565b60405180910390f35b6102de60048036038101906102d991906136e3565b610ec8565b005b6102e8611180565b6040516102f59190613710565b60405180910390f35b610306611186565b6040516103139190613710565b60405180910390f35b61032461118b565b60405161033191906136c8565b60405180910390f35b610354600480360381019061034f9190613860565b6111af565b005b61035e611251565b60405161036b9190613710565b60405180910390f35b61038e600480360381019061038991906136e3565b611257565b60405161039b91906138cf565b60405180910390f35b6103ac611277565b6040516103b99190613710565b60405180910390f35b6103dc60048036038101906103d791906133d9565b61127d565b6040516103ec94939291906138ea565b60405180910390f35b6103fd611342565b60405161040a9190613710565b60405180910390f35b61042d60048036038101906104289190613860565b611347565b005b6104376113e9565b6040516104449190613710565b60405180910390f35b6104556113ef565b005b610471600480360381019061046c9190613860565b61164d565b005b61047b6116ef565b6040516104889190613710565b60405180910390f35b6104996117dd565b6040516104a69190613710565b60405180910390f35b6104b76118a2565b6040516104c49190613710565b60405180910390f35b6104d56118a8565b6040516104e29190613710565b60405180910390f35b6104f36118ae565b6040516105009190613936565b60405180910390f35b610523600480360381019061051e91906136e3565b6118d4565b604051610530919061396a565b60405180910390f35b6105416118ec565b60405161054e9190613710565b60405180910390f35b610571600480360381019061056c91906136e3565b6118f2565b60405161057e9190613710565b60405180910390f35b6105a1600480360381019061059c91906136e3565b611a99565b6040516105ae9190613710565b60405180910390f35b6105d160048036038101906105cc91906133d9565b611ab1565b005b6105db611f3d565b6040516105e89190613710565b60405180910390f35b6105f9611f42565b6040516106069190613710565b60405180910390f35b610617611f48565b6040516106249190613710565b60405180910390f35b610647600480360381019061064291906133d9565b611f4e565b005b610663600480360381019061065e9190613985565b6123a6565b005b61066d6124da565b60405161067a9190613710565b60405180910390f35b61069d600480360381019061069891906136e3565b6124e0565b6040516106aa9190613710565b60405180910390f35b6106cd60048036038101906106c891906139ce565b6124f8565b005b6106e960048036038101906106e491906136e3565b61259a565b6040516106f69190613710565b60405180910390f35b610719600480360381019061071491906133d9565b6125b2565b005b601460009054906101000a900460ff161561076b576040517f08c379a000000000000000000000000000000000000000000000000000000000815260040161076290613a76565b60405180910390fd5b6001601460006101000a81548160ff0219169083151502179055506000601260008381526020019081526020016000209050806006015442106107e3576040517f08c379a00000000000000000000000000000000000000000000000000000000081526004016107da90613ae2565b60405180910390fd5b8060070160003373ffffffffffffffffffffffffffffffffffffffff1673ffffffffffffffffffffffffffffffffffffffff16815260200190815260200160002060009054906101000a900460ff1615610872576040517f08c379a000000000000000000000000000000000000000000000000000000000815260040161086990613b4e565b60405180910390fd5b8060050160009054906101000a900460ff16156108c4576040517f08c379a00000000000000000000000000000000000000000000000000000000081526004016108bb90613bba565b60405180910390fd5b6000600160009054906101000a900473ffffffffffffffffffffffffffffffffffffffff1673ffffffffffffffffffffffffffffffffffffffff166370a08231336040518263ffffffff1660e01b81526004016109219190613936565b602060405180830381865afa15801561093e573d6000803e3d6000fd5b505050506040513d601f19601f820116820180604052508101906109629190613bef565b9050600081116109a7576040517f08c379a000000000000000000000000000000000000000000000000000000000815260040161099e90613c68565b60405180910390fd5b60018260070160003373ffffffffffffffffffffffffffffffffffffffff1673ffffffffffffffffffffffffffffffffffffffff16815260200190815260200160002060006101000a81548160ff02191690831515021790555080826004016000828254610a159190613cb7565b925050819055507f1abe610cf2bf87e57dcc1181fcf5ac0934e843d8344ab9eed6e86c799f62585e833383604051610a4f93929190613ceb565b60405180910390a16002600160009054906101000a900473ffffffffffffffffffffffffffffffffffffffff1673ffffffffffffffffffffffffffffffffffffffff166318160ddd6040518163ffffffff1660e01b8152600401602060405180830381865afa158015610ac6573d6000803e3d6000fd5b505050506040513d601f19601f82011682018060405250810190610aea9190613bef565b610af49190613d51565b82600401541115610b0957610b088261264c565b5b50506000601460006101000a81548160ff02191690831515021790555050565b60126020528060005260406000206000915090508060000154908060010160009054906101000a900460ff16908060010160019054906101000a900473ffffffffffffffffffffffffffffffffffffffff1690806002015490806003018054610b9190613db1565b80601f0160208091040260200160405190810160405280929190818152602001828054610bbd90613db1565b8015610c0a5780601f10610bdf57610100808354040283529160200191610c0a565b820191906000526020600020905b815481529060010190602001808311610bed57829003601f168201915b5050505050908060040154908060050160009054906101000a900460ff16908060060154905088565b601460009054906101000a900460ff1615610c83576040517f08c379a0000000000000000000000000000000000000000000000000000000008152600401610c7a90613a76565b60405180910390fd5b6001601460006101000a81548160ff021916908315150217905550610ca88282612d15565b600160009054906101000a900473ffffffffffffffffffffffffffffffffffffffff1673ffffffffffffffffffffffffffffffffffffffff166323b872dd3384846040518463ffffffff1660e01b8152600401610d0793929190613de2565b6020604051808303816000875af1158015610d26573d6000803e3d6000fd5b505050506040513d601f19601f82011682018060405250810190610d4a9190613e45565b610d89576040517f08c379a0000000000000000000000000000000000000000000000000000000008152600401610d8090613ebe565b60405180910390fd5b600081600954610d999190613ede565b905080600a60003373ffffffffffffffffffffffffffffffffffffffff1673ffffffffffffffffffffffffffffffffffffffff1681526020019081526020016000206000828254610dea9190613f20565b9250508190555080600a60008573ffffffffffffffffffffffffffffffffffffffff1673ffffffffffffffffffffffffffffffffffffffff1681526020019081526020016000206000828254610e409190613f64565b925050819055507f4f0f23d5d7f61e149d909d8f3eb8aa374832781e8fcb19751354b30223807374338484604051610e7a93929190613de2565b60405180910390a1506000601460006101000a81548160ff0219169083151502179055505050565b600160009054906101000a900473ffffffffffffffffffffffffffffffffffffffff1681565b600260009054906101000a900473ffffffffffffffffffffffffffffffffffffffff1673ffffffffffffffffffffffffffffffffffffffff163373ffffffffffffffffffffffffffffffffffffffff1614610f58576040517f08c379a0000000000000000000000000000000000000000000000000000000008152600401610f4f90613ff3565b60405180910390fd5b601460009054906101000a900460ff1615610fa8576040517f08c379a0000000000000000000000000000000000000000000000000000000008152600401610f9f90613a76565b60405180910390fd5b6001601460006101000a81548160ff0219169083151502179055506000600d60008373ffffffffffffffffffffffffffffffffffffffff1673ffffffffffffffffffffffffffffffffffffffff1681526020019081526020016000205490506000811161104a576040517f08c379a000000000000000000000000000000000000000000000000000000000815260040161104190614085565b60405180910390fd5b62015180600e60008473ffffffffffffffffffffffffffffffffffffffff1673ffffffffffffffffffffffffffffffffffffffff168152602001908152602001600020546110989190613cb7565b4210156110da576040517f08c379a00000000000000000000000000000000000000000000000000000000081526004016110d1906140f1565b60405180910390fd5b42600e60008473ffffffffffffffffffffffffffffffffffffffff1673ffffffffffffffffffffffffffffffffffffffff168152602001908152602001600020819055506111288282612ebc565b7ffea36c567a41c73fb142ae411f08565859d2842b21caf06283e31ef06079b36a82826040516111599291906141a9565b60405180910390a1506000601460006101000a81548160ff02191690831515021790555050565b60035481565b602881565b60008054906101000a900473ffffffffffffffffffffffffffffffffffffffff1681565b600260009054906101000a900473ffffffffffffffffffffffffffffffffffffffff1673ffffffffffffffffffffffffffffffffffffffff163373ffffffffffffffffffffffffffffffffffffffff161461123f576040517f08c379a000000000000000000000000000000000000000000000000000000000815260040161123690613ff3565b60405180910390fd5b61124c60008484846130fc565b505050565b60095481565b60116020528060005260406000206000915054906101000a900460ff1681565b60105481565b600f6020528060005260406000206000915090508060000154908060010180546112a690613db1565b80601f01602080910402602001604051908101604052809291908181526020018280546112d290613db1565b801561131f5780601f106112f45761010080835404028352916020019161131f565b820191906000526020600020905b81548152906001019060200180831161130257829003601f168201915b5050505050908060020160009054906101000a900460ff16908060030154905084565b601481565b600260009054906101000a900473ffffffffffffffffffffffffffffffffffffffff1673ffffffffffffffffffffffffffffffffffffffff163373ffffffffffffffffffffffffffffffffffffffff16146113d7576040517f08c379a00000000000000000000000000000000000000000000000000000000081526004016113ce90613ff3565b60405180910390fd5b6113e460018484846130fc565b505050565b60065481565b601460009054906101000a900460ff161561143f576040517f08c379a000000000000000000000000000000000000000000000000000000000815260040161143690613a76565b60405180910390fd5b6001601460006101000a81548160ff0219169083151502179055506000611465336118f2565b9050600081116114aa576040517f08c379a00000000000000000000000000000000000000000000000000000000081526004016114a190614244565b60405180910390fd5b80600b60003373ffffffffffffffffffffffffffffffffffffffff1673ffffffffffffffffffffffffffffffffffffffff16815260200190815260200160002060008282546114f99190613cb7565b9250508190555080600860008282546115129190613cb7565b9250508190555060008054906101000a900473ffffffffffffffffffffffffffffffffffffffff1673ffffffffffffffffffffffffffffffffffffffff1663a9059cbb33836040518363ffffffff1660e01b8152600401611574929190614264565b6020604051808303816000875af1158015611593573d6000803e3d6000fd5b505050506040513d601f19601f820116820180604052508101906115b79190613e45565b6115f6576040517f08c379a00000000000000000000000000000000000000000000000000000000081526004016115ed906142d9565b60405180910390fd5b7f5efa67896a23b651b741b525caacba039c00ca7853be3de8eb1f4269e8669c563382604051611627929190614264565b60405180910390a1506000601460006101000a81548160ff021916908315150217905550565b600260009054906101000a900473ffffffffffffffffffffffffffffffffffffffff1673ffffffffffffffffffffffffffffffffffffffff163373ffffffffffffffffffffffffffffffffffffffff16146116dd576040517f08c379a00000000000000000000000000000000000000000000000000000000081526004016116d490613ff3565b60405180910390fd5b6116ea60028484846130fc565b505050565b60008060008054906101000a900473ffffffffffffffffffffffffffffffffffffffff1673ffffffffffffffffffffffffffffffffffffffff166370a08231306040518263ffffffff1660e01b815260040161174b9190613936565b602060405180830381865afa158015611768573d6000803e3d6000fd5b505050506040513d601f19601f8201168201806040525081019061178c9190613bef565b905060006008546007546117a091906142f9565b90506000816006546117b29190613cb7565b9050808311156117d25780836117c891906142f9565b93505050506117da565b600093505050505b90565b6000600160009054906101000a900473ffffffffffffffffffffffffffffffffffffffff1673ffffffffffffffffffffffffffffffffffffffff166370a08231600160009054906101000a900473ffffffffffffffffffffffffffffffffffffffff166040518263ffffffff1660e01b815260040161185c9190613936565b602060405180830381865afa158015611879573d6000803e3d6000fd5b505050506040513d601f19601f8201168201806040525081019061189d9190613bef565b905090565b60075481565b600c5481565b600260009054906101000a900473ffffffffffffffffffffffffffffffffffffffff1681565b600a6020528060005260406000206000915090505481565b60085481565b600080600160009054906101000a900473ffffffffffffffffffffffffffffffffffffffff1673ffffffffffffffffffffffffffffffffffffffff166370a08231846040518263ffffffff1660e01b81526004016119509190613936565b602060405180830381865afa15801561196d573d6000803e3d6000fd5b505050506040513d601f19601f820116820180604052508101906119919190613bef565b9050600081036119a5576000915050611a94565b6000600954826119b59190613ede565b90506000600a60008673ffffffffffffffffffffffffffffffffffffffff1673ffffffffffffffffffffffffffffffffffffffff16815260200190815260200160002054905060007001000000000000000000000000000000008284611a1b9190613f20565b611a259190613d51565b90506000600b60008873ffffffffffffffffffffffffffffffffffffffff1673ffffffffffffffffffffffffffffffffffffffff168152602001908152602001600020549050808211611a8057600095505050505050611a94565b8082611a8c91906142f9565b955050505050505b919050565b600e6020528060005260406000206000915090505481565b601460009054906101000a900460ff1615611b01576040517f08c379a0000000000000000000000000000000000000000000000000000000008152600401611af890613a76565b60405180910390fd5b6001601460006101000a81548160ff021916908315150217905550600f600082815260200190815260200160002060020160009054906101000a900460ff16611b7f576040517f08c379a0000000000000000000000000000000000000000000000000000000008152600401611b7690614379565b60405180910390fd5b6000600354905060008054906101000a900473ffffffffffffffffffffffffffffffffffffffff1673ffffffffffffffffffffffffffffffffffffffff166323b872dd3330846040518463ffffffff1660e01b8152600401611be393929190613de2565b6020604051808303816000875af1158015611c02573d6000803e3d6000fd5b505050506040513d601f19601f82011682018060405250810190611c269190613e45565b611c65576040517f08c379a0000000000000000000000000000000000000000000000000000000008152600401611c5c906143e5565b60405180910390fd5b80600f60008481526020019081526020016000206003016000828254611c8b9190613cb7565b925050819055508060056000828254611ca49190613cb7565b925050819055506000600454821115611cc85760045482611cc591906142f9565b90505b6000811115611ee35760006064601483611ce29190613ede565b611cec9190613d51565b905060006064605084611cff9190613ede565b611d099190613d51565b90508160066000828254611d1d9190613cb7565b925050819055508060076000828254611d369190613cb7565b925050819055506000600160009054906101000a900473ffffffffffffffffffffffffffffffffffffffff1673ffffffffffffffffffffffffffffffffffffffff166318160ddd6040518163ffffffff1660e01b8152600401602060405180830381865afa158015611dac573d6000803e3d6000fd5b505050506040513d601f19601f82011682018060405250810190611dd09190613bef565b1115611ee057600160009054906101000a900473ffffffffffffffffffffffffffffffffffffffff1673ffffffffffffffffffffffffffffffffffffffff166318160ddd6040518163ffffffff1660e01b8152600401602060405180830381865afa158015611e43573d6000803e3d6000fd5b505050506040513d601f19601f82011682018060405250810190611e679190613bef565b70010000000000000000000000000000000082611e849190613ede565b611e8e9190613d51565b60096000828254611e9f9190613cb7565b925050819055507f5fa156a16c825edd8ad1c2bd96f4bc48d9844e12f14d69d8b4a9e72ffb62e8eb8183604051611ed7929190614405565b60405180910390a15b50505b827f33c78a468564bb55f4ad7bdd3e75b0c6b352a20d569a47f0cd10aba28dbddfb43384604051611f15929190614264565b60405180910390a250506000601460006101000a81548160ff02191690831515021790555050565b605081565b60055481565b60045481565b601460009054906101000a900460ff1615611f9e576040517f08c379a0000000000000000000000000000000000000000000000000000000008152600401611f9590613a76565b60405180910390fd5b6001601460006101000a81548160ff0219169083151502179055506000600160009054906101000a900473ffffffffffffffffffffffffffffffffffffffff1673ffffffffffffffffffffffffffffffffffffffff166370a08231600160009054906101000a900473ffffffffffffffffffffffffffffffffffffffff166040518263ffffffff1660e01b81526004016120389190613936565b602060405180830381865afa158015612055573d6000803e3d6000fd5b505050506040513d601f19601f820116820180604052508101906120799190613bef565b9050818110156120be576040517f08c379a00000000000000000000000000000000000000000000000000000000081526004016120b59061447a565b60405180910390fd5b6120c83383612d15565b6000670de0b6b3a7640000600c54846120e19190613ede565b6120eb9190613d51565b905060008054906101000a900473ffffffffffffffffffffffffffffffffffffffff1673ffffffffffffffffffffffffffffffffffffffff166323b872dd3330846040518463ffffffff1660e01b815260040161214a93929190613de2565b6020604051808303816000875af1158015612169573d6000803e3d6000fd5b505050506040513d601f19601f8201168201806040525081019061218d9190613e45565b6121cc576040517f08c379a00000000000000000000000000000000000000000000000000000000081526004016121c3906144e6565b60405180910390fd5b600160009054906101000a900473ffffffffffffffffffffffffffffffffffffffff1673ffffffffffffffffffffffffffffffffffffffff166323b872dd600160009054906101000a900473ffffffffffffffffffffffffffffffffffffffff1633866040518463ffffffff1660e01b815260040161224d93929190613de2565b6020604051808303816000875af115801561226c573d6000803e3d6000fd5b505050506040513d601f19601f820116820180604052508101906122909190613e45565b6122cf576040517f08c379a00000000000000000000000000000000000000000000000000000000081526004016122c690614552565b60405180910390fd5b80600660008282546122e19190613cb7565b92505081905550826009546122f69190613ede565b600a60003373ffffffffffffffffffffffffffffffffffffffff1673ffffffffffffffffffffffffffffffffffffffff16815260200190815260200160002060008282546123449190613f64565b925050819055507f630b54f21d1c5ae41c4633ad96e8c15ce15665365eded6a38476ffa71c8ace6c33848360405161237e93929190614572565b60405180910390a150506000601460006101000a81548160ff02191690831515021790555050565b600260009054906101000a900473ffffffffffffffffffffffffffffffffffffffff1673ffffffffffffffffffffffffffffffffffffffff163373ffffffffffffffffffffffffffffffffffffffff1614612436576040517f08c379a000000000000000000000000000000000000000000000000000000000815260040161242d90613ff3565b60405180910390fd5b60106000815480929190612449906145a9565b9190505550604051806080016040528060105481526020018281526020016001151581526020016000815250600f600060105481526020019081526020016000206000820151816000015560208201518160010190816124a99190614793565b5060408201518160020160006101000a81548160ff0219169083151502179055506060820151816003015590505050565b60135481565b600b6020528060005260406000206000915090505481565b600260009054906101000a900473ffffffffffffffffffffffffffffffffffffffff1673ffffffffffffffffffffffffffffffffffffffff163373ffffffffffffffffffffffffffffffffffffffff1614612588576040517f08c379a000000000000000000000000000000000000000000000000000000000815260040161257f90613ff3565b60405180910390fd5b6125966003836000846130fc565b5050565b600d6020528060005260406000206000915090505481565b600260009054906101000a900473ffffffffffffffffffffffffffffffffffffffff1673ffffffffffffffffffffffffffffffffffffffff163373ffffffffffffffffffffffffffffffffffffffff1614612642576040517f08c379a000000000000000000000000000000000000000000000000000000000815260040161263990613ff3565b60405180910390fd5b8060038190555050565b60018160050160006101000a81548160ff0219169083151502179055506000600381111561267d5761267c613415565b5b8160010160009054906101000a900460ff1660038111156126a1576126a0613415565b5b036128ee57601160008260010160019054906101000a900473ffffffffffffffffffffffffffffffffffffffff1673ffffffffffffffffffffffffffffffffffffffff1673ffffffffffffffffffffffffffffffffffffffff16815260200190815260200160002060009054906101000a900460ff16612756576040517f08c379a000000000000000000000000000000000000000000000000000000000815260040161274d906148b1565b60405180910390fd5b8060020154600654101561279f576040517f08c379a00000000000000000000000000000000000000000000000000000000081526004016127969061491d565b60405180910390fd5b8060020154600660008282546127b591906142f9565b9250508190555060008054906101000a900473ffffffffffffffffffffffffffffffffffffffff1673ffffffffffffffffffffffffffffffffffffffff1663a9059cbb8260010160019054906101000a900473ffffffffffffffffffffffffffffffffffffffff1683600201546040518363ffffffff1660e01b815260040161283f929190614264565b6020604051808303816000875af115801561285e573d6000803e3d6000fd5b505050506040513d601f19601f820116820180604052508101906128829190613e45565b507ffea36c567a41c73fb142ae411f08565859d2842b21caf06283e31ef06079b36a8160010160019054906101000a900473ffffffffffffffffffffffffffffffffffffffff168260020154836003016040516128e193929190614a0d565b60405180910390a1612cd4565b6001600381111561290257612901613415565b5b8160010160009054906101000a900460ff16600381111561292657612925613415565b5b03612a7857601160008260010160019054906101000a900473ffffffffffffffffffffffffffffffffffffffff1673ffffffffffffffffffffffffffffffffffffffff1673ffffffffffffffffffffffffffffffffffffffff16815260200190815260200160002060009054906101000a900460ff166129db576040517f08c379a00000000000000000000000000000000000000000000000000000000081526004016129d2906148b1565b60405180910390fd5b612a0d8160010160019054906101000a900473ffffffffffffffffffffffffffffffffffffffff168260020154612ebc565b7ffea36c567a41c73fb142ae411f08565859d2842b21caf06283e31ef06079b36a8160010160019054906101000a900473ffffffffffffffffffffffffffffffffffffffff16826002015483600301604051612a6b93929190614aaa565b60405180910390a1612cd3565b60026003811115612a8c57612a8b613415565b5b8160010160009054906101000a900460ff166003811115612ab057612aaf613415565b5b03612c18578060020154600d60008360010160019054906101000a900473ffffffffffffffffffffffffffffffffffffffff1673ffffffffffffffffffffffffffffffffffffffff1673ffffffffffffffffffffffffffffffffffffffff16815260200190815260200160002081905550601160008260010160019054906101000a900473ffffffffffffffffffffffffffffffffffffffff1673ffffffffffffffffffffffffffffffffffffffff1673ffffffffffffffffffffffffffffffffffffffff16815260200190815260200160002060009054906101000a900460ff16612c13576001601160008360010160019054906101000a900473ffffffffffffffffffffffffffffffffffffffff1673ffffffffffffffffffffffffffffffffffffffff1673ffffffffffffffffffffffffffffffffffffffff16815260200190815260200160002060006101000a81548160ff0219169083151502179055505b612cd2565b600380811115612c2b57612c2a613415565b5b8160010160009054906101000a900460ff166003811115612c4f57612c4e613415565b5b03612cd1576001601160008360010160019054906101000a900473ffffffffffffffffffffffffffffffffffffffff1673ffffffffffffffffffffffffffffffffffffffff1673ffffffffffffffffffffffffffffffffffffffff16815260200190815260200160002060006101000a81548160ff0219169083151502179055505b5b5b5b7f948f4a9cd986f1118c3fbd459f7a22b23c0693e1ca3ef06a6a8be5aa7d39cc0381600001546001604051612d0a929190614afb565b60405180910390a150565b6000600160009054906101000a900473ffffffffffffffffffffffffffffffffffffffff1673ffffffffffffffffffffffffffffffffffffffff166318160ddd6040518163ffffffff1660e01b8152600401602060405180830381865afa158015612d84573d6000803e3d6000fd5b505050506040513d601f19601f82011682018060405250810190612da89190613bef565b905060006064602883612dbb9190613ede565b612dc59190613d51565b90506000600160009054906101000a900473ffffffffffffffffffffffffffffffffffffffff1673ffffffffffffffffffffffffffffffffffffffff166370a08231866040518263ffffffff1660e01b8152600401612e249190613936565b602060405180830381865afa158015612e41573d6000803e3d6000fd5b505050506040513d601f19601f82011682018060405250810190612e659190613bef565b9050818482612e749190613cb7565b1115612eb5576040517f08c379a0000000000000000000000000000000000000000000000000000000008152600401612eac90614b70565b60405180910390fd5b5050505050565b60008060009054906101000a900473ffffffffffffffffffffffffffffffffffffffff1673ffffffffffffffffffffffffffffffffffffffff166370a08231306040518263ffffffff1660e01b8152600401612f189190613936565b602060405180830381865afa158015612f35573d6000803e3d6000fd5b505050506040513d601f19601f82011682018060405250810190612f599190613bef565b905081811015612f9e576040517f08c379a0000000000000000000000000000000000000000000000000000000008152600401612f9590614bdc565b60405180910390fd5b6000600854600754612fb091906142f9565b9050600081600654612fc29190613cb7565b9050600081841115612fdd578184612fda91906142f9565b90505b848110156130555760008186612ff391906142f9565b905080600654101561303a576040517f08c379a000000000000000000000000000000000000000000000000000000000815260040161303190614c48565b60405180910390fd5b806006600082825461304c91906142f9565b92505081905550505b60008054906101000a900473ffffffffffffffffffffffffffffffffffffffff1673ffffffffffffffffffffffffffffffffffffffff1663a9059cbb87876040518363ffffffff1660e01b81526004016130b0929190614264565b6020604051808303816000875af11580156130cf573d6000803e3d6000fd5b505050506040513d601f19601f820116820180604052508101906130f39190613e45565b50505050505050565b6013600081548092919061310f906145a9565b9190505550600060126000601354815260200190815260200160002090506013548160000181905550848160010160006101000a81548160ff0219169083600381111561315f5761315e613415565b5b0217905550838160010160016101000a81548173ffffffffffffffffffffffffffffffffffffffff021916908373ffffffffffffffffffffffffffffffffffffffff160217905550828160020181905550818160030190816131c19190614793565b5062015180426131d19190613cb7565b816006018190555060008060038111156131ee576131ed613415565b5b86600381111561320157613200613415565b5b14613311576001600381111561321a57613219613415565b5b86600381111561322d5761322c613415565b5b146132d5576002600381111561324657613245613415565b5b86600381111561325957613258613415565b5b14613299576040518060400160405280600a81526020017f4144442056454e444f52000000000000000000000000000000000000000000008152506132d0565b6040518060400160405280600881526020017f5345542047414a490000000000000000000000000000000000000000000000008152505b61330c565b6040518060400160405280600a81526020017f42454c4920424148414e000000000000000000000000000000000000000000008152505b613348565b6040518060400160405280600a81526020017f42454c49204d4553494e000000000000000000000000000000000000000000008152505b90507fab417751734d6a1f646db70d698328fa08bc6c3f8d4b8ef2a69adb1eb051496b601354828560405161337f93929190614c68565b60405180910390a1505050505050565b6000604051905090565b600080fd5b600080fd5b6000819050919050565b6133b6816133a3565b81146133c157600080fd5b50565b6000813590506133d3816133ad565b92915050565b6000602082840312156133ef576133ee613399565b5b60006133fd848285016133c4565b91505092915050565b61340f816133a3565b82525050565b7f4e487b7100000000000000000000000000000000000000000000000000000000600052602160045260246000fd5b6004811061345557613454613415565b5b50565b600081905061346682613444565b919050565b600061347682613458565b9050919050565b6134868161346b565b82525050565b600073ffffffffffffffffffffffffffffffffffffffff82169050919050565b60006134b78261348c565b9050919050565b6134c7816134ac565b82525050565b600081519050919050565b600082825260208201905092915050565b60005b838110156135075780820151818401526020810190506134ec565b60008484015250505050565b6000601f19601f8301169050919050565b600061352f826134cd565b61353981856134d8565b93506135498185602086016134e9565b61355281613513565b840191505092915050565b60008115159050919050565b6135728161355d565b82525050565b60006101008201905061358e600083018b613406565b61359b602083018a61347d565b6135a860408301896134be565b6135b56060830188613406565b81810360808301526135c78187613524565b90506135d660a0830186613406565b6135e360c0830185613569565b6135f060e0830184613406565b9998505050505050505050565b613606816134ac565b811461361157600080fd5b50565b600081359050613623816135fd565b92915050565b600080604083850312156136405761363f613399565b5b600061364e85828601613614565b925050602061365f858286016133c4565b9150509250929050565b6000819050919050565b600061368e6136896136848461348c565b613669565b61348c565b9050919050565b60006136a082613673565b9050919050565b60006136b282613695565b9050919050565b6136c2816136a7565b82525050565b60006020820190506136dd60008301846136b9565b92915050565b6000602082840312156136f9576136f8613399565b5b600061370784828501613614565b91505092915050565b60006020820190506137256000830184613406565b92915050565b600080fd5b600080fd5b7f4e487b7100000000000000000000000000000000000000000000000000000000600052604160045260246000fd5b61376d82613513565b810181811067ffffffffffffffff8211171561378c5761378b613735565b5b80604052505050565b600061379f61338f565b90506137ab8282613764565b919050565b600067ffffffffffffffff8211156137cb576137ca613735565b5b6137d482613513565b9050602081019050919050565b82818337600083830152505050565b60006138036137fe846137b0565b613795565b90508281526020810184848401111561381f5761381e613730565b5b61382a8482856137e1565b509392505050565b600082601f8301126138475761384661372b565b5b81356138578482602086016137f0565b91505092915050565b60008060006060848603121561387957613878613399565b5b600061388786828701613614565b9350506020613898868287016133c4565b925050604084013567ffffffffffffffff8111156138b9576138b861339e565b5b6138c586828701613832565b9150509250925092565b60006020820190506138e46000830184613569565b92915050565b60006080820190506138ff6000830187613406565b81810360208301526139118186613524565b90506139206040830185613569565b61392d6060830184613406565b95945050505050565b600060208201905061394b60008301846134be565b92915050565b6000819050919050565b61396481613951565b82525050565b600060208201905061397f600083018461395b565b92915050565b60006020828403121561399b5761399a613399565b5b600082013567ffffffffffffffff8111156139b9576139b861339e565b5b6139c584828501613832565b91505092915050565b600080604083850312156139e5576139e4613399565b5b60006139f385828601613614565b925050602083013567ffffffffffffffff811115613a1457613a1361339e565b5b613a2085828601613832565b9150509250929050565b7f5265656e7472616e637921000000000000000000000000000000000000000000600082015250565b6000613a60600b836134d8565b9150613a6b82613a2a565b602082019050919050565b60006020820190508181036000830152613a8f81613a53565b9050919050565b7f57616b7475204861626973000000000000000000000000000000000000000000600082015250565b6000613acc600b836134d8565b9150613ad782613a96565b602082019050919050565b60006020820190508181036000830152613afb81613abf565b9050919050565b7f537564616820566f746500000000000000000000000000000000000000000000600082015250565b6000613b38600a836134d8565b9150613b4382613b02565b602082019050919050565b60006020820190508181036000830152613b6781613b2b565b9050919050565b7f53756461682053656c6573616900000000000000000000000000000000000000600082015250565b6000613ba4600d836134d8565b9150613baf82613b6e565b602082019050919050565b60006020820190508181036000830152613bd381613b97565b9050919050565b600081519050613be9816133ad565b92915050565b600060208284031215613c0557613c04613399565b5b6000613c1384828501613bda565b91505092915050565b7f4e6f20546f6b656e000000000000000000000000000000000000000000000000600082015250565b6000613c526008836134d8565b9150613c5d82613c1c565b602082019050919050565b60006020820190508181036000830152613c8181613c45565b9050919050565b7f4e487b7100000000000000000000000000000000000000000000000000000000600052601160045260246000fd5b6000613cc2826133a3565b9150613ccd836133a3565b9250828201905080821115613ce557613ce4613c88565b5b92915050565b6000606082019050613d006000830186613406565b613d0d60208301856134be565b613d1a6040830184613406565b949350505050565b7f4e487b7100000000000000000000000000000000000000000000000000000000600052601260045260246000fd5b6000613d5c826133a3565b9150613d67836133a3565b925082613d7757613d76613d22565b5b828204905092915050565b7f4e487b7100000000000000000000000000000000000000000000000000000000600052602260045260246000fd5b60006002820490506001821680613dc957607f821691505b602082108103613ddc57613ddb613d82565b5b50919050565b6000606082019050613df760008301866134be565b613e0460208301856134be565b613e116040830184613406565b949350505050565b613e228161355d565b8114613e2d57600080fd5b50565b600081519050613e3f81613e19565b92915050565b600060208284031215613e5b57613e5a613399565b5b6000613e6984828501613e30565b91505092915050565b7f476167616c205472616e73666572000000000000000000000000000000000000600082015250565b6000613ea8600e836134d8565b9150613eb382613e72565b602082019050919050565b60006020820190508181036000830152613ed781613e9b565b9050919050565b6000613ee9826133a3565b9150613ef4836133a3565b9250828202613f02816133a3565b91508282048414831517613f1957613f18613c88565b5b5092915050565b6000613f2b82613951565b9150613f3683613951565b925082820190508281121560008312168382126000841215161715613f5e57613f5d613c88565b5b92915050565b6000613f6f82613951565b9150613f7a83613951565b9250828203905081811260008412168282136000851215161715613fa157613fa0613c88565b5b92915050565b7f48616e79612041646d696e000000000000000000000000000000000000000000600082015250565b6000613fdd600b836134d8565b9150613fe882613fa7565b602082019050919050565b6000602082019050818103600083015261400c81613fd0565b9050919050565b7f47616a692068617269616e2062656c756d206469736574207669612050726f7060008201527f6f73616c21000000000000000000000000000000000000000000000000000000602082015250565b600061406f6025836134d8565b915061407a82614013565b604082019050919050565b6000602082019050818103600083015261409e81614062565b9050919050565b7f4861726920696e692073756461682067616a69616e2100000000000000000000600082015250565b60006140db6016836134d8565b91506140e6826140a5565b602082019050919050565b6000602082019050818103600083015261410a816140ce565b9050919050565b7f47414a492048415249414e000000000000000000000000000000000000000000600082015250565b6000614147600b836134d8565b915061415282614111565b602082019050919050565b7f47616a6920527574696e2048617269616e000000000000000000000000000000600082015250565b60006141936011836134d8565b915061419e8261415d565b602082019050919050565b600060808201905081810360008301526141c28161413a565b90506141d160208301856134be565b6141de6040830184613406565b81810360608301526141ef81614186565b90509392505050565b7f4e6968696c000000000000000000000000000000000000000000000000000000600082015250565b600061422e6005836134d8565b9150614239826141f8565b602082019050919050565b6000602082019050818103600083015261425d81614221565b9050919050565b600060408201905061427960008301856134be565b6142866020830184613406565b9392505050565b7f476167616c000000000000000000000000000000000000000000000000000000600082015250565b60006142c36005836134d8565b91506142ce8261428d565b602082019050919050565b600060208201905081810360008301526142f2816142b6565b9050919050565b6000614304826133a3565b915061430f836133a3565b925082820390508181111561432757614326613c88565b5b92915050565b7f4d6573696e204d61746900000000000000000000000000000000000000000000600082015250565b6000614363600a836134d8565b915061436e8261432d565b602082019050919050565b6000602082019050818103600083015261439281614356565b9050919050565b7f476167616c204261796172000000000000000000000000000000000000000000600082015250565b60006143cf600b836134d8565b91506143da82614399565b602082019050919050565b600060208201905081810360008301526143fe816143c2565b9050919050565b600060408201905061441a6000830185613406565b6144276020830184613406565b9392505050565b7f536f6c64204f7574000000000000000000000000000000000000000000000000600082015250565b60006144646008836134d8565b915061446f8261442e565b602082019050919050565b6000602082019050818103600083015261449381614457565b9050919050565b7f476167616c204261796172204944525400000000000000000000000000000000600082015250565b60006144d06010836134d8565b91506144db8261449a565b602082019050919050565b600060208201905081810360008301526144ff816144c3565b9050919050565b7f476167616c204b6972696d20536168616d000000000000000000000000000000600082015250565b600061453c6011836134d8565b915061454782614506565b602082019050919050565b6000602082019050818103600083015261456b8161452f565b9050919050565b600060608201905061458760008301866134be565b6145946020830185613406565b6145a16040830184613406565b949350505050565b60006145b4826133a3565b91507fffffffffffffffffffffffffffffffffffffffffffffffffffffffffffffffff82036145e6576145e5613c88565b5b600182019050919050565b60008190508160005260206000209050919050565b60006020601f8301049050919050565b600082821b905092915050565b6000600883026146537fffffffffffffffffffffffffffffffffffffffffffffffffffffffffffffffff82614616565b61465d8683614616565b95508019841693508086168417925050509392505050565b600061469061468b614686846133a3565b613669565b6133a3565b9050919050565b6000819050919050565b6146aa83614675565b6146be6146b682614697565b848454614623565b825550505050565b600090565b6146d36146c6565b6146de8184846146a1565b505050565b5b81811015614702576146f76000826146cb565b6001810190506146e4565b5050565b601f82111561474757614718816145f1565b61472184614606565b81016020851015614730578190505b61474461473c85614606565b8301826146e3565b50505b505050565b600082821c905092915050565b600061476a6000198460080261474c565b1980831691505092915050565b60006147838383614759565b9150826002028217905092915050565b61479c826134cd565b67ffffffffffffffff8111156147b5576147b4613735565b5b6147bf8254613db1565b6147ca828285614706565b600060209050601f8311600181146147fd57600084156147eb578287015190505b6147f58582614777565b86555061485d565b601f19841661480b866145f1565b60005b828110156148335784890151825560018201915060208501945060208101905061480e565b86831015614850578489015161484c601f891682614759565b8355505b6001600288020188555050505b505050505050565b7f56656e646f7220496c6567616c00000000000000000000000000000000000000600082015250565b600061489b600d836134d8565b91506148a682614865565b602082019050919050565b600060208201905081810360008301526148ca8161488e565b9050919050565b7f44616e612047726f777468204b7572616e670000000000000000000000000000600082015250565b60006149076012836134d8565b9150614912826148d1565b602082019050919050565b60006020820190508181036000830152614936816148fa565b9050919050565b7f42454c49204d4553494e00000000000000000000000000000000000000000000600082015250565b6000614973600a836134d8565b915061497e8261493d565b602082019050919050565b6000815461499681613db1565b6149a081866134d8565b945060018216600081146149bb57600181146149d157614a04565b60ff198316865281151560200286019350614a04565b6149da856145f1565b60005b838110156149fc578154818901526001820191506020810190506149dd565b808801955050505b50505092915050565b60006080820190508181036000830152614a2681614966565b9050614a3560208301866134be565b614a426040830185613406565b8181036060830152614a548184614989565b9050949350505050565b7f42454c4920424148414e00000000000000000000000000000000000000000000600082015250565b6000614a94600a836134d8565b9150614a9f82614a5e565b602082019050919050565b60006080820190508181036000830152614ac381614a87565b9050614ad260208301866134be565b614adf6040830185613406565b8181036060830152614af18184614989565b9050949350505050565b6000604082019050614b106000830185613406565b614b1d6020830184613569565b9392505050565b7f4d61782057616c6c6574204c696d697420343025000000000000000000000000600082015250565b6000614b5a6014836134d8565b9150614b6582614b24565b602082019050919050565b60006020820190508181036000830152614b8981614b4d565b9050919050565b7f4b6173204b6f736f6e6700000000000000000000000000000000000000000000600082015250565b6000614bc6600a836134d8565b9150614bd182614b90565b602082019050919050565b60006020820190508181036000830152614bf581614bb9565b9050919050565b7f4d6f64616c2047726f7774682046756e64204861626973210000000000000000600082015250565b6000614c326018836134d8565b9150614c3d82614bfc565b602082019050919050565b60006020820190508181036000830152614c6181614c25565b9050919050565b6000606082019050614c7d6000830186613406565b8181036020830152614c8f8185613524565b90508181036040830152614ca38184613524565b905094935050505056fea2646970667358221220e0241432c6666bca42ddcfe6198f8a31cf7e090d1632e49dbe267c01c598a52464736f6c634300081e0033",
					"opcodes": "PUSH1 0x80 PUSH1 0x40 MSTORE PUSH10 0x32D26D12E980B600000 PUSH1 0x3 SSTORE PUSH10 0x10F0CF064DD59200000 PUSH1 0x4 SSTORE PUSH9 0x3635C9ADC5DEA00000 PUSH1 0xC SSTORE CALLVALUE DUP1 ISZERO PUSH2 0x39 JUMPI PUSH1 0x0 DUP1 REVERT JUMPDEST POP PUSH1 0x40 MLOAD PUSH2 0x4F62 CODESIZE SUB DUP1 PUSH2 0x4F62 DUP4 CODECOPY DUP2 DUP2 ADD PUSH1 0x40 MSTORE DUP2 ADD SWAP1 PUSH2 0x5B SWAP2 SWAP1 PUSH2 0x21D JUMP JUMPDEST DUP3 PUSH1 0x0 DUP1 PUSH2 0x100 EXP DUP2 SLOAD DUP2 PUSH20 0xFFFFFFFFFFFFFFFFFFFFFFFFFFFFFFFFFFFFFFFF MUL NOT AND SWAP1 DUP4 PUSH20 0xFFFFFFFFFFFFFFFFFFFFFFFFFFFFFFFFFFFFFFFF AND MUL OR SWAP1 SSTORE POP DUP2 PUSH1 0x1 PUSH1 0x0 PUSH2 0x100 EXP DUP2 SLOAD DUP2 PUSH20 0xFFFFFFFFFFFFFFFFFFFFFFFFFFFFFFFFFFFFFFFF MUL NOT AND SWAP1 DUP4 PUSH20 0xFFFFFFFFFFFFFFFFFFFFFFFFFFFFFFFFFFFFFFFF AND MUL OR SWAP1 SSTORE POP DUP1 PUSH1 0x3 DUP2 SWAP1 SSTORE POP CALLER PUSH1 0x2 PUSH1 0x0 PUSH2 0x100 EXP DUP2 SLOAD DUP2 PUSH20 0xFFFFFFFFFFFFFFFFFFFFFFFFFFFFFFFFFFFFFFFF MUL NOT AND SWAP1 DUP4 PUSH20 0xFFFFFFFFFFFFFFFFFFFFFFFFFFFFFFFFFFFFFFFF AND MUL OR SWAP1 SSTORE POP PUSH1 0x1 PUSH1 0x11 PUSH1 0x0 CALLER PUSH20 0xFFFFFFFFFFFFFFFFFFFFFFFFFFFFFFFFFFFFFFFF AND PUSH20 0xFFFFFFFFFFFFFFFFFFFFFFFFFFFFFFFFFFFFFFFF AND DUP2 MSTORE PUSH1 0x20 ADD SWAP1 DUP2 MSTORE PUSH1 0x20 ADD PUSH1 0x0 KECCAK256 PUSH1 0x0 PUSH2 0x100 EXP DUP2 SLOAD DUP2 PUSH1 0xFF MUL NOT AND SWAP1 DUP4 ISZERO ISZERO MUL OR SWAP1 SSTORE POP POP POP POP PUSH2 0x270 JUMP JUMPDEST PUSH1 0x0 DUP1 REVERT JUMPDEST PUSH1 0x0 PUSH20 0xFFFFFFFFFFFFFFFFFFFFFFFFFFFFFFFFFFFFFFFF DUP3 AND SWAP1 POP SWAP2 SWAP1 POP JUMP JUMPDEST PUSH1 0x0 PUSH2 0x1B4 DUP3 PUSH2 0x189 JUMP JUMPDEST SWAP1 POP SWAP2 SWAP1 POP JUMP JUMPDEST PUSH2 0x1C4 DUP2 PUSH2 0x1A9 JUMP JUMPDEST DUP2 EQ PUSH2 0x1CF JUMPI PUSH1 0x0 DUP1 REVERT JUMPDEST POP JUMP JUMPDEST PUSH1 0x0 DUP2 MLOAD SWAP1 POP PUSH2 0x1E1 DUP2 PUSH2 0x1BB JUMP JUMPDEST SWAP3 SWAP2 POP POP JUMP JUMPDEST PUSH1 0x0 DUP2 SWAP1 POP SWAP2 SWAP1 POP JUMP JUMPDEST PUSH2 0x1FA DUP2 PUSH2 0x1E7 JUMP JUMPDEST DUP2 EQ PUSH2 0x205 JUMPI PUSH1 0x0 DUP1 REVERT JUMPDEST POP JUMP JUMPDEST PUSH1 0x0 DUP2 MLOAD SWAP1 POP PUSH2 0x217 DUP2 PUSH2 0x1F1 JUMP JUMPDEST SWAP3 SWAP2 POP POP JUMP JUMPDEST PUSH1 0x0 DUP1 PUSH1 0x0 PUSH1 0x60 DUP5 DUP7 SUB SLT ISZERO PUSH2 0x236 JUMPI PUSH2 0x235 PUSH2 0x184 JUMP JUMPDEST JUMPDEST PUSH1 0x0 PUSH2 0x244 DUP7 DUP3 DUP8 ADD PUSH2 0x1D2 JUMP JUMPDEST SWAP4 POP POP PUSH1 0x20 PUSH2 0x255 DUP7 DUP3 DUP8 ADD PUSH2 0x1D2 JUMP JUMPDEST SWAP3 POP POP PUSH1 0x40 PUSH2 0x266 DUP7 DUP3 DUP8 ADD PUSH2 0x208 JUMP JUMPDEST SWAP2 POP POP SWAP3 POP SWAP3 POP SWAP3 JUMP JUMPDEST PUSH2 0x4CE3 DUP1 PUSH2 0x27F PUSH1 0x0 CODECOPY PUSH1 0x0 RETURN INVALID PUSH1 0x80 PUSH1 0x40 MSTORE CALLVALUE DUP1 ISZERO PUSH2 0x10 JUMPI PUSH1 0x0 DUP1 REVERT JUMPDEST POP PUSH1 0x4 CALLDATASIZE LT PUSH2 0x232 JUMPI PUSH1 0x0 CALLDATALOAD PUSH1 0xE0 SHR DUP1 PUSH4 0x817BC0CB GT PUSH2 0x130 JUMPI DUP1 PUSH4 0xB4B4B55E GT PUSH2 0xB8 JUMPI DUP1 PUSH4 0xDA35C664 GT PUSH2 0x7C JUMPI DUP1 PUSH4 0xDA35C664 EQ PUSH2 0x665 JUMPI DUP1 PUSH4 0xDE3AAF61 EQ PUSH2 0x683 JUMPI DUP1 PUSH4 0xE70B7424 EQ PUSH2 0x6B3 JUMPI DUP1 PUSH4 0xEECACE28 EQ PUSH2 0x6CF JUMPI DUP1 PUSH4 0xF847DFF7 EQ PUSH2 0x6FF JUMPI PUSH2 0x232 JUMP JUMPDEST DUP1 PUSH4 0xB4B4B55E EQ PUSH2 0x5D3 JUMPI DUP1 PUSH4 0xBF2D9E0B EQ PUSH2 0x5F1 JUMPI DUP1 PUSH4 0xC870B910 EQ PUSH2 0x60F JUMPI DUP1 PUSH4 0xD1A93D18 EQ PUSH2 0x62D JUMPI DUP1 PUSH4 0xD8E0F826 EQ PUSH2 0x649 JUMPI PUSH2 0x232 JUMP JUMPDEST DUP1 PUSH4 0x97A06724 GT PUSH2 0xFF JUMPI DUP1 PUSH4 0x97A06724 EQ PUSH2 0x509 JUMPI DUP1 PUSH4 0x9F13464E EQ PUSH2 0x539 JUMPI DUP1 PUSH4 0xA4138B9B EQ PUSH2 0x557 JUMPI DUP1 PUSH4 0xAD9ADCDC EQ PUSH2 0x587 JUMPI DUP1 PUSH4 0xB03B4A29 EQ PUSH2 0x5B7 JUMPI PUSH2 0x232 JUMP JUMPDEST DUP1 PUSH4 0x817BC0CB EQ PUSH2 0x491 JUMPI DUP1 PUSH4 0x85A6B3AE EQ PUSH2 0x4AF JUMPI DUP1 PUSH4 0x87269729 EQ PUSH2 0x4CD JUMPI DUP1 PUSH4 0x8DA5CB5B EQ PUSH2 0x4EB JUMPI PUSH2 0x232 JUMP JUMPDEST DUP1 PUSH4 0x3A7960E0 GT PUSH2 0x1BE JUMPI DUP1 PUSH4 0x56544490 GT PUSH2 0x182 JUMPI DUP1 PUSH4 0x56544490 EQ PUSH2 0x413 JUMPI DUP1 PUSH4 0x5C3640EC EQ PUSH2 0x42F JUMPI DUP1 PUSH4 0x668038E0 EQ PUSH2 0x44D JUMPI DUP1 PUSH4 0x679B9144 EQ PUSH2 0x457 JUMPI DUP1 PUSH4 0x77056D0F EQ PUSH2 0x473 JUMPI PUSH2 0x232 JUMP JUMPDEST DUP1 PUSH4 0x3A7960E0 EQ PUSH2 0x356 JUMPI DUP1 PUSH4 0x3AF32ABF EQ PUSH2 0x374 JUMPI DUP1 PUSH4 0x41260365 EQ PUSH2 0x3A4 JUMPI DUP1 PUSH4 0x4D42845C EQ PUSH2 0x3C2 JUMPI DUP1 PUSH4 0x51CE612C EQ PUSH2 0x3F5 JUMPI PUSH2 0x232 JUMP JUMPDEST DUP1 PUSH4 0x16C70448 GT PUSH2 0x205 JUMPI DUP1 PUSH4 0x16C70448 EQ PUSH2 0x2C4 JUMPI DUP1 PUSH4 0x1C8A4038 EQ PUSH2 0x2E0 JUMPI DUP1 PUSH4 0x2620B4EE EQ PUSH2 0x2FE JUMPI DUP1 PUSH4 0x3013CE29 EQ PUSH2 0x31C JUMPI DUP1 PUSH4 0x33C5E003 EQ PUSH2 0x33A JUMPI PUSH2 0x232 JUMP JUMPDEST DUP1 PUSH4 0x121B93F EQ PUSH2 0x237 JUMPI DUP1 PUSH4 0x13CF08B EQ PUSH2 0x253 JUMPI DUP1 PUSH4 0xEB94A67 EQ PUSH2 0x28A JUMPI DUP1 PUSH4 0x1083F761 EQ PUSH2 0x2A6 JUMPI JUMPDEST PUSH1 0x0 DUP1 REVERT JUMPDEST PUSH2 0x251 PUSH1 0x4 DUP1 CALLDATASIZE SUB DUP2 ADD SWAP1 PUSH2 0x24C SWAP2 SWAP1 PUSH2 0x33D9 JUMP JUMPDEST PUSH2 0x71B JUMP JUMPDEST STOP JUMPDEST PUSH2 0x26D PUSH1 0x4 DUP1 CALLDATASIZE SUB DUP2 ADD SWAP1 PUSH2 0x268 SWAP2 SWAP1 PUSH2 0x33D9 JUMP JUMPDEST PUSH2 0xB29 JUMP JUMPDEST PUSH1 0x40 MLOAD PUSH2 0x281 SWAP9 SWAP8 SWAP7 SWAP6 SWAP5 SWAP4 SWAP3 SWAP2 SWAP1 PUSH2 0x3578 JUMP JUMPDEST PUSH1 0x40 MLOAD DUP1 SWAP2 SUB SWAP1 RETURN JUMPDEST PUSH2 0x2A4 PUSH1 0x4 DUP1 CALLDATASIZE SUB DUP2 ADD SWAP1 PUSH2 0x29F SWAP2 SWAP1 PUSH2 0x3629 JUMP JUMPDEST PUSH2 0xC33 JUMP JUMPDEST STOP JUMPDEST PUSH2 0x2AE PUSH2 0xEA2 JUMP JUMPDEST PUSH1 0x40 MLOAD PUSH2 0x2BB SWAP2 SWAP1 PUSH2 0x36C8 JUMP JUMPDEST PUSH1 0x40 MLOAD DUP1 SWAP2 SUB SWAP1 RETURN JUMPDEST PUSH2 0x2DE PUSH1 0x4 DUP1 CALLDATASIZE SUB DUP2 ADD SWAP1 PUSH2 0x2D9 SWAP2 SWAP1 PUSH2 0x36E3 JUMP JUMPDEST PUSH2 0xEC8 JUMP JUMPDEST STOP JUMPDEST PUSH2 0x2E8 PUSH2 0x1180 JUMP JUMPDEST PUSH1 0x40 MLOAD PUSH2 0x2F5 SWAP2 SWAP1 PUSH2 0x3710 JUMP JUMPDEST PUSH1 0x40 MLOAD DUP1 SWAP2 SUB SWAP1 RETURN JUMPDEST PUSH2 0x306 PUSH2 0x1186 JUMP JUMPDEST PUSH1 0x40 MLOAD PUSH2 0x313 SWAP2 SWAP1 PUSH2 0x3710 JUMP JUMPDEST PUSH1 0x40 MLOAD DUP1 SWAP2 SUB SWAP1 RETURN JUMPDEST PUSH2 0x324 PUSH2 0x118B JUMP JUMPDEST PUSH1 0x40 MLOAD PUSH2 0x331 SWAP2 SWAP1 PUSH2 0x36C8 JUMP JUMPDEST PUSH1 0x40 MLOAD DUP1 SWAP2 SUB SWAP1 RETURN JUMPDEST PUSH2 0x354 PUSH1 0x4 DUP1 CALLDATASIZE SUB DUP2 ADD SWAP1 PUSH2 0x34F SWAP2 SWAP1 PUSH2 0x3860 JUMP JUMPDEST PUSH2 0x11AF JUMP JUMPDEST STOP JUMPDEST PUSH2 0x35E PUSH2 0x1251 JUMP JUMPDEST PUSH1 0x40 MLOAD PUSH2 0x36B SWAP2 SWAP1 PUSH2 0x3710 JUMP JUMPDEST PUSH1 0x40 MLOAD DUP1 SWAP2 SUB SWAP1 RETURN JUMPDEST PUSH2 0x38E PUSH1 0x4 DUP1 CALLDATASIZE SUB DUP2 ADD SWAP1 PUSH2 0x389 SWAP2 SWAP1 PUSH2 0x36E3 JUMP JUMPDEST PUSH2 0x1257 JUMP JUMPDEST PUSH1 0x40 MLOAD PUSH2 0x39B SWAP2 SWAP1 PUSH2 0x38CF JUMP JUMPDEST PUSH1 0x40 MLOAD DUP1 SWAP2 SUB SWAP1 RETURN JUMPDEST PUSH2 0x3AC PUSH2 0x1277 JUMP JUMPDEST PUSH1 0x40 MLOAD PUSH2 0x3B9 SWAP2 SWAP1 PUSH2 0x3710 JUMP JUMPDEST PUSH1 0x40 MLOAD DUP1 SWAP2 SUB SWAP1 RETURN JUMPDEST PUSH2 0x3DC PUSH1 0x4 DUP1 CALLDATASIZE SUB DUP2 ADD SWAP1 PUSH2 0x3D7 SWAP2 SWAP1 PUSH2 0x33D9 JUMP JUMPDEST PUSH2 0x127D JUMP JUMPDEST PUSH1 0x40 MLOAD PUSH2 0x3EC SWAP5 SWAP4 SWAP3 SWAP2 SWAP1 PUSH2 0x38EA JUMP JUMPDEST PUSH1 0x40 MLOAD DUP1 SWAP2 SUB SWAP1 RETURN JUMPDEST PUSH2 0x3FD PUSH2 0x1342 JUMP JUMPDEST PUSH1 0x40 MLOAD PUSH2 0x40A SWAP2 SWAP1 PUSH2 0x3710 JUMP JUMPDEST PUSH1 0x40 MLOAD DUP1 SWAP2 SUB SWAP1 RETURN JUMPDEST PUSH2 0x42D PUSH1 0x4 DUP1 CALLDATASIZE SUB DUP2 ADD SWAP1 PUSH2 0x428 SWAP2 SWAP1 PUSH2 0x3860 JUMP JUMPDEST PUSH2 0x1347 JUMP JUMPDEST STOP JUMPDEST PUSH2 0x437 PUSH2 0x13E9 JUMP JUMPDEST PUSH1 0x40 MLOAD PUSH2 0x444 SWAP2 SWAP1 PUSH2 0x3710 JUMP JUMPDEST PUSH1 0x40 MLOAD DUP1 SWAP2 SUB SWAP1 RETURN JUMPDEST PUSH2 0x455 PUSH2 0x13EF JUMP JUMPDEST STOP JUMPDEST PUSH2 0x471 PUSH1 0x4 DUP1 CALLDATASIZE SUB DUP2 ADD SWAP1 PUSH2 0x46C SWAP2 SWAP1 PUSH2 0x3860 JUMP JUMPDEST PUSH2 0x164D JUMP JUMPDEST STOP JUMPDEST PUSH2 0x47B PUSH2 0x16EF JUMP JUMPDEST PUSH1 0x40 MLOAD PUSH2 0x488 SWAP2 SWAP1 PUSH2 0x3710 JUMP JUMPDEST PUSH1 0x40 MLOAD DUP1 SWAP2 SUB SWAP1 RETURN JUMPDEST PUSH2 0x499 PUSH2 0x17DD JUMP JUMPDEST PUSH1 0x40 MLOAD PUSH2 0x4A6 SWAP2 SWAP1 PUSH2 0x3710 JUMP JUMPDEST PUSH1 0x40 MLOAD DUP1 SWAP2 SUB SWAP1 RETURN JUMPDEST PUSH2 0x4B7 PUSH2 0x18A2 JUMP JUMPDEST PUSH1 0x40 MLOAD PUSH2 0x4C4 SWAP2 SWAP1 PUSH2 0x3710 JUMP JUMPDEST PUSH1 0x40 MLOAD DUP1 SWAP2 SUB SWAP1 RETURN JUMPDEST PUSH2 0x4D5 PUSH2 0x18A8 JUMP JUMPDEST PUSH1 0x40 MLOAD PUSH2 0x4E2 SWAP2 SWAP1 PUSH2 0x3710 JUMP JUMPDEST PUSH1 0x40 MLOAD DUP1 SWAP2 SUB SWAP1 RETURN JUMPDEST PUSH2 0x4F3 PUSH2 0x18AE JUMP JUMPDEST PUSH1 0x40 MLOAD PUSH2 0x500 SWAP2 SWAP1 PUSH2 0x3936 JUMP JUMPDEST PUSH1 0x40 MLOAD DUP1 SWAP2 SUB SWAP1 RETURN JUMPDEST PUSH2 0x523 PUSH1 0x4 DUP1 CALLDATASIZE SUB DUP2 ADD SWAP1 PUSH2 0x51E SWAP2 SWAP1 PUSH2 0x36E3 JUMP JUMPDEST PUSH2 0x18D4 JUMP JUMPDEST PUSH1 0x40 MLOAD PUSH2 0x530 SWAP2 SWAP1 PUSH2 0x396A JUMP JUMPDEST PUSH1 0x40 MLOAD DUP1 SWAP2 SUB SWAP1 RETURN JUMPDEST PUSH2 0x541 PUSH2 0x18EC JUMP JUMPDEST PUSH1 0x40 MLOAD PUSH2 0x54E SWAP2 SWAP1 PUSH2 0x3710 JUMP JUMPDEST PUSH1 0x40 MLOAD DUP1 SWAP2 SUB SWAP1 RETURN JUMPDEST PUSH2 0x571 PUSH1 0x4 DUP1 CALLDATASIZE SUB DUP2 ADD SWAP1 PUSH2 0x56C SWAP2 SWAP1 PUSH2 0x36E3 JUMP JUMPDEST PUSH2 0x18F2 JUMP JUMPDEST PUSH1 0x40 MLOAD PUSH2 0x57E SWAP2 SWAP1 PUSH2 0x3710 JUMP JUMPDEST PUSH1 0x40 MLOAD DUP1 SWAP2 SUB SWAP1 RETURN JUMPDEST PUSH2 0x5A1 PUSH1 0x4 DUP1 CALLDATASIZE SUB DUP2 ADD SWAP1 PUSH2 0x59C SWAP2 SWAP1 PUSH2 0x36E3 JUMP JUMPDEST PUSH2 0x1A99 JUMP JUMPDEST PUSH1 0x40 MLOAD PUSH2 0x5AE SWAP2 SWAP1 PUSH2 0x3710 JUMP JUMPDEST PUSH1 0x40 MLOAD DUP1 SWAP2 SUB SWAP1 RETURN JUMPDEST PUSH2 0x5D1 PUSH1 0x4 DUP1 CALLDATASIZE SUB DUP2 ADD SWAP1 PUSH2 0x5CC SWAP2 SWAP1 PUSH2 0x33D9 JUMP JUMPDEST PUSH2 0x1AB1 JUMP JUMPDEST STOP JUMPDEST PUSH2 0x5DB PUSH2 0x1F3D JUMP JUMPDEST PUSH1 0x40 MLOAD PUSH2 0x5E8 SWAP2 SWAP1 PUSH2 0x3710 JUMP JUMPDEST PUSH1 0x40 MLOAD DUP1 SWAP2 SUB SWAP1 RETURN JUMPDEST PUSH2 0x5F9 PUSH2 0x1F42 JUMP JUMPDEST PUSH1 0x40 MLOAD PUSH2 0x606 SWAP2 SWAP1 PUSH2 0x3710 JUMP JUMPDEST PUSH1 0x40 MLOAD DUP1 SWAP2 SUB SWAP1 RETURN JUMPDEST PUSH2 0x617 PUSH2 0x1F48 JUMP JUMPDEST PUSH1 0x40 MLOAD PUSH2 0x624 SWAP2 SWAP1 PUSH2 0x3710 JUMP JUMPDEST PUSH1 0x40 MLOAD DUP1 SWAP2 SUB SWAP1 RETURN JUMPDEST PUSH2 0x647 PUSH1 0x4 DUP1 CALLDATASIZE SUB DUP2 ADD SWAP1 PUSH2 0x642 SWAP2 SWAP1 PUSH2 0x33D9 JUMP JUMPDEST PUSH2 0x1F4E JUMP JUMPDEST STOP JUMPDEST PUSH2 0x663 PUSH1 0x4 DUP1 CALLDATASIZE SUB DUP2 ADD SWAP1 PUSH2 0x65E SWAP2 SWAP1 PUSH2 0x3985 JUMP JUMPDEST PUSH2 0x23A6 JUMP JUMPDEST STOP JUMPDEST PUSH2 0x66D PUSH2 0x24DA JUMP JUMPDEST PUSH1 0x40 MLOAD PUSH2 0x67A SWAP2 SWAP1 PUSH2 0x3710 JUMP JUMPDEST PUSH1 0x40 MLOAD DUP1 SWAP2 SUB SWAP1 RETURN JUMPDEST PUSH2 0x69D PUSH1 0x4 DUP1 CALLDATASIZE SUB DUP2 ADD SWAP1 PUSH2 0x698 SWAP2 SWAP1 PUSH2 0x36E3 JUMP JUMPDEST PUSH2 0x24E0 JUMP JUMPDEST PUSH1 0x40 MLOAD PUSH2 0x6AA SWAP2 SWAP1 PUSH2 0x3710 JUMP JUMPDEST PUSH1 0x40 MLOAD DUP1 SWAP2 SUB SWAP1 RETURN JUMPDEST PUSH2 0x6CD PUSH1 0x4 DUP1 CALLDATASIZE SUB DUP2 ADD SWAP1 PUSH2 0x6C8 SWAP2 SWAP1 PUSH2 0x39CE JUMP JUMPDEST PUSH2 0x24F8 JUMP JUMPDEST STOP JUMPDEST PUSH2 0x6E9 PUSH1 0x4 DUP1 CALLDATASIZE SUB DUP2 ADD SWAP1 PUSH2 0x6E4 SWAP2 SWAP1 PUSH2 0x36E3 JUMP JUMPDEST PUSH2 0x259A JUMP JUMPDEST PUSH1 0x40 MLOAD PUSH2 0x6F6 SWAP2 SWAP1 PUSH2 0x3710 JUMP JUMPDEST PUSH1 0x40 MLOAD DUP1 SWAP2 SUB SWAP1 RETURN JUMPDEST PUSH2 0x719 PUSH1 0x4 DUP1 CALLDATASIZE SUB DUP2 ADD SWAP1 PUSH2 0x714 SWAP2 SWAP1 PUSH2 0x33D9 JUMP JUMPDEST PUSH2 0x25B2 JUMP JUMPDEST STOP JUMPDEST PUSH1 0x14 PUSH1 0x0 SWAP1 SLOAD SWAP1 PUSH2 0x100 EXP SWAP1 DIV PUSH1 0xFF AND ISZERO PUSH2 0x76B JUMPI PUSH1 0x40 MLOAD PUSH32 0x8C379A000000000000000000000000000000000000000000000000000000000 DUP2 MSTORE PUSH1 0x4 ADD PUSH2 0x762 SWAP1 PUSH2 0x3A76 JUMP JUMPDEST PUSH1 0x40 MLOAD DUP1 SWAP2 SUB SWAP1 REVERT JUMPDEST PUSH1 0x1 PUSH1 0x14 PUSH1 0x0 PUSH2 0x100 EXP DUP2 SLOAD DUP2 PUSH1 0xFF MUL NOT AND SWAP1 DUP4 ISZERO ISZERO MUL OR SWAP1 SSTORE POP PUSH1 0x0 PUSH1 0x12 PUSH1 0x0 DUP4 DUP2 MSTORE PUSH1 0x20 ADD SWAP1 DUP2 MSTORE PUSH1 0x20 ADD PUSH1 0x0 KECCAK256 SWAP1 POP DUP1 PUSH1 0x6 ADD SLOAD TIMESTAMP LT PUSH2 0x7E3 JUMPI PUSH1 0x40 MLOAD PUSH32 0x8C379A000000000000000000000000000000000000000000000000000000000 DUP2 MSTORE PUSH1 0x4 ADD PUSH2 0x7DA SWAP1 PUSH2 0x3AE2 JUMP JUMPDEST PUSH1 0x40 MLOAD DUP1 SWAP2 SUB SWAP1 REVERT JUMPDEST DUP1 PUSH1 0x7 ADD PUSH1 0x0 CALLER PUSH20 0xFFFFFFFFFFFFFFFFFFFFFFFFFFFFFFFFFFFFFFFF AND PUSH20 0xFFFFFFFFFFFFFFFFFFFFFFFFFFFFFFFFFFFFFFFF AND DUP2 MSTORE PUSH1 0x20 ADD SWAP1 DUP2 MSTORE PUSH1 0x20 ADD PUSH1 0x0 KECCAK256 PUSH1 0x0 SWAP1 SLOAD SWAP1 PUSH2 0x100 EXP SWAP1 DIV PUSH1 0xFF AND ISZERO PUSH2 0x872 JUMPI PUSH1 0x40 MLOAD PUSH32 0x8C379A000000000000000000000000000000000000000000000000000000000 DUP2 MSTORE PUSH1 0x4 ADD PUSH2 0x869 SWAP1 PUSH2 0x3B4E JUMP JUMPDEST PUSH1 0x40 MLOAD DUP1 SWAP2 SUB SWAP1 REVERT JUMPDEST DUP1 PUSH1 0x5 ADD PUSH1 0x0 SWAP1 SLOAD SWAP1 PUSH2 0x100 EXP SWAP1 DIV PUSH1 0xFF AND ISZERO PUSH2 0x8C4 JUMPI PUSH1 0x40 MLOAD PUSH32 0x8C379A000000000000000000000000000000000000000000000000000000000 DUP2 MSTORE PUSH1 0x4 ADD PUSH2 0x8BB SWAP1 PUSH2 0x3BBA JUMP JUMPDEST PUSH1 0x40 MLOAD DUP1 SWAP2 SUB SWAP1 REVERT JUMPDEST PUSH1 0x0 PUSH1 0x1 PUSH1 0x0 SWAP1 SLOAD SWAP1 PUSH2 0x100 EXP SWAP1 DIV PUSH20 0xFFFFFFFFFFFFFFFFFFFFFFFFFFFFFFFFFFFFFFFF AND PUSH20 0xFFFFFFFFFFFFFFFFFFFFFFFFFFFFFFFFFFFFFFFF AND PUSH4 0x70A08231 CALLER PUSH1 0x40 MLOAD DUP3 PUSH4 0xFFFFFFFF AND PUSH1 0xE0 SHL DUP2 MSTORE PUSH1 0x4 ADD PUSH2 0x921 SWAP2 SWAP1 PUSH2 0x3936 JUMP JUMPDEST PUSH1 0x20 PUSH1 0x40 MLOAD DUP1 DUP4 SUB DUP2 DUP7 GAS STATICCALL ISZERO DUP1 ISZERO PUSH2 0x93E JUMPI RETURNDATASIZE PUSH1 0x0 DUP1 RETURNDATACOPY RETURNDATASIZE PUSH1 0x0 REVERT JUMPDEST POP POP POP POP PUSH1 0x40 MLOAD RETURNDATASIZE PUSH1 0x1F NOT PUSH1 0x1F DUP3 ADD AND DUP3 ADD DUP1 PUSH1 0x40 MSTORE POP DUP2 ADD SWAP1 PUSH2 0x962 SWAP2 SWAP1 PUSH2 0x3BEF JUMP JUMPDEST SWAP1 POP PUSH1 0x0 DUP2 GT PUSH2 0x9A7 JUMPI PUSH1 0x40 MLOAD PUSH32 0x8C379A000000000000000000000000000000000000000000000000000000000 DUP2 MSTORE PUSH1 0x4 ADD PUSH2 0x99E SWAP1 PUSH2 0x3C68 JUMP JUMPDEST PUSH1 0x40 MLOAD DUP1 SWAP2 SUB SWAP1 REVERT JUMPDEST PUSH1 0x1 DUP3 PUSH1 0x7 ADD PUSH1 0x0 CALLER PUSH20 0xFFFFFFFFFFFFFFFFFFFFFFFFFFFFFFFFFFFFFFFF AND PUSH20 0xFFFFFFFFFFFFFFFFFFFFFFFFFFFFFFFFFFFFFFFF AND DUP2 MSTORE PUSH1 0x20 ADD SWAP1 DUP2 MSTORE PUSH1 0x20 ADD PUSH1 0x0 KECCAK256 PUSH1 0x0 PUSH2 0x100 EXP DUP2 SLOAD DUP2 PUSH1 0xFF MUL NOT AND SWAP1 DUP4 ISZERO ISZERO MUL OR SWAP1 SSTORE POP DUP1 DUP3 PUSH1 0x4 ADD PUSH1 0x0 DUP3 DUP3 SLOAD PUSH2 0xA15 SWAP2 SWAP1 PUSH2 0x3CB7 JUMP JUMPDEST SWAP3 POP POP DUP2 SWAP1 SSTORE POP PUSH32 0x1ABE610CF2BF87E57DCC1181FCF5AC0934E843D8344AB9EED6E86C799F62585E DUP4 CALLER DUP4 PUSH1 0x40 MLOAD PUSH2 0xA4F SWAP4 SWAP3 SWAP2 SWAP1 PUSH2 0x3CEB JUMP JUMPDEST PUSH1 0x40 MLOAD DUP1 SWAP2 SUB SWAP1 LOG1 PUSH1 0x2 PUSH1 0x1 PUSH1 0x0 SWAP1 SLOAD SWAP1 PUSH2 0x100 EXP SWAP1 DIV PUSH20 0xFFFFFFFFFFFFFFFFFFFFFFFFFFFFFFFFFFFFFFFF AND PUSH20 0xFFFFFFFFFFFFFFFFFFFFFFFFFFFFFFFFFFFFFFFF AND PUSH4 0x18160DDD PUSH1 0x40 MLOAD DUP2 PUSH4 0xFFFFFFFF AND PUSH1 0xE0 SHL DUP2 MSTORE PUSH1 0x4 ADD PUSH1 0x20 PUSH1 0x40 MLOAD DUP1 DUP4 SUB DUP2 DUP7 GAS STATICCALL ISZERO DUP1 ISZERO PUSH2 0xAC6 JUMPI RETURNDATASIZE PUSH1 0x0 DUP1 RETURNDATACOPY RETURNDATASIZE PUSH1 0x0 REVERT JUMPDEST POP POP POP POP PUSH1 0x40 MLOAD RETURNDATASIZE PUSH1 0x1F NOT PUSH1 0x1F DUP3 ADD AND DUP3 ADD DUP1 PUSH1 0x40 MSTORE POP DUP2 ADD SWAP1 PUSH2 0xAEA SWAP2 SWAP1 PUSH2 0x3BEF JUMP JUMPDEST PUSH2 0xAF4 SWAP2 SWAP1 PUSH2 0x3D51 JUMP JUMPDEST DUP3 PUSH1 0x4 ADD SLOAD GT ISZERO PUSH2 0xB09 JUMPI PUSH2 0xB08 DUP3 PUSH2 0x264C JUMP JUMPDEST JUMPDEST POP POP PUSH1 0x0 PUSH1 0x14 PUSH1 0x0 PUSH2 0x100 EXP DUP2 SLOAD DUP2 PUSH1 0xFF MUL NOT AND SWAP1 DUP4 ISZERO ISZERO MUL OR SWAP1 SSTORE POP POP JUMP JUMPDEST PUSH1 0x12 PUSH1 0x20 MSTORE DUP1 PUSH1 0x0 MSTORE PUSH1 0x40 PUSH1 0x0 KECCAK256 PUSH1 0x0 SWAP2 POP SWAP1 POP DUP1 PUSH1 0x0 ADD SLOAD SWAP1 DUP1 PUSH1 0x1 ADD PUSH1 0x0 SWAP1 SLOAD SWAP1 PUSH2 0x100 EXP SWAP1 DIV PUSH1 0xFF AND SWAP1 DUP1 PUSH1 0x1 ADD PUSH1 0x1 SWAP1 SLOAD SWAP1 PUSH2 0x100 EXP SWAP1 DIV PUSH20 0xFFFFFFFFFFFFFFFFFFFFFFFFFFFFFFFFFFFFFFFF AND SWAP1 DUP1 PUSH1 0x2 ADD SLOAD SWAP1 DUP1 PUSH1 0x3 ADD DUP1 SLOAD PUSH2 0xB91 SWAP1 PUSH2 0x3DB1 JUMP JUMPDEST DUP1 PUSH1 0x1F ADD PUSH1 0x20 DUP1 SWAP2 DIV MUL PUSH1 0x20 ADD PUSH1 0x40 MLOAD SWAP1 DUP2 ADD PUSH1 0x40 MSTORE DUP1 SWAP3 SWAP2 SWAP1 DUP2 DUP2 MSTORE PUSH1 0x20 ADD DUP3 DUP1 SLOAD PUSH2 0xBBD SWAP1 PUSH2 0x3DB1 JUMP JUMPDEST DUP1 ISZERO PUSH2 0xC0A JUMPI DUP1 PUSH1 0x1F LT PUSH2 0xBDF JUMPI PUSH2 0x100 DUP1 DUP4 SLOAD DIV MUL DUP4 MSTORE SWAP2 PUSH1 0x20 ADD SWAP2 PUSH2 0xC0A JUMP JUMPDEST DUP3 ADD SWAP2 SWAP1 PUSH1 0x0 MSTORE PUSH1 0x20 PUSH1 0x0 KECCAK256 SWAP1 JUMPDEST DUP2 SLOAD DUP2 MSTORE SWAP1 PUSH1 0x1 ADD SWAP1 PUSH1 0x20 ADD DUP1 DUP4 GT PUSH2 0xBED JUMPI DUP3 SWAP1 SUB PUSH1 0x1F AND DUP3 ADD SWAP2 JUMPDEST POP POP POP POP POP SWAP1 DUP1 PUSH1 0x4 ADD SLOAD SWAP1 DUP1 PUSH1 0x5 ADD PUSH1 0x0 SWAP1 SLOAD SWAP1 PUSH2 0x100 EXP SWAP1 DIV PUSH1 0xFF AND SWAP1 DUP1 PUSH1 0x6 ADD SLOAD SWAP1 POP DUP9 JUMP JUMPDEST PUSH1 0x14 PUSH1 0x0 SWAP1 SLOAD SWAP1 PUSH2 0x100 EXP SWAP1 DIV PUSH1 0xFF AND ISZERO PUSH2 0xC83 JUMPI PUSH1 0x40 MLOAD PUSH32 0x8C379A000000000000000000000000000000000000000000000000000000000 DUP2 MSTORE PUSH1 0x4 ADD PUSH2 0xC7A SWAP1 PUSH2 0x3A76 JUMP JUMPDEST PUSH1 0x40 MLOAD DUP1 SWAP2 SUB SWAP1 REVERT JUMPDEST PUSH1 0x1 PUSH1 0x14 PUSH1 0x0 PUSH2 0x100 EXP DUP2 SLOAD DUP2 PUSH1 0xFF MUL NOT AND SWAP1 DUP4 ISZERO ISZERO MUL OR SWAP1 SSTORE POP PUSH2 0xCA8 DUP3 DUP3 PUSH2 0x2D15 JUMP JUMPDEST PUSH1 0x1 PUSH1 0x0 SWAP1 SLOAD SWAP1 PUSH2 0x100 EXP SWAP1 DIV PUSH20 0xFFFFFFFFFFFFFFFFFFFFFFFFFFFFFFFFFFFFFFFF AND PUSH20 0xFFFFFFFFFFFFFFFFFFFFFFFFFFFFFFFFFFFFFFFF AND PUSH4 0x23B872DD CALLER DUP5 DUP5 PUSH1 0x40 MLOAD DUP5 PUSH4 0xFFFFFFFF AND PUSH1 0xE0 SHL DUP2 MSTORE PUSH1 0x4 ADD PUSH2 0xD07 SWAP4 SWAP3 SWAP2 SWAP1 PUSH2 0x3DE2 JUMP JUMPDEST PUSH1 0x20 PUSH1 0x40 MLOAD DUP1 DUP4 SUB DUP2 PUSH1 0x0 DUP8 GAS CALL ISZERO DUP1 ISZERO PUSH2 0xD26 JUMPI RETURNDATASIZE PUSH1 0x0 DUP1 RETURNDATACOPY RETURNDATASIZE PUSH1 0x0 REVERT JUMPDEST POP POP POP POP PUSH1 0x40 MLOAD RETURNDATASIZE PUSH1 0x1F NOT PUSH1 0x1F DUP3 ADD AND DUP3 ADD DUP1 PUSH1 0x40 MSTORE POP DUP2 ADD SWAP1 PUSH2 0xD4A SWAP2 SWAP1 PUSH2 0x3E45 JUMP JUMPDEST PUSH2 0xD89 JUMPI PUSH1 0x40 MLOAD PUSH32 0x8C379A000000000000000000000000000000000000000000000000000000000 DUP2 MSTORE PUSH1 0x4 ADD PUSH2 0xD80 SWAP1 PUSH2 0x3EBE JUMP JUMPDEST PUSH1 0x40 MLOAD DUP1 SWAP2 SUB SWAP1 REVERT JUMPDEST PUSH1 0x0 DUP2 PUSH1 0x9 SLOAD PUSH2 0xD99 SWAP2 SWAP1 PUSH2 0x3EDE JUMP JUMPDEST SWAP1 POP DUP1 PUSH1 0xA PUSH1 0x0 CALLER PUSH20 0xFFFFFFFFFFFFFFFFFFFFFFFFFFFFFFFFFFFFFFFF AND PUSH20 0xFFFFFFFFFFFFFFFFFFFFFFFFFFFFFFFFFFFFFFFF AND DUP2 MSTORE PUSH1 0x20 ADD SWAP1 DUP2 MSTORE PUSH1 0x20 ADD PUSH1 0x0 KECCAK256 PUSH1 0x0 DUP3 DUP3 SLOAD PUSH2 0xDEA SWAP2 SWAP1 PUSH2 0x3F20 JUMP JUMPDEST SWAP3 POP POP DUP2 SWAP1 SSTORE POP DUP1 PUSH1 0xA PUSH1 0x0 DUP6 PUSH20 0xFFFFFFFFFFFFFFFFFFFFFFFFFFFFFFFFFFFFFFFF AND PUSH20 0xFFFFFFFFFFFFFFFFFFFFFFFFFFFFFFFFFFFFFFFF AND DUP2 MSTORE PUSH1 0x20 ADD SWAP1 DUP2 MSTORE PUSH1 0x20 ADD PUSH1 0x0 KECCAK256 PUSH1 0x0 DUP3 DUP3 SLOAD PUSH2 0xE40 SWAP2 SWAP1 PUSH2 0x3F64 JUMP JUMPDEST SWAP3 POP POP DUP2 SWAP1 SSTORE POP PUSH32 0x4F0F23D5D7F61E149D909D8F3EB8AA374832781E8FCB19751354B30223807374 CALLER DUP5 DUP5 PUSH1 0x40 MLOAD PUSH2 0xE7A SWAP4 SWAP3 SWAP2 SWAP1 PUSH2 0x3DE2 JUMP JUMPDEST PUSH1 0x40 MLOAD DUP1 SWAP2 SUB SWAP1 LOG1 POP PUSH1 0x0 PUSH1 0x14 PUSH1 0x0 PUSH2 0x100 EXP DUP2 SLOAD DUP2 PUSH1 0xFF MUL NOT AND SWAP1 DUP4 ISZERO ISZERO MUL OR SWAP1 SSTORE POP POP POP JUMP JUMPDEST PUSH1 0x1 PUSH1 0x0 SWAP1 SLOAD SWAP1 PUSH2 0x100 EXP SWAP1 DIV PUSH20 0xFFFFFFFFFFFFFFFFFFFFFFFFFFFFFFFFFFFFFFFF AND DUP2 JUMP JUMPDEST PUSH1 0x2 PUSH1 0x0 SWAP1 SLOAD SWAP1 PUSH2 0x100 EXP SWAP1 DIV PUSH20 0xFFFFFFFFFFFFFFFFFFFFFFFFFFFFFFFFFFFFFFFF AND PUSH20 0xFFFFFFFFFFFFFFFFFFFFFFFFFFFFFFFFFFFFFFFF AND CALLER PUSH20 0xFFFFFFFFFFFFFFFFFFFFFFFFFFFFFFFFFFFFFFFF AND EQ PUSH2 0xF58 JUMPI PUSH1 0x40 MLOAD PUSH32 0x8C379A000000000000000000000000000000000000000000000000000000000 DUP2 MSTORE PUSH1 0x4 ADD PUSH2 0xF4F SWAP1 PUSH2 0x3FF3 JUMP JUMPDEST PUSH1 0x40 MLOAD DUP1 SWAP2 SUB SWAP1 REVERT JUMPDEST PUSH1 0x14 PUSH1 0x0 SWAP1 SLOAD SWAP1 PUSH2 0x100 EXP SWAP1 DIV PUSH1 0xFF AND ISZERO PUSH2 0xFA8 JUMPI PUSH1 0x40 MLOAD PUSH32 0x8C379A000000000000000000000000000000000000000000000000000000000 DUP2 MSTORE PUSH1 0x4 ADD PUSH2 0xF9F SWAP1 PUSH2 0x3A76 JUMP JUMPDEST PUSH1 0x40 MLOAD DUP1 SWAP2 SUB SWAP1 REVERT JUMPDEST PUSH1 0x1 PUSH1 0x14 PUSH1 0x0 PUSH2 0x100 EXP DUP2 SLOAD DUP2 PUSH1 0xFF MUL NOT AND SWAP1 DUP4 ISZERO ISZERO MUL OR SWAP1 SSTORE POP PUSH1 0x0 PUSH1 0xD PUSH1 0x0 DUP4 PUSH20 0xFFFFFFFFFFFFFFFFFFFFFFFFFFFFFFFFFFFFFFFF AND PUSH20 0xFFFFFFFFFFFFFFFFFFFFFFFFFFFFFFFFFFFFFFFF AND DUP2 MSTORE PUSH1 0x20 ADD SWAP1 DUP2 MSTORE PUSH1 0x20 ADD PUSH1 0x0 KECCAK256 SLOAD SWAP1 POP PUSH1 0x0 DUP2 GT PUSH2 0x104A JUMPI PUSH1 0x40 MLOAD PUSH32 0x8C379A000000000000000000000000000000000000000000000000000000000 DUP2 MSTORE PUSH1 0x4 ADD PUSH2 0x1041 SWAP1 PUSH2 0x4085 JUMP JUMPDEST PUSH1 0x40 MLOAD DUP1 SWAP2 SUB SWAP1 REVERT JUMPDEST PUSH3 0x15180 PUSH1 0xE PUSH1 0x0 DUP5 PUSH20 0xFFFFFFFFFFFFFFFFFFFFFFFFFFFFFFFFFFFFFFFF AND PUSH20 0xFFFFFFFFFFFFFFFFFFFFFFFFFFFFFFFFFFFFFFFF AND DUP2 MSTORE PUSH1 0x20 ADD SWAP1 DUP2 MSTORE PUSH1 0x20 ADD PUSH1 0x0 KECCAK256 SLOAD PUSH2 0x1098 SWAP2 SWAP1 PUSH2 0x3CB7 JUMP JUMPDEST TIMESTAMP LT ISZERO PUSH2 0x10DA JUMPI PUSH1 0x40 MLOAD PUSH32 0x8C379A000000000000000000000000000000000000000000000000000000000 DUP2 MSTORE PUSH1 0x4 ADD PUSH2 0x10D1 SWAP1 PUSH2 0x40F1 JUMP JUMPDEST PUSH1 0x40 MLOAD DUP1 SWAP2 SUB SWAP1 REVERT JUMPDEST TIMESTAMP PUSH1 0xE PUSH1 0x0 DUP5 PUSH20 0xFFFFFFFFFFFFFFFFFFFFFFFFFFFFFFFFFFFFFFFF AND PUSH20 0xFFFFFFFFFFFFFFFFFFFFFFFFFFFFFFFFFFFFFFFF AND DUP2 MSTORE PUSH1 0x20 ADD SWAP1 DUP2 MSTORE PUSH1 0x20 ADD PUSH1 0x0 KECCAK256 DUP2 SWAP1 SSTORE POP PUSH2 0x1128 DUP3 DUP3 PUSH2 0x2EBC JUMP JUMPDEST PUSH32 0xFEA36C567A41C73FB142AE411F08565859D2842B21CAF06283E31EF06079B36A DUP3 DUP3 PUSH1 0x40 MLOAD PUSH2 0x1159 SWAP3 SWAP2 SWAP1 PUSH2 0x41A9 JUMP JUMPDEST PUSH1 0x40 MLOAD DUP1 SWAP2 SUB SWAP1 LOG1 POP PUSH1 0x0 PUSH1 0x14 PUSH1 0x0 PUSH2 0x100 EXP DUP2 SLOAD DUP2 PUSH1 0xFF MUL NOT AND SWAP1 DUP4 ISZERO ISZERO MUL OR SWAP1 SSTORE POP POP JUMP JUMPDEST PUSH1 0x3 SLOAD DUP2 JUMP JUMPDEST PUSH1 0x28 DUP2 JUMP JUMPDEST PUSH1 0x0 DUP1 SLOAD SWAP1 PUSH2 0x100 EXP SWAP1 DIV PUSH20 0xFFFFFFFFFFFFFFFFFFFFFFFFFFFFFFFFFFFFFFFF AND DUP2 JUMP JUMPDEST PUSH1 0x2 PUSH1 0x0 SWAP1 SLOAD SWAP1 PUSH2 0x100 EXP SWAP1 DIV PUSH20 0xFFFFFFFFFFFFFFFFFFFFFFFFFFFFFFFFFFFFFFFF AND PUSH20 0xFFFFFFFFFFFFFFFFFFFFFFFFFFFFFFFFFFFFFFFF AND CALLER PUSH20 0xFFFFFFFFFFFFFFFFFFFFFFFFFFFFFFFFFFFFFFFF AND EQ PUSH2 0x123F JUMPI PUSH1 0x40 MLOAD PUSH32 0x8C379A000000000000000000000000000000000000000000000000000000000 DUP2 MSTORE PUSH1 0x4 ADD PUSH2 0x1236 SWAP1 PUSH2 0x3FF3 JUMP JUMPDEST PUSH1 0x40 MLOAD DUP1 SWAP2 SUB SWAP1 REVERT JUMPDEST PUSH2 0x124C PUSH1 0x0 DUP5 DUP5 DUP5 PUSH2 0x30FC JUMP JUMPDEST POP POP POP JUMP JUMPDEST PUSH1 0x9 SLOAD DUP2 JUMP JUMPDEST PUSH1 0x11 PUSH1 0x20 MSTORE DUP1 PUSH1 0x0 MSTORE PUSH1 0x40 PUSH1 0x0 KECCAK256 PUSH1 0x0 SWAP2 POP SLOAD SWAP1 PUSH2 0x100 EXP SWAP1 DIV PUSH1 0xFF AND DUP2 JUMP JUMPDEST PUSH1 0x10 SLOAD DUP2 JUMP JUMPDEST PUSH1 0xF PUSH1 0x20 MSTORE DUP1 PUSH1 0x0 MSTORE PUSH1 0x40 PUSH1 0x0 KECCAK256 PUSH1 0x0 SWAP2 POP SWAP1 POP DUP1 PUSH1 0x0 ADD SLOAD SWAP1 DUP1 PUSH1 0x1 ADD DUP1 SLOAD PUSH2 0x12A6 SWAP1 PUSH2 0x3DB1 JUMP JUMPDEST DUP1 PUSH1 0x1F ADD PUSH1 0x20 DUP1 SWAP2 DIV MUL PUSH1 0x20 ADD PUSH1 0x40 MLOAD SWAP1 DUP2 ADD PUSH1 0x40 MSTORE DUP1 SWAP3 SWAP2 SWAP1 DUP2 DUP2 MSTORE PUSH1 0x20 ADD DUP3 DUP1 SLOAD PUSH2 0x12D2 SWAP1 PUSH2 0x3DB1 JUMP JUMPDEST DUP1 ISZERO PUSH2 0x131F JUMPI DUP1 PUSH1 0x1F LT PUSH2 0x12F4 JUMPI PUSH2 0x100 DUP1 DUP4 SLOAD DIV MUL DUP4 MSTORE SWAP2 PUSH1 0x20 ADD SWAP2 PUSH2 0x131F JUMP JUMPDEST DUP3 ADD SWAP2 SWAP1 PUSH1 0x0 MSTORE PUSH1 0x20 PUSH1 0x0 KECCAK256 SWAP1 JUMPDEST DUP2 SLOAD DUP2 MSTORE SWAP1 PUSH1 0x1 ADD SWAP1 PUSH1 0x20 ADD DUP1 DUP4 GT PUSH2 0x1302 JUMPI DUP3 SWAP1 SUB PUSH1 0x1F AND DUP3 ADD SWAP2 JUMPDEST POP POP POP POP POP SWAP1 DUP1 PUSH1 0x2 ADD PUSH1 0x0 SWAP1 SLOAD SWAP1 PUSH2 0x100 EXP SWAP1 DIV PUSH1 0xFF AND SWAP1 DUP1 PUSH1 0x3 ADD SLOAD SWAP1 POP DUP5 JUMP JUMPDEST PUSH1 0x14 DUP2 JUMP JUMPDEST PUSH1 0x2 PUSH1 0x0 SWAP1 SLOAD SWAP1 PUSH2 0x100 EXP SWAP1 DIV PUSH20 0xFFFFFFFFFFFFFFFFFFFFFFFFFFFFFFFFFFFFFFFF AND PUSH20 0xFFFFFFFFFFFFFFFFFFFFFFFFFFFFFFFFFFFFFFFF AND CALLER PUSH20 0xFFFFFFFFFFFFFFFFFFFFFFFFFFFFFFFFFFFFFFFF AND EQ PUSH2 0x13D7 JUMPI PUSH1 0x40 MLOAD PUSH32 0x8C379A000000000000000000000000000000000000000000000000000000000 DUP2 MSTORE PUSH1 0x4 ADD PUSH2 0x13CE SWAP1 PUSH2 0x3FF3 JUMP JUMPDEST PUSH1 0x40 MLOAD DUP1 SWAP2 SUB SWAP1 REVERT JUMPDEST PUSH2 0x13E4 PUSH1 0x1 DUP5 DUP5 DUP5 PUSH2 0x30FC JUMP JUMPDEST POP POP POP JUMP JUMPDEST PUSH1 0x6 SLOAD DUP2 JUMP JUMPDEST PUSH1 0x14 PUSH1 0x0 SWAP1 SLOAD SWAP1 PUSH2 0x100 EXP SWAP1 DIV PUSH1 0xFF AND ISZERO PUSH2 0x143F JUMPI PUSH1 0x40 MLOAD PUSH32 0x8C379A000000000000000000000000000000000000000000000000000000000 DUP2 MSTORE PUSH1 0x4 ADD PUSH2 0x1436 SWAP1 PUSH2 0x3A76 JUMP JUMPDEST PUSH1 0x40 MLOAD DUP1 SWAP2 SUB SWAP1 REVERT JUMPDEST PUSH1 0x1 PUSH1 0x14 PUSH1 0x0 PUSH2 0x100 EXP DUP2 SLOAD DUP2 PUSH1 0xFF MUL NOT AND SWAP1 DUP4 ISZERO ISZERO MUL OR SWAP1 SSTORE POP PUSH1 0x0 PUSH2 0x1465 CALLER PUSH2 0x18F2 JUMP JUMPDEST SWAP1 POP PUSH1 0x0 DUP2 GT PUSH2 0x14AA JUMPI PUSH1 0x40 MLOAD PUSH32 0x8C379A000000000000000000000000000000000000000000000000000000000 DUP2 MSTORE PUSH1 0x4 ADD PUSH2 0x14A1 SWAP1 PUSH2 0x4244 JUMP JUMPDEST PUSH1 0x40 MLOAD DUP1 SWAP2 SUB SWAP1 REVERT JUMPDEST DUP1 PUSH1 0xB PUSH1 0x0 CALLER PUSH20 0xFFFFFFFFFFFFFFFFFFFFFFFFFFFFFFFFFFFFFFFF AND PUSH20 0xFFFFFFFFFFFFFFFFFFFFFFFFFFFFFFFFFFFFFFFF AND DUP2 MSTORE PUSH1 0x20 ADD SWAP1 DUP2 MSTORE PUSH1 0x20 ADD PUSH1 0x0 KECCAK256 PUSH1 0x0 DUP3 DUP3 SLOAD PUSH2 0x14F9 SWAP2 SWAP1 PUSH2 0x3CB7 JUMP JUMPDEST SWAP3 POP POP DUP2 SWAP1 SSTORE POP DUP1 PUSH1 0x8 PUSH1 0x0 DUP3 DUP3 SLOAD PUSH2 0x1512 SWAP2 SWAP1 PUSH2 0x3CB7 JUMP JUMPDEST SWAP3 POP POP DUP2 SWAP1 SSTORE POP PUSH1 0x0 DUP1 SLOAD SWAP1 PUSH2 0x100 EXP SWAP1 DIV PUSH20 0xFFFFFFFFFFFFFFFFFFFFFFFFFFFFFFFFFFFFFFFF AND PUSH20 0xFFFFFFFFFFFFFFFFFFFFFFFFFFFFFFFFFFFFFFFF AND PUSH4 0xA9059CBB CALLER DUP4 PUSH1 0x40 MLOAD DUP4 PUSH4 0xFFFFFFFF AND PUSH1 0xE0 SHL DUP2 MSTORE PUSH1 0x4 ADD PUSH2 0x1574 SWAP3 SWAP2 SWAP1 PUSH2 0x4264 JUMP JUMPDEST PUSH1 0x20 PUSH1 0x40 MLOAD DUP1 DUP4 SUB DUP2 PUSH1 0x0 DUP8 GAS CALL ISZERO DUP1 ISZERO PUSH2 0x1593 JUMPI RETURNDATASIZE PUSH1 0x0 DUP1 RETURNDATACOPY RETURNDATASIZE PUSH1 0x0 REVERT JUMPDEST POP POP POP POP PUSH1 0x40 MLOAD RETURNDATASIZE PUSH1 0x1F NOT PUSH1 0x1F DUP3 ADD AND DUP3 ADD DUP1 PUSH1 0x40 MSTORE POP DUP2 ADD SWAP1 PUSH2 0x15B7 SWAP2 SWAP1 PUSH2 0x3E45 JUMP JUMPDEST PUSH2 0x15F6 JUMPI PUSH1 0x40 MLOAD PUSH32 0x8C379A000000000000000000000000000000000000000000000000000000000 DUP2 MSTORE PUSH1 0x4 ADD PUSH2 0x15ED SWAP1 PUSH2 0x42D9 JUMP JUMPDEST PUSH1 0x40 MLOAD DUP1 SWAP2 SUB SWAP1 REVERT JUMPDEST PUSH32 0x5EFA67896A23B651B741B525CAACBA039C00CA7853BE3DE8EB1F4269E8669C56 CALLER DUP3 PUSH1 0x40 MLOAD PUSH2 0x1627 SWAP3 SWAP2 SWAP1 PUSH2 0x4264 JUMP JUMPDEST PUSH1 0x40 MLOAD DUP1 SWAP2 SUB SWAP1 LOG1 POP PUSH1 0x0 PUSH1 0x14 PUSH1 0x0 PUSH2 0x100 EXP DUP2 SLOAD DUP2 PUSH1 0xFF MUL NOT AND SWAP1 DUP4 ISZERO ISZERO MUL OR SWAP1 SSTORE POP JUMP JUMPDEST PUSH1 0x2 PUSH1 0x0 SWAP1 SLOAD SWAP1 PUSH2 0x100 EXP SWAP1 DIV PUSH20 0xFFFFFFFFFFFFFFFFFFFFFFFFFFFFFFFFFFFFFFFF AND PUSH20 0xFFFFFFFFFFFFFFFFFFFFFFFFFFFFFFFFFFFFFFFF AND CALLER PUSH20 0xFFFFFFFFFFFFFFFFFFFFFFFFFFFFFFFFFFFFFFFF AND EQ PUSH2 0x16DD JUMPI PUSH1 0x40 MLOAD PUSH32 0x8C379A000000000000000000000000000000000000000000000000000000000 DUP2 MSTORE PUSH1 0x4 ADD PUSH2 0x16D4 SWAP1 PUSH2 0x3FF3 JUMP JUMPDEST PUSH1 0x40 MLOAD DUP1 SWAP2 SUB SWAP1 REVERT JUMPDEST PUSH2 0x16EA PUSH1 0x2 DUP5 DUP5 DUP5 PUSH2 0x30FC JUMP JUMPDEST POP POP POP JUMP JUMPDEST PUSH1 0x0 DUP1 PUSH1 0x0 DUP1 SLOAD SWAP1 PUSH2 0x100 EXP SWAP1 DIV PUSH20 0xFFFFFFFFFFFFFFFFFFFFFFFFFFFFFFFFFFFFFFFF AND PUSH20 0xFFFFFFFFFFFFFFFFFFFFFFFFFFFFFFFFFFFFFFFF AND PUSH4 0x70A08231 ADDRESS PUSH1 0x40 MLOAD DUP3 PUSH4 0xFFFFFFFF AND PUSH1 0xE0 SHL DUP2 MSTORE PUSH1 0x4 ADD PUSH2 0x174B SWAP2 SWAP1 PUSH2 0x3936 JUMP JUMPDEST PUSH1 0x20 PUSH1 0x40 MLOAD DUP1 DUP4 SUB DUP2 DUP7 GAS STATICCALL ISZERO DUP1 ISZERO PUSH2 0x1768 JUMPI RETURNDATASIZE PUSH1 0x0 DUP1 RETURNDATACOPY RETURNDATASIZE PUSH1 0x0 REVERT JUMPDEST POP POP POP POP PUSH1 0x40 MLOAD RETURNDATASIZE PUSH1 0x1F NOT PUSH1 0x1F DUP3 ADD AND DUP3 ADD DUP1 PUSH1 0x40 MSTORE POP DUP2 ADD SWAP1 PUSH2 0x178C SWAP2 SWAP1 PUSH2 0x3BEF JUMP JUMPDEST SWAP1 POP PUSH1 0x0 PUSH1 0x8 SLOAD PUSH1 0x7 SLOAD PUSH2 0x17A0 SWAP2 SWAP1 PUSH2 0x42F9 JUMP JUMPDEST SWAP1 POP PUSH1 0x0 DUP2 PUSH1 0x6 SLOAD PUSH2 0x17B2 SWAP2 SWAP1 PUSH2 0x3CB7 JUMP JUMPDEST SWAP1 POP DUP1 DUP4 GT ISZERO PUSH2 0x17D2 JUMPI DUP1 DUP4 PUSH2 0x17C8 SWAP2 SWAP1 PUSH2 0x42F9 JUMP JUMPDEST SWAP4 POP POP POP POP PUSH2 0x17DA JUMP JUMPDEST PUSH1 0x0 SWAP4 POP POP POP POP JUMPDEST SWAP1 JUMP JUMPDEST PUSH1 0x0 PUSH1 0x1 PUSH1 0x0 SWAP1 SLOAD SWAP1 PUSH2 0x100 EXP SWAP1 DIV PUSH20 0xFFFFFFFFFFFFFFFFFFFFFFFFFFFFFFFFFFFFFFFF AND PUSH20 0xFFFFFFFFFFFFFFFFFFFFFFFFFFFFFFFFFFFFFFFF AND PUSH4 0x70A08231 PUSH1 0x1 PUSH1 0x0 SWAP1 SLOAD SWAP1 PUSH2 0x100 EXP SWAP1 DIV PUSH20 0xFFFFFFFFFFFFFFFFFFFFFFFFFFFFFFFFFFFFFFFF AND PUSH1 0x40 MLOAD DUP3 PUSH4 0xFFFFFFFF AND PUSH1 0xE0 SHL DUP2 MSTORE PUSH1 0x4 ADD PUSH2 0x185C SWAP2 SWAP1 PUSH2 0x3936 JUMP JUMPDEST PUSH1 0x20 PUSH1 0x40 MLOAD DUP1 DUP4 SUB DUP2 DUP7 GAS STATICCALL ISZERO DUP1 ISZERO PUSH2 0x1879 JUMPI RETURNDATASIZE PUSH1 0x0 DUP1 RETURNDATACOPY RETURNDATASIZE PUSH1 0x0 REVERT JUMPDEST POP POP POP POP PUSH1 0x40 MLOAD RETURNDATASIZE PUSH1 0x1F NOT PUSH1 0x1F DUP3 ADD AND DUP3 ADD DUP1 PUSH1 0x40 MSTORE POP DUP2 ADD SWAP1 PUSH2 0x189D SWAP2 SWAP1 PUSH2 0x3BEF JUMP JUMPDEST SWAP1 POP SWAP1 JUMP JUMPDEST PUSH1 0x7 SLOAD DUP2 JUMP JUMPDEST PUSH1 0xC SLOAD DUP2 JUMP JUMPDEST PUSH1 0x2 PUSH1 0x0 SWAP1 SLOAD SWAP1 PUSH2 0x100 EXP SWAP1 DIV PUSH20 0xFFFFFFFFFFFFFFFFFFFFFFFFFFFFFFFFFFFFFFFF AND DUP2 JUMP JUMPDEST PUSH1 0xA PUSH1 0x20 MSTORE DUP1 PUSH1 0x0 MSTORE PUSH1 0x40 PUSH1 0x0 KECCAK256 PUSH1 0x0 SWAP2 POP SWAP1 POP SLOAD DUP2 JUMP JUMPDEST PUSH1 0x8 SLOAD DUP2 JUMP JUMPDEST PUSH1 0x0 DUP1 PUSH1 0x1 PUSH1 0x0 SWAP1 SLOAD SWAP1 PUSH2 0x100 EXP SWAP1 DIV PUSH20 0xFFFFFFFFFFFFFFFFFFFFFFFFFFFFFFFFFFFFFFFF AND PUSH20 0xFFFFFFFFFFFFFFFFFFFFFFFFFFFFFFFFFFFFFFFF AND PUSH4 0x70A08231 DUP5 PUSH1 0x40 MLOAD DUP3 PUSH4 0xFFFFFFFF AND PUSH1 0xE0 SHL DUP2 MSTORE PUSH1 0x4 ADD PUSH2 0x1950 SWAP2 SWAP1 PUSH2 0x3936 JUMP JUMPDEST PUSH1 0x20 PUSH1 0x40 MLOAD DUP1 DUP4 SUB DUP2 DUP7 GAS STATICCALL ISZERO DUP1 ISZERO PUSH2 0x196D JUMPI RETURNDATASIZE PUSH1 0x0 DUP1 RETURNDATACOPY RETURNDATASIZE PUSH1 0x0 REVERT JUMPDEST POP POP POP POP PUSH1 0x40 MLOAD RETURNDATASIZE PUSH1 0x1F NOT PUSH1 0x1F DUP3 ADD AND DUP3 ADD DUP1 PUSH1 0x40 MSTORE POP DUP2 ADD SWAP1 PUSH2 0x1991 SWAP2 SWAP1 PUSH2 0x3BEF JUMP JUMPDEST SWAP1 POP PUSH1 0x0 DUP2 SUB PUSH2 0x19A5 JUMPI PUSH1 0x0 SWAP2 POP POP PUSH2 0x1A94 JUMP JUMPDEST PUSH1 0x0 PUSH1 0x9 SLOAD DUP3 PUSH2 0x19B5 SWAP2 SWAP1 PUSH2 0x3EDE JUMP JUMPDEST SWAP1 POP PUSH1 0x0 PUSH1 0xA PUSH1 0x0 DUP7 PUSH20 0xFFFFFFFFFFFFFFFFFFFFFFFFFFFFFFFFFFFFFFFF AND PUSH20 0xFFFFFFFFFFFFFFFFFFFFFFFFFFFFFFFFFFFFFFFF AND DUP2 MSTORE PUSH1 0x20 ADD SWAP1 DUP2 MSTORE PUSH1 0x20 ADD PUSH1 0x0 KECCAK256 SLOAD SWAP1 POP PUSH1 0x0 PUSH17 0x100000000000000000000000000000000 DUP3 DUP5 PUSH2 0x1A1B SWAP2 SWAP1 PUSH2 0x3F20 JUMP JUMPDEST PUSH2 0x1A25 SWAP2 SWAP1 PUSH2 0x3D51 JUMP JUMPDEST SWAP1 POP PUSH1 0x0 PUSH1 0xB PUSH1 0x0 DUP9 PUSH20 0xFFFFFFFFFFFFFFFFFFFFFFFFFFFFFFFFFFFFFFFF AND PUSH20 0xFFFFFFFFFFFFFFFFFFFFFFFFFFFFFFFFFFFFFFFF AND DUP2 MSTORE PUSH1 0x20 ADD SWAP1 DUP2 MSTORE PUSH1 0x20 ADD PUSH1 0x0 KECCAK256 SLOAD SWAP1 POP DUP1 DUP3 GT PUSH2 0x1A80 JUMPI PUSH1 0x0 SWAP6 POP POP POP POP POP POP PUSH2 0x1A94 JUMP JUMPDEST DUP1 DUP3 PUSH2 0x1A8C SWAP2 SWAP1 PUSH2 0x42F9 JUMP JUMPDEST SWAP6 POP POP POP POP POP POP JUMPDEST SWAP2 SWAP1 POP JUMP JUMPDEST PUSH1 0xE PUSH1 0x20 MSTORE DUP1 PUSH1 0x0 MSTORE PUSH1 0x40 PUSH1 0x0 KECCAK256 PUSH1 0x0 SWAP2 POP SWAP1 POP SLOAD DUP2 JUMP JUMPDEST PUSH1 0x14 PUSH1 0x0 SWAP1 SLOAD SWAP1 PUSH2 0x100 EXP SWAP1 DIV PUSH1 0xFF AND ISZERO PUSH2 0x1B01 JUMPI PUSH1 0x40 MLOAD PUSH32 0x8C379A000000000000000000000000000000000000000000000000000000000 DUP2 MSTORE PUSH1 0x4 ADD PUSH2 0x1AF8 SWAP1 PUSH2 0x3A76 JUMP JUMPDEST PUSH1 0x40 MLOAD DUP1 SWAP2 SUB SWAP1 REVERT JUMPDEST PUSH1 0x1 PUSH1 0x14 PUSH1 0x0 PUSH2 0x100 EXP DUP2 SLOAD DUP2 PUSH1 0xFF MUL NOT AND SWAP1 DUP4 ISZERO ISZERO MUL OR SWAP1 SSTORE POP PUSH1 0xF PUSH1 0x0 DUP3 DUP2 MSTORE PUSH1 0x20 ADD SWAP1 DUP2 MSTORE PUSH1 0x20 ADD PUSH1 0x0 KECCAK256 PUSH1 0x2 ADD PUSH1 0x0 SWAP1 SLOAD SWAP1 PUSH2 0x100 EXP SWAP1 DIV PUSH1 0xFF AND PUSH2 0x1B7F JUMPI PUSH1 0x40 MLOAD PUSH32 0x8C379A000000000000000000000000000000000000000000000000000000000 DUP2 MSTORE PUSH1 0x4 ADD PUSH2 0x1B76 SWAP1 PUSH2 0x4379 JUMP JUMPDEST PUSH1 0x40 MLOAD DUP1 SWAP2 SUB SWAP1 REVERT JUMPDEST PUSH1 0x0 PUSH1 0x3 SLOAD SWAP1 POP PUSH1 0x0 DUP1 SLOAD SWAP1 PUSH2 0x100 EXP SWAP1 DIV PUSH20 0xFFFFFFFFFFFFFFFFFFFFFFFFFFFFFFFFFFFFFFFF AND PUSH20 0xFFFFFFFFFFFFFFFFFFFFFFFFFFFFFFFFFFFFFFFF AND PUSH4 0x23B872DD CALLER ADDRESS DUP5 PUSH1 0x40 MLOAD DUP5 PUSH4 0xFFFFFFFF AND PUSH1 0xE0 SHL DUP2 MSTORE PUSH1 0x4 ADD PUSH2 0x1BE3 SWAP4 SWAP3 SWAP2 SWAP1 PUSH2 0x3DE2 JUMP JUMPDEST PUSH1 0x20 PUSH1 0x40 MLOAD DUP1 DUP4 SUB DUP2 PUSH1 0x0 DUP8 GAS CALL ISZERO DUP1 ISZERO PUSH2 0x1C02 JUMPI RETURNDATASIZE PUSH1 0x0 DUP1 RETURNDATACOPY RETURNDATASIZE PUSH1 0x0 REVERT JUMPDEST POP POP POP POP PUSH1 0x40 MLOAD RETURNDATASIZE PUSH1 0x1F NOT PUSH1 0x1F DUP3 ADD AND DUP3 ADD DUP1 PUSH1 0x40 MSTORE POP DUP2 ADD SWAP1 PUSH2 0x1C26 SWAP2 SWAP1 PUSH2 0x3E45 JUMP JUMPDEST PUSH2 0x1C65 JUMPI PUSH1 0x40 MLOAD PUSH32 0x8C379A000000000000000000000000000000000000000000000000000000000 DUP2 MSTORE PUSH1 0x4 ADD PUSH2 0x1C5C SWAP1 PUSH2 0x43E5 JUMP JUMPDEST PUSH1 0x40 MLOAD DUP1 SWAP2 SUB SWAP1 REVERT JUMPDEST DUP1 PUSH1 0xF PUSH1 0x0 DUP5 DUP2 MSTORE PUSH1 0x20 ADD SWAP1 DUP2 MSTORE PUSH1 0x20 ADD PUSH1 0x0 KECCAK256 PUSH1 0x3 ADD PUSH1 0x0 DUP3 DUP3 SLOAD PUSH2 0x1C8B SWAP2 SWAP1 PUSH2 0x3CB7 JUMP JUMPDEST SWAP3 POP POP DUP2 SWAP1 SSTORE POP DUP1 PUSH1 0x5 PUSH1 0x0 DUP3 DUP3 SLOAD PUSH2 0x1CA4 SWAP2 SWAP1 PUSH2 0x3CB7 JUMP JUMPDEST SWAP3 POP POP DUP2 SWAP1 SSTORE POP PUSH1 0x0 PUSH1 0x4 SLOAD DUP3 GT ISZERO PUSH2 0x1CC8 JUMPI PUSH1 0x4 SLOAD DUP3 PUSH2 0x1CC5 SWAP2 SWAP1 PUSH2 0x42F9 JUMP JUMPDEST SWAP1 POP JUMPDEST PUSH1 0x0 DUP2 GT ISZERO PUSH2 0x1EE3 JUMPI PUSH1 0x0 PUSH1 0x64 PUSH1 0x14 DUP4 PUSH2 0x1CE2 SWAP2 SWAP1 PUSH2 0x3EDE JUMP JUMPDEST PUSH2 0x1CEC SWAP2 SWAP1 PUSH2 0x3D51 JUMP JUMPDEST SWAP1 POP PUSH1 0x0 PUSH1 0x64 PUSH1 0x50 DUP5 PUSH2 0x1CFF SWAP2 SWAP1 PUSH2 0x3EDE JUMP JUMPDEST PUSH2 0x1D09 SWAP2 SWAP1 PUSH2 0x3D51 JUMP JUMPDEST SWAP1 POP DUP2 PUSH1 0x6 PUSH1 0x0 DUP3 DUP3 SLOAD PUSH2 0x1D1D SWAP2 SWAP1 PUSH2 0x3CB7 JUMP JUMPDEST SWAP3 POP POP DUP2 SWAP1 SSTORE POP DUP1 PUSH1 0x7 PUSH1 0x0 DUP3 DUP3 SLOAD PUSH2 0x1D36 SWAP2 SWAP1 PUSH2 0x3CB7 JUMP JUMPDEST SWAP3 POP POP DUP2 SWAP1 SSTORE POP PUSH1 0x0 PUSH1 0x1 PUSH1 0x0 SWAP1 SLOAD SWAP1 PUSH2 0x100 EXP SWAP1 DIV PUSH20 0xFFFFFFFFFFFFFFFFFFFFFFFFFFFFFFFFFFFFFFFF AND PUSH20 0xFFFFFFFFFFFFFFFFFFFFFFFFFFFFFFFFFFFFFFFF AND PUSH4 0x18160DDD PUSH1 0x40 MLOAD DUP2 PUSH4 0xFFFFFFFF AND PUSH1 0xE0 SHL DUP2 MSTORE PUSH1 0x4 ADD PUSH1 0x20 PUSH1 0x40 MLOAD DUP1 DUP4 SUB DUP2 DUP7 GAS STATICCALL ISZERO DUP1 ISZERO PUSH2 0x1DAC JUMPI RETURNDATASIZE PUSH1 0x0 DUP1 RETURNDATACOPY RETURNDATASIZE PUSH1 0x0 REVERT JUMPDEST POP POP POP POP PUSH1 0x40 MLOAD RETURNDATASIZE PUSH1 0x1F NOT PUSH1 0x1F DUP3 ADD AND DUP3 ADD DUP1 PUSH1 0x40 MSTORE POP DUP2 ADD SWAP1 PUSH2 0x1DD0 SWAP2 SWAP1 PUSH2 0x3BEF JUMP JUMPDEST GT ISZERO PUSH2 0x1EE0 JUMPI PUSH1 0x1 PUSH1 0x0 SWAP1 SLOAD SWAP1 PUSH2 0x100 EXP SWAP1 DIV PUSH20 0xFFFFFFFFFFFFFFFFFFFFFFFFFFFFFFFFFFFFFFFF AND PUSH20 0xFFFFFFFFFFFFFFFFFFFFFFFFFFFFFFFFFFFFFFFF AND PUSH4 0x18160DDD PUSH1 0x40 MLOAD DUP2 PUSH4 0xFFFFFFFF AND PUSH1 0xE0 SHL DUP2 MSTORE PUSH1 0x4 ADD PUSH1 0x20 PUSH1 0x40 MLOAD DUP1 DUP4 SUB DUP2 DUP7 GAS STATICCALL ISZERO DUP1 ISZERO PUSH2 0x1E43 JUMPI RETURNDATASIZE PUSH1 0x0 DUP1 RETURNDATACOPY RETURNDATASIZE PUSH1 0x0 REVERT JUMPDEST POP POP POP POP PUSH1 0x40 MLOAD RETURNDATASIZE PUSH1 0x1F NOT PUSH1 0x1F DUP3 ADD AND DUP3 ADD DUP1 PUSH1 0x40 MSTORE POP DUP2 ADD SWAP1 PUSH2 0x1E67 SWAP2 SWAP1 PUSH2 0x3BEF JUMP JUMPDEST PUSH17 0x100000000000000000000000000000000 DUP3 PUSH2 0x1E84 SWAP2 SWAP1 PUSH2 0x3EDE JUMP JUMPDEST PUSH2 0x1E8E SWAP2 SWAP1 PUSH2 0x3D51 JUMP JUMPDEST PUSH1 0x9 PUSH1 0x0 DUP3 DUP3 SLOAD PUSH2 0x1E9F SWAP2 SWAP1 PUSH2 0x3CB7 JUMP JUMPDEST SWAP3 POP POP DUP2 SWAP1 SSTORE POP PUSH32 0x5FA156A16C825EDD8AD1C2BD96F4BC48D9844E12F14D69D8B4A9E72FFB62E8EB DUP2 DUP4 PUSH1 0x40 MLOAD PUSH2 0x1ED7 SWAP3 SWAP2 SWAP1 PUSH2 0x4405 JUMP JUMPDEST PUSH1 0x40 MLOAD DUP1 SWAP2 SUB SWAP1 LOG1 JUMPDEST POP POP JUMPDEST DUP3 PUSH32 0x33C78A468564BB55F4AD7BDD3E75B0C6B352A20D569A47F0CD10ABA28DBDDFB4 CALLER DUP5 PUSH1 0x40 MLOAD PUSH2 0x1F15 SWAP3 SWAP2 SWAP1 PUSH2 0x4264 JUMP JUMPDEST PUSH1 0x40 MLOAD DUP1 SWAP2 SUB SWAP1 LOG2 POP POP PUSH1 0x0 PUSH1 0x14 PUSH1 0x0 PUSH2 0x100 EXP DUP2 SLOAD DUP2 PUSH1 0xFF MUL NOT AND SWAP1 DUP4 ISZERO ISZERO MUL OR SWAP1 SSTORE POP POP JUMP JUMPDEST PUSH1 0x50 DUP2 JUMP JUMPDEST PUSH1 0x5 SLOAD DUP2 JUMP JUMPDEST PUSH1 0x4 SLOAD DUP2 JUMP JUMPDEST PUSH1 0x14 PUSH1 0x0 SWAP1 SLOAD SWAP1 PUSH2 0x100 EXP SWAP1 DIV PUSH1 0xFF AND ISZERO PUSH2 0x1F9E JUMPI PUSH1 0x40 MLOAD PUSH32 0x8C379A000000000000000000000000000000000000000000000000000000000 DUP2 MSTORE PUSH1 0x4 ADD PUSH2 0x1F95 SWAP1 PUSH2 0x3A76 JUMP JUMPDEST PUSH1 0x40 MLOAD DUP1 SWAP2 SUB SWAP1 REVERT JUMPDEST PUSH1 0x1 PUSH1 0x14 PUSH1 0x0 PUSH2 0x100 EXP DUP2 SLOAD DUP2 PUSH1 0xFF MUL NOT AND SWAP1 DUP4 ISZERO ISZERO MUL OR SWAP1 SSTORE POP PUSH1 0x0 PUSH1 0x1 PUSH1 0x0 SWAP1 SLOAD SWAP1 PUSH2 0x100 EXP SWAP1 DIV PUSH20 0xFFFFFFFFFFFFFFFFFFFFFFFFFFFFFFFFFFFFFFFF AND PUSH20 0xFFFFFFFFFFFFFFFFFFFFFFFFFFFFFFFFFFFFFFFF AND PUSH4 0x70A08231 PUSH1 0x1 PUSH1 0x0 SWAP1 SLOAD SWAP1 PUSH2 0x100 EXP SWAP1 DIV PUSH20 0xFFFFFFFFFFFFFFFFFFFFFFFFFFFFFFFFFFFFFFFF AND PUSH1 0x40 MLOAD DUP3 PUSH4 0xFFFFFFFF AND PUSH1 0xE0 SHL DUP2 MSTORE PUSH1 0x4 ADD PUSH2 0x2038 SWAP2 SWAP1 PUSH2 0x3936 JUMP JUMPDEST PUSH1 0x20 PUSH1 0x40 MLOAD DUP1 DUP4 SUB DUP2 DUP7 GAS STATICCALL ISZERO DUP1 ISZERO PUSH2 0x2055 JUMPI RETURNDATASIZE PUSH1 0x0 DUP1 RETURNDATACOPY RETURNDATASIZE PUSH1 0x0 REVERT JUMPDEST POP POP POP POP PUSH1 0x40 MLOAD RETURNDATASIZE PUSH1 0x1F NOT PUSH1 0x1F DUP3 ADD AND DUP3 ADD DUP1 PUSH1 0x40 MSTORE POP DUP2 ADD SWAP1 PUSH2 0x2079 SWAP2 SWAP1 PUSH2 0x3BEF JUMP JUMPDEST SWAP1 POP DUP2 DUP2 LT ISZERO PUSH2 0x20BE JUMPI PUSH1 0x40 MLOAD PUSH32 0x8C379A000000000000000000000000000000000000000000000000000000000 DUP2 MSTORE PUSH1 0x4 ADD PUSH2 0x20B5 SWAP1 PUSH2 0x447A JUMP JUMPDEST PUSH1 0x40 MLOAD DUP1 SWAP2 SUB SWAP1 REVERT JUMPDEST PUSH2 0x20C8 CALLER DUP4 PUSH2 0x2D15 JUMP JUMPDEST PUSH1 0x0 PUSH8 0xDE0B6B3A7640000 PUSH1 0xC SLOAD DUP5 PUSH2 0x20E1 SWAP2 SWAP1 PUSH2 0x3EDE JUMP JUMPDEST PUSH2 0x20EB SWAP2 SWAP1 PUSH2 0x3D51 JUMP JUMPDEST SWAP1 POP PUSH1 0x0 DUP1 SLOAD SWAP1 PUSH2 0x100 EXP SWAP1 DIV PUSH20 0xFFFFFFFFFFFFFFFFFFFFFFFFFFFFFFFFFFFFFFFF AND PUSH20 0xFFFFFFFFFFFFFFFFFFFFFFFFFFFFFFFFFFFFFFFF AND PUSH4 0x23B872DD CALLER ADDRESS DUP5 PUSH1 0x40 MLOAD DUP5 PUSH4 0xFFFFFFFF AND PUSH1 0xE0 SHL DUP2 MSTORE PUSH1 0x4 ADD PUSH2 0x214A SWAP4 SWAP3 SWAP2 SWAP1 PUSH2 0x3DE2 JUMP JUMPDEST PUSH1 0x20 PUSH1 0x40 MLOAD DUP1 DUP4 SUB DUP2 PUSH1 0x0 DUP8 GAS CALL ISZERO DUP1 ISZERO PUSH2 0x2169 JUMPI RETURNDATASIZE PUSH1 0x0 DUP1 RETURNDATACOPY RETURNDATASIZE PUSH1 0x0 REVERT JUMPDEST POP POP POP POP PUSH1 0x40 MLOAD RETURNDATASIZE PUSH1 0x1F NOT PUSH1 0x1F DUP3 ADD AND DUP3 ADD DUP1 PUSH1 0x40 MSTORE POP DUP2 ADD SWAP1 PUSH2 0x218D SWAP2 SWAP1 PUSH2 0x3E45 JUMP JUMPDEST PUSH2 0x21CC JUMPI PUSH1 0x40 MLOAD PUSH32 0x8C379A000000000000000000000000000000000000000000000000000000000 DUP2 MSTORE PUSH1 0x4 ADD PUSH2 0x21C3 SWAP1 PUSH2 0x44E6 JUMP JUMPDEST PUSH1 0x40 MLOAD DUP1 SWAP2 SUB SWAP1 REVERT JUMPDEST PUSH1 0x1 PUSH1 0x0 SWAP1 SLOAD SWAP1 PUSH2 0x100 EXP SWAP1 DIV PUSH20 0xFFFFFFFFFFFFFFFFFFFFFFFFFFFFFFFFFFFFFFFF AND PUSH20 0xFFFFFFFFFFFFFFFFFFFFFFFFFFFFFFFFFFFFFFFF AND PUSH4 0x23B872DD PUSH1 0x1 PUSH1 0x0 SWAP1 SLOAD SWAP1 PUSH2 0x100 EXP SWAP1 DIV PUSH20 0xFFFFFFFFFFFFFFFFFFFFFFFFFFFFFFFFFFFFFFFF AND CALLER DUP7 PUSH1 0x40 MLOAD DUP5 PUSH4 0xFFFFFFFF AND PUSH1 0xE0 SHL DUP2 MSTORE PUSH1 0x4 ADD PUSH2 0x224D SWAP4 SWAP3 SWAP2 SWAP1 PUSH2 0x3DE2 JUMP JUMPDEST PUSH1 0x20 PUSH1 0x40 MLOAD DUP1 DUP4 SUB DUP2 PUSH1 0x0 DUP8 GAS CALL ISZERO DUP1 ISZERO PUSH2 0x226C JUMPI RETURNDATASIZE PUSH1 0x0 DUP1 RETURNDATACOPY RETURNDATASIZE PUSH1 0x0 REVERT JUMPDEST POP POP POP POP PUSH1 0x40 MLOAD RETURNDATASIZE PUSH1 0x1F NOT PUSH1 0x1F DUP3 ADD AND DUP3 ADD DUP1 PUSH1 0x40 MSTORE POP DUP2 ADD SWAP1 PUSH2 0x2290 SWAP2 SWAP1 PUSH2 0x3E45 JUMP JUMPDEST PUSH2 0x22CF JUMPI PUSH1 0x40 MLOAD PUSH32 0x8C379A000000000000000000000000000000000000000000000000000000000 DUP2 MSTORE PUSH1 0x4 ADD PUSH2 0x22C6 SWAP1 PUSH2 0x4552 JUMP JUMPDEST PUSH1 0x40 MLOAD DUP1 SWAP2 SUB SWAP1 REVERT JUMPDEST DUP1 PUSH1 0x6 PUSH1 0x0 DUP3 DUP3 SLOAD PUSH2 0x22E1 SWAP2 SWAP1 PUSH2 0x3CB7 JUMP JUMPDEST SWAP3 POP POP DUP2 SWAP1 SSTORE POP DUP3 PUSH1 0x9 SLOAD PUSH2 0x22F6 SWAP2 SWAP1 PUSH2 0x3EDE JUMP JUMPDEST PUSH1 0xA PUSH1 0x0 CALLER PUSH20 0xFFFFFFFFFFFFFFFFFFFFFFFFFFFFFFFFFFFFFFFF AND PUSH20 0xFFFFFFFFFFFFFFFFFFFFFFFFFFFFFFFFFFFFFFFF AND DUP2 MSTORE PUSH1 0x20 ADD SWAP1 DUP2 MSTORE PUSH1 0x20 ADD PUSH1 0x0 KECCAK256 PUSH1 0x0 DUP3 DUP3 SLOAD PUSH2 0x2344 SWAP2 SWAP1 PUSH2 0x3F64 JUMP JUMPDEST SWAP3 POP POP DUP2 SWAP1 SSTORE POP PUSH32 0x630B54F21D1C5AE41C4633AD96E8C15CE15665365EDED6A38476FFA71C8ACE6C CALLER DUP5 DUP4 PUSH1 0x40 MLOAD PUSH2 0x237E SWAP4 SWAP3 SWAP2 SWAP1 PUSH2 0x4572 JUMP JUMPDEST PUSH1 0x40 MLOAD DUP1 SWAP2 SUB SWAP1 LOG1 POP POP PUSH1 0x0 PUSH1 0x14 PUSH1 0x0 PUSH2 0x100 EXP DUP2 SLOAD DUP2 PUSH1 0xFF MUL NOT AND SWAP1 DUP4 ISZERO ISZERO MUL OR SWAP1 SSTORE POP POP JUMP JUMPDEST PUSH1 0x2 PUSH1 0x0 SWAP1 SLOAD SWAP1 PUSH2 0x100 EXP SWAP1 DIV PUSH20 0xFFFFFFFFFFFFFFFFFFFFFFFFFFFFFFFFFFFFFFFF AND PUSH20 0xFFFFFFFFFFFFFFFFFFFFFFFFFFFFFFFFFFFFFFFF AND CALLER PUSH20 0xFFFFFFFFFFFFFFFFFFFFFFFFFFFFFFFFFFFFFFFF AND EQ PUSH2 0x2436 JUMPI PUSH1 0x40 MLOAD PUSH32 0x8C379A000000000000000000000000000000000000000000000000000000000 DUP2 MSTORE PUSH1 0x4 ADD PUSH2 0x242D SWAP1 PUSH2 0x3FF3 JUMP JUMPDEST PUSH1 0x40 MLOAD DUP1 SWAP2 SUB SWAP1 REVERT JUMPDEST PUSH1 0x10 PUSH1 0x0 DUP2 SLOAD DUP1 SWAP3 SWAP2 SWAP1 PUSH2 0x2449 SWAP1 PUSH2 0x45A9 JUMP JUMPDEST SWAP2 SWAP1 POP SSTORE POP PUSH1 0x40 MLOAD DUP1 PUSH1 0x80 ADD PUSH1 0x40 MSTORE DUP1 PUSH1 0x10 SLOAD DUP2 MSTORE PUSH1 0x20 ADD DUP3 DUP2 MSTORE PUSH1 0x20 ADD PUSH1 0x1 ISZERO ISZERO DUP2 MSTORE PUSH1 0x20 ADD PUSH1 0x0 DUP2 MSTORE POP PUSH1 0xF PUSH1 0x0 PUSH1 0x10 SLOAD DUP2 MSTORE PUSH1 0x20 ADD SWAP1 DUP2 MSTORE PUSH1 0x20 ADD PUSH1 0x0 KECCAK256 PUSH1 0x0 DUP3 ADD MLOAD DUP2 PUSH1 0x0 ADD SSTORE PUSH1 0x20 DUP3 ADD MLOAD DUP2 PUSH1 0x1 ADD SWAP1 DUP2 PUSH2 0x24A9 SWAP2 SWAP1 PUSH2 0x4793 JUMP JUMPDEST POP PUSH1 0x40 DUP3 ADD MLOAD DUP2 PUSH1 0x2 ADD PUSH1 0x0 PUSH2 0x100 EXP DUP2 SLOAD DUP2 PUSH1 0xFF MUL NOT AND SWAP1 DUP4 ISZERO ISZERO MUL OR SWAP1 SSTORE POP PUSH1 0x60 DUP3 ADD MLOAD DUP2 PUSH1 0x3 ADD SSTORE SWAP1 POP POP POP JUMP JUMPDEST PUSH1 0x13 SLOAD DUP2 JUMP JUMPDEST PUSH1 0xB PUSH1 0x20 MSTORE DUP1 PUSH1 0x0 MSTORE PUSH1 0x40 PUSH1 0x0 KECCAK256 PUSH1 0x0 SWAP2 POP SWAP1 POP SLOAD DUP2 JUMP JUMPDEST PUSH1 0x2 PUSH1 0x0 SWAP1 SLOAD SWAP1 PUSH2 0x100 EXP SWAP1 DIV PUSH20 0xFFFFFFFFFFFFFFFFFFFFFFFFFFFFFFFFFFFFFFFF AND PUSH20 0xFFFFFFFFFFFFFFFFFFFFFFFFFFFFFFFFFFFFFFFF AND CALLER PUSH20 0xFFFFFFFFFFFFFFFFFFFFFFFFFFFFFFFFFFFFFFFF AND EQ PUSH2 0x2588 JUMPI PUSH1 0x40 MLOAD PUSH32 0x8C379A000000000000000000000000000000000000000000000000000000000 DUP2 MSTORE PUSH1 0x4 ADD PUSH2 0x257F SWAP1 PUSH2 0x3FF3 JUMP JUMPDEST PUSH1 0x40 MLOAD DUP1 SWAP2 SUB SWAP1 REVERT JUMPDEST PUSH2 0x2596 PUSH1 0x3 DUP4 PUSH1 0x0 DUP5 PUSH2 0x30FC JUMP JUMPDEST POP POP JUMP JUMPDEST PUSH1 0xD PUSH1 0x20 MSTORE DUP1 PUSH1 0x0 MSTORE PUSH1 0x40 PUSH1 0x0 KECCAK256 PUSH1 0x0 SWAP2 POP SWAP1 POP SLOAD DUP2 JUMP JUMPDEST PUSH1 0x2 PUSH1 0x0 SWAP1 SLOAD SWAP1 PUSH2 0x100 EXP SWAP1 DIV PUSH20 0xFFFFFFFFFFFFFFFFFFFFFFFFFFFFFFFFFFFFFFFF AND PUSH20 0xFFFFFFFFFFFFFFFFFFFFFFFFFFFFFFFFFFFFFFFF AND CALLER PUSH20 0xFFFFFFFFFFFFFFFFFFFFFFFFFFFFFFFFFFFFFFFF AND EQ PUSH2 0x2642 JUMPI PUSH1 0x40 MLOAD PUSH32 0x8C379A000000000000000000000000000000000000000000000000000000000 DUP2 MSTORE PUSH1 0x4 ADD PUSH2 0x2639 SWAP1 PUSH2 0x3FF3 JUMP JUMPDEST PUSH1 0x40 MLOAD DUP1 SWAP2 SUB SWAP1 REVERT JUMPDEST DUP1 PUSH1 0x3 DUP2 SWAP1 SSTORE POP POP JUMP JUMPDEST PUSH1 0x1 DUP2 PUSH1 0x5 ADD PUSH1 0x0 PUSH2 0x100 EXP DUP2 SLOAD DUP2 PUSH1 0xFF MUL NOT AND SWAP1 DUP4 ISZERO ISZERO MUL OR SWAP1 SSTORE POP PUSH1 0x0 PUSH1 0x3 DUP2 GT ISZERO PUSH2 0x267D JUMPI PUSH2 0x267C PUSH2 0x3415 JUMP JUMPDEST JUMPDEST DUP2 PUSH1 0x1 ADD PUSH1 0x0 SWAP1 SLOAD SWAP1 PUSH2 0x100 EXP SWAP1 DIV PUSH1 0xFF AND PUSH1 0x3 DUP2 GT ISZERO PUSH2 0x26A1 JUMPI PUSH2 0x26A0 PUSH2 0x3415 JUMP JUMPDEST JUMPDEST SUB PUSH2 0x28EE JUMPI PUSH1 0x11 PUSH1 0x0 DUP3 PUSH1 0x1 ADD PUSH1 0x1 SWAP1 SLOAD SWAP1 PUSH2 0x100 EXP SWAP1 DIV PUSH20 0xFFFFFFFFFFFFFFFFFFFFFFFFFFFFFFFFFFFFFFFF AND PUSH20 0xFFFFFFFFFFFFFFFFFFFFFFFFFFFFFFFFFFFFFFFF AND PUSH20 0xFFFFFFFFFFFFFFFFFFFFFFFFFFFFFFFFFFFFFFFF AND DUP2 MSTORE PUSH1 0x20 ADD SWAP1 DUP2 MSTORE PUSH1 0x20 ADD PUSH1 0x0 KECCAK256 PUSH1 0x0 SWAP1 SLOAD SWAP1 PUSH2 0x100 EXP SWAP1 DIV PUSH1 0xFF AND PUSH2 0x2756 JUMPI PUSH1 0x40 MLOAD PUSH32 0x8C379A000000000000000000000000000000000000000000000000000000000 DUP2 MSTORE PUSH1 0x4 ADD PUSH2 0x274D SWAP1 PUSH2 0x48B1 JUMP JUMPDEST PUSH1 0x40 MLOAD DUP1 SWAP2 SUB SWAP1 REVERT JUMPDEST DUP1 PUSH1 0x2 ADD SLOAD PUSH1 0x6 SLOAD LT ISZERO PUSH2 0x279F JUMPI PUSH1 0x40 MLOAD PUSH32 0x8C379A000000000000000000000000000000000000000000000000000000000 DUP2 MSTORE PUSH1 0x4 ADD PUSH2 0x2796 SWAP1 PUSH2 0x491D JUMP JUMPDEST PUSH1 0x40 MLOAD DUP1 SWAP2 SUB SWAP1 REVERT JUMPDEST DUP1 PUSH1 0x2 ADD SLOAD PUSH1 0x6 PUSH1 0x0 DUP3 DUP3 SLOAD PUSH2 0x27B5 SWAP2 SWAP1 PUSH2 0x42F9 JUMP JUMPDEST SWAP3 POP POP DUP2 SWAP1 SSTORE POP PUSH1 0x0 DUP1 SLOAD SWAP1 PUSH2 0x100 EXP SWAP1 DIV PUSH20 0xFFFFFFFFFFFFFFFFFFFFFFFFFFFFFFFFFFFFFFFF AND PUSH20 0xFFFFFFFFFFFFFFFFFFFFFFFFFFFFFFFFFFFFFFFF AND PUSH4 0xA9059CBB DUP3 PUSH1 0x1 ADD PUSH1 0x1 SWAP1 SLOAD SWAP1 PUSH2 0x100 EXP SWAP1 DIV PUSH20 0xFFFFFFFFFFFFFFFFFFFFFFFFFFFFFFFFFFFFFFFF AND DUP4 PUSH1 0x2 ADD SLOAD PUSH1 0x40 MLOAD DUP4 PUSH4 0xFFFFFFFF AND PUSH1 0xE0 SHL DUP2 MSTORE PUSH1 0x4 ADD PUSH2 0x283F SWAP3 SWAP2 SWAP1 PUSH2 0x4264 JUMP JUMPDEST PUSH1 0x20 PUSH1 0x40 MLOAD DUP1 DUP4 SUB DUP2 PUSH1 0x0 DUP8 GAS CALL ISZERO DUP1 ISZERO PUSH2 0x285E JUMPI RETURNDATASIZE PUSH1 0x0 DUP1 RETURNDATACOPY RETURNDATASIZE PUSH1 0x0 REVERT JUMPDEST POP POP POP POP PUSH1 0x40 MLOAD RETURNDATASIZE PUSH1 0x1F NOT PUSH1 0x1F DUP3 ADD AND DUP3 ADD DUP1 PUSH1 0x40 MSTORE POP DUP2 ADD SWAP1 PUSH2 0x2882 SWAP2 SWAP1 PUSH2 0x3E45 JUMP JUMPDEST POP PUSH32 0xFEA36C567A41C73FB142AE411F08565859D2842B21CAF06283E31EF06079B36A DUP2 PUSH1 0x1 ADD PUSH1 0x1 SWAP1 SLOAD SWAP1 PUSH2 0x100 EXP SWAP1 DIV PUSH20 0xFFFFFFFFFFFFFFFFFFFFFFFFFFFFFFFFFFFFFFFF AND DUP3 PUSH1 0x2 ADD SLOAD DUP4 PUSH1 0x3 ADD PUSH1 0x40 MLOAD PUSH2 0x28E1 SWAP4 SWAP3 SWAP2 SWAP1 PUSH2 0x4A0D JUMP JUMPDEST PUSH1 0x40 MLOAD DUP1 SWAP2 SUB SWAP1 LOG1 PUSH2 0x2CD4 JUMP JUMPDEST PUSH1 0x1 PUSH1 0x3 DUP2 GT ISZERO PUSH2 0x2902 JUMPI PUSH2 0x2901 PUSH2 0x3415 JUMP JUMPDEST JUMPDEST DUP2 PUSH1 0x1 ADD PUSH1 0x0 SWAP1 SLOAD SWAP1 PUSH2 0x100 EXP SWAP1 DIV PUSH1 0xFF AND PUSH1 0x3 DUP2 GT ISZERO PUSH2 0x2926 JUMPI PUSH2 0x2925 PUSH2 0x3415 JUMP JUMPDEST JUMPDEST SUB PUSH2 0x2A78 JUMPI PUSH1 0x11 PUSH1 0x0 DUP3 PUSH1 0x1 ADD PUSH1 0x1 SWAP1 SLOAD SWAP1 PUSH2 0x100 EXP SWAP1 DIV PUSH20 0xFFFFFFFFFFFFFFFFFFFFFFFFFFFFFFFFFFFFFFFF AND PUSH20 0xFFFFFFFFFFFFFFFFFFFFFFFFFFFFFFFFFFFFFFFF AND PUSH20 0xFFFFFFFFFFFFFFFFFFFFFFFFFFFFFFFFFFFFFFFF AND DUP2 MSTORE PUSH1 0x20 ADD SWAP1 DUP2 MSTORE PUSH1 0x20 ADD PUSH1 0x0 KECCAK256 PUSH1 0x0 SWAP1 SLOAD SWAP1 PUSH2 0x100 EXP SWAP1 DIV PUSH1 0xFF AND PUSH2 0x29DB JUMPI PUSH1 0x40 MLOAD PUSH32 0x8C379A000000000000000000000000000000000000000000000000000000000 DUP2 MSTORE PUSH1 0x4 ADD PUSH2 0x29D2 SWAP1 PUSH2 0x48B1 JUMP JUMPDEST PUSH1 0x40 MLOAD DUP1 SWAP2 SUB SWAP1 REVERT JUMPDEST PUSH2 0x2A0D DUP2 PUSH1 0x1 ADD PUSH1 0x1 SWAP1 SLOAD SWAP1 PUSH2 0x100 EXP SWAP1 DIV PUSH20 0xFFFFFFFFFFFFFFFFFFFFFFFFFFFFFFFFFFFFFFFF AND DUP3 PUSH1 0x2 ADD SLOAD PUSH2 0x2EBC JUMP JUMPDEST PUSH32 0xFEA36C567A41C73FB142AE411F08565859D2842B21CAF06283E31EF06079B36A DUP2 PUSH1 0x1 ADD PUSH1 0x1 SWAP1 SLOAD SWAP1 PUSH2 0x100 EXP SWAP1 DIV PUSH20 0xFFFFFFFFFFFFFFFFFFFFFFFFFFFFFFFFFFFFFFFF AND DUP3 PUSH1 0x2 ADD SLOAD DUP4 PUSH1 0x3 ADD PUSH1 0x40 MLOAD PUSH2 0x2A6B SWAP4 SWAP3 SWAP2 SWAP1 PUSH2 0x4AAA JUMP JUMPDEST PUSH1 0x40 MLOAD DUP1 SWAP2 SUB SWAP1 LOG1 PUSH2 0x2CD3 JUMP JUMPDEST PUSH1 0x2 PUSH1 0x3 DUP2 GT ISZERO PUSH2 0x2A8C JUMPI PUSH2 0x2A8B PUSH2 0x3415 JUMP JUMPDEST JUMPDEST DUP2 PUSH1 0x1 ADD PUSH1 0x0 SWAP1 SLOAD SWAP1 PUSH2 0x100 EXP SWAP1 DIV PUSH1 0xFF AND PUSH1 0x3 DUP2 GT ISZERO PUSH2 0x2AB0 JUMPI PUSH2 0x2AAF PUSH2 0x3415 JUMP JUMPDEST JUMPDEST SUB PUSH2 0x2C18 JUMPI DUP1 PUSH1 0x2 ADD SLOAD PUSH1 0xD PUSH1 0x0 DUP4 PUSH1 0x1 ADD PUSH1 0x1 SWAP1 SLOAD SWAP1 PUSH2 0x100 EXP SWAP1 DIV PUSH20 0xFFFFFFFFFFFFFFFFFFFFFFFFFFFFFFFFFFFFFFFF AND PUSH20 0xFFFFFFFFFFFFFFFFFFFFFFFFFFFFFFFFFFFFFFFF AND PUSH20 0xFFFFFFFFFFFFFFFFFFFFFFFFFFFFFFFFFFFFFFFF AND DUP2 MSTORE PUSH1 0x20 ADD SWAP1 DUP2 MSTORE PUSH1 0x20 ADD PUSH1 0x0 KECCAK256 DUP2 SWAP1 SSTORE POP PUSH1 0x11 PUSH1 0x0 DUP3 PUSH1 0x1 ADD PUSH1 0x1 SWAP1 SLOAD SWAP1 PUSH2 0x100 EXP SWAP1 DIV PUSH20 0xFFFFFFFFFFFFFFFFFFFFFFFFFFFFFFFFFFFFFFFF AND PUSH20 0xFFFFFFFFFFFFFFFFFFFFFFFFFFFFFFFFFFFFFFFF AND PUSH20 0xFFFFFFFFFFFFFFFFFFFFFFFFFFFFFFFFFFFFFFFF AND DUP2 MSTORE PUSH1 0x20 ADD SWAP1 DUP2 MSTORE PUSH1 0x20 ADD PUSH1 0x0 KECCAK256 PUSH1 0x0 SWAP1 SLOAD SWAP1 PUSH2 0x100 EXP SWAP1 DIV PUSH1 0xFF AND PUSH2 0x2C13 JUMPI PUSH1 0x1 PUSH1 0x11 PUSH1 0x0 DUP4 PUSH1 0x1 ADD PUSH1 0x1 SWAP1 SLOAD SWAP1 PUSH2 0x100 EXP SWAP1 DIV PUSH20 0xFFFFFFFFFFFFFFFFFFFFFFFFFFFFFFFFFFFFFFFF AND PUSH20 0xFFFFFFFFFFFFFFFFFFFFFFFFFFFFFFFFFFFFFFFF AND PUSH20 0xFFFFFFFFFFFFFFFFFFFFFFFFFFFFFFFFFFFFFFFF AND DUP2 MSTORE PUSH1 0x20 ADD SWAP1 DUP2 MSTORE PUSH1 0x20 ADD PUSH1 0x0 KECCAK256 PUSH1 0x0 PUSH2 0x100 EXP DUP2 SLOAD DUP2 PUSH1 0xFF MUL NOT AND SWAP1 DUP4 ISZERO ISZERO MUL OR SWAP1 SSTORE POP JUMPDEST PUSH2 0x2CD2 JUMP JUMPDEST PUSH1 0x3 DUP1 DUP2 GT ISZERO PUSH2 0x2C2B JUMPI PUSH2 0x2C2A PUSH2 0x3415 JUMP JUMPDEST JUMPDEST DUP2 PUSH1 0x1 ADD PUSH1 0x0 SWAP1 SLOAD SWAP1 PUSH2 0x100 EXP SWAP1 DIV PUSH1 0xFF AND PUSH1 0x3 DUP2 GT ISZERO PUSH2 0x2C4F JUMPI PUSH2 0x2C4E PUSH2 0x3415 JUMP JUMPDEST JUMPDEST SUB PUSH2 0x2CD1 JUMPI PUSH1 0x1 PUSH1 0x11 PUSH1 0x0 DUP4 PUSH1 0x1 ADD PUSH1 0x1 SWAP1 SLOAD SWAP1 PUSH2 0x100 EXP SWAP1 DIV PUSH20 0xFFFFFFFFFFFFFFFFFFFFFFFFFFFFFFFFFFFFFFFF AND PUSH20 0xFFFFFFFFFFFFFFFFFFFFFFFFFFFFFFFFFFFFFFFF AND PUSH20 0xFFFFFFFFFFFFFFFFFFFFFFFFFFFFFFFFFFFFFFFF AND DUP2 MSTORE PUSH1 0x20 ADD SWAP1 DUP2 MSTORE PUSH1 0x20 ADD PUSH1 0x0 KECCAK256 PUSH1 0x0 PUSH2 0x100 EXP DUP2 SLOAD DUP2 PUSH1 0xFF MUL NOT AND SWAP1 DUP4 ISZERO ISZERO MUL OR SWAP1 SSTORE POP JUMPDEST JUMPDEST JUMPDEST JUMPDEST PUSH32 0x948F4A9CD986F1118C3FBD459F7A22B23C0693E1CA3EF06A6A8BE5AA7D39CC03 DUP2 PUSH1 0x0 ADD SLOAD PUSH1 0x1 PUSH1 0x40 MLOAD PUSH2 0x2D0A SWAP3 SWAP2 SWAP1 PUSH2 0x4AFB JUMP JUMPDEST PUSH1 0x40 MLOAD DUP1 SWAP2 SUB SWAP1 LOG1 POP JUMP JUMPDEST PUSH1 0x0 PUSH1 0x1 PUSH1 0x0 SWAP1 SLOAD SWAP1 PUSH2 0x100 EXP SWAP1 DIV PUSH20 0xFFFFFFFFFFFFFFFFFFFFFFFFFFFFFFFFFFFFFFFF AND PUSH20 0xFFFFFFFFFFFFFFFFFFFFFFFFFFFFFFFFFFFFFFFF AND PUSH4 0x18160DDD PUSH1 0x40 MLOAD DUP2 PUSH4 0xFFFFFFFF AND PUSH1 0xE0 SHL DUP2 MSTORE PUSH1 0x4 ADD PUSH1 0x20 PUSH1 0x40 MLOAD DUP1 DUP4 SUB DUP2 DUP7 GAS STATICCALL ISZERO DUP1 ISZERO PUSH2 0x2D84 JUMPI RETURNDATASIZE PUSH1 0x0 DUP1 RETURNDATACOPY RETURNDATASIZE PUSH1 0x0 REVERT JUMPDEST POP POP POP POP PUSH1 0x40 MLOAD RETURNDATASIZE PUSH1 0x1F NOT PUSH1 0x1F DUP3 ADD AND DUP3 ADD DUP1 PUSH1 0x40 MSTORE POP DUP2 ADD SWAP1 PUSH2 0x2DA8 SWAP2 SWAP1 PUSH2 0x3BEF JUMP JUMPDEST SWAP1 POP PUSH1 0x0 PUSH1 0x64 PUSH1 0x28 DUP4 PUSH2 0x2DBB SWAP2 SWAP1 PUSH2 0x3EDE JUMP JUMPDEST PUSH2 0x2DC5 SWAP2 SWAP1 PUSH2 0x3D51 JUMP JUMPDEST SWAP1 POP PUSH1 0x0 PUSH1 0x1 PUSH1 0x0 SWAP1 SLOAD SWAP1 PUSH2 0x100 EXP SWAP1 DIV PUSH20 0xFFFFFFFFFFFFFFFFFFFFFFFFFFFFFFFFFFFFFFFF AND PUSH20 0xFFFFFFFFFFFFFFFFFFFFFFFFFFFFFFFFFFFFFFFF AND PUSH4 0x70A08231 DUP7 PUSH1 0x40 MLOAD DUP3 PUSH4 0xFFFFFFFF AND PUSH1 0xE0 SHL DUP2 MSTORE PUSH1 0x4 ADD PUSH2 0x2E24 SWAP2 SWAP1 PUSH2 0x3936 JUMP JUMPDEST PUSH1 0x20 PUSH1 0x40 MLOAD DUP1 DUP4 SUB DUP2 DUP7 GAS STATICCALL ISZERO DUP1 ISZERO PUSH2 0x2E41 JUMPI RETURNDATASIZE PUSH1 0x0 DUP1 RETURNDATACOPY RETURNDATASIZE PUSH1 0x0 REVERT JUMPDEST POP POP POP POP PUSH1 0x40 MLOAD RETURNDATASIZE PUSH1 0x1F NOT PUSH1 0x1F DUP3 ADD AND DUP3 ADD DUP1 PUSH1 0x40 MSTORE POP DUP2 ADD SWAP1 PUSH2 0x2E65 SWAP2 SWAP1 PUSH2 0x3BEF JUMP JUMPDEST SWAP1 POP DUP2 DUP5 DUP3 PUSH2 0x2E74 SWAP2 SWAP1 PUSH2 0x3CB7 JUMP JUMPDEST GT ISZERO PUSH2 0x2EB5 JUMPI PUSH1 0x40 MLOAD PUSH32 0x8C379A000000000000000000000000000000000000000000000000000000000 DUP2 MSTORE PUSH1 0x4 ADD PUSH2 0x2EAC SWAP1 PUSH2 0x4B70 JUMP JUMPDEST PUSH1 0x40 MLOAD DUP1 SWAP2 SUB SWAP1 REVERT JUMPDEST POP POP POP POP POP JUMP JUMPDEST PUSH1 0x0 DUP1 PUSH1 0x0 SWAP1 SLOAD SWAP1 PUSH2 0x100 EXP SWAP1 DIV PUSH20 0xFFFFFFFFFFFFFFFFFFFFFFFFFFFFFFFFFFFFFFFF AND PUSH20 0xFFFFFFFFFFFFFFFFFFFFFFFFFFFFFFFFFFFFFFFF AND PUSH4 0x70A08231 ADDRESS PUSH1 0x40 MLOAD DUP3 PUSH4 0xFFFFFFFF AND PUSH1 0xE0 SHL DUP2 MSTORE PUSH1 0x4 ADD PUSH2 0x2F18 SWAP2 SWAP1 PUSH2 0x3936 JUMP JUMPDEST PUSH1 0x20 PUSH1 0x40 MLOAD DUP1 DUP4 SUB DUP2 DUP7 GAS STATICCALL ISZERO DUP1 ISZERO PUSH2 0x2F35 JUMPI RETURNDATASIZE PUSH1 0x0 DUP1 RETURNDATACOPY RETURNDATASIZE PUSH1 0x0 REVERT JUMPDEST POP POP POP POP PUSH1 0x40 MLOAD RETURNDATASIZE PUSH1 0x1F NOT PUSH1 0x1F DUP3 ADD AND DUP3 ADD DUP1 PUSH1 0x40 MSTORE POP DUP2 ADD SWAP1 PUSH2 0x2F59 SWAP2 SWAP1 PUSH2 0x3BEF JUMP JUMPDEST SWAP1 POP DUP2 DUP2 LT ISZERO PUSH2 0x2F9E JUMPI PUSH1 0x40 MLOAD PUSH32 0x8C379A000000000000000000000000000000000000000000000000000000000 DUP2 MSTORE PUSH1 0x4 ADD PUSH2 0x2F95 SWAP1 PUSH2 0x4BDC JUMP JUMPDEST PUSH1 0x40 MLOAD DUP1 SWAP2 SUB SWAP1 REVERT JUMPDEST PUSH1 0x0 PUSH1 0x8 SLOAD PUSH1 0x7 SLOAD PUSH2 0x2FB0 SWAP2 SWAP1 PUSH2 0x42F9 JUMP JUMPDEST SWAP1 POP PUSH1 0x0 DUP2 PUSH1 0x6 SLOAD PUSH2 0x2FC2 SWAP2 SWAP1 PUSH2 0x3CB7 JUMP JUMPDEST SWAP1 POP PUSH1 0x0 DUP2 DUP5 GT ISZERO PUSH2 0x2FDD JUMPI DUP2 DUP5 PUSH2 0x2FDA SWAP2 SWAP1 PUSH2 0x42F9 JUMP JUMPDEST SWAP1 POP JUMPDEST DUP5 DUP2 LT ISZERO PUSH2 0x3055 JUMPI PUSH1 0x0 DUP2 DUP7 PUSH2 0x2FF3 SWAP2 SWAP1 PUSH2 0x42F9 JUMP JUMPDEST SWAP1 POP DUP1 PUSH1 0x6 SLOAD LT ISZERO PUSH2 0x303A JUMPI PUSH1 0x40 MLOAD PUSH32 0x8C379A000000000000000000000000000000000000000000000000000000000 DUP2 MSTORE PUSH1 0x4 ADD PUSH2 0x3031 SWAP1 PUSH2 0x4C48 JUMP JUMPDEST PUSH1 0x40 MLOAD DUP1 SWAP2 SUB SWAP1 REVERT JUMPDEST DUP1 PUSH1 0x6 PUSH1 0x0 DUP3 DUP3 SLOAD PUSH2 0x304C SWAP2 SWAP1 PUSH2 0x42F9 JUMP JUMPDEST SWAP3 POP POP DUP2 SWAP1 SSTORE POP POP JUMPDEST PUSH1 0x0 DUP1 SLOAD SWAP1 PUSH2 0x100 EXP SWAP1 DIV PUSH20 0xFFFFFFFFFFFFFFFFFFFFFFFFFFFFFFFFFFFFFFFF AND PUSH20 0xFFFFFFFFFFFFFFFFFFFFFFFFFFFFFFFFFFFFFFFF AND PUSH4 0xA9059CBB DUP8 DUP8 PUSH1 0x40 MLOAD DUP4 PUSH4 0xFFFFFFFF AND PUSH1 0xE0 SHL DUP2 MSTORE PUSH1 0x4 ADD PUSH2 0x30B0 SWAP3 SWAP2 SWAP1 PUSH2 0x4264 JUMP JUMPDEST PUSH1 0x20 PUSH1 0x40 MLOAD DUP1 DUP4 SUB DUP2 PUSH1 0x0 DUP8 GAS CALL ISZERO DUP1 ISZERO PUSH2 0x30CF JUMPI RETURNDATASIZE PUSH1 0x0 DUP1 RETURNDATACOPY RETURNDATASIZE PUSH1 0x0 REVERT JUMPDEST POP POP POP POP PUSH1 0x40 MLOAD RETURNDATASIZE PUSH1 0x1F NOT PUSH1 0x1F DUP3 ADD AND DUP3 ADD DUP1 PUSH1 0x40 MSTORE POP DUP2 ADD SWAP1 PUSH2 0x30F3 SWAP2 SWAP1 PUSH2 0x3E45 JUMP JUMPDEST POP POP POP POP POP POP POP JUMP JUMPDEST PUSH1 0x13 PUSH1 0x0 DUP2 SLOAD DUP1 SWAP3 SWAP2 SWAP1 PUSH2 0x310F SWAP1 PUSH2 0x45A9 JUMP JUMPDEST SWAP2 SWAP1 POP SSTORE POP PUSH1 0x0 PUSH1 0x12 PUSH1 0x0 PUSH1 0x13 SLOAD DUP2 MSTORE PUSH1 0x20 ADD SWAP1 DUP2 MSTORE PUSH1 0x20 ADD PUSH1 0x0 KECCAK256 SWAP1 POP PUSH1 0x13 SLOAD DUP2 PUSH1 0x0 ADD DUP2 SWAP1 SSTORE POP DUP5 DUP2 PUSH1 0x1 ADD PUSH1 0x0 PUSH2 0x100 EXP DUP2 SLOAD DUP2 PUSH1 0xFF MUL NOT AND SWAP1 DUP4 PUSH1 0x3 DUP2 GT ISZERO PUSH2 0x315F JUMPI PUSH2 0x315E PUSH2 0x3415 JUMP JUMPDEST JUMPDEST MUL OR SWAP1 SSTORE POP DUP4 DUP2 PUSH1 0x1 ADD PUSH1 0x1 PUSH2 0x100 EXP DUP2 SLOAD DUP2 PUSH20 0xFFFFFFFFFFFFFFFFFFFFFFFFFFFFFFFFFFFFFFFF MUL NOT AND SWAP1 DUP4 PUSH20 0xFFFFFFFFFFFFFFFFFFFFFFFFFFFFFFFFFFFFFFFF AND MUL OR SWAP1 SSTORE POP DUP3 DUP2 PUSH1 0x2 ADD DUP2 SWAP1 SSTORE POP DUP2 DUP2 PUSH1 0x3 ADD SWAP1 DUP2 PUSH2 0x31C1 SWAP2 SWAP1 PUSH2 0x4793 JUMP JUMPDEST POP PUSH3 0x15180 TIMESTAMP PUSH2 0x31D1 SWAP2 SWAP1 PUSH2 0x3CB7 JUMP JUMPDEST DUP2 PUSH1 0x6 ADD DUP2 SWAP1 SSTORE POP PUSH1 0x0 DUP1 PUSH1 0x3 DUP2 GT ISZERO PUSH2 0x31EE JUMPI PUSH2 0x31ED PUSH2 0x3415 JUMP JUMPDEST JUMPDEST DUP7 PUSH1 0x3 DUP2 GT ISZERO PUSH2 0x3201 JUMPI PUSH2 0x3200 PUSH2 0x3415 JUMP JUMPDEST JUMPDEST EQ PUSH2 0x3311 JUMPI PUSH1 0x1 PUSH1 0x3 DUP2 GT ISZERO PUSH2 0x321A JUMPI PUSH2 0x3219 PUSH2 0x3415 JUMP JUMPDEST JUMPDEST DUP7 PUSH1 0x3 DUP2 GT ISZERO PUSH2 0x322D JUMPI PUSH2 0x322C PUSH2 0x3415 JUMP JUMPDEST JUMPDEST EQ PUSH2 0x32D5 JUMPI PUSH1 0x2 PUSH1 0x3 DUP2 GT ISZERO PUSH2 0x3246 JUMPI PUSH2 0x3245 PUSH2 0x3415 JUMP JUMPDEST JUMPDEST DUP7 PUSH1 0x3 DUP2 GT ISZERO PUSH2 0x3259 JUMPI PUSH2 0x3258 PUSH2 0x3415 JUMP JUMPDEST JUMPDEST EQ PUSH2 0x3299 JUMPI PUSH1 0x40 MLOAD DUP1 PUSH1 0x40 ADD PUSH1 0x40 MSTORE DUP1 PUSH1 0xA DUP2 MSTORE PUSH1 0x20 ADD PUSH32 0x4144442056454E444F5200000000000000000000000000000000000000000000 DUP2 MSTORE POP PUSH2 0x32D0 JUMP JUMPDEST PUSH1 0x40 MLOAD DUP1 PUSH1 0x40 ADD PUSH1 0x40 MSTORE DUP1 PUSH1 0x8 DUP2 MSTORE PUSH1 0x20 ADD PUSH32 0x5345542047414A49000000000000000000000000000000000000000000000000 DUP2 MSTORE POP JUMPDEST PUSH2 0x330C JUMP JUMPDEST PUSH1 0x40 MLOAD DUP1 PUSH1 0x40 ADD PUSH1 0x40 MSTORE DUP1 PUSH1 0xA DUP2 MSTORE PUSH1 0x20 ADD PUSH32 0x42454C4920424148414E00000000000000000000000000000000000000000000 DUP2 MSTORE POP JUMPDEST PUSH2 0x3348 JUMP JUMPDEST PUSH1 0x40 MLOAD DUP1 PUSH1 0x40 ADD PUSH1 0x40 MSTORE DUP1 PUSH1 0xA DUP2 MSTORE PUSH1 0x20 ADD PUSH32 0x42454C49204D4553494E00000000000000000000000000000000000000000000 DUP2 MSTORE POP JUMPDEST SWAP1 POP PUSH32 0xAB417751734D6A1F646DB70D698328FA08BC6C3F8D4B8EF2A69ADB1EB051496B PUSH1 0x13 SLOAD DUP3 DUP6 PUSH1 0x40 MLOAD PUSH2 0x337F SWAP4 SWAP3 SWAP2 SWAP1 PUSH2 0x4C68 JUMP JUMPDEST PUSH1 0x40 MLOAD DUP1 SWAP2 SUB SWAP1 LOG1 POP POP POP POP POP POP JUMP JUMPDEST PUSH1 0x0 PUSH1 0x40 MLOAD SWAP1 POP SWAP1 JUMP JUMPDEST PUSH1 0x0 DUP1 REVERT JUMPDEST PUSH1 0x0 DUP1 REVERT JUMPDEST PUSH1 0x0 DUP2 SWAP1 POP SWAP2 SWAP1 POP JUMP JUMPDEST PUSH2 0x33B6 DUP2 PUSH2 0x33A3 JUMP JUMPDEST DUP2 EQ PUSH2 0x33C1 JUMPI PUSH1 0x0 DUP1 REVERT JUMPDEST POP JUMP JUMPDEST PUSH1 0x0 DUP2 CALLDATALOAD SWAP1 POP PUSH2 0x33D3 DUP2 PUSH2 0x33AD JUMP JUMPDEST SWAP3 SWAP2 POP POP JUMP JUMPDEST PUSH1 0x0 PUSH1 0x20 DUP3 DUP5 SUB SLT ISZERO PUSH2 0x33EF JUMPI PUSH2 0x33EE PUSH2 0x3399 JUMP JUMPDEST JUMPDEST PUSH1 0x0 PUSH2 0x33FD DUP5 DUP3 DUP6 ADD PUSH2 0x33C4 JUMP JUMPDEST SWAP2 POP POP SWAP3 SWAP2 POP POP JUMP JUMPDEST PUSH2 0x340F DUP2 PUSH2 0x33A3 JUMP JUMPDEST DUP3 MSTORE POP POP JUMP JUMPDEST PUSH32 0x4E487B7100000000000000000000000000000000000000000000000000000000 PUSH1 0x0 MSTORE PUSH1 0x21 PUSH1 0x4 MSTORE PUSH1 0x24 PUSH1 0x0 REVERT JUMPDEST PUSH1 0x4 DUP2 LT PUSH2 0x3455 JUMPI PUSH2 0x3454 PUSH2 0x3415 JUMP JUMPDEST JUMPDEST POP JUMP JUMPDEST PUSH1 0x0 DUP2 SWAP1 POP PUSH2 0x3466 DUP3 PUSH2 0x3444 JUMP JUMPDEST SWAP2 SWAP1 POP JUMP JUMPDEST PUSH1 0x0 PUSH2 0x3476 DUP3 PUSH2 0x3458 JUMP JUMPDEST SWAP1 POP SWAP2 SWAP1 POP JUMP JUMPDEST PUSH2 0x3486 DUP2 PUSH2 0x346B JUMP JUMPDEST DUP3 MSTORE POP POP JUMP JUMPDEST PUSH1 0x0 PUSH20 0xFFFFFFFFFFFFFFFFFFFFFFFFFFFFFFFFFFFFFFFF DUP3 AND SWAP1 POP SWAP2 SWAP1 POP JUMP JUMPDEST PUSH1 0x0 PUSH2 0x34B7 DUP3 PUSH2 0x348C JUMP JUMPDEST SWAP1 POP SWAP2 SWAP1 POP JUMP JUMPDEST PUSH2 0x34C7 DUP2 PUSH2 0x34AC JUMP JUMPDEST DUP3 MSTORE POP POP JUMP JUMPDEST PUSH1 0x0 DUP2 MLOAD SWAP1 POP SWAP2 SWAP1 POP JUMP JUMPDEST PUSH1 0x0 DUP3 DUP3 MSTORE PUSH1 0x20 DUP3 ADD SWAP1 POP SWAP3 SWAP2 POP POP JUMP JUMPDEST PUSH1 0x0 JUMPDEST DUP4 DUP2 LT ISZERO PUSH2 0x3507 JUMPI DUP1 DUP3 ADD MLOAD DUP2 DUP5 ADD MSTORE PUSH1 0x20 DUP2 ADD SWAP1 POP PUSH2 0x34EC JUMP JUMPDEST PUSH1 0x0 DUP5 DUP5 ADD MSTORE POP POP POP POP JUMP JUMPDEST PUSH1 0x0 PUSH1 0x1F NOT PUSH1 0x1F DUP4 ADD AND SWAP1 POP SWAP2 SWAP1 POP JUMP JUMPDEST PUSH1 0x0 PUSH2 0x352F DUP3 PUSH2 0x34CD JUMP JUMPDEST PUSH2 0x3539 DUP2 DUP6 PUSH2 0x34D8 JUMP JUMPDEST SWAP4 POP PUSH2 0x3549 DUP2 DUP6 PUSH1 0x20 DUP7 ADD PUSH2 0x34E9 JUMP JUMPDEST PUSH2 0x3552 DUP2 PUSH2 0x3513 JUMP JUMPDEST DUP5 ADD SWAP2 POP POP SWAP3 SWAP2 POP POP JUMP JUMPDEST PUSH1 0x0 DUP2 ISZERO ISZERO SWAP1 POP SWAP2 SWAP1 POP JUMP JUMPDEST PUSH2 0x3572 DUP2 PUSH2 0x355D JUMP JUMPDEST DUP3 MSTORE POP POP JUMP JUMPDEST PUSH1 0x0 PUSH2 0x100 DUP3 ADD SWAP1 POP PUSH2 0x358E PUSH1 0x0 DUP4 ADD DUP12 PUSH2 0x3406 JUMP JUMPDEST PUSH2 0x359B PUSH1 0x20 DUP4 ADD DUP11 PUSH2 0x347D JUMP JUMPDEST PUSH2 0x35A8 PUSH1 0x40 DUP4 ADD DUP10 PUSH2 0x34BE JUMP JUMPDEST PUSH2 0x35B5 PUSH1 0x60 DUP4 ADD DUP9 PUSH2 0x3406 JUMP JUMPDEST DUP2 DUP2 SUB PUSH1 0x80 DUP4 ADD MSTORE PUSH2 0x35C7 DUP2 DUP8 PUSH2 0x3524 JUMP JUMPDEST SWAP1 POP PUSH2 0x35D6 PUSH1 0xA0 DUP4 ADD DUP7 PUSH2 0x3406 JUMP JUMPDEST PUSH2 0x35E3 PUSH1 0xC0 DUP4 ADD DUP6 PUSH2 0x3569 JUMP JUMPDEST PUSH2 0x35F0 PUSH1 0xE0 DUP4 ADD DUP5 PUSH2 0x3406 JUMP JUMPDEST SWAP10 SWAP9 POP POP POP POP POP POP POP POP POP JUMP JUMPDEST PUSH2 0x3606 DUP2 PUSH2 0x34AC JUMP JUMPDEST DUP2 EQ PUSH2 0x3611 JUMPI PUSH1 0x0 DUP1 REVERT JUMPDEST POP JUMP JUMPDEST PUSH1 0x0 DUP2 CALLDATALOAD SWAP1 POP PUSH2 0x3623 DUP2 PUSH2 0x35FD JUMP JUMPDEST SWAP3 SWAP2 POP POP JUMP JUMPDEST PUSH1 0x0 DUP1 PUSH1 0x40 DUP4 DUP6 SUB SLT ISZERO PUSH2 0x3640 JUMPI PUSH2 0x363F PUSH2 0x3399 JUMP JUMPDEST JUMPDEST PUSH1 0x0 PUSH2 0x364E DUP6 DUP3 DUP7 ADD PUSH2 0x3614 JUMP JUMPDEST SWAP3 POP POP PUSH1 0x20 PUSH2 0x365F DUP6 DUP3 DUP7 ADD PUSH2 0x33C4 JUMP JUMPDEST SWAP2 POP POP SWAP3 POP SWAP3 SWAP1 POP JUMP JUMPDEST PUSH1 0x0 DUP2 SWAP1 POP SWAP2 SWAP1 POP JUMP JUMPDEST PUSH1 0x0 PUSH2 0x368E PUSH2 0x3689 PUSH2 0x3684 DUP5 PUSH2 0x348C JUMP JUMPDEST PUSH2 0x3669 JUMP JUMPDEST PUSH2 0x348C JUMP JUMPDEST SWAP1 POP SWAP2 SWAP1 POP JUMP JUMPDEST PUSH1 0x0 PUSH2 0x36A0 DUP3 PUSH2 0x3673 JUMP JUMPDEST SWAP1 POP SWAP2 SWAP1 POP JUMP JUMPDEST PUSH1 0x0 PUSH2 0x36B2 DUP3 PUSH2 0x3695 JUMP JUMPDEST SWAP1 POP SWAP2 SWAP1 POP JUMP JUMPDEST PUSH2 0x36C2 DUP2 PUSH2 0x36A7 JUMP JUMPDEST DUP3 MSTORE POP POP JUMP JUMPDEST PUSH1 0x0 PUSH1 0x20 DUP3 ADD SWAP1 POP PUSH2 0x36DD PUSH1 0x0 DUP4 ADD DUP5 PUSH2 0x36B9 JUMP JUMPDEST SWAP3 SWAP2 POP POP JUMP JUMPDEST PUSH1 0x0 PUSH1 0x20 DUP3 DUP5 SUB SLT ISZERO PUSH2 0x36F9 JUMPI PUSH2 0x36F8 PUSH2 0x3399 JUMP JUMPDEST JUMPDEST PUSH1 0x0 PUSH2 0x3707 DUP5 DUP3 DUP6 ADD PUSH2 0x3614 JUMP JUMPDEST SWAP2 POP POP SWAP3 SWAP2 POP POP JUMP JUMPDEST PUSH1 0x0 PUSH1 0x20 DUP3 ADD SWAP1 POP PUSH2 0x3725 PUSH1 0x0 DUP4 ADD DUP5 PUSH2 0x3406 JUMP JUMPDEST SWAP3 SWAP2 POP POP JUMP JUMPDEST PUSH1 0x0 DUP1 REVERT JUMPDEST PUSH1 0x0 DUP1 REVERT JUMPDEST PUSH32 0x4E487B7100000000000000000000000000000000000000000000000000000000 PUSH1 0x0 MSTORE PUSH1 0x41 PUSH1 0x4 MSTORE PUSH1 0x24 PUSH1 0x0 REVERT JUMPDEST PUSH2 0x376D DUP3 PUSH2 0x3513 JUMP JUMPDEST DUP2 ADD DUP2 DUP2 LT PUSH8 0xFFFFFFFFFFFFFFFF DUP3 GT OR ISZERO PUSH2 0x378C JUMPI PUSH2 0x378B PUSH2 0x3735 JUMP JUMPDEST JUMPDEST DUP1 PUSH1 0x40 MSTORE POP POP POP JUMP JUMPDEST PUSH1 0x0 PUSH2 0x379F PUSH2 0x338F JUMP JUMPDEST SWAP1 POP PUSH2 0x37AB DUP3 DUP3 PUSH2 0x3764 JUMP JUMPDEST SWAP2 SWAP1 POP JUMP JUMPDEST PUSH1 0x0 PUSH8 0xFFFFFFFFFFFFFFFF DUP3 GT ISZERO PUSH2 0x37CB JUMPI PUSH2 0x37CA PUSH2 0x3735 JUMP JUMPDEST JUMPDEST PUSH2 0x37D4 DUP3 PUSH2 0x3513 JUMP JUMPDEST SWAP1 POP PUSH1 0x20 DUP2 ADD SWAP1 POP SWAP2 SWAP1 POP JUMP JUMPDEST DUP3 DUP2 DUP4 CALLDATACOPY PUSH1 0x0 DUP4 DUP4 ADD MSTORE POP POP POP JUMP JUMPDEST PUSH1 0x0 PUSH2 0x3803 PUSH2 0x37FE DUP5 PUSH2 0x37B0 JUMP JUMPDEST PUSH2 0x3795 JUMP JUMPDEST SWAP1 POP DUP3 DUP2 MSTORE PUSH1 0x20 DUP2 ADD DUP5 DUP5 DUP5 ADD GT ISZERO PUSH2 0x381F JUMPI PUSH2 0x381E PUSH2 0x3730 JUMP JUMPDEST JUMPDEST PUSH2 0x382A DUP5 DUP3 DUP6 PUSH2 0x37E1 JUMP JUMPDEST POP SWAP4 SWAP3 POP POP POP JUMP JUMPDEST PUSH1 0x0 DUP3 PUSH1 0x1F DUP4 ADD SLT PUSH2 0x3847 JUMPI PUSH2 0x3846 PUSH2 0x372B JUMP JUMPDEST JUMPDEST DUP2 CALLDATALOAD PUSH2 0x3857 DUP5 DUP3 PUSH1 0x20 DUP7 ADD PUSH2 0x37F0 JUMP JUMPDEST SWAP2 POP POP SWAP3 SWAP2 POP POP JUMP JUMPDEST PUSH1 0x0 DUP1 PUSH1 0x0 PUSH1 0x60 DUP5 DUP7 SUB SLT ISZERO PUSH2 0x3879 JUMPI PUSH2 0x3878 PUSH2 0x3399 JUMP JUMPDEST JUMPDEST PUSH1 0x0 PUSH2 0x3887 DUP7 DUP3 DUP8 ADD PUSH2 0x3614 JUMP JUMPDEST SWAP4 POP POP PUSH1 0x20 PUSH2 0x3898 DUP7 DUP3 DUP8 ADD PUSH2 0x33C4 JUMP JUMPDEST SWAP3 POP POP PUSH1 0x40 DUP5 ADD CALLDATALOAD PUSH8 0xFFFFFFFFFFFFFFFF DUP2 GT ISZERO PUSH2 0x38B9 JUMPI PUSH2 0x38B8 PUSH2 0x339E JUMP JUMPDEST JUMPDEST PUSH2 0x38C5 DUP7 DUP3 DUP8 ADD PUSH2 0x3832 JUMP JUMPDEST SWAP2 POP POP SWAP3 POP SWAP3 POP SWAP3 JUMP JUMPDEST PUSH1 0x0 PUSH1 0x20 DUP3 ADD SWAP1 POP PUSH2 0x38E4 PUSH1 0x0 DUP4 ADD DUP5 PUSH2 0x3569 JUMP JUMPDEST SWAP3 SWAP2 POP POP JUMP JUMPDEST PUSH1 0x0 PUSH1 0x80 DUP3 ADD SWAP1 POP PUSH2 0x38FF PUSH1 0x0 DUP4 ADD DUP8 PUSH2 0x3406 JUMP JUMPDEST DUP2 DUP2 SUB PUSH1 0x20 DUP4 ADD MSTORE PUSH2 0x3911 DUP2 DUP7 PUSH2 0x3524 JUMP JUMPDEST SWAP1 POP PUSH2 0x3920 PUSH1 0x40 DUP4 ADD DUP6 PUSH2 0x3569 JUMP JUMPDEST PUSH2 0x392D PUSH1 0x60 DUP4 ADD DUP5 PUSH2 0x3406 JUMP JUMPDEST SWAP6 SWAP5 POP POP POP POP POP JUMP JUMPDEST PUSH1 0x0 PUSH1 0x20 DUP3 ADD SWAP1 POP PUSH2 0x394B PUSH1 0x0 DUP4 ADD DUP5 PUSH2 0x34BE JUMP JUMPDEST SWAP3 SWAP2 POP POP JUMP JUMPDEST PUSH1 0x0 DUP2 SWAP1 POP SWAP2 SWAP1 POP JUMP JUMPDEST PUSH2 0x3964 DUP2 PUSH2 0x3951 JUMP JUMPDEST DUP3 MSTORE POP POP JUMP JUMPDEST PUSH1 0x0 PUSH1 0x20 DUP3 ADD SWAP1 POP PUSH2 0x397F PUSH1 0x0 DUP4 ADD DUP5 PUSH2 0x395B JUMP JUMPDEST SWAP3 SWAP2 POP POP JUMP JUMPDEST PUSH1 0x0 PUSH1 0x20 DUP3 DUP5 SUB SLT ISZERO PUSH2 0x399B JUMPI PUSH2 0x399A PUSH2 0x3399 JUMP JUMPDEST JUMPDEST PUSH1 0x0 DUP3 ADD CALLDATALOAD PUSH8 0xFFFFFFFFFFFFFFFF DUP2 GT ISZERO PUSH2 0x39B9 JUMPI PUSH2 0x39B8 PUSH2 0x339E JUMP JUMPDEST JUMPDEST PUSH2 0x39C5 DUP5 DUP3 DUP6 ADD PUSH2 0x3832 JUMP JUMPDEST SWAP2 POP POP SWAP3 SWAP2 POP POP JUMP JUMPDEST PUSH1 0x0 DUP1 PUSH1 0x40 DUP4 DUP6 SUB SLT ISZERO PUSH2 0x39E5 JUMPI PUSH2 0x39E4 PUSH2 0x3399 JUMP JUMPDEST JUMPDEST PUSH1 0x0 PUSH2 0x39F3 DUP6 DUP3 DUP7 ADD PUSH2 0x3614 JUMP JUMPDEST SWAP3 POP POP PUSH1 0x20 DUP4 ADD CALLDATALOAD PUSH8 0xFFFFFFFFFFFFFFFF DUP2 GT ISZERO PUSH2 0x3A14 JUMPI PUSH2 0x3A13 PUSH2 0x339E JUMP JUMPDEST JUMPDEST PUSH2 0x3A20 DUP6 DUP3 DUP7 ADD PUSH2 0x3832 JUMP JUMPDEST SWAP2 POP POP SWAP3 POP SWAP3 SWAP1 POP JUMP JUMPDEST PUSH32 0x5265656E7472616E637921000000000000000000000000000000000000000000 PUSH1 0x0 DUP3 ADD MSTORE POP JUMP JUMPDEST PUSH1 0x0 PUSH2 0x3A60 PUSH1 0xB DUP4 PUSH2 0x34D8 JUMP JUMPDEST SWAP2 POP PUSH2 0x3A6B DUP3 PUSH2 0x3A2A JUMP JUMPDEST PUSH1 0x20 DUP3 ADD SWAP1 POP SWAP2 SWAP1 POP JUMP JUMPDEST PUSH1 0x0 PUSH1 0x20 DUP3 ADD SWAP1 POP DUP2 DUP2 SUB PUSH1 0x0 DUP4 ADD MSTORE PUSH2 0x3A8F DUP2 PUSH2 0x3A53 JUMP JUMPDEST SWAP1 POP SWAP2 SWAP1 POP JUMP JUMPDEST PUSH32 0x57616B7475204861626973000000000000000000000000000000000000000000 PUSH1 0x0 DUP3 ADD MSTORE POP JUMP JUMPDEST PUSH1 0x0 PUSH2 0x3ACC PUSH1 0xB DUP4 PUSH2 0x34D8 JUMP JUMPDEST SWAP2 POP PUSH2 0x3AD7 DUP3 PUSH2 0x3A96 JUMP JUMPDEST PUSH1 0x20 DUP3 ADD SWAP1 POP SWAP2 SWAP1 POP JUMP JUMPDEST PUSH1 0x0 PUSH1 0x20 DUP3 ADD SWAP1 POP DUP2 DUP2 SUB PUSH1 0x0 DUP4 ADD MSTORE PUSH2 0x3AFB DUP2 PUSH2 0x3ABF JUMP JUMPDEST SWAP1 POP SWAP2 SWAP1 POP JUMP JUMPDEST PUSH32 0x537564616820566F746500000000000000000000000000000000000000000000 PUSH1 0x0 DUP3 ADD MSTORE POP JUMP JUMPDEST PUSH1 0x0 PUSH2 0x3B38 PUSH1 0xA DUP4 PUSH2 0x34D8 JUMP JUMPDEST SWAP2 POP PUSH2 0x3B43 DUP3 PUSH2 0x3B02 JUMP JUMPDEST PUSH1 0x20 DUP3 ADD SWAP1 POP SWAP2 SWAP1 POP JUMP JUMPDEST PUSH1 0x0 PUSH1 0x20 DUP3 ADD SWAP1 POP DUP2 DUP2 SUB PUSH1 0x0 DUP4 ADD MSTORE PUSH2 0x3B67 DUP2 PUSH2 0x3B2B JUMP JUMPDEST SWAP1 POP SWAP2 SWAP1 POP JUMP JUMPDEST PUSH32 0x53756461682053656C6573616900000000000000000000000000000000000000 PUSH1 0x0 DUP3 ADD MSTORE POP JUMP JUMPDEST PUSH1 0x0 PUSH2 0x3BA4 PUSH1 0xD DUP4 PUSH2 0x34D8 JUMP JUMPDEST SWAP2 POP PUSH2 0x3BAF DUP3 PUSH2 0x3B6E JUMP JUMPDEST PUSH1 0x20 DUP3 ADD SWAP1 POP SWAP2 SWAP1 POP JUMP JUMPDEST PUSH1 0x0 PUSH1 0x20 DUP3 ADD SWAP1 POP DUP2 DUP2 SUB PUSH1 0x0 DUP4 ADD MSTORE PUSH2 0x3BD3 DUP2 PUSH2 0x3B97 JUMP JUMPDEST SWAP1 POP SWAP2 SWAP1 POP JUMP JUMPDEST PUSH1 0x0 DUP2 MLOAD SWAP1 POP PUSH2 0x3BE9 DUP2 PUSH2 0x33AD JUMP JUMPDEST SWAP3 SWAP2 POP POP JUMP JUMPDEST PUSH1 0x0 PUSH1 0x20 DUP3 DUP5 SUB SLT ISZERO PUSH2 0x3C05 JUMPI PUSH2 0x3C04 PUSH2 0x3399 JUMP JUMPDEST JUMPDEST PUSH1 0x0 PUSH2 0x3C13 DUP5 DUP3 DUP6 ADD PUSH2 0x3BDA JUMP JUMPDEST SWAP2 POP POP SWAP3 SWAP2 POP POP JUMP JUMPDEST PUSH32 0x4E6F20546F6B656E000000000000000000000000000000000000000000000000 PUSH1 0x0 DUP3 ADD MSTORE POP JUMP JUMPDEST PUSH1 0x0 PUSH2 0x3C52 PUSH1 0x8 DUP4 PUSH2 0x34D8 JUMP JUMPDEST SWAP2 POP PUSH2 0x3C5D DUP3 PUSH2 0x3C1C JUMP JUMPDEST PUSH1 0x20 DUP3 ADD SWAP1 POP SWAP2 SWAP1 POP JUMP JUMPDEST PUSH1 0x0 PUSH1 0x20 DUP3 ADD SWAP1 POP DUP2 DUP2 SUB PUSH1 0x0 DUP4 ADD MSTORE PUSH2 0x3C81 DUP2 PUSH2 0x3C45 JUMP JUMPDEST SWAP1 POP SWAP2 SWAP1 POP JUMP JUMPDEST PUSH32 0x4E487B7100000000000000000000000000000000000000000000000000000000 PUSH1 0x0 MSTORE PUSH1 0x11 PUSH1 0x4 MSTORE PUSH1 0x24 PUSH1 0x0 REVERT JUMPDEST PUSH1 0x0 PUSH2 0x3CC2 DUP3 PUSH2 0x33A3 JUMP JUMPDEST SWAP2 POP PUSH2 0x3CCD DUP4 PUSH2 0x33A3 JUMP JUMPDEST SWAP3 POP DUP3 DUP3 ADD SWAP1 POP DUP1 DUP3 GT ISZERO PUSH2 0x3CE5 JUMPI PUSH2 0x3CE4 PUSH2 0x3C88 JUMP JUMPDEST JUMPDEST SWAP3 SWAP2 POP POP JUMP JUMPDEST PUSH1 0x0 PUSH1 0x60 DUP3 ADD SWAP1 POP PUSH2 0x3D00 PUSH1 0x0 DUP4 ADD DUP7 PUSH2 0x3406 JUMP JUMPDEST PUSH2 0x3D0D PUSH1 0x20 DUP4 ADD DUP6 PUSH2 0x34BE JUMP JUMPDEST PUSH2 0x3D1A PUSH1 0x40 DUP4 ADD DUP5 PUSH2 0x3406 JUMP JUMPDEST SWAP5 SWAP4 POP POP POP POP JUMP JUMPDEST PUSH32 0x4E487B7100000000000000000000000000000000000000000000000000000000 PUSH1 0x0 MSTORE PUSH1 0x12 PUSH1 0x4 MSTORE PUSH1 0x24 PUSH1 0x0 REVERT JUMPDEST PUSH1 0x0 PUSH2 0x3D5C DUP3 PUSH2 0x33A3 JUMP JUMPDEST SWAP2 POP PUSH2 0x3D67 DUP4 PUSH2 0x33A3 JUMP JUMPDEST SWAP3 POP DUP3 PUSH2 0x3D77 JUMPI PUSH2 0x3D76 PUSH2 0x3D22 JUMP JUMPDEST JUMPDEST DUP3 DUP3 DIV SWAP1 POP SWAP3 SWAP2 POP POP JUMP JUMPDEST PUSH32 0x4E487B7100000000000000000000000000000000000000000000000000000000 PUSH1 0x0 MSTORE PUSH1 0x22 PUSH1 0x4 MSTORE PUSH1 0x24 PUSH1 0x0 REVERT JUMPDEST PUSH1 0x0 PUSH1 0x2 DUP3 DIV SWAP1 POP PUSH1 0x1 DUP3 AND DUP1 PUSH2 0x3DC9 JUMPI PUSH1 0x7F DUP3 AND SWAP2 POP JUMPDEST PUSH1 0x20 DUP3 LT DUP2 SUB PUSH2 0x3DDC JUMPI PUSH2 0x3DDB PUSH2 0x3D82 JUMP JUMPDEST JUMPDEST POP SWAP2 SWAP1 POP JUMP JUMPDEST PUSH1 0x0 PUSH1 0x60 DUP3 ADD SWAP1 POP PUSH2 0x3DF7 PUSH1 0x0 DUP4 ADD DUP7 PUSH2 0x34BE JUMP JUMPDEST PUSH2 0x3E04 PUSH1 0x20 DUP4 ADD DUP6 PUSH2 0x34BE JUMP JUMPDEST PUSH2 0x3E11 PUSH1 0x40 DUP4 ADD DUP5 PUSH2 0x3406 JUMP JUMPDEST SWAP5 SWAP4 POP POP POP POP JUMP JUMPDEST PUSH2 0x3E22 DUP2 PUSH2 0x355D JUMP JUMPDEST DUP2 EQ PUSH2 0x3E2D JUMPI PUSH1 0x0 DUP1 REVERT JUMPDEST POP JUMP JUMPDEST PUSH1 0x0 DUP2 MLOAD SWAP1 POP PUSH2 0x3E3F DUP2 PUSH2 0x3E19 JUMP JUMPDEST SWAP3 SWAP2 POP POP JUMP JUMPDEST PUSH1 0x0 PUSH1 0x20 DUP3 DUP5 SUB SLT ISZERO PUSH2 0x3E5B JUMPI PUSH2 0x3E5A PUSH2 0x3399 JUMP JUMPDEST JUMPDEST PUSH1 0x0 PUSH2 0x3E69 DUP5 DUP3 DUP6 ADD PUSH2 0x3E30 JUMP JUMPDEST SWAP2 POP POP SWAP3 SWAP2 POP POP JUMP JUMPDEST PUSH32 0x476167616C205472616E73666572000000000000000000000000000000000000 PUSH1 0x0 DUP3 ADD MSTORE POP JUMP JUMPDEST PUSH1 0x0 PUSH2 0x3EA8 PUSH1 0xE DUP4 PUSH2 0x34D8 JUMP JUMPDEST SWAP2 POP PUSH2 0x3EB3 DUP3 PUSH2 0x3E72 JUMP JUMPDEST PUSH1 0x20 DUP3 ADD SWAP1 POP SWAP2 SWAP1 POP JUMP JUMPDEST PUSH1 0x0 PUSH1 0x20 DUP3 ADD SWAP1 POP DUP2 DUP2 SUB PUSH1 0x0 DUP4 ADD MSTORE PUSH2 0x3ED7 DUP2 PUSH2 0x3E9B JUMP JUMPDEST SWAP1 POP SWAP2 SWAP1 POP JUMP JUMPDEST PUSH1 0x0 PUSH2 0x3EE9 DUP3 PUSH2 0x33A3 JUMP JUMPDEST SWAP2 POP PUSH2 0x3EF4 DUP4 PUSH2 0x33A3 JUMP JUMPDEST SWAP3 POP DUP3 DUP3 MUL PUSH2 0x3F02 DUP2 PUSH2 0x33A3 JUMP JUMPDEST SWAP2 POP DUP3 DUP3 DIV DUP5 EQ DUP4 ISZERO OR PUSH2 0x3F19 JUMPI PUSH2 0x3F18 PUSH2 0x3C88 JUMP JUMPDEST JUMPDEST POP SWAP3 SWAP2 POP POP JUMP JUMPDEST PUSH1 0x0 PUSH2 0x3F2B DUP3 PUSH2 0x3951 JUMP JUMPDEST SWAP2 POP PUSH2 0x3F36 DUP4 PUSH2 0x3951 JUMP JUMPDEST SWAP3 POP DUP3 DUP3 ADD SWAP1 POP DUP3 DUP2 SLT ISZERO PUSH1 0x0 DUP4 SLT AND DUP4 DUP3 SLT PUSH1 0x0 DUP5 SLT ISZERO AND OR ISZERO PUSH2 0x3F5E JUMPI PUSH2 0x3F5D PUSH2 0x3C88 JUMP JUMPDEST JUMPDEST SWAP3 SWAP2 POP POP JUMP JUMPDEST PUSH1 0x0 PUSH2 0x3F6F DUP3 PUSH2 0x3951 JUMP JUMPDEST SWAP2 POP PUSH2 0x3F7A DUP4 PUSH2 0x3951 JUMP JUMPDEST SWAP3 POP DUP3 DUP3 SUB SWAP1 POP DUP2 DUP2 SLT PUSH1 0x0 DUP5 SLT AND DUP3 DUP3 SGT PUSH1 0x0 DUP6 SLT ISZERO AND OR ISZERO PUSH2 0x3FA1 JUMPI PUSH2 0x3FA0 PUSH2 0x3C88 JUMP JUMPDEST JUMPDEST SWAP3 SWAP2 POP POP JUMP JUMPDEST PUSH32 0x48616E79612041646D696E000000000000000000000000000000000000000000 PUSH1 0x0 DUP3 ADD MSTORE POP JUMP JUMPDEST PUSH1 0x0 PUSH2 0x3FDD PUSH1 0xB DUP4 PUSH2 0x34D8 JUMP JUMPDEST SWAP2 POP PUSH2 0x3FE8 DUP3 PUSH2 0x3FA7 JUMP JUMPDEST PUSH1 0x20 DUP3 ADD SWAP1 POP SWAP2 SWAP1 POP JUMP JUMPDEST PUSH1 0x0 PUSH1 0x20 DUP3 ADD SWAP1 POP DUP2 DUP2 SUB PUSH1 0x0 DUP4 ADD MSTORE PUSH2 0x400C DUP2 PUSH2 0x3FD0 JUMP JUMPDEST SWAP1 POP SWAP2 SWAP1 POP JUMP JUMPDEST PUSH32 0x47616A692068617269616E2062656C756D206469736574207669612050726F70 PUSH1 0x0 DUP3 ADD MSTORE PUSH32 0x6F73616C21000000000000000000000000000000000000000000000000000000 PUSH1 0x20 DUP3 ADD MSTORE POP JUMP JUMPDEST PUSH1 0x0 PUSH2 0x406F PUSH1 0x25 DUP4 PUSH2 0x34D8 JUMP JUMPDEST SWAP2 POP PUSH2 0x407A DUP3 PUSH2 0x4013 JUMP JUMPDEST PUSH1 0x40 DUP3 ADD SWAP1 POP SWAP2 SWAP1 POP JUMP JUMPDEST PUSH1 0x0 PUSH1 0x20 DUP3 ADD SWAP1 POP DUP2 DUP2 SUB PUSH1 0x0 DUP4 ADD MSTORE PUSH2 0x409E DUP2 PUSH2 0x4062 JUMP JUMPDEST SWAP1 POP SWAP2 SWAP1 POP JUMP JUMPDEST PUSH32 0x4861726920696E692073756461682067616A69616E2100000000000000000000 PUSH1 0x0 DUP3 ADD MSTORE POP JUMP JUMPDEST PUSH1 0x0 PUSH2 0x40DB PUSH1 0x16 DUP4 PUSH2 0x34D8 JUMP JUMPDEST SWAP2 POP PUSH2 0x40E6 DUP3 PUSH2 0x40A5 JUMP JUMPDEST PUSH1 0x20 DUP3 ADD SWAP1 POP SWAP2 SWAP1 POP JUMP JUMPDEST PUSH1 0x0 PUSH1 0x20 DUP3 ADD SWAP1 POP DUP2 DUP2 SUB PUSH1 0x0 DUP4 ADD MSTORE PUSH2 0x410A DUP2 PUSH2 0x40CE JUMP JUMPDEST SWAP1 POP SWAP2 SWAP1 POP JUMP JUMPDEST PUSH32 0x47414A492048415249414E000000000000000000000000000000000000000000 PUSH1 0x0 DUP3 ADD MSTORE POP JUMP JUMPDEST PUSH1 0x0 PUSH2 0x4147 PUSH1 0xB DUP4 PUSH2 0x34D8 JUMP JUMPDEST SWAP2 POP PUSH2 0x4152 DUP3 PUSH2 0x4111 JUMP JUMPDEST PUSH1 0x20 DUP3 ADD SWAP1 POP SWAP2 SWAP1 POP JUMP JUMPDEST PUSH32 0x47616A6920527574696E2048617269616E000000000000000000000000000000 PUSH1 0x0 DUP3 ADD MSTORE POP JUMP JUMPDEST PUSH1 0x0 PUSH2 0x4193 PUSH1 0x11 DUP4 PUSH2 0x34D8 JUMP JUMPDEST SWAP2 POP PUSH2 0x419E DUP3 PUSH2 0x415D JUMP JUMPDEST PUSH1 0x20 DUP3 ADD SWAP1 POP SWAP2 SWAP1 POP JUMP JUMPDEST PUSH1 0x0 PUSH1 0x80 DUP3 ADD SWAP1 POP DUP2 DUP2 SUB PUSH1 0x0 DUP4 ADD MSTORE PUSH2 0x41C2 DUP2 PUSH2 0x413A JUMP JUMPDEST SWAP1 POP PUSH2 0x41D1 PUSH1 0x20 DUP4 ADD DUP6 PUSH2 0x34BE JUMP JUMPDEST PUSH2 0x41DE PUSH1 0x40 DUP4 ADD DUP5 PUSH2 0x3406 JUMP JUMPDEST DUP2 DUP2 SUB PUSH1 0x60 DUP4 ADD MSTORE PUSH2 0x41EF DUP2 PUSH2 0x4186 JUMP JUMPDEST SWAP1 POP SWAP4 SWAP3 POP POP POP JUMP JUMPDEST PUSH32 0x4E6968696C000000000000000000000000000000000000000000000000000000 PUSH1 0x0 DUP3 ADD MSTORE POP JUMP JUMPDEST PUSH1 0x0 PUSH2 0x422E PUSH1 0x5 DUP4 PUSH2 0x34D8 JUMP JUMPDEST SWAP2 POP PUSH2 0x4239 DUP3 PUSH2 0x41F8 JUMP JUMPDEST PUSH1 0x20 DUP3 ADD SWAP1 POP SWAP2 SWAP1 POP JUMP JUMPDEST PUSH1 0x0 PUSH1 0x20 DUP3 ADD SWAP1 POP DUP2 DUP2 SUB PUSH1 0x0 DUP4 ADD MSTORE PUSH2 0x425D DUP2 PUSH2 0x4221 JUMP JUMPDEST SWAP1 POP SWAP2 SWAP1 POP JUMP JUMPDEST PUSH1 0x0 PUSH1 0x40 DUP3 ADD SWAP1 POP PUSH2 0x4279 PUSH1 0x0 DUP4 ADD DUP6 PUSH2 0x34BE JUMP JUMPDEST PUSH2 0x4286 PUSH1 0x20 DUP4 ADD DUP5 PUSH2 0x3406 JUMP JUMPDEST SWAP4 SWAP3 POP POP POP JUMP JUMPDEST PUSH32 0x476167616C000000000000000000000000000000000000000000000000000000 PUSH1 0x0 DUP3 ADD MSTORE POP JUMP JUMPDEST PUSH1 0x0 PUSH2 0x42C3 PUSH1 0x5 DUP4 PUSH2 0x34D8 JUMP JUMPDEST SWAP2 POP PUSH2 0x42CE DUP3 PUSH2 0x428D JUMP JUMPDEST PUSH1 0x20 DUP3 ADD SWAP1 POP SWAP2 SWAP1 POP JUMP JUMPDEST PUSH1 0x0 PUSH1 0x20 DUP3 ADD SWAP1 POP DUP2 DUP2 SUB PUSH1 0x0 DUP4 ADD MSTORE PUSH2 0x42F2 DUP2 PUSH2 0x42B6 JUMP JUMPDEST SWAP1 POP SWAP2 SWAP1 POP JUMP JUMPDEST PUSH1 0x0 PUSH2 0x4304 DUP3 PUSH2 0x33A3 JUMP JUMPDEST SWAP2 POP PUSH2 0x430F DUP4 PUSH2 0x33A3 JUMP JUMPDEST SWAP3 POP DUP3 DUP3 SUB SWAP1 POP DUP2 DUP2 GT ISZERO PUSH2 0x4327 JUMPI PUSH2 0x4326 PUSH2 0x3C88 JUMP JUMPDEST JUMPDEST SWAP3 SWAP2 POP POP JUMP JUMPDEST PUSH32 0x4D6573696E204D61746900000000000000000000000000000000000000000000 PUSH1 0x0 DUP3 ADD MSTORE POP JUMP JUMPDEST PUSH1 0x0 PUSH2 0x4363 PUSH1 0xA DUP4 PUSH2 0x34D8 JUMP JUMPDEST SWAP2 POP PUSH2 0x436E DUP3 PUSH2 0x432D JUMP JUMPDEST PUSH1 0x20 DUP3 ADD SWAP1 POP SWAP2 SWAP1 POP JUMP JUMPDEST PUSH1 0x0 PUSH1 0x20 DUP3 ADD SWAP1 POP DUP2 DUP2 SUB PUSH1 0x0 DUP4 ADD MSTORE PUSH2 0x4392 DUP2 PUSH2 0x4356 JUMP JUMPDEST SWAP1 POP SWAP2 SWAP1 POP JUMP JUMPDEST PUSH32 0x476167616C204261796172000000000000000000000000000000000000000000 PUSH1 0x0 DUP3 ADD MSTORE POP JUMP JUMPDEST PUSH1 0x0 PUSH2 0x43CF PUSH1 0xB DUP4 PUSH2 0x34D8 JUMP JUMPDEST SWAP2 POP PUSH2 0x43DA DUP3 PUSH2 0x4399 JUMP JUMPDEST PUSH1 0x20 DUP3 ADD SWAP1 POP SWAP2 SWAP1 POP JUMP JUMPDEST PUSH1 0x0 PUSH1 0x20 DUP3 ADD SWAP1 POP DUP2 DUP2 SUB PUSH1 0x0 DUP4 ADD MSTORE PUSH2 0x43FE DUP2 PUSH2 0x43C2 JUMP JUMPDEST SWAP1 POP SWAP2 SWAP1 POP JUMP JUMPDEST PUSH1 0x0 PUSH1 0x40 DUP3 ADD SWAP1 POP PUSH2 0x441A PUSH1 0x0 DUP4 ADD DUP6 PUSH2 0x3406 JUMP JUMPDEST PUSH2 0x4427 PUSH1 0x20 DUP4 ADD DUP5 PUSH2 0x3406 JUMP JUMPDEST SWAP4 SWAP3 POP POP POP JUMP JUMPDEST PUSH32 0x536F6C64204F7574000000000000000000000000000000000000000000000000 PUSH1 0x0 DUP3 ADD MSTORE POP JUMP JUMPDEST PUSH1 0x0 PUSH2 0x4464 PUSH1 0x8 DUP4 PUSH2 0x34D8 JUMP JUMPDEST SWAP2 POP PUSH2 0x446F DUP3 PUSH2 0x442E JUMP JUMPDEST PUSH1 0x20 DUP3 ADD SWAP1 POP SWAP2 SWAP1 POP JUMP JUMPDEST PUSH1 0x0 PUSH1 0x20 DUP3 ADD SWAP1 POP DUP2 DUP2 SUB PUSH1 0x0 DUP4 ADD MSTORE PUSH2 0x4493 DUP2 PUSH2 0x4457 JUMP JUMPDEST SWAP1 POP SWAP2 SWAP1 POP JUMP JUMPDEST PUSH32 0x476167616C204261796172204944525400000000000000000000000000000000 PUSH1 0x0 DUP3 ADD MSTORE POP JUMP JUMPDEST PUSH1 0x0 PUSH2 0x44D0 PUSH1 0x10 DUP4 PUSH2 0x34D8 JUMP JUMPDEST SWAP2 POP PUSH2 0x44DB DUP3 PUSH2 0x449A JUMP JUMPDEST PUSH1 0x20 DUP3 ADD SWAP1 POP SWAP2 SWAP1 POP JUMP JUMPDEST PUSH1 0x0 PUSH1 0x20 DUP3 ADD SWAP1 POP DUP2 DUP2 SUB PUSH1 0x0 DUP4 ADD MSTORE PUSH2 0x44FF DUP2 PUSH2 0x44C3 JUMP JUMPDEST SWAP1 POP SWAP2 SWAP1 POP JUMP JUMPDEST PUSH32 0x476167616C204B6972696D20536168616D000000000000000000000000000000 PUSH1 0x0 DUP3 ADD MSTORE POP JUMP JUMPDEST PUSH1 0x0 PUSH2 0x453C PUSH1 0x11 DUP4 PUSH2 0x34D8 JUMP JUMPDEST SWAP2 POP PUSH2 0x4547 DUP3 PUSH2 0x4506 JUMP JUMPDEST PUSH1 0x20 DUP3 ADD SWAP1 POP SWAP2 SWAP1 POP JUMP JUMPDEST PUSH1 0x0 PUSH1 0x20 DUP3 ADD SWAP1 POP DUP2 DUP2 SUB PUSH1 0x0 DUP4 ADD MSTORE PUSH2 0x456B DUP2 PUSH2 0x452F JUMP JUMPDEST SWAP1 POP SWAP2 SWAP1 POP JUMP JUMPDEST PUSH1 0x0 PUSH1 0x60 DUP3 ADD SWAP1 POP PUSH2 0x4587 PUSH1 0x0 DUP4 ADD DUP7 PUSH2 0x34BE JUMP JUMPDEST PUSH2 0x4594 PUSH1 0x20 DUP4 ADD DUP6 PUSH2 0x3406 JUMP JUMPDEST PUSH2 0x45A1 PUSH1 0x40 DUP4 ADD DUP5 PUSH2 0x3406 JUMP JUMPDEST SWAP5 SWAP4 POP POP POP POP JUMP JUMPDEST PUSH1 0x0 PUSH2 0x45B4 DUP3 PUSH2 0x33A3 JUMP JUMPDEST SWAP2 POP PUSH32 0xFFFFFFFFFFFFFFFFFFFFFFFFFFFFFFFFFFFFFFFFFFFFFFFFFFFFFFFFFFFFFFFF DUP3 SUB PUSH2 0x45E6 JUMPI PUSH2 0x45E5 PUSH2 0x3C88 JUMP JUMPDEST JUMPDEST PUSH1 0x1 DUP3 ADD SWAP1 POP SWAP2 SWAP1 POP JUMP JUMPDEST PUSH1 0x0 DUP2 SWAP1 POP DUP2 PUSH1 0x0 MSTORE PUSH1 0x20 PUSH1 0x0 KECCAK256 SWAP1 POP SWAP2 SWAP1 POP JUMP JUMPDEST PUSH1 0x0 PUSH1 0x20 PUSH1 0x1F DUP4 ADD DIV SWAP1 POP SWAP2 SWAP1 POP JUMP JUMPDEST PUSH1 0x0 DUP3 DUP3 SHL SWAP1 POP SWAP3 SWAP2 POP POP JUMP JUMPDEST PUSH1 0x0 PUSH1 0x8 DUP4 MUL PUSH2 0x4653 PUSH32 0xFFFFFFFFFFFFFFFFFFFFFFFFFFFFFFFFFFFFFFFFFFFFFFFFFFFFFFFFFFFFFFFF DUP3 PUSH2 0x4616 JUMP JUMPDEST PUSH2 0x465D DUP7 DUP4 PUSH2 0x4616 JUMP JUMPDEST SWAP6 POP DUP1 NOT DUP5 AND SWAP4 POP DUP1 DUP7 AND DUP5 OR SWAP3 POP POP POP SWAP4 SWAP3 POP POP POP JUMP JUMPDEST PUSH1 0x0 PUSH2 0x4690 PUSH2 0x468B PUSH2 0x4686 DUP5 PUSH2 0x33A3 JUMP JUMPDEST PUSH2 0x3669 JUMP JUMPDEST PUSH2 0x33A3 JUMP JUMPDEST SWAP1 POP SWAP2 SWAP1 POP JUMP JUMPDEST PUSH1 0x0 DUP2 SWAP1 POP SWAP2 SWAP1 POP JUMP JUMPDEST PUSH2 0x46AA DUP4 PUSH2 0x4675 JUMP JUMPDEST PUSH2 0x46BE PUSH2 0x46B6 DUP3 PUSH2 0x4697 JUMP JUMPDEST DUP5 DUP5 SLOAD PUSH2 0x4623 JUMP JUMPDEST DUP3 SSTORE POP POP POP POP JUMP JUMPDEST PUSH1 0x0 SWAP1 JUMP JUMPDEST PUSH2 0x46D3 PUSH2 0x46C6 JUMP JUMPDEST PUSH2 0x46DE DUP2 DUP5 DUP5 PUSH2 0x46A1 JUMP JUMPDEST POP POP POP JUMP JUMPDEST JUMPDEST DUP2 DUP2 LT ISZERO PUSH2 0x4702 JUMPI PUSH2 0x46F7 PUSH1 0x0 DUP3 PUSH2 0x46CB JUMP JUMPDEST PUSH1 0x1 DUP2 ADD SWAP1 POP PUSH2 0x46E4 JUMP JUMPDEST POP POP JUMP JUMPDEST PUSH1 0x1F DUP3 GT ISZERO PUSH2 0x4747 JUMPI PUSH2 0x4718 DUP2 PUSH2 0x45F1 JUMP JUMPDEST PUSH2 0x4721 DUP5 PUSH2 0x4606 JUMP JUMPDEST DUP2 ADD PUSH1 0x20 DUP6 LT ISZERO PUSH2 0x4730 JUMPI DUP2 SWAP1 POP JUMPDEST PUSH2 0x4744 PUSH2 0x473C DUP6 PUSH2 0x4606 JUMP JUMPDEST DUP4 ADD DUP3 PUSH2 0x46E3 JUMP JUMPDEST POP POP JUMPDEST POP POP POP JUMP JUMPDEST PUSH1 0x0 DUP3 DUP3 SHR SWAP1 POP SWAP3 SWAP2 POP POP JUMP JUMPDEST PUSH1 0x0 PUSH2 0x476A PUSH1 0x0 NOT DUP5 PUSH1 0x8 MUL PUSH2 0x474C JUMP JUMPDEST NOT DUP1 DUP4 AND SWAP2 POP POP SWAP3 SWAP2 POP POP JUMP JUMPDEST PUSH1 0x0 PUSH2 0x4783 DUP4 DUP4 PUSH2 0x4759 JUMP JUMPDEST SWAP2 POP DUP3 PUSH1 0x2 MUL DUP3 OR SWAP1 POP SWAP3 SWAP2 POP POP JUMP JUMPDEST PUSH2 0x479C DUP3 PUSH2 0x34CD JUMP JUMPDEST PUSH8 0xFFFFFFFFFFFFFFFF DUP2 GT ISZERO PUSH2 0x47B5 JUMPI PUSH2 0x47B4 PUSH2 0x3735 JUMP JUMPDEST JUMPDEST PUSH2 0x47BF DUP3 SLOAD PUSH2 0x3DB1 JUMP JUMPDEST PUSH2 0x47CA DUP3 DUP3 DUP6 PUSH2 0x4706 JUMP JUMPDEST PUSH1 0x0 PUSH1 0x20 SWAP1 POP PUSH1 0x1F DUP4 GT PUSH1 0x1 DUP2 EQ PUSH2 0x47FD JUMPI PUSH1 0x0 DUP5 ISZERO PUSH2 0x47EB JUMPI DUP3 DUP8 ADD MLOAD SWAP1 POP JUMPDEST PUSH2 0x47F5 DUP6 DUP3 PUSH2 0x4777 JUMP JUMPDEST DUP7 SSTORE POP PUSH2 0x485D JUMP JUMPDEST PUSH1 0x1F NOT DUP5 AND PUSH2 0x480B DUP7 PUSH2 0x45F1 JUMP JUMPDEST PUSH1 0x0 JUMPDEST DUP3 DUP2 LT ISZERO PUSH2 0x4833 JUMPI DUP5 DUP10 ADD MLOAD DUP3 SSTORE PUSH1 0x1 DUP3 ADD SWAP2 POP PUSH1 0x20 DUP6 ADD SWAP5 POP PUSH1 0x20 DUP2 ADD SWAP1 POP PUSH2 0x480E JUMP JUMPDEST DUP7 DUP4 LT ISZERO PUSH2 0x4850 JUMPI DUP5 DUP10 ADD MLOAD PUSH2 0x484C PUSH1 0x1F DUP10 AND DUP3 PUSH2 0x4759 JUMP JUMPDEST DUP4 SSTORE POP JUMPDEST PUSH1 0x1 PUSH1 0x2 DUP9 MUL ADD DUP9 SSTORE POP POP POP JUMPDEST POP POP POP POP POP POP JUMP JUMPDEST PUSH32 0x56656E646F7220496C6567616C00000000000000000000000000000000000000 PUSH1 0x0 DUP3 ADD MSTORE POP JUMP JUMPDEST PUSH1 0x0 PUSH2 0x489B PUSH1 0xD DUP4 PUSH2 0x34D8 JUMP JUMPDEST SWAP2 POP PUSH2 0x48A6 DUP3 PUSH2 0x4865 JUMP JUMPDEST PUSH1 0x20 DUP3 ADD SWAP1 POP SWAP2 SWAP1 POP JUMP JUMPDEST PUSH1 0x0 PUSH1 0x20 DUP3 ADD SWAP1 POP DUP2 DUP2 SUB PUSH1 0x0 DUP4 ADD MSTORE PUSH2 0x48CA DUP2 PUSH2 0x488E JUMP JUMPDEST SWAP1 POP SWAP2 SWAP1 POP JUMP JUMPDEST PUSH32 0x44616E612047726F777468204B7572616E670000000000000000000000000000 PUSH1 0x0 DUP3 ADD MSTORE POP JUMP JUMPDEST PUSH1 0x0 PUSH2 0x4907 PUSH1 0x12 DUP4 PUSH2 0x34D8 JUMP JUMPDEST SWAP2 POP PUSH2 0x4912 DUP3 PUSH2 0x48D1 JUMP JUMPDEST PUSH1 0x20 DUP3 ADD SWAP1 POP SWAP2 SWAP1 POP JUMP JUMPDEST PUSH1 0x0 PUSH1 0x20 DUP3 ADD SWAP1 POP DUP2 DUP2 SUB PUSH1 0x0 DUP4 ADD MSTORE PUSH2 0x4936 DUP2 PUSH2 0x48FA JUMP JUMPDEST SWAP1 POP SWAP2 SWAP1 POP JUMP JUMPDEST PUSH32 0x42454C49204D4553494E00000000000000000000000000000000000000000000 PUSH1 0x0 DUP3 ADD MSTORE POP JUMP JUMPDEST PUSH1 0x0 PUSH2 0x4973 PUSH1 0xA DUP4 PUSH2 0x34D8 JUMP JUMPDEST SWAP2 POP PUSH2 0x497E DUP3 PUSH2 0x493D JUMP JUMPDEST PUSH1 0x20 DUP3 ADD SWAP1 POP SWAP2 SWAP1 POP JUMP JUMPDEST PUSH1 0x0 DUP2 SLOAD PUSH2 0x4996 DUP2 PUSH2 0x3DB1 JUMP JUMPDEST PUSH2 0x49A0 DUP2 DUP7 PUSH2 0x34D8 JUMP JUMPDEST SWAP5 POP PUSH1 0x1 DUP3 AND PUSH1 0x0 DUP2 EQ PUSH2 0x49BB JUMPI PUSH1 0x1 DUP2 EQ PUSH2 0x49D1 JUMPI PUSH2 0x4A04 JUMP JUMPDEST PUSH1 0xFF NOT DUP4 AND DUP7 MSTORE DUP2 ISZERO ISZERO PUSH1 0x20 MUL DUP7 ADD SWAP4 POP PUSH2 0x4A04 JUMP JUMPDEST PUSH2 0x49DA DUP6 PUSH2 0x45F1 JUMP JUMPDEST PUSH1 0x0 JUMPDEST DUP4 DUP2 LT ISZERO PUSH2 0x49FC JUMPI DUP2 SLOAD DUP2 DUP10 ADD MSTORE PUSH1 0x1 DUP3 ADD SWAP2 POP PUSH1 0x20 DUP2 ADD SWAP1 POP PUSH2 0x49DD JUMP JUMPDEST DUP1 DUP9 ADD SWAP6 POP POP POP JUMPDEST POP POP POP SWAP3 SWAP2 POP POP JUMP JUMPDEST PUSH1 0x0 PUSH1 0x80 DUP3 ADD SWAP1 POP DUP2 DUP2 SUB PUSH1 0x0 DUP4 ADD MSTORE PUSH2 0x4A26 DUP2 PUSH2 0x4966 JUMP JUMPDEST SWAP1 POP PUSH2 0x4A35 PUSH1 0x20 DUP4 ADD DUP7 PUSH2 0x34BE JUMP JUMPDEST PUSH2 0x4A42 PUSH1 0x40 DUP4 ADD DUP6 PUSH2 0x3406 JUMP JUMPDEST DUP2 DUP2 SUB PUSH1 0x60 DUP4 ADD MSTORE PUSH2 0x4A54 DUP2 DUP5 PUSH2 0x4989 JUMP JUMPDEST SWAP1 POP SWAP5 SWAP4 POP POP POP POP JUMP JUMPDEST PUSH32 0x42454C4920424148414E00000000000000000000000000000000000000000000 PUSH1 0x0 DUP3 ADD MSTORE POP JUMP JUMPDEST PUSH1 0x0 PUSH2 0x4A94 PUSH1 0xA DUP4 PUSH2 0x34D8 JUMP JUMPDEST SWAP2 POP PUSH2 0x4A9F DUP3 PUSH2 0x4A5E JUMP JUMPDEST PUSH1 0x20 DUP3 ADD SWAP1 POP SWAP2 SWAP1 POP JUMP JUMPDEST PUSH1 0x0 PUSH1 0x80 DUP3 ADD SWAP1 POP DUP2 DUP2 SUB PUSH1 0x0 DUP4 ADD MSTORE PUSH2 0x4AC3 DUP2 PUSH2 0x4A87 JUMP JUMPDEST SWAP1 POP PUSH2 0x4AD2 PUSH1 0x20 DUP4 ADD DUP7 PUSH2 0x34BE JUMP JUMPDEST PUSH2 0x4ADF PUSH1 0x40 DUP4 ADD DUP6 PUSH2 0x3406 JUMP JUMPDEST DUP2 DUP2 SUB PUSH1 0x60 DUP4 ADD MSTORE PUSH2 0x4AF1 DUP2 DUP5 PUSH2 0x4989 JUMP JUMPDEST SWAP1 POP SWAP5 SWAP4 POP POP POP POP JUMP JUMPDEST PUSH1 0x0 PUSH1 0x40 DUP3 ADD SWAP1 POP PUSH2 0x4B10 PUSH1 0x0 DUP4 ADD DUP6 PUSH2 0x3406 JUMP JUMPDEST PUSH2 0x4B1D PUSH1 0x20 DUP4 ADD DUP5 PUSH2 0x3569 JUMP JUMPDEST SWAP4 SWAP3 POP POP POP JUMP JUMPDEST PUSH32 0x4D61782057616C6C6574204C696D697420343025000000000000000000000000 PUSH1 0x0 DUP3 ADD MSTORE POP JUMP JUMPDEST PUSH1 0x0 PUSH2 0x4B5A PUSH1 0x14 DUP4 PUSH2 0x34D8 JUMP JUMPDEST SWAP2 POP PUSH2 0x4B65 DUP3 PUSH2 0x4B24 JUMP JUMPDEST PUSH1 0x20 DUP3 ADD SWAP1 POP SWAP2 SWAP1 POP JUMP JUMPDEST PUSH1 0x0 PUSH1 0x20 DUP3 ADD SWAP1 POP DUP2 DUP2 SUB PUSH1 0x0 DUP4 ADD MSTORE PUSH2 0x4B89 DUP2 PUSH2 0x4B4D JUMP JUMPDEST SWAP1 POP SWAP2 SWAP1 POP JUMP JUMPDEST PUSH32 0x4B6173204B6F736F6E6700000000000000000000000000000000000000000000 PUSH1 0x0 DUP3 ADD MSTORE POP JUMP JUMPDEST PUSH1 0x0 PUSH2 0x4BC6 PUSH1 0xA DUP4 PUSH2 0x34D8 JUMP JUMPDEST SWAP2 POP PUSH2 0x4BD1 DUP3 PUSH2 0x4B90 JUMP JUMPDEST PUSH1 0x20 DUP3 ADD SWAP1 POP SWAP2 SWAP1 POP JUMP JUMPDEST PUSH1 0x0 PUSH1 0x20 DUP3 ADD SWAP1 POP DUP2 DUP2 SUB PUSH1 0x0 DUP4 ADD MSTORE PUSH2 0x4BF5 DUP2 PUSH2 0x4BB9 JUMP JUMPDEST SWAP1 POP SWAP2 SWAP1 POP JUMP JUMPDEST PUSH32 0x4D6F64616C2047726F7774682046756E64204861626973210000000000000000 PUSH1 0x0 DUP3 ADD MSTORE POP JUMP JUMPDEST PUSH1 0x0 PUSH2 0x4C32 PUSH1 0x18 DUP4 PUSH2 0x34D8 JUMP JUMPDEST SWAP2 POP PUSH2 0x4C3D DUP3 PUSH2 0x4BFC JUMP JUMPDEST PUSH1 0x20 DUP3 ADD SWAP1 POP SWAP2 SWAP1 POP JUMP JUMPDEST PUSH1 0x0 PUSH1 0x20 DUP3 ADD SWAP1 POP DUP2 DUP2 SUB PUSH1 0x0 DUP4 ADD MSTORE PUSH2 0x4C61 DUP2 PUSH2 0x4C25 JUMP JUMPDEST SWAP1 POP SWAP2 SWAP1 POP JUMP JUMPDEST PUSH1 0x0 PUSH1 0x60 DUP3 ADD SWAP1 POP PUSH2 0x4C7D PUSH1 0x0 DUP4 ADD DUP7 PUSH2 0x3406 JUMP JUMPDEST DUP2 DUP2 SUB PUSH1 0x20 DUP4 ADD MSTORE PUSH2 0x4C8F DUP2 DUP6 PUSH2 0x3524 JUMP JUMPDEST SWAP1 POP DUP2 DUP2 SUB PUSH1 0x40 DUP4 ADD MSTORE PUSH2 0x4CA3 DUP2 DUP5 PUSH2 0x3524 JUMP JUMPDEST SWAP1 POP SWAP5 SWAP4 POP POP POP POP JUMP INVALID LOG2 PUSH5 0x6970667358 0x22 SLT KECCAK256 RJUMP 0x2414 ORIGIN 0xC6 PUSH7 0x6BCA42DDCFE619 DUP16 DUP11 BALANCE 0xCF PUSH31 0x90D1632E49DBE267C01C598A52464736F6C634300081E0033000000000000 "
				},
				"gasEstimates": {
					"creation": {
						"codeDepositCost": "3936600",
						"executionCost": "infinite",
						"totalCost": "infinite"
					},
					"external": {
						"DIVIDEND_RATE()": "374",
						"MAX_WALLET_PERCENT()": "419",
						"REINVEST_RATE()": "463",
						"addMachine(string)": "infinite",
						"assetToken()": "infinite",
						"buyCoffee(uint256)": "infinite",
						"buyShares(uint256)": "infinite",
						"claimDividends()": "infinite",
						"coffeePrice()": "2497",
						"cogsPerCup()": "2518",
						"getAvailableShares()": "infinite",
						"getOperationalReserve()": "infinite",
						"getWithdrawableDividend(address)": "infinite",
						"growthFund()": "2496",
						"isWhitelisted(address)": "2913",
						"lastPaid(address)": "2925",
						"machineCount()": "2519",
						"machines(uint256)": "infinite",
						"magnifiedDividendCorrections(address)": "2859",
						"magnifiedDividendPerShare()": "2475",
						"owner()": "2626",
						"payDailySalary(address)": "infinite",
						"paymentToken()": "infinite",
						"proposalCount()": "2473",
						"proposals(uint256)": "infinite",
						"proposeAddVendor(address,string)": "infinite",
						"proposeBuyMachine(address,uint256,string)": "infinite",
						"proposeBuyStock(address,uint256,string)": "infinite",
						"proposeUpdateSalary(address,uint256,string)": "infinite",
						"setCoffeePrice(uint256)": "24822",
						"sharePrice()": "2519",
						"staffSalaries(address)": "2924",
						"totalDividendsClaimed()": "2496",
						"totalDividendsDistributed()": "2497",
						"totalRevenue()": "2496",
						"transferSaham(address,uint256)": "infinite",
						"vote(uint256)": "infinite",
						"withdrawnDividends(address)": "2880"
					},
					"internal": {
						"_checkMaxWallet(address,uint256)": "infinite",
						"_createProposal(enum VendingMachineDAO.ProposalType,address,uint256,string memory)": "infinite",
						"_executeLogic(struct VendingMachineDAO.Proposal storage pointer)": "infinite",
						"_processPaymentSmart(address,uint256)": "infinite"
					}
				},
				"methodIdentifiers": {
					"DIVIDEND_RATE()": "b4b4b55e",
					"MAX_WALLET_PERCENT()": "2620b4ee",
					"REINVEST_RATE()": "51ce612c",
					"addMachine(string)": "d8e0f826",
					"assetToken()": "1083f761",
					"buyCoffee(uint256)": "b03b4a29",
					"buyShares(uint256)": "d1a93d18",
					"claimDividends()": "668038e0",
					"coffeePrice()": "1c8a4038",
					"cogsPerCup()": "c870b910",
					"getAvailableShares()": "817bc0cb",
					"getOperationalReserve()": "77056d0f",
					"getWithdrawableDividend(address)": "a4138b9b",
					"growthFund()": "5c3640ec",
					"isWhitelisted(address)": "3af32abf",
					"lastPaid(address)": "ad9adcdc",
					"machineCount()": "41260365",
					"machines(uint256)": "4d42845c",
					"magnifiedDividendCorrections(address)": "97a06724",
					"magnifiedDividendPerShare()": "3a7960e0",
					"owner()": "8da5cb5b",
					"payDailySalary(address)": "16c70448",
					"paymentToken()": "3013ce29",
					"proposalCount()": "da35c664",
					"proposals(uint256)": "013cf08b",
					"proposeAddVendor(address,string)": "e70b7424",
					"proposeBuyMachine(address,uint256,string)": "33c5e003",
					"proposeBuyStock(address,uint256,string)": "56544490",
					"proposeUpdateSalary(address,uint256,string)": "679b9144",
					"setCoffeePrice(uint256)": "f847dff7",
					"sharePrice()": "87269729",
					"staffSalaries(address)": "eecace28",
					"totalDividendsClaimed()": "9f13464e",
					"totalDividendsDistributed()": "85a6b3ae",
					"totalRevenue()": "bf2d9e0b",
					"transferSaham(address,uint256)": "0eb94a67",
					"vote(uint256)": "0121b93f",
					"withdrawnDividends(address)": "de3aaf61"
				}
			},
			"storageLayout": {
				"storage": [
					{
						"astId": 37,
						"contract": "VendingMachine.sol:VendingMachineDAO",
						"label": "paymentToken",
						"offset": 0,
						"slot": "0",
						"type": "t_contract(IERC20)34"
					},
					{
						"astId": 40,
						"contract": "VendingMachine.sol:VendingMachineDAO",
						"label": "assetToken",
						"offset": 0,
						"slot": "1",
						"type": "t_contract(IERC20)34"
					},
					{
						"astId": 42,
						"contract": "VendingMachine.sol:VendingMachineDAO",
						"label": "owner",
						"offset": 0,
						"slot": "2",
						"type": "t_address"
					},
					{
						"astId": 49,
						"contract": "VendingMachine.sol:VendingMachineDAO",
						"label": "coffeePrice",
						"offset": 0,
						"slot": "3",
						"type": "t_uint256"
					},
					{
						"astId": 56,
						"contract": "VendingMachine.sol:VendingMachineDAO",
						"label": "cogsPerCup",
						"offset": 0,
						"slot": "4",
						"type": "t_uint256"
					},
					{
						"astId": 58,
						"contract": "VendingMachine.sol:VendingMachineDAO",
						"label": "totalRevenue",
						"offset": 0,
						"slot": "5",
						"type": "t_uint256"
					},
					{
						"astId": 60,
						"contract": "VendingMachine.sol:VendingMachineDAO",
						"label": "growthFund",
						"offset": 0,
						"slot": "6",
						"type": "t_uint256"
					},
					{
						"astId": 62,
						"contract": "VendingMachine.sol:VendingMachineDAO",
						"label": "totalDividendsDistributed",
						"offset": 0,
						"slot": "7",
						"type": "t_uint256"
					},
					{
						"astId": 64,
						"contract": "VendingMachine.sol:VendingMachineDAO",
						"label": "totalDividendsClaimed",
						"offset": 0,
						"slot": "8",
						"type": "t_uint256"
					},
					{
						"astId": 80,
						"contract": "VendingMachine.sol:VendingMachineDAO",
						"label": "magnifiedDividendPerShare",
						"offset": 0,
						"slot": "9",
						"type": "t_uint256"
					},
					{
						"astId": 84,
						"contract": "VendingMachine.sol:VendingMachineDAO",
						"label": "magnifiedDividendCorrections",
						"offset": 0,
						"slot": "10",
						"type": "t_mapping(t_address,t_int256)"
					},
					{
						"astId": 88,
						"contract": "VendingMachine.sol:VendingMachineDAO",
						"label": "withdrawnDividends",
						"offset": 0,
						"slot": "11",
						"type": "t_mapping(t_address,t_uint256)"
					},
					{
						"astId": 95,
						"contract": "VendingMachine.sol:VendingMachineDAO",
						"label": "sharePrice",
						"offset": 0,
						"slot": "12",
						"type": "t_uint256"
					},
					{
						"astId": 99,
						"contract": "VendingMachine.sol:VendingMachineDAO",
						"label": "staffSalaries",
						"offset": 0,
						"slot": "13",
						"type": "t_mapping(t_address,t_uint256)"
					},
					{
						"astId": 103,
						"contract": "VendingMachine.sol:VendingMachineDAO",
						"label": "lastPaid",
						"offset": 0,
						"slot": "14",
						"type": "t_mapping(t_address,t_uint256)"
					},
					{
						"astId": 117,
						"contract": "VendingMachine.sol:VendingMachineDAO",
						"label": "machines",
						"offset": 0,
						"slot": "15",
						"type": "t_mapping(t_uint256,t_struct(Machine)112_storage)"
					},
					{
						"astId": 119,
						"contract": "VendingMachine.sol:VendingMachineDAO",
						"label": "machineCount",
						"offset": 0,
						"slot": "16",
						"type": "t_uint256"
					},
					{
						"astId": 123,
						"contract": "VendingMachine.sol:VendingMachineDAO",
						"label": "isWhitelisted",
						"offset": 0,
						"slot": "17",
						"type": "t_mapping(t_address,t_bool)"
					},
					{
						"astId": 155,
						"contract": "VendingMachine.sol:VendingMachineDAO",
						"label": "proposals",
						"offset": 0,
						"slot": "18",
						"type": "t_mapping(t_uint256,t_struct(Proposal)150_storage)"
					},
					{
						"astId": 157,
						"contract": "VendingMachine.sol:VendingMachineDAO",
						"label": "proposalCount",
						"offset": 0,
						"slot": "19",
						"type": "t_uint256"
					},
					{
						"astId": 227,
						"contract": "VendingMachine.sol:VendingMachineDAO",
						"label": "locked",
						"offset": 0,
						"slot": "20",
						"type": "t_bool"
					}
				],
				"types": {
					"t_address": {
						"encoding": "inplace",
						"label": "address",
						"numberOfBytes": "20"
					},
					"t_bool": {
						"encoding": "inplace",
						"label": "bool",
						"numberOfBytes": "1"
					},
					"t_contract(IERC20)34": {
						"encoding": "inplace",
						"label": "contract IERC20",
						"numberOfBytes": "20"
					},
					"t_enum(ProposalType)128": {
						"encoding": "inplace",
						"label": "enum VendingMachineDAO.ProposalType",
						"numberOfBytes": "1"
					},
					"t_int256": {
						"encoding": "inplace",
						"label": "int256",
						"numberOfBytes": "32"
					},
					"t_mapping(t_address,t_bool)": {
						"encoding": "mapping",
						"key": "t_address",
						"label": "mapping(address => bool)",
						"numberOfBytes": "32",
						"value": "t_bool"
					},
					"t_mapping(t_address,t_int256)": {
						"encoding": "mapping",
						"key": "t_address",
						"label": "mapping(address => int256)",
						"numberOfBytes": "32",
						"value": "t_int256"
					},
					"t_mapping(t_address,t_uint256)": {
						"encoding": "mapping",
						"key": "t_address",
						"label": "mapping(address => uint256)",
						"numberOfBytes": "32",
						"value": "t_uint256"
					},
					"t_mapping(t_uint256,t_struct(Machine)112_storage)": {
						"encoding": "mapping",
						"key": "t_uint256",
						"label": "mapping(uint256 => struct VendingMachineDAO.Machine)",
						"numberOfBytes": "32",
						"value": "t_struct(Machine)112_storage"
					},
					"t_mapping(t_uint256,t_struct(Proposal)150_storage)": {
						"encoding": "mapping",
						"key": "t_uint256",
						"label": "mapping(uint256 => struct VendingMachineDAO.Proposal)",
						"numberOfBytes": "32",
						"value": "t_struct(Proposal)150_storage"
					},
					"t_string_storage": {
						"encoding": "bytes",
						"label": "string",
						"numberOfBytes": "32"
					},
					"t_struct(Machine)112_storage": {
						"encoding": "inplace",
						"label": "struct VendingMachineDAO.Machine",
						"members": [
							{
								"astId": 105,
								"contract": "VendingMachine.sol:VendingMachineDAO",
								"label": "id",
								"offset": 0,
								"slot": "0",
								"type": "t_uint256"
							},
							{
								"astId": 107,
								"contract": "VendingMachine.sol:VendingMachineDAO",
								"label": "location",
								"offset": 0,
								"slot": "1",
								"type": "t_string_storage"
							},
							{
								"astId": 109,
								"contract": "VendingMachine.sol:VendingMachineDAO",
								"label": "isActive",
								"offset": 0,
								"slot": "2",
								"type": "t_bool"
							},
							{
								"astId": 111,
								"contract": "VendingMachine.sol:VendingMachineDAO",
								"label": "totalSales",
								"offset": 0,
								"slot": "3",
								"type": "t_uint256"
							}
						],
						"numberOfBytes": "128"
					},
					"t_struct(Proposal)150_storage": {
						"encoding": "inplace",
						"label": "struct VendingMachineDAO.Proposal",
						"members": [
							{
								"astId": 130,
								"contract": "VendingMachine.sol:VendingMachineDAO",
								"label": "id",
								"offset": 0,
								"slot": "0",
								"type": "t_uint256"
							},
							{
								"astId": 133,
								"contract": "VendingMachine.sol:VendingMachineDAO",
								"label": "pType",
								"offset": 0,
								"slot": "1",
								"type": "t_enum(ProposalType)128"
							},
							{
								"astId": 135,
								"contract": "VendingMachine.sol:VendingMachineDAO",
								"label": "target",
								"offset": 1,
								"slot": "1",
								"type": "t_address"
							},
							{
								"astId": 137,
								"contract": "VendingMachine.sol:VendingMachineDAO",
								"label": "amount",
								"offset": 0,
								"slot": "2",
								"type": "t_uint256"
							},
							{
								"astId": 139,
								"contract": "VendingMachine.sol:VendingMachineDAO",
								"label": "description",
								"offset": 0,
								"slot": "3",
								"type": "t_string_storage"
							},
							{
								"astId": 141,
								"contract": "VendingMachine.sol:VendingMachineDAO",
								"label": "voteCount",
								"offset": 0,
								"slot": "4",
								"type": "t_uint256"
							},
							{
								"astId": 143,
								"contract": "VendingMachine.sol:VendingMachineDAO",
								"label": "executed",
								"offset": 0,
								"slot": "5",
								"type": "t_bool"
							},
							{
								"astId": 145,
								"contract": "VendingMachine.sol:VendingMachineDAO",
								"label": "endTime",
								"offset": 0,
								"slot": "6",
								"type": "t_uint256"
							},
							{
								"astId": 149,
								"contract": "VendingMachine.sol:VendingMachineDAO",
								"label": "hasVoted",
								"offset": 0,
								"slot": "7",
								"type": "t_mapping(t_address,t_bool)"
							}
						],
						"numberOfBytes": "256"
					},
					"t_uint256": {
						"encoding": "inplace",
						"label": "uint256",
						"numberOfBytes": "32"
					}
				}
			},
			"userdoc": {
				"kind": "user",
				"methods": {},
				"version": 1
			}
		}
	}
}