{
	"data": {
		"bytecode": {
			"linkReferences": {},
			"object": "608060405269032d26d12e980b60000060035569010f0cf064dd59200000600455683635c9adc5dea00000600c5534801561003957600080fd5b50604051614f62380380614f62833981810160405281019061005b919061021d565b826000806101000a81548173ffffffffffffffffffffffffffffffffffffffff021916908373ffffffffffffffffffffffffffffffffffffffff16021790555081600160006101000a81548173ffffffffffffffffffffffffffffffffffffffff021916908373ffffffffffffffffffffffffffffffffffffffff1602179055508060038190555033600260006101000a81548173ffffffffffffffffffffffffffffffffffffffff021916908373ffffffffffffffffffffffffffffffffffffffff1602179055506001601160003373ffffffffffffffffffffffffffffffffffffffff1673ffffffffffffffffffffffffffffffffffffffff16815260200190815260200160002060006101000a81548160ff021916908315150217905550505050610270565b600080fd5b600073ffffffffffffffffffffffffffffffffffffffff82169050919050565b60006101b482610189565b9050919050565b6101c4816101a9565b81146101cf57600080fd5b50565b6000815190506101e1816101bb565b92915050565b6000819050919050565b6101fa816101e7565b811461020557600080fd5b50565b600081519050610217816101f1565b92915050565b60008060006060848603121561023657610235610184565b5b6000610244868287016101d2565b9350506020610255868287016101d2565b925050604061026686828701610208565b9150509250925092565b614ce38061027f6000396000f3fe608060405234801561001057600080fd5b50600436106102325760003560e01c8063817bc0cb11610130578063b4b4b55e116100b8578063da35c6641161007c578063da35c66414610665578063de3aaf6114610683578063e70b7424146106b3578063eecace28146106cf578063f847dff7146106ff57610232565b8063b4b4b55e146105d3578063bf2d9e0b146105f1578063c870b9101461060f578063d1a93d181461062d578063d8e0f8261461064957610232565b806397a06724116100ff57806397a06724146105095780639f13464e14610539578063a4138b9b14610557578063ad9adcdc14610587578063b03b4a29146105b757610232565b8063817bc0cb1461049157806385a6b3ae146104af57806387269729146104cd5780638da5cb5b146104eb57610232565b80633a7960e0116101be578063565444901161018257806356544490146104135780635c3640ec1461042f578063668038e01461044d578063679b91441461045757806377056d0f1461047357610232565b80633a7960e0146103565780633af32abf1461037457806341260365146103a45780634d42845c146103c257806351ce612c146103f557610232565b806316c704481161020557806316c70448146102c45780631c8a4038146102e05780632620b4ee146102fe5780633013ce291461031c57806333c5e0031461033a57610232565b80630121b93f14610237578063013cf08b146102535780630eb94a671461028a5780631083f761146102a6575b600080fd5b610251600480360381019061024c91906133d9565b61071b565b005b61026d600480360381019061026891906133d9565b610b29565b604051610281989796959493929190613578565b60405180910390f35b6102a4600480360381019061029f9190613629565b610c33565b005b6102ae610ea2565b6040516102bb91906136c8565b60405180910390f35b6102de60048036038101906102d991906136e3565b610ec8565b005b6102e8611180565b6040516102f59190613710565b60405180910390f35b610306611186565b6040516103139190613710565b60405180910390f35b61032461118b565b60405161033191906136c8565b60405180910390f35b610354600480360381019061034f9190613860565b6111af565b005b61035e611251565b60405161036b9190613710565b60405180910390f35b61038e600480360381019061038991906136e3565b611257565b60405161039b91906138cf565b60405180910390f35b6103ac611277565b6040516103b99190613710565b60405180910390f35b6103dc60048036038101906103d791906133d9565b61127d565b6040516103ec94939291906138ea565b60405180910390f35b6103fd611342565b60405161040a9190613710565b60405180910390f35b61042d60048036038101906104289190613860565b611347565b005b6104376113e9565b6040516104449190613710565b60405180910390f35b6104556113ef565b005b610471600480360381019061046c9190613860565b61164d565b005b61047b6116ef565b6040516104889190613710565b60405180910390f35b6104996117dd565b6040516104a69190613710565b60405180910390f35b6104b76118a2565b6040516104c49190613710565b60405180910390f35b6104d56118a8565b6040516104e29190613710565b60405180910390f35b6104f36118ae565b6040516105009190613936565b60405180910390f35b610523600480360381019061051e91906136e3565b6118d4565b604051610530919061396a565b60405180910390f35b6105416118ec565b60405161054e9190613710565b60405180910390f35b610571600480360381019061056c91906136e3565b6118f2565b60405161057e9190613710565b60405180910390f35b6105a1600480360381019061059c91906136e3565b611a99565b6040516105ae9190613710565b60405180910390f35b6105d160048036038101906105cc91906133d9565b611ab1565b005b6105db611f3d565b6040516105e89190613710565b60405180910390f35b6105f9611f42565b6040516106069190613710565b60405180910390f35b610617611f48565b6040516106249190613710565b60405180910390f35b610647600480360381019061064291906133d9565b611f4e565b005b610663600480360381019061065e9190613985565b6123a6565b005b61066d6124da565b60405161067a9190613710565b60405180910390f35b61069d600480360381019061069891906136e3565b6124e0565b6040516106aa9190613710565b60405180910390f35b6106cd60048036038101906106c891906139ce565b6124f8565b005b6106e960048036038101906106e491906136e3565b61259a565b6040516106f69190613710565b60405180910390f35b610719600480360381019061071491906133d9565b6125b2565b005b601460009054906101000a900460ff161561076b576040517f08c379a000000000000000000000000000000000000000000000000000000000815260040161076290613a76565b60405180910390fd5b6001601460006101000a81548160ff0219169083151502179055506000601260008381526020019081526020016000209050806006015442106107e3576040517f08c379a00000000000000000000000000000000000000000000000000000000081526004016107da90613ae2565b60405180910390fd5b8060070160003373ffffffffffffffffffffffffffffffffffffffff1673ffffffffffffffffffffffffffffffffffffffff16815260200190815260200160002060009054906101000a900460ff1615610872576040517f08c379a000000000000000000000000000000000000000000000000000000000815260040161086990613b4e565b60405180910390fd5b8060050160009054906101000a900460ff16156108c4576040517f08c379a00000000000000000000000000000000000000000000000000000000081526004016108bb90613bba565b60405180910390fd5b6000600160009054906101000a900473ffffffffffffffffffffffffffffffffffffffff1673ffffffffffffffffffffffffffffffffffffffff166370a08231336040518263ffffffff1660e01b81526004016109219190613936565b602060405180830381865afa15801561093e573d6000803e3d6000fd5b505050506040513d601f19601f820116820180604052508101906109629190613bef565b9050600081116109a7576040517f08c379a000000000000000000000000000000000000000000000000000000000815260040161099e90613c68565b60405180910390fd5b60018260070160003373ffffffffffffffffffffffffffffffffffffffff1673ffffffffffffffffffffffffffffffffffffffff16815260200190815260200160002060006101000a81548160ff02191690831515021790555080826004016000828254610a159190613cb7565b925050819055507f1abe610cf2bf87e57dcc1181fcf5ac0934e843d8344ab9eed6e86c799f62585e833383604051610a4f93929190613ceb565b60405180910390a16002600160009054906101000a900473ffffffffffffffffffffffffffffffffffffffff1673ffffffffffffffffffffffffffffffffffffffff166318160ddd6040518163ffffffff1660e01b8152600401602060405180830381865afa158015610ac6573d6000803e3d6000fd5b505050506040513d601f19601f82011682018060405250810190610aea9190613bef565b610af49190613d51565b82600401541115610b0957610b088261264c565b5b50506000601460006101000a81548160ff02191690831515021790555050565b60126020528060005260406000206000915090508060000154908060010160009054906101000a900460ff16908060010160019054906101000a900473ffffffffffffffffffffffffffffffffffffffff1690806002015490806003018054610b9190613db1565b80601f0160208091040260200160405190810160405280929190818152602001828054610bbd90613db1565b8015610c0a5780601f10610bdf57610100808354040283529160200191610c0a565b820191906000526020600020905b815481529060010190602001808311610bed57829003601f168201915b5050505050908060040154908060050160009054906101000a900460ff16908060060154905088565b601460009054906101000a900460ff1615610c83576040517f08c379a0000000000000000000000000000000000000000000000000000000008152600401610c7a90613a76565b60405180910390fd5b6001601460006101000a81548160ff021916908315150217905550610ca88282612d15565b600160009054906101000a900473ffffffffffffffffffffffffffffffffffffffff1673ffffffffffffffffffffffffffffffffffffffff166323b872dd3384846040518463ffffffff1660e01b8152600401610d0793929190613de2565b6020604051808303816000875af1158015610d26573d6000803e3d6000fd5b505050506040513d601f19601f82011682018060405250810190610d4a9190613e45565b610d89576040517f08c379a0000000000000000000000000000000000000000000000000000000008152600401610d8090613ebe565b60405180910390fd5b600081600954610d999190613ede565b905080600a60003373ffffffffffffffffffffffffffffffffffffffff1673ffffffffffffffffffffffffffffffffffffffff1681526020019081526020016000206000828254610dea9190613f20565b9250508190555080600a60008573ffffffffffffffffffffffffffffffffffffffff1673ffffffffffffffffffffffffffffffffffffffff1681526020019081526020016000206000828254610e409190613f64565b925050819055507f4f0f23d5d7f61e149d909d8f3eb8aa374832781e8fcb19751354b30223807374338484604051610e7a93929190613de2565b60405180910390a1506000601460006101000a81548160ff0219169083151502179055505050565b600160009054906101000a900473ffffffffffffffffffffffffffffffffffffffff1681565b600260009054906101000a900473ffffffffffffffffffffffffffffffffffffffff1673ffffffffffffffffffffffffffffffffffffffff163373ffffffffffffffffffffffffffffffffffffffff1614610f58576040517f08c379a0000000000000000000000000000000000000000000000000000000008152600401610f4f90613ff3565b60405180910390fd5b601460009054906101000a900460ff1615610fa8576040517f08c379a0000000000000000000000000000000000000000000000000000000008152600401610f9f90613a76565b60405180910390fd5b6001601460006101000a81548160ff0219169083151502179055506000600d60008373ffffffffffffffffffffffffffffffffffffffff1673ffffffffffffffffffffffffffffffffffffffff1681526020019081526020016000205490506000811161104a576040517f08c379a000000000000000000000000000000000000000000000000000000000815260040161104190614085565b60405180910390fd5b62015180600e60008473ffffffffffffffffffffffffffffffffffffffff1673ffffffffffffffffffffffffffffffffffffffff168152602001908152602001600020546110989190613cb7565b4210156110da576040517f08c379a00000000000000000000000000000000000000000000000000000000081526004016110d1906140f1565b60405180910390fd5b42600e60008473ffffffffffffffffffffffffffffffffffffffff1673ffffffffffffffffffffffffffffffffffffffff168152602001908152602001600020819055506111288282612ebc565b7ffea36c567a41c73fb142ae411f08565859d2842b21caf06283e31ef06079b36a82826040516111599291906141a9565b60405180910390a1506000601460006101000a81548160ff02191690831515021790555050565b60035481565b602881565b60008054906101000a900473ffffffffffffffffffffffffffffffffffffffff1681565b600260009054906101000a900473ffffffffffffffffffffffffffffffffffffffff1673ffffffffffffffffffffffffffffffffffffffff163373ffffffffffffffffffffffffffffffffffffffff161461123f576040517f08c379a000000000000000000000000000000000000000000000000000000000815260040161123690613ff3565b60405180910390fd5b61124c60008484846130fc565b505050565b60095481565b60116020528060005260406000206000915054906101000a900460ff1681565b60105481565b600f6020528060005260406000206000915090508060000154908060010180546112a690613db1565b80601f01602080910402602001604051908101604052809291908181526020018280546112d290613db1565b801561131f5780601f106112f45761010080835404028352916020019161131f565b820191906000526020600020905b81548152906001019060200180831161130257829003601f168201915b5050505050908060020160009054906101000a900460ff16908060030154905084565b601481565b600260009054906101000a900473ffffffffffffffffffffffffffffffffffffffff1673ffffffffffffffffffffffffffffffffffffffff163373ffffffffffffffffffffffffffffffffffffffff16146113d7576040517f08c379a00000000000000000000000000000000000000000000000000000000081526004016113ce90613ff3565b60405180910390fd5b6113e460018484846130fc565b505050565b60065481565b601460009054906101000a900460ff161561143f576040517f08c379a000000000000000000000000000000000000000000000000000000000815260040161143690613a76565b60405180910390fd5b6001601460006101000a81548160ff0219169083151502179055506000611465336118f2565b9050600081116114aa576040517f08c379a00000000000000000000000000000000000000000000000000000000081526004016114a190614244565b60405180910390fd5b80600b60003373ffffffffffffffffffffffffffffffffffffffff1673ffffffffffffffffffffffffffffffffffffffff16815260200190815260200160002060008282546114f99190613cb7565b9250508190555080600860008282546115129190613cb7565b9250508190555060008054906101000a900473ffffffffffffffffffffffffffffffffffffffff1673ffffffffffffffffffffffffffffffffffffffff1663a9059cbb33836040518363ffffffff1660e01b8152600401611574929190614264565b6020604051808303816000875af1158015611593573d6000803e3d6000fd5b505050506040513d601f19601f820116820180604052508101906115b79190613e45565b6115f6576040517f08c379a00000000000000000000000000000000000000000000000000000000081526004016115ed906142d9565b60405180910390fd5b7f5efa67896a23b651b741b525caacba039c00ca7853be3de8eb1f4269e8669c563382604051611627929190614264565b60405180910390a1506000601460006101000a81548160ff021916908315150217905550565b600260009054906101000a900473ffffffffffffffffffffffffffffffffffffffff1673ffffffffffffffffffffffffffffffffffffffff163373ffffffffffffffffffffffffffffffffffffffff16146116dd576040517f08c379a00000000000000000000000000000000000000000000000000000000081526004016116d490613ff3565b60405180910390fd5b6116ea60028484846130fc565b505050565b60008060008054906101000a900473ffffffffffffffffffffffffffffffffffffffff1673ffffffffffffffffffffffffffffffffffffffff166370a08231306040518263ffffffff1660e01b815260040161174b9190613936565b602060405180830381865afa158015611768573d6000803e3d6000fd5b505050506040513d601f19601f8201168201806040525081019061178c9190613bef565b905060006008546007546117a091906142f9565b90506000816006546117b29190613cb7565b9050808311156117d25780836117c891906142f9565b93505050506117da565b600093505050505b90565b6000600160009054906101000a900473ffffffffffffffffffffffffffffffffffffffff1673ffffffffffffffffffffffffffffffffffffffff166370a08231600160009054906101000a900473ffffffffffffffffffffffffffffffffffffffff166040518263ffffffff1660e01b815260040161185c9190613936565b602060405180830381865afa158015611879573d6000803e3d6000fd5b505050506040513d601f19601f8201168201806040525081019061189d9190613bef565b905090565b60075481565b600c5481565b600260009054906101000a900473ffffffffffffffffffffffffffffffffffffffff1681565b600a6020528060005260406000206000915090505481565b60085481565b600080600160009054906101000a900473ffffffffffffffffffffffffffffffffffffffff1673ffffffffffffffffffffffffffffffffffffffff166370a08231846040518263ffffffff1660e01b81526004016119509190613936565b602060405180830381865afa15801561196d573d6000803e3d6000fd5b505050506040513d601f19601f820116820180604052508101906119919190613bef565b9050600081036119a5576000915050611a94565b6000600954826119b59190613ede565b90506000600a60008673ffffffffffffffffffffffffffffffffffffffff1673ffffffffffffffffffffffffffffffffffffffff16815260200190815260200160002054905060007001000000000000000000000000000000008284611a1b9190613f20565b611a259190613d51565b90506000600b60008873ffffffffffffffffffffffffffffffffffffffff1673ffffffffffffffffffffffffffffffffffffffff168152602001908152602001600020549050808211611a8057600095505050505050611a94565b8082611a8c91906142f9565b955050505050505b919050565b600e6020528060005260406000206000915090505481565b601460009054906101000a900460ff1615611b01576040517f08c379a0000000000000000000000000000000000000000000000000000000008152600401611af890613a76565b60405180910390fd5b6001601460006101000a81548160ff021916908315150217905550600f600082815260200190815260200160002060020160009054906101000a900460ff16611b7f576040517f08c379a0000000000000000000000000000000000000000000000000000000008152600401611b7690614379565b60405180910390fd5b6000600354905060008054906101000a900473ffffffffffffffffffffffffffffffffffffffff1673ffffffffffffffffffffffffffffffffffffffff166323b872dd3330846040518463ffffffff1660e01b8152600401611be393929190613de2565b6020604051808303816000875af1158015611c02573d6000803e3d6000fd5b505050506040513d601f19601f82011682018060405250810190611c269190613e45565b611c65576040517f08c379a0000000000000000000000000000000000000000000000000000000008152600401611c5c906143e5565b60405180910390fd5b80600f60008481526020019081526020016000206003016000828254611c8b9190613cb7565b925050819055508060056000828254611ca49190613cb7565b925050819055506000600454821115611cc85760045482611cc591906142f9565b90505b6000811115611ee35760006064601483611ce29190613ede565b611cec9190613d51565b905060006064605084611cff9190613ede565b611d099190613d51565b90508160066000828254611d1d9190613cb7565b925050819055508060076000828254611d369190613cb7565b925050819055506000600160009054906101000a900473ffffffffffffffffffffffffffffffffffffffff1673ffffffffffffffffffffffffffffffffffffffff166318160ddd6040518163ffffffff1660e01b8152600401602060405180830381865afa158015611dac573d6000803e3d6000fd5b505050506040513d601f19601f82011682018060405250810190611dd09190613bef565b1115611ee057600160009054906101000a900473ffffffffffffffffffffffffffffffffffffffff1673ffffffffffffffffffffffffffffffffffffffff166318160ddd6040518163ffffffff1660e01b8152600401602060405180830381865afa158015611e43573d6000803e3d6000fd5b505050506040513d601f19601f82011682018060405250810190611e679190613bef565b70010000000000000000000000000000000082611e849190613ede565b611e8e9190613d51565b60096000828254611e9f9190613cb7565b925050819055507f5fa156a16c825edd8ad1c2bd96f4bc48d9844e12f14d69d8b4a9e72ffb62e8eb8183604051611ed7929190614405565b60405180910390a15b50505b827f33c78a468564bb55f4ad7bdd3e75b0c6b352a20d569a47f0cd10aba28dbddfb43384604051611f15929190614264565b60405180910390a250506000601460006101000a81548160ff02191690831515021790555050565b605081565b60055481565b60045481565b601460009054906101000a900460ff1615611f9e576040517f08c379a0000000000000000000000000000000000000000000000000000000008152600401611f9590613a76565b60405180910390fd5b6001601460006101000a81548160ff0219169083151502179055506000600160009054906101000a900473ffffffffffffffffffffffffffffffffffffffff1673ffffffffffffffffffffffffffffffffffffffff166370a08231600160009054906101000a900473ffffffffffffffffffffffffffffffffffffffff166040518263ffffffff1660e01b81526004016120389190613936565b602060405180830381865afa158015612055573d6000803e3d6000fd5b505050506040513d601f19601f820116820180604052508101906120799190613bef565b9050818110156120be576040517f08c379a00000000000000000000000000000000000000000000000000000000081526004016120b59061447a565b60405180910390fd5b6120c83383612d15565b6000670de0b6b3a7640000600c54846120e19190613ede565b6120eb9190613d51565b905060008054906101000a900473ffffffffffffffffffffffffffffffffffffffff1673ffffffffffffffffffffffffffffffffffffffff166323b872dd3330846040518463ffffffff1660e01b815260040161214a93929190613de2565b6020604051808303816000875af1158015612169573d6000803e3d6000fd5b505050506040513d601f19601f8201168201806040525081019061218d9190613e45565b6121cc576040517f08c379a00000000000000000000000000000000000000000000000000000000081526004016121c3906144e6565b60405180910390fd5b600160009054906101000a900473ffffffffffffffffffffffffffffffffffffffff1673ffffffffffffffffffffffffffffffffffffffff166323b872dd600160009054906101000a900473ffffffffffffffffffffffffffffffffffffffff1633866040518463ffffffff1660e01b815260040161224d93929190613de2565b6020604051808303816000875af115801561226c573d6000803e3d6000fd5b505050506040513d601f19601f820116820180604052508101906122909190613e45565b6122cf576040517f08c379a00000000000000000000000000000000000000000000000000000000081526004016122c690614552565b60405180910390fd5b80600660008282546122e19190613cb7565b92505081905550826009546122f69190613ede565b600a60003373ffffffffffffffffffffffffffffffffffffffff1673ffffffffffffffffffffffffffffffffffffffff16815260200190815260200160002060008282546123449190613f64565b925050819055507f630b54f21d1c5ae41c4633ad96e8c15ce15665365eded6a38476ffa71c8ace6c33848360405161237e93929190614572565b60405180910390a150506000601460006101000a81548160ff02191690831515021790555050565b600260009054906101000a900473ffffffffffffffffffffffffffffffffffffffff1673ffffffffffffffffffffffffffffffffffffffff163373ffffffffffffffffffffffffffffffffffffffff1614612436576040517f08c379a000000000000000000000000000000000000000000000000000000000815260040161242d90613ff3565b60405180910390fd5b60106000815480929190612449906145a9565b9190505550604051806080016040528060105481526020018281526020016001151581526020016000815250600f600060105481526020019081526020016000206000820151816000015560208201518160010190816124a99190614793565b5060408201518160020160006101000a81548160ff0219169083151502179055506060820151816003015590505050565b60135481565b600b6020528060005260406000206000915090505481565b600260009054906101000a900473ffffffffffffffffffffffffffffffffffffffff1673ffffffffffffffffffffffffffffffffffffffff163373ffffffffffffffffffffffffffffffffffffffff1614612588576040517f08c379a000000000000000000000000000000000000000000000000000000000815260040161257f90613ff3565b60405180910390fd5b6125966003836000846130fc565b5050565b600d6020528060005260406000206000915090505481565b600260009054906101000a900473ffffffffffffffffffffffffffffffffffffffff1673ffffffffffffffffffffffffffffffffffffffff163373ffffffffffffffffffffffffffffffffffffffff1614612642576040517f08c379a000000000000000000000000000000000000000000000000000000000815260040161263990613ff3565b60405180910390fd5b8060038190555050565b60018160050160006101000a81548160ff0219169083151502179055506000600381111561267d5761267c613415565b5b8160010160009054906101000a900460ff1660038111156126a1576126a0613415565b5b036128ee57601160008260010160019054906101000a900473ffffffffffffffffffffffffffffffffffffffff1673ffffffffffffffffffffffffffffffffffffffff1673ffffffffffffffffffffffffffffffffffffffff16815260200190815260200160002060009054906101000a900460ff16612756576040517f08c379a000000000000000000000000000000000000000000000000000000000815260040161274d906148b1565b60405180910390fd5b8060020154600654101561279f576040517f08c379a00000000000000000000000000000000000000000000000000000000081526004016127969061491d565b60405180910390fd5b8060020154600660008282546127b591906142f9565b9250508190555060008054906101000a900473ffffffffffffffffffffffffffffffffffffffff1673ffffffffffffffffffffffffffffffffffffffff1663a9059cbb8260010160019054906101000a900473ffffffffffffffffffffffffffffffffffffffff1683600201546040518363ffffffff1660e01b815260040161283f929190614264565b6020604051808303816000875af115801561285e573d6000803e3d6000fd5b505050506040513d601f19601f820116820180604052508101906128829190613e45565b507ffea36c567a41c73fb142ae411f08565859d2842b21caf06283e31ef06079b36a8160010160019054906101000a900473ffffffffffffffffffffffffffffffffffffffff168260020154836003016040516128e193929190614a0d565b60405180910390a1612cd4565b6001600381111561290257612901613415565b5b8160010160009054906101000a900460ff16600381111561292657612925613415565b5b03612a7857601160008260010160019054906101000a900473ffffffffffffffffffffffffffffffffffffffff1673ffffffffffffffffffffffffffffffffffffffff1673ffffffffffffffffffffffffffffffffffffffff16815260200190815260200160002060009054906101000a900460ff166129db576040517f08c379a00000000000000000000000000000000000000000000000000000000081526004016129d2906148b1565b60405180910390fd5b612a0d8160010160019054906101000a900473ffffffffffffffffffffffffffffffffffffffff168260020154612ebc565b7ffea36c567a41c73fb142ae411f08565859d2842b21caf06283e31ef06079b36a8160010160019054906101000a900473ffffffffffffffffffffffffffffffffffffffff16826002015483600301604051612a6b93929190614aaa565b60405180910390a1612cd3565b60026003811115612a8c57612a8b613415565b5b8160010160009054906101000a900460ff166003811115612ab057612aaf613415565b5b03612c18578060020154600d60008360010160019054906101000a900473ffffffffffffffffffffffffffffffffffffffff1673ffffffffffffffffffffffffffffffffffffffff1673ffffffffffffffffffffffffffffffffffffffff16815260200190815260200160002081905550601160008260010160019054906101000a900473ffffffffffffffffffffffffffffffffffffffff1673ffffffffffffffffffffffffffffffffffffffff1673ffffffffffffffffffffffffffffffffffffffff16815260200190815260200160002060009054906101000a900460ff16612c13576001601160008360010160019054906101000a900473ffffffffffffffffffffffffffffffffffffffff1673ffffffffffffffffffffffffffffffffffffffff1673ffffffffffffffffffffffffffffffffffffffff16815260200190815260200160002060006101000a81548160ff0219169083151502179055505b612cd2565b600380811115612c2b57612c2a613415565b5b8160010160009054906101000a900460ff166003811115612c4f57612c4e613415565b5b03612cd1576001601160008360010160019054906101000a900473ffffffffffffffffffffffffffffffffffffffff1673ffffffffffffffffffffffffffffffffffffffff1673ffffffffffffffffffffffffffffffffffffffff16815260200190815260200160002060006101000a81548160ff0219169083151502179055505b5b5b5b7f948f4a9cd986f1118c3fbd459f7a22b23c0693e1ca3ef06a6a8be5aa7d39cc0381600001546001604051612d0a929190614afb565b60405180910390a150565b6000600160009054906101000a900473ffffffffffffffffffffffffffffffffffffffff1673ffffffffffffffffffffffffffffffffffffffff166318160ddd6040518163ffffffff1660e01b8152600401602060405180830381865afa158015612d84573d6000803e3d6000fd5b505050506040513d601f19601f82011682018060405250810190612da89190613bef565b905060006064602883612dbb9190613ede565b612dc59190613d51565b90506000600160009054906101000a900473ffffffffffffffffffffffffffffffffffffffff1673ffffffffffffffffffffffffffffffffffffffff166370a08231866040518263ffffffff1660e01b8152600401612e249190613936565b602060405180830381865afa158015612e41573d6000803e3d6000fd5b505050506040513d601f19601f82011682018060405250810190612e659190613bef565b9050818482612e749190613cb7565b1115612eb5576040517f08c379a0000000000000000000000000000000000000000000000000000000008152600401612eac90614b70565b60405180910390fd5b5050505050565b60008060009054906101000a900473ffffffffffffffffffffffffffffffffffffffff1673ffffffffffffffffffffffffffffffffffffffff166370a08231306040518263ffffffff1660e01b8152600401612f189190613936565b602060405180830381865afa158015612f35573d6000803e3d6000fd5b505050506040513d601f19601f82011682018060405250810190612f599190613bef565b905081811015612f9e576040517f08c379a0000000000000000000000000000000000000000000000000000000008152600401612f9590614bdc565b60405180910390fd5b6000600854600754612fb091906142f9565b9050600081600654612fc29190613cb7565b9050600081841115612fdd578184612fda91906142f9565b90505b848110156130555760008186612ff391906142f9565b905080600654101561303a576040517f08c379a000000000000000000000000000000000000000000000000000000000815260040161303190614c48565b60405180910390fd5b806006600082825461304c91906142f9565b92505081905550505b60008054906101000a900473ffffffffffffffffffffffffffffffffffffffff1673ffffffffffffffffffffffffffffffffffffffff1663a9059cbb87876040518363ffffffff1660e01b81526004016130b0929190614264565b6020604051808303816000875af11580156130cf573d6000803e3d6000fd5b505050506040513d601f19601f820116820180604052508101906130f39190613e45565b50505050505050565b6013600081548092919061310f906145a9565b9190505550600060126000601354815260200190815260200160002090506013548160000181905550848160010160006101000a81548160ff0219169083600381111561315f5761315e613415565b5b0217905550838160010160016101000a81548173ffffffffffffffffffffffffffffffffffffffff021916908373ffffffffffffffffffffffffffffffffffffffff160217905550828160020181905550818160030190816131c19190614793565b5062015180426131d19190613cb7565b816006018190555060008060038111156131ee576131ed613415565b5b86600381111561320157613200613415565b5b14613311576001600381111561321a57613219613415565b5b86600381111561322d5761322c613415565b5b146132d5576002600381111561324657613245613415565b5b86600381111561325957613258613415565b5b14613299576040518060400160405280600a81526020017f4144442056454e444f52000000000000000000000000000000000000000000008152506132d0565b6040518060400160405280600881526020017f5345542047414a490000000000000000000000000000000000000000000000008152505b61330c565b6040518060400160405280600a81526020017f42454c4920424148414e000000000000000000000000000000000000000000008152505b613348565b6040518060400160405280600a81526020017f42454c49204d4553494e000000000000000000000000000000000000000000008152505b90507fab417751734d6a1f646db70d698328fa08bc6c3f8d4b8ef2a69adb1eb051496b601354828560405161337f93929190614c68565b60405180910390a1505050505050565b6000604051905090565b600080fd5b600080fd5b6000819050919050565b6133b6816133a3565b81146133c157600080fd5b50565b6000813590506133d3816133ad565b92915050565b6000602082840312156133ef576133ee613399565b5b60006133fd848285016133c4565b91505092915050565b61340f816133a3565b82525050565b7f4e487b7100000000000000000000000000000000000000000000000000000000600052602160045260246000fd5b6004811061345557613454613415565b5b50565b600081905061346682613444565b919050565b600061347682613458565b9050919050565b6134868161346b565b82525050565b600073ffffffffffffffffffffffffffffffffffffffff82169050919050565b60006134b78261348c565b9050919050565b6134c7816134ac565b82525050565b600081519050919050565b600082825260208201905092915050565b60005b838110156135075780820151818401526020810190506134ec565b60008484015250505050565b6000601f19601f8301169050919050565b600061352f826134cd565b61353981856134d8565b93506135498185602086016134e9565b61355281613513565b840191505092915050565b60008115159050919050565b6135728161355d565b82525050565b60006101008201905061358e600083018b613406565b61359b602083018a61347d565b6135a860408301896134be565b6135b56060830188613406565b81810360808301526135c78187613524565b90506135d660a0830186613406565b6135e360c0830185613569565b6135f060e0830184613406565b9998505050505050505050565b613606816134ac565b811461361157600080fd5b50565b600081359050613623816135fd565b92915050565b600080604083850312156136405761363f613399565b5b600061364e85828601613614565b925050602061365f858286016133c4565b9150509250929050565b6000819050919050565b600061368e6136896136848461348c565b613669565b61348c565b9050919050565b60006136a082613673565b9050919050565b60006136b282613695565b9050919050565b6136c2816136a7565b82525050565b60006020820190506136dd60008301846136b9565b92915050565b6000602082840312156136f9576136f8613399565b5b600061370784828501613614565b91505092915050565b60006020820190506137256000830184613406565b92915050565b600080fd5b600080fd5b7f4e487b7100000000000000000000000000000000000000000000000000000000600052604160045260246000fd5b61376d82613513565b810181811067ffffffffffffffff8211171561378c5761378b613735565b5b80604052505050565b600061379f61338f565b90506137ab8282613764565b919050565b600067ffffffffffffffff8211156137cb576137ca613735565b5b6137d482613513565b9050602081019050919050565b82818337600083830152505050565b60006138036137fe846137b0565b613795565b90508281526020810184848401111561381f5761381e613730565b5b61382a8482856137e1565b509392505050565b600082601f8301126138475761384661372b565b5b81356138578482602086016137f0565b91505092915050565b60008060006060848603121561387957613878613399565b5b600061388786828701613614565b9350506020613898868287016133c4565b925050604084013567ffffffffffffffff8111156138b9576138b861339e565b5b6138c586828701613832565b9150509250925092565b60006020820190506138e46000830184613569565b92915050565b60006080820190506138ff6000830187613406565b81810360208301526139118186613524565b90506139206040830185613569565b61392d6060830184613406565b95945050505050565b600060208201905061394b60008301846134be565b92915050565b6000819050919050565b61396481613951565b82525050565b600060208201905061397f600083018461395b565b92915050565b60006020828403121561399b5761399a613399565b5b600082013567ffffffffffffffff8111156139b9576139b861339e565b5b6139c584828501613832565b91505092915050565b600080604083850312156139e5576139e4613399565b5b60006139f385828601613614565b925050602083013567ffffffffffffffff811115613a1457613a1361339e565b5b613a2085828601613832565b9150509250929050565b7f5265656e7472616e637921000000000000000000000000000000000000000000600082015250565b6000613a60600b836134d8565b9150613a6b82613a2a565b602082019050919050565b60006020820190508181036000830152613a8f81613a53565b9050919050565b7f57616b7475204861626973000000000000000000000000000000000000000000600082015250565b6000613acc600b836134d8565b9150613ad782613a96565b602082019050919050565b60006020820190508181036000830152613afb81613abf565b9050919050565b7f537564616820566f746500000000000000000000000000000000000000000000600082015250565b6000613b38600a836134d8565b9150613b4382613b02565b602082019050919050565b60006020820190508181036000830152613b6781613b2b565b9050919050565b7f53756461682053656c6573616900000000000000000000000000000000000000600082015250565b6000613ba4600d836134d8565b9150613baf82613b6e565b602082019050919050565b60006020820190508181036000830152613bd381613b97565b9050919050565b600081519050613be9816133ad565b92915050565b600060208284031215613c0557613c04613399565b5b6000613c1384828501613bda565b91505092915050565b7f4e6f20546f6b656e000000000000000000000000000000000000000000000000600082015250565b6000613c526008836134d8565b9150613c5d82613c1c565b602082019050919050565b60006020820190508181036000830152613c8181613c45565b9050919050565b7f4e487b7100000000000000000000000000000000000000000000000000000000600052601160045260246000fd5b6000613cc2826133a3565b9150613ccd836133a3565b9250828201905080821115613ce557613ce4613c88565b5b92915050565b6000606082019050613d006000830186613406565b613d0d60208301856134be565b613d1a6040830184613406565b949350505050565b7f4e487b7100000000000000000000000000000000000000000000000000000000600052601260045260246000fd5b6000613d5c826133a3565b9150613d67836133a3565b925082613d7757613d76613d22565b5b828204905092915050565b7f4e487b7100000000000000000000000000000000000000000000000000000000600052602260045260246000fd5b60006002820490506001821680613dc957607f821691505b602082108103613ddc57613ddb613d82565b5b50919050565b6000606082019050613df760008301866134be565b613e0460208301856134be565b613e116040830184613406565b949350505050565b613e228161355d565b8114613e2d57600080fd5b50565b600081519050613e3f81613e19565b92915050565b600060208284031215613e5b57613e5a613399565b5b6000613e6984828501613e30565b91505092915050565b7f476167616c205472616e73666572000000000000000000000000000000000000600082015250565b6000613ea8600e836134d8565b9150613eb382613e72565b602082019050919050565b60006020820190508181036000830152613ed781613e9b565b9050919050565b6000613ee9826133a3565b9150613ef4836133a3565b9250828202613f02816133a3565b91508282048414831517613f1957613f18613c88565b5b5092915050565b6000613f2b82613951565b9150613f3683613951565b925082820190508281121560008312168382126000841215161715613f5e57613f5d613c88565b5b92915050565b6000613f6f82613951565b9150613f7a83613951565b9250828203905081811260008412168282136000851215161715613fa157613fa0613c88565b5b92915050565b7f48616e79612041646d696e000000000000000000000000000000000000000000600082015250565b6000613fdd600b836134d8565b9150613fe882613fa7565b602082019050919050565b6000602082019050818103600083015261400c81613fd0565b9050919050565b7f47616a692068617269616e2062656c756d206469736574207669612050726f7060008201527f6f73616c21000000000000000000000000000000000000000000000000000000602082015250565b600061406f6025836134d8565b915061407a82614013565b604082019050919050565b6000602082019050818103600083015261409e81614062565b9050919050565b7f4861726920696e692073756461682067616a69616e2100000000000000000000600082015250565b60006140db6016836134d8565b91506140e6826140a5565b602082019050919050565b6000602082019050818103600083015261410a816140ce565b9050919050565b7f47414a492048415249414e000000000000000000000000000000000000000000600082015250565b6000614147600b836134d8565b915061415282614111565b602082019050919050565b7f47616a6920527574696e2048617269616e000000000000000000000000000000600082015250565b60006141936011836134d8565b915061419e8261415d565b602082019050919050565b600060808201905081810360008301526141c28161413a565b90506141d160208301856134be565b6141de6040830184613406565b81810360608301526141ef81614186565b90509392505050565b7f4e6968696c000000000000000000000000000000000000000000000000000000600082015250565b600061422e6005836134d8565b9150614239826141f8565b602082019050919050565b6000602082019050818103600083015261425d81614221565b9050919050565b600060408201905061427960008301856134be565b6142866020830184613406565b9392505050565b7f476167616c000000000000000000000000000000000000000000000000000000600082015250565b60006142c36005836134d8565b91506142ce8261428d565b602082019050919050565b600060208201905081810360008301526142f2816142b6565b9050919050565b6000614304826133a3565b915061430f836133a3565b925082820390508181111561432757614326613c88565b5b92915050565b7f4d6573696e204d61746900000000000000000000000000000000000000000000600082015250565b6000614363600a836134d8565b915061436e8261432d565b602082019050919050565b6000602082019050818103600083015261439281614356565b9050919050565b7f476167616c204261796172000000000000000000000000000000000000000000600082015250565b60006143cf600b836134d8565b91506143da82614399565b602082019050919050565b600060208201905081810360008301526143fe816143c2565b9050919050565b600060408201905061441a6000830185613406565b6144276020830184613406565b9392505050565b7f536f6c64204f7574000000000000000000000000000000000000000000000000600082015250565b60006144646008836134d8565b915061446f8261442e565b602082019050919050565b6000602082019050818103600083015261449381614457565b9050919050565b7f476167616c204261796172204944525400000000000000000000000000000000600082015250565b60006144d06010836134d8565b91506144db8261449a565b602082019050919050565b600060208201905081810360008301526144ff816144c3565b9050919050565b7f476167616c204b6972696d20536168616d000000000000000000000000000000600082015250565b600061453c6011836134d8565b915061454782614506565b602082019050919050565b6000602082019050818103600083015261456b8161452f565b9050919050565b600060608201905061458760008301866134be565b6145946020830185613406565b6145a16040830184613406565b949350505050565b60006145b4826133a3565b91507fffffffffffffffffffffffffffffffffffffffffffffffffffffffffffffffff82036145e6576145e5613c88565b5b600182019050919050565b60008190508160005260206000209050919050565b60006020601f8301049050919050565b600082821b905092915050565b6000600883026146537fffffffffffffffffffffffffffffffffffffffffffffffffffffffffffffffff82614616565b61465d8683614616565b95508019841693508086168417925050509392505050565b600061469061468b614686846133a3565b613669565b6133a3565b9050919050565b6000819050919050565b6146aa83614675565b6146be6146b682614697565b848454614623565b825550505050565b600090565b6146d36146c6565b6146de8184846146a1565b505050565b5b81811015614702576146f76000826146cb565b6001810190506146e4565b5050565b601f82111561474757614718816145f1565b61472184614606565b81016020851015614730578190505b61474461473c85614606565b8301826146e3565b50505b505050565b600082821c905092915050565b600061476a6000198460080261474c565b1980831691505092915050565b60006147838383614759565b9150826002028217905092915050565b61479c826134cd565b67ffffffffffffffff8111156147b5576147b4613735565b5b6147bf8254613db1565b6147ca828285614706565b600060209050601f8311600181146147fd57600084156147eb578287015190505b6147f58582614777565b86555061485d565b601f19841661480b866145f1565b60005b828110156148335784890151825560018201915060208501945060208101905061480e565b86831015614850578489015161484c601f891682614759565b8355505b6001600288020188555050505b505050505050565b7f56656e646f7220496c6567616c00000000000000000000000000000000000000600082015250565b600061489b600d836134d8565b91506148a682614865565b602082019050919050565b600060208201905081810360008301526148ca8161488e565b9050919050565b7f44616e612047726f777468204b7572616e670000000000000000000000000000600082015250565b60006149076012836134d8565b9150614912826148d1565b602082019050919050565b60006020820190508181036000830152614936816148fa565b9050919050565b7f42454c49204d4553494e00000000000000000000000000000000000000000000600082015250565b6000614973600a836134d8565b915061497e8261493d565b602082019050919050565b6000815461499681613db1565b6149a081866134d8565b945060018216600081146149bb57600181146149d157614a04565b60ff198316865281151560200286019350614a04565b6149da856145f1565b60005b838110156149fc578154818901526001820191506020810190506149dd565b808801955050505b50505092915050565b60006080820190508181036000830152614a2681614966565b9050614a3560208301866134be565b614a426040830185613406565b8181036060830152614a548184614989565b9050949350505050565b7f42454c4920424148414e00000000000000000000000000000000000000000000600082015250565b6000614a94600a836134d8565b9150614a9f82614a5e565b602082019050919050565b60006080820190508181036000830152614ac381614a87565b9050614ad260208301866134be565b614adf6040830185613406565b8181036060830152614af18184614989565b9050949350505050565b6000604082019050614b106000830185613406565b614b1d6020830184613569565b9392505050565b7f4d61782057616c6c6574204c696d697420343025000000000000000000000000600082015250565b6000614b5a6014836134d8565b9150614b6582614b24565b602082019050919050565b60006020820190508181036000830152614b8981614b4d565b9050919050565b7f4b6173204b6f736f6e6700000000000000000000000000000000000000000000600082015250565b6000614bc6600a836134d8565b9150614bd182614b90565b602082019050919050565b60006020820190508181036000830152614bf581614bb9565b9050919050565b7f4d6f64616c2047726f7774682046756e64204861626973210000000000000000600082015250565b6000614c326018836134d8565b9150614c3d82614bfc565b602082019050919050565b60006020820190508181036000830152614c6181614c25565b9050919050565b6000606082019050614c7d6000830186613406565b8181036020830152614c8f8185613524565b90508181036040830152614ca38184613524565b905094935050505056fea2646970667358221220e0241432c6666bca42ddcfe6198f8a31cf7e090d1632e49dbe267c01c598a52464736f6c634300081e0033",
			"opcodes": "PUSH1 0x80 PUSH1 0x40 MSTORE PUSH10 0x32D26D12E980B600000 PUSH1 0x3 SSTORE PUSH10 0x10F0CF064DD59200000 PUSH1 0x4 SSTORE PUSH9 0x3635C9ADC5DEA00000 PUSH1 0xC SSTORE CALLVALUE DUP1 ISZERO PUSH2 0x39 JUMPI PUSH1 0x0 DUP1 REVERT JUMPDEST POP PUSH1 0x40 MLOAD PUSH2 0x4F62 CODESIZE SUB DUP1 PUSH2 0x4F62 DUP4 CODECOPY DUP2 DUP2 ADD PUSH1 0x40 MSTORE DUP2 ADD SWAP1 PUSH2 0x5B SWAP2 SWAP1 PUSH2 0x21D JUMP JUMPDEST DUP3 PUSH1 0x0 DUP1 PUSH2 0x100 EXP DUP2 SLOAD DUP2 PUSH20 0xFFFFFFFFFFFFFFFFFFFFFFFFFFFFFFFFFFFFFFFF MUL NOT AND SWAP1 DUP4 PUSH20 0xFFFFFFFFFFFFFFFFFFFFFFFFFFFFFFFFFFFFFFFF AND MUL OR SWAP1 SSTORE POP DUP2 PUSH1 0x1 PUSH1 0x0 PUSH2 0x100 EXP DUP2 SLOAD DUP2 PUSH20 0xFFFFFFFFFFFFFFFFFFFFFFFFFFFFFFFFFFFFFFFF MUL NOT AND SWAP1 DUP4 PUSH20 0xFFFFFFFFFFFFFFFFFFFFFFFFFFFFFFFFFFFFFFFF AND MUL OR SWAP1 SSTORE POP DUP1 PUSH1 0x3 DUP2 SWAP1 SSTORE POP CALLER PUSH1 0x2 PUSH1 0x0 PUSH2 0x100 EXP DUP2 SLOAD DUP2 PUSH20 0xFFFFFFFFFFFFFFFFFFFFFFFFFFFFFFFFFFFFFFFF MUL NOT AND SWAP1 DUP4 PUSH20 0xFFFFFFFFFFFFFFFFFFFFFFFFFFFFFFFFFFFFFFFF AND MUL OR SWAP1 SSTORE POP PUSH1 0x1 PUSH1 0x11 PUSH1 0x0 CALLER PUSH20 0xFFFFFFFFFFFFFFFFFFFFFFFFFFFFFFFFFFFFFFFF AND PUSH20 0xFFFFFFFFFFFFFFFFFFFFFFFFFFFFFFFFFFFFFFFF AND DUP2 MSTORE PUSH1 0x20 ADD SWAP1 DUP2 MSTORE PUSH1 0x20 ADD PUSH1 0x0 KECCAK256 PUSH1 0x0 PUSH2 0x100 EXP DUP2 SLOAD DUP2 PUSH1 0xFF MUL NOT AND SWAP1 DUP4 ISZERO ISZERO MUL OR SWAP1 SSTORE POP POP POP POP PUSH2 0x270 JUMP JUMPDEST PUSH1 0x0 DUP1 REVERT JUMPDEST PUSH1 0x0 PUSH20 0xFFFFFFFFFFFFFFFFFFFFFFFFFFFFFFFFFFFFFFFF DUP3 AND SWAP1 POP SWAP2 SWAP1 POP JUMP JUMPDEST PUSH1 0x0 PUSH2 0x1B4 DUP3 PUSH2 0x189 JUMP JUMPDEST SWAP1 POP SWAP2 SWAP1 POP JUMP JUMPDEST PUSH2 0x1C4 DUP2 PUSH2 0x1A9 JUMP JUMPDEST DUP2 EQ PUSH2 0x1CF JUMPI PUSH1 0x0 DUP1 REVERT JUMPDEST POP JUMP JUMPDEST PUSH1 0x0 DUP2 MLOAD SWAP1 POP PUSH2 0x1E1 DUP2 PUSH2 0x1BB JUMP JUMPDEST SWAP3 SWAP2 POP POP JUMP JUMPDEST PUSH1 0x0 DUP2 SWAP1 POP SWAP2 SWAP1 POP JUMP JUMPDEST PUSH2 0x1FA DUP2 PUSH2 0x1E7 JUMP JUMPDEST DUP2 EQ PUSH2 0x205 JUMPI PUSH1 0x0 DUP1 REVERT JUMPDEST POP JUMP JUMPDEST PUSH1 0x0 DUP2 MLOAD SWAP1 POP PUSH2 0x217 DUP2 PUSH2 0x1F1 JUMP JUMPDEST SWAP3 SWAP2 POP POP JUMP JUMPDEST PUSH1 0x0 DUP1 PUSH1 0x0 PUSH1 0x60 DUP5 DUP7 SUB SLT ISZERO PUSH2 0x236 JUMPI PUSH2 0x235 PUSH2 0x184 JUMP JUMPDEST JUMPDEST PUSH1 0x0 PUSH2 0x244 DUP7 DUP3 DUP8 ADD PUSH2 0x1D2 JUMP JUMPDEST SWAP4 POP POP PUSH1 0x20 PUSH2 0x255 DUP7 DUP3 DUP8 ADD PUSH2 0x1D2 JUMP JUMPDEST SWAP3 POP POP PUSH1 0x40 PUSH2 0x266 DUP7 DUP3 DUP8 ADD PUSH2 0x208 JUMP JUMPDEST SWAP2 POP POP SWAP3 POP SWAP3 POP SWAP3 JUMP JUMPDEST PUSH2 0x4CE3 DUP1 PUSH2 0x27F PUSH1 0x0 CODECOPY PUSH1 0x0 RETURN INVALID PUSH1 0x80 PUSH1 0x40 MSTORE CALLVALUE DUP1 ISZERO PUSH2 0x10 JUMPI PUSH1 0x0 DUP1 REVERT JUMPDEST POP PUSH1 0x4 CALLDATASIZE LT PUSH2 0x232 JUMPI PUSH1 0x0 CALLDATALOAD PUSH1 0xE0 SHR DUP1 PUSH4 0x817BC0CB GT PUSH2 0x130 JUMPI DUP1 PUSH4 0xB4B4B55E GT PUSH2 0xB8 JUMPI DUP1 PUSH4 0xDA35C664 GT PUSH2 0x7C JUMPI DUP1 PUSH4 0xDA35C664 EQ PUSH2 0x665 JUMPI DUP1 PUSH4 0xDE3AAF61 EQ PUSH2 0x683 JUMPI DUP1 PUSH4 0xE70B7424 EQ PUSH2 0x6B3 JUMPI DUP1 PUSH4 0xEECACE28 EQ PUSH2 0x6CF JUMPI DUP1 PUSH4 0xF847DFF7 EQ PUSH2 0x6FF JUMPI PUSH2 0x232 JUMP JUMPDEST DUP1 PUSH4 0xB4B4B55E EQ PUSH2 0x5D3 JUMPI DUP1 PUSH4 0xBF2D9E0B EQ PUSH2 0x5F1 JUMPI DUP1 PUSH4 0xC870B910 EQ PUSH2 0x60F JUMPI DUP1 PUSH4 0xD1A93D18 EQ PUSH2 0x62D JUMPI DUP1 PUSH4 0xD8E0F826 EQ PUSH2 0x649 JUMPI PUSH2 0x232 JUMP JUMPDEST DUP1 PUSH4 0x97A06724 GT PUSH2 0xFF JUMPI DUP1 PUSH4 0x97A06724 EQ PUSH2 0x509 JUMPI DUP1 PUSH4 0x9F13464E EQ PUSH2 0x539 JUMPI DUP1 PUSH4 0xA4138B9B EQ PUSH2 0x557 JUMPI DUP1 PUSH4 0xAD9ADCDC EQ PUSH2 0x587 JUMPI DUP1 PUSH4 0xB03B4A29 EQ PUSH2 0x5B7 JUMPI PUSH2 0x232 JUMP JUMPDEST DUP1 PUSH4 0x817BC0CB EQ PUSH2 0x491 JUMPI DUP1 PUSH4 0x85A6B3AE EQ PUSH2 0x4AF JUMPI DUP1 PUSH4 0x87269729 EQ PUSH2 0x4CD JUMPI DUP1 PUSH4 0x8DA5CB5B EQ PUSH2 0x4EB JUMPI PUSH2 0x232 JUMP JUMPDEST DUP1 PUSH4 0x3A7960E0 GT PUSH2 0x1BE JUMPI DUP1 PUSH4 0x56544490 GT PUSH2 0x182 JUMPI DUP1 PUSH4 0x56544490 EQ PUSH2 0x413 JUMPI DUP1 PUSH4 0x5C3640EC EQ PUSH2 0x42F JUMPI DUP1 PUSH4 0x668038E0 EQ PUSH2 0x44D JUMPI DUP1 PUSH4 0x679B9144 EQ PUSH2 0x457 JUMPI DUP1 PUSH4 0x77056D0F EQ PUSH2 0x473 JUMPI PUSH2 0x232 JUMP JUMPDEST DUP1 PUSH4 0x3A7960E0 EQ PUSH2 0x356 JUMPI DUP1 PUSH4 0x3AF32ABF EQ PUSH2 0x374 JUMPI DUP1 PUSH4 0x41260365 EQ PUSH2 0x3A4 JUMPI DUP1 PUSH4 0x4D42845C EQ PUSH2 0x3C2 JUMPI DUP1 PUSH4 0x51CE612C EQ PUSH2 0x3F5 JUMPI PUSH2 0x232 JUMP JUMPDEST DUP1 PUSH4 0x16C70448 GT PUSH2 0x205 JUMPI DUP1 PUSH4 0x16C70448 EQ PUSH2 0x2C4 JUMPI DUP1 PUSH4 0x1C8A4038 EQ PUSH2 0x2E0 JUMPI DUP1 PUSH4 0x2620B4EE EQ PUSH2 0x2FE JUMPI DUP1 PUSH4 0x3013CE29 EQ PUSH2 0x31C JUMPI DUP1 PUSH4 0x33C5E003 EQ PUSH2 0x33A JUMPI PUSH2 0x232 JUMP JUMPDEST DUP1 PUSH4 0x121B93F EQ PUSH2 0x237 JUMPI DUP1 PUSH4 0x13CF08B EQ PUSH2 0x253 JUMPI DUP1 PUSH4 0xEB94A67 EQ PUSH2 0x28A JUMPI DUP1 PUSH4 0x1083F761 EQ PUSH2 0x2A6 JUMPI JUMPDEST PUSH1 0x0 DUP1 REVERT JUMPDEST PUSH2 0x251 PUSH1 0x4 DUP1 CALLDATASIZE SUB DUP2 ADD SWAP1 PUSH2 0x24C SWAP2 SWAP1 PUSH2 0x33D9 JUMP JUMPDEST PUSH2 0x71B JUMP JUMPDEST STOP JUMPDEST PUSH2 0x26D PUSH1 0x4 DUP1 CALLDATASIZE SUB DUP2 ADD SWAP1 PUSH2 0x268 SWAP2 SWAP1 PUSH2 0x33D9 JUMP JUMPDEST PUSH2 0xB29 JUMP JUMPDEST PUSH1 0x40 MLOAD PUSH2 0x281 SWAP9 SWAP8 SWAP7 SWAP6 SWAP5 SWAP4 SWAP3 SWAP2 SWAP1 PUSH2 0x3578 JUMP JUMPDEST PUSH1 0x40 MLOAD DUP1 SWAP2 SUB SWAP1 RETURN JUMPDEST PUSH2 0x2A4 PUSH1 0x4 DUP1 CALLDATASIZE SUB DUP2 ADD SWAP1 PUSH2 0x29F SWAP2 SWAP1 PUSH2 0x3629 JUMP JUMPDEST PUSH2 0xC33 JUMP JUMPDEST STOP JUMPDEST PUSH2 0x2AE PUSH2 0xEA2 JUMP JUMPDEST PUSH1 0x40 MLOAD PUSH2 0x2BB SWAP2 SWAP1 PUSH2 0x36C8 JUMP JUMPDEST PUSH1 0x40 MLOAD DUP1 SWAP2 SUB SWAP1 RETURN JUMPDEST PUSH2 0x2DE PUSH1 0x4 DUP1 CALLDATASIZE SUB DUP2 ADD SWAP1 PUSH2 0x2D9 SWAP2 SWAP1 PUSH2 0x36E3 JUMP JUMPDEST PUSH2 0xEC8 JUMP JUMPDEST STOP JUMPDEST PUSH2 0x2E8 PUSH2 0x1180 JUMP JUMPDEST PUSH1 0x40 MLOAD PUSH2 0x2F5 SWAP2 SWAP1 PUSH2 0x3710 JUMP JUMPDEST PUSH1 0x40 MLOAD DUP1 SWAP2 SUB SWAP1 RETURN JUMPDEST PUSH2 0x306 PUSH2 0x1186 JUMP JUMPDEST PUSH1 0x40 MLOAD PUSH2 0x313 SWAP2 SWAP1 PUSH2 0x3710 JUMP JUMPDEST PUSH1 0x40 MLOAD DUP1 SWAP2 SUB SWAP1 RETURN JUMPDEST PUSH2 0x324 PUSH2 0x118B JUMP JUMPDEST PUSH1 0x40 MLOAD PUSH2 0x331 SWAP2 SWAP1 PUSH2 0x36C8 JUMP JUMPDEST PUSH1 0x40 MLOAD DUP1 SWAP2 SUB SWAP1 RETURN JUMPDEST PUSH2 0x354 PUSH1 0x4 DUP1 CALLDATASIZE SUB DUP2 ADD SWAP1 PUSH2 0x34F SWAP2 SWAP1 PUSH2 0x3860 JUMP JUMPDEST PUSH2 0x11AF JUMP JUMPDEST STOP JUMPDEST PUSH2 0x35E PUSH2 0x1251 JUMP JUMPDEST PUSH1 0x40 MLOAD PUSH2 0x36B SWAP2 SWAP1 PUSH2 0x3710 JUMP JUMPDEST PUSH1 0x40 MLOAD DUP1 SWAP2 SUB SWAP1 RETURN JUMPDEST PUSH2 0x38E PUSH1 0x4 DUP1 CALLDATASIZE SUB DUP2 ADD SWAP1 PUSH2 0x389 SWAP2 SWAP1 PUSH2 0x36E3 JUMP JUMPDEST PUSH2 0x1257 JUMP JUMPDEST PUSH1 0x40 MLOAD PUSH2 0x39B SWAP2 SWAP1 PUSH2 0x38CF JUMP JUMPDEST PUSH1 0x40 MLOAD DUP1 SWAP2 SUB SWAP1 RETURN JUMPDEST PUSH2 0x3AC PUSH2 0x1277 JUMP JUMPDEST PUSH1 0x40 MLOAD PUSH2 0x3B9 SWAP2 SWAP1 PUSH2 0x3710 JUMP JUMPDEST PUSH1 0x40 MLOAD DUP1 SWAP2 SUB SWAP1 RETURN JUMPDEST PUSH2 0x3DC PUSH1 0x4 DUP1 CALLDATASIZE SUB DUP2 ADD SWAP1 PUSH2 0x3D7 SWAP2 SWAP1 PUSH2 0x33D9 JUMP JUMPDEST PUSH2 0x127D JUMP JUMPDEST PUSH1 0x40 MLOAD PUSH2 0x3EC SWAP5 SWAP4 SWAP3 SWAP2 SWAP1 PUSH2 0x38EA JUMP JUMPDEST PUSH1 0x40 MLOAD DUP1 SWAP2 SUB SWAP1 RETURN JUMPDEST PUSH2 0x3FD PUSH2 0x1342 JUMP JUMPDEST PUSH1 0x40 MLOAD PUSH2 0x40A SWAP2 SWAP1 PUSH2 0x3710 JUMP JUMPDEST PUSH1 0x40 MLOAD DUP1 SWAP2 SUB SWAP1 RETURN JUMPDEST PUSH2 0x42D PUSH1 0x4 DUP1 CALLDATASIZE SUB DUP2 ADD SWAP1 PUSH2 0x428 SWAP2 SWAP1 PUSH2 0x3860 JUMP JUMPDEST PUSH2 0x1347 JUMP JUMPDEST STOP JUMPDEST PUSH2 0x437 PUSH2 0x13E9 JUMP JUMPDEST PUSH1 0x40 MLOAD PUSH2 0x444 SWAP2 SWAP1 PUSH2 0x3710 JUMP JUMPDEST PUSH1 0x40 MLOAD DUP1 SWAP2 SUB SWAP1 RETURN JUMPDEST PUSH2 0x455 PUSH2 0x13EF JUMP JUMPDEST STOP JUMPDEST PUSH2 0x471 PUSH1 0x4 DUP1 CALLDATASIZE SUB DUP2 ADD SWAP1 PUSH2 0x46C SWAP2 SWAP1 PUSH2 0x3860 JUMP JUMPDEST PUSH2 0x164D JUMP JUMPDEST STOP JUMPDEST PUSH2 0x47B PUSH2 0x16EF JUMP JUMPDEST PUSH1 0x40 MLOAD PUSH2 0x488 SWAP2 SWAP1 PUSH2 0x3710 JUMP JUMPDEST PUSH1 0x40 MLOAD DUP1 SWAP2 SUB SWAP1 RETURN JUMPDEST PUSH2 0x499 PUSH2 0x17DD JUMP JUMPDEST PUSH1 0x40 MLOAD PUSH2 0x4A6 SWAP2 SWAP1 PUSH2 0x3710 JUMP JUMPDEST PUSH1 0x40 MLOAD DUP1 SWAP2 SUB SWAP1 RETURN JUMPDEST PUSH2 0x4B7 PUSH2 0x18A2 JUMP JUMPDEST PUSH1 0x40 MLOAD PUSH2 0x4C4 SWAP2 SWAP1 PUSH2 0x3710 JUMP JUMPDEST PUSH1 0x40 MLOAD DUP1 SWAP2 SUB SWAP1 RETURN JUMPDEST PUSH2 0x4D5 PUSH2 0x18A8 JUMP JUMPDEST PUSH1 0x40 MLOAD PUSH2 0x4E2 SWAP2 SWAP1 PUSH2 0x3710 JUMP JUMPDEST PUSH1 0x40 MLOAD DUP1 SWAP2 SUB SWAP1 RETURN JUMPDEST PUSH2 0x4F3 PUSH2 0x18AE JUMP JUMPDEST PUSH1 0x40 MLOAD PUSH2 0x500 SWAP2 SWAP1 PUSH2 0x3936 JUMP JUMPDEST PUSH1 0x40 MLOAD DUP1 SWAP2 SUB SWAP1 RETURN JUMPDEST PUSH2 0x523 PUSH1 0x4 DUP1 CALLDATASIZE SUB DUP2 ADD SWAP1 PUSH2 0x51E SWAP2 SWAP1 PUSH2 0x36E3 JUMP JUMPDEST PUSH2 0x18D4 JUMP JUMPDEST PUSH1 0x40 MLOAD PUSH2 0x530 SWAP2 SWAP1 PUSH2 0x396A JUMP JUMPDEST PUSH1 0x40 MLOAD DUP1 SWAP2 SUB SWAP1 RETURN JUMPDEST PUSH2 0x541 PUSH2 0x18EC JUMP JUMPDEST PUSH1 0x40 MLOAD PUSH2 0x54E SWAP2 SWAP1 PUSH2 0x3710 JUMP JUMPDEST PUSH1 0x40 MLOAD DUP1 SWAP2 SUB SWAP1 RETURN JUMPDEST PUSH2 0x571 PUSH1 0x4 DUP1 CALLDATASIZE SUB DUP2 ADD SWAP1 PUSH2 0x56C SWAP2 SWAP1 PUSH2 0x36E3 JUMP JUMPDEST PUSH2 0x18F2 JUMP JUMPDEST PUSH1 0x40 MLOAD PUSH2 0x57E SWAP2 SWAP1 PUSH2 0x3710 JUMP JUMPDEST PUSH1 0x40 MLOAD DUP1 SWAP2 SUB SWAP1 RETURN JUMPDEST PUSH2 0x5A1 PUSH1 0x4 DUP1 CALLDATASIZE SUB DUP2 ADD SWAP1 PUSH2 0x59C SWAP2 SWAP1 PUSH2 0x36E3 JUMP JUMPDEST PUSH2 0x1A99 JUMP JUMPDEST PUSH1 0x40 MLOAD PUSH2 0x5AE SWAP2 SWAP1 PUSH2 0x3710 JUMP JUMPDEST PUSH1 0x40 MLOAD DUP1 SWAP2 SUB SWAP1 RETURN JUMPDEST PUSH2 0x5D1 PUSH1 0x4 DUP1 CALLDATASIZE SUB DUP2 ADD SWAP1 PUSH2 0x5CC SWAP2 SWAP1 PUSH2 0x33D9 JUMP JUMPDEST PUSH2 0x1AB1 JUMP JUMPDEST STOP JUMPDEST PUSH2 0x5DB PUSH2 0x1F3D JUMP JUMPDEST PUSH1 0x40 MLOAD PUSH2 0x5E8 SWAP2 SWAP1 PUSH2 0x3710 JUMP JUMPDEST PUSH1 0x40 MLOAD DUP1 SWAP2 SUB SWAP1 RETURN JUMPDEST PUSH2 0x5F9 PUSH2 0x1F42 JUMP JUMPDEST PUSH1 0x40 MLOAD PUSH2 0x606 SWAP2 SWAP1 PUSH2 0x3710 JUMP JUMPDEST PUSH1 0x40 MLOAD DUP1 SWAP2 SUB SWAP1 RETURN JUMPDEST PUSH2 0x617 PUSH2 0x1F48 JUMP JUMPDEST PUSH1 0x40 MLOAD PUSH2 0x624 SWAP2 SWAP1 PUSH2 0x3710 JUMP JUMPDEST PUSH1 0x40 MLOAD DUP1 SWAP2 SUB SWAP1 RETURN JUMPDEST PUSH2 0x647 PUSH1 0x4 DUP1 CALLDATASIZE SUB DUP2 ADD SWAP1 PUSH2 0x642 SWAP2 SWAP1 PUSH2 0x33D9 JUMP JUMPDEST PUSH2 0x1F4E JUMP JUMPDEST STOP JUMPDEST PUSH2 0x663 PUSH1 0x4 DUP1 CALLDATASIZE SUB DUP2 ADD SWAP1 PUSH2 0x65E SWAP2 SWAP1 PUSH2 0x3985 JUMP JUMPDEST PUSH2 0x23A6 JUMP JUMPDEST STOP JUMPDEST PUSH2 0x66D PUSH2 0x24DA JUMP JUMPDEST PUSH1 0x40 MLOAD PUSH2 0x67A SWAP2 SWAP1 PUSH2 0x3710 JUMP JUMPDEST PUSH1 0x40 MLOAD DUP1 SWAP2 SUB SWAP1 RETURN JUMPDEST PUSH2 0x69D PUSH1 0x4 DUP1 CALLDATASIZE SUB DUP2 ADD SWAP1 PUSH2 0x698 SWAP2 SWAP1 PUSH2 0x36E3 JUMP JUMPDEST PUSH2 0x24E0 JUMP JUMPDEST PUSH1 0x40 MLOAD PUSH2 0x6AA SWAP2 SWAP1 PUSH2 0x3710 JUMP JUMPDEST PUSH1 0x40 MLOAD DUP1 SWAP2 SUB SWAP1 RETURN JUMPDEST PUSH2 0x6CD PUSH1 0x4 DUP1 CALLDATASIZE SUB DUP2 ADD SWAP1 PUSH2 0x6C8 SWAP2 SWAP1 PUSH2 0x39CE JUMP JUMPDEST PUSH2 0x24F8 JUMP JUMPDEST STOP JUMPDEST PUSH2 0x6E9 PUSH1 0x4 DUP1 CALLDATASIZE SUB DUP2 ADD SWAP1 PUSH2 0x6E4 SWAP2 SWAP1 PUSH2 0x36E3 JUMP JUMPDEST PUSH2 0x259A JUMP JUMPDEST PUSH1 0x40 MLOAD PUSH2 0x6F6 SWAP2 SWAP1 PUSH2 0x3710 JUMP JUMPDEST PUSH1 0x40 MLOAD DUP1 SWAP2 SUB SWAP1 RETURN JUMPDEST PUSH2 0x719 PUSH1 0x4 DUP1 CALLDATASIZE SUB DUP2 ADD SWAP1 PUSH2 0x714 SWAP2 SWAP1 PUSH2 0x33D9 JUMP JUMPDEST PUSH2 0x25B2 JUMP JUMPDEST STOP JUMPDEST PUSH1 0x14 PUSH1 0x0 SWAP1 SLOAD SWAP1 PUSH2 0x100 EXP SWAP1 DIV PUSH1 0xFF AND ISZERO PUSH2 0x76B JUMPI PUSH1 0x40 MLOAD PUSH32 0x8C379A000000000000000000000000000000000000000000000000000000000 DUP2 MSTORE PUSH1 0x4 ADD PUSH2 0x762 SWAP1 PUSH2 0x3A76 JUMP JUMPDEST PUSH1 0x40 MLOAD DUP1 SWAP2 SUB SWAP1 REVERT JUMPDEST PUSH1 0x1 PUSH1 0x14 PUSH1 0x0 PUSH2 0x100 EXP DUP2 SLOAD DUP2 PUSH1 0xFF MUL NOT AND SWAP1 DUP4 ISZERO ISZERO MUL OR SWAP1 SSTORE POP PUSH1 0x0 PUSH1 0x12 PUSH1 0x0 DUP4 DUP2 MSTORE PUSH1 0x20 ADD SWAP1 DUP2 MSTORE PUSH1 0x20 ADD PUSH1 0x0 KECCAK256 SWAP1 POP DUP1 PUSH1 0x6 ADD SLOAD TIMESTAMP LT PUSH2 0x7E3 JUMPI PUSH1 0x40 MLOAD PUSH32 0x8C379A000000000000000000000000000000000000000000000000000000000 DUP2 MSTORE PUSH1 0x4 ADD PUSH2 0x7DA SWAP1 PUSH2 0x3AE2 JUMP JUMPDEST PUSH1 0x40 MLOAD DUP1 SWAP2 SUB SWAP1 REVERT JUMPDEST DUP1 PUSH1 0x7 ADD PUSH1 0x0 CALLER PUSH20 0xFFFFFFFFFFFFFFFFFFFFFFFFFFFFFFFFFFFFFFFF AND PUSH20 0xFFFFFFFFFFFFFFFFFFFFFFFFFFFFFFFFFFFFFFFF AND DUP2 MSTORE PUSH1 0x20 ADD SWAP1 DUP2 MSTORE PUSH1 0x20 ADD PUSH1 0x0 KECCAK256 PUSH1 0x0 SWAP1 SLOAD SWAP1 PUSH2 0x100 EXP SWAP1 DIV PUSH1 0xFF AND ISZERO PUSH2 0x872 JUMPI PUSH1 0x40 MLOAD PUSH32 0x8C379A000000000000000000000000000000000000000000000000000000000 DUP2 MSTORE PUSH1 0x4 ADD PUSH2 0x869 SWAP1 PUSH2 0x3B4E JUMP JUMPDEST PUSH1 0x40 MLOAD DUP1 SWAP2 SUB SWAP1 REVERT JUMPDEST DUP1 PUSH1 0x5 ADD PUSH1 0x0 SWAP1 SLOAD SWAP1 PUSH2 0x100 EXP SWAP1 DIV PUSH1 0xFF AND ISZERO PUSH2 0x8C4 JUMPI PUSH1 0x40 MLOAD PUSH32 0x8C379A000000000000000000000000000000000000000000000000000000000 DUP2 MSTORE PUSH1 0x4 ADD PUSH2 0x8BB SWAP1 PUSH2 0x3BBA JUMP JUMPDEST PUSH1 0x40 MLOAD DUP1 SWAP2 SUB SWAP1 REVERT JUMPDEST PUSH1 0x0 PUSH1 0x1 PUSH1 0x0 SWAP1 SLOAD SWAP1 PUSH2 0x100 EXP SWAP1 DIV PUSH20 0xFFFFFFFFFFFFFFFFFFFFFFFFFFFFFFFFFFFFFFFF AND PUSH20 0xFFFFFFFFFFFFFFFFFFFFFFFFFFFFFFFFFFFFFFFF AND PUSH4 0x70A08231 CALLER PUSH1 0x40 MLOAD DUP3 PUSH4 0xFFFFFFFF AND PUSH1 0xE0 SHL DUP2 MSTORE PUSH1 0x4 ADD PUSH2 0x921 SWAP2 SWAP1 PUSH2 0x3936 JUMP JUMPDEST PUSH1 0x20 PUSH1 0x40 MLOAD DUP1 DUP4 SUB DUP2 DUP7 GAS STATICCALL ISZERO DUP1 ISZERO PUSH2 0x93E JUMPI RETURNDATASIZE PUSH1 0x0 DUP1 RETURNDATACOPY RETURNDATASIZE PUSH1 0x0 REVERT JUMPDEST POP POP POP POP PUSH1 0x40 MLOAD RETURNDATASIZE PUSH1 0x1F NOT PUSH1 0x1F DUP3 ADD AND DUP3 ADD DUP1 PUSH1 0x40 MSTORE POP DUP2 ADD SWAP1 PUSH2 0x962 SWAP2 SWAP1 PUSH2 0x3BEF JUMP JUMPDEST SWAP1 POP PUSH1 0x0 DUP2 GT PUSH2 0x9A7 JUMPI PUSH1 0x40 MLOAD PUSH32 0x8C379A000000000000000000000000000000000000000000000000000000000 DUP2 MSTORE PUSH1 0x4 ADD PUSH2 0x99E SWAP1 PUSH2 0x3C68 JUMP JUMPDEST PUSH1 0x40 MLOAD DUP1 SWAP2 SUB SWAP1 REVERT JUMPDEST PUSH1 0x1 DUP3 PUSH1 0x7 ADD PUSH1 0x0 CALLER PUSH20 0xFFFFFFFFFFFFFFFFFFFFFFFFFFFFFFFFFFFFFFFF AND PUSH20 0xFFFFFFFFFFFFFFFFFFFFFFFFFFFFFFFFFFFFFFFF AND DUP2 MSTORE PUSH1 0x20 ADD SWAP1 DUP2 MSTORE PUSH1 0x20 ADD PUSH1 0x0 KECCAK256 PUSH1 0x0 PUSH2 0x100 EXP DUP2 SLOAD DUP2 PUSH1 0xFF MUL NOT AND SWAP1 DUP4 ISZERO ISZERO MUL OR SWAP1 SSTORE POP DUP1 DUP3 PUSH1 0x4 ADD PUSH1 0x0 DUP3 DUP3 SLOAD PUSH2 0xA15 SWAP2 SWAP1 PUSH2 0x3CB7 JUMP JUMPDEST SWAP3 POP POP DUP2 SWAP1 SSTORE POP PUSH32 0x1ABE610CF2BF87E57DCC1181FCF5AC0934E843D8344AB9EED6E86C799F62585E DUP4 CALLER DUP4 PUSH1 0x40 MLOAD PUSH2 0xA4F SWAP4 SWAP3 SWAP2 SWAP1 PUSH2 0x3CEB JUMP JUMPDEST PUSH1 0x40 MLOAD DUP1 SWAP2 SUB SWAP1 LOG1 PUSH1 0x2 PUSH1 0x1 PUSH1 0x0 SWAP1 SLOAD SWAP1 PUSH2 0x100 EXP SWAP1 DIV PUSH20 0xFFFFFFFFFFFFFFFFFFFFFFFFFFFFFFFFFFFFFFFF AND PUSH20 0xFFFFFFFFFFFFFFFFFFFFFFFFFFFFFFFFFFFFFFFF AND PUSH4 0x18160DDD PUSH1 0x40 MLOAD DUP2 PUSH4 0xFFFFFFFF AND PUSH1 0xE0 SHL DUP2 MSTORE PUSH1 0x4 ADD PUSH1 0x20 PUSH1 0x40 MLOAD DUP1 DUP4 SUB DUP2 DUP7 GAS STATICCALL ISZERO DUP1 ISZERO PUSH2 0xAC6 JUMPI RETURNDATASIZE PUSH1 0x0 DUP1 RETURNDATACOPY RETURNDATASIZE PUSH1 0x0 REVERT JUMPDEST POP POP POP POP PUSH1 0x40 MLOAD RETURNDATASIZE PUSH1 0x1F NOT PUSH1 0x1F DUP3 ADD AND DUP3 ADD DUP1 PUSH1 0x40 MSTORE POP DUP2 ADD SWAP1 PUSH2 0xAEA SWAP2 SWAP1 PUSH2 0x3BEF JUMP JUMPDEST PUSH2 0xAF4 SWAP2 SWAP1 PUSH2 0x3D51 JUMP JUMPDEST DUP3 PUSH1 0x4 ADD SLOAD GT ISZERO PUSH2 0xB09 JUMPI PUSH2 0xB08 DUP3 PUSH2 0x264C JUMP JUMPDEST JUMPDEST POP POP PUSH1 0x0 PUSH1 0x14 PUSH1 0x0 PUSH2 0x100 EXP DUP2 SLOAD DUP2 PUSH1 0xFF MUL NOT AND SWAP1 DUP4 ISZERO ISZERO MUL OR SWAP1 SSTORE POP POP JUMP JUMPDEST PUSH1 0x12 PUSH1 0x20 MSTORE DUP1 PUSH1 0x0 MSTORE PUSH1 0x40 PUSH1 0x0 KECCAK256 PUSH1 0x0 SWAP2 POP SWAP1 POP DUP1 PUSH1 0x0 ADD SLOAD SWAP1 DUP1 PUSH1 0x1 ADD PUSH1 0x0 SWAP1 SLOAD SWAP1 PUSH2 0x100 EXP SWAP1 DIV PUSH1 0xFF AND SWAP1 DUP1 PUSH1 0x1 ADD PUSH1 0x1 SWAP1 SLOAD SWAP1 PUSH2 0x100 EXP SWAP1 DIV PUSH20 0xFFFFFFFFFFFFFFFFFFFFFFFFFFFFFFFFFFFFFFFF AND SWAP1 DUP1 PUSH1 0x2 ADD SLOAD SWAP1 DUP1 PUSH1 0x3 ADD DUP1 SLOAD PUSH2 0xB91 SWAP1 PUSH2 0x3DB1 JUMP JUMPDEST DUP1 PUSH1 0x1F ADD PUSH1 0x20 DUP1 SWAP2 DIV MUL PUSH1 0x20 ADD PUSH1 0x40 MLOAD SWAP1 DUP2 ADD PUSH1 0x40 MSTORE DUP1 SWAP3 SWAP2 SWAP1 DUP2 DUP2 MSTORE PUSH1 0x20 ADD DUP3 DUP1 SLOAD PUSH2 0xBBD SWAP1 PUSH2 0x3DB1 JUMP JUMPDEST DUP1 ISZERO PUSH2 0xC0A JUMPI DUP1 PUSH1 0x1F LT PUSH2 0xBDF JUMPI PUSH2 0x100 DUP1 DUP4 SLOAD DIV MUL DUP4 MSTORE SWAP2 PUSH1 0x20 ADD SWAP2 PUSH2 0xC0A JUMP JUMPDEST DUP3 ADD SWAP2 SWAP1 PUSH1 0x0 MSTORE PUSH1 0x20 PUSH1 0x0 KECCAK256 SWAP1 JUMPDEST DUP2 SLOAD DUP2 MSTORE SWAP1 PUSH1 0x1 ADD SWAP1 PUSH1 0x20 ADD DUP1 DUP4 GT PUSH2 0xBED JUMPI DUP3 SWAP1 SUB PUSH1 0x1F AND DUP3 ADD SWAP2 JUMPDEST POP POP POP POP POP SWAP1 DUP1 PUSH1 0x4 ADD SLOAD SWAP1 DUP1 PUSH1 0x5 ADD PUSH1 0x0 SWAP1 SLOAD SWAP1 PUSH2 0x100 EXP SWAP1 DIV PUSH1 0xFF AND SWAP1 DUP1 PUSH1 0x6 ADD SLOAD SWAP1 POP DUP9 JUMP JUMPDEST PUSH1 0x14 PUSH1 0x0 SWAP1 SLOAD SWAP1 PUSH2 0x100 EXP SWAP1 DIV PUSH1 0xFF AND ISZERO PUSH2 0xC83 JUMPI PUSH1 0x40 MLOAD PUSH32 0x8C379A000000000000000000000000000000000000000000000000000000000 DUP2 MSTORE PUSH1 0x4 ADD PUSH2 0xC7A SWAP1 PUSH2 0x3A76 JUMP JUMPDEST PUSH1 0x40 MLOAD DUP1 SWAP2 SUB SWAP1 REVERT JUMPDEST PUSH1 0x1 PUSH1 0x14 PUSH1 0x0 PUSH2 0x100 EXP DUP2 SLOAD DUP2 PUSH1 0xFF MUL NOT AND SWAP1 DUP4 ISZERO ISZERO MUL OR SWAP1 SSTORE POP PUSH2 0xCA8 DUP3 DUP3 PUSH2 0x2D15 JUMP JUMPDEST PUSH1 0x1 PUSH1 0x0 SWAP1 SLOAD SWAP1 PUSH2 0x100 EXP SWAP1 DIV PUSH20 0xFFFFFFFFFFFFFFFFFFFFFFFFFFFFFFFFFFFFFFFF AND PUSH20 0xFFFFFFFFFFFFFFFFFFFFFFFFFFFFFFFFFFFFFFFF AND PUSH4 0x23B872DD CALLER DUP5 DUP5 PUSH1 0x40 MLOAD DUP5 PUSH4 0xFFFFFFFF AND PUSH1 0xE0 SHL DUP2 MSTORE PUSH1 0x4 ADD PUSH2 0xD07 SWAP4 SWAP3 SWAP2 SWAP1 PUSH2 0x3DE2 JUMP JUMPDEST PUSH1 0x20 PUSH1 0x40 MLOAD DUP1 DUP4 SUB DUP2 PUSH1 0x0 DUP8 GAS CALL ISZERO DUP1 ISZERO PUSH2 0xD26 JUMPI RETURNDATASIZE PUSH1 0x0 DUP1 RETURNDATACOPY RETURNDATASIZE PUSH1 0x0 REVERT JUMPDEST POP POP POP POP PUSH1 0x40 MLOAD RETURNDATASIZE PUSH1 0x1F NOT PUSH1 0x1F DUP3 ADD AND DUP3 ADD DUP1 PUSH1 0x40 MSTORE POP DUP2 ADD SWAP1 PUSH2 0xD4A SWAP2 SWAP1 PUSH2 0x3E45 JUMP JUMPDEST PUSH2 0xD89 JUMPI PUSH1 0x40 MLOAD PUSH32 0x8C379A000000000000000000000000000000000000000000000000000000000 DUP2 MSTORE PUSH1 0x4 ADD PUSH2 0xD80 SWAP1 PUSH2 0x3EBE JUMP JUMPDEST PUSH1 0x40 MLOAD DUP1 SWAP2 SUB SWAP1 REVERT JUMPDEST PUSH1 0x0 DUP2 PUSH1 0x9 SLOAD PUSH2 0xD99 SWAP2 SWAP1 PUSH2 0x3EDE JUMP JUMPDEST SWAP1 POP DUP1 PUSH1 0xA PUSH1 0x0 CALLER PUSH20 0xFFFFFFFFFFFFFFFFFFFFFFFFFFFFFFFFFFFFFFFF AND PUSH20 0xFFFFFFFFFFFFFFFFFFFFFFFFFFFFFFFFFFFFFFFF AND DUP2 MSTORE PUSH1 0x20 ADD SWAP1 DUP2 MSTORE PUSH1 0x20 ADD PUSH1 0x0 KECCAK256 PUSH1 0x0 DUP3 DUP3 SLOAD PUSH2 0xDEA SWAP2 SWAP1 PUSH2 0x3F20 JUMP JUMPDEST SWAP3 POP POP DUP2 SWAP1 SSTORE POP DUP1 PUSH1 0xA PUSH1 0x0 DUP6 PUSH20 0xFFFFFFFFFFFFFFFFFFFFFFFFFFFFFFFFFFFFFFFF AND PUSH20 0xFFFFFFFFFFFFFFFFFFFFFFFFFFFFFFFFFFFFFFFF AND DUP2 MSTORE PUSH1 0x20 ADD SWAP1 DUP2 MSTORE PUSH1 0x20 ADD PUSH1 0x0 KECCAK256 PUSH1 0x0 DUP3 DUP3 SLOAD PUSH2 0xE40 SWAP2 SWAP1 PUSH2 0x3F64 JUMP JUMPDEST SWAP3 POP POP DUP2 SWAP1 SSTORE POP PUSH32 0x4F0F23D5D7F61E149D909D8F3EB8AA374832781E8FCB19751354B30223807374 CALLER DUP5 DUP5 PUSH1 0x40 MLOAD PUSH2 0xE7A SWAP4 SWAP3 SWAP2 SWAP1 PUSH2 0x3DE2 JUMP JUMPDEST PUSH1 0x40 MLOAD DUP1 SWAP2 SUB SWAP1 LOG1 POP PUSH1 0x0 PUSH1 0x14 PUSH1 0x0 PUSH2 0x100 EXP DUP2 SLOAD DUP2 PUSH1 0xFF MUL NOT AND SWAP1 DUP4 ISZERO ISZERO MUL OR SWAP1 SSTORE POP POP POP JUMP JUMPDEST PUSH1 0x1 PUSH1 0x0 SWAP1 SLOAD SWAP1 PUSH2 0x100 EXP SWAP1 DIV PUSH20 0xFFFFFFFFFFFFFFFFFFFFFFFFFFFFFFFFFFFFFFFF AND DUP2 JUMP JUMPDEST PUSH1 0x2 PUSH1 0x0 SWAP1 SLOAD SWAP1 PUSH2 0x100 EXP SWAP1 DIV PUSH20 0xFFFFFFFFFFFFFFFFFFFFFFFFFFFFFFFFFFFFFFFF AND PUSH20 0xFFFFFFFFFFFFFFFFFFFFFFFFFFFFFFFFFFFFFFFF AND CALLER PUSH20 0xFFFFFFFFFFFFFFFFFFFFFFFFFFFFFFFFFFFFFFFF AND EQ PUSH2 0xF58 JUMPI PUSH1 0x40 MLOAD PUSH32 0x8C379A000000000000000000000000000000000000000000000000000000000 DUP2 MSTORE PUSH1 0x4 ADD PUSH2 0xF4F SWAP1 PUSH2 0x3FF3 JUMP JUMPDEST PUSH1 0x40 MLOAD DUP1 SWAP2 SUB SWAP1 REVERT JUMPDEST PUSH1 0x14 PUSH1 0x0 SWAP1 SLOAD SWAP1 PUSH2 0x100 EXP SWAP1 DIV PUSH1 0xFF AND ISZERO PUSH2 0xFA8 JUMPI PUSH1 0x40 MLOAD PUSH32 0x8C379A000000000000000000000000000000000000000000000000000000000 DUP2 MSTORE PUSH1 0x4 ADD PUSH2 0xF9F SWAP1 PUSH2 0x3A76 JUMP JUMPDEST PUSH1 0x40 MLOAD DUP1 SWAP2 SUB SWAP1 REVERT JUMPDEST PUSH1 0x1 PUSH1 0x14 PUSH1 0x0 PUSH2 0x100 EXP DUP2 SLOAD DUP2 PUSH1 0xFF MUL NOT AND SWAP1 DUP4 ISZERO ISZERO MUL OR SWAP1 SSTORE POP PUSH1 0x0 PUSH1 0xD PUSH1 0x0 DUP4 PUSH20 0xFFFFFFFFFFFFFFFFFFFFFFFFFFFFFFFFFFFFFFFF AND PUSH20 0xFFFFFFFFFFFFFFFFFFFFFFFFFFFFFFFFFFFFFFFF AND DUP2 MSTORE PUSH1 0x20 ADD SWAP1 DUP2 MSTORE PUSH1 0x20 ADD PUSH1 0x0 KECCAK256 SLOAD SWAP1 POP PUSH1 0x0 DUP2 GT PUSH2 0x104A JUMPI PUSH1 0x40 MLOAD PUSH32 0x8C379A000000000000000000000000000000000000000000000000000000000 DUP2 MSTORE PUSH1 0x4 ADD PUSH2 0x1041 SWAP1 PUSH2 0x4085 JUMP JUMPDEST PUSH1 0x40 MLOAD DUP1 SWAP2 SUB SWAP1 REVERT JUMPDEST PUSH3 0x15180 PUSH1 0xE PUSH1 0x0 DUP5 PUSH20 0xFFFFFFFFFFFFFFFFFFFFFFFFFFFFFFFFFFFFFFFF AND PUSH20 0xFFFFFFFFFFFFFFFFFFFFFFFFFFFFFFFFFFFFFFFF AND DUP2 MSTORE PUSH1 0x20 ADD SWAP1 DUP2 MSTORE PUSH1 0x20 ADD PUSH1 0x0 KECCAK256 SLOAD PUSH2 0x1098 SWAP2 SWAP1 PUSH2 0x3CB7 JUMP JUMPDEST TIMESTAMP LT ISZERO PUSH2 0x10DA JUMPI PUSH1 0x40 MLOAD PUSH32 0x8C379A000000000000000000000000000000000000000000000000000000000 DUP2 MSTORE PUSH1 0x4 ADD PUSH2 0x10D1 SWAP1 PUSH2 0x40F1 JUMP JUMPDEST PUSH1 0x40 MLOAD DUP1 SWAP2 SUB SWAP1 REVERT JUMPDEST TIMESTAMP PUSH1 0xE PUSH1 0x0 DUP5 PUSH20 0xFFFFFFFFFFFFFFFFFFFFFFFFFFFFFFFFFFFFFFFF AND PUSH20 0xFFFFFFFFFFFFFFFFFFFFFFFFFFFFFFFFFFFFFFFF AND DUP2 MSTORE PUSH1 0x20 ADD SWAP1 DUP2 MSTORE PUSH1 0x20 ADD PUSH1 0x0 KECCAK256 DUP2 SWAP1 SSTORE POP PUSH2 0x1128 DUP3 DUP3 PUSH2 0x2EBC JUMP JUMPDEST PUSH32 0xFEA36C567A41C73FB142AE411F08565859D2842B21CAF06283E31EF06079B36A DUP3 DUP3 PUSH1 0x40 MLOAD PUSH2 0x1159 SWAP3 SWAP2 SWAP1 PUSH2 0x41A9 JUMP JUMPDEST PUSH1 0x40 MLOAD DUP1 SWAP2 SUB SWAP1 LOG1 POP PUSH1 0x0 PUSH1 0x14 PUSH1 0x0 PUSH2 0x100 EXP DUP2 SLOAD DUP2 PUSH1 0xFF MUL NOT AND SWAP1 DUP4 ISZERO ISZERO MUL OR SWAP1 SSTORE POP POP JUMP JUMPDEST PUSH1 0x3 SLOAD DUP2 JUMP JUMPDEST PUSH1 0x28 DUP2 JUMP JUMPDEST PUSH1 0x0 DUP1 SLOAD SWAP1 PUSH2 0x100 EXP SWAP1 DIV PUSH20 0xFFFFFFFFFFFFFFFFFFFFFFFFFFFFFFFFFFFFFFFF AND DUP2 JUMP JUMPDEST PUSH1 0x2 PUSH1 0x0 SWAP1 SLOAD SWAP1 PUSH2 0x100 EXP SWAP1 DIV PUSH20 0xFFFFFFFFFFFFFFFFFFFFFFFFFFFFFFFFFFFFFFFF AND PUSH20 0xFFFFFFFFFFFFFFFFFFFFFFFFFFFFFFFFFFFFFFFF AND CALLER PUSH20 0xFFFFFFFFFFFFFFFFFFFFFFFFFFFFFFFFFFFFFFFF AND EQ PUSH2 0x123F JUMPI PUSH1 0x40 MLOAD PUSH32 0x8C379A000000000000000000000000000000000000000000000000000000000 DUP2 MSTORE PUSH1 0x4 ADD PUSH2 0x1236 SWAP1 PUSH2 0x3FF3 JUMP JUMPDEST PUSH1 0x40 MLOAD DUP1 SWAP2 SUB SWAP1 REVERT JUMPDEST PUSH2 0x124C PUSH1 0x0 DUP5 DUP5 DUP5 PUSH2 0x30FC JUMP JUMPDEST POP POP POP JUMP JUMPDEST PUSH1 0x9 SLOAD DUP2 JUMP JUMPDEST PUSH1 0x11 PUSH1 0x20 MSTORE DUP1 PUSH1 0x0 MSTORE PUSH1 0x40 PUSH1 0x0 KECCAK256 PUSH1 0x0 SWAP2 POP SLOAD SWAP1 PUSH2 0x100 EXP SWAP1 DIV PUSH1 0xFF AND DUP2 JUMP JUMPDEST PUSH1 0x10 SLOAD DUP2 JUMP JUMPDEST PUSH1 0xF PUSH1 0x20 MSTORE DUP1 PUSH1 0x0 MSTORE PUSH1 0x40 PUSH1 0x0 KECCAK256 PUSH1 0x0 SWAP2 POP SWAP1 POP DUP1 PUSH1 0x0 ADD SLOAD SWAP1 DUP1 PUSH1 0x1 ADD DUP1 SLOAD PUSH2 0x12A6 SWAP1 PUSH2 0x3DB1 JUMP JUMPDEST DUP1 PUSH1 0x1F ADD PUSH1 0x20 DUP1 SWAP2 DIV MUL PUSH1 0x20 ADD PUSH1 0x40 MLOAD SWAP1 DUP2 ADD PUSH1 0x40 MSTORE DUP1 SWAP3 SWAP2 SWAP1 DUP2 DUP2 MSTORE PUSH1 0x20 ADD DUP3 DUP1 SLOAD PUSH2 0x12D2 SWAP1 PUSH2 0x3DB1 JUMP JUMPDEST DUP1 ISZERO PUSH2 0x131F JUMPI DUP1 PUSH1 0x1F LT PUSH2 0x12F4 JUMPI PUSH2 0x100 DUP1 DUP4 SLOAD DIV MUL DUP4 MSTORE SWAP2 PUSH1 0x20 ADD SWAP2 PUSH2 0x131F JUMP JUMPDEST DUP3 ADD SWAP2 SWAP1 PUSH1 0x0 MSTORE PUSH1 0x20 PUSH1 0x0 KECCAK256 SWAP1 JUMPDEST DUP2 SLOAD DUP2 MSTORE SWAP1 PUSH1 0x1 ADD SWAP1 PUSH1 0x20 ADD DUP1 DUP4 GT PUSH2 0x1302 JUMPI DUP3 SWAP1 SUB PUSH1 0x1F AND DUP3 ADD SWAP2 JUMPDEST POP POP POP POP POP SWAP1 DUP1 PUSH1 0x2 ADD PUSH1 0x0 SWAP1 SLOAD SWAP1 PUSH2 0x100 EXP SWAP1 DIV PUSH1 0xFF AND SWAP1 DUP1 PUSH1 0x3 ADD SLOAD SWAP1 POP DUP5 JUMP JUMPDEST PUSH1 0x14 DUP2 JUMP JUMPDEST PUSH1 0x2 PUSH1 0x0 SWAP1 SLOAD SWAP1 PUSH2 0x100 EXP SWAP1 DIV PUSH20 0xFFFFFFFFFFFFFFFFFFFFFFFFFFFFFFFFFFFFFFFF AND PUSH20 0xFFFFFFFFFFFFFFFFFFFFFFFFFFFFFFFFFFFFFFFF AND CALLER PUSH20 0xFFFFFFFFFFFFFFFFFFFFFFFFFFFFFFFFFFFFFFFF AND EQ PUSH2 0x13D7 JUMPI PUSH1 0x40 MLOAD PUSH32 0x8C379A000000000000000000000000000000000000000000000000000000000 DUP2 MSTORE PUSH1 0x4 ADD PUSH2 0x13CE SWAP1 PUSH2 0x3FF3 JUMP JUMPDEST PUSH1 0x40 MLOAD DUP1 SWAP2 SUB SWAP1 REVERT JUMPDEST PUSH2 0x13E4 PUSH1 0x1 DUP5 DUP5 DUP5 PUSH2 0x30FC JUMP JUMPDEST POP POP POP JUMP JUMPDEST PUSH1 0x6 SLOAD DUP2 JUMP JUMPDEST PUSH1 0x14 PUSH1 0x0 SWAP1 SLOAD SWAP1 PUSH2 0x100 EXP SWAP1 DIV PUSH1 0xFF AND ISZERO PUSH2 0x143F JUMPI PUSH1 0x40 MLOAD PUSH32 0x8C379A000000000000000000000000000000000000000000000000000000000 DUP2 MSTORE PUSH1 0x4 ADD PUSH2 0x1436 SWAP1 PUSH2 0x3A76 JUMP JUMPDEST PUSH1 0x40 MLOAD DUP1 SWAP2 SUB SWAP1 REVERT JUMPDEST PUSH1 0x1 PUSH1 0x14 PUSH1 0x0 PUSH2 0x100 EXP DUP2 SLOAD DUP2 PUSH1 0xFF MUL NOT AND SWAP1 DUP4 ISZERO ISZERO MUL OR SWAP1 SSTORE POP PUSH1 0x0 PUSH2 0x1465 CALLER PUSH2 0x18F2 JUMP JUMPDEST SWAP1 POP PUSH1 0x0 DUP2 GT PUSH2 0x14AA JUMPI PUSH1 0x40 MLOAD PUSH32 0x8C379A000000000000000000000000000000000000000000000000000000000 DUP2 MSTORE PUSH1 0x4 ADD PUSH2 0x14A1 SWAP1 PUSH2 0x4244 JUMP JUMPDEST PUSH1 0x40 MLOAD DUP1 SWAP2 SUB SWAP1 REVERT JUMPDEST DUP1 PUSH1 0xB PUSH1 0x0 CALLER PUSH20 0xFFFFFFFFFFFFFFFFFFFFFFFFFFFFFFFFFFFFFFFF AND PUSH20 0xFFFFFFFFFFFFFFFFFFFFFFFFFFFFFFFFFFFFFFFF AND DUP2 MSTORE PUSH1 0x20 ADD SWAP1 DUP2 MSTORE PUSH1 0x20 ADD PUSH1 0x0 KECCAK256 PUSH1 0x0 DUP3 DUP3 SLOAD PUSH2 0x14F9 SWAP2 SWAP1 PUSH2 0x3CB7 JUMP JUMPDEST SWAP3 POP POP DUP2 SWAP1 SSTORE POP DUP1 PUSH1 0x8 PUSH1 0x0 DUP3 DUP3 SLOAD PUSH2 0x1512 SWAP2 SWAP1 PUSH2 0x3CB7 JUMP JUMPDEST SWAP3 POP POP DUP2 SWAP1 SSTORE POP PUSH1 0x0 DUP1 SLOAD SWAP1 PUSH2 0x100 EXP SWAP1 DIV PUSH20 0xFFFFFFFFFFFFFFFFFFFFFFFFFFFFFFFFFFFFFFFF AND PUSH20 0xFFFFFFFFFFFFFFFFFFFFFFFFFFFFFFFFFFFFFFFF AND PUSH4 0xA9059CBB CALLER DUP4 PUSH1 0x40 MLOAD DUP4 PUSH4 0xFFFFFFFF AND PUSH1 0xE0 SHL DUP2 MSTORE PUSH1 0x4 ADD PUSH2 0x1574 SWAP3 SWAP2 SWAP1 PUSH2 0x4264 JUMP JUMPDEST PUSH1 0x20 PUSH1 0x40 MLOAD DUP1 DUP4 SUB DUP2 PUSH1 0x0 DUP8 GAS CALL ISZERO DUP1 ISZERO PUSH2 0x1593 JUMPI RETURNDATASIZE PUSH1 0x0 DUP1 RETURNDATACOPY RETURNDATASIZE PUSH1 0x0 REVERT JUMPDEST POP POP POP POP PUSH1 0x40 MLOAD RETURNDATASIZE PUSH1 0x1F NOT PUSH1 0x1F DUP3 ADD AND DUP3 ADD DUP1 PUSH1 0x40 MSTORE POP DUP2 ADD SWAP1 PUSH2 0x15B7 SWAP2 SWAP1 PUSH2 0x3E45 JUMP JUMPDEST PUSH2 0x15F6 JUMPI PUSH1 0x40 MLOAD PUSH32 0x8C379A000000000000000000000000000000000000000000000000000000000 DUP2 MSTORE PUSH1 0x4 ADD PUSH2 0x15ED SWAP1 PUSH2 0x42D9 JUMP JUMPDEST PUSH1 0x40 MLOAD DUP1 SWAP2 SUB SWAP1 REVERT JUMPDEST PUSH32 0x5EFA67896A23B651B741B525CAACBA039C00CA7853BE3DE8EB1F4269E8669C56 CALLER DUP3 PUSH1 0x40 MLOAD PUSH2 0x1627 SWAP3 SWAP2 SWAP1 PUSH2 0x4264 JUMP JUMPDEST PUSH1 0x40 MLOAD DUP1 SWAP2 SUB SWAP1 LOG1 POP PUSH1 0x0 PUSH1 0x14 PUSH1 0x0 PUSH2 0x100 EXP DUP2 SLOAD DUP2 PUSH1 0xFF MUL NOT AND SWAP1 DUP4 ISZERO ISZERO MUL OR SWAP1 SSTORE POP JUMP JUMPDEST PUSH1 0x2 PUSH1 0x0 SWAP1 SLOAD SWAP1 PUSH2 0x100 EXP SWAP1 DIV PUSH20 0xFFFFFFFFFFFFFFFFFFFFFFFFFFFFFFFFFFFFFFFF AND PUSH20 0xFFFFFFFFFFFFFFFFFFFFFFFFFFFFFFFFFFFFFFFF AND CALLER PUSH20 0xFFFFFFFFFFFFFFFFFFFFFFFFFFFFFFFFFFFFFFFF AND EQ PUSH2 0x16DD JUMPI PUSH1 0x40 MLOAD PUSH32 0x8C379A000000000000000000000000000000000000000000000000000000000 DUP2 MSTORE PUSH1 0x4 ADD PUSH2 0x16D4 SWAP1 PUSH2 0x3FF3 JUMP JUMPDEST PUSH1 0x40 MLOAD DUP1 SWAP2 SUB SWAP1 REVERT JUMPDEST PUSH2 0x16EA PUSH1 0x2 DUP5 DUP5 DUP5 PUSH2 0x30FC JUMP JUMPDEST POP POP POP JUMP JUMPDEST PUSH1 0x0 DUP1 PUSH1 0x0 DUP1 SLOAD SWAP1 PUSH2 0x100 EXP SWAP1 DIV PUSH20 0xFFFFFFFFFFFFFFFFFFFFFFFFFFFFFFFFFFFFFFFF AND PUSH20 0xFFFFFFFFFFFFFFFFFFFFFFFFFFFFFFFFFFFFFFFF AND PUSH4 0x70A08231 ADDRESS PUSH1 0x40 MLOAD DUP3 PUSH4 0xFFFFFFFF AND PUSH1 0xE0 SHL DUP2 MSTORE PUSH1 0x4 ADD PUSH2 0x174B SWAP2 SWAP1 PUSH2 0x3936 JUMP JUMPDEST PUSH1 0x20 PUSH1 0x40 MLOAD DUP1 DUP4 SUB DUP2 DUP7 GAS STATICCALL ISZERO DUP1 ISZERO PUSH2 0x1768 JUMPI RETURNDATASIZE PUSH1 0x0 DUP1 RETURNDATACOPY RETURNDATASIZE PUSH1 0x0 REVERT JUMPDEST POP POP POP POP PUSH1 0x40 MLOAD RETURNDATASIZE PUSH1 0x1F NOT PUSH1 0x1F DUP3 ADD AND DUP3 ADD DUP1 PUSH1 0x40 MSTORE POP DUP2 ADD SWAP1 PUSH2 0x178C SWAP2 SWAP1 PUSH2 0x3BEF JUMP JUMPDEST SWAP1 POP PUSH1 0x0 PUSH1 0x8 SLOAD PUSH1 0x7 SLOAD PUSH2 0x17A0 SWAP2 SWAP1 PUSH2 0x42F9 JUMP JUMPDEST SWAP1 POP PUSH1 0x0 DUP2 PUSH1 0x6 SLOAD PUSH2 0x17B2 SWAP2 SWAP1 PUSH2 0x3CB7 JUMP JUMPDEST SWAP1 POP DUP1 DUP4 GT ISZERO PUSH2 0x17D2 JUMPI DUP1 DUP4 PUSH2 0x17C8 SWAP2 SWAP1 PUSH2 0x42F9 JUMP JUMPDEST SWAP4 POP POP POP POP PUSH2 0x17DA JUMP JUMPDEST PUSH1 0x0 SWAP4 POP POP POP POP JUMPDEST SWAP1 JUMP JUMPDEST PUSH1 0x0 PUSH1 0x1 PUSH1 0x0 SWAP1 SLOAD SWAP1 PUSH2 0x100 EXP SWAP1 DIV PUSH20 0xFFFFFFFFFFFFFFFFFFFFFFFFFFFFFFFFFFFFFFFF AND PUSH20 0xFFFFFFFFFFFFFFFFFFFFFFFFFFFFFFFFFFFFFFFF AND PUSH4 0x70A08231 PUSH1 0x1 PUSH1 0x0 SWAP1 SLOAD SWAP1 PUSH2 0x100 EXP SWAP1 DIV PUSH20 0xFFFFFFFFFFFFFFFFFFFFFFFFFFFFFFFFFFFFFFFF AND PUSH1 0x40 MLOAD DUP3 PUSH4 0xFFFFFFFF AND PUSH1 0xE0 SHL DUP2 MSTORE PUSH1 0x4 ADD PUSH2 0x185C SWAP2 SWAP1 PUSH2 0x3936 JUMP JUMPDEST PUSH1 0x20 PUSH1 0x40 MLOAD DUP1 DUP4 SUB DUP2 DUP7 GAS STATICCALL ISZERO DUP1 ISZERO PUSH2 0x1879 JUMPI RETURNDATASIZE PUSH1 0x0 DUP1 RETURNDATACOPY RETURNDATASIZE PUSH1 0x0 REVERT JUMPDEST POP POP POP POP PUSH1 0x40 MLOAD RETURNDATASIZE PUSH1 0x1F NOT PUSH1 0x1F DUP3 ADD AND DUP3 ADD DUP1 PUSH1 0x40 MSTORE POP DUP2 ADD SWAP1 PUSH2 0x189D SWAP2 SWAP1 PUSH2 0x3BEF JUMP JUMPDEST SWAP1 POP SWAP1 JUMP JUMPDEST PUSH1 0x7 SLOAD DUP2 JUMP JUMPDEST PUSH1 0xC SLOAD DUP2 JUMP JUMPDEST PUSH1 0x2 PUSH1 0x0 SWAP1 SLOAD SWAP1 PUSH2 0x100 EXP SWAP1 DIV PUSH20 0xFFFFFFFFFFFFFFFFFFFFFFFFFFFFFFFFFFFFFFFF AND DUP2 JUMP JUMPDEST PUSH1 0xA PUSH1 0x20 MSTORE DUP1 PUSH1 0x0 MSTORE PUSH1 0x40 PUSH1 0x0 KECCAK256 PUSH1 0x0 SWAP2 POP SWAP1 POP SLOAD DUP2 JUMP JUMPDEST PUSH1 0x8 SLOAD DUP2 JUMP JUMPDEST PUSH1 0x0 DUP1 PUSH1 0x1 PUSH1 0x0 SWAP1 SLOAD SWAP1 PUSH2 0x100 EXP SWAP1 DIV PUSH20 0xFFFFFFFFFFFFFFFFFFFFFFFFFFFFFFFFFFFFFFFF AND PUSH20 0xFFFFFFFFFFFFFFFFFFFFFFFFFFFFFFFFFFFFFFFF AND PUSH4 0x70A08231 DUP5 PUSH1 0x40 MLOAD DUP3 PUSH4 0xFFFFFFFF AND PUSH1 0xE0 SHL DUP2 MSTORE PUSH1 0x4 ADD PUSH2 0x1950 SWAP2 SWAP1 PUSH2 0x3936 JUMP JUMPDEST PUSH1 0x20 PUSH1 0x40 MLOAD DUP1 DUP4 SUB DUP2 DUP7 GAS STATICCALL ISZERO DUP1 ISZERO PUSH2 0x196D JUMPI RETURNDATASIZE PUSH1 0x0 DUP1 RETURNDATACOPY RETURNDATASIZE PUSH1 0x0 REVERT JUMPDEST POP POP POP POP PUSH1 0x40 MLOAD RETURNDATASIZE PUSH1 0x1F NOT PUSH1 0x1F DUP3 ADD AND DUP3 ADD DUP1 PUSH1 0x40 MSTORE POP DUP2 ADD SWAP1 PUSH2 0x1991 SWAP2 SWAP1 PUSH2 0x3BEF JUMP JUMPDEST SWAP1 POP PUSH1 0x0 DUP2 SUB PUSH2 0x19A5 JUMPI PUSH1 0x0 SWAP2 POP POP PUSH2 0x1A94 JUMP JUMPDEST PUSH1 0x0 PUSH1 0x9 SLOAD DUP3 PUSH2 0x19B5 SWAP2 SWAP1 PUSH2 0x3EDE JUMP JUMPDEST SWAP1 POP PUSH1 0x0 PUSH1 0xA PUSH1 0x0 DUP7 PUSH20 0xFFFFFFFFFFFFFFFFFFFFFFFFFFFFFFFFFFFFFFFF AND PUSH20 0xFFFFFFFFFFFFFFFFFFFFFFFFFFFFFFFFFFFFFFFF AND DUP2 MSTORE PUSH1 0x20 ADD SWAP1 DUP2 MSTORE PUSH1 0x20 ADD PUSH1 0x0 KECCAK256 SLOAD SWAP1 POP PUSH1 0x0 PUSH17 0x100000000000000000000000000000000 DUP3 DUP5 PUSH2 0x1A1B SWAP2 SWAP1 PUSH2 0x3F20 JUMP JUMPDEST PUSH2 0x1A25 SWAP2 SWAP1 PUSH2 0x3D51 JUMP JUMPDEST SWAP1 POP PUSH1 0x0 PUSH1 0xB PUSH1 0x0 DUP9 PUSH20 0xFFFFFFFFFFFFFFFFFFFFFFFFFFFFFFFFFFFFFFFF AND PUSH20 0xFFFFFFFFFFFFFFFFFFFFFFFFFFFFFFFFFFFFFFFF AND DUP2 MSTORE PUSH1 0x20 ADD SWAP1 DUP2 MSTORE PUSH1 0x20 ADD PUSH1 0x0 KECCAK256 SLOAD SWAP1 POP DUP1 DUP3 GT PUSH2 0x1A80 JUMPI PUSH1 0x0 SWAP6 POP POP POP POP POP POP PUSH2 0x1A94 JUMP JUMPDEST DUP1 DUP3 PUSH2 0x1A8C SWAP2 SWAP1 PUSH2 0x42F9 JUMP JUMPDEST SWAP6 POP POP POP POP POP POP JUMPDEST SWAP2 SWAP1 POP JUMP JUMPDEST PUSH1 0xE PUSH1 0x20 MSTORE DUP1 PUSH1 0x0 MSTORE PUSH1 0x40 PUSH1 0x0 KECCAK256 PUSH1 0x0 SWAP2 POP SWAP1 POP SLOAD DUP2 JUMP JUMPDEST PUSH1 0x14 PUSH1 0x0 SWAP1 SLOAD SWAP1 PUSH2 0x100 EXP SWAP1 DIV PUSH1 0xFF AND ISZERO PUSH2 0x1B01 JUMPI PUSH1 0x40 MLOAD PUSH32 0x8C379A000000000000000000000000000000000000000000000000000000000 DUP2 MSTORE PUSH1 0x4 ADD PUSH2 0x1AF8 SWAP1 PUSH2 0x3A76 JUMP JUMPDEST PUSH1 0x40 MLOAD DUP1 SWAP2 SUB SWAP1 REVERT JUMPDEST PUSH1 0x1 PUSH1 0x14 PUSH1 0x0 PUSH2 0x100 EXP DUP2 SLOAD DUP2 PUSH1 0xFF MUL NOT AND SWAP1 DUP4 ISZERO ISZERO MUL OR SWAP1 SSTORE POP PUSH1 0xF PUSH1 0x0 DUP3 DUP2 MSTORE PUSH1 0x20 ADD SWAP1 DUP2 MSTORE PUSH1 0x20 ADD PUSH1 0x0 KECCAK256 PUSH1 0x2 ADD PUSH1 0x0 SWAP1 SLOAD SWAP1 PUSH2 0x100 EXP SWAP1 DIV PUSH1 0xFF AND PUSH2 0x1B7F JUMPI PUSH1 0x40 MLOAD PUSH32 0x8C379A000000000000000000000000000000000000000000000000000000000 DUP2 MSTORE PUSH1 0x4 ADD PUSH2 0x1B76 SWAP1 PUSH2 0x4379 JUMP JUMPDEST PUSH1 0x40 MLOAD DUP1 SWAP2 SUB SWAP1 REVERT JUMPDEST PUSH1 0x0 PUSH1 0x3 SLOAD SWAP1 POP PUSH1 0x0 DUP1 SLOAD SWAP1 PUSH2 0x100 EXP SWAP1 DIV PUSH20 0xFFFFFFFFFFFFFFFFFFFFFFFFFFFFFFFFFFFFFFFF AND PUSH20 0xFFFFFFFFFFFFFFFFFFFFFFFFFFFFFFFFFFFFFFFF AND PUSH4 0x23B872DD CALLER ADDRESS DUP5 PUSH1 0x40 MLOAD DUP5 PUSH4 0xFFFFFFFF AND PUSH1 0xE0 SHL DUP2 MSTORE PUSH1 0x4 ADD PUSH2 0x1BE3 SWAP4 SWAP3 SWAP2 SWAP1 PUSH2 0x3DE2 JUMP JUMPDEST PUSH1 0x20 PUSH1 0x40 MLOAD DUP1 DUP4 SUB DUP2 PUSH1 0x0 DUP8 GAS CALL ISZERO DUP1 ISZERO PUSH2 0x1C02 JUMPI RETURNDATASIZE PUSH1 0x0 DUP1 RETURNDATACOPY RETURNDATASIZE PUSH1 0x0 REVERT JUMPDEST POP POP POP POP PUSH1 0x40 MLOAD RETURNDATASIZE PUSH1 0x1F NOT PUSH1 0x1F DUP3 ADD AND DUP3 ADD DUP1 PUSH1 0x40 MSTORE POP DUP2 ADD SWAP1 PUSH2 0x1C26 SWAP2 SWAP1 PUSH2 0x3E45 JUMP JUMPDEST PUSH2 0x1C65 JUMPI PUSH1 0x40 MLOAD PUSH32 0x8C379A000000000000000000000000000000000000000000000000000000000 DUP2 MSTORE PUSH1 0x4 ADD PUSH2 0x1C5C SWAP1 PUSH2 0x43E5 JUMP JUMPDEST PUSH1 0x40 MLOAD DUP1 SWAP2 SUB SWAP1 REVERT JUMPDEST DUP1 PUSH1 0xF PUSH1 0x0 DUP5 DUP2 MSTORE PUSH1 0x20 ADD SWAP1 DUP2 MSTORE PUSH1 0x20 ADD PUSH1 0x0 KECCAK256 PUSH1 0x3 ADD PUSH1 0x0 DUP3 DUP3 SLOAD PUSH2 0x1C8B SWAP2 SWAP1 PUSH2 0x3CB7 JUMP JUMPDEST SWAP3 POP POP DUP2 SWAP1 SSTORE POP DUP1 PUSH1 0x5 PUSH1 0x0 DUP3 DUP3 SLOAD PUSH2 0x1CA4 SWAP2 SWAP1 PUSH2 0x3CB7 JUMP JUMPDEST SWAP3 POP POP DUP2 SWAP1 SSTORE POP PUSH1 0x0 PUSH1 0x4 SLOAD DUP3 GT ISZERO PUSH2 0x1CC8 JUMPI PUSH1 0x4 SLOAD DUP3 PUSH2 0x1CC5 SWAP2 SWAP1 PUSH2 0x42F9 JUMP JUMPDEST SWAP1 POP JUMPDEST PUSH1 0x0 DUP2 GT ISZERO PUSH2 0x1EE3 JUMPI PUSH1 0x0 PUSH1 0x64 PUSH1 0x14 DUP4 PUSH2 0x1CE2 SWAP2 SWAP1 PUSH2 0x3EDE JUMP JUMPDEST PUSH2 0x1CEC SWAP2 SWAP1 PUSH2 0x3D51 JUMP JUMPDEST SWAP1 POP PUSH1 0x0 PUSH1 0x64 PUSH1 0x50 DUP5 PUSH2 0x1CFF SWAP2 SWAP1 PUSH2 0x3EDE JUMP JUMPDEST PUSH2 0x1D09 SWAP2 SWAP1 PUSH2 0x3D51 JUMP JUMPDEST SWAP1 POP DUP2 PUSH1 0x6 PUSH1 0x0 DUP3 DUP3 SLOAD PUSH2 0x1D1D SWAP2 SWAP1 PUSH2 0x3CB7 JUMP JUMPDEST SWAP3 POP POP DUP2 SWAP1 SSTORE POP DUP1 PUSH1 0x7 PUSH1 0x0 DUP3 DUP3 SLOAD PUSH2 0x1D36 SWAP2 SWAP1 PUSH2 0x3CB7 JUMP JUMPDEST SWAP3 POP POP DUP2 SWAP1 SSTORE POP PUSH1 0x0 PUSH1 0x1 PUSH1 0x0 SWAP1 SLOAD SWAP1 PUSH2 0x100 EXP SWAP1 DIV PUSH20 0xFFFFFFFFFFFFFFFFFFFFFFFFFFFFFFFFFFFFFFFF AND PUSH20 0xFFFFFFFFFFFFFFFFFFFFFFFFFFFFFFFFFFFFFFFF AND PUSH4 0x18160DDD PUSH1 0x40 MLOAD DUP2 PUSH4 0xFFFFFFFF AND PUSH1 0xE0 SHL DUP2 MSTORE PUSH1 0x4 ADD PUSH1 0x20 PUSH1 0x40 MLOAD DUP1 DUP4 SUB DUP2 DUP7 GAS STATICCALL ISZERO DUP1 ISZERO PUSH2 0x1DAC JUMPI RETURNDATASIZE PUSH1 0x0 DUP1 RETURNDATACOPY RETURNDATASIZE PUSH1 0x0 REVERT JUMPDEST POP POP POP POP PUSH1 0x40 MLOAD RETURNDATASIZE PUSH1 0x1F NOT PUSH1 0x1F DUP3 ADD AND DUP3 ADD DUP1 PUSH1 0x40 MSTORE POP DUP2 ADD SWAP1 PUSH2 0x1DD0 SWAP2 SWAP1 PUSH2 0x3BEF JUMP JUMPDEST GT ISZERO PUSH2 0x1EE0 JUMPI PUSH1 0x1 PUSH1 0x0 SWAP1 SLOAD SWAP1 PUSH2 0x100 EXP SWAP1 DIV PUSH20 0xFFFFFFFFFFFFFFFFFFFFFFFFFFFFFFFFFFFFFFFF AND PUSH20 0xFFFFFFFFFFFFFFFFFFFFFFFFFFFFFFFFFFFFFFFF AND PUSH4 0x18160DDD PUSH1 0x40 MLOAD DUP2 PUSH4 0xFFFFFFFF AND PUSH1 0xE0 SHL DUP2 MSTORE PUSH1 0x4 ADD PUSH1 0x20 PUSH1 0x40 MLOAD DUP1 DUP4 SUB DUP2 DUP7 GAS STATICCALL ISZERO DUP1 ISZERO PUSH2 0x1E43 JUMPI RETURNDATASIZE PUSH1 0x0 DUP1 RETURNDATACOPY RETURNDATASIZE PUSH1 0x0 REVERT JUMPDEST POP POP POP POP PUSH1 0x40 MLOAD RETURNDATASIZE PUSH1 0x1F NOT PUSH1 0x1F DUP3 ADD AND DUP3 ADD DUP1 PUSH1 0x40 MSTORE POP DUP2 ADD SWAP1 PUSH2 0x1E67 SWAP2 SWAP1 PUSH2 0x3BEF JUMP JUMPDEST PUSH17 0x100000000000000000000000000000000 DUP3 PUSH2 0x1E84 SWAP2 SWAP1 PUSH2 0x3EDE JUMP JUMPDEST PUSH2 0x1E8E SWAP2 SWAP1 PUSH2 0x3D51 JUMP JUMPDEST PUSH1 0x9 PUSH1 0x0 DUP3 DUP3 SLOAD PUSH2 0x1E9F SWAP2 SWAP1 PUSH2 0x3CB7 JUMP JUMPDEST SWAP3 POP POP DUP2 SWAP1 SSTORE POP PUSH32 0x5FA156A16C825EDD8AD1C2BD96F4BC48D9844E12F14D69D8B4A9E72FFB62E8EB DUP2 DUP4 PUSH1 0x40 MLOAD PUSH2 0x1ED7 SWAP3 SWAP2 SWAP1 PUSH2 0x4405 JUMP JUMPDEST PUSH1 0x40 MLOAD DUP1 SWAP2 SUB SWAP1 LOG1 JUMPDEST POP POP JUMPDEST DUP3 PUSH32 0x33C78A468564BB55F4AD7BDD3E75B0C6B352A20D569A47F0CD10ABA28DBDDFB4 CALLER DUP5 PUSH1 0x40 MLOAD PUSH2 0x1F15 SWAP3 SWAP2 SWAP1 PUSH2 0x4264 JUMP JUMPDEST PUSH1 0x40 MLOAD DUP1 SWAP2 SUB SWAP1 LOG2 POP POP PUSH1 0x0 PUSH1 0x14 PUSH1 0x0 PUSH2 0x100 EXP DUP2 SLOAD DUP2 PUSH1 0xFF MUL NOT AND SWAP1 DUP4 ISZERO ISZERO MUL OR SWAP1 SSTORE POP POP JUMP JUMPDEST PUSH1 0x50 DUP2 JUMP JUMPDEST PUSH1 0x5 SLOAD DUP2 JUMP JUMPDEST PUSH1 0x4 SLOAD DUP2 JUMP JUMPDEST PUSH1 0x14 PUSH1 0x0 SWAP1 SLOAD SWAP1 PUSH2 0x100 EXP SWAP1 DIV PUSH1 0xFF AND ISZERO PUSH2 0x1F9E JUMPI PUSH1 0x40 MLOAD PUSH32 0x8C379A000000000000000000000000000000000000000000000000000000000 DUP2 MSTORE PUSH1 0x4 ADD PUSH2 0x1F95 SWAP1 PUSH2 0x3A76 JUMP JUMPDEST PUSH1 0x40 MLOAD DUP1 SWAP2 SUB SWAP1 REVERT JUMPDEST PUSH1 0x1 PUSH1 0x14 PUSH1 0x0 PUSH2 0x100 EXP DUP2 SLOAD DUP2 PUSH1 0xFF MUL NOT AND SWAP1 DUP4 ISZERO ISZERO MUL OR SWAP1 SSTORE POP PUSH1 0x0 PUSH1 0x1 PUSH1 0x0 SWAP1 SLOAD SWAP1 PUSH2 0x100 EXP SWAP1 DIV PUSH20 0xFFFFFFFFFFFFFFFFFFFFFFFFFFFFFFFFFFFFFFFF AND PUSH20 0xFFFFFFFFFFFFFFFFFFFFFFFFFFFFFFFFFFFFFFFF AND PUSH4 0x70A08231 PUSH1 0x1 PUSH1 0x0 SWAP1 SLOAD SWAP1 PUSH2 0x100 EXP SWAP1 DIV PUSH20 0xFFFFFFFFFFFFFFFFFFFFFFFFFFFFFFFFFFFFFFFF AND PUSH1 0x40 MLOAD DUP3 PUSH4 0xFFFFFFFF AND PUSH1 0xE0 SHL DUP2 MSTORE PUSH1 0x4 ADD PUSH2 0x2038 SWAP2 SWAP1 PUSH2 0x3936 JUMP JUMPDEST PUSH1 0x20 PUSH1 0x40 MLOAD DUP1 DUP4 SUB DUP2 DUP7 GAS STATICCALL ISZERO DUP1 ISZERO PUSH2 0x2055 JUMPI RETURNDATASIZE PUSH1 0x0 DUP1 RETURNDATACOPY RETURNDATASIZE PUSH1 0x0 REVERT JUMPDEST POP POP POP POP PUSH1 0x40 MLOAD RETURNDATASIZE PUSH1 0x1F NOT PUSH1 0x1F DUP3 ADD AND DUP3 ADD DUP1 PUSH1 0x40 MSTORE POP DUP2 ADD SWAP1 PUSH2 0x2079 SWAP2 SWAP1 PUSH2 0x3BEF JUMP JUMPDEST SWAP1 POP DUP2 DUP2 LT ISZERO PUSH2 0x20BE JUMPI PUSH1 0x40 MLOAD PUSH32 0x8C379A000000000000000000000000000000000000000000000000000000000 DUP2 MSTORE PUSH1 0x4 ADD PUSH2 0x20B5 SWAP1 PUSH2 0x447A JUMP JUMPDEST PUSH1 0x40 MLOAD DUP1 SWAP2 SUB SWAP1 REVERT JUMPDEST PUSH2 0x20C8 CALLER DUP4 PUSH2 0x2D15 JUMP JUMPDEST PUSH1 0x0 PUSH8 0xDE0B6B3A7640000 PUSH1 0xC SLOAD DUP5 PUSH2 0x20E1 SWAP2 SWAP1 PUSH2 0x3EDE JUMP JUMPDEST PUSH2 0x20EB SWAP2 SWAP1 PUSH2 0x3D51 JUMP JUMPDEST SWAP1 POP PUSH1 0x0 DUP1 SLOAD SWAP1 PUSH2 0x100 EXP SWAP1 DIV PUSH20 0xFFFFFFFFFFFFFFFFFFFFFFFFFFFFFFFFFFFFFFFF AND PUSH20 0xFFFFFFFFFFFFFFFFFFFFFFFFFFFFFFFFFFFFFFFF AND PUSH4 0x23B872DD CALLER ADDRESS DUP5 PUSH1 0x40 MLOAD DUP5 PUSH4 0xFFFFFFFF AND PUSH1 0xE0 SHL DUP2 MSTORE PUSH1 0x4 ADD PUSH2 0x214A SWAP4 SWAP3 SWAP2 SWAP1 PUSH2 0x3DE2 JUMP JUMPDEST PUSH1 0x20 PUSH1 0x40 MLOAD DUP1 DUP4 SUB DUP2 PUSH1 0x0 DUP8 GAS CALL ISZERO DUP1 ISZERO PUSH2 0x2169 JUMPI RETURNDATASIZE PUSH1 0x0 DUP1 RETURNDATACOPY RETURNDATASIZE PUSH1 0x0 REVERT JUMPDEST POP POP POP POP PUSH1 0x40 MLOAD RETURNDATASIZE PUSH1 0x1F NOT PUSH1 0x1F DUP3 ADD AND DUP3 ADD DUP1 PUSH1 0x40 MSTORE POP DUP2 ADD SWAP1 PUSH2 0x218D SWAP2 SWAP1 PUSH2 0x3E45 JUMP JUMPDEST PUSH2 0x21CC JUMPI PUSH1 0x40 MLOAD PUSH32 0x8C379A000000000000000000000000000000000000000000000000000000000 DUP2 MSTORE PUSH1 0x4 ADD PUSH2 0x21C3 SWAP1 PUSH2 0x44E6 JUMP JUMPDEST PUSH1 0x40 MLOAD DUP1 SWAP2 SUB SWAP1 REVERT JUMPDEST PUSH1 0x1 PUSH1 0x0 SWAP1 SLOAD SWAP1 PUSH2 0x100 EXP SWAP1 DIV PUSH20 0xFFFFFFFFFFFFFFFFFFFFFFFFFFFFFFFFFFFFFFFF AND PUSH20 0xFFFFFFFFFFFFFFFFFFFFFFFFFFFFFFFFFFFFFFFF AND PUSH4 0x23B872DD PUSH1 0x1 PUSH1 0x0 SWAP1 SLOAD SWAP1 PUSH2 0x100 EXP SWAP1 DIV PUSH20 0xFFFFFFFFFFFFFFFFFFFFFFFFFFFFFFFFFFFFFFFF AND CALLER DUP7 PUSH1 0x40 MLOAD DUP5 PUSH4 0xFFFFFFFF AND PUSH1 0xE0 SHL DUP2 MSTORE PUSH1 0x4 ADD PUSH2 0x224D SWAP4 SWAP3 SWAP2 SWAP1 PUSH2 0x3DE2 JUMP JUMPDEST PUSH1 0x20 PUSH1 0x40 MLOAD DUP1 DUP4 SUB DUP2 PUSH1 0x0 DUP8 GAS CALL ISZERO DUP1 ISZERO PUSH2 0x226C JUMPI RETURNDATASIZE PUSH1 0x0 DUP1 RETURNDATACOPY RETURNDATASIZE PUSH1 0x0 REVERT JUMPDEST POP POP POP POP PUSH1 0x40 MLOAD RETURNDATASIZE PUSH1 0x1F NOT PUSH1 0x1F DUP3 ADD AND DUP3 ADD DUP1 PUSH1 0x40 MSTORE POP DUP2 ADD SWAP1 PUSH2 0x2290 SWAP2 SWAP1 PUSH2 0x3E45 JUMP JUMPDEST PUSH2 0x22CF JUMPI PUSH1 0x40 MLOAD PUSH32 0x8C379A000000000000000000000000000000000000000000000000000000000 DUP2 MSTORE PUSH1 0x4 ADD PUSH2 0x22C6 SWAP1 PUSH2 0x4552 JUMP JUMPDEST PUSH1 0x40 MLOAD DUP1 SWAP2 SUB SWAP1 REVERT JUMPDEST DUP1 PUSH1 0x6 PUSH1 0x0 DUP3 DUP3 SLOAD PUSH2 0x22E1 SWAP2 SWAP1 PUSH2 0x3CB7 JUMP JUMPDEST SWAP3 POP POP DUP2 SWAP1 SSTORE POP DUP3 PUSH1 0x9 SLOAD PUSH2 0x22F6 SWAP2 SWAP1 PUSH2 0x3EDE JUMP JUMPDEST PUSH1 0xA PUSH1 0x0 CALLER PUSH20 0xFFFFFFFFFFFFFFFFFFFFFFFFFFFFFFFFFFFFFFFF AND PUSH20 0xFFFFFFFFFFFFFFFFFFFFFFFFFFFFFFFFFFFFFFFF AND DUP2 MSTORE PUSH1 0x20 ADD SWAP1 DUP2 MSTORE PUSH1 0x20 ADD PUSH1 0x0 KECCAK256 PUSH1 0x0 DUP3 DUP3 SLOAD PUSH2 0x2344 SWAP2 SWAP1 PUSH2 0x3F64 JUMP JUMPDEST SWAP3 POP POP DUP2 SWAP1 SSTORE POP PUSH32 0x630B54F21D1C5AE41C4633AD96E8C15CE15665365EDED6A38476FFA71C8ACE6C CALLER DUP5 DUP4 PUSH1 0x40 MLOAD PUSH2 0x237E SWAP4 SWAP3 SWAP2 SWAP1 PUSH2 0x4572 JUMP JUMPDEST PUSH1 0x40 MLOAD DUP1 SWAP2 SUB SWAP1 LOG1 POP POP PUSH1 0x0 PUSH1 0x14 PUSH1 0x0 PUSH2 0x100 EXP DUP2 SLOAD DUP2 PUSH1 0xFF MUL NOT AND SWAP1 DUP4 ISZERO ISZERO MUL OR SWAP1 SSTORE POP POP JUMP JUMPDEST PUSH1 0x2 PUSH1 0x0 SWAP1 SLOAD SWAP1 PUSH2 0x100 EXP SWAP1 DIV PUSH20 0xFFFFFFFFFFFFFFFFFFFFFFFFFFFFFFFFFFFFFFFF AND PUSH20 0xFFFFFFFFFFFFFFFFFFFFFFFFFFFFFFFFFFFFFFFF AND CALLER PUSH20 0xFFFFFFFFFFFFFFFFFFFFFFFFFFFFFFFFFFFFFFFF AND EQ PUSH2 0x2436 JUMPI PUSH1 0x40 MLOAD PUSH32 0x8C379A000000000000000000000000000000000000000000000000000000000 DUP2 MSTORE PUSH1 0x4 ADD PUSH2 0x242D SWAP1 PUSH2 0x3FF3 JUMP JUMPDEST PUSH1 0x40 MLOAD DUP1 SWAP2 SUB SWAP1 REVERT JUMPDEST PUSH1 0x10 PUSH1 0x0 DUP2 SLOAD DUP1 SWAP3 SWAP2 SWAP1 PUSH2 0x2449 SWAP1 PUSH2 0x45A9 JUMP JUMPDEST SWAP2 SWAP1 POP SSTORE POP PUSH1 0x40 MLOAD DUP1 PUSH1 0x80 ADD PUSH1 0x40 MSTORE DUP1 PUSH1 0x10 SLOAD DUP2 MSTORE PUSH1 0x20 ADD DUP3 DUP2 MSTORE PUSH1 0x20 ADD PUSH1 0x1 ISZERO ISZERO DUP2 MSTORE PUSH1 0x20 ADD PUSH1 0x0 DUP2 MSTORE POP PUSH1 0xF PUSH1 0x0 PUSH1 0x10 SLOAD DUP2 MSTORE PUSH1 0x20 ADD SWAP1 DUP2 MSTORE PUSH1 0x20 ADD PUSH1 0x0 KECCAK256 PUSH1 0x0 DUP3 ADD MLOAD DUP2 PUSH1 0x0 ADD SSTORE PUSH1 0x20 DUP3 ADD MLOAD DUP2 PUSH1 0x1 ADD SWAP1 DUP2 PUSH2 0x24A9 SWAP2 SWAP1 PUSH2 0x4793 JUMP JUMPDEST POP PUSH1 0x40 DUP3 ADD MLOAD DUP2 PUSH1 0x2 ADD PUSH1 0x0 PUSH2 0x100 EXP DUP2 SLOAD DUP2 PUSH1 0xFF MUL NOT AND SWAP1 DUP4 ISZERO ISZERO MUL OR SWAP1 SSTORE POP PUSH1 0x60 DUP3 ADD MLOAD DUP2 PUSH1 0x3 ADD SSTORE SWAP1 POP POP POP JUMP JUMPDEST PUSH1 0x13 SLOAD DUP2 JUMP JUMPDEST PUSH1 0xB PUSH1 0x20 MSTORE DUP1 PUSH1 0x0 MSTORE PUSH1 0x40 PUSH1 0x0 KECCAK256 PUSH1 0x0 SWAP2 POP SWAP1 POP SLOAD DUP2 JUMP JUMPDEST PUSH1 0x2 PUSH1 0x0 SWAP1 SLOAD SWAP1 PUSH2 0x100 EXP SWAP1 DIV PUSH20 0xFFFFFFFFFFFFFFFFFFFFFFFFFFFFFFFFFFFFFFFF AND PUSH20 0xFFFFFFFFFFFFFFFFFFFFFFFFFFFFFFFFFFFFFFFF AND CALLER PUSH20 0xFFFFFFFFFFFFFFFFFFFFFFFFFFFFFFFFFFFFFFFF AND EQ PUSH2 0x2588 JUMPI PUSH1 0x40 MLOAD PUSH32 0x8C379A000000000000000000000000000000000000000000000000000000000 DUP2 MSTORE PUSH1 0x4 ADD PUSH2 0x257F SWAP1 PUSH2 0x3FF3 JUMP JUMPDEST PUSH1 0x40 MLOAD DUP1 SWAP2 SUB SWAP1 REVERT JUMPDEST PUSH2 0x2596 PUSH1 0x3 DUP4 PUSH1 0x0 DUP5 PUSH2 0x30FC JUMP JUMPDEST POP POP JUMP JUMPDEST PUSH1 0xD PUSH1 0x20 MSTORE DUP1 PUSH1 0x0 MSTORE PUSH1 0x40 PUSH1 0x0 KECCAK256 PUSH1 0x0 SWAP2 POP SWAP1 POP SLOAD DUP2 JUMP JUMPDEST PUSH1 0x2 PUSH1 0x0 SWAP1 SLOAD SWAP1 PUSH2 0x100 EXP SWAP1 DIV PUSH20 0xFFFFFFFFFFFFFFFFFFFFFFFFFFFFFFFFFFFFFFFF AND PUSH20 0xFFFFFFFFFFFFFFFFFFFFFFFFFFFFFFFFFFFFFFFF AND CALLER PUSH20 0xFFFFFFFFFFFFFFFFFFFFFFFFFFFFFFFFFFFFFFFF AND EQ PUSH2 0x2642 JUMPI PUSH1 0x40 MLOAD PUSH32 0x8C379A000000000000000000000000000000000000000000000000000000000 DUP2 MSTORE PUSH1 0x4 ADD PUSH2 0x2639 SWAP1 PUSH2 0x3FF3 JUMP JUMPDEST PUSH1 0x40 MLOAD DUP1 SWAP2 SUB SWAP1 REVERT JUMPDEST DUP1 PUSH1 0x3 DUP2 SWAP1 SSTORE POP POP JUMP JUMPDEST PUSH1 0x1 DUP2 PUSH1 0x5 ADD PUSH1 0x0 PUSH2 0x100 EXP DUP2 SLOAD DUP2 PUSH1 0xFF MUL NOT AND SWAP1 DUP4 ISZERO ISZERO MUL OR SWAP1 SSTORE POP PUSH1 0x0 PUSH1 0x3 DUP2 GT ISZERO PUSH2 0x267D JUMPI PUSH2 0x267C PUSH2 0x3415 JUMP JUMPDEST JUMPDEST DUP2 PUSH1 0x1 ADD PUSH1 0x0 SWAP1 SLOAD SWAP1 PUSH2 0x100 EXP SWAP1 DIV PUSH1 0xFF AND PUSH1 0x3 DUP2 GT ISZERO PUSH2 0x26A1 JUMPI PUSH2 0x26A0 PUSH2 0x3415 JUMP JUMPDEST JUMPDEST SUB PUSH2 0x28EE JUMPI PUSH1 0x11 PUSH1 0x0 DUP3 PUSH1 0x1 ADD PUSH1 0x1 SWAP1 SLOAD SWAP1 PUSH2 0x100 EXP SWAP1 DIV PUSH20 0xFFFFFFFFFFFFFFFFFFFFFFFFFFFFFFFFFFFFFFFF AND PUSH20 0xFFFFFFFFFFFFFFFFFFFFFFFFFFFFFFFFFFFFFFFF AND PUSH20 0xFFFFFFFFFFFFFFFFFFFFFFFFFFFFFFFFFFFFFFFF AND DUP2 MSTORE PUSH1 0x20 ADD SWAP1 DUP2 MSTORE PUSH1 0x20 ADD PUSH1 0x0 KECCAK256 PUSH1 0x0 SWAP1 SLOAD SWAP1 PUSH2 0x100 EXP SWAP1 DIV PUSH1 0xFF AND PUSH2 0x2756 JUMPI PUSH1 0x40 MLOAD PUSH32 0x8C379A000000000000000000000000000000000000000000000000000000000 DUP2 MSTORE PUSH1 0x4 ADD PUSH2 0x274D SWAP1 PUSH2 0x48B1 JUMP JUMPDEST PUSH1 0x40 MLOAD DUP1 SWAP2 SUB SWAP1 REVERT JUMPDEST DUP1 PUSH1 0x2 ADD SLOAD PUSH1 0x6 SLOAD LT ISZERO PUSH2 0x279F JUMPI PUSH1 0x40 MLOAD PUSH32 0x8C379A000000000000000000000000000000000000000000000000000000000 DUP2 MSTORE PUSH1 0x4 ADD PUSH2 0x2796 SWAP1 PUSH2 0x491D JUMP JUMPDEST PUSH1 0x40 MLOAD DUP1 SWAP2 SUB SWAP1 REVERT JUMPDEST DUP1 PUSH1 0x2 ADD SLOAD PUSH1 0x6 PUSH1 0x0 DUP3 DUP3 SLOAD PUSH2 0x27B5 SWAP2 SWAP1 PUSH2 0x42F9 JUMP JUMPDEST SWAP3 POP POP DUP2 SWAP1 SSTORE POP PUSH1 0x0 DUP1 SLOAD SWAP1 PUSH2 0x100 EXP SWAP1 DIV PUSH20 0xFFFFFFFFFFFFFFFFFFFFFFFFFFFFFFFFFFFFFFFF AND PUSH20 0xFFFFFFFFFFFFFFFFFFFFFFFFFFFFFFFFFFFFFFFF AND PUSH4 0xA9059CBB DUP3 PUSH1 0x1 ADD PUSH1 0x1 SWAP1 SLOAD SWAP1 PUSH2 0x100 EXP SWAP1 DIV PUSH20 0xFFFFFFFFFFFFFFFFFFFFFFFFFFFFFFFFFFFFFFFF AND DUP4 PUSH1 0x2 ADD SLOAD PUSH1 0x40 MLOAD DUP4 PUSH4 0xFFFFFFFF AND PUSH1 0xE0 SHL DUP2 MSTORE PUSH1 0x4 ADD PUSH2 0x283F SWAP3 SWAP2 SWAP1 PUSH2 0x4264 JUMP JUMPDEST PUSH1 0x20 PUSH1 0x40 MLOAD DUP1 DUP4 SUB DUP2 PUSH1 0x0 DUP8 GAS CALL ISZERO DUP1 ISZERO PUSH2 0x285E JUMPI RETURNDATASIZE PUSH1 0x0 DUP1 RETURNDATACOPY RETURNDATASIZE PUSH1 0x0 REVERT JUMPDEST POP POP POP POP PUSH1 0x40 MLOAD RETURNDATASIZE PUSH1 0x1F NOT PUSH1 0x1F DUP3 ADD AND DUP3 ADD DUP1 PUSH1 0x40 MSTORE POP DUP2 ADD SWAP1 PUSH2 0x2882 SWAP2 SWAP1 PUSH2 0x3E45 JUMP JUMPDEST POP PUSH32 0xFEA36C567A41C73FB142AE411F08565859D2842B21CAF06283E31EF06079B36A DUP2 PUSH1 0x1 ADD PUSH1 0x1 SWAP1 SLOAD SWAP1 PUSH2 0x100 EXP SWAP1 DIV PUSH20 0xFFFFFFFFFFFFFFFFFFFFFFFFFFFFFFFFFFFFFFFF AND DUP3 PUSH1 0x2 ADD SLOAD DUP4 PUSH1 0x3 ADD PUSH1 0x40 MLOAD PUSH2 0x28E1 SWAP4 SWAP3 SWAP2 SWAP1 PUSH2 0x4A0D JUMP JUMPDEST PUSH1 0x40 MLOAD DUP1 SWAP2 SUB SWAP1 LOG1 PUSH2 0x2CD4 JUMP JUMPDEST PUSH1 0x1 PUSH1 0x3 DUP2 GT ISZERO PUSH2 0x2902 JUMPI PUSH2 0x2901 PUSH2 0x3415 JUMP JUMPDEST JUMPDEST DUP2 PUSH1 0x1 ADD PUSH1 0x0 SWAP1 SLOAD SWAP1 PUSH2 0x100 EXP SWAP1 DIV PUSH1 0xFF AND PUSH1 0x3 DUP2 GT ISZERO PUSH2 0x2926 JUMPI PUSH2 0x2925 PUSH2 0x3415 JUMP JUMPDEST JUMPDEST SUB PUSH2 0x2A78 JUMPI PUSH1 0x11 PUSH1 0x0 DUP3 PUSH1 0x1 ADD PUSH1 0x1 SWAP1 SLOAD SWAP1 PUSH2 0x100 EXP SWAP1 DIV PUSH20 0xFFFFFFFFFFFFFFFFFFFFFFFFFFFFFFFFFFFFFFFF AND PUSH20 0xFFFFFFFFFFFFFFFFFFFFFFFFFFFFFFFFFFFFFFFF AND PUSH20 0xFFFFFFFFFFFFFFFFFFFFFFFFFFFFFFFFFFFFFFFF AND DUP2 MSTORE PUSH1 0x20 ADD SWAP1 DUP2 MSTORE PUSH1 0x20 ADD PUSH1 0x0 KECCAK256 PUSH1 0x0 SWAP1 SLOAD SWAP1 PUSH2 0x100 EXP SWAP1 DIV PUSH1 0xFF AND PUSH2 0x29DB JUMPI PUSH1 0x40 MLOAD PUSH32 0x8C379A000000000000000000000000000000000000000000000000000000000 DUP2 MSTORE PUSH1 0x4 ADD PUSH2 0x29D2 SWAP1 PUSH2 0x48B1 JUMP JUMPDEST PUSH1 0x40 MLOAD DUP1 SWAP2 SUB SWAP1 REVERT JUMPDEST PUSH2 0x2A0D DUP2 PUSH1 0x1 ADD PUSH1 0x1 SWAP1 SLOAD SWAP1 PUSH2 0x100 EXP SWAP1 DIV PUSH20 0xFFFFFFFFFFFFFFFFFFFFFFFFFFFFFFFFFFFFFFFF AND DUP3 PUSH1 0x2 ADD SLOAD PUSH2 0x2EBC JUMP JUMPDEST PUSH32 0xFEA36C567A41C73FB142AE411F08565859D2842B21CAF06283E31EF06079B36A DUP2 PUSH1 0x1 ADD PUSH1 0x1 SWAP1 SLOAD SWAP1 PUSH2 0x100 EXP SWAP1 DIV PUSH20 0xFFFFFFFFFFFFFFFFFFFFFFFFFFFFFFFFFFFFFFFF AND DUP3 PUSH1 0x2 ADD SLOAD DUP4 PUSH1 0x3 ADD PUSH1 0x40 MLOAD PUSH2 0x2A6B SWAP4 SWAP3 SWAP2 SWAP1 PUSH2 0x4AAA JUMP JUMPDEST PUSH1 0x40 MLOAD DUP1 SWAP2 SUB SWAP1 LOG1 PUSH2 0x2CD3 JUMP JUMPDEST PUSH1 0x2 PUSH1 0x3 DUP2 GT ISZERO PUSH2 0x2A8C JUMPI PUSH2 0x2A8B PUSH2 0x3415 JUMP JUMPDEST JUMPDEST DUP2 PUSH1 0x1 ADD PUSH1 0x0 SWAP1 SLOAD SWAP1 PUSH2 0x100 EXP SWAP1 DIV PUSH1 0xFF AND PUSH1 0x3 DUP2 GT ISZERO PUSH2 0x2AB0 JUMPI PUSH2 0x2AAF PUSH2 0x3415 JUMP JUMPDEST JUMPDEST SUB PUSH2 0x2C18 JUMPI DUP1 PUSH1 0x2 ADD SLOAD PUSH1 0xD PUSH1 0x0 DUP4 PUSH1 0x1 ADD PUSH1 0x1 SWAP1 SLOAD SWAP1 PUSH2 0x100 EXP SWAP1 DIV PUSH20 0xFFFFFFFFFFFFFFFFFFFFFFFFFFFFFFFFFFFFFFFF AND PUSH20 0xFFFFFFFFFFFFFFFFFFFFFFFFFFFFFFFFFFFFFFFF AND PUSH20 0xFFFFFFFFFFFFFFFFFFFFFFFFFFFFFFFFFFFFFFFF AND DUP2 MSTORE PUSH1 0x20 ADD SWAP1 DUP2 MSTORE PUSH1 0x20 ADD PUSH1 0x0 KECCAK256 DUP2 SWAP1 SSTORE POP PUSH1 0x11 PUSH1 0x0 DUP3 PUSH1 0x1 ADD PUSH1 0x1 SWAP1 SLOAD SWAP1 PUSH2 0x100 EXP SWAP1 DIV PUSH20 0xFFFFFFFFFFFFFFFFFFFFFFFFFFFFFFFFFFFFFFFF AND PUSH20 0xFFFFFFFFFFFFFFFFFFFFFFFFFFFFFFFFFFFFFFFF AND PUSH20 0xFFFFFFFFFFFFFFFFFFFFFFFFFFFFFFFFFFFFFFFF AND DUP2 MSTORE PUSH1 0x20 ADD SWAP1 DUP2 MSTORE PUSH1 0x20 ADD PUSH1 0x0 KECCAK256 PUSH1 0x0 SWAP1 SLOAD SWAP1 PUSH2 0x100 EXP SWAP1 DIV PUSH1 0xFF AND PUSH2 0x2C13 JUMPI PUSH1 0x1 PUSH1 0x11 PUSH1 0x0 DUP4 PUSH1 0x1 ADD PUSH1 0x1 SWAP1 SLOAD SWAP1 PUSH2 0x100 EXP SWAP1 DIV PUSH20 0xFFFFFFFFFFFFFFFFFFFFFFFFFFFFFFFFFFFFFFFF AND PUSH20 0xFFFFFFFFFFFFFFFFFFFFFFFFFFFFFFFFFFFFFFFF AND PUSH20 0xFFFFFFFFFFFFFFFFFFFFFFFFFFFFFFFFFFFFFFFF AND DUP2 MSTORE PUSH1 0x20 ADD SWAP1 DUP2 MSTORE PUSH1 0x20 ADD PUSH1 0x0 KECCAK256 PUSH1 0x0 PUSH2 0x100 EXP DUP2 SLOAD DUP2 PUSH1 0xFF MUL NOT AND SWAP1 DUP4 ISZERO ISZERO MUL OR SWAP1 SSTORE POP JUMPDEST PUSH2 0x2CD2 JUMP JUMPDEST PUSH1 0x3 DUP1 DUP2 GT ISZERO PUSH2 0x2C2B JUMPI PUSH2 0x2C2A PUSH2 0x3415 JUMP JUMPDEST JUMPDEST DUP2 PUSH1 0x1 ADD PUSH1 0x0 SWAP1 SLOAD SWAP1 PUSH2 0x100 EXP SWAP1 DIV PUSH1 0xFF AND PUSH1 0x3 DUP2 GT ISZERO PUSH2 0x2C4F JUMPI PUSH2 0x2C4E PUSH2 0x3415 JUMP JUMPDEST JUMPDEST SUB PUSH2 0x2CD1 JUMPI PUSH1 0x1 PUSH1 0x11 PUSH1 0x0 DUP4 PUSH1 0x1 ADD PUSH1 0x1 SWAP1 SLOAD SWAP1 PUSH2 0x100 EXP SWAP1 DIV PUSH20 0xFFFFFFFFFFFFFFFFFFFFFFFFFFFFFFFFFFFFFFFF AND PUSH20 0xFFFFFFFFFFFFFFFFFFFFFFFFFFFFFFFFFFFFFFFF AND PUSH20 0xFFFFFFFFFFFFFFFFFFFFFFFFFFFFFFFFFFFFFFFF AND DUP2 MSTORE PUSH1 0x20 ADD SWAP1 DUP2 MSTORE PUSH1 0x20 ADD PUSH1 0x0 KECCAK256 PUSH1 0x0 PUSH2 0x100 EXP DUP2 SLOAD DUP2 PUSH1 0xFF MUL NOT AND SWAP1 DUP4 ISZERO ISZERO MUL OR SWAP1 SSTORE POP JUMPDEST JUMPDEST JUMPDEST JUMPDEST PUSH32 0x948F4A9CD986F1118C3FBD459F7A22B23C0693E1CA3EF06A6A8BE5AA7D39CC03 DUP2 PUSH1 0x0 ADD SLOAD PUSH1 0x1 PUSH1 0x40 MLOAD PUSH2 0x2D0A SWAP3 SWAP2 SWAP1 PUSH2 0x4AFB JUMP JUMPDEST PUSH1 0x40 MLOAD DUP1 SWAP2 SUB SWAP1 LOG1 POP JUMP JUMPDEST PUSH1 0x0 PUSH1 0x1 PUSH1 0x0 SWAP1 SLOAD SWAP1 PUSH2 0x100 EXP SWAP1 DIV PUSH20 0xFFFFFFFFFFFFFFFFFFFFFFFFFFFFFFFFFFFFFFFF AND PUSH20 0xFFFFFFFFFFFFFFFFFFFFFFFFFFFFFFFFFFFFFFFF AND PUSH4 0x18160DDD PUSH1 0x40 MLOAD DUP2 PUSH4 0xFFFFFFFF AND PUSH1 0xE0 SHL DUP2 MSTORE PUSH1 0x4 ADD PUSH1 0x20 PUSH1 0x40 MLOAD DUP1 DUP4 SUB DUP2 DUP7 GAS STATICCALL ISZERO DUP1 ISZERO PUSH2 0x2D84 JUMPI RETURNDATASIZE PUSH1 0x0 DUP1 RETURNDATACOPY RETURNDATASIZE PUSH1 0x0 REVERT JUMPDEST POP POP POP POP PUSH1 0x40 MLOAD RETURNDATASIZE PUSH1 0x1F NOT PUSH1 0x1F DUP3 ADD AND DUP3 ADD DUP1 PUSH1 0x40 MSTORE POP DUP2 ADD SWAP1 PUSH2 0x2DA8 SWAP2 SWAP1 PUSH2 0x3BEF JUMP JUMPDEST SWAP1 POP PUSH1 0x0 PUSH1 0x64 PUSH1 0x28 DUP4 PUSH2 0x2DBB SWAP2 SWAP1 PUSH2 0x3EDE JUMP JUMPDEST PUSH2 0x2DC5 SWAP2 SWAP1 PUSH2 0x3D51 JUMP JUMPDEST SWAP1 POP PUSH1 0x0 PUSH1 0x1 PUSH1 0x0 SWAP1 SLOAD SWAP1 PUSH2 0x100 EXP SWAP1 DIV PUSH20 0xFFFFFFFFFFFFFFFFFFFFFFFFFFFFFFFFFFFFFFFF AND PUSH20 0xFFFFFFFFFFFFFFFFFFFFFFFFFFFFFFFFFFFFFFFF AND PUSH4 0x70A08231 DUP7 PUSH1 0x40 MLOAD DUP3 PUSH4 0xFFFFFFFF AND PUSH1 0xE0 SHL DUP2 MSTORE PUSH1 0x4 ADD PUSH2 0x2E24 SWAP2 SWAP1 PUSH2 0x3936 JUMP JUMPDEST PUSH1 0x20 PUSH1 0x40 MLOAD DUP1 DUP4 SUB DUP2 DUP7 GAS STATICCALL ISZERO DUP1 ISZERO PUSH2 0x2E41 JUMPI RETURNDATASIZE PUSH1 0x0 DUP1 RETURNDATACOPY RETURNDATASIZE PUSH1 0x0 REVERT JUMPDEST POP POP POP POP PUSH1 0x40 MLOAD RETURNDATASIZE PUSH1 0x1F NOT PUSH1 0x1F DUP3 ADD AND DUP3 ADD DUP1 PUSH1 0x40 MSTORE POP DUP2 ADD SWAP1 PUSH2 0x2E65 SWAP2 SWAP1 PUSH2 0x3BEF JUMP JUMPDEST SWAP1 POP DUP2 DUP5 DUP3 PUSH2 0x2E74 SWAP2 SWAP1 PUSH2 0x3CB7 JUMP JUMPDEST GT ISZERO PUSH2 0x2EB5 JUMPI PUSH1 0x40 MLOAD PUSH32 0x8C379A000000000000000000000000000000000000000000000000000000000 DUP2 MSTORE PUSH1 0x4 ADD PUSH2 0x2EAC SWAP1 PUSH2 0x4B70 JUMP JUMPDEST PUSH1 0x40 MLOAD DUP1 SWAP2 SUB SWAP1 REVERT JUMPDEST POP POP POP POP POP JUMP JUMPDEST PUSH1 0x0 DUP1 PUSH1 0x0 SWAP1 SLOAD SWAP1 PUSH2 0x100 EXP SWAP1 DIV PUSH20 0xFFFFFFFFFFFFFFFFFFFFFFFFFFFFFFFFFFFFFFFF AND PUSH20 0xFFFFFFFFFFFFFFFFFFFFFFFFFFFFFFFFFFFFFFFF AND PUSH4 0x70A08231 ADDRESS PUSH1 0x40 MLOAD DUP3 PUSH4 0xFFFFFFFF AND PUSH1 0xE0 SHL DUP2 MSTORE PUSH1 0x4 ADD PUSH2 0x2F18 SWAP2 SWAP1 PUSH2 0x3936 JUMP JUMPDEST PUSH1 0x20 PUSH1 0x40 MLOAD DUP1 DUP4 SUB DUP2 DUP7 GAS STATICCALL ISZERO DUP1 ISZERO PUSH2 0x2F35 JUMPI RETURNDATASIZE PUSH1 0x0 DUP1 RETURNDATACOPY RETURNDATASIZE PUSH1 0x0 REVERT JUMPDEST POP POP POP POP PUSH1 0x40 MLOAD RETURNDATASIZE PUSH1 0x1F NOT PUSH1 0x1F DUP3 ADD AND DUP3 ADD DUP1 PUSH1 0x40 MSTORE POP DUP2 ADD SWAP1 PUSH2 0x2F59 SWAP2 SWAP1 PUSH2 0x3BEF JUMP JUMPDEST SWAP1 POP DUP2 DUP2 LT ISZERO PUSH2 0x2F9E JUMPI PUSH1 0x40 MLOAD PUSH32 0x8C379A000000000000000000000000000000000000000000000000000000000 DUP2 MSTORE PUSH1 0x4 ADD PUSH2 0x2F95 SWAP1 PUSH2 0x4BDC JUMP JUMPDEST PUSH1 0x40 MLOAD DUP1 SWAP2 SUB SWAP1 REVERT JUMPDEST PUSH1 0x0 PUSH1 0x8 SLOAD PUSH1 0x7 SLOAD PUSH2 0x2FB0 SWAP2 SWAP1 PUSH2 0x42F9 JUMP JUMPDEST SWAP1 POP PUSH1 0x0 DUP2 PUSH1 0x6 SLOAD PUSH2 0x2FC2 SWAP2 SWAP1 PUSH2 0x3CB7 JUMP JUMPDEST SWAP1 POP PUSH1 0x0 DUP2 DUP5 GT ISZERO PUSH2 0x2FDD JUMPI DUP2 DUP5 PUSH2 0x2FDA SWAP2 SWAP1 PUSH2 0x42F9 JUMP JUMPDEST SWAP1 POP JUMPDEST DUP5 DUP2 LT ISZERO PUSH2 0x3055 JUMPI PUSH1 0x0 DUP2 DUP7 PUSH2 0x2FF3 SWAP2 SWAP1 PUSH2 0x42F9 JUMP JUMPDEST SWAP1 POP DUP1 PUSH1 0x6 SLOAD LT ISZERO PUSH2 0x303A JUMPI PUSH1 0x40 MLOAD PUSH32 0x8C379A000000000000000000000000000000000000000000000000000000000 DUP2 MSTORE PUSH1 0x4 ADD PUSH2 0x3031 SWAP1 PUSH2 0x4C48 JUMP JUMPDEST PUSH1 0x40 MLOAD DUP1 SWAP2 SUB SWAP1 REVERT JUMPDEST DUP1 PUSH1 0x6 PUSH1 0x0 DUP3 DUP3 SLOAD PUSH2 0x304C SWAP2 SWAP1 PUSH2 0x42F9 JUMP JUMPDEST SWAP3 POP POP DUP2 SWAP1 SSTORE POP POP JUMPDEST PUSH1 0x0 DUP1 SLOAD SWAP1 PUSH2 0x100 EXP SWAP1 DIV PUSH20 0xFFFFFFFFFFFFFFFFFFFFFFFFFFFFFFFFFFFFFFFF AND PUSH20 0xFFFFFFFFFFFFFFFFFFFFFFFFFFFFFFFFFFFFFFFF AND PUSH4 0xA9059CBB DUP8 DUP8 PUSH1 0x40 MLOAD DUP4 PUSH4 0xFFFFFFFF AND PUSH1 0xE0 SHL DUP2 MSTORE PUSH1 0x4 ADD PUSH2 0x30B0 SWAP3 SWAP2 SWAP1 PUSH2 0x4264 JUMP JUMPDEST PUSH1 0x20 PUSH1 0x40 MLOAD DUP1 DUP4 SUB DUP2 PUSH1 0x0 DUP8 GAS CALL ISZERO DUP1 ISZERO PUSH2 0x30CF JUMPI RETURNDATASIZE PUSH1 0x0 DUP1 RETURNDATACOPY RETURNDATASIZE PUSH1 0x0 REVERT JUMPDEST POP POP POP POP PUSH1 0x40 MLOAD RETURNDATASIZE PUSH1 0x1F NOT PUSH1 0x1F DUP3 ADD AND DUP3 ADD DUP1 PUSH1 0x40 MSTORE POP DUP2 ADD SWAP1 PUSH2 0x30F3 SWAP2 SWAP1 PUSH2 0x3E45 JUMP JUMPDEST POP POP POP POP POP POP POP JUMP JUMPDEST PUSH1 0x13 PUSH1 0x0 DUP2 SLOAD DUP1 SWAP3 SWAP2 SWAP1 PUSH2 0x310F SWAP1 PUSH2 0x45A9 JUMP JUMPDEST SWAP2 SWAP1 POP SSTORE POP PUSH1 0x0 PUSH1 0x12 PUSH1 0x0 PUSH1 0x13 SLOAD DUP2 MSTORE PUSH1 0x20 ADD SWAP1 DUP2 MSTORE PUSH1 0x20 ADD PUSH1 0x0 KECCAK256 SWAP1 POP PUSH1 0x13 SLOAD DUP2 PUSH1 0x0 ADD DUP2 SWAP1 SSTORE POP DUP5 DUP2 PUSH1 0x1 ADD PUSH1 0x0 PUSH2 0x100 EXP DUP2 SLOAD DUP2 PUSH1 0xFF MUL NOT AND SWAP1 DUP4 PUSH1 0x3 DUP2 GT ISZERO PUSH2 0x315F JUMPI PUSH2 0x315E PUSH2 0x3415 JUMP JUMPDEST JUMPDEST MUL OR SWAP1 SSTORE POP DUP4 DUP2 PUSH1 0x1 ADD PUSH1 0x1 PUSH2 0x100 EXP DUP2 SLOAD DUP2 PUSH20 0xFFFFFFFFFFFFFFFFFFFFFFFFFFFFFFFFFFFFFFFF MUL NOT AND SWAP1 DUP4 PUSH20 0xFFFFFFFFFFFFFFFFFFFFFFFFFFFFFFFFFFFFFFFF AND MUL OR SWAP1 SSTORE POP DUP3 DUP2 PUSH1 0x2 ADD DUP2 SWAP1 SSTORE POP DUP2 DUP2 PUSH1 0x3 ADD SWAP1 DUP2 PUSH2 0x31C1 SWAP2 SWAP1 PUSH2 0x4793 JUMP JUMPDEST POP PUSH3 0x15180 TIMESTAMP PUSH2 0x31D1 SWAP2 SWAP1 PUSH2 0x3CB7 JUMP JUMPDEST DUP2 PUSH1 0x6 ADD DUP2 SWAP1 SSTORE POP PUSH1 0x0 DUP1 PUSH1 0x3 DUP2 GT ISZERO PUSH2 0x31EE JUMPI PUSH2 0x31ED PUSH2 0x3415 JUMP JUMPDEST JUMPDEST DUP7 PUSH1 0x3 DUP2 GT ISZERO PUSH2 0x3201 JUMPI PUSH2 0x3200 PUSH2 0x3415 JUMP JUMPDEST JUMPDEST EQ PUSH2 0x3311 JUMPI PUSH1 0x1 PUSH1 0x3 DUP2 GT ISZERO PUSH2 0x321A JUMPI PUSH2 0x3219 PUSH2 0x3415 JUMP JUMPDEST JUMPDEST DUP7 PUSH1 0x3 DUP2 GT ISZERO PUSH2 0x322D JUMPI PUSH2 0x322C PUSH2 0x3415 JUMP JUMPDEST JUMPDEST EQ PUSH2 0x32D5 JUMPI PUSH1 0x2 PUSH1 0x3 DUP2 GT ISZERO PUSH2 0x3246 JUMPI PUSH2 0x3245 PUSH2 0x3415 JUMP JUMPDEST JUMPDEST DUP7 PUSH1 0x3 DUP2 GT ISZERO PUSH2 0x3259 JUMPI PUSH2 0x3258 PUSH2 0x3415 JUMP JUMPDEST JUMPDEST EQ PUSH2 0x3299 JUMPI PUSH1 0x40 MLOAD DUP1 PUSH1 0x40 ADD PUSH1 0x40 MSTORE DUP1 PUSH1 0xA DUP2 MSTORE PUSH1 0x20 ADD PUSH32 0x4144442056454E444F5200000000000000000000000000000000000000000000 DUP2 MSTORE POP PUSH2 0x32D0 JUMP JUMPDEST PUSH1 0x40 MLOAD DUP1 PUSH1 0x40 ADD PUSH1 0x40 MSTORE DUP1 PUSH1 0x8 DUP2 MSTORE PUSH1 0x20 ADD PUSH32 0x5345542047414A49000000000000000000000000000000000000000000000000 DUP2 MSTORE POP JUMPDEST PUSH2 0x330C JUMP JUMPDEST PUSH1 0x40 MLOAD DUP1 PUSH1 0x40 ADD PUSH1 0x40 MSTORE DUP1 PUSH1 0xA DUP2 MSTORE PUSH1 0x20 ADD PUSH32 0x42454C4920424148414E00000000000000000000000000000000000000000000 DUP2 MSTORE POP JUMPDEST PUSH2 0x3348 JUMP JUMPDEST PUSH1 0x40 MLOAD DUP1 PUSH1 0x40 ADD PUSH1 0x40 MSTORE DUP1 PUSH1 0xA DUP2 MSTORE PUSH1 0x20 ADD PUSH32 0x42454C49204D4553494E00000000000000000000000000000000000000000000 DUP2 MSTORE POP JUMPDEST SWAP1 POP PUSH32 0xAB417751734D6A1F646DB70D698328FA08BC6C3F8D4B8EF2A69ADB1EB051496B PUSH1 0x13 SLOAD DUP3 DUP6 PUSH1 0x40 MLOAD PUSH2 0x337F SWAP4 SWAP3 SWAP2 SWAP1 PUSH2 0x4C68 JUMP JUMPDEST PUSH1 0x40 MLOAD DUP1 SWAP2 SUB SWAP1 LOG1 POP POP POP POP POP POP JUMP JUMPDEST PUSH1 0x0 PUSH1 0x40 MLOAD SWAP1 POP SWAP1 JUMP JUMPDEST PUSH1 0x0 DUP1 REVERT JUMPDEST PUSH1 0x0 DUP1 REVERT JUMPDEST PUSH1 0x0 DUP2 SWAP1 POP SWAP2 SWAP1 POP JUMP JUMPDEST PUSH2 0x33B6 DUP2 PUSH2 0x33A3 JUMP JUMPDEST DUP2 EQ PUSH2 0x33C1 JUMPI PUSH1 0x0 DUP1 REVERT JUMPDEST POP JUMP JUMPDEST PUSH1 0x0 DUP2 CALLDATALOAD SWAP1 POP PUSH2 0x33D3 DUP2 PUSH2 0x33AD JUMP JUMPDEST SWAP3 SWAP2 POP POP JUMP JUMPDEST PUSH1 0x0 PUSH1 0x20 DUP3 DUP5 SUB SLT ISZERO PUSH2 0x33EF JUMPI PUSH2 0x33EE PUSH2 0x3399 JUMP JUMPDEST JUMPDEST PUSH1 0x0 PUSH2 0x33FD DUP5 DUP3 DUP6 ADD PUSH2 0x33C4 JUMP JUMPDEST SWAP2 POP POP SWAP3 SWAP2 POP POP JUMP JUMPDEST PUSH2 0x340F DUP2 PUSH2 0x33A3 JUMP JUMPDEST DUP3 MSTORE POP POP JUMP JUMPDEST PUSH32 0x4E487B7100000000000000000000000000000000000000000000000000000000 PUSH1 0x0 MSTORE PUSH1 0x21 PUSH1 0x4 MSTORE PUSH1 0x24 PUSH1 0x0 REVERT JUMPDEST PUSH1 0x4 DUP2 LT PUSH2 0x3455 JUMPI PUSH2 0x3454 PUSH2 0x3415 JUMP JUMPDEST JUMPDEST POP JUMP JUMPDEST PUSH1 0x0 DUP2 SWAP1 POP PUSH2 0x3466 DUP3 PUSH2 0x3444 JUMP JUMPDEST SWAP2 SWAP1 POP JUMP JUMPDEST PUSH1 0x0 PUSH2 0x3476 DUP3 PUSH2 0x3458 JUMP JUMPDEST SWAP1 POP SWAP2 SWAP1 POP JUMP JUMPDEST PUSH2 0x3486 DUP2 PUSH2 0x346B JUMP JUMPDEST DUP3 MSTORE POP POP JUMP JUMPDEST PUSH1 0x0 PUSH20 0xFFFFFFFFFFFFFFFFFFFFFFFFFFFFFFFFFFFFFFFF DUP3 AND SWAP1 POP SWAP2 SWAP1 POP JUMP JUMPDEST PUSH1 0x0 PUSH2 0x34B7 DUP3 PUSH2 0x348C JUMP JUMPDEST SWAP1 POP SWAP2 SWAP1 POP JUMP JUMPDEST PUSH2 0x34C7 DUP2 PUSH2 0x34AC JUMP JUMPDEST DUP3 MSTORE POP POP JUMP JUMPDEST PUSH1 0x0 DUP2 MLOAD SWAP1 POP SWAP2 SWAP1 POP JUMP JUMPDEST PUSH1 0x0 DUP3 DUP3 MSTORE PUSH1 0x20 DUP3 ADD SWAP1 POP SWAP3 SWAP2 POP POP JUMP JUMPDEST PUSH1 0x0 JUMPDEST DUP4 DUP2 LT ISZERO PUSH2 0x3507 JUMPI DUP1 DUP3 ADD MLOAD DUP2 DUP5 ADD MSTORE PUSH1 0x20 DUP2 ADD SWAP1 POP PUSH2 0x34EC JUMP JUMPDEST PUSH1 0x0 DUP5 DUP5 ADD MSTORE POP POP POP POP JUMP JUMPDEST PUSH1 0x0 PUSH1 0x1F NOT PUSH1 0x1F DUP4 ADD AND SWAP1 POP SWAP2 SWAP1 POP JUMP JUMPDEST PUSH1 0x0 PUSH2 0x352F DUP3 PUSH2 0x34CD JUMP JUMPDEST PUSH2 0x3539 DUP2 DUP6 PUSH2 0x34D8 JUMP JUMPDEST SWAP4 POP PUSH2 0x3549 DUP2 DUP6 PUSH1 0x20 DUP7 ADD PUSH2 0x34E9 JUMP JUMPDEST PUSH2 0x3552 DUP2 PUSH2 0x3513 JUMP JUMPDEST DUP5 ADD SWAP2 POP POP SWAP3 SWAP2 POP POP JUMP JUMPDEST PUSH1 0x0 DUP2 ISZERO ISZERO SWAP1 POP SWAP2 SWAP1 POP JUMP JUMPDEST PUSH2 0x3572 DUP2 PUSH2 0x355D JUMP JUMPDEST DUP3 MSTORE POP POP JUMP JUMPDEST PUSH1 0x0 PUSH2 0x100 DUP3 ADD SWAP1 POP PUSH2 0x358E PUSH1 0x0 DUP4 ADD DUP12 PUSH2 0x3406 JUMP JUMPDEST PUSH2 0x359B PUSH1 0x20 DUP4 ADD DUP11 PUSH2 0x347D JUMP JUMPDEST PUSH2 0x35A8 PUSH1 0x40 DUP4 ADD DUP10 PUSH2 0x34BE JUMP JUMPDEST PUSH2 0x35B5 PUSH1 0x60 DUP4 ADD DUP9 PUSH2 0x3406 JUMP JUMPDEST DUP2 DUP2 SUB PUSH1 0x80 DUP4 ADD MSTORE PUSH2 0x35C7 DUP2 DUP8 PUSH2 0x3524 JUMP JUMPDEST SWAP1 POP PUSH2 0x35D6 PUSH1 0xA0 DUP4 ADD DUP7 PUSH2 0x3406 JUMP JUMPDEST PUSH2 0x35E3 PUSH1 0xC0 DUP4 ADD DUP6 PUSH2 0x3569 JUMP JUMPDEST PUSH2 0x35F0 PUSH1 0xE0 DUP4 ADD DUP5 PUSH2 0x3406 JUMP JUMPDEST SWAP10 SWAP9 POP POP POP POP POP POP POP POP POP JUMP JUMPDEST PUSH2 0x3606 DUP2 PUSH2 0x34AC JUMP JUMPDEST DUP2 EQ PUSH2 0x3611 JUMPI PUSH1 0x0 DUP1 REVERT JUMPDEST POP JUMP JUMPDEST PUSH1 0x0 DUP2 CALLDATALOAD SWAP1 POP PUSH2 0x3623 DUP2 PUSH2 0x35FD JUMP JUMPDEST SWAP3 SWAP2 POP POP JUMP JUMPDEST PUSH1 0x0 DUP1 PUSH1 0x40 DUP4 DUP6 SUB SLT ISZERO PUSH2 0x3640 JUMPI PUSH2 0x363F PUSH2 0x3399 JUMP JUMPDEST JUMPDEST PUSH1 0x0 PUSH2 0x364E DUP6 DUP3 DUP7 ADD PUSH2 0x3614 JUMP JUMPDEST SWAP3 POP POP PUSH1 0x20 PUSH2 0x365F DUP6 DUP3 DUP7 ADD PUSH2 0x33C4 JUMP JUMPDEST SWAP2 POP POP SWAP3 POP SWAP3 SWAP1 POP JUMP JUMPDEST PUSH1 0x0 DUP2 SWAP1 POP SWAP2 SWAP1 POP JUMP JUMPDEST PUSH1 0x0 PUSH2 0x368E PUSH2 0x3689 PUSH2 0x3684 DUP5 PUSH2 0x348C JUMP JUMPDEST PUSH2 0x3669 JUMP JUMPDEST PUSH2 0x348C JUMP JUMPDEST SWAP1 POP SWAP2 SWAP1 POP JUMP JUMPDEST PUSH1 0x0 PUSH2 0x36A0 DUP3 PUSH2 0x3673 JUMP JUMPDEST SWAP1 POP SWAP2 SWAP1 POP JUMP JUMPDEST PUSH1 0x0 PUSH2 0x36B2 DUP3 PUSH2 0x3695 JUMP JUMPDEST SWAP1 POP SWAP2 SWAP1 POP JUMP JUMPDEST PUSH2 0x36C2 DUP2 PUSH2 0x36A7 JUMP JUMPDEST DUP3 MSTORE POP POP JUMP JUMPDEST PUSH1 0x0 PUSH1 0x20 DUP3 ADD SWAP1 POP PUSH2 0x36DD PUSH1 0x0 DUP4 ADD DUP5 PUSH2 0x36B9 JUMP JUMPDEST SWAP3 SWAP2 POP POP JUMP JUMPDEST PUSH1 0x0 PUSH1 0x20 DUP3 DUP5 SUB SLT ISZERO PUSH2 0x36F9 JUMPI PUSH2 0x36F8 PUSH2 0x3399 JUMP JUMPDEST JUMPDEST PUSH1 0x0 PUSH2 0x3707 DUP5 DUP3 DUP6 ADD PUSH2 0x3614 JUMP JUMPDEST SWAP2 POP POP SWAP3 SWAP2 POP POP JUMP JUMPDEST PUSH1 0x0 PUSH1 0x20 DUP3 ADD SWAP1 POP PUSH2 0x3725 PUSH1 0x0 DUP4 ADD DUP5 PUSH2 0x3406 JUMP JUMPDEST SWAP3 SWAP2 POP POP JUMP JUMPDEST PUSH1 0x0 DUP1 REVERT JUMPDEST PUSH1 0x0 DUP1 REVERT JUMPDEST PUSH32 0x4E487B7100000000000000000000000000000000000000000000000000000000 PUSH1 0x0 MSTORE PUSH1 0x41 PUSH1 0x4 MSTORE PUSH1 0x24 PUSH1 0x0 REVERT JUMPDEST PUSH2 0x376D DUP3 PUSH2 0x3513 JUMP JUMPDEST DUP2 ADD DUP2 DUP2 LT PUSH8 0xFFFFFFFFFFFFFFFF DUP3 GT OR ISZERO PUSH2 0x378C JUMPI PUSH2 0x378B PUSH2 0x3735 JUMP JUMPDEST JUMPDEST DUP1 PUSH1 0x40 MSTORE POP POP POP JUMP JUMPDEST PUSH1 0x0 PUSH2 0x379F PUSH2 0x338F JUMP JUMPDEST SWAP1 POP PUSH2 0x37AB DUP3 DUP3 PUSH2 0x3764 JUMP JUMPDEST SWAP2 SWAP1 POP JUMP JUMPDEST PUSH1 0x0 PUSH8 0xFFFFFFFFFFFFFFFF DUP3 GT ISZERO PUSH2 0x37CB JUMPI PUSH2 0x37CA PUSH2 0x3735 JUMP JUMPDEST JUMPDEST PUSH2 0x37D4 DUP3 PUSH2 0x3513 JUMP JUMPDEST SWAP1 POP PUSH1 0x20 DUP2 ADD SWAP1 POP SWAP2 SWAP1 POP JUMP JUMPDEST DUP3 DUP2 DUP4 CALLDATACOPY PUSH1 0x0 DUP4 DUP4 ADD MSTORE POP POP POP JUMP JUMPDEST PUSH1 0x0 PUSH2 0x3803 PUSH2 0x37FE DUP5 PUSH2 0x37B0 JUMP JUMPDEST PUSH2 0x3795 JUMP JUMPDEST SWAP1 POP DUP3 DUP2 MSTORE PUSH1 0x20 DUP2 ADD DUP5 DUP5 DUP5 ADD GT ISZERO PUSH2 0x381F JUMPI PUSH2 0x381E PUSH2 0x3730 JUMP JUMPDEST JUMPDEST PUSH2 0x382A DUP5 DUP3 DUP6 PUSH2 0x37E1 JUMP JUMPDEST POP SWAP4 SWAP3 POP POP POP JUMP JUMPDEST PUSH1 0x0 DUP3 PUSH1 0x1F DUP4 ADD SLT PUSH2 0x3847 JUMPI PUSH2 0x3846 PUSH2 0x372B JUMP JUMPDEST JUMPDEST DUP2 CALLDATALOAD PUSH2 0x3857 DUP5 DUP3 PUSH1 0x20 DUP7 ADD PUSH2 0x37F0 JUMP JUMPDEST SWAP2 POP POP SWAP3 SWAP2 POP POP JUMP JUMPDEST PUSH1 0x0 DUP1 PUSH1 0x0 PUSH1 0x60 DUP5 DUP7 SUB SLT ISZERO PUSH2 0x3879 JUMPI PUSH2 0x3878 PUSH2 0x3399 JUMP JUMPDEST JUMPDEST PUSH1 0x0 PUSH2 0x3887 DUP7 DUP3 DUP8 ADD PUSH2 0x3614 JUMP JUMPDEST SWAP4 POP POP PUSH1 0x20 PUSH2 0x3898 DUP7 DUP3 DUP8 ADD PUSH2 0x33C4 JUMP JUMPDEST SWAP3 POP POP PUSH1 0x40 DUP5 ADD CALLDATALOAD PUSH8 0xFFFFFFFFFFFFFFFF DUP2 GT ISZERO PUSH2 0x38B9 JUMPI PUSH2 0x38B8 PUSH2 0x339E JUMP JUMPDEST JUMPDEST PUSH2 0x38C5 DUP7 DUP3 DUP8 ADD PUSH2 0x3832 JUMP JUMPDEST SWAP2 POP POP SWAP3 POP SWAP3 POP SWAP3 JUMP JUMPDEST PUSH1 0x0 PUSH1 0x20 DUP3 ADD SWAP1 POP PUSH2 0x38E4 PUSH1 0x0 DUP4 ADD DUP5 PUSH2 0x3569 JUMP JUMPDEST SWAP3 SWAP2 POP POP JUMP JUMPDEST PUSH1 0x0 PUSH1 0x80 DUP3 ADD SWAP1 POP PUSH2 0x38FF PUSH1 0x0 DUP4 ADD DUP8 PUSH2 0x3406 JUMP JUMPDEST DUP2 DUP2 SUB PUSH1 0x20 DUP4 ADD MSTORE PUSH2 0x3911 DUP2 DUP7 PUSH2 0x3524 JUMP JUMPDEST SWAP1 POP PUSH2 0x3920 PUSH1 0x40 DUP4 ADD DUP6 PUSH2 0x3569 JUMP JUMPDEST PUSH2 0x392D PUSH1 0x60 DUP4 ADD DUP5 PUSH2 0x3406 JUMP JUMPDEST SWAP6 SWAP5 POP POP POP POP POP JUMP JUMPDEST PUSH1 0x0 PUSH1 0x20 DUP3 ADD SWAP1 POP PUSH2 0x394B PUSH1 0x0 DUP4 ADD DUP5 PUSH2 0x34BE JUMP JUMPDEST SWAP3 SWAP2 POP POP JUMP JUMPDEST PUSH1 0x0 DUP2 SWAP1 POP SWAP2 SWAP1 POP JUMP JUMPDEST PUSH2 0x3964 DUP2 PUSH2 0x3951 JUMP JUMPDEST DUP3 MSTORE POP POP JUMP JUMPDEST PUSH1 0x0 PUSH1 0x20 DUP3 ADD SWAP1 POP PUSH2 0x397F PUSH1 0x0 DUP4 ADD DUP5 PUSH2 0x395B JUMP JUMPDEST SWAP3 SWAP2 POP POP JUMP JUMPDEST PUSH1 0x0 PUSH1 0x20 DUP3 DUP5 SUB SLT ISZERO PUSH2 0x399B JUMPI PUSH2 0x399A PUSH2 0x3399 JUMP JUMPDEST JUMPDEST PUSH1 0x0 DUP3 ADD CALLDATALOAD PUSH8 0xFFFFFFFFFFFFFFFF DUP2 GT ISZERO PUSH2 0x39B9 JUMPI PUSH2 0x39B8 PUSH2 0x339E JUMP JUMPDEST JUMPDEST PUSH2 0x39C5 DUP5 DUP3 DUP6 ADD PUSH2 0x3832 JUMP JUMPDEST SWAP2 POP POP SWAP3 SWAP2 POP POP JUMP JUMPDEST PUSH1 0x0 DUP1 PUSH1 0x40 DUP4 DUP6 SUB SLT ISZERO PUSH2 0x39E5 JUMPI PUSH2 0x39E4 PUSH2 0x3399 JUMP JUMPDEST JUMPDEST PUSH1 0x0 PUSH2 0x39F3 DUP6 DUP3 DUP7 ADD PUSH2 0x3614 JUMP JUMPDEST SWAP3 POP POP PUSH1 0x20 DUP4 ADD CALLDATALOAD PUSH8 0xFFFFFFFFFFFFFFFF DUP2 GT ISZERO PUSH2 0x3A14 JUMPI PUSH2 0x3A13 PUSH2 0x339E JUMP JUMPDEST JUMPDEST PUSH2 0x3A20 DUP6 DUP3 DUP7 ADD PUSH2 0x3832 JUMP JUMPDEST SWAP2 POP POP SWAP3 POP SWAP3 SWAP1 POP JUMP JUMPDEST PUSH32 0x5265656E7472616E637921000000000000000000000000000000000000000000 PUSH1 0x0 DUP3 ADD MSTORE POP JUMP JUMPDEST PUSH1 0x0 PUSH2 0x3A60 PUSH1 0xB DUP4 PUSH2 0x34D8 JUMP JUMPDEST SWAP2 POP PUSH2 0x3A6B DUP3 PUSH2 0x3A2A JUMP JUMPDEST PUSH1 0x20 DUP3 ADD SWAP1 POP SWAP2 SWAP1 POP JUMP JUMPDEST PUSH1 0x0 PUSH1 0x20 DUP3 ADD SWAP1 POP DUP2 DUP2 SUB PUSH1 0x0 DUP4 ADD MSTORE PUSH2 0x3A8F DUP2 PUSH2 0x3A53 JUMP JUMPDEST SWAP1 POP SWAP2 SWAP1 POP JUMP JUMPDEST PUSH32 0x57616B7475204861626973000000000000000000000000000000000000000000 PUSH1 0x0 DUP3 ADD MSTORE POP JUMP JUMPDEST PUSH1 0x0 PUSH2 0x3ACC PUSH1 0xB DUP4 PUSH2 0x34D8 JUMP JUMPDEST SWAP2 POP PUSH2 0x3AD7 DUP3 PUSH2 0x3A96 JUMP JUMPDEST PUSH1 0x20 DUP3 ADD SWAP1 POP SWAP2 SWAP1 POP JUMP JUMPDEST PUSH1 0x0 PUSH1 0x20 DUP3 ADD SWAP1 POP DUP2 DUP2 SUB PUSH1 0x0 DUP4 ADD MSTORE PUSH2 0x3AFB DUP2 PUSH2 0x3ABF JUMP JUMPDEST SWAP1 POP SWAP2 SWAP1 POP JUMP JUMPDEST PUSH32 0x537564616820566F746500000000000000000000000000000000000000000000 PUSH1 0x0 DUP3 ADD MSTORE POP JUMP JUMPDEST PUSH1 0x0 PUSH2 0x3B38 PUSH1 0xA DUP4 PUSH2 0x34D8 JUMP JUMPDEST SWAP2 POP PUSH2 0x3B43 DUP3 PUSH2 0x3B02 JUMP JUMPDEST PUSH1 0x20 DUP3 ADD SWAP1 POP SWAP2 SWAP1 POP JUMP JUMPDEST PUSH1 0x0 PUSH1 0x20 DUP3 ADD SWAP1 POP DUP2 DUP2 SUB PUSH1 0x0 DUP4 ADD MSTORE PUSH2 0x3B67 DUP2 PUSH2 0x3B2B JUMP JUMPDEST SWAP1 POP SWAP2 SWAP1 POP JUMP JUMPDEST PUSH32 0x53756461682053656C6573616900000000000000000000000000000000000000 PUSH1 0x0 DUP3 ADD MSTORE POP JUMP JUMPDEST PUSH1 0x0 PUSH2 0x3BA4 PUSH1 0xD DUP4 PUSH2 0x34D8 JUMP JUMPDEST SWAP2 POP PUSH2 0x3BAF DUP3 PUSH2 0x3B6E JUMP JUMPDEST PUSH1 0x20 DUP3 ADD SWAP1 POP SWAP2 SWAP1 POP JUMP JUMPDEST PUSH1 0x0 PUSH1 0x20 DUP3 ADD SWAP1 POP DUP2 DUP2 SUB PUSH1 0x0 DUP4 ADD MSTORE PUSH2 0x3BD3 DUP2 PUSH2 0x3B97 JUMP JUMPDEST SWAP1 POP SWAP2 SWAP1 POP JUMP JUMPDEST PUSH1 0x0 DUP2 MLOAD SWAP1 POP PUSH2 0x3BE9 DUP2 PUSH2 0x33AD JUMP JUMPDEST SWAP3 SWAP2 POP POP JUMP JUMPDEST PUSH1 0x0 PUSH1 0x20 DUP3 DUP5 SUB SLT ISZERO PUSH2 0x3C05 JUMPI PUSH2 0x3C04 PUSH2 0x3399 JUMP JUMPDEST JUMPDEST PUSH1 0x0 PUSH2 0x3C13 DUP5 DUP3 DUP6 ADD PUSH2 0x3BDA JUMP JUMPDEST SWAP2 POP POP SWAP3 SWAP2 POP POP JUMP JUMPDEST PUSH32 0x4E6F20546F6B656E000000000000000000000000000000000000000000000000 PUSH1 0x0 DUP3 ADD MSTORE POP JUMP JUMPDEST PUSH1 0x0 PUSH2 0x3C52 PUSH1 0x8 DUP4 PUSH2 0x34D8 JUMP JUMPDEST SWAP2 POP PUSH2 0x3C5D DUP3 PUSH2 0x3C1C JUMP JUMPDEST PUSH1 0x20 DUP3 ADD SWAP1 POP SWAP2 SWAP1 POP JUMP JUMPDEST PUSH1 0x0 PUSH1 0x20 DUP3 ADD SWAP1 POP DUP2 DUP2 SUB PUSH1 0x0 DUP4 ADD MSTORE PUSH2 0x3C81 DUP2 PUSH2 0x3C45 JUMP JUMPDEST SWAP1 POP SWAP2 SWAP1 POP JUMP JUMPDEST PUSH32 0x4E487B7100000000000000000000000000000000000000000000000000000000 PUSH1 0x0 MSTORE PUSH1 0x11 PUSH1 0x4 MSTORE PUSH1 0x24 PUSH1 0x0 REVERT JUMPDEST PUSH1 0x0 PUSH2 0x3CC2 DUP3 PUSH2 0x33A3 JUMP JUMPDEST SWAP2 POP PUSH2 0x3CCD DUP4 PUSH2 0x33A3 JUMP JUMPDEST SWAP3 POP DUP3 DUP3 ADD SWAP1 POP DUP1 DUP3 GT ISZERO PUSH2 0x3CE5 JUMPI PUSH2 0x3CE4 PUSH2 0x3C88 JUMP JUMPDEST JUMPDEST SWAP3 SWAP2 POP POP JUMP JUMPDEST PUSH1 0x0 PUSH1 0x60 DUP3 ADD SWAP1 POP PUSH2 0x3D00 PUSH1 0x0 DUP4 ADD DUP7 PUSH2 0x3406 JUMP JUMPDEST PUSH2 0x3D0D PUSH1 0x20 DUP4 ADD DUP6 PUSH2 0x34BE JUMP JUMPDEST PUSH2 0x3D1A PUSH1 0x40 DUP4 ADD DUP5 PUSH2 0x3406 JUMP JUMPDEST SWAP5 SWAP4 POP POP POP POP JUMP JUMPDEST PUSH32 0x4E487B7100000000000000000000000000000000000000000000000000000000 PUSH1 0x0 MSTORE PUSH1 0x12 PUSH1 0x4 MSTORE PUSH1 0x24 PUSH1 0x0 REVERT JUMPDEST PUSH1 0x0 PUSH2 0x3D5C DUP3 PUSH2 0x33A3 JUMP JUMPDEST SWAP2 POP PUSH2 0x3D67 DUP4 PUSH2 0x33A3 JUMP JUMPDEST SWAP3 POP DUP3 PUSH2 0x3D77 JUMPI PUSH2 0x3D76 PUSH2 0x3D22 JUMP JUMPDEST JUMPDEST DUP3 DUP3 DIV SWAP1 POP SWAP3 SWAP2 POP POP JUMP JUMPDEST PUSH32 0x4E487B7100000000000000000000000000000000000000000000000000000000 PUSH1 0x0 MSTORE PUSH1 0x22 PUSH1 0x4 MSTORE PUSH1 0x24 PUSH1 0x0 REVERT JUMPDEST PUSH1 0x0 PUSH1 0x2 DUP3 DIV SWAP1 POP PUSH1 0x1 DUP3 AND DUP1 PUSH2 0x3DC9 JUMPI PUSH1 0x7F DUP3 AND SWAP2 POP JUMPDEST PUSH1 0x20 DUP3 LT DUP2 SUB PUSH2 0x3DDC JUMPI PUSH2 0x3DDB PUSH2 0x3D82 JUMP JUMPDEST JUMPDEST POP SWAP2 SWAP1 POP JUMP JUMPDEST PUSH1 0x0 PUSH1 0x60 DUP3 ADD SWAP1 POP PUSH2 0x3DF7 PUSH1 0x0 DUP4 ADD DUP7 PUSH2 0x34BE JUMP JUMPDEST PUSH2 0x3E04 PUSH1 0x20 DUP4 ADD DUP6 PUSH2 0x34BE JUMP JUMPDEST PUSH2 0x3E11 PUSH1 0x40 DUP4 ADD DUP5 PUSH2 0x3406 JUMP JUMPDEST SWAP5 SWAP4 POP POP POP POP JUMP JUMPDEST PUSH2 0x3E22 DUP2 PUSH2 0x355D JUMP JUMPDEST DUP2 EQ PUSH2 0x3E2D JUMPI PUSH1 0x0 DUP1 REVERT JUMPDEST POP JUMP JUMPDEST PUSH1 0x0 DUP2 MLOAD SWAP1 POP PUSH2 0x3E3F DUP2 PUSH2 0x3E19 JUMP JUMPDEST SWAP3 SWAP2 POP POP JUMP JUMPDEST PUSH1 0x0 PUSH1 0x20 DUP3 DUP5 SUB SLT ISZERO PUSH2 0x3E5B JUMPI PUSH2 0x3E5A PUSH2 0x3399 JUMP JUMPDEST JUMPDEST PUSH1 0x0 PUSH2 0x3E69 DUP5 DUP3 DUP6 ADD PUSH2 0x3E30 JUMP JUMPDEST SWAP2 POP POP SWAP3 SWAP2 POP POP JUMP JUMPDEST PUSH32 0x476167616C205472616E73666572000000000000000000000000000000000000 PUSH1 0x0 DUP3 ADD MSTORE POP JUMP JUMPDEST PUSH1 0x0 PUSH2 0x3EA8 PUSH1 0xE DUP4 PUSH2 0x34D8 JUMP JUMPDEST SWAP2 POP PUSH2 0x3EB3 DUP3 PUSH2 0x3E72 JUMP JUMPDEST PUSH1 0x20 DUP3 ADD SWAP1 POP SWAP2 SWAP1 POP JUMP JUMPDEST PUSH1 0x0 PUSH1 0x20 DUP3 ADD SWAP1 POP DUP2 DUP2 SUB PUSH1 0x0 DUP4 ADD MSTORE PUSH2 0x3ED7 DUP2 PUSH2 0x3E9B JUMP JUMPDEST SWAP1 POP SWAP2 SWAP1 POP JUMP JUMPDEST PUSH1 0x0 PUSH2 0x3EE9 DUP3 PUSH2 0x33A3 JUMP JUMPDEST SWAP2 POP PUSH2 0x3EF4 DUP4 PUSH2 0x33A3 JUMP JUMPDEST SWAP3 POP DUP3 DUP3 MUL PUSH2 0x3F02 DUP2 PUSH2 0x33A3 JUMP JUMPDEST SWAP2 POP DUP3 DUP3 DIV DUP5 EQ DUP4 ISZERO OR PUSH2 0x3F19 JUMPI PUSH2 0x3F18 PUSH2 0x3C88 JUMP JUMPDEST JUMPDEST POP SWAP3 SWAP2 POP POP JUMP JUMPDEST PUSH1 0x0 PUSH2 0x3F2B DUP3 PUSH2 0x3951 JUMP JUMPDEST SWAP2 POP PUSH2 0x3F36 DUP4 PUSH2 0x3951 JUMP JUMPDEST SWAP3 POP DUP3 DUP3 ADD SWAP1 POP DUP3 DUP2 SLT ISZERO PUSH1 0x0 DUP4 SLT AND DUP4 DUP3 SLT PUSH1 0x0 DUP5 SLT ISZERO AND OR ISZERO PUSH2 0x3F5E JUMPI PUSH2 0x3F5D PUSH2 0x3C88 JUMP JUMPDEST JUMPDEST SWAP3 SWAP2 POP POP JUMP JUMPDEST PUSH1 0x0 PUSH2 0x3F6F DUP3 PUSH2 0x3951 JUMP JUMPDEST SWAP2 POP PUSH2 0x3F7A DUP4 PUSH2 0x3951 JUMP JUMPDEST SWAP3 POP DUP3 DUP3 SUB SWAP1 POP DUP2 DUP2 SLT PUSH1 0x0 DUP5 SLT AND DUP3 DUP3 SGT PUSH1 0x0 DUP6 SLT ISZERO AND OR ISZERO PUSH2 0x3FA1 JUMPI PUSH2 0x3FA0 PUSH2 0x3C88 JUMP JUMPDEST JUMPDEST SWAP3 SWAP2 POP POP JUMP JUMPDEST PUSH32 0x48616E79612041646D696E000000000000000000000000000000000000000000 PUSH1 0x0 DUP3 ADD MSTORE POP JUMP JUMPDEST PUSH1 0x0 PUSH2 0x3FDD PUSH1 0xB DUP4 PUSH2 0x34D8 JUMP JUMPDEST SWAP2 POP PUSH2 0x3FE8 DUP3 PUSH2 0x3FA7 JUMP JUMPDEST PUSH1 0x20 DUP3 ADD SWAP1 POP SWAP2 SWAP1 POP JUMP JUMPDEST PUSH1 0x0 PUSH1 0x20 DUP3 ADD SWAP1 POP DUP2 DUP2 SUB PUSH1 0x0 DUP4 ADD MSTORE PUSH2 0x400C DUP2 PUSH2 0x3FD0 JUMP JUMPDEST SWAP1 POP SWAP2 SWAP1 POP JUMP JUMPDEST PUSH32 0x47616A692068617269616E2062656C756D206469736574207669612050726F70 PUSH1 0x0 DUP3 ADD MSTORE PUSH32 0x6F73616C21000000000000000000000000000000000000000000000000000000 PUSH1 0x20 DUP3 ADD MSTORE POP JUMP JUMPDEST PUSH1 0x0 PUSH2 0x406F PUSH1 0x25 DUP4 PUSH2 0x34D8 JUMP JUMPDEST SWAP2 POP PUSH2 0x407A DUP3 PUSH2 0x4013 JUMP JUMPDEST PUSH1 0x40 DUP3 ADD SWAP1 POP SWAP2 SWAP1 POP JUMP JUMPDEST PUSH1 0x0 PUSH1 0x20 DUP3 ADD SWAP1 POP DUP2 DUP2 SUB PUSH1 0x0 DUP4 ADD MSTORE PUSH2 0x409E DUP2 PUSH2 0x4062 JUMP JUMPDEST SWAP1 POP SWAP2 SWAP1 POP JUMP JUMPDEST PUSH32 0x4861726920696E692073756461682067616A69616E2100000000000000000000 PUSH1 0x0 DUP3 ADD MSTORE POP JUMP JUMPDEST PUSH1 0x0 PUSH2 0x40DB PUSH1 0x16 DUP4 PUSH2 0x34D8 JUMP JUMPDEST SWAP2 POP PUSH2 0x40E6 DUP3 PUSH2 0x40A5 JUMP JUMPDEST PUSH1 0x20 DUP3 ADD SWAP1 POP SWAP2 SWAP1 POP JUMP JUMPDEST PUSH1 0x0 PUSH1 0x20 DUP3 ADD SWAP1 POP DUP2 DUP2 SUB PUSH1 0x0 DUP4 ADD MSTORE PUSH2 0x410A DUP2 PUSH2 0x40CE JUMP JUMPDEST SWAP1 POP SWAP2 SWAP1 POP JUMP JUMPDEST PUSH32 0x47414A492048415249414E000000000000000000000000000000000000000000 PUSH1 0x0 DUP3 ADD MSTORE POP JUMP JUMPDEST PUSH1 0x0 PUSH2 0x4147 PUSH1 0xB DUP4 PUSH2 0x34D8 JUMP JUMPDEST SWAP2 POP PUSH2 0x4152 DUP3 PUSH2 0x4111 JUMP JUMPDEST PUSH1 0x20 DUP3 ADD SWAP1 POP SWAP2 SWAP1 POP JUMP JUMPDEST PUSH32 0x47616A6920527574696E2048617269616E000000000000000000000000000000 PUSH1 0x0 DUP3 ADD MSTORE POP JUMP JUMPDEST PUSH1 0x0 PUSH2 0x4193 PUSH1 0x11 DUP4 PUSH2 0x34D8 JUMP JUMPDEST SWAP2 POP PUSH2 0x419E DUP3 PUSH2 0x415D JUMP JUMPDEST PUSH1 0x20 DUP3 ADD SWAP1 POP SWAP2 SWAP1 POP JUMP JUMPDEST PUSH1 0x0 PUSH1 0x80 DUP3 ADD SWAP1 POP DUP2 DUP2 SUB PUSH1 0x0 DUP4 ADD MSTORE PUSH2 0x41C2 DUP2 PUSH2 0x413A JUMP JUMPDEST SWAP1 POP PUSH2 0x41D1 PUSH1 0x20 DUP4 ADD DUP6 PUSH2 0x34BE JUMP JUMPDEST PUSH2 0x41DE PUSH1 0x40 DUP4 ADD DUP5 PUSH2 0x3406 JUMP JUMPDEST DUP2 DUP2 SUB PUSH1 0x60 DUP4 ADD MSTORE PUSH2 0x41EF DUP2 PUSH2 0x4186 JUMP JUMPDEST SWAP1 POP SWAP4 SWAP3 POP POP POP JUMP JUMPDEST PUSH32 0x4E6968696C000000000000000000000000000000000000000000000000000000 PUSH1 0x0 DUP3 ADD MSTORE POP JUMP JUMPDEST PUSH1 0x0 PUSH2 0x422E PUSH1 0x5 DUP4 PUSH2 0x34D8 JUMP JUMPDEST SWAP2 POP PUSH2 0x4239 DUP3 PUSH2 0x41F8 JUMP JUMPDEST PUSH1 0x20 DUP3 ADD SWAP1 POP SWAP2 SWAP1 POP JUMP JUMPDEST PUSH1 0x0 PUSH1 0x20 DUP3 ADD SWAP1 POP DUP2 DUP2 SUB PUSH1 0x0 DUP4 ADD MSTORE PUSH2 0x425D DUP2 PUSH2 0x4221 JUMP JUMPDEST SWAP1 POP SWAP2 SWAP1 POP JUMP JUMPDEST PUSH1 0x0 PUSH1 0x40 DUP3 ADD SWAP1 POP PUSH2 0x4279 PUSH1 0x0 DUP4 ADD DUP6 PUSH2 0x34BE JUMP JUMPDEST PUSH2 0x4286 PUSH1 0x20 DUP4 ADD DUP5 PUSH2 0x3406 JUMP JUMPDEST SWAP4 SWAP3 POP POP POP JUMP JUMPDEST PUSH32 0x476167616C000000000000000000000000000000000000000000000000000000 PUSH1 0x0 DUP3 ADD MSTORE POP JUMP JUMPDEST PUSH1 0x0 PUSH2 0x42C3 PUSH1 0x5 DUP4 PUSH2 0x34D8 JUMP JUMPDEST SWAP2 POP PUSH2 0x42CE DUP3 PUSH2 0x428D JUMP JUMPDEST PUSH1 0x20 DUP3 ADD SWAP1 POP SWAP2 SWAP1 POP JUMP JUMPDEST PUSH1 0x0 PUSH1 0x20 DUP3 ADD SWAP1 POP DUP2 DUP2 SUB PUSH1 0x0 DUP4 ADD MSTORE PUSH2 0x42F2 DUP2 PUSH2 0x42B6 JUMP JUMPDEST SWAP1 POP SWAP2 SWAP1 POP JUMP JUMPDEST PUSH1 0x0 PUSH2 0x4304 DUP3 PUSH2 0x33A3 JUMP JUMPDEST SWAP2 POP PUSH2 0x430F DUP4 PUSH2 0x33A3 JUMP JUMPDEST SWAP3 POP DUP3 DUP3 SUB SWAP1 POP DUP2 DUP2 GT ISZERO PUSH2 0x4327 JUMPI PUSH2 0x4326 PUSH2 0x3C88 JUMP JUMPDEST JUMPDEST SWAP3 SWAP2 POP POP JUMP JUMPDEST PUSH32 0x4D6573696E204D61746900000000000000000000000000000000000000000000 PUSH1 0x0 DUP3 ADD MSTORE POP JUMP JUMPDEST PUSH1 0x0 PUSH2 0x4363 PUSH1 0xA DUP4 PUSH2 0x34D8 JUMP JUMPDEST SWAP2 POP PUSH2 0x436E DUP3 PUSH2 0x432D JUMP JUMPDEST PUSH1 0x20 DUP3 ADD SWAP1 POP SWAP2 SWAP1 POP JUMP JUMPDEST PUSH1 0x0 PUSH1 0x20 DUP3 ADD SWAP1 POP DUP2 DUP2 SUB PUSH1 0x0 DUP4 ADD MSTORE PUSH2 0x4392 DUP2 PUSH2 0x4356 JUMP JUMPDEST SWAP1 POP SWAP2 SWAP1 POP JUMP JUMPDEST PUSH32 0x476167616C204261796172000000000000000000000000000000000000000000 PUSH1 0x0 DUP3 ADD MSTORE POP JUMP JUMPDEST PUSH1 0x0 PUSH2 0x43CF PUSH1 0xB DUP4 PUSH2 0x34D8 JUMP JUMPDEST SWAP2 POP PUSH2 0x43DA DUP3 PUSH2 0x4399 JUMP JUMPDEST PUSH1 0x20 DUP3 ADD SWAP1 POP SWAP2 SWAP1 POP JUMP JUMPDEST PUSH1 0x0 PUSH1 0x20 DUP3 ADD SWAP1 POP DUP2 DUP2 SUB PUSH1 0x0 DUP4 ADD MSTORE PUSH2 0x43FE DUP2 PUSH2 0x43C2 JUMP JUMPDEST SWAP1 POP SWAP2 SWAP1 POP JUMP JUMPDEST PUSH1 0x0 PUSH1 0x40 DUP3 ADD SWAP1 POP PUSH2 0x441A PUSH1 0x0 DUP4 ADD DUP6 PUSH2 0x3406 JUMP JUMPDEST PUSH2 0x4427 PUSH1 0x20 DUP4 ADD DUP5 PUSH2 0x3406 JUMP JUMPDEST SWAP4 SWAP3 POP POP POP JUMP JUMPDEST PUSH32 0x536F6C64204F7574000000000000000000000000000000000000000000000000 PUSH1 0x0 DUP3 ADD MSTORE POP JUMP JUMPDEST PUSH1 0x0 PUSH2 0x4464 PUSH1 0x8 DUP4 PUSH2 0x34D8 JUMP JUMPDEST SWAP2 POP PUSH2 0x446F DUP3 PUSH2 0x442E JUMP JUMPDEST PUSH1 0x20 DUP3 ADD SWAP1 POP SWAP2 SWAP1 POP JUMP JUMPDEST PUSH1 0x0 PUSH1 0x20 DUP3 ADD SWAP1 POP DUP2 DUP2 SUB PUSH1 0x0 DUP4 ADD MSTORE PUSH2 0x4493 DUP2 PUSH2 0x4457 JUMP JUMPDEST SWAP1 POP SWAP2 SWAP1 POP JUMP JUMPDEST PUSH32 0x476167616C204261796172204944525400000000000000000000000000000000 PUSH1 0x0 DUP3 ADD MSTORE POP JUMP JUMPDEST PUSH1 0x0 PUSH2 0x44D0 PUSH1 0x10 DUP4 PUSH2 0x34D8 JUMP JUMPDEST SWAP2 POP PUSH2 0x44DB DUP3 PUSH2 0x449A JUMP JUMPDEST PUSH1 0x20 DUP3 ADD SWAP1 POP SWAP2 SWAP1 POP JUMP JUMPDEST PUSH1 0x0 PUSH1 0x20 DUP3 ADD SWAP1 POP DUP2 DUP2 SUB PUSH1 0x0 DUP4 ADD MSTORE PUSH2 0x44FF DUP2 PUSH2 0x44C3 JUMP JUMPDEST SWAP1 POP SWAP2 SWAP1 POP JUMP JUMPDEST PUSH32 0x476167616C204B6972696D20536168616D000000000000000000000000000000 PUSH1 0x0 DUP3 ADD MSTORE POP JUMP JUMPDEST PUSH1 0x0 PUSH2 0x453C PUSH1 0x11 DUP4 PUSH2 0x34D8 JUMP JUMPDEST SWAP2 POP PUSH2 0x4547 DUP3 PUSH2 0x4506 JUMP JUMPDEST PUSH1 0x20 DUP3 ADD SWAP1 POP SWAP2 SWAP1 POP JUMP JUMPDEST PUSH1 0x0 PUSH1 0x20 DUP3 ADD SWAP1 POP DUP2 DUP2 SUB PUSH1 0x0 DUP4 ADD MSTORE PUSH2 0x456B DUP2 PUSH2 0x452F JUMP JUMPDEST SWAP1 POP SWAP2 SWAP1 POP JUMP JUMPDEST PUSH1 0x0 PUSH1 0x60 DUP3 ADD SWAP1 POP PUSH2 0x4587 PUSH1 0x0 DUP4 ADD DUP7 PUSH2 0x34BE JUMP JUMPDEST PUSH2 0x4594 PUSH1 0x20 DUP4 ADD DUP6 PUSH2 0x3406 JUMP JUMPDEST PUSH2 0x45A1 PUSH1 0x40 DUP4 ADD DUP5 PUSH2 0x3406 JUMP JUMPDEST SWAP5 SWAP4 POP POP POP POP JUMP JUMPDEST PUSH1 0x0 PUSH2 0x45B4 DUP3 PUSH2 0x33A3 JUMP JUMPDEST SWAP2 POP PUSH32 0xFFFFFFFFFFFFFFFFFFFFFFFFFFFFFFFFFFFFFFFFFFFFFFFFFFFFFFFFFFFFFFFF DUP3 SUB PUSH2 0x45E6 JUMPI PUSH2 0x45E5 PUSH2 0x3C88 JUMP JUMPDEST JUMPDEST PUSH1 0x1 DUP3 ADD SWAP1 POP SWAP2 SWAP1 POP JUMP JUMPDEST PUSH1 0x0 DUP2 SWAP1 POP DUP2 PUSH1 0x0 MSTORE PUSH1 0x20 PUSH1 0x0 KECCAK256 SWAP1 POP SWAP2 SWAP1 POP JUMP JUMPDEST PUSH1 0x0 PUSH1 0x20 PUSH1 0x1F DUP4 ADD DIV SWAP1 POP SWAP2 SWAP1 POP JUMP JUMPDEST PUSH1 0x0 DUP3 DUP3 SHL SWAP1 POP SWAP3 SWAP2 POP POP JUMP JUMPDEST PUSH1 0x0 PUSH1 0x8 DUP4 MUL PUSH2 0x4653 PUSH32 0xFFFFFFFFFFFFFFFFFFFFFFFFFFFFFFFFFFFFFFFFFFFFFFFFFFFFFFFFFFFFFFFF DUP3 PUSH2 0x4616 JUMP JUMPDEST PUSH2 0x465D DUP7 DUP4 PUSH2 0x4616 JUMP JUMPDEST SWAP6 POP DUP1 NOT DUP5 AND SWAP4 POP DUP1 DUP7 AND DUP5 OR SWAP3 POP POP POP SWAP4 SWAP3 POP POP POP JUMP JUMPDEST PUSH1 0x0 PUSH2 0x4690 PUSH2 0x468B PUSH2 0x4686 DUP5 PUSH2 0x33A3 JUMP JUMPDEST PUSH2 0x3669 JUMP JUMPDEST PUSH2 0x33A3 JUMP JUMPDEST SWAP1 POP SWAP2 SWAP1 POP JUMP JUMPDEST PUSH1 0x0 DUP2 SWAP1 POP SWAP2 SWAP1 POP JUMP JUMPDEST PUSH2 0x46AA DUP4 PUSH2 0x4675 JUMP JUMPDEST PUSH2 0x46BE PUSH2 0x46B6 DUP3 PUSH2 0x4697 JUMP JUMPDEST DUP5 DUP5 SLOAD PUSH2 0x4623 JUMP JUMPDEST DUP3 SSTORE POP POP POP POP JUMP JUMPDEST PUSH1 0x0 SWAP1 JUMP JUMPDEST PUSH2 0x46D3 PUSH2 0x46C6 JUMP JUMPDEST PUSH2 0x46DE DUP2 DUP5 DUP5 PUSH2 0x46A1 JUMP JUMPDEST POP POP POP JUMP JUMPDEST JUMPDEST DUP2 DUP2 LT ISZERO PUSH2 0x4702 JUMPI PUSH2 0x46F7 PUSH1 0x0 DUP3 PUSH2 0x46CB JUMP JUMPDEST PUSH1 0x1 DUP2 ADD SWAP1 POP PUSH2 0x46E4 JUMP JUMPDEST POP POP JUMP JUMPDEST PUSH1 0x1F DUP3 GT ISZERO PUSH2 0x4747 JUMPI PUSH2 0x4718 DUP2 PUSH2 0x45F1 JUMP JUMPDEST PUSH2 0x4721 DUP5 PUSH2 0x4606 JUMP JUMPDEST DUP2 ADD PUSH1 0x20 DUP6 LT ISZERO PUSH2 0x4730 JUMPI DUP2 SWAP1 POP JUMPDEST PUSH2 0x4744 PUSH2 0x473C DUP6 PUSH2 0x4606 JUMP JUMPDEST DUP4 ADD DUP3 PUSH2 0x46E3 JUMP JUMPDEST POP POP JUMPDEST POP POP POP JUMP JUMPDEST PUSH1 0x0 DUP3 DUP3 SHR SWAP1 POP SWAP3 SWAP2 POP POP JUMP JUMPDEST PUSH1 0x0 PUSH2 0x476A PUSH1 0x0 NOT DUP5 PUSH1 0x8 MUL PUSH2 0x474C JUMP JUMPDEST NOT DUP1 DUP4 AND SWAP2 POP POP SWAP3 SWAP2 POP POP JUMP JUMPDEST PUSH1 0x0 PUSH2 0x4783 DUP4 DUP4 PUSH2 0x4759 JUMP JUMPDEST SWAP2 POP DUP3 PUSH1 0x2 MUL DUP3 OR SWAP1 POP SWAP3 SWAP2 POP POP JUMP JUMPDEST PUSH2 0x479C DUP3 PUSH2 0x34CD JUMP JUMPDEST PUSH8 0xFFFFFFFFFFFFFFFF DUP2 GT ISZERO PUSH2 0x47B5 JUMPI PUSH2 0x47B4 PUSH2 0x3735 JUMP JUMPDEST JUMPDEST PUSH2 0x47BF DUP3 SLOAD PUSH2 0x3DB1 JUMP JUMPDEST PUSH2 0x47CA DUP3 DUP3 DUP6 PUSH2 0x4706 JUMP JUMPDEST PUSH1 0x0 PUSH1 0x20 SWAP1 POP PUSH1 0x1F DUP4 GT PUSH1 0x1 DUP2 EQ PUSH2 0x47FD JUMPI PUSH1 0x0 DUP5 ISZERO PUSH2 0x47EB JUMPI DUP3 DUP8 ADD MLOAD SWAP1 POP JUMPDEST PUSH2 0x47F5 DUP6 DUP3 PUSH2 0x4777 JUMP JUMPDEST DUP7 SSTORE POP PUSH2 0x485D JUMP JUMPDEST PUSH1 0x1F NOT DUP5 AND PUSH2 0x480B DUP7 PUSH2 0x45F1 JUMP JUMPDEST PUSH1 0x0 JUMPDEST DUP3 DUP2 LT ISZERO PUSH2 0x4833 JUMPI DUP5 DUP10 ADD MLOAD DUP3 SSTORE PUSH1 0x1 DUP3 ADD SWAP2 POP PUSH1 0x20 DUP6 ADD SWAP5 POP PUSH1 0x20 DUP2 ADD SWAP1 POP PUSH2 0x480E JUMP JUMPDEST DUP7 DUP4 LT ISZERO PUSH2 0x4850 JUMPI DUP5 DUP10 ADD MLOAD PUSH2 0x484C PUSH1 0x1F DUP10 AND DUP3 PUSH2 0x4759 JUMP JUMPDEST DUP4 SSTORE POP JUMPDEST PUSH1 0x1 PUSH1 0x2 DUP9 MUL ADD DUP9 SSTORE POP POP POP JUMPDEST POP POP POP POP POP POP JUMP JUMPDEST PUSH32 0x56656E646F7220496C6567616C00000000000000000000000000000000000000 PUSH1 0x0 DUP3 ADD MSTORE POP JUMP JUMPDEST PUSH1 0x0 PUSH2 0x489B PUSH1 0xD DUP4 PUSH2 0x34D8 JUMP JUMPDEST SWAP2 POP PUSH2 0x48A6 DUP3 PUSH2 0x4865 JUMP JUMPDEST PUSH1 0x20 DUP3 ADD SWAP1 POP SWAP2 SWAP1 POP JUMP JUMPDEST PUSH1 0x0 PUSH1 0x20 DUP3 ADD SWAP1 POP DUP2 DUP2 SUB PUSH1 0x0 DUP4 ADD MSTORE PUSH2 0x48CA DUP2 PUSH2 0x488E JUMP JUMPDEST SWAP1 POP SWAP2 SWAP1 POP JUMP JUMPDEST PUSH32 0x44616E612047726F777468204B7572616E670000000000000000000000000000 PUSH1 0x0 DUP3 ADD MSTORE POP JUMP JUMPDEST PUSH1 0x0 PUSH2 0x4907 PUSH1 0x12 DUP4 PUSH2 0x34D8 JUMP JUMPDEST SWAP2 POP PUSH2 0x4912 DUP3 PUSH2 0x48D1 JUMP JUMPDEST PUSH1 0x20 DUP3 ADD SWAP1 POP SWAP2 SWAP1 POP JUMP JUMPDEST PUSH1 0x0 PUSH1 0x20 DUP3 ADD SWAP1 POP DUP2 DUP2 SUB PUSH1 0x0 DUP4 ADD MSTORE PUSH2 0x4936 DUP2 PUSH2 0x48FA JUMP JUMPDEST SWAP1 POP SWAP2 SWAP1 POP JUMP JUMPDEST PUSH32 0x42454C49204D4553494E00000000000000000000000000000000000000000000 PUSH1 0x0 DUP3 ADD MSTORE POP JUMP JUMPDEST PUSH1 0x0 PUSH2 0x4973 PUSH1 0xA DUP4 PUSH2 0x34D8 JUMP JUMPDEST SWAP2 POP PUSH2 0x497E DUP3 PUSH2 0x493D JUMP JUMPDEST PUSH1 0x20 DUP3 ADD SWAP1 POP SWAP2 SWAP1 POP JUMP JUMPDEST PUSH1 0x0 DUP2 SLOAD PUSH2 0x4996 DUP2 PUSH2 0x3DB1 JUMP JUMPDEST PUSH2 0x49A0 DUP2 DUP7 PUSH2 0x34D8 JUMP JUMPDEST SWAP5 POP PUSH1 0x1 DUP3 AND PUSH1 0x0 DUP2 EQ PUSH2 0x49BB JUMPI PUSH1 0x1 DUP2 EQ PUSH2 0x49D1 JUMPI PUSH2 0x4A04 JUMP JUMPDEST PUSH1 0xFF NOT DUP4 AND DUP7 MSTORE DUP2 ISZERO ISZERO PUSH1 0x20 MUL DUP7 ADD SWAP4 POP PUSH2 0x4A04 JUMP JUMPDEST PUSH2 0x49DA DUP6 PUSH2 0x45F1 JUMP JUMPDEST PUSH1 0x0 JUMPDEST DUP4 DUP2 LT ISZERO PUSH2 0x49FC JUMPI DUP2 SLOAD DUP2 DUP10 ADD MSTORE PUSH1 0x1 DUP3 ADD SWAP2 POP PUSH1 0x20 DUP2 ADD SWAP1 POP PUSH2 0x49DD JUMP JUMPDEST DUP1 DUP9 ADD SWAP6 POP POP POP JUMPDEST POP POP POP SWAP3 SWAP2 POP POP JUMP JUMPDEST PUSH1 0x0 PUSH1 0x80 DUP3 ADD SWAP1 POP DUP2 DUP2 SUB PUSH1 0x0 DUP4 ADD MSTORE PUSH2 0x4A26 DUP2 PUSH2 0x4966 JUMP JUMPDEST SWAP1 POP PUSH2 0x4A35 PUSH1 0x20 DUP4 ADD DUP7 PUSH2 0x34BE JUMP JUMPDEST PUSH2 0x4A42 PUSH1 0x40 DUP4 ADD DUP6 PUSH2 0x3406 JUMP JUMPDEST DUP2 DUP2 SUB PUSH1 0x60 DUP4 ADD MSTORE PUSH2 0x4A54 DUP2 DUP5 PUSH2 0x4989 JUMP JUMPDEST SWAP1 POP SWAP5 SWAP4 POP POP POP POP JUMP JUMPDEST PUSH32 0x42454C4920424148414E00000000000000000000000000000000000000000000 PUSH1 0x0 DUP3 ADD MSTORE POP JUMP JUMPDEST PUSH1 0x0 PUSH2 0x4A94 PUSH1 0xA DUP4 PUSH2 0x34D8 JUMP JUMPDEST SWAP2 POP PUSH2 0x4A9F DUP3 PUSH2 0x4A5E JUMP JUMPDEST PUSH1 0x20 DUP3 ADD SWAP1 POP SWAP2 SWAP1 POP JUMP JUMPDEST PUSH1 0x0 PUSH1 0x80 DUP3 ADD SWAP1 POP DUP2 DUP2 SUB PUSH1 0x0 DUP4 ADD MSTORE PUSH2 0x4AC3 DUP2 PUSH2 0x4A87 JUMP JUMPDEST SWAP1 POP PUSH2 0x4AD2 PUSH1 0x20 DUP4 ADD DUP7 PUSH2 0x34BE JUMP JUMPDEST PUSH2 0x4ADF PUSH1 0x40 DUP4 ADD DUP6 PUSH2 0x3406 JUMP JUMPDEST DUP2 DUP2 SUB PUSH1 0x60 DUP4 ADD MSTORE PUSH2 0x4AF1 DUP2 DUP5 PUSH2 0x4989 JUMP JUMPDEST SWAP1 POP SWAP5 SWAP4 POP POP POP POP JUMP JUMPDEST PUSH1 0x0 PUSH1 0x40 DUP3 ADD SWAP1 POP PUSH2 0x4B10 PUSH1 0x0 DUP4 ADD DUP6 PUSH2 0x3406 JUMP JUMPDEST PUSH2 0x4B1D PUSH1 0x20 DUP4 ADD DUP5 PUSH2 0x3569 JUMP JUMPDEST SWAP4 SWAP3 POP POP POP JUMP JUMPDEST PUSH32 0x4D61782057616C6C6574204C696D697420343025000000000000000000000000 PUSH1 0x0 DUP3 ADD MSTORE POP JUMP JUMPDEST PUSH1 0x0 PUSH2 0x4B5A PUSH1 0x14 DUP4 PUSH2 0x34D8 JUMP JUMPDEST SWAP2 POP PUSH2 0x4B65 DUP3 PUSH2 0x4B24 JUMP JUMPDEST PUSH1 0x20 DUP3 ADD SWAP1 POP SWAP2 SWAP1 POP JUMP JUMPDEST PUSH1 0x0 PUSH1 0x20 DUP3 ADD SWAP1 POP DUP2 DUP2 SUB PUSH1 0x0 DUP4 ADD MSTORE PUSH2 0x4B89 DUP2 PUSH2 0x4B4D JUMP JUMPDEST SWAP1 POP SWAP2 SWAP1 POP JUMP JUMPDEST PUSH32 0x4B6173204B6F736F6E6700000000000000000000000000000000000000000000 PUSH1 0x0 DUP3 ADD MSTORE POP JUMP JUMPDEST PUSH1 0x0 PUSH2 0x4BC6 PUSH1 0xA DUP4 PUSH2 0x34D8 JUMP JUMPDEST SWAP2 POP PUSH2 0x4BD1 DUP3 PUSH2 0x4B90 JUMP JUMPDEST PUSH1 0x20 DUP3 ADD SWAP1 POP SWAP2 SWAP1 POP JUMP JUMPDEST PUSH1 0x0 PUSH1 0x20 DUP3 ADD SWAP1 POP DUP2 DUP2 SUB PUSH1 0x0 DUP4 ADD MSTORE PUSH2 0x4BF5 DUP2 PUSH2 0x4BB9 JUMP JUMPDEST SWAP1 POP SWAP2 SWAP1 POP JUMP JUMPDEST PUSH32 0x4D6F64616C2047726F7774682046756E64204861626973210000000000000000 PUSH1 0x0 DUP3 ADD MSTORE POP JUMP JUMPDEST PUSH1 0x0 PUSH2 0x4C32 PUSH1 0x18 DUP4 PUSH2 0x34D8 JUMP JUMPDEST SWAP2 POP PUSH2 0x4C3D DUP3 PUSH2 0x4BFC JUMP JUMPDEST PUSH1 0x20 DUP3 ADD SWAP1 POP SWAP2 SWAP1 POP JUMP JUMPDEST PUSH1 0x0 PUSH1 0x20 DUP3 ADD SWAP1 POP DUP2 DUP2 SUB PUSH1 0x0 DUP4 ADD MSTORE PUSH2 0x4C61 DUP2 PUSH2 0x4C25 JUMP JUMPDEST SWAP1 POP SWAP2 SWAP1 POP JUMP JUMPDEST PUSH1 0x0 PUSH1 0x60 DUP3 ADD SWAP1 POP PUSH2 0x4C7D PUSH1 0x0 DUP4 ADD DUP7 PUSH2 0x3406 JUMP JUMPDEST DUP2 DUP2 SUB PUSH1 0x20 DUP4 ADD MSTORE PUSH2 0x4C8F DUP2 DUP6 PUSH2 0x3524 JUMP JUMPDEST SWAP1 POP DUP2 DUP2 SUB PUSH1 0x40 DUP4 ADD MSTORE PUSH2 0x4CA3 DUP2 DUP5 PUSH2 0x3524 JUMP JUMPDEST SWAP1 POP SWAP5 SWAP4 POP POP POP POP JUMP INVALID LOG2 PUSH5 0x6970667358 0x22 SLT KECCAK256 RJUMP 0x2414 ORIGIN 0xC6 PUSH7 0x6BCA42DDCFE619 DUP16 DUP11 BALANCE 0xCF PUSH31 0x90D1632E49DBE267C01C598A52464736F6C634300081E0033000000000000 "
		},
		"gasEstimates": {
			"creation": {
				"codeDepositCost": "3936600",
				"executionCost": "infinite",
				"totalCost": "infinite"
			},
			"external": {
				"DIVIDEND_RATE()": "374",
				"MAX_WALLET_PERCENT()": "419",
				"REINVEST_RATE()": "463",
				"addMachine(string)": "infinite",
				"assetToken()": "infinite",
				"buyCoffee(uint256)": "infinite",
				"buyShares(uint256)": "infinite",
				"claimDividends()": "infinite",
				"coffeePrice()": "2497",
				"cogsPerCup()": "2518",
				"getAvailableShares()": "infinite",
				"getOperationalReserve()": "infinite",
				"getWithdrawableDividend(address)": "infinite",
				"growthFund()": "2496",
				"isWhitelisted(address)": "2913",
				"lastPaid(address)": "2925",
				"machineCount()": "2519",
				"machines(uint256)": "infinite",
				"magnifiedDividendCorrections(address)": "2859",
				"magnifiedDividendPerShare()": "2475",
				"owner()": "2626",
				"payDailySalary(address)": "infinite",
				"paymentToken()": "infinite",
				"proposalCount()": "2473",
				"proposals(uint256)": "infinite",
				"proposeAddVendor(address,string)": "infinite",
				"proposeBuyMachine(address,uint256,string)": "infinite",
				"proposeBuyStock(address,uint256,string)": "infinite",
				"proposeUpdateSalary(address,uint256,string)": "infinite",
				"setCoffeePrice(uint256)": "24822",
				"sharePrice()": "2519",
				"staffSalaries(address)": "2924",
				"totalDividendsClaimed()": "2496",
				"totalDividendsDistributed()": "2497",
				"totalRevenue()": "2496",
				"transferSaham(address,uint256)": "infinite",
				"vote(uint256)": "infinite",
				"withdrawnDividends(address)": "2880"
			},
			"internal": {
				"_checkMaxWallet(address,uint256)": "infinite",
				"_createProposal(enum VendingMachineDAO.ProposalType,address,uint256,string memory)": "infinite",
				"_executeLogic(struct VendingMachineDAO.Proposal storage pointer)": "infinite",
				"_processPaymentSmart(address,uint256)": "infinite"
			}
		},
		"methodIdentifiers": {
			"DIVIDEND_RATE()": "b4b4b55e",
			"MAX_WALLET_PERCENT()": "2620b4ee",
			"REINVEST_RATE()": "51ce612c",
			"addMachine(string)": "d8e0f826",
			"assetToken()": "1083f761",
			"buyCoffee(uint256)": "b03b4a29",
			"buyShares(uint256)": "d1a93d18",
			"claimDividends()": "668038e0",
			"coffeePrice()": "1c8a4038",
			"cogsPerCup()": "c870b910",
			"getAvailableShares()": "817bc0cb",
			"getOperationalReserve()": "77056d0f",
			"getWithdrawableDividend(address)": "a4138b9b",
			"growthFund()": "5c3640ec",
			"isWhitelisted(address)": "3af32abf",
			"lastPaid(address)": "ad9adcdc",
			"machineCount()": "41260365",
			"machines(uint256)": "4d42845c",
			"magnifiedDividendCorrections(address)": "97a06724",
			"magnifiedDividendPerShare()": "3a7960e0",
			"owner()": "8da5cb5b",
			"payDailySalary(address)": "16c70448",
			"paymentToken()": "3013ce29",
			"proposalCount()": "da35c664",
			"proposals(uint256)": "013cf08b",
			"proposeAddVendor(address,string)": "e70b7424",
			"proposeBuyMachine(address,uint256,string)": "33c5e003",
			"proposeBuyStock(address,uint256,string)": "56544490",
			"proposeUpdateSalary(address,uint256,string)": "679b9144",
			"setCoffeePrice(uint256)": "f847dff7",
			"sharePrice()": "87269729",
			"staffSalaries(address)": "eecace28",
			"totalDividendsClaimed()": "9f13464e",
			"totalDividendsDistributed()": "85a6b3ae",
			"totalRevenue()": "bf2d9e0b",
			"transferSaham(address,uint256)": "0eb94a67",
			"vote(uint256)": "0121b93f",
			"withdrawnDividends(address)": "de3aaf61"
		}
	},
	"abi": [
		{
			"inputs": [
				{
					"internalType": "address",
					"name": "_paymentToken",
					"type": "address"
				},
				{
					"internalType": "address",
					"name": "_assetToken",
					"type": "address"
				},
				{
					"internalType": "uint256",
					"name": "_coffeePrice",
					"type": "uint256"
				}
			],
			"stateMutability": "nonpayable",
			"type": "constructor"
		},
		{
			"anonymous": false,
			"inputs": [
				{
					"indexed": true,
					"internalType": "uint256",
					"name": "machineId",
					"type": "uint256"
				},
				{
					"indexed": false,
					"internalType": "address",
					"name": "buyer",
					"type": "address"
				},
				{
					"indexed": false,
					"internalType": "uint256",
					"name": "amount",
					"type": "uint256"
				}
			],
			"name": "CoffeeOrdered",
			"type": "event"
		},
		{
			"anonymous": false,
			"inputs": [
				{
					"indexed": false,
					"internalType": "address",
					"name": "investor",
					"type": "address"
				},
				{
					"indexed": false,
					"internalType": "uint256",
					"name": "amount",
					"type": "uint256"
				}
			],
			"name": "DividendClaimed",
			"type": "event"
		},
		{
			"anonymous": false,
			"inputs": [
				{
					"indexed": false,
					"internalType": "string",
					"name": "category",
					"type": "string"
				},
				{
					"indexed": false,
					"internalType": "address",
					"name": "to",
					"type": "address"
				},
				{
					"indexed": false,
					"internalType": "uint256",
					"name": "amount",
					"type": "uint256"
				},
				{
					"indexed": false,
					"internalType": "string",
					"name": "note",
					"type": "string"
				}
			],
			"name": "ExpensePaid",
			"type": "event"
		},
		{
			"anonymous": false,
			"inputs": [
				{
					"indexed": false,
					"internalType": "uint256",
					"name": "dividendAmount",
					"type": "uint256"
				},
				{
					"indexed": false,
					"internalType": "uint256",
					"name": "growthAmount",
					"type": "uint256"
				}
			],
			"name": "ProfitDistributed",
			"type": "event"
		},
		{
			"anonymous": false,
			"inputs": [
				{
					"indexed": false,
					"internalType": "uint256",
					"name": "id",
					"type": "uint256"
				},
				{
					"indexed": false,
					"internalType": "string",
					"name": "pType",
					"type": "string"
				},
				{
					"indexed": false,
					"internalType": "string",
					"name": "desc",
					"type": "string"
				}
			],
			"name": "ProposalCreated",
			"type": "event"
		},
		{
			"anonymous": false,
			"inputs": [
				{
					"indexed": false,
					"internalType": "uint256",
					"name": "id",
					"type": "uint256"
				},
				{
					"indexed": false,
					"internalType": "bool",
					"name": "success",
					"type": "bool"
				}
			],
			"name": "ProposalExecuted",
			"type": "event"
		},
		{
			"anonymous": false,
			"inputs": [
				{
					"indexed": false,
					"internalType": "address",
					"name": "from",
					"type": "address"
				},
				{
					"indexed": false,
					"internalType": "address",
					"name": "to",
					"type": "address"
				},
				{
					"indexed": false,
					"internalType": "uint256",
					"name": "amount",
					"type": "uint256"
				}
			],
			"name": "ShareTransferred",
			"type": "event"
		},
		{
			"anonymous": false,
			"inputs": [
				{
					"indexed": false,
					"internalType": "address",
					"name": "investor",
					"type": "address"
				},
				{
					"indexed": false,
					"internalType": "uint256",
					"name": "amount",
					"type": "uint256"
				},
				{
					"indexed": false,
					"internalType": "uint256",
					"name": "cost",
					"type": "uint256"
				}
			],
			"name": "SharesPurchased",
			"type": "event"
		},
		{
			"anonymous": false,
			"inputs": [
				{
					"indexed": false,
					"internalType": "uint256",
					"name": "proposalId",
					"type": "uint256"
				},
				{
					"indexed": false,
					"internalType": "address",
					"name": "voter",
					"type": "address"
				},
				{
					"indexed": false,
					"internalType": "uint256",
					"name": "weight",
					"type": "uint256"
				}
			],
			"name": "Voted",
			"type": "event"
		},
		{
			"inputs": [],
			"name": "DIVIDEND_RATE",
			"outputs": [
				{
					"internalType": "uint256",
					"name": "",
					"type": "uint256"
				}
			],
			"stateMutability": "view",
			"type": "function"
		},
		{
			"inputs": [],
			"name": "MAX_WALLET_PERCENT",
			"outputs": [
				{
					"internalType": "uint256",
					"name": "",
					"type": "uint256"
				}
			],
			"stateMutability": "view",
			"type": "function"
		},
		{
			"inputs": [],
			"name": "REINVEST_RATE",
			"outputs": [
				{
					"internalType": "uint256",
					"name": "",
					"type": "uint256"
				}
			],
			"stateMutability": "view",
			"type": "function"
		},
		{
			"inputs": [
				{
					"internalType": "string",
					"name": "_loc",
					"type": "string"
				}
			],
			"name": "addMachine",
			"outputs": [],
			"stateMutability": "nonpayable",
			"type": "function"
		},
		{
			"inputs": [],
			"name": "assetToken",
			"outputs": [
				{
					"internalType": "contract IERC20",
					"name": "",
					"type": "address"
				}
			],
			"stateMutability": "view",
			"type": "function"
		},
		{
			"inputs": [
				{
					"internalType": "uint256",
					"name": "_machineId",
					"type": "uint256"
				}
			],
			"name": "buyCoffee",
			"outputs": [],
			"stateMutability": "nonpayable",
			"type": "function"
		},
		{
			"inputs": [
				{
					"internalType": "uint256",
					"name": "_amount",
					"type": "uint256"
				}
			],
			"name": "buyShares",
			"outputs": [],
			"stateMutability": "nonpayable",
			"type": "function"
		},
		{
			"inputs": [],
			"name": "claimDividends",
			"outputs": [],
			"stateMutability": "nonpayable",
			"type": "function"
		},
		{
			"inputs": [],
			"name": "coffeePrice",
			"outputs": [
				{
					"internalType": "uint256",
					"name": "",
					"type": "uint256"
				}
			],
			"stateMutability": "view",
			"type": "function"
		},
		{
			"inputs": [],
			"name": "cogsPerCup",
			"outputs": [
				{
					"internalType": "uint256",
					"name": "",
					"type": "uint256"
				}
			],
			"stateMutability": "view",
			"type": "function"
		},
		{
			"inputs": [],
			"name": "getAvailableShares",
			"outputs": [
				{
					"internalType": "uint256",
					"name": "",
					"type": "uint256"
				}
			],
			"stateMutability": "view",
			"type": "function"
		},
		{
			"inputs": [],
			"name": "getOperationalReserve",
			"outputs": [
				{
					"internalType": "uint256",
					"name": "",
					"type": "uint256"
				}
			],
			"stateMutability": "view",
			"type": "function"
		},
		{
			"inputs": [
				{
					"internalType": "address",
					"name": "_holder",
					"type": "address"
				}
			],
			"name": "getWithdrawableDividend",
			"outputs": [
				{
					"internalType": "uint256",
					"name": "",
					"type": "uint256"
				}
			],
			"stateMutability": "view",
			"type": "function"
		},
		{
			"inputs": [],
			"name": "growthFund",
			"outputs": [
				{
					"internalType": "uint256",
					"name": "",
					"type": "uint256"
				}
			],
			"stateMutability": "view",
			"type": "function"
		},
		{
			"inputs": [
				{
					"internalType": "address",
					"name": "",
					"type": "address"
				}
			],
			"name": "isWhitelisted",
			"outputs": [
				{
					"internalType": "bool",
					"name": "",
					"type": "bool"
				}
			],
			"stateMutability": "view",
			"type": "function"
		},
		{
			"inputs": [
				{
					"internalType": "address",
					"name": "",
					"type": "address"
				}
			],
			"name": "lastPaid",
			"outputs": [
				{
					"internalType": "uint256",
					"name": "",
					"type": "uint256"
				}
			],
			"stateMutability": "view",
			"type": "function"
		},
		{
			"inputs": [],
			"name": "machineCount",
			"outputs": [
				{
					"internalType": "uint256",
					"name": "",
					"type": "uint256"
				}
			],
			"stateMutability": "view",
			"type": "function"
		},
		{
			"inputs": [
				{
					"internalType": "uint256",
					"name": "",
					"type": "uint256"
				}
			],
			"name": "machines",
			"outputs": [
				{
					"internalType": "uint256",
					"name": "id",
					"type": "uint256"
				},
				{
					"internalType": "string",
					"name": "location",
					"type": "string"
				},
				{
					"internalType": "bool",
					"name": "isActive",
					"type": "bool"
				},
				{
					"internalType": "uint256",
					"name": "totalSales",
					"type": "uint256"
				}
			],
			"stateMutability": "view",
			"type": "function"
		},
		{
			"inputs": [
				{
					"internalType": "address",
					"name": "",
					"type": "address"
				}
			],
			"name": "magnifiedDividendCorrections",
			"outputs": [
				{
					"internalType": "int256",
					"name": "",
					"type": "int256"
				}
			],
			"stateMutability": "view",
			"type": "function"
		},
		{
			"inputs": [],
			"name": "magnifiedDividendPerShare",
			"outputs": [
				{
					"internalType": "uint256",
					"name": "",
					"type": "uint256"
				}
			],
			"stateMutability": "view",
			"type": "function"
		},
		{
			"inputs": [],
			"name": "owner",
			"outputs": [
				{
					"internalType": "address",
					"name": "",
					"type": "address"
				}
			],
			"stateMutability": "view",
			"type": "function"
		},
		{
			"inputs": [
				{
					"internalType": "address",
					"name": "_staff",
					"type": "address"
				}
			],
			"name": "payDailySalary",
			"outputs": [],
			"stateMutability": "nonpayable",
			"type": "function"
		},
		{
			"inputs": [],
			"name": "paymentToken",
			"outputs": [
				{
					"internalType": "contract IERC20",
					"name": "",
					"type": "address"
				}
			],
			"stateMutability": "view",
			"type": "function"
		},
		{
			"inputs": [],
			"name": "proposalCount",
			"outputs": [
				{
					"internalType": "uint256",
					"name": "",
					"type": "uint256"
				}
			],
			"stateMutability": "view",
			"type": "function"
		},
		{
			"inputs": [
				{
					"internalType": "uint256",
					"name": "",
					"type": "uint256"
				}
			],
			"name": "proposals",
			"outputs": [
				{
					"internalType": "uint256",
					"name": "id",
					"type": "uint256"
				},
				{
					"internalType": "enum VendingMachineDAO.ProposalType",
					"name": "pType",
					"type": "uint8"
				},
				{
					"internalType": "address",
					"name": "target",
					"type": "address"
				},
				{
					"internalType": "uint256",
					"name": "amount",
					"type": "uint256"
				},
				{
					"internalType": "string",
					"name": "description",
					"type": "string"
				},
				{
					"internalType": "uint256",
					"name": "voteCount",
					"type": "uint256"
				},
				{
					"internalType": "bool",
					"name": "executed",
					"type": "bool"
				},
				{
					"internalType": "uint256",
					"name": "endTime",
					"type": "uint256"
				}
			],
			"stateMutability": "view",
			"type": "function"
		},
		{
			"inputs": [
				{
					"internalType": "address",
					"name": "_vendor",
					"type": "address"
				},
				{
					"internalType": "string",
					"name": "_nama",
					"type": "string"
				}
			],
			"name": "proposeAddVendor",
			"outputs": [],
			"stateMutability": "nonpayable",
			"type": "function"
		},
		{
			"inputs": [
				{
					"internalType": "address",
					"name": "_vendor",
					"type": "address"
				},
				{
					"internalType": "uint256",
					"name": "_price",
					"type": "uint256"
				},
				{
					"internalType": "string",
					"name": "_desc",
					"type": "string"
				}
			],
			"name": "proposeBuyMachine",
			"outputs": [],
			"stateMutability": "nonpayable",
			"type": "function"
		},
		{
			"inputs": [
				{
					"internalType": "address",
					"name": "_vendor",
					"type": "address"
				},
				{
					"internalType": "uint256",
					"name": "_price",
					"type": "uint256"
				},
				{
					"internalType": "string",
					"name": "_desc",
					"type": "string"
				}
			],
			"name": "proposeBuyStock",
			"outputs": [],
			"stateMutability": "nonpayable",
			"type": "function"
		},
		{
			"inputs": [
				{
					"internalType": "address",
					"name": "_staff",
					"type": "address"
				},
				{
					"internalType": "uint256",
					"name": "_dailyAmount",
					"type": "uint256"
				},
				{
					"internalType": "string",
					"name": "_alasan",
					"type": "string"
				}
			],
			"name": "proposeUpdateSalary",
			"outputs": [],
			"stateMutability": "nonpayable",
			"type": "function"
		},
		{
			"inputs": [
				{
					"internalType": "uint256",
					"name": "_price",
					"type": "uint256"
				}
			],
			"name": "setCoffeePrice",
			"outputs": [],
			"stateMutability": "nonpayable",
			"type": "function"
		},
		{
			"inputs": [],
			"name": "sharePrice",
			"outputs": [
				{
					"internalType": "uint256",
					"name": "",
					"type": "uint256"
				}
			],
			"stateMutability": "view",
			"type": "function"
		},
		{
			"inputs": [
				{
					"internalType": "address",
					"name": "",
					"type": "address"
				}
			],
			"name": "staffSalaries",
			"outputs": [
				{
					"internalType": "uint256",
					"name": "",
					"type": "uint256"
				}
			],
			"stateMutability": "view",
			"type": "function"
		},
		{
			"inputs": [],
			"name": "totalDividendsClaimed",
			"outputs": [
				{
					"internalType": "uint256",
					"name": "",
					"type": "uint256"
				}
			],
			"stateMutability": "view",
			"type": "function"
		},
		{
			"inputs": [],
			"name": "totalDividendsDistributed",
			"outputs": [
				{
					"internalType": "uint256",
					"name": "",
					"type": "uint256"
				}
			],
			"stateMutability": "view",
			"type": "function"
		},
		{
			"inputs": [],
			"name": "totalRevenue",
			"outputs": [
				{
					"internalType": "uint256",
					"name": "",
					"type": "uint256"
				}
			],
			"stateMutability": "view",
			"type": "function"
		},
		{
			"inputs": [
				{
					"internalType": "address",
					"name": "_to",
					"type": "address"
				},
				{
					"internalType": "uint256",
					"name": "_amount",
					"type": "uint256"
				}
			],
			"name": "transferSaham",
			"outputs": [],
			"stateMutability": "nonpayable",
			"type": "function"
		},
		{
			"inputs": [
				{
					"internalType": "uint256",
					"name": "_id",
					"type": "uint256"
				}
			],
			"name": "vote",
			"outputs": [],
			"stateMutability": "nonpayable",
			"type": "function"
		},
		{
			"inputs": [
				{
					"internalType": "address",
					"name": "",
					"type": "address"
				}
			],
			"name": "withdrawnDividends",
			"outputs": [
				{
					"internalType": "uint256",
					"name": "",
					"type": "uint256"
				}
			],
			"stateMutability": "view",
			"type": "function"
		}
	]
}